:020000020000FC
:020000000C945E
:10000200DD7B0C9400000C9400000C9400000C9416
:1000120000000C9400000C9400000C9400000C945E
:1000220000000C9400000C9400000C9400000C944E
:1000320000000C9400000C9400000C9400000C943E
:1000420000000C9400000C9400000C9400000C942E
:1000520000000C9400000C9400000C9400000C941E
:1000620000000C9400000C9400000C9400000C940E
:1000720000000C9400000C9400000C9400000C94FE
:1000820000000C9400000C9400000C9400000C94EE
:1000920000000C9400000C9400000C9400000C94DE
:1000A20000000C9400000C9400000C9400000C94CE
:1000B20000000C9400000C9400000C9400000C94BE
:1000C20000000C9400000C9400000C9400000C94AE
:1000D20000000C9400000C9400000C9400000C949E
:1000E20000000C9400000C9400000C9400000C948E
:1000F20000000C9400000C9400000C9400000C947E
:1001020000000C9400000C9400000C9400000C946D
:1001120000000C9400000C9400000C9400000C945D
:1001220000000C9400000C9400000C9400000C944D
:1001320000000C9400000C9400000C9400000C943D
:1001420000000C9400000C9400000C9400000C942D
:1001520000000C9400000C9400000C9400000C941D
:1001620000000C9400000C9400000C9400000C940D
:1001720000000C9400000C9400000C9400000C94FD
:1001820000000C9400000C9400000C9400000C94ED
:1001920000000C9400000C9400000C9400000C94DD
:1001A20000000C9400000C9400000C9400000C94CD
:1001B20000000C9400000C9400000C9400000C94BD
:1001C20000000C9400000C9400000C9400000C94AD
:1001D20000000C9400000C9400000C9400000C949D
:1001E20000000C9400000C9400000C9400000C948D
:1001F200000010001000FFFFFFFFFFFFFFFFFFFFE7
:10020200FFFFFFFFFFFFFFFFFFFFFFFFFFFFFFFFFC
:10021200FFFFFFFFFFFFFFFFFFFFFFFFFFFFFFFFEC
:10022200FFFFFFFFFFFFFFFFFFFFFFFFFFFFFFFFDC
:10023200FFFFFFFFFFFFFFFFFFFFFFFFFFFFFFFFCC
:10024200FFFFFFFFFFFFFFFFFFFFFFFFBCE7E835F8
:1002520037BFFFFFFFFFFFFFFFFFFFFFFFFFFFFFB4
:10026200FFFFFFFFFFFFFFFFFFFFDEEF2B4E6F6F72
:10027200C83537BFFFFFFFFFFFFFFFFFFFFFFFFF95
:10028200FFFFFFFFFFFFFFFFFFFF2D666B4E2D5F9E
:100292004E67A835FFFFFFFFFFFFFFFFFFFFFFFFD6
:1002A200FFFFFFFFFFFFFFFF707E093ECC56AB4E04
:1002B200A93D37B7FFFFFFFFFFFF37BF683537BFE5
:1002C200FFFFFFFFFFFFB39EA93D6B4E6B4EA93DA3
:1002D200D49EFFFFFFFFFFFF17BF68356F676835CA
:1002E20017BFFFFFF7B66735A82D672D6735718EEB
:1002F200FFFFFFFFFFFFFFFF27352D5F8B4E0D5FD7
:1003020027359396683DA72DA625672D2F76FFFFEB
:10031200FFFFFFFFFFFFFFFFF7BE2735CC56E625A5
:100322008B4E2735A72DC51D672DCD65FFFFFFFF1E
:10033200FFFFFFFFFFFFFFFFFFFFF7BEE734693E4E
:10034200251E672E251E86256B55BDEFFFFFFFFF7D
:10035200FFFFFFFFFFFFFFFFFFFFFFFFF7BEE734D7
:10036200262E6516E51D294DBDEFFFFFFFFFFFFF9E
:10037200FFFFFFFFFFFFFFFFFFFFFFFFFFFF77BE54
:1003820067346525A83C3BDFFFFFFFFFFFFFFFFF50
:10039200FFFFFFFFFFFFFFFFFFFFFFFFFFFFFFFF6B
:1003A200739DE733D5ADFFFFFFFFFFFFFFFFFFFFA9
:1003B200FFFFFFFFFFFFFFFFFFFFFFFFFFFFFFFF4B
:1003C200FFFF3DEFFFFFFFFFFFFFFFFFFFFFFFFF0D
:1003D200FFFFFFFFFFFFFFFFFFFFFFFFFFFFFFFF2B
:1003E200FFFFFFFFFFFFFFFFFFFFFFFFFFFFFFFF1B
:1003F200FFFFFFFFFFFF10001000FFFFFFFFFFFFE7
:10040200FFFFFFFFFFFFFFFFFFFFFFFFFFFFFFFFFA
:10041200FFFFFFFFFFFFFFFFFFFFFFFFFFFFFFFFEA
:10042200FFFFFFFFFFFFFFFFFFFFFFFFFFFFFFFFDA
:10043200FFFFFFFFFFFFFFFFFFFFFFFFFFFFFFFFCA
:10044200B7EDA6B9B7EDFFFFFFFFFFFFFFFFB7ED67
:10045200A6B9B7EDFFFFFFFFFFFFFFFFFFFFB7EDFD
:10046200A6B9AFFBA6B9B7EDFFFFFFFFB7EDA6B97F
:100472008EFBA6B9B7EDFFFFFFFFFFFFFFFFA6B997
:10048200AFFB69DAAEFBA6B9B7EDB7EDA6B92CEBB7
:1004920069DAEBEAA6B9FFFFFFFFFFFFFFFFB7ED47
:1004A200A6B12DEBA7B9EBEAA6B1A6B169DAA7B955
:1004B20029CAA6B1B7EDFFFFFFFFFFFFFFFFFFFF56
:1004C200B7E5A6A9AADA65B9E7C986B9A398E3A8E8
:1004D200A6A9B7E5FFFFFFFFFFFFFFFFFFFFFFFF3B
:1004E200FFFFB7E5A6A925B982A082A0A3A8A6A965
:1004F200B7E5FFFFFFFFFFFFFFFFFFFFFFFFFFFF6C
:10050200FFFFB7DDA6A9A3A882A882A882A8A6A9F0
:10051200B7DDFFFFFFFFFFFFFFFFFFFFFFFFFFFF53
:10052200B7DDA6A182B882B882B882B882B882B892
:10053200A6A1B7DDFFFFFFFFFFFFFFFFFFFFB7DD54
:10054200A69982C882C882C8A699A69982C882C87A
:1005520082C8A699B7DDFFFFFFFFFFFFFFFFA69945
:1005620082D082D082D0A699B7DDB7DDA69982D09B
:1005720082D082D0A699FFFFFFFFFFFFFFFFB7CD1A
:10058200A68982D8A689B7CDFFFFFFFFB7CDA6897E
:1005920082D8A689B7CDFFFFFFFFFFFFFFFFFFFF56
:1005A200F3ACA679F3B4FFFFFFFFFFFFFFFFF3B445
:1005B200A679F3ACFFFFFFFFFFFFFFFFFFFFFFFF87
:1005C200FFFFFFFFFFFFFFFFFFFFFFFFFFFFFFFF39
:1005D200FFFFFFFFFFFFFFFFFFFFFFFFFFFFFFFF29
:1005E200FFFFFFFFFFFFFFFFFFFFFFFFFFFFFFFF19
:1005F200FFFFFFFFFFFFFFFFFFFF05072060000077
:100602000000000000040404040400040A0A0A00B2
:100612000000000A0A1F0A1F0A0A041E050E140F10
:10062200040313080402191806090502150916061F
:100632000402000000000804020202040802040886
:1006420008080402000A041F040A000004041F042C
:100652000400000000000604020000001F00000069
:1006620000000000060600001008040201000E113E
:10067200191513110E0406040404040E0E111008B9
:1006820004021F1F08040810110E080C0A091F0893
:10069200081F010F1010110E0C02010F11110E1F75
:1006A2001008040202020E11110E11110E0E111188
:1006B2001E100806000606000606000006060006D2
:1006C20004021008040204081000001F001F0000AA
:1006D200010204080402010E1110080400040E11A4
:1006E200101615150E0E1111111F11110F11110FE8
:1006F20011110F0E11010101110E0709111111093A
:10070200071F01010F01011F1F0101070101010E56
:1007120011010119110E1111111F1111110E0404F1
:100722000404040E1C08080808090611090503053B
:1007320009110101010101011F111B1511111111F3
:10074200111113151911110E11111111110E0F1191
:10075200110F0101010E1111111509160F11110FBF
:100762000509111E01010E10100F1F0404040404D8
:10077200041111111111110E11111111110A04118B
:10078200111115151B1111110A040A111111110A67
:10079200040404041F10080402011F1C04040404BE
:1007A200041C0001020408100007040404040407E6
:1007B200040A11000000000000000000001F0204F3
:1007C200080000000000000E101E111E01010D1392
:1007D20011110F00000E0101110E10101619111146
:1007E2001E00000E111F010E0C120207020202006F
:1007F200001E111E100C01010D131111110400062F
:100802000404040E08000C080809060202120A0673
:100812000A120604040404040E00000B151511113B
:1008220000000D1311111100000E1111110E000024
:100832000F110F0101000016191E101000000D13F8
:1008420001010100000E010E100F02020702021246
:100852000C0000111111191600001111110A0400E7
:1008620000111115150A0000110A040A11000011E5
:10087200111E100E00001F0804021F0804040204C7
:100882000408040404040404040204040804040222
:10089200021508000000001F11111111111F000E96
:1008A200206005020406060A070204040406030483
:1008B20003030606060606060606060603030606E2
:1008C20006060B08070707060608070205070608BB
:1008D2000708060807070607080B070807030303AC
:1008E20005060406060606060406060202050208B6
:1008F2000606060604060306060A0606060402049F
:1009020006080000000000000000000000000000D7
:1009120000000001010101010100010000000000CE
:1009220000050505000000000000000000000014A2
:10093200141F0A0A1F05050000000000000E15051D
:100942000E1414150E040000000000000000460002
:10095200290029001600D00028012801C400000047
:10096200000000000000000C12120C0A31112E00CF
:100972000000000000010101000000000000000072
:100982000000000402010101010101020400000053
:100992000001020404040404040201000000000235
:1009A2000702050000000000000000000000000433
:1009B200041F04040000000000000000000000000A
:1009C2000000020202000000000000000000070018
:1009D2000000000000000000000000000000020013
:1009E20000000000000404020202020101000000F3
:1009F2000000000E1111111111110E000000000073
:100A02000004060504040404040000000000000EB3
:100A12001110100804021F0000000000000E111047
:100A22000C1010110E000000000000080C0A0A0948
:100A32001F08080000000000001E02010F10101124
:100A42000E0000000000000E11010F1111110E0026
:100A520000000000001F0808040402020200000057
:100A62000000000E11110E1111110E000000000005
:100A7200000E1111111E10110E00000000000000E6
:100A82000001000000000100000000000000000161
:100A920000000000010101000000000000100E0132
:100AA2000E10000000000000000000001F001F00E8
:100AB200000000000000000000010E100E01000006
:100AC20000000000000E11100804040004000000E1
:100AD200000000000000F8000601B202C90245024F
:100AE20045026501D9000202FC0100000000000875
:100AF200141414223E41410000000000001F212175
:100B02003F2121211F0000000000001C22010101E1
:100B120001221C0000000000000F112121212111DF
:100B22000F0000000000001F01011F0101011F0052
:100B320000000000001F01010F010101010000007F
:100B42000000001C2241017141221C000000000033
:100B5200002121213F21212121000000000000016C
:100B62000101010101010100000000000008080864
:100B720008080909060000000000002111090D0BF8
:100B82001111210000000000000101010101010119
:100B92001F0000000000004163635555554949009C
:100BA2000000000000212325252929312100000011
:100BB2000000001C2241414141221C0000000000B3
:100BC200000F1111110F0101010000000000001CB3
:100BD2002241414159225C0000000000001F2121F6
:100BE2001F091111210000000000001E210106183A
:100BF20020211E0000000000001F0404040404045D
:100C020004000000000000212121212121211E00D9
:100C120000000000004141222214140808000000D4
:100C220000000000000021045104520252028A0214
:100C32008A020401040100000000000000000021FB
:100C420012120C0C1212210000000000004122229C
:100C520014080808080000000000003E10080804FC
:100C620004023F0000000000000301010101010134
:100C7200010103000000000101020202020404005B
:100C8200000000000003020202020202020203004C
:100C9200000000040A0A1100000000000000000029
:100CA200000000000000000000003F000000000102
:100CB2000200000000000000000000000000000E22
:100CC200111E11191600000000000001010D131180
:100CD20011130D00000000000000000E11010111AF
:100CE2000E00000000000010101619111119160054
:100CF200000000000000000E111F01110E00000094
:100D020000000004020702020202020000000000CA
:100D1200000000161911111916100F000000000131
:100D2200010D13111111110000000000000100015A
:100D320001010101010000000000000200020202A4
:100D4200020202020100000000010109050305057B
:100D52000900000000000001010101010101010080
:100D6200000000000000003D4B49494949000000D5
:100D720000000000000F111111111100000000000D
:100D82000000000E111111110E0000000000000001
:100D9200000D131111130D010100000000000016D7
:100DA20019111119161010000000000000050301AE
:100DB20001010100000000000000000E11060811F0
:100DC2000E000000000000020207020202020600FA
:100DD200000000000000001111111119160000009E
:100DE200000000000011110A0A04040000000000C3
:100DF200000000000000000011012901AA00AA0061
:100E02004400440000000000000000000000001147
:100E12000A04040A11000000000000000011110A77
:100E22000A040404020000000000001F0804040277
:100E32001F0000000000000402020201020202027E
:100E42000400000000010101010101010101010092
:100E52000000000204040408040404040200000068
:100E620000000000170D000000000000000000005C
:100E72007E42424242427E000000000E2060050394
:100E82000506060908030404040603040303060610
:100E920006060606060606060303060606070B08EE
:100EA20007080706060807030607070A07080708D0
:100EB20007070707080B08080704030406060406C9
:100EC20007060707050707030307030B07070707BB
:100ED20005070507070A07070604030406080000BA
:100EE20000000000000000000000000000000003FD
:100EF200030303030003030000000000001B1B1B8D
:100F0200000000000000000000000024243F121234
:100F12003F09090000000000040E15050F1E1415FC
:100F22000E0400000000000000002700250015004C
:100F32001700E800A800A400E40000000000000080
:100F42000000001C36360C5E73337E000000000089
:100F52000003030300000000000000000000000482
:100F62000603030303030206040000000001020259
:100F72000606060602030100000000020702050041
:100F8200000000000000000000000004041F040430
:100F92000000000000000000000000000003030247
:100FA2000100000000000000000007000000000037
:100FB2000000000000000000000303000000000029
:100FC2000004040202020201010000000000000EFF
:100FD2001B1B1B1B1B1B0E0000000000000C0E0F36
:100FE2000D0C0C0C0C0000000000000E1B18180C5D
:100FF20006031F0000000000000E1B180C18181B2F
:101002000E000000000000181C1A1A193F181800E0
:1010120000000000001E06030F19181B0E0000003E
:101022000000000E1B030F1B1B1B0E000000000024
:10103200001F180C0C060606060000000000000E39
:101042001B1B0E1B1B1B0E0000000000000E1B1BB7
:101052001B1E181B0E00000000000000000303000E
:10106200000303000000000000000003030000036F
:101072000302010000000000100C03030C1000002A
:1010820000000000000000001F001F000000000020
:101092000000000001061818060100000000000010
:1010A200001C3630180C000C0C0000000000000080
:1010B2000000F8000601FA02C90245024502650174
:1010C200FA000603F800000000000038386C6C6C6F
:1010D200FEC6C60000000000001F33331F33333347
:1010E2001F0000000000003C6603030303663C008F
:1010F20000000000001F3333333333331F0000007E
:101102000000001F03031F0303031F000000000071
:10111200001F03031F030303030000000000003C41
:101122006603037363663C00000000000033333340
:101132003F33333333000000000000030303030393
:101142000303030000000000001818181818181BE9
:101152000E000000000000331B1B0F1F1B33330067
:101162000000000000030303030303033F00000029
:10117200000000000000C701C701EF01EF01AB0151
:10118200BB01BB019301000000000000000000331E
:101192003337373B3B33330000000000001C36631B
:1011A200636363361C0000000000001F3333331FEB
:1011B2000303030000000000001C366363636B3608
:1011C2003C4000000000001F3333331F1B33630019
:1011D20000000000001E33030F3C30331E000000ED
:1011E2000000003F0C0C0C0C0C0C0C00000000006A
:1011F20000333333333333331E0000000000006307
:1012020063363636361C1C00000000000000000069
:1012120023067306760356035603DE038C018C0104
:1012220000000000000000000066663C18183C66E2
:10123200660000000000006666243C1818181800BA
:1012420000000000003F30180C0C06033F000000B5
:101252000000000703030303030303030700000066
:101262000001010202020204040000000000000763
:1012720006060606060606060700000000040E0A19
:101282001B00000000000000000000000000000041
:10129200000000003F000000000306000000000004
:1012A2000000000000000000000E191E1B1B1E00A3
:1012B200000000000003031F333333331F0000001C
:1012C20000000000000E1B03031B0E0000000000C4
:1012D2000030303E333333333E0000000000000064
:1012E200001E333F03331E0000000000001C060FE7
:1012F200060606060600000000000000003E33332A
:1013020033333E311E0000000003031F33333333F7
:101312003300000000000003000303030303030083
:101322000000000000060006060606060606030088
:101332000000000303331B0F1F1B330000000000DB
:101342000003030303030303030000000000000083
:10135200000000000000FF013303330333033303B3
:10136200330300000000000000000000001F3333C0
:1013720033333300000000000000001E33333333E8
:101382001E00000000000000001F333333331F0330
:10139200030000000000003E333333333E303000A0
:1013A20000000000000F030303030300000000001D
:1013B2000000001E330F3C331E000000000000043A
:1013C200060F060606060C000000000000000033AF
:1013D200333333333E00000000000000003636365F
:1013E200361C1C000000000000000000000000008D
:1013F2009301BB01BB01EE00EE00C600000000003D
:101402000000000000000036361C1C3636000000CA
:101412000000000000633636361C1C0C070000007A
:101422000000001F180C06031F0000000000000C43
:1014320006060606030606060C000000000202026B
:101442000202020202020200000000030606060671
:101452000C0606060300000000000000160900004A
:10146200000000000000007E4242424242427E00F2
:101472000000070E206000000000000000000000D5
:10148200000000000000000008080808080008002A
:10149200000000000000141414000000000000000E
:1014A2000000000028143E14143E140A000000003C
:1014B2000000081C020C100E0404000000000000D2
:1014C200040A041E081408000000000000000018AE
:1014D20004041A123C000000000000000808080082
:1014E20000000000000000000000101008080808BA
:1014F200101000000000000004040808080804049A
:10150200000000000000083E081400000000000077
:10151200000000000808083E08080800000000005B
:101522000000000000000000180C04000000000091
:101532000000003E0000000000000000000000006B
:10154200000000000C000000000000002010100845
:10155200080404020000000000001C2222222222B1
:101562001C000000000000000C08080808083E00EB
:101572000000000000001C22100804023E000000CF
:10158200000000001C22201820221C000000000085
:101592000000101814123E10380000000000000075
:1015A2003C04041C20221C0000000000000038043F
:1015B200021E22221C000000000000003E22201019
:1015C200100808000000000000001C22221C222239
:1015D2001C000000000000001C22223C20100E0013
:1015E20000000000000000000C0000000C000000E1
:1015F200000000000000180000180C0400000000A9
:101602000000002018061820000000000000000062
:1016120000003E003E00000000000000000000024A
:101622000C300C0200000000000000000C12100838
:1016320008000C000000000000001C22322A2A329E
:10164200023C0000000000000C0814141C22770069
:101652000000000000001F22221E22221F000000A4
:10166200000000003C22020202221C0000000000D6
:1016720000000F12222222120F00000000000000C0
:101682003E24141C14243E000000000000003E24EE
:10169200141C14040E000000000000003C22020290
:1016A20072221C000000000000007722223E22224B
:1016B20077000000000000003E08080808083E000D
:1016C2000000000000003C10101012120C0000007C
:1016D200000000007722120E1222670000000000B4
:1016E20000000E04040424243E0000000000000058
:1016F2007736362A22227700000000000000772683
:10170200262A2A3237000000000000001C22222272
:1017120022221C000000000000001E2424241C04BD
:101722000E000000000000001C22222222221C388F
:101732000000000000001E2424241C244E0000008F
:10174200000000002C32021C20221E0000000000BB
:1017520000003E2A080808081C00000000000000E3
:101762007722222222221C000000000000007722A1
:10177200221214140C0000000000000077222A2A12
:101782002A2A140000000000000063221408142218
:1017920063000000000000007722140808081C0003
:1017A2000000000000003E22100804223E0000005B
:1017B20000000000180808080808081800000000C7
:1017C20000000204040808081010000000000000D5
:1017D2000C0808080808080C0000000000000814A3
:1017E20022000000000000000000000000000000D5
:1017F20000000000007F000000000408000000005C
:10180200000000000000000000001C223C227E00BC
:1018120000000000000003021A2622221F0000001E
:101822000000000000003C2202023C000000000018
:10183200000030202C3222227C0000000000000038
:1018420000001C223E023C000000000000003008A4
:101852003C0808083C0000000000000000006C3258
:1018620022223C201C000000000003021A26222231
:10187200770000000000000008000E0808083E0083
:1018820000000000000008001E10101010100E00D2
:101892000000000003023A120E123B00000000009A
:1018A20000000C08080808083E00000000000000C4
:1018B2000000172A2A2A7F00000000000000000012
:1018C2001B262222770000000000000000001C22DC
:1018D20022221C0000000000000000001B26222221
:1018E2001E0207000000000000006C3222223C2091
:1018F2007000000000000000360C04041E0000000E
:101902000000000000003C021C201E00000000003D
:10191200000000021F0202221C0000000000000062
:101922000000332222326C000000000000000000A0
:10193200772212140C000000000000000000772241
:101942002A2A1400000000000000000036140814C7
:10195200360000000000000000007722141408087E
:101962000E000000000000003E1208243E000000AD
:1019720000000000100808080C0808081000000009
:101982000000080808080808080800000000000015
:1019920004080808180808080400000000000000F5
:1019A200002C1A0000000000000000003F2121214D
:1019B20021213F000000000E2060070707070707EC
:1019C20007070707070707070707070707070707A5
:1019D2000707070707070707070707070707070795
:1019E2000707070707070707070707070707070785
:1019F2000709070807070707070807070707070771
:101A02000707070707070709070707070707070762
:101A1200070907080707070707070000000000007B
:101A22000000000000000000000000000C0C0C0C84
:101A32000C000C0000000000000014141400000050
:101A4200000000000000003636367F367F3636361C
:101A52000000000000083C26061C30321E08080068
:101A6200000000000609293E4A483000000000003C
:101A720000001C0606371D193E0000000000000091
:101A82000808080000000000000000000000101814
:101A92000C0C0C0C1810000000000000040C1818AC
:101AA20018180C04000000000000187E1824000022
:101AB20000000000000000000008083E08080000C6
:101AC2000000000000000000000000000804040004
:101AD200000000000000003E0000000000000000C6
:101AE20000000000000000000C00000000000030B8
:101AF2003018181C0C0C06060000000000001C36F2
:101B0200363636361C00000000000000181E181879
:101B120018187E000000000000001C3630180C0669
:101B22003E000000000000001C32301C30321C005D
:101B3200000000000000181C1A193F183C000000A9
:101B4200000000003E061E3230321C000000000081
:101B52000000380C061E36361C0000000000000093
:101B62003E323030181818000000000000001C3609
:101B7200361C36361C000000000000001C36363CC5
:101B820030180E0000000000000000000C000000F1
:101B92000C0000000000000000000C00000804041B
:101BA20000000000000020180403041820000000B8
:101BB2000000000000007F007F0000000000000025
:101BC2000000020C1060100C020000000000000077
:101BD2001C36301C0C000C000000000000001E210E
:101BE20039253901211E0000000000001F1C363675
:101BF2003E3677000000000000001F36361E3636E3
:101C02001F000000000000003E23030303231E0008
:101C12000000000000001F36363636361F00000076
:101C2200000000003F26161E16263F00000000009E
:101C320000003F26161E16061F00000000000000CE
:101C42003E2303037B333E00000000000000773692
:101C5200363E363677000000000000003F0C0C0CC8
:101C62000C0C3F000000000000007C3030303333A9
:101C72001F000000000000007726160E1E366F00BF
:101C82000000000000000F06060626263F000000A6
:101C920000000000633636362A2A77000000000072
:101CA200000073262E2A3A322700000000000000AE
:101CB2001E33333333331E000000000000001F3692
:101CC20036361E060F000000000000001E333333BC
:101CD20033331E3C0000000000001F36361E16364D
:101CE2006F000000000000003C26061C30321E007F
:101CF2000000000000003F2D2D0C0C0C1E00000007
:101D0200000000007736363636361C000000000030
:101D1200000077363636141C1C000000000000005C
:101D220000000000EF01C600D600D6005C006C0087
:101D32006C000000000000000000000077361C1C50
:101D42001C367700000000000000F7663C181818E7
:101D52003C000000000000003E321A182C263E0013
:101D62000000000000003C0C0C0C0C0C0C3C0000B1
:101D72000000000307060E0C1C183830000000009B
:101D820000001E1818181818181E00000000000085
:101D92000814220000000000000000000000000003
:101DA20000000000000000FF000000040800000026
:101DB2000000000000000000000000001E303E3362
:101DC2007E0000000000000007063E6666663F00D7
:101DD20000000000000000003E2303231E0000005C
:101DE2000000000038303E3333337E000000000034
:101DF200000000001E333F033E0000000000000010
:101E0200380C3E0C0C0C3E000000000000000000EC
:101E12007E3333333E301E000000000007061E36BC
:101E2200363677000000000000000C000F0C0C0C8E
:101E32003F000000000000000C001F1818181818BE
:101E42000F00000000000706361E1E366700000065
:101E5200000000000F0C0C0C0C0C3F0000000000F6
:101E6200000000000000000000007F00D600D60045
:101E7200D600D701000000000000000000000000B2
:101E82001F363636770000000000000000001E33C7
:101E920033331E0000000000000000003F6666664B
:101EA2003E061F000000000000007E3333333E3048
:101EB2007C00000000000000372E06061F00000014
:101EC2000000000000003E231E311F000000000041
:101ED200000006061F0606261C0000000000000087
:101EE2000000373636367C0000000000000000009B
:101EF2007736141C1C0000000000000000000000E7
:101F020000000000EF01D600D6006C006C0000005B
:101F12000000000000000000000077361C36770049
:101F22000000000000000000EE6C2818180C1F00D2
:101F32000000000000003E1A0C263E0000000000D7
:101F420000001C0C0C0C060C0C1C00000000000015
:101F52000C0C0C0C0C0C0C0C0000000000000E0C05
:101F62000C0C180C0C0E00000000000000000026F3
:101F7200190000000000000000003F212121212162
:101F82003F000000001120600706050D0C090A0938
:101F92000506060D0D0506050809070808080808C4
:101FA2000808080409090A090B0B0B0A0A0A0A099C
:101FB2000B0B070B0A0D0D0B09090A0A090A0B0F75
:101FC2000F0B0B0806060D0D09070808070807077F
:101FD20008080508080B0C09080808060608080A7C
:101FE2000A08080C0D0C0C0C000000000000000098
:101FF200000000000000000000000000060E0E0CB1
:102002000C0C06000C0E000000000000001E1F0F4A
:102012000F000000000000000000008001E001FC51
:10202200019E01FF07FE06FF07DF03FE01DE037CC0
:10203200037E07DE0EFC1B7000000000000000188B
:102042000030007C007E007E001E001C00780078BC
:10205200007B007E003E000C000C0000000000002F
:102062000000000000CE00DE007B007E003C00D8B5
:1020720000F801BC01EC01E60006000000000000CF
:102082000000000000000078006E006600CE0038FC
:10209200001C00F601C700CE00780000000000001E
:1020A200000000000000000000060007000300031B
:1020B200000000000000000000000000000000001E
:1020C2000000000000000018180C0C0C0E0E0C0C86
:1020D2000C181800000000000306060C0C1C0C0C67
:1020E2000C0606030000000000001E1C1F0000007A
:1020F20000000000000000008001EC01FE01FF036F
:10210200F601F601FE03FC03F807B807F806780E9D
:10211200781FEC0160006000000000000000000079
:1021220000000000000000000000000000000000AD
:102132000600060006000600000000000000000085
:1021420000000000001F000000000000000000006E
:102152000000000000000000060600000000000071
:1021620018181C0C0C0C06060603030300000000E2
:1021720000003C6E66E6E6E7E6E66C38000000002A
:1021820000000000000038003E003B00380038002C
:1021920018001800180018007E000000000000005F
:1021A20000000000001E3B7360703038786C7F00C6
:1021B2000000000000003E7663301C3863E3731EAB
:1021C20000000000000060607070787C36FF3030E4
:1021D200F8000000000000007E0606063E70606601
:1021E200361E00000000000060380C0C3E6EE6E770
:1021F200E66E3C00000000000000FE6363633030C6
:10220200181C1C0E000000000000003C66666E3CBC
:1022120076E6E7663C000000000000003C6666E7E8
:10222200E67E7C7030180E00000000000000000006
:10223200060606000006060000000000000000007E
:102242000006060600000606060600000000000062
:102252001C007E000E000E00FE00FF00CE00CC002F
:10226200C600C600FF010000000000000000C00020
:10227200F000FC00FC01FC00FC00FC00FE00FF0082
:102282007E0070007800FC00FC01300000000000BD
:1022920000000000DC00FE00EE00E600E600FF00A9
:1022A200C600C600C6006600FF0100000000000074
:1022B20000000000000000001C0036003300300067
:1022C20038000C000C0000000C001C000000000094
:1022D200000000008001FC01FC017E03DE03EF032D
:1022E200EE00FE00FF006C007C007807F001700039
:1022F2006000000000000000000000007800700094
:1023020070007000D800D800FC01CC01C601FF07A4
:1023120000000000000000000000000000007F003C
:10232200EC00CC01EC003C00FC00CC018C01FC0177
:102332007F0000000000000000000000000000001C
:102342007000DC00CE0006000700060006000E004A
:10235200DC0070000000000000000000000000002F
:1023620000003F00EC00CC018C018C038C038C0339
:10237200CC01FC003F000000000000000000000053
:1023820000000000FF00DC008C01CC00FC00CC004F
:10239200CC008C018C01FE01000000000000000056
:1023A200000000000000FF00CC00CC00CC007C004C
:1023B2006C006C000C000C003E00000000000000ED
:1023C2000000000000000000F000DC00CE0006006B
:1023D20007000600F601CE007C007000000000003D
:1023E20000000000000000000000FE078C018C01CC
:1023F2008C01EC01BC018C018C019C01FF030000EB
:102402000000000000000000000000003F001C006F
:102412000C000C000C000C000C000C000C003E0028
:1024220000000000000000000000007E383838186C
:102432001818181F1C00000000000000000000FF18
:1024420003DC007C003C003C003C006C00EC00CC57
:1024520001FE070000000000000000000000000074
:10246200003F001C000C000C000C000C000C00CC07
:1024720000CC00FE00000000000000000000000090
:102482000000007E1F3C063C063C073C07BC0FECEC
:102492000FEC0CCE0CCE0E7B1B00000000000000E7
:1024A2000000000000FE07BC01BC01BC01FC01EC05
:1024B20001EC01CC018C018E019B010000000000A7
:1024C200000000000000007800EC00C600C601C653
:1024D20001C701C600CE006C0038000000000000F9
:1024E2000000000000000000007E00EC018C01CC26
:1024F200006C003C000C000C000C003F00000000CF
:1025020000000000000000000000007C00EC00C69B
:1025120000C601C601C701DE00DE007C0038006093
:1025220000E001300000000000000000007E00EC2E
:1025320000CC01CC01EC007C006C00FC00DC00FF54
:102542000300000000000000000000000000007C0A
:1025520000660066000E001C007800E000E30066E2
:10256200003E00000000000000000000000000002B
:1025720000FF01BB01BB01380038003800300030D9
:102582000018007C000000000000000000000000B5
:10259200000000FF038C018C018C018C018C018CEA
:1025A200018C01DC00F800000000000000000000C7
:1025B2000000000000FF079C019C01DC00D800D84D
:1025C2000078007000700030000000000000000081
:1025D20000000000000000FF7F9C339C1BDC1BD826
:1025E2001B780F780F780F30063006300600000097
:1025F200000000000000000000FF079C01F80078C6
:102602000070007000D80098018C01DF0700000004
:102612000000000000000000000000DF078C01DC69
:1026220000D80078007000700070007000FC00009C
:1026320000000000000000000000000000FE006337
:102642000063007000300038001C00DC00CE00FF88
:1026520000000000000000000000003E0E0E0E0E02
:102662000E0E0E0E0E0E3E00000000000607060EB5
:102672000C0C0C0C1818181800000000000F0C0CA1
:102682000C0C0C0C0C0C0C0C0F0000000000E001F8
:10269200FE01CF1FFE07DB03FE03FC01F601FC0176
:1026A200F801FC01B001F8037800600000000000AE
:1026B2000000000000000000000000000000000018
:1026C200000000000000000000000000FF01000008
:1026D20000000000000006000C00180000000000CE
:1026E20000000000000000000000000000000000E8
:1026F2000000000000000000181C363C363E7F003F
:1027020000000000000E0F0E0E3E7E6EEC6C6C3E62
:1027120000000000000000000000183E0607073617
:102722003C000000000000707C7070783E36373745
:10273200367C00000000000000000000183E363F1A
:1027420067361C0000000000001C7E0E0E0E3F06C5
:102752000606063F000000000000000000703C3644
:102762003637361C0C3E63673C00000E0F0E0E1E01
:102772003E6E767676FF000000000000000E060036
:102782000C0F0E0E0C061F000000000000000E06CB
:10279200000C0F0E0E0E06060707030000000E0FB8
:1027A2000E0E6E7E6E3C3636FF0000000000000EFC
:1027B2000F0E0E0E0E0E0606061F00000000000091
:1027C20000000000000000000000BC01FF036E03D7
:1027D2006E036C036603FF070000000000000000A8
:1027E2000000000000000000000000003C003F006C
:1027F2006E006E006C006C00FF0000000000000024
:1028020000000000000000000000000000001800AE
:102812003E0076007700770036001C0000000000C2
:10282200000000000000000000001C7F6E6EEE6CD5
:102832003C0C06061E0000000000003CFE76373706
:10284200363C303030780000000000003C3F3E3E15
:102852000C061F000000000000000000001C1E0704
:102862001E383B1E00000000000000000C0C0E3F52
:10287200060606061C000000000000000000006CB6
:102882007F7E3E3E36FC000000000000000000009B
:10289200FF363E3C1C1C0C00000000000000000043
:1028A20000000000000000FF03F601FE01FC01FC35
:1028B20000FC00CC0000000000000000000000004E
:1028C2000000000000000000007F003E003C0018F5
:1028D200003C003E00FF000000000000000000007D
:1028E2000000000000FF6E3E3C3C1C180C0C0F0662
:1028F2000000000000003E331B180C3E3F000000A9
:10290200000000F001FE019E01FF03FC07FE0EFF26
:102912000CDC0CD80E78067C03DC01780070000019
:102922000000000000C007FC033F0EBE0FBC0DBC40
:10293200077E07FE07FC06F800FC00FC0178037026
:10294200000000000000008003F003FE07BC07DE69
:1029520007FF01EE01FF00FC0FDC06FC06F8036036
:1029620000600000000000C000F000FE008F07FFC2
:10297200037E03FF01FC01FB00FE007E037C03ECEF
:102982000338003000000000000000000000007F5B
:10299200006300630063006300630063006300631D
:1029A200007F00000000000000000000BA008B0061
:1029B200A983A983A98BE98BE98BE98B29946B9C69
:1029C2002D9CCFAC94BD37CE99DEFBE67CF7DDFFC4
:1029D200FEFFFDFFBDFFFDFFFDFFFDFFFDFFDDFF74
:1029E200DDFFDDFFDDFFFFFFFFFFFFFFFFFFFFFF5B
:1029F200BFFFBDFFBDFFDDFFBCF7B8DE72ADAE9419
:102A02004D8C2B8C2B842B8C6B8C8D946C8C4B8CE7
:102A1200C87BE88B298C2A8C0A8CE98BA98BA98329
:102A2200AB8BAA83A97BA97BA97BA97BE97BEA83E0
:102A3200AA8BAB8BEB8BEB930C9C2C9C2D9C4D9C13
:102A42008EA48EA46EA46D9C4D9C4D9C6E9C6DA418
:102A52006B9C8C9CADACEDAC0EAD0DADEDACEDACAC
:102A62002DB52DB52DBD4EBD4EBD2EBD2DBD2DBDE1
:102A72006FC590CDB1CDD1CDB1CDAFCDAFCDAFD5AD
:102A8200AFDDCFDDAFDDAFDDAFDDADD56DD56DCD6A
:102A92006DCD6DCD2DCD2DBD0DBD2FBD70BD91C5A3
:102AA200B3CDF3CDF5CD35CE36CE37CE37CE37CE0C
:102AB20037CE37CE37CE37CE37CE37CE37CE37CEEC
:102AC20037CE38CE38CE59CE79CE79CE79CEB9D668
:102AD200FBDEFBDE3BDF5BE77BEF7BEF9BEF9BEFFE
:102AE200BBEFBBF7BAF7DAFFDAFFD9FFB9FFB9FFDD
:102AF200B8FFB7FFB7FFB7FFB7FFB7FFB7FFB6FF24
:102B0200D5FFD5FFD5FFD3FFB3FFB2FFB2FFB1FFB1
:102B1200D1FFD0FFB0FFB1FFB1FFB1FFB1FFB1FFF5
:102B2200B2FFB2FF487B487B687BA883A883C88B2F
:102B3200E98B4B9CEFAC93BD77DEFAEE3BEF7DF772
:102B4200BDFFFDFFFDFFBDFFBDFFBDFFBDFFDDFF03
:102B5200BCFF9BFFDDFFDDFFDDFFBEFFBFFFBFFF51
:102B6200DFFFDFFFFFFFFFFFFFFFFEFFFDFFDDFFD8
:102B72009BF779EF75CEB1B56D8CA973A97B2B8CC0
:102B82002B8CEA83E98BE98BE983A87B687B677BE3
:102B9200477B487B697B697B4973287347736873FA
:102BA200887B897B697B6983AA8BAA8BAA8BAA8B78
:102BB200AB8BCB8BAB8BAB8BAB8BAB8B8B8BAB8B63
:102BC200CB8B0C946C9C8C9CACA4ACA4ACA4ADAC94
:102BD200EDAC2DADEDACEDACEDAC0DB52DB52DB52F
:102BE2002DBD2DBD6FC590CDB1CDB1CDB1CDB0CD87
:102BF200AFCDAFD5AFD5AFD5AFD5AFD5AEDD8DD5D6
:102C02006DD56DCD6DCD6DCD4DCD2DC52EBD2FBDEF
:102C12006FBD71BDB3CDD3CDF5CD15CE36CE37CE8A
:102C220037C637CE57CE57CE57CE57CE57CE77CEA2
:102C320078CE78CE79D679CE79CE99D6B9D6BADE93
:102C4200BBDEDBDEFBDE1BDF3BDF5BE77BEF9BEF0D
:102C5200BBEFBBEFBBF7DBF7DBFFDAFFDAFFD9FF36
:102C6200B9FFB9FFD9FFD8FFD8FFD8FFD8FFD7FFE8
:102C7200D7FFD7FFD6FFF5FFD5FFD4FFD3FFB3FFB2
:102C8200B2FFB1FFD1FFD0FFB1FFB1FFB1FFB1FF82
:102C9200B1FFB2FFB3FFB3FF497B687B887BA98397
:102CA200C98BE98B298C6B9C31BDF5CDD9EE3BEFFD
:102CB2007CFFBDFFBDFFBDFFBDF79DF79CF77BF716
:102CC2007BFF7BF73AF739F73AF73BF73BF75BFFC6
:102CD2007CFF7DFF9EFFBEFF7DFFBDFFDEFFFEFF8F
:102CE200FDFFFDFFFDFFFDFFDBFFBBFFF7DEB3BD19
:102CF200EFA4CF9CAF9C4D8C6C8C2B8C2B8C0A8CB4
:102D0200EA8BC983A97B697B697B687B48734773BC
:102D120047736873697B897B897B8983898389830C
:102D2200697B8983AA8BAB8BEB8B0C940C94EC8B19
:102D3200EB8BEC8B2D9C6D9C8D9CAC9CADA4AC9CC8
:102D42008C9CACA4CDAC0DADEDACEDACEDAC0DB549
:102D52002DB54EBD6EBD6FBD6FC590CDB1CDB1CDA0
:102D6200B0CDB0CDAFCDAFD58FCD8FCDAFD5AED5A8
:102D7200AED5AED58ED58ED58FD58FD5AFCD8FCDE5
:102D82006FCD70CD91CDB1C5F3CD14CE35CE36CE4B
:102D920057CE57CE57CE57CE78D678D678D678D665
:102DA20078D679D679D699D6B9D6B9DEB9DEBADE71
:102DB200BBDEFBDEFBDEFBDEFBDE3BDF3BE77CEF6D
:102DC2009CEFBCEFBBEFBBEFBBF7DBF7DBFFFBFF1F
:102DD200DAFFDAFFDAFFD9FFD9FFF9FFF9FFF9FFCE
:102DE200D9FFF8FFF8FFF7FFD7FFF6FFD5FFD5FFB2
:102DF200D4FFD3FFD3FFD2FFF1FFD1FFD1FFB1FF49
:102E0200B1FFB2FFB2FFB3FFB3FFB3FF697B697BD0
:102E1200A983E98BE98B098C4B9CAD9C71BD35CEA6
:102E2200F9EE3BEF7CF77CF77CF75BEF5BEF7BF730
:102E32007BF75BF739EFF9EEF8EEF8EED8EED8EE65
:102E4200D9EEF9EEFAEE3BF73CFF7DFF3BF77DFF53
:102E5200BDFFDDFFBDFFBDFFDDFFFDFFBBFFFDFFD2
:102E6200FDFFBBFFB7DE35CE73ADAF9C0C8CEB8B99
:102E7200EB8BEB8BEB8BEB83A97B687BA97BA97B31
:102E8200897B697B697B897BA97BAA83A983AA83C6
:102E9200AA83AA83AA83AA8BEB8BEB8B2D9C2D9CF6
:102EA2004D9C2D9CEC8BEC8B0D942D9C6C9C8C9CE6
:102EB200ADA4EDACEDACEDACCDACADA4EDACEDACF8
:102EC200EDAC2DB52EBD6FBD8FC5AFC56FC590CD15
:102ED200B1CDB1CDB1CDB0CDB0CDAFCDAFCDAFD500
:102EE200AFD5AFD5AFDDAFDDAFD5AFD5AFD5AFDDA8
:102EF200D0DDF1D5B1CDB1CDB1CDD3CD14CE35CE5E
:102F020036CE57CE77CE78CE78CE78CE78D678D6E3
:102F120078D699D699D6B9D6B9D6B9D6B9D6B9D6B8
:102F2200BAD6BAD6BBDEDBDEFBDEFBDE1BDF3BE75F
:102F32005CE77DEFBDEFBDEFBCEFBCEFBCF7DBF7AD
:102F4200DBFFFBFFFBFFFBFFDAFFDAFFF9FFF9FF15
:102F5200F9FFF9FFF9FFF9FFF9FFF8FFF7FFF7FFB4
:102F6200F6FFF5FFD5FFD3FFD3FFD3FFF2FFF1FF4B
:102F7200D2FFD2FFB3FFB3FFB3FFD3FFB3FFB3FF61
:102F8200497B687BA97BE98BE98B298C6B9CADA47F
:102F9200D3CD97DE3BF77BF75BF77CF77CEF3BEF1C
:102FA2003AEF3AEF3AEF19EFF8EEB7EEB7E696EEF0
:102FB200D7EED7EEB7EEB7EEB8EED9EEF9EEF9EE00
:102FC2003BFF3BFF3BFF3BFF3BFF7BFFBCFFDDFFCC
:102FD200FDFFFDFFDDFFBCFFDDFFBDFFD9E6D5BD77
:102FE200D19C6F9C0D8CAB7BAA7B897BA97B897B57
:102FF200A97BA97B697B687B697B697BA983AA839F
:10300200898389838983697B697B8983AB8BCB8B3A
:10301200EC8B2D9C2D9C2D9CEC93CB8BCB8BEB8B3B
:103022002B944B946C9CADAC2FAD2FB5EDACADA4F5
:10303200EDACEDAC0DB52DB52EBD6FBD6FC58FC519
:1030420090CD90CD91CDB0CDB1CDB0CDB0CDAFCDF5
:10305200AFCDAFCDAFD5AFD5AFD5AFD5AFD5AFD55E
:10306200AFD5AFD5F1DDF1DDF1D5D1CDD2CDF3CDF7
:10307200F4CD15CE35CE37CE57CE77CE78CE78CEAC
:1030820079CE79CE99D699D6B9D6B9D6B9D6B9D696
:10309200B9D6B9D6BAD6BAD6BBD6DBDEFBDEFBDEF4
:1030A2003CE73CE77DEF7DEFBDEFBDEFBDEFBDEF50
:1030B200DCFFFCFFFCFFFBFFFBFFFBFFDBFFDBFF9B
:1030C200FBFFFAFFFAFFFAFFF9FFF9FFF9FFF9FF39
:1030D200F8FFF7FFF7FFF5FFD5FFD5FFD4FFD3FFCA
:1030E200F3FFD3FFD3FFD3FFB3FFD3FFD4FFD5FF4B
:1030F200B5FFB5FF276B2773687BC983E98B298CE2
:103102006B9CADAC13CED7EE7BFF5BF73BEF7BF74F
:103112005BEF1AEFF9EEF9EED9EED8EEB7EE96EED6
:1031220075E655DE34DE35DE34DE35DE55E676E62E
:1031320097EEB7EEB9EEB9EED9EEF9F619FF19F737
:10314200F9EEF9EEBBFFBCFFBCFFDDFFFEFFFEFFA9
:10315200FEFF7DFFFBE637CE33AD2F8CAB7BAB7B27
:10316200EB7BEB8BA97BA97B687B687B697B697BAB
:103172008983AA8BAA8BAA8BAA838983697B697BA1
:10318200697B8A83EC932D9C2D9C4D9C2D9C2D9CC0
:103192002D9C2D94EB8BEA8BEB8B4B9CADA4EEAC70
:1031A2000FADEEAC2EB52EBD2EBD4FBD6FBD8FC582
:1031B200AFCDB0CDB1CDB1CD91CD91CDB1CDB1CD60
:1031C20090CD8FCD8FCD8FCD8FCD8FCD8FCDAFD5F4
:1031D200AFD5AFD5B0D5F1DDF1DD32DE13DE13DED2
:1031E20013D614D635D635D657D677D678D678D6DE
:1031F20099D699D699D699D6B9D6B9D6B9D6B9D6D5
:10320200B9D6BAD6BAD6BBD6BBD6BBD6DBDEFBDEC8
:10321200FCDEFCDE3DDF3DE75DEF7DEFBDEFBDEFA8
:10322200BDEFDDEFFDFFFDFFFCFFFCFFFCFFFBFF41
:10323200FBFFFBFFFBFFFBFFFBFFFBFFFBFFFAFFBD
:10324200FAFFF9FFD8FFD7FFD7FFD6FFD5FFD5FF8B
:10325200B5FFD4FFD3FFD3FFB3FFB3FFB4FFB4FF77
:10326200B5FFD5FFB5FFB5FF29736873697BC983C5
:10327200E98B098C6B9CADA491BD76DEF9EEF9EE7B
:10328200FAEE3BEF3BEFD9E6B8EE97EE77EE97EE2C
:1032920096EE75EE34E613DEB1D5B1D5B1D5B1CD2A
:1032A200B2D5F3D5F4DD35DE35DE77EEB7EEF9FED5
:1032B200F9FED8EE97EE77E677E6D9EE5BFFBDFF33
:1032C200BDFF7DFFBDFFFFFFBFFF5DEF99DEB5BD17
:1032D200B19C2D8CCB7BA97BE97BC97BA97B897BAC
:1032E2008983A98BAB8BAB8BCB8BEB8BCB8BAB8BD8
:1032F200AA83897B8A83AA83EB8BCB8BCB8BEB8BC9
:103302000C8C2D942D940C94EB8BEB8BEB8B2B8CE8
:103312004B9CAD9CEDAC0EAD2FBD2FBD4FBD6FBD17
:103322008FCDAFCDB0CDD1CDD1CDB1CD91CD90CDD1
:10333200B1CDB0CD90CD6FCD6FC56FCD6FCD6FCD0F
:10334200AFCDAFD5D0DDF1DDF1DD12DE33DE73E6D8
:1033520073DE74DE75DE75DE76DE77DE77DE98DEAE
:10336200B9DEB9DEBADEFADEB9DEB9DEB9DEDADE40
:10337200DADEDADEDADEDBDEDBDEDBDEDBDEFBDE66
:10338200FBDEFCDE3DDF3DDF3DDF3DE75DEF7DEF58
:10339200BDEFBDEFBDEFBDEFFDFFFDFFFDFFFDFF8B
:1033A200FDFFFCFFFCFFFBFFFBFFFBFFFBFFFBFF47
:1033B200FBFFFBFFFBFFFAFFD9FFD8FFD7FFD7FFC9
:1033C200B5FFB5FFB5FFB5FFB3FFB3FFB3FFB3FF63
:1033D200B5FFB5FFB5FFB5FFB6FFB6FF697B697BE9
:1033E200897BA983C98BC98B098C4B9CEFACD3CD4C
:1033F20097DEB9DEB9E61AEF1AEFB9DE77E656E6DE
:1034020035E675E675EE75EE33E6F1DD13E6F2DDCF
:10341200D1DD91CD70CD70CD70CD71CD72CDB3D5E2
:10342200B3DDD3DDF3DD34DE75EEB7EEB7EE77E66E
:10343200B7EE3BFFBCFF9DFFBDFFFFFFFFFFFFFF9E
:10344200FFFF7DF778D631AD2D8C6973EA83E97B76
:10345200A97BA97BA983AA8BAB8BEB8BAB8BCB8B89
:10346200EB8BCB8BAB8BAA8BAB8BAB8BEB8BCB8BEB
:10347200AB83AB8BEC8B2D942D942D94EB8B2B8CFF
:103482004C9C4C9C2B942B946C9CCDACEDAC0EB50F
:103492002EBD6FBD8FCDAFCDB0CDB0CDD1CDB1CD25
:1034A20091CD91CD91CDB1CD70CD6FC54FC56FC5C9
:1034B2006FCD8FCDB0CDF0DD11DE31DEF1DD12DE6C
:1034C20033DE53DE74DE74DE75DE76DE77DE77DEC3
:1034D20077DE98DEB9DEB9DED9DEFADEFBDEFBDEB0
:1034E200FBDEFBDEFBDEFBDEFBDEFBDEDBDEDBDE52
:1034F200DBDEFBDEFCDE1CDF3DDF3DDF3DDF3DE7EB
:103502005DEF7DEFBDEFBDEFBDEFBDEFFDFFFDFF59
:10351200FDFFFDFFFDFFFDFFFCFFFCFFFBFFFBFFCF
:10352200FBFFFBFFFBFFFBFFFBFFFAFFB9FFB8FF4F
:10353200B7FFB7FFB6FFB5FFB5FFB5FFB4FFB3FFE7
:10354200B4FFB5FFB5FFB5FFB6FFB6FFB7FFB7FFD4
:10355200286B697BA97BA97BC983098C2A942B944C
:10356200CFAC72BDF5CDF6CD17CE78DEB9DEB9E6B9
:10357200B7EE77EE35E635DE13DE13E613E612E636
:10358200F1DD6FCD90D512E670D5ADB46BAC4BAC1E
:10359200ADBC50CDB1DD71CD2FC571CDF3DD55E69A
:1035A20034DEB3CD35DEF9EEB8EE5BFFFDFFDEFFB4
:1035B200DFFF9FFF9FFFFFFFFFFF3AEF31AD696B18
:1035C2002B8CEA7BEB8BEB8B697BEB8B2D9CAB8B98
:1035D200CB8BEB8BEB8BEB8BCB8BEB8BCB8BAA83E2
:1035E200EB8BCB8BCB8BEB8BEC8BEC8B0C8C0C8C23
:1035F2002C8C2C8C2C8C4D946D9CAD9CADA4ADACC4
:10360200ADAC2FB52FBD4FBD8FCD8FCD8FCDD1CDD1
:10361200D1CDB1CDB1CDB1CDB1CDB1CDB1CD90CDB9
:103622006FCD6FC54FBD4FC56FCDD0CDF1DD32DE51
:1036320032DE73E674EE53DE53DE75DE95E696DE19
:1036420077DE97DEB8DEB9DEB9DED9DEFADEFBDE82
:10365200FBDEFBDE1BDF1BDF1BDFFBDEFBDEFBDE3D
:10366200FBDEFBDEFCDEFCDE1CDF3DDF3DDF3DDFA3
:103672005DEF5DEF7DEF7DEFBDEFBDEFBDEFBDEF28
:10368200DDFFFDFFFDFFFDFFFDFFFDFFDDFFDCFFB9
:10369200FDFFFCFFFCFFFCFFFBFFFBFFFBFFFBFF53
:1036A200F9FFF9FFF8FFF7FFD7FFB6FFB5FFB5FF48
:1036B200B5FFB4FFB5FFB5FFB5FFB6FFB6FFB7FF65
:1036C200D7FFD7FF296B697BA97BA97BC983298C8B
:1036D2004B9C6B9C2FADB3CD57DE77DE37D657D6DA
:1036E20037CE15CE35DE35E635EE55EE34EE13E641
:1036F200B1DD6FD5D1DD6FD54FCD2FCD6FCDF1DDE2
:10370200D1DD0EC5ADBC4BAC2BACADB4EEBC2FC500
:1037120071CDD2D5F3DDF3D571C5F3D539FFF9F605
:10372200B7EE7BFFBFFFBFFFBFFFFFFFFFFF9CF7AF
:1037320076CE51ADEB7BEB832B8C0B8CAB8BCB8B97
:103742000C9CEB93EB8B0B8C0B8CEB8BEB8BEB8B4B
:10375200EB8BAB8B2D94EC8BCB8BAB838B838B83E3
:103762008B838A7BAB83EB83EB8B2C8C2C944C9CD2
:103772002B9C2B942B9CADACCDAC0DBD6FC56FC5F6
:103782004FBD6FCDB1CDB1CDB1CDD1CDB1CDB1CDDB
:10379200B1CDB1CD6FC56FBD2EBD2EBD2EBD6FC5D6
:1037A200AFCDB0CDF1DD53DE73E673DE74DE75DED0
:1037B20075DE75DE75DE77DE97DEB8DEB9DEB9DE80
:1037C200D9DEFADE1BE73BE73BE73BE73BE73BE7BC
:1037D2001BDF1BDFFBDEFBDEFCDE1CDF1DDF3DDF54
:1037E2003DDF3DE75DEF5DEF7DEF7DEFBDEFBDEFCF
:1037F200BDF7DDF7DDFFFDFFFDFFFDFFFDFFFDFF77
:10380200DDFFDDFFFDFFFCFFFCFFFCFFFBFFFBFF1D
:10381200FBFFFBFFF9FFF9FFF8FFF7FFD7FFB6FF4A
:10382200B5FFB5FFB5FFB5FFB5FFB5FFB5FFB6FFF5
:10383200D7FFB7FFD7FFD7FF296B6973A97BA97B96
:10384200C983298C6B9C8D9C71BD15CEB7DEB9E600
:1038520098DE98DE77DE36D6F5D5F4DD14DE33E673
:1038620033E6F1DD90D56FCDACBCEDC42ECD2FCDBE
:103872004FCDB1DD6FCD6CACEDBCA99B2783688BBE
:10388200C99B888BC9936CACEEB4B1CD71C571BDC7
:10389200F3D514DE35DE3AFF9DFFBFFFDFFFFFFFEA
:1038A200FFFFFDFF9BF739EFF09CAF9C2C8CEB8B5D
:1038B2002C8C0C94EB932D9C0B8C2C942C940B8CB9
:1038C200EB8B0B8CEB8BEB8B2C8CEB8BAA83697BBE
:1038D2006A7B8B7BAB83CB8BAA7BCB7BEB8BEB8B20
:1038E200EB8BEB8BEB8BEB8BEA8B6B9CADACEDB488
:1038F2004FBD2FBD0DBD2EBD2FBD6FBD90C590C557
:103902006FBD6FBD6FC58FC56FC56FBD4FBD2EBD7E
:103912002EBD4EBD6FC56FC5B1CDF1D533DE33DEE1
:1039220053DE74DE75DE35DE35D675D677DE77DEAC
:1039320077DEB8DEB9DEB9DEFBDE1BE73BE73BEF45
:103942003BEF3CEF3CEF3CE73BE73CDF3CDF3CDF5F
:103952003DDF3DE73DE75DE75DEF7DEF7DEF9DEF0D
:10396200BEEFBDEFBDF7DDF7FDFFFDFFFDFFFDFF84
:10397200FDFFFDFFDDFFFDFFFCFFFCFFFCFFFBFF8A
:10398200FBFFFBFFFBFFFBFFF9FFF9FFF8FFF7FF70
:10399200D7FFB6FFB5FFB5FFB5FFB5FFD5FFD5FF22
:1039A200D6FFD7FFD7FFD7FFD7FFD7FF496B697382
:1039B200897BA97BA97B098C6B9CAD9CD3CD76DEE0
:1039C200D9EED9EEB9E6F9EEF9EEF9EE55DE35DECD
:1039D200F3DDF3DDD1DDD1DDD1DDD1DDD0DDEDBC37
:1039E2006BAC6BAC2BAC6BACADBCADBC6BAC898BBC
:1039F20027832783067BA572478B6BA4ADACADAC46
:103A0200EEBCEEB4AEACF3D5B7EEF5D55CFF9DFFE0
:103A1200DFFFDEFFDEFFFEFFFEFFFDFF39E735C6FB
:103A22006E94CB836D9C6D9C0B942D9C2C942D9C41
:103A32002D9C2C940B8C2B8C0B8CEB8BEB8BCB8BD4
:103A4200AA838A7BAB83CB8BEC8B2D8CEB83EB83B2
:103A5200CB83AB7B697B897BCB8B2B94EB8B6C9C75
:103A6200ADACEDB42EBD0DBDEDB4EDBCEDB42EBDCF
:103A72004FBD4FBD2FBD2EBD4FBD6FBD6FBD6FBDC5
:103A82006FBD4FBD4EBD6EBD6FBD6FBD8FC5B0CD9D
:103A9200F1CDF1CD33D633D633D633CE35CE55CE66
:103AA20076D677D677D677D6B8DEB9DEB9DED9DE66
:103AB200FADE1BE73BEF3BEF3CEF3CEF3BE73BE73C
:103AC2003BE73CDF3DDF3DE73DE73DE75DEF7DEF77
:103AD2007DEFBDEFBDEFBDF7DDF7DDF7FDFFFDFFCC
:103AE200FDFFFDFFFDFFFDFFDDFFFDFFFCFFFBFF17
:103AF200FBFFFBFFFBFFFBFFFBFFFBFFF9FFF9FFF8
:103B0200F8FFF7FFD7FFB6FFB5FFB5FFD5FFD5FF2B
:103B1200D5FFD5FFD6FFD7FFF7FFD7FFD7FFD7FFD8
:103B220069736973897BA97BA97BE9832B946C9C5C
:103B3200D3CD76DEF9EEF9EEB9E6F9EEF9EED8EE8E
:103B4200B7EE75EE13DED2DDB1D5B1DDF1DDF1DD1B
:103B5200AFD5EDBCACBCEDBCEDBCADAC2BA4A98B20
:103B6200488B488B2783E77AA56A6362646AE572A9
:103B7200A98BC993ADACEFBC6CA4EFB4F3D5D3CD94
:103B8200D9EE3BF77DFFBDFFBDFFFEFFFFFFFEFF4E
:103B9200FFFF5BEF73AD6E94AF9C6E9C0B8C2D9C04
:103BA2002C944D9C4D9C2C942C942C942C8CEB8B13
:103BB2002C94EB8BCB8BAB83AB83AB83AB83AB8391
:103BC200AB7BCB7BAB7B697B29734973897BEA8BAC
:103BD200EA8B2B9C6B9C6CACADACADACABACCDB4FE
:103BE200EDAC0DB52FBD4FBD2EBD2EBD6FBD6FBD52
:103BF2002EBD4EBD4EBD4EBD2DBD2DB52EBD4EBDF5
:103C02006FBD6FBDAFC5D1CDF1CDF2CD13CE33CEE9
:103C120034CE55CE76D676D677D677D697DEB8DE40
:103C2200B9DEB9DEF9DEFADEFBE63BE73BE73BE76E
:103C32001BE71BE71BE71BDF3CE73CE73CE73DE7F5
:103C42005DEF7DEF7DEF9DEFBDEFBDEFDDF7DDF7C2
:103C5200FDFFFDFFFDFFFDFFFDFFFDFFDDFFDDFFC2
:103C6200FCFFFBFFFBFFFBFFFBFFFBFFFBFFFAFF82
:103C7200F9FFF9FFF8FFF7FFF7FFD5FFB5FFD5FF13
:103C8200D5FFD5FFF5FFD5FFF6FFF7FFF7FFF7FFEB
:103C9200D7FFD7FF6973696B6973A97BA87BA87B80
:103CA200098C6B9CEFACB3C577DEB9EEB9EED9EEF9
:103CB200B9E677DEB7EE75E633DEF2DDB1D570CD6B
:103CC2006FCD2ECD6FCD6FCDEDBC0AA4277B277BA8
:103CD200A98BA993EB9B4DA48DAC8DACADAC8DACF7
:103CE2000B9C698BA56A277B698B2BA40FBDADAC9E
:103CF200ADACF3DD35DEB8E63AF77CFFBDFFFFFF82
:103D0200FFFFDEFFFFFFFEFFF9DEB3BDAF9C4D9468
:103D12002C946D9C4D9C6D9C6D9C2D9C2C942C9494
:103D22002C94EB8BEB8BEB8BAB8BAB83AB838B7BD7
:103D32006A7B6A7B69736A736A7B69732973286B0E
:103D42002873287B697BC98BE98BE9932B9C4BA455
:103D52002BA48BACACACEDACEDB40DB50DB50DB583
:103D62002DB52EBD2DB54EBD6FBD6FBD2EBD2DB572
:103D72002DB52DB58FC56FBD6FBDB0C5F1CDF2CDDF
:103D820013CE33CE34CE35CE55CE76D677D677CE49
:103D920097D6B7DED9DED9DEF9DEFAE6FAE6FBE639
:103DA200FBE6FBDE1BE7FBE6FBE6FBDEFBDE1CDFE6
:103DB2003CE73CE75DEF5DEF7DEF9DEFBDEFBDEFD3
:103DC200BDEFBDEFDDFFFDFFFDFFFDFFFDFFDDFFF1
:103DD200DDFFDCFFFBFFFBFFFBFFFBFFFBFFFBFF4E
:103DE200FBFFFAFFF9FFF9FFF7FFF7FFF6FFD5FF39
:103DF200D5FFD5FFD5FFD5FFD5FFD5FFD5FFD6FF20
:103E0200F7FFD7FFD7FFD7FF296B296B486B887B5A
:103E1200887BA77BE98B2B944D9C31B5F5CD77DE62
:103E220098DEB9E6B8DE77DE55DE35DE33DEF3DD69
:103E3200D1D56FCD2EBDEDBC6BAC6BACCDBC6BAC3C
:103E42002783A56AA572E77AC7722983CC936EACE1
:103E520010BD71CD0FBD6DACA98B077B035AC67A1D
:103E6200EFBC71CDAEB4AEAC93CD35D6D8EE3BF748
:103E72009DFFDEFFFFFFDFFFBEF7FFFFDDFF77D60F
:103E8200F1A46D9CAD9C6D9C6D9C8D9C8D9C6D9CDC
:103E92006D9C6D9C4D942C8CCB83AB83AB83AB839D
:103EA200AB83AB83AB7BAB7B6A736A736973497316
:103EB2002973296B28730773287B8983A98BA98BA4
:103EC200E99BE99BE99B2A9C4A9C6B9C6B9C8BA47B
:103ED200ABA4ABA4ABACABACEDAC2DB56EBD6EBDC3
:103EE2004DBD2DB52DB54DB56FBD4EBD6FBDB0C528
:103EF200F1CDF1CDF2CDF3CD33CE34CE35CE55CE9C
:103F020076CE77CE77D697D6B9DEB9DED9DEFAE6A7
:103F1200FAE6FAE6FBE6FBE61BE71BE7FBE6FBE657
:103F2200FBE61BE71BE73CE73CEF5CEF7DEF7DEF39
:103F3200BDEFBDEFBDEFBDEFDDFFDDFFDDFFDDFF5F
:103F4200DDFFDDFFBDFFDCFFFBFFFBFFFBFFFBFF38
:103F5200FBFFFBFFFAFFF9FFF9FFF8FFF7FFF7FF9F
:103F6200F6FFD5FFD5FFD5FFB5FFB5FFD5FFD5FFCE
:103F7200D5FFD5FFD7FFD7FFD7FFD7FF296B276B19
:103F8200286B6873887B887BC9832B8CAEA471BD38
:103F920015CE36D657DE77DE77DE77DE75DE75DE56
:103FA20055DE33DE33DED1D56FCD2EC56FCDA8936E
:103FB2002783EA9B2BA4A993698B698BA772E97A61
:103FC2006A8BAB8BEC9BEC9BEB9BCB930B9CEB9BA5
:103FD200EB9BE77A656AAB93EFBC4DA431BDF3CDA1
:103FE20097E6F9EE5BF79DFFBEFFFFFFDFFFFFFFE6
:103FF200FFFFD9DE31ADEFA40FAD6D9CAD9CAE9C41
:10400200AD9C8D9C6D9C6D9C4D9C2C942C940B8C2A
:10401200EB8BCB8BCB8BCB8BAB8BAB83AB83AB7B6E
:10402200697B29732973497B497B697B487BA98B0F
:10403200A98BA98BE99BC99BA993E99B099C29940C
:10404200299C2A9C4B9C6B9C6B9C4A9C6B9CABACAA
:10405200EDAC2DB50DB50DAD2DB52DBD2EBD0DB5EE
:104062002EBDAFBDD1CDB1C5B1C5B1C513CE33CE15
:1040720034CE35CE35CE56CE77D677D677D697DEB6
:10408200B8DED9DEF9DE1AE73BE71BE73BE73BE7A1
:104092001BE71BE71BE71BE73BE73BE73CE75CE76C
:1040A2007DEF7DEF9DEFBDEFBDEFBDEFBDFFDDFF0E
:1040B200DDFFDDFFDDFFBDFFBCFFBBFFFBFFFBFF45
:1040C200FBFFFBFFFBFFFAFFFAFFF9FFF9FFF9FF26
:1040D200F7FFF7FFF6FFD5FFD5FFD5FFB4FFB4FF1B
:1040E200B5FFD5FFD5FFD5FFD6FFD6FFD7FFD7FF48
:1040F200E762E762276B676B6873897BA97BEB8B4F
:104102004D94EFACB3BD15CE36D657DE57DE56DE34
:1041120055DE35DE34DE33DE13DEF1DDB0DD6FCDAC
:104122000DC56BB4E99BA99BEA9B2CA4CFB431C506
:104132006FACAFAC6EA46B8B676A055A055A055A11
:10414200255A67624A7B0D9CAB8B097BAB8BCFBC3C
:10415200AFACAFAC72C5B7EE5BFF3BEF7CF7FFFFD6
:10416200DDFFFFFFFFFF3BEF15C631ADCF9CAF9CDC
:10417200AE9CEE9CEE9CAD9C6D9C6D9C6D9C6D9C72
:104182002B94EB8B2C9C2D9CCB8BED93ED9B297B65
:10419200AA83697B697BA983697B27736983EB9B0C
:1041A200277B0B9C688B688B2FBDEB9BEA9B4BACF0
:1041B2002B9C0EBD0A9C6783ACACADACE9936BA49F
:1041C200EDB4ADACACAC2EBD8BAC6FCDAFCD6FC58D
:1041D2002FBD4FC5B1CD53DE33DEB1CDB1CD33DE10
:1041E20033DE33D634D655DE35DE35CE35CE35D652
:1041F20056CE76D697DEB7DED8DEF9DEF9DEF9DE08
:104202001ADF1BDF3BDF3BDF3BE73BE73BE73BE7FD
:104212005CE75CEF7DEF7DEFBDEFBDF7BDFFDDFF3E
:10422200BDFFDDFFDDFFDCFFBBFFBBFFDBFFFBFFF5
:10423200FAFFF9FFF9FFFAFFFAFFFBFFDAFFFAFFD5
:10424200FAFFF9FFF9FFF8FFF7FFD7FFB5FFB5FF58
:10425200B5FFD5FFD5FFB5FFB5FFB5FFB5FFB5FF7C
:10426200D5FFD5FF276B076B276B686B6973697383
:10427200A97BEB832B8CCFA4B3BD76DEB7E6B7DE8A
:1042820077DE56DE55DE35DE34DE33DE13DEF1DD7B
:10429200B1DDB0DDEDC46BB4E99B688B2783077B8E
:1042A200087B2983ED9B2D9CED9B4A7BA76A265AAE
:1042B2000552E5496339A449265AE96AAB8B2D9C1C
:1042C2006EAC2D9CAEACEFBC71CDB3CD36DEF9EE4B
:1042D2005BF77CF77CF7BDFFFFFFFDFF19DFB4BD85
:1042E200F19CEF9CEF9CEF9CCE9CAD9CAD9CADA451
:1042F2008DA46D9CAEAC6DA46DA42D9CCB932D9C16
:104302006FAC2D9CCB8BAA8B898389836983AA8B03
:104312006CA4EFBC2B9CEFBC6DAC2CAC71CD6DAC26
:10432200ADBC2FC5EEBC91CDADAC0B9CEDBC2FBD91
:10433200ADAC2FBD6FCD2FC52EBDB0CD2EBDF1DDE5
:10434200F1DDB1D5B1DDF3DD33E633E6F3DDD1D511
:10435200B1CDF1D553DE33DE34DE55DE55DE35DE4A
:1043620035DE56DE76DE76DEB7DEB7DEF8DEF9DE85
:10437200F9DEF9DEFADE1ADF1ADF1BDF1BDFFBDEF6
:10438200FBE61BDF3BDF3BDF3CE77CEF7DEF9DEF96
:10439200BDF7BCF7BCFFBBFFBBFFBBFFBBFFBBFF57
:1043A200BBFFDBFFF9FFF9FFF9FFF9FFFAFFFAFFA5
:1043B200DAFFDAFFDAFFD9FFF9FFF8FFD7FFD7FFFD
:1043C200B6FFB5FFB5FFB5FFB5FFB5FFB5FFB5FF4A
:1043D200B5FFB5FFB5FFB5FF276B076B276B486BC2
:1043E200686B6973A97BCA7BEB838D9CB2BD76DE59
:1043F200F8EEF9EE77DE56DE35DE34DE14DEF3DD7E
:10440200F3DDF1DDF1DDD1DDAFDD2ECDADBC6CAC88
:10441200EB9B898B2983297B255A255A255A255AB4
:10442200265A675A675A275AE549265A265A255A5A
:10443200A76AED9331BDB3CD30BD71CD92CDB3CD71
:10444200F5CD98DEFAEE3BEF5BEF7CEFFDFFFEFF72
:10445200BDFF57CE52AD11A551AD30AD0FADEFA49A
:104462000FAD2FB52FBDEEACCEACAEAC0FBDEFBCD9
:104472008EACAFACEFBCAFACCFACAEAC4C9CCA8B8D
:10448200AA8B2C9CEFBC71CD50CDB1DD71CD30CD5E
:1044920091D5EFC4B1DDF3E5F2DD33DE91CD0FBD91
:1044A2006FCDB1D5D1DD13DE32DEF1DDD1DD33E604
:1044B200F1DD73EE73EE33E633EE75EE75F633EE41
:1044C20033E633E633E612DE74EE53DE34DE55E6CF
:1044D20055DE35DE35DE76DE76DE76DEB7DEB7DE5B
:1044E200D8DEF9DEF9DEF9DEF9DEFADEFADEFBDE2F
:1044F200FBDEFBDEFBDEFBDE1BDF1BDF3BE73BE71E
:104502005BEF7BEF7BEF7BEF9BF7BBFFBBFFBBFF61
:10451200BAFFBAFFBAFFD9FFF9FFF9FFF9FFF9FFB6
:10452200F9FFDAFFDAFFDAFFDAFFF9FFF9FFF8FF46
:10453200D7FFD7FFB7FFB5FFB5FFB5FFB5FFB5FF93
:10454200B5FFB5FFB5FFB6FFB6FFB6FFE762E7629C
:10455200076B286B696B6973A97BEB83CB832D8C0B
:1045620010ADF5CD97DEB7E677DE57DE15D6F3D57B
:10457200F3D5F3D5F2DDF1DDF1DDD1DD6FCD2DC562
:10458200ADBC6CAC2BA4AA8B698B2983A76A465A53
:10459200E559E55105520552E549A449E549E54980
:1045A200265A465A265AA76A0D9C72CDB2CD71CDB3
:1045B200D3CD76E697E677DE98DEFBEE7CF75CEF0E
:1045C2007DF7FEFFDDFFF9DEF5BD52ADB3BD91BD56
:1045D20071BD30B551BD91C5B1CDB1CD30BD71CD3B
:1045E200B1D5B3DDB2CD92CD72CD71CDB3D5D3D528
:1045F20030BD6DAC2CA4CFBC71CD91D5F3E5F3E504
:10460200F3E5F3DDB2DDB1DD33EE54EE74EE53EEDD
:1046120033E6F2DDB1DD33E674EE74EE53EE73EEA3
:1046220073EE73EE33EE74F674F633EE33EE53EE4E
:1046320053EE33EE33EE73EE73EE73EE73EE53E638
:1046420033E654E655E635DE35E675E655E676E6BA
:1046520076DE97DE97DEB7DEB8DEB9DED9DED9DEEA
:10466200FADEFADEFBDEFBDEFBDEFBDEFBDE1BDF61
:104672003BDF3BE73BEF7BEF7BEF7BEF7BF7BBF770
:10468200BBFFBAFF99FFB9FFB9FFB9FFF9FFF9FF05
:10469200F9FFF9FFF9FFD9FFD9FFD9FFB9FFD9FF18
:1046A200D9FFD9FFD7FFD7FFD7FFB6FFB6FFB6FFB7
:1046B200B6FFB6FFB6FFB7FFB7FFB7FFB7FFB7FF4B
:1046C200E762E762E762276B486B696B897BCA7BAB
:1046D200EB83EB8B6D9C31B5F5CD36D657DE77DEAD
:1046E20035DE14DEF3D5D2D5B1D5B1DDB0D58FD557
:1046F2000DCDACBC2AACA99B2783A66A656A45622C
:10470200A76A6762055A055A255AE5496339E128BD
:1047120023392239A549C96A6B8B8B8B6B8BAB8B87
:1047220031BD51C5B3CD55DE97E677DE77DEB9E60A
:104732003BEF3BEF3BEF7BF7BDFFBCFFB9DEB4BD08
:1047420073BDB2BD91BD31BD30BD71CDF3D533DE88
:1047520054EE34EE33E633E655EE55EE55EE75EE95
:1047620013DE34EEF3DD51CD30CDB2DDF3E5F3DD12
:1047720055EEF3ED33EE34EED3E533EE54FE34F67C
:1047820074F633EE75FE75FE33EE74F6B5FE74F60E
:1047920033EE74FE74FE33F653F633EE33F633F62D
:1047A200F3EDD1E5F1ED33EE53F6F1EDF1E533EE54
:1047B20053EE33EE33EE74EE75EE55EE55EE75EEC6
:1047C20035EE55EE55EE76E677E677DE97DE97DE46
:1047D200B9DEB9DED9DEDADEFBDEFBDEFBDEFBDED6
:1047E200FBDE1BDF3BE73BE73BEF7BEF7BEF7BEF48
:1047F2007AEF9AF7B9FFB9FFB9FFB9FFB9FFD9FF4D
:10480200D9FFF8FFD9FFD9FFD9FFD9FFB9FFD9FFE7
:10481200B9FFD9FFD9FFD9FFD7FFD7FFD7FFB7FF1E
:10482200B7FFB7FFB7FFB7FFB7FFB7FFB7FFB7FFD6
:10483200B7FFB7FF076BE762076B286B286B286B24
:104842006973A97BEB83AA7BEB8BEFA4B3C535CE4F
:1048520056DE77DE76DE55DE34DEF3DDD2DDB1D52F
:104862006FCD4FCD4FCDCDBC2BACA993077B856AC5
:10487200255A255AA349A349A349E551275A265245
:10488200A5496339633943396341275A6B7B2E9CAF
:104892006FAC4D9CEFB471CDB3CD73CDB3CD77DE9C
:1048A200B9EE78DEB9E6FAEEFBEE3BEFBDFFFDFFB7
:1048B2007BF737D6B3CDF3CDF3CDB2CD71CDB2CD3B
:1048C20033E675EE75F695F654EE74EEB6FEB5FE69
:1048D20075EE75F655EE95FE75F633EEF3ED34EEA4
:1048E20034EEF3ED34F6F3ED13EE33F6D3ED95FE3D
:1048F20013F6F3ED33EE33EE75FE95FE54FE53FEE2
:1049020074FE13EEB1ED33F633FEB1ED13F6B1EDF5
:10491200D1EDF1EDF1EDB1EDD1ED33FE32F6B0DDD9
:10492200AFDDF1ED32EE32EE33EE73F674F674EE85
:1049320054EE75F634EE34EE35EE55EE55EE75E680
:1049420076E697DEB7DEB8DEB9DED9DEFBDEFBDE69
:10495200FBDEFBDEFBDE1BDF3BE73BE73BEF5BEF18
:104962005BEF79EF79EF79F799FFB9FF99FF99FF3B
:10497200B9FFB9FFB8FFD8FFB9FFD9FFB9FFB9FF37
:10498200B9FFB9FFB9FFB9FFD9FFD8FFD8FFD7FFE9
:10499200D7FFB7FFB7FFB7FFB7FFB7FFB7FFB7FF45
:1049A200B7FFB7FFB7FFB7FFE762E762076B276B97
:1049B200276B276B6973A97BAA7B697BEB8BF0ACB6
:1049C200F5CD76DE77DE97DE77DE76DE35DE34DE37
:1049D200F3DDF1DDB0DD6FD56FCDEDC46BB42BA48B
:1049E200A9934883E77AE772A76A665A255A265A34
:1049F200275A0552E549E549E549A5418341C5499B
:104A0200675A6B7BAFACB3CD31BDB2CD92CD31BD68
:104A120052BD15DE77DE57DE57DE99E6B9EEFAEEC5
:104A22007BFFBDFF7CFFF9F635DE75E675EE35DE00
:104A320013DE34EE75EE95F633EE74F633EE53F67E
:104A4200B5FE53F6F2E534EE75FEB5FEB5FE75FE23
:104A520034F633F6F3EDB2EDF3EDD2EDB2EDD2ED85
:104A620071E554FE71E5B1EDB1EDB1EDB1EDF2EDEF
:104A7200F2EDD1EDB1ED91ED70DD91ED71EDEED490
:104A8200B1ED6FDD4FDD4FDD6FE56FE5B0EDF1EDBF
:104A9200D0ED8FE5AFEDF1EDF1EDF1ED11EE33FE7D
:104AA20053FE33F633F633FE33F613F633EE33EEBC
:104AB20033EE54EE75EE75E676DE97DEB7DEB9DEDE
:104AC200F9DEFADEFBDE1BDFFADEF9DEFADE1ADFE2
:104AD20019E739EF39EF39EF59EF79EF79F779F7CC
:104AE20078F798F798FFB8FFB8FFB9FFB9FFB9FF99
:104AF200B9FFB9FFB9FFB9FFB9FFB9FFB9FFD9FFD4
:104B0200D8FFD7FFD7FFB7FFB7FFB7FFB7FFB7FF92
:104B1200B7FFB7FFB7FFB7FF98FFB7FFE75AE75AEC
:104B2200E762276B286B286B6973A97B697B697BBA
:104B3200EB8B51B576DEB7E6B7E697E676DE55DE65
:104B420055DE55E634E633E6F1DDF1DDB0DD6FD555
:104B52002FCD0EBDADB42BA4EB9BAB8B297B876A0B
:104B6200E551A34963398339C5492752C96A064ABF
:104B7200675A6B7BCD8B6B832D9C93CDB3CD71CD5F
:104B820071C551C551C572C5B3CDF5DD77E677E67E
:104B920078EEB9EEF9F6F9F65BFF9BFF97EEB7F602
:104BA200B7F695F675F675FE75FE73FE74FE95FE04
:104BB20013EED1ED13EEF1EDF2EDB5FE33F634FE68
:104BC20054FE34FE33FE13F6F3EDD2ED71E591EDB2
:104BD20071ED70E52FDDF2F5EED44FDD2FDD2FDD27
:104BE2000FDD2FDD4FDD2FDDEED40EDD0FDD0FDD0E
:104BF200EDDC4BC46FED0EDDEDDCCDDC6BCCEDDC22
:104C02002EE52DDD2DDD6FEDAFEDD0ED8FEDAFEDAE
:104C1200CFED11FE31FE11F6F1F5F1FDF1FDF1FDE1
:104C2200F1F5F1ED11EE31EE33EE53EE74E675E689
:104C320096DEB7DED9DEF9DE1ADF1BE7B9DED9DE92
:104C4200D9DEF9DEF9DEF9E619E739E739EF59EF8E
:104C520079EF78EF77EF77F777F7B8FFB9FFB9FF1A
:104C6200B9FFB9FFB9FFB9FFB9FFB9FFB9FFB9FF82
:104C7200B9FFD9FFD9FFD9FFB8FFB8FFB7FFB7FF18
:104C8200B8FFB8FFB8FFB8FFB8FFB8FF98FFB8FF8A
:104C9200E75AE762076B076B276B286B486B6973F0
:104CA200697B697BCB838E9C72BD35D697DE77DEBE
:104CB20056DE55DE35DE35DE33DE33E612E611E64C
:104CC2008FDD2ECDADBCACB4ADB4ADAC2B9CCB8BDB
:104CD2006A83E86A255AA449834163396339A44146
:104CE2008441A5492652E96AAC8B6FA4F1B411BD87
:104CF20051C5B1CDD3D591CD31C531C573CD93CD8C
:104D0200F5DDF5DD15DE77EEB9F6F9FEF9FE19FFF0
:104D120075EE35EE34EE75F675FE74FEF3EDB1ED1B
:104D220033F612F6D1ED33FE6FDDB1EDB0DDB1ED4C
:104D3200B1ED33FE54FE13FED2EDF3F5F3FDF2F5C1
:104D4200F2F5B1EDB1ED91ED2FDD2FDD0EDDADCC44
:104D5200ADD4ADCCEDDC0EDDCDDCCDDCEDDCADD407
:104D6200EDDC6BCC8CD42ACC2EE5EDDCACDCEDDCBE
:104D72006ACC2DED6EEDABDCAFFD4DEDECDCABD4D2
:104D82004DED2DE56DEDAFEDCFF5AFEDAFEDAEF540
:104D92006DEDADF5EFFD0FFEEFF5AEEDEFED72EE61
:104DA20032EE33DE74DE95DEB7DEB7DED8DEF9DE54
:104DB2003BEFF9DEB9DED9DEF9E639EF39EF39EF4B
:104DC20039EF38EF38EF58EF78EF78F778F778F770
:104DD200B9FFB9FFB9FFB9FFB9FFB9FFB9FFB9FF11
:104DE20099F7B9F7B9F7B9F7B9F7B9F798F798F7A3
:104DF20077F797F798FF98FFB8FFB8FFB8FFB7FFAC
:104E0200B8FFB8FFE762E762E762076B076B276BE1
:104E1200286B6973697B6973AA7B6D9471BD35CE0A
:104E220055DE15D656DE55DE35DE35DE13DEF2DD15
:104E3200F1DDF1DDB0DDB0DDD1DDB1DD6FCDADACE9
:104E4200CA93287B255A465A465A255AE549A54906
:104E5200E551675AE549A44963398341255A2A7BBA
:104E62006FA431BD30BDB1D5B2DD51CD0FBD31CD55
:104E720031CD31CD72CDB3DDD4DDB3DDD4DD55EE30
:104E820097EE75EE75EE33EEF3EDF3ED13EEF1ED15
:104E9200B1EDB0EDF1F5B0EDF1EDF1EDD0EDB0ED3C
:104EA200B0ED2FDDB1EDF2FDF3FDD1F5B1EDB1EDD8
:104EB200D1F5F1FDF1FDD1F5F1FDF1FD4FE50EDD8D
:104EC200EDDCCDDC6BCCCDDCEDDCABD48BCC0DE5FD
:104ED200EDDC09C44ACC6BD4ECDC29CCEDE4EDE486
:104EE2006BDCABDCABDCEBE42CE5EBE4ABDCECE465
:104EF200CBDC49CC6DED2BE5EBDC2BE54DED6CED20
:104F02002CED6BED6BF56BF58BFDACFDCDFDCDF5B1
:104F12000FF671FE71EE31EE32DE53DE75DE75DEB6
:104F2200B7DED8DEB9DE98DE77D697D6B8DEF9E6F8
:104F3200F9E6F8DEF8E618E718EF38EF38EF38EF61
:104F420058EF58EF79F779F779F779F779F799F711
:104F52009AFFBAF79AF7BAF7BAF7BAFFB9F7B9F7F9
:104F6200B9F7B9F798F7B8FFB8FFB9FFB9FFB9FFBA
:104F7200B9FFB8FFB9FFB9FFE862E762E762E7622B
:104F8200E762076B276B486B69736973697B2D8CCA
:104F920071BD55D676DE35D677DE76DE35DE35DE88
:104FA200F3DDF2DDD1DDB0DD8FDD8FD56FCDEDBC70
:104FB2002BA4688BE672856A25626662A76AA76A75
:104FC200A76A675A675AA86A2A7B0973E96A676AF5
:104FD2006762E972CC936DAC0FBD91CDB1DD51CD5D
:104FE2002FCD51CD51CD10CD31CDB3DDB3DD30CD8F
:104FF20031CDF3DD34EEF3E5D2EDB1ED91E590E59F
:1050020090EDB0EDB0EDAFEDAFED6EE5D0F56EE544
:1050120011FED0EDF1F5EDD4B0EDB0EDB1EDB1EDA5
:105022006FED6FEDB0EDF1FDF1FDB0F511FE11FE8A
:105032006FEDEDDCEDDCEDDC6ACCABDCECDCABDCAB
:105042008BD4ECE4ABDCA7BB29CCABDCCBDCA7BBC1
:10505200CBDCECEC8ADCABDCEBE4A9DCA9DC2CEDF0
:1050620028CC2BED2CED89DC2CEDEBDCA9DCEAE481
:105072002BED2BEDEAE4E9E429F508ED08ED49ED25
:105082006AF5ABF5EDFD2FFE2FF630EE11DE32DEC6
:1050920033DE34D675DEB7DE77D677D677DEB8DE86
:1050A200B9DEF9E6F9EEF9EE39EF39EF59EF59EFDA
:1050B20079F779F779F77AF79BFF9BFFBBFFBBFF85
:1050C200BBFFBBFFBBFFBBFFBBFFBBFFBBFFBBFF0E
:1050D200BBFFBBF7BBFFBAFFB9FFB9FFB9FFB9FF0F
:1050E200B9FF99F778F778EF98F798F7E862E862EE
:1050F200E762E762E762E762276B286B4973697BC5
:10510200AA7B6D9471BD76DEB7E697DE77E677E629
:1051120055E635DE13DEF3DDF1DDD1DDF1DDB0DDA7
:105122002ECDACB4E99B688B277B277BE77A876A15
:10513200666AA76A097B297BE972C86AE96A297BE0
:105142006B836B8B6B836A8BAB8BEB9BAFBC0FC59B
:1051520050CD70D52FCD2FCD2FD570DD50DDB1E5DF
:1051620091DD2FCD2FCDB1DDF2EDB1E56FDD6FE534
:105172006FE56FDD6FE56FED6FED6EED6EED2DE5B9
:105182006EED2DE5AFEDF0F5F1FD2DDD8FED6FED5F
:105192006FEDAFED6FED2DE54EEDAFEDAFED6FEDD8
:1051A200D0FDF1FD6EEDECDCECDC0DDD69CC29CC43
:1051B20089DCEBE4EBE4AADC69DC28CCEBE4EBE48D
:1051C20069DC65B3CBE42BEDA9DCEBECA9DC89DC73
:1051D20069DCEBE469D4EBEC0BEDCAE4CAE4C9E4A4
:1051E200EAEC2BED4BF52AEDE9E4A7DCE7ECC6ECA3
:1051F200A5ECC6E4E7EC29ED6AEDACEDCDEDCEE52C
:10520200F0E532E653DE55DE55DE76DEB9DEF9E64E
:105212003AEF3BEF5BF77BF77BFFBBFFBCFFBBFFCC
:10522200BBFFBCFFDCFFDCFFFCFFFDFFDDFFDDFFA2
:10523200DDFFFDFFFDFFFDFFFDFFFDFFBCFFDDFF0D
:10524200DDFFFDFFFDFFFDFFFDFFDCFFFBFFFBFFC1
:10525200DBFFBAFFB9F779EF79EF58EF79EF79EF22
:10526200E862E862E862E762E762E762276B286B5E
:10527200286B697BEB834D9431B555D6D7EEB7EEEB
:1052820077DE77E656E635DE34DEF3DDF1DDF1DD9D
:105292004FCD2ECD0DC5CDBC6BACEA9B688B077B89
:1052A2006A8B097BA772E97A8B8BED9B2D9C4E9CB6
:1052B200AC8BCC8BCC8BAB8BAB8BAB93CB9BEB9B71
:1052C2004CAC2BAC6CB4EECCADC42BBC6CBCEED4F1
:1052D2004FDD2FDD2FDD2EDD2FDD6FDDB0E5AFE5FC
:1052E2008FE5AFEDAFED6EED4DE52DE5EBDCAACC34
:1052F200ECDC0CE5EBDC2DE5EBDCAFEDAFED6FEDBF
:105302002EED2DE52EED6FED4EEDEDDCECDC2DE519
:105312006DED2DE56DEDAFF56DED0CDD0CDDEBDC2E
:1053220089D448CCA9DC2BEDEBE4A9DCC9DCEAE4A6
:105332002BEDE9E4A9DCC5C3E9ECC9E489DC2BED7A
:1053420089DCA9DC89DC27CCEBEC69DC68DC89DC54
:10535200C9E4E9EC2AED2AED29ED29EDE7ECA7E411
:1053620085E4A5ECA5EC85DC85DCE7E429ED6BEDB5
:105372004BE54DDD8FDDF1DD33E655E677E6B7EE41
:105382005BF77CFFBDFFDDFFDDFFFDFFFDFFFDFFE6
:10539200DDFFDDFFFDFFFDFFFDFFFDFFFDFFFEFF6A
:1053A200FDFFFDFFFDFFFDFFDDFFDDFFDDFFDDFF9B
:1053B200FDFFFDFFFDFFFEFFFEFFFEFFFEFFFDFF07
:1053C200FDFFFCFFFCFFDBFFBBF7BBF79AEF7AEFB9
:1053D20079EF79EFE862E862086BE76AE76A076BE0
:1053E200276B286B276B697BAA7BEB8BAFA4F3CD72
:1053F20076DE77DE77DE56DE35DE35DE13DEF3DD92
:10540200F2DDF1DDF1E5D0DDB0DDB0D56FCD2FBD40
:105412006CACEB9BE77AA772876A876A876AE97A3C
:105422008B8B2D9C11BDF0B4AFAC6EAC2DA42DA412
:105432002DA42CA4EB9B68934793C9ABC9AB479BA4
:10544200479BE9B3EDDCCCD4EDCCEDD42DDD2DDDE5
:105452006EDDAFED4DDD8EED6EED4DED2DE50CE526
:10546200ABDC29CCABDCABDC8AD40CE569CC2DE51A
:105472002DE56EEDECDCECDC0DDD2DE50DDDCBDCA0
:10548200ABD4CBDC2DDDEBDC2DE56DED4DE54DED4B
:105492002DE5EBDC68D4C9DC2BEDE9E488DCE9E43A
:1054A2002BEDE9ECE9E4A8DC2AED87DCA8E427D4BB
:1054B20067DC09ED27D468DC68DC07CC4BF568DCD7
:1054C20027D4A9DC0AEDE9ECE9ECA7DCA7DCC7E408
:1054D200E7ECC6E443DC63EC85EC65E485E4E7ECE9
:1054E20029ED6BEDE9DCEBD42DD590DD13E675EEFD
:1054F200F8F63AFF9CFFBDFFFDFFFDFFFDFFDDFF5C
:10550200FDFFFEFFBDFFBDFFBDFFBDFFDDFFDEFFF7
:10551200DEFFDEFFFFFFFFFFFEFFFEFFDEFFDEFF1F
:10552200DEFFDDFFFEFFFEFFFFFFFFFFFFFFFFFFCE
:10553200FFFFFFFFFDFFFDFFFDFFFDFFFDFFFDFF85
:10554200FDFFFDFFBBEFBBEFE862E862086B286B73
:10555200286B286B276B286B276B697B697BAA7B7F
:105562006D9CB3C575DE76DE77DE77E656E635E608
:1055720034E613E6F2E5F1E5F1DDAFDD6FCD2EC5E0
:105582002EBDEEBCADAC6CAC2DA42D9CEB9BAB8BBD
:105592002983297B8B8B0D9CAB8BED9B2DA48FAC30
:1055A200AFB4AFB46EAC6DACEB9B478BC582E58AF2
:1055B2002693279BE59AC492E9BB4ACC6BCC49C49B
:1055C20049BCAACC2DDD8DED0BDD2CDD0BDDCBDC5A
:1055D200EBDC0BE5EBDC69CCAADC69D4AADC0CE5DC
:1055E200ABDCABD4ABDCECDCABDCEBDCECDCEBDC87
:1055F200EBDCEBDCEBDCABDCCBDCEBDC0BDD0BDD8F
:10560200EBDC2CE54CE5A9D4C9DCC9DCE9E467DCB8
:1056120026CCA7DCE9ECA8DCA8DC26CC29ED67DCEB
:1056220026D425CC67DC47D426D406CC27D468DC24
:10563200E9EC89DC68DCA9E4C9EC87DC26D425CC5A
:1056420065DCC7E4E7ECA5E423DC63EC64EC64E42A
:1056520085ECE7ECE8ECE9EC67CCAACC2DDDD1EDEA
:1056620075F6D7FE3AFF7BFFBDFFBDFFBDFFBDFF55
:10567200BDFF9DFF9DFF9DFF7DFF7DFF7DFF7DFFA8
:105682009DFF9DFF9DFF9DFFBEFFBEFFBEFFBEFFB4
:10569200BEFFBEFFDEFFDEFFDEFFDFFFFFFFFFFF1D
:1056A200FFFFFFFFFFFFFFFFFFFFFFFFFFFFFFFF08
:1056B200FFFFFEFFFEFFFDFFBDF7DDF7C75AE76202
:1056C200286B296B286B286B286B286B286B6973F6
:1056D2006973897B8E9CF3CDB6DE76DEB7EE97EEEC
:1056E20076E675E634E633E613E612E611E6F1DD18
:1056F200F1DDD1DDB1D570CD2FBDEFBCAEB44DAC77
:10570200EB9BAB8B6A8B297BE97AE87A6A8BAB8B52
:105712002D9C8EACAFAC6DAC2DAC0BA40BAC899BAD
:10572200A582637AE592A7AB269B628AE49AC7BBFD
:1057320008BC65AB25A3E7BBEBD42CDD2BDD2BDD51
:10574200CADC69CC89D4EBDCA9DC28CCEBDC29CC23
:10575200EBE40CE52DED69CCABD48AD4ABDCEBE405
:105762000CE5EBDCEBDC2CED2CEDEBDC69CCAADC04
:10577200EBDCAAD4A9CC0BDD2BE589CC2BED67D4CD
:1057820026CC67D405CCE5CB46D4A7DCE9EC05CC26
:1057920087DCC4CBC4CB67DCA7DC63BB67DCC5CBCF
:1057A200E5CBE9EC06CC67DC67DC27D467DC25CCEB
:1057B200A3C3E3CB66DCE7ECE7EC65DC64E464EC12
:1057C20063EC43E485ECE7ECC7E467D407BC6ACC3E
:1057D2006FDD75FE19FF3AFF5BFF7BFFBDFFBDFF6B
:1057E200BDFF7BFF7BFF7BFF3BFF3BFF3BEF3BEFC5
:1057F2003BF73BF73BF73BF73BF73BF73CFF5CFFE5
:105802005CFF7DFF7DFF7DFF9DFFBDFFBDFFBEFFF6
:10581200DEFFFFFFFFFFFFFFFFFFFFFFFFFFFFFFB7
:10582200FFFFFFFFFFFFDEF7BEF7BDEFDEF7DDEFA5
:10583200076B276B286B286B276B276B286B296BF1
:10584200296B2973AA7B0C8CCFACF3CDB7EEB6E6ED
:1058520075DE75DE75DE75DE53DE33DE12DE11DED9
:10586200F1DDB1DDAFD56FCD6FCD0EBDADAC6DACA1
:105872004DA40C9CAB8B4983297BE972C86AA76A49
:10588200E97AAB8B2D9C2C9CAA93698B488B278B36
:10589200689B2BBC0BBCA8ABA8AB87AB67ABE9BBC7
:1058A20066AB65AB45AB45AB65AB86B3E7BB49CCF5
:1058B2002CE5EBDC6CEDEBDC28C4ABDC0CE569CC55
:1058C200E7BBE8C3ABDCAAD42CE508C469CCCBDCCB
:1058D20008CCEBE469D4AADCA9DC2CEDCBE46DFDA9
:1058E200AADC48CCCBDCEBE4AAD40CE52CE5CBDC7F
:1058F200E9DCE6CBE5CB05CC26D4A8E487DC67DC83
:1059020005D467DCA3CBE5CBE5CBE5CBA8E447DC4C
:10591200E5CB05CCA8E467DCC5CB67DC29ED46DC2A
:10592200A3BB63BBA3C325D4A7DCA7DC65DC45DC32
:1059320065ECE2DB23E485EC64DCA5DCE8DC67CC27
:10594200A7ABACC4F3EDD7FEF9FEF9F63AFF7BFF45
:105952009DFF5BFF1AF71AF73AFF39FFB7EE77DEC2
:10596200B7EEB7EEB7EEF9F6F9FEF9F6B9F6D9EEFB
:10597200F9F6F9F63AFF3AFF3AFF3AFF3BFF5BFFCF
:105982005BFF7BFF7CFFBDFFBDFFBEFFBFFFBFFF15
:10599200FFFFFFFFFFFFFFFFFFFFFFFFFFF7FFEF2D
:1059A200FFEFFFEF076B276B276B276B276B286BCC
:1059B200286B49736973286B2973697BEB8B2FAD55
:1059C20034D675DE75DE75DE75DE34DE33DEF2DD8D
:1059D200F1DDD1DD8FD54FCD2EC5EDBC0EBD0EBD97
:1059E200EEBCEEBC6DAC4D9CEC9BAB8BAB8BAB8B36
:1059F2006B8B6A83E87AE87A287B698B6993698B77
:105A0200E77A657AA169237AA58A279BE9B3C8B3A5
:105A1200A7AB09BC69CC69CCE7BB25AB65B329CC84
:105A220029CC65AB27C48DED0BDDAAD469CCA7AB1D
:105A320069CC6EED49CC29CC49CC29C469D4AADC05
:105A4200EBDCA9DC69CCA7BBABE4CBE4A9DC28D4B2
:105A52000BEDAAE4AADC27CCAAE469D4ABDCABDC6C
:105A62000DE589D468D4E5C3A5C327CC47DC47DC60
:105A720027DCC5CB25DC05D426DCA5CB87E4E5CB2A
:105A820087DCE5CBA9E4E5CB67DCE5CB67DC25CC9D
:105A9200A7DC83BB63BBA3C325CC66DC65DC05CC7A
:105AA20005CC25DC24E4A1DBE2DB63E465DCE7E48E
:105AB20009E5A9CCCBCCB1DDB6FE39FF3AFF19F727
:105AC2003AF73BFF3BFF3BFF19F7F9F6D8EE77E6D3
