:040000000C94C40296
:100004000C9400000C9400000C9400000C9400006C
:100014000C9400000C9400000C9400000C9400005C
:100024000C9400000C9400000C9400000C9400004C
:100034000C9400000C947C030C9400000C940000BD
:100044000C9400000C9400000C9400000C9400002C
:100054000C9400000C9400000C9400000C9400001C
:100064000C9400000C9400000C9400000C9400000C
:100074000C9400000C9400000C9400000C940000FC
:100084000C9400000C9400000C9400000C940000EC
:100094000C9400000C9400000C9400000C940000DC
:1000A4000C9400000C9400000C9400000C940000CC
:1000B4000C9400000C9400000C9400000C940000BC
:1000C4000C9400000C9400000C9400000C940000AC
:1000D4000C9400000C9400000C9400000C9400009C
:1000E4000C9400000C9400000C9400000C9400008C
:1000F4000C9400000C9400000C9400000C9400007C
:100104000C9400000C9400000C9400000C9400006B
:100114000C9400000C9400000C9400000C9400005B
:100124000C9400000C9400000C9400000C9400004B
:100134000C9400000C9400000C9400000C9400003B
:100144000C9400000C9400000C9400000C9400002B
:100154000C9400000C9400000C9400000C9400001B
:100164000C9400000C9400000C9400000C9400000B
:100174000C9400000C9400000C9400000C940000FB
:100184000C9400000C9400000C9400000C940000EB
:100194000C9400000C9400000C9400000C940000DB
:1001A4000C9400000C9400000C9400000C940000CB
:1001B4000C9400000C9400000C9400000C940000BB
:1001C4000C9400000C9400000C9400000C940000AB
:1001D4000C9400000C9400000C9400000C9400009B
:1001E4000C9400000C9400000C9400000C9400008B
:1001F4008602870293029E02AB02B602C102D102BA
:10020400DB02E402F60209031A0329033A034A0350
:1002140020222A2B2C5B3D5D7C7F00000004000221
:1002240000018000400020001000080004000200CB
:100234000000008000400020001000080040002062
:100244000010000800040002303A2F66696C652E25
:100254007478740049206C696B6520436F6465563B
:100264006973696F6E415652212048657265277320
:1002740020736F6D65206D6F726520746578742EC0
:100284002E2E0046525F4449534B5F45525200465E
:10029400525F494E545F4552520046525F4E4F548E
:1002A4005F52454144590046525F4E4F5F46494CA8
:1002B400450046525F4E4F5F504154480046525FDE
:1002C400494E56414C49445F4E414D450046525FAC
:1002D40044454E4945440046525F455849535400ED
:1002E40046525F494E56414C49445F4F424A45434A
:1002F400540046525F57524954455F50524F54453B
:10030400435445440046525F494E56414C49445F6C
:1003140044524956450046525F4E4F545F454E4144
:10032400424C45440046525F4E4F5F46494C45534C
:10033400595354454D0046525F4D4B46535F41421D
:100344004F525445440046525F54494D454F55540D
:10035400004552524F523A2025700D0A0046696CEE
:10036400653A2025732C2041747472696275746532
:10037400733A20256325632563256325630D0A44A9
:100384006174653A20253032752F253032752F255A
:10039400752C2054696D653A20253032753A253024
:1003A40032753A253032750D0A53697A653A20253B
:1003B4006C752062797465730D0A0046696C65205A
:1003C4002573206F70656E6564204F4B0D0A002500
:1003D4007520627974657320726561640D0A005238
:1003E40065616420746578743A20222573220D0AAD
:1003F4000046696C6520257320636C6F7365642007
:100404004F4B0D0A004C6F676963616C206472691D
:10041400766520303A206D6F756E746564204F4B9D
:100424000D0A0046696C652025732063726561744A
:100434006564204F4B0D0A0057726974652074651A
:1004440078743120746F207468652066696C650D5A
:100454000A00257520627974657320777269747453
:10046400656E206F662025750D0A005365656B2047
:10047400746F2074686520656E64206F66207468EC
:10048400652066696C65204F4B0D0A0041707065EC
:100494006E6420746578743220746F2074686520EB
:1004A40066696C650D0A0025752062797465732090
:1004B400617070656E646564206F662025750D0A31
:1004C40000526561642D4F6E6C7920617474726999
:1004D4006275746520736574204F4B0D0A004E6578
:1004E400772074696D65207374616D7020253032D6
:1004F400752F253032752F257520253032753A2514
:100504003032753A2530327520736574204F4B0DA7
:100514000A00526561642D4F6E6C792061747472A7
:10052400696275746520636C6561726564204F4B04
:100534000D0A00000100EBFE904D53444F53352E3D
:1005440030004E4F204E414D45202020204641543E
:100554003332202020004E4F204E414D4520202094
:10056400204641542020202020000B006C284C02FF
:1005740016007828580218008F286E020100A82956
:1005840038050000F894EE27E8BFE9BFEABFF09110
:10059400CC01F860F093CC01F8EDF4BFE093A20035
:1005A400E0934004A0918000AD7FA160F4BFA093CC
:1005B400800080E090E2A0E0B0E2ED930197E9F7DB
:1005C400EEE6F5E085919591009761F0A591B591DE
:1005D40005901590BF01F00105900D920197E1F788
:1005E400FB01F0CF8BBFE0E0E0B9E1B9E2B9E3B9D8
:1005F400E4B9E5B9E6B9E7B9E8B9E9B9EAB9EBB9F3
:10060400ECB9EDB9EEB9EFB93E2E4E2E5E2EEFEFFA
:10061400EDBFEFE3EEBFC0E0D4E20C94AC041A9358
:10062400E0915000E460E0935000E0915100E470E8
:10063400E1F3E0915000E260E0935000E09141006A
:10064400E078E2601E2FE8EDE4BF10934100E091F2
:100654005600EC7FE0935600E0916000E160E09387
:100664006000E0915100E270E1F3E0914000E87F26
:10067400E1601E2FE8EDE4BF10934000E0915000CC
:10068400E67EE0935000E091B400EC7FE093B40088
:100694008AC0E0910008E07FE260E0930008E09106
:1006A4000108E870E0930108E0910308E071E09329
:1006B4000308E0910608E07FE160E0930608E0911A
:1006C4000708E070E0930708E0919008EE7FE0935C
:1006D4009008E0910C08E0930C08E0E0F0E0E0936F
:1006E4002008F0932108EFE3FCE9E0932608F09357
:1006F400270808950A921A92FA926A937A938A932F
:100704009A93AA93BA93EA93FA93EFB7EA9315D715
:10071400E991EFBFF991E991B991A99199918991E1
:1007240079916991F990199009901895E8E0E0930E
:100734004006E0934506E3E0E093A508E091A308B2
:10074400E07CE093A308E5ECE093A608ECEAE093F0
:10075400A708E091A408E07EE860E093A408089567
:100764001A931A2FE091A108E072E1F31093A00804
:100774001AC01A931A2F113010F0103108F012C059
:10078400E5E5F3E0FA93EA93E12FA4EFB1E0F0E0BA
:10079400EE0FFF1FEA0FFB1F0E94B4230E94DB1D14
:1007A4000E94E01DFFCF199108951A930A938D01B9
:1007B4001A930A93A6E5B8E20E94851A3E2EE03009
:1007C40009F07AC0E1E6F3E0FA93EA93EFE5F8E2A0
:1007D4000E94DB1DE0915E28E07111F0E4E401C0A9
:1007E400EDE20E94E51DE17011F0E2E501C0EDE2E9
:1007F4000E94E51DE27011F0E8E401C0EDE20E9400
:10080400E51DE47011F0E3E501C0EDE20E94E51D91
:10081400E07211F0E1E401C0EDE2FF2766277727DB
:100824000E94C723E0915A28F0915B28EF71F07081
:100834000E94DB1DA0915A28B0915B28E5E00E943C
:10084400D022EF70F0700E94DB1DA0915A28B09165
:100854005B28E9E00E94D022E454F84F0E94DB1D9B
:10086400A0915C28B0915D28EBE00E94D0220E9408
:10087400DB1DA0915C28B0915D28E5E00E94D022A8
:10088400EF73F0700E94DB1DE0915C28F0915D280D
:10089400EF70F070EE0F0E94DB1DE0915628F0918E
:1008A400572860915828709159280E94C72384E3DF
:1008B4000E94621DE69602C0A32D5BDF0991199187
:1008C40008950E94ED1D0E94F21DA1E00E94F71DF3
:1008D40029F40E94FC1D0E94E01D02C0A32D49DFE3
:1008E4000E94ED1DE8EAF8E2FA93EA93EFEFF0E0F4
:1008F400FA93EA93ADB7BEB711975F924F920E94F5
:1009040094154F905F903E2EE030B9F4E3EDF3E0A0
:100914000E94031E0E94E01DA8EAB8E2A40DB51DC2
:10092400E0E0EC93E3EEF3E0FA93EA93E8EAF8E22A
:100934000E94DB1D0E94E01D02C0A32D1ADF0E944D
:10094400071E29F40E940E1E0E94E01D02C0A32D62
:1009540010DF0895E091A200E873E1601E2FE8ED36
:10096400E4BF1093A200E0E0E093A10058DE91DE22
:10097400DDDEE0E0E0930024E0930124E093022430
:10098400E09303247894EFD5E03011F4A3E0F1DE92
:10099400E0E0EA93A4E0B4E20E944E143E2EE0307C
:1009A40029F4E9E0F4E00E94151E02C0A32DE1DE63
:1009B400ACE6B8E20E94AC1A0E94ED1D0E94F21D42
:1009C400AAE00E94F71D39F4E7E2F4E00E941C1E3D
:1009D4000E94E01D02C0A32DCCDEECE3F4E00E94F3
:1009E400151E0E94ED1DE8E7F8E2FA93EA93E6E1AA
:1009F400F0E0FA93EA93ADB7BEB711975F924F92C6
:100A04000E94EB164F905F903E2EE03059F4E6E5DD
:100A1400F4E00E94031EE6E1F0E060E070E00E9472
:100A2400211E02C0A32DA5DE0E94071E29F40E94E8
:100A34000E1E0E94E01D02C0A32D9BDE42DF0E9419
:100A4400ED1D0E94F21DA2E00E94F71D29F40E94F0
:100A5400FC1D0E94E01D02C0A32D8BDE0E94ED1D33
:100A6400A0914026B0914126809142269091432640
:100A74000E94FE183E2EE03039F4EFE6F4E00E94C6
:100A84001C1E0E94E01D02C0A32D73DEE0E9F4E009
:100A94000E94151E0E94ED1DEFE8F8E2FA93EA9316
:100AA400E8E1F0E0FA93EA93ADB7BEB711975F922D
:100AB4004F920E94EB164F905F903E2EE03059F417
:100AC400EBEAF4E00E94031EE8E1F0E060E070E08D
:100AD4000E94211E02C0A32D4CDE0E94071E29F491
:100AE4000E940E1E0E94E01D02C0A32D42DEE9DE1C
:100AF4000E94281EE1E00E942D1E39F4E5ECF4E08A
:100B04000E941C1E0E94E01D02C0A32D32DEE6E6F8
:100B1400F8E2E0935A28F0935B28E0E0F5E7E093ED
:100B24005C28F0935D280E94F21DA6E5B8E20E94BD
:100B3400961B3E2EE03059F5E2EEF4E0FA93EA9388
:100B4400E6E0F0E060E070E00E94C723E3E0F0E05C
:100B540060E070E00E94C723E0EDF7E060E070E041
:100B64000E94C723EEE0F0E060E070E00E94C7233B
:100B7400E8E2F0E060E070E00E94C7230E94341EC7
:100B84000E94C72388E10E94621D6A9602C0A32DB9
:100B9400F0DD0E94281EE0E00E942D1E39F4E6E1FB
:100BA400F5E00E941C1E0E94E01D02C0A32DE1DDA1
:100BB400ACE6B8E2FADDFFCFFFCF0E9498225A2FAD
:100BC40020E0052FAE81BF813D91AE83BF8318E045
:100BD400220FE22FE327E07811F0E9E02E27330F0C
:100BE4001150B1F7015071F7E22FEE0FE1600E944E
:100BF4009F2243C21A93E2E3E093AA29EFEFE09322
:100C0400C309E091C209E078E1F3EFEFE093C3098F
:100C1400E091C209E078E1F31091C3091F3F21F08C
:100C2400E091AA29E03009F401C0EFCFE12F99C483
:100C3400E0E1E0936506EFEFE093C309E091C209B8
:100C4400E078E1F308950E949822AD01E4E1E09395
:100C5400A929EFEFE093C309E091C209E078E1F339
:100C64001091C3091F3F21F4E091A929E03009F450
:100C740001C0EFCF1E3F21F0E0E00E949F22FDC1A2
:100C84002E813F81EFEFE093C309E091C209E07840
:100C9400E1F33F932F932F5F3F4FE091C309AF914F
:100CA400BF91EC93EFEFE093C309E091C209E078C0
:100CB400E1F33F932F932F5F3F4FE091C309AF912F
:100CC400BF91EC93EFEFE093C309E091C209E078A0
:100CD400E1F33F932F932F5F3F4FE091C309AF910F
:100CE400BF91EC93EFEFE093C309E091C209E07880
:100CF400E1F33F932F932F5F3F4FE091C309AF91EF
:100D0400BF91EC93FA013497AF0109F0BBCFEFEF39
:100D1400E093C309E091C209E078E1F3EFEFE093D7
:100D2400C309E091C209E078E1F3E1E00E949F2267
:100D3400A4C10E9498225A2F5DDFEF3F21F0E0E02A
:100D44000E949F229AC15093C309E091C209E0789E
:100D5400E1F35D3FC1F100E02E813F81D9012F5FB6
:100D64003F4FEC91E093C309E091C209E078E1F3CD
:100D7400D9012F5F3F4FEC91E093C309E091C20981
:100D8400E078E1F3015051F7EFEFE093C309E0910C
:100D9400C209E078E1F3EFEFE093C309E091C209FF
:100DA400E078E1F3EFEFE093C309E091C209E07862
:100DB400E1F31091C309E12FEF71E53021F0E0E098
:100DC4000E949F225AC1E1E00E949F2256C10E94C4
:100DD400CC230E949A22388537FF0CC03F77E7E77F
:100DE400EA93A0E0B0E080E090E0F1DF0E2F023063
:100DF40008F054C03C3449F01BDFE0E1E0936606A0
:100E0400F9DEEF3F11F0EFEF4AC03093C309E091F0
:100E1400C209E078E1F3EF81E093C309E091C209EC
:100E2400E078E1F3EE81E093C309E091C209E07850
:100E3400E1F3ED81E093C309E091C209E078E1F3C5
:100E4400EC81E093C309E091C209E078E1F311E099
:100E5400303411F415E903C0383409F417E8109359
:100E6400C309E091C209E078E1F33C3439F4EFEFCF
:100E7400E093C309E091C209E078E1F31FEFEFEFDB
:100E8400E093C309E091C209E078E1F30091C3095A
:100E940007FF02C0115009F401C0F1CFE02F0E94F6
:100EA400A122299608950E949A229D0114E0EFEF51
:100EB400E093C309E091C209E078E1F33F932F93F3
:100EC4002F5F3F4FE091C309AF91BF91EC93115055
:100ED40071F7AFC424970E949A222A2F203011F070
:100EE400E1E0C9C0EAE0E093A929E091A929E03052
:100EF400E1F7E091A829E27009F0BBC0E0E1E093DA
:100F04006106E0936506E0EAE0936606E0E4E093B8
:100F14006206E8E1E0937606E0EBE0936106E3E540
:100F2400E093C00935E01AE0EFEFE093C309E091E4
:100F3400C209E078E1F31150B9F7E0E4EA93A0E0E4
:100F4400B0E080E090E043DF0E2F3150013011F02B
:100F5400303009F401C0E7CF30E0013009F068C057
:100F6400E4E6E093A929E8E4EA93AAEAB1E080E0A0
:100F740090E02DDFE13091F5DE01149694DFAE812F
:100F8400A13019F4AF81AA3A09F027C0E091A92948
:100F9400E03049F0E9EEEA93A0E0B0E080E090E4CC
:100FA40016DFE03009F401C0F1CFE091A929E03067
:100FB40049F0EAE7EA93A0E0B0E080E090E007DFE0
:100FC400E03009F00AC0DE0114966DDFEC81E074B4
:100FD40011F0ECE001C0E4E03E2F2AC0E9EEEA9310
:100FE400A0E0B0E080E090E0F2DEE23018F432E01D
:100FF40009EE02C031E001E4E091A929E03041F0BA
:101004000A93A0E0B0E080E090E0E1DEE03009F493
:1010140001C0F2CFE091A929E03049F0E0E5EA937C
:10102400A0E0B2E080E090E0D2DEE03009F030E011
:101034003093AB29FDDD303049F0E091A829EE7FF3
:10104400E093A829E0EDE093C00913C0E0E1E09348
:101054006606D0DDEDDDE0E0E093C009E0EFE0936B
:101064006206E0E1E0936206E091A829E160E09382
:10107400A829E091A8290E94A122289608951A93EC
:101084001A2F103011F0E1E06CC2E091A82969C276
:101094000E949A221A2F288539850A85003011F476
:1010A400103011F4E4E0B8C0E091A829E17011F027
:1010B400E3E0B2C0E091AB29E87071F4EC81FD810A
:1010C4006E817F81A0E0B2E080E090E00E943A234C
:1010D400EC83FD836E837F83113091F4E1E5EA9321
:1010E400AD81BE818F81988572DEE03041F43A9300
:1010F4002A93A0E0B2E0A7DDE03009F010E01BC0C5
:10110400E2E5EA93AD81BE818F81988560DEE030AF
:1011140091F43A932A93A0E0B2E095DDE03021F017
:1011240020503E4F1150A9F7ECE4EA93A0E0B0E060
:1011340080E090E04CDE7CDD103011F0E1E001C095
:10114400E0E06AC00E949A221A2F288539850A8510
:10115400003011F4103011F4E4E05EC0E091A829ED
:10116400E17011F0E3E058C0E091A829E47011F0B7
:10117400E2E052C0E091AB29E87071F4EC81FD81AA
:101184006E817F81A0E0B2E080E090E00E943A238B
:10119400EC83FD836E837F83113089F4E8E5EA9361
:1011A400AD81BE818F81988512DEE03039F43A93A7
:1011B4002A93AEEFBEDDE03009F010E027C0E091E5
:1011C400AB29E67039F0E7EDEA93A12FBB27882716
:1011D4009927FDDDE9E5EA93AD81BE818F8198858C
:1011E400F6DDE03099F43A932A93ACEFA2DDE030D7
:1011F40021F020503E4F1150B1F7E0E0F0E0FA93B7
:10120400EA93ADEF96DDE03009F411E011DD103022
:1012140011F0E1E001C0E0E00E94A1222B960895C4
:1012240060970E949822AD01EF89E03011F0E4E06C
:1012340005C0E091A829E17029F0E3E00E949F2213
:101244006896089511E0EE89E03041F4E0E1E0931E
:101254006606D0DCEF3F09F410E06AC1E13009F022
:101264005AC0E9E4EA93A0E0B0E080E090E0AFDDAA
:10127400E03049F4FE013696FA93EA93A0E1B0E037
:10128400E2DCE03009F446C0EE81E295EF70E695C9
:10129400E695E13069F4E0E0FE85AF85B0E0EA0F61
:1012A400FB1F31969F01D90188279927EAE02CC0BA
:1012B400EB85EF70AE2FE889E078EE1FE0E0EE1FDB
:1012C400AE0FEF85E370EE0FEA0FEE5F0E2FEE85A3
:1012D400E295EF70E695E695AE2FED85F0E00E947D
:1012E4001323B0E0AE0FBF1FEC85E370F0E00E9463
:1012F4001323FE2FE0E0EA0FFB1F31969F01D90173
:1013040088279927E02FE9500E94E122DA010E9400
:10131400AA2310E00DC1E23039F4DA01E0E0F2E092
:10132400ED93FC9310E004C1E33009F0ADC0E0910B
:10133400AB29E47099F1EDECEA93A0E0B0E080E031
:1013440090E045DDE03049F5EFEFE093C309E0912B
:10135400C209E078E1F3FE013696FA93EA93A0E13C
:10136400B0E071DCE030C9F000E3003049F0EFEFA9
:10137400E093C309E091C209E078E1F30150F5CFAD
:10138400E889E295EF70A0E1B0E080E090E00E948F
:10139400E122DA010E94AA2310E075C0E9E4EA938D
:1013A400A0E0B0E080E090E012DDE03009F06BC036
:1013B400FE013696FA93EA93A0E1B0E044DCE03013
:1013C40009F461C0E091AB29E27051F1E889EF734F
:1013D400FF27662777270E9421237F936F93FF932C
:1013E400EF93E989E078FF2766277727DF01CB01B0
:1013F400E7E00E94F822AF91BF918F919F910E94E4
:10140400AA22EF5FFF4F6F4F7F4FDF01CB01EB89C4
:10141400E295EF70E695E695E1500E94E1222FC037
:10142400E889EC77E695E695FF2766277727EF5F4F
:10143400FF4F6F4F7F4F7F936F93FF93EF93E98934
:10144400E370FF2766277727DF01CB01E3E00E94E3
:10145400E122DF01CB01E989E07EE295EF70E695B8
:10146400FF27662777270E94AA22EF5FFF4F6F4F5F
:101474007F4FAF91BF918F919F910E943A23DA01E0
:101484000E94AA2310E054C0EA3031F4E091AB2961
:10149400DA01EC9310E04CC0EB3011F409E403C022
:1014A400EC30D9F40AE40A93A0E0B0E080E090E0E4
:1014B4008EDCE03089F45A934A93A0E1B0E0C3DBB8
:1014C400E03051F05A934A93AFE077DBAE2FFA0144
:1014D400E785EA1709F410E02BC0ED3069F4EAE778
:1014E400EA93A0E0B0E080E090E071DCE03019F431
:1014F400DA01D9DC10E01CC0EE30C9F4EDECEA935B
:10150400A0E0B0E080E090E062DCE03079F4EFEF5E
:10151400E093C309E091C209E078E1F35A934A9356
:10152400A0E4B0E090DBE03009F010E001C014E08A
:101534007FDBE12F0E949F2292C31A931091A92965
:10154400103019F011501093A9291091AA291030C4
:1015540019F011501093AA29E091A829EB7FE09388
:10156400A829199108956097E091A829E17021F0C4
:10157400A0E0B0DCE37081F4E0E0EA93ECE0EA930D
:10158400DE0112964DDEE03039F4E091A829EC7FBB
:10159400E093A829E1E0C6C1E091A829E360E093C3
:1015A400A829E0E0BFC12797A0910024B0910124AD
:1015B400109731F0A0910224B0910324109729F4DC
:1015C400E0E0F0E061E27AE36DC0FE013696FA9362
:1015D400EA93FE013796FA93EA93DE011896E091B6
:1015E4000024F09101240995FE013396FA93EA93BD
:1015F400FE013496FA93EA93DE011496E0910224F4
:10160400F09103240995E881F981EC5BF7406627A2
:101614007727DF01CB01E9E10E94E1227F936F93F9
:10162400FF93EF93EA810E94391EE5E10E94E122D3
:10163400AF91BF918F919F910E94C322DF01CB0193
:10164400EB81F0E00E9430230E942B230E94C322EE
:101654007F936F93FF93EF93EE810E94391EEBE02B
:101664000E94E122AF91BF918F919F910E94C3226A
:101674007F936F93FF93EF93ED810E94391EE5E012
:101684000E94E122AF91BF918F919F910E94C3224A
:10169400DF01CB01EC81F0E0F595E7950E94302362
:1016A4000E94C322279608950E949A220A2F2C8111
:1016B4003D81F901E4911E2FE03011F0011709F486
:1016C40003C02F5F3F4FF5CFE12FF0E00E94A1222E
:1016D400269608950E943F1ED9010E94461E0E942C
:1016E4004E1E0E94531E0E94E82309F442C0F901D1
:1016F400E481E03061F10E94581EE03011F0E1E035
:10170400EDC1D9011496E0E0EC93F9010E94671E43
:101714000D01D9015A960E949F23D0010E94AA224A
:101724000E94531E0E94ED2390F4F901138112309C
:1017340070F0D9015A960E949F230E94531E0E9462
:10174400AA220E946C1E0E94581E1150F0CF0E94C3
:10175400711E79F00E94751E0E947C1E0E94831ED9
:1017640011F0E1E0BBC10E944E1ED9019E960E9479
:10177400AA23E0E0B3C10E949A229D013A932A93DE
:101784000E94881E0E948D1E09F052C0D901AC919E
:10179400A33021F4F901E581E03009F43EC0D90118
:1017A4009E960E94921EF9010E94961EF901F296DD
:1017B400E250FE4FA5E5BAEAA083B183F901F2969F
:1017C400A2E5B2E581E691E40E949F1EEC51FE4F32
:1017D400A2E7B2E781E491E60E949F1EE851FE4F22
:1017E4000F01D9011E960E949F23D0010E94AA23B3
:1017F400F901F296E451FE4F0F010E94A41ED0019C
:101804000E94AA230E94751EF9010E94A91EA1E04C
:1018140099DCD9011596E0E0EC93F901A181AA9332
:10182400E0E0EA93A0E0B0E0FBDCE03009F011E096
:10183400E12F0E94A122249608950E94CC2324978C
:101844000E9498224E855F850E94B01E0E94B51E9C
:1018540048F0DA015E960E949F230E94B01E0E9407
:10186400ED2318F00E94BD1E5BC0DA010E94C21E67
:10187400DA01EC91F0E0E130A0E0FA0739F52A85CD
:101884003B85F901F695E7952E0F3F1F0E94CA1E6E
:1018940009F044C00E94DD1E0C9111272F5F3F4FB9
:1018A4000E94CA1ED9F50E94DD1EEC91FE2FE0E0D5
:1018B4000E2B1F2BEA85E17021F0F8010E941823FA
:1018C40002C0F801FF70662777272AC0E230A0E043
:1018D400FA0771F40E94E41E0E94EB1EE030F1F45A
:1018E400AA85BB85E2E00E94F91E0E94011F18C070
:1018F400E330A0E0FA0791F40E94E41E0E94061F60
:10190400E03061F4AA85BB85E4E00E94F91E0E94E0
:101914009F23EF7FFF7F6F7F7F7002C00E94141FA1
:101924000E949F22609608950E94CC2324970E94CF
:1019340098220E94191F0E94B51E50F0AA89BB89E3
:101944005E960E949F230E94191F0E94ED2310F0AF
:1019540052E07AC0AA89BB890E94C21EAA89BB89A7
:10196400EC91F0E0E130A0E0FA0709F040C00E8508
:101974001F85F801F695E7950E0F1F1F0E941E1F85
:1019840009F060C00E94341F51F0D901EC91EF704E
:10199400AE2FEA85F0E00E940F23EA2B01C0EA850E
:1019A400D901EC930F5F1F4F0E943F1F0E941E1F1F
:1019B40009F048C00E94341F49F00E94B01EE4E0C0
:1019C4000E94F822FF27662777270EC0D901EC91E1
:1019D400E07F4E2F0E94B01EE8E00E94F822FF270D
:1019E40066277727EF70E42BD901EC932BC0E23004
:1019F400A0E0FA0789F40E94451F0E94EB1E5E2FA7
:101A0400503001F5AE85BF85E2E00E944E1FAA85E5
:101A1400BB85A083B18316C0E330A0E0FA0789F444
:101A24000E94451F0E94061F5E2F503059F4AE8558
:101A3400BF85E4E00E944E1F0E94B01E0E94C22394
:101A440001C052E00E943F1FE52F0E949F2264962E
:101A540008950E943F1E0E94571F0E94B51E18F051
:101A64000E945C1F10F012E038C010E00E945C1F5E
:101A7400A0F53A932A930E94B01EDFDE0E94641FF1
:101A84000E94DE2351F10E94531E0E946A1F11F42A
:101A940012E023C00E94531E0E94721F11F411E031
:101AA4001CC03A932A930E947A1F0E94C7230E9463
:101AB400881E3ADF1E2F103081F4F9010E947F1F27
:101AC40039F0D9010E94841FD9011596E1E0EC9305
:101AD4000E948E1F0E94931FC9CFE12F0E94A12252
:101AE4002E9608950E94CC2360971A930A930E8928
:101AF4001F89D8015E960E949F23EA83FB836C832F
:101B04007D830E94981F0E94DE2389F4D8011A96CF
:101B14000E949D1F0E94E22329F00E94A81F0E9498
:101B2400AD1F20F00E94BD1E0E94B41F1CC01A935A
:101B34000A930E94B91F0E94BE1F0E94191F0E948F
:101B4400B51E18F40E94BD1E88C00E94A81F0E94E2
:101B5400191F0E94ED2318F40E94C51F7EC00E9425
:101B6400981F0E94B41F0E94CA1F0E94CF1F0E9488
:101B74007A1FEF5FFF4F6F4F7F4F0E94CF1F0E946E
:101B8400A81F0E94B01E0E94ED2360F0E2E0F0E086
:101B940060E070E00E94CF1F0E94D41F18F40E94DE
:101BA400341E5BC01A930A930E94D91F0E94BE1F61
:101BB4000E94C51F0E94DE23A1F00E94191F0E94EB
:101BC400721F29F00E94191F0E946A1F19F40E94B3
:101BD400C51F43C00E94D41F19F40E94341E3DC087
:101BE400C6CF1A930A930E94DE1F0E94C723AFEF49
:101BF400BFEF8FEF9FE098DEE03019F00E94141FD2
:101C04002CC00E94981F0E94DE2371F01A930A933D
:101C14000E94E31F0E94C7230E94E81F85DEE03074
:101C240019F00E94141F19C00E947A1FD8011A9635
:101C34000E94AA23F8010E947F1F69F0D8011E9612
:101C44000E94A5233197604070400E94AF23D801C1
:101C54001596E1E0EC930E947A1F19810881689639
:101C640008950E94ED1F0E94A81FE250F0406040BA
:101C74007040EA83FB836C837D83F801A68DB78D66
:101C840080A191A1E2E0F0E060E070E00E94F41F26
:101C94000E94F91F0E94ED2318F00E94341EE2C333
:101CA400F801E281F0E00E94F91F0E9430230E94B3
:101CB4003A237F936F93FF93EF93D8019A960E94F0
:101CC4009F23AF91BF918F919F910E94AA22CAC373
:101CD40024970E9498229D014A855B85F901DA01C7
:101CE4001496ED93FC93DA0116960E949D1F0E94B0
:101CF4006A1F19F00E94FE1F10F0E2E004C30E9464
:101D0400062031F4DA010E949B23A081A33009F05C
:101D140004C00E940A200E94B41F0E94062071F48D
:101D24000E9412203896DF010E949B232E173F0742
:101D340010F0E2E0E8C20E940A2024C00E941B20A6
:101D4400A0E1EA9F800120173107C0F00E94202003
:101D54000E94571F0E9426200E94721F11F4E1E086
:101D6400D2C20E942E200E94B51E18F00E94FE1FAF
:101D740010F0E2E0C8C2201B310BE5CF0E94122014
:101D84000E943320DF01CB01F9010E9418230E9435
:101D94003820DA011E960E94AA23DA010E949B23AE
:101DA400F296DF01F9010E943D20ADC224970E9402
:101DB40098222A2F4A855B85DA0114960E949B2378
:101DC40031968F01002E012A19F00E944A2011F445
:101DD400E4E099C2F801EF7009F0B0C0DA010E94A2
:101DE400841FDA011A960E94512069F4DA010E94D4
:101DF4009B233896DF010E949B230E171F0710F0C8
:101E0400E4E081C29BC0F8010E9418230F010E94E4
:101E14001B20F0E03197E021F121309709F08EC0CA
:101E24000E942020FA010E9456200E9426200E942F
:101E3400B51E10F4E2E067C20E942E200E94721FB9
:101E440011F4E1E060C20E94FE1F08F46FC020306C
:101E540011F4E4E058C20E942020FA010E945620A6
:101E640041DE0E94B41F0E94062011F4E7E04BC239
:101E74000E942E200E946A1F11F4E2E044C20E94D4
:101E84002E200E94721F11F4E1E03DC20E94202026
:101E94000E94881E1FDCE03011F0E1E034C2DA0158
:101EA4000E949B230E94961EDA010E949B23DF015D
:101EB400BE96FF93EF93FD010E943320AF91BF9133
:101EC4000E94AA2330E00E941B203E17D0F40E94F7
:101ED4005B200E9420200E94881EFCDBE03011F071
:101EE400E1E011C2DA010E949B23BE96DF010E9449
:101EF400A523EF5FFF4F6F4F7F4F0E94AF233F5FDC
:101F0400E2CFDA010E949B23BE96FF93EF93DF0199
:101F14000E949F23DF01CB01E32FF0E00E943023D6
:101F24000E94F41FAF91BF910E94AA230E94122025
:101F34000E943320DA011E960E94AA23F801DA01D6
:101F44001496ED93FC93DA010E949B23F296DF0131
:101F5400F8010E943D20D7C10E94622021F0E12FA8
:101F64000E949F2297C40E9420200E946D20A9F401
:101F74000E94732011F414E010C0F901E385E870A5
:101F840031F40E947B200E94871DE03009F001C0DB
:101F940004C00E948520103031F3E12F0E949F225B
:101FA40079C40E949822AD0114E00E944A20D9F01D
:101FB4000E9420200E946D20B1F40E94732011F42D
:101FC40014E011C0053E49F0E1E0E03011F40E32B6
:101FD40021F0F901E385E87009F001C004C00E9412
:101FE4008520103011F3103021F0DA011E960E9482
:101FF400921EE12F0E949F224DC40E946220A9F4E8
:102004000E9420200E946D2081F4FA01A289B389E4
:102014000C91053E11F0003009F407C05A934A931D
:10202400A1E0C4DE1E2F103059F3103001F50E94D8
:1020340020200E946D20D9F4DA0152962D913C9112
:102044003A932A93E0E0EA93A0E2B0E00E94B21D42
:102054000E947B200E94A01DDA0154960E949B23BB
:10206400E385E871D9011C96EC930E945B20E12F73
:102074000E949F220FC40E949A229D013A932A93A0
:10208400F901A481B58124DE1E2F1030A1F40E9431
:102094008C20A685B785808991890E948D1E59F46C
:1020A400F901A289B389E5EEEC93D9010E949B233F
:1020B4003496A1E0A083E12F0E94A12224960895E2
:1020C400BA93AA9325970E949822AD85BE8554960B
:1020D4004D915C915A934A93E0E2EA93ABE0B0E00D
:1020E4000E94B21DE0E0E887E9871E2F2E2FE8E06A
:1020F400EA87AB85BC850E9493200E949820AE0F8E
:10210400BF1FAC91AE3209F50E949D200E3221F41E
:10211400A885B98513970CF003C00E94A920F4CFB9
:102124000F3221F00C3511F0013208F402C0E6E060
:102134006DC00E9498200E94B02010F4E4E201C017
:10214400E0E2DA011B96EC9360C00E949D2001320C
:1021540020F00F3211F00C3509F432C00E3219F0B0
:10216400EA852E1768F0AA85A83011F40E3211F012
:10217400E6E04CC028E0EBE0EA87110F110F1FC026
:10218400003818F01360E6E041C0E4E1F2E0FA93AD
:10219400EA93A02F89DA309711F0E6E037C00134D2
:1021A40010F00B3508F002C0126007C0013610F0C1
:1021B4000B3708F002C0116000520E94A920C5CF5D
:1021C4000E9498200E94B02010F4E4E001C0E0E0F6
:1021D4000E2F203011F4E6E019C0DA01AC91A53ECF
:1021E40019F4DA01E5E0EC93AA85A83011F4110F93
:1021F400110FE12FE370E13009F40061E12FEC707D
:10220400E43009F40860FA010387E0E00E949F22A9
:102214002F960895BA93AA9322970E949822E8854C
:10222400F9853996EE83FF83AA85BB851E960E94A5
:10223400512009F464C0AA85BB8552964D915C91E6
:10224400FA01348510E01830B8F40E94B820A1F0E7
:10225400053009F405EEE0E0E03041F033FF06C05C
:10226400013410F00B3508F001C001C001C0005E5C
:102274000E94BF201F5FE7CFFA01A085A032F9F0CA
:10228400AE81BF811196AE83BF831197EEE2EC93CA
:1022940018E01B30A0F40E94B82089F0E0E0E030A0
:1022A40041F034FF06C0013410F00B3508F001C0D2
:1022B40001C001C0005E0E94BF201F5FEACFFA0187
:1022C400E385A885B9851896EC93DA015C960E949B
:1022D4009F23A885B9850E94AA23DA0158960E94F3
:1022E4009B23A885B9851496ED93FC93DA01569641
:1022F4000E949B23A885B9851696ED93FC93AE8125
:10230400BF81E0E0EC930E949F222C9608950E94E6
:102314009822AD01E1E0E03021F0DA01AC91A03285
:1023240009F003C04F5F5F4FF5CFDA01AC91AF32D4
:1023340021F0DA01AC91AC3541F44F5F5F4FAE81CF
:10234400BF8116960E94921E0AC0AE81BF810E9470
:102354009B237696DF010E949F230E94C720DA0107
:10236400AC91BB27909760F40E94CD20A0E0B0E030
:10237400AFDC1E2FAE81BF8152960E94D22042C094
:102384000E94CD20ADB7BEB711975F934F9398DEEF
:102394004F915F911E2F1030A9F5AE81BF81DCDD16
:1023A4001E2FAE81BF8154960E949B23E385E47067
:1023B4000E2F103039F0143011F4003009F001C040
:1023C40015E020C00030F1F4AE81BF8152962D910A
:1023D4003C91F901E385E07111F415E013C00E940A
:1023E400D7200E942B237F936F93FF93EF930E9438
:1023F400DA20AF91BF918F919F910E94DF200E94BC
:10240400C720BECFE12F0E949F222EC00E94ED1F45
:10241400F801A181AA93F296FA93EA93ED81FE81E1
:102424006F8178850E94C7230E94831E11F0E3E028
:1024340019C0F8010E94E42011F0E2E013C0D801B1
:10244400A859BF4F0E94EE2011F4E0E00BC0F80140
:10245400F296EE5AFF4FDF010E94EE2011F4E0E005
:1024640001C0E1E01981088128960895AA93649730
:102474000E949822AD8DBE8D0E949B23E887F98728
:10248400A885B985EC91E0530E2F0A3020F41196FB
:10249400AC91AA3309F00AC0E885F9853296E88739
:1024A400F987AD8DBE8DED93FC9302C00091B029E8
:1024B400013010F0EBE0CBC1E02F0E94FC200E9421
:1024C4009320AB8DBC8DED93FC93EE81FF8130970F
:1024D40011F4ECE0BCC1AE81BF81EC91E03089F035
:1024E400EE81FF81A1810E9441085E2F50FD09C049
:1024F400EA8DE03011F052FD01C002C0EAE0A7C14C
:10250400A5C1AE81BF81E0E0EC93E02FAE81BF8135
:102514001196EC93EE81FF81A1810E946C075E2FDE
:1025240050FF02C0E3E093C1EA8DE03011F052FDA8
:1025340001C002C0EAE08BC10E94CD200E94341E7B
:10254400E88FF98F6A8F7B8FDF01CB015FDF1E2F4E
:102554001130C9F4EE81FF81F296E254FE4F9F01DF
:10256400E481E03081F0D90118960E949F23EE8B1C
:10257400FF8B688F798F0E94CD20A88DB98D8A8DAD
:102584009B8D44DF1E2F133011F4E1E060C1103045
:1025940049F4AE81BF81DD960E949B23E030A2E026
:1025A400FA0711F0EDE053C1AE81BF81A85BBF4FC4
:1025B4000E94011F0E9404210E94981F0E94DE2392
:1025C40041F4AE81BF81AA5ABF4F0E949F230E944B
:1025D40004210E94981FAE81BF815A960E94AA23AB
:1025E400EE81FF81EE5BFF4FE081AE81BF811396E8
:1025F400EC93EE81FF81E381F0E00E9409210E94C7
:1026040030230E943A230E9404210E940E210E943A
:102614001521AE81BF8192960E94AA23EE81FF818B
:10262400E7ADAE81BF811296EC93AE81BF81AD5B05
:10263400BF4F0E949B23AE81BF811896ED93FC93FC
:10264400AE81BF81AB5BBF4F0E94011FEE87FF8746
:10265400688B798B0E94C51F0E94DE2351F4AE81E2
:10266400BF81AE5ABF4F0E949F23EE87FF87688BBE
:10267400798B0E940E210E94191F662777270E94DA
:10268400F41F0E9409210E94B4227F936F93FF9349
:10269400EF930E941A21AF91BF918F919F9166276A
:1026A40077270E94B922EE81FF81E281F0E00E9447
:1026B40030230E947323EE5FFF4F6F4F7F4F0E94C2
:1026C400CF1FAE81BF815E960E94AA2311E00E94B3
:1026D400B01EA73FEFE0BE07E0E08E07E0E09E07F4
:1026E40008F012E00E94B01EA73FEFEFBE07E0E043
:1026F4008E07E0E09E0708F013E0133039F4AE8152
:10270400BF81A25ABF4F0E949F2302C00E94222170
:10271400AE81BF8196960E94AA230E9422217F93B4
:102724006F93FF93EF930E941A21AF91BF918F9102
:102734009F910E943820AE81BF819A960E94AA235D
:10274400AE81BF811E960E94141F0E94AA23AE81EF
:10275400BF811496E0E0EC93133009F05EC0AE81C3
:10276400BF811596EC93AE81BF81AE59BF4F0E94D5
:102774009B230E941521AE81BF8152960E94AA23F9
:10278400EE81FF81A181AA93EF81F885F296FA93F5
:10279400EA93E985FA850E94A91E0E94831E11F519
:1027A400EE81FF810E94E420E9F4AE81BF81D296DC
:1027B4000E949F23E235A2E5FA07A1E66A07A1E495
:1027C4007A0781F4EE81FF81F296EC51FE4FDF012E
:1027D4000E949F23E237A2E7FA07A1E46A07A1E671
:1027E4007A0709F01AC0EE81FF81F296E451FE4F98
:1027F400DF010E949F23AE81BF811A960E94AA2303
:10280400EE81FF81F296E851FE4FDF010E949F2383
:10281400AE81BF811E960E94AA23AE81BF811C9304
:102824009E960E94921EAE81BF8156960E94921E71
:10283400E091AE29F091AF293196E093AE29F0935F
:10284400AF29AE81BF811696ED93FC93E0E00E9420
:102854009F226F9608950E949A228D012C813D81BA
:10286400022E032A51F0D901EC91E03031F0F90144
:10287400A681B7810A171B0711F0E9E009C0F90125
:10288400A1810E944108E17011F0E3E001C0E0E0A1
:102894000E94A122269608950E9498229D015E819D
:1028A400513010F0EBE01CC0E52F0E94FC200D918C
:1028B4001C91002E012A19F0D801E0E0EC93022EBD
:1028C400032A19F0D901E0E0EC93E52FACEAB9E270
:1028D400F0E0EE0FFF1FEA0FFB1F20833183E0E0DF
:1028E4000E949F2227960895A2970E9498220A2F59
:1028F40048A559A5AAA5BBA50E94D2200F71EDB782
:10290400FEB73197FA93EA935F934F930E9429217C
:10291400E02FEE71AE2FAADD4F915F911E2F103084
:1029240009F0FCC00E942E21E02FEC7109F48CC048
:102934002897103079F0143021F4DE015A965DDBCB
:102944001E2F103019F0E12F2896E8C008602CA53E
:102954003DA564C002FF03C0E8E02896DFC02CA5B3
:102964003DA5022E032A21F0F901E385E17119F056
:10297400E7E02896D3C003FF51C00E94D7200E94ED
:102984002B237F936F93FF93EF930E94DA20AF91F1
:10299400BF918F919F910E94DF200E94BD23F90176
:1029A4007496A0E0B0E0A083B183F9017A96A08385
:1029B400B183F9017C960E94881E0E94C223AA8DCD
:1029C400BB8D1496E1E0EC93AA8DBB8D0E94461E4C
:1029D4000E94B8230E94DE23A9F0EA8DFB8DFA93AE
:1029E400EA930E94F91F35D81E2F103011F0289653
:1029F40095C00E94B8230E943B21AA8DBB8D1A96D4
:102A04000E94AA23EA8DFB8DFA93EA930E942E205A
:102A14000E948D1E19F0E12F289680C003FF12C07A
:102A2400F9013B96A0E0A0830E94D50A0E94641F8E
:102A3400D9011E960E94AA23AA8DBB8D1496E1E0AB
:102A4400EC930062289616C0103011F0E12F66C096
:102A54000E94402121F0F901E385E07111F0E4E0E6
:102A64005DC001FF04C0F901E385E17009F402C00F
:102A7400E7E054C0AA89BB899E960E949F23AAA519
:102A8400BBA55A960E94AA23ECA1FDA1AAA5BBA5A9
:102A94005E96ED93FC93E02FAAA5BBA51496EC9348
:102AA4000E94D7200E942B237F936F93FF93EF9371
:102AB4000E94DA20AF91BF918F919F910E94DF20F5
:102AC400AAA5BBA51E960E94AA23D9015C960E94C2
:102AD4009F23AAA5BBA51A960E94AA23AAA5BBA5B3
:102AE40016960E94921EAAA5BBA51596EFEFEC932D
:102AF400AAA5BBA556960E94921EEA89FB89AAA59F
:102B0400BBA5ED93FC93AA89BB8916960E949B23CF
:102B1400AAA5BBA51296ED93FC93E0E00E949F2228
:102B2400AC960895BA93AA932E970E949822E88DA2
:102B3400F98DEE83FF83AC89BD890E94D2200E9467
:102B440045210E944A210E944F2111F0E12F3DC1ED
:102B5400EA8DFB8DA481A07811F0E2E036C1EA8D04
:102B6400FB8DA481A17011F4E7E02FC1EA8DFB8DE8
:102B74000E9456209F938F93BF93AF930E94562138
:102B8400EF91FF916F917F910E94B4220E94931F55
:102B94000E944E1EAE89BF89882799270E94E82388
:102BA40020F4E885F985EE8BFF8BEE89FF89309759
:102BB40009F40AC10E9456210E945D2109F0D0C087
:102BC400EA8DFB8D05800E944521E2810E1688F175
:102BD4000E9456210E94E22331F4AA8DBB8D1E96D9
:102BE4000E949F2308C00E9445210E944A210E94FE
:102BF40062210E941F0C0E9467210E94E81F0E940C
:102C0400B51E20F40E946C21E2E0DFC00E94732113
:102C140021F40E946C21E1E0D8C00E947521AA8DA4
:102C2400BB8D52960E94AA23AA8DBB8D1596E0E017
:102C3400EC930E9445210E944A210E9462210E9435
:102C4400330E0E947A210E947F2121F40E946C217C
:102C5400E2E0BBC00E9483210E94D91F0E94882108
:102C64000E947A21AE89BF890E948D2109F445C052
:102C74000E948321E40FF51F0F010E944521E28188
:102C8400D001F0E0EA17FB0750F40E944521E281ED
:102C9400F0E0DF010E948321AE1BBF0BAD010E9457
:102CA40045210E9495210E949C21A42F0E944A083C
:102CB400E03021F00E946C21E1E087C0EA8DFB8DB9
:102CC400A481A07429F00E94A3210E94AA2108F0E3
:102CD4000FC00E94A3210E94B221AE81BF81882728
:102CE4009927EA0FFB1F0E944A21B0960E94BB213C
:102CF400AA8DBB8D0E94C12153C0EA8DFB8DA48196
:102D0400A07489F00E9445210E94CC21ED8DFE8D96
:102D14000E94D42121F00E946C21E1E056C0AA8DCA
:102D2400BB8D0E94DF210E94A3210E94E82369F049
:102D34000E9445210E94CC210E949C210E94831E56
:102D440021F00E946C21E1E040C00E94DE1FAA8DA8
:102D5400BB8D56960E94AA23AA8DBB8D0E94E421A6
:102D6400AA8DBB8D0E94E921A0E0B2E0AE1BBF0B8F
:102D74009D01EE89FF89E217F30710F42E893F893C
:102D84000E94CD20AC8DBD8D0E94E921AC8DBD8DFE
:102D94009096EA0FFB1FFA93EA93D9010E94A01DB3
:102DA4000E94EE21EA8DFB8D0E94F621D0010E9443
:102DB400AA23AC89BD890E94FF21EE89FF89E21B09
:102DC400F30BEE8BFF8BF1CEE0E00E949F226C961A
:102DD4000895BA93AA932A970E949822EC89FD89B0
:102DE400EE83FF83A889B9890E94D2200E9406221B
:102DF4000E940B220E944F2111F0E12F79C1EE892C
:102E0400FF89A481A07811F0E2E072C1EE89FF8904
:102E1400A481A27011F4E7E06BC1EE89FF890E94DE
:102E24005620EA89FB890E9438207F936F93FF9391
:102E3400EF930E941022AF91BF918F919F910E94B6
:102E4400ED2318F4E0E0EA8BEB8BEA89FB893097F9
:102E540009F434C10E9416220E945D2109F0F2C0D7
:102E6400EE89FF8905800E940622E2810E1608F48D
:102E740048C0AE89BF8916960E945120B1F4AE892C
:102E8400BF891E960E949F230E947A210E947F215F
:102E940059F40E9406220E941D220E947A21AE89C2
:102EA400BF891E960E94AA230AC00E9406220E947D
:102EB4000B220E9462210E94740D0E947A210E94BA
:102EC4007F2109F4FBC00E94D91F0E946A1F21F4CC
:102ED4000E942222E2E00CC10E94D91F0E94721FAC
:102EE40021F40E942222E1E003C10E94DE1FAE8988
:102EF400BF8952960E94AA23AE89BF891596E0E045
:102F0400EC93EE89FF89A481A07489F00E940622C3
:102F14000E942922E98DFA8D0E94D42121F00E9479
:102F24002222E1E0E5C0AE89BF890E94DF210E9430
:102F340006220E940B220E9462210E94312221F467
:102F44000E942222E2E0D4C00E9435220E94571F30
:102F54000E9488210E94931FAA89BB890E948D2107
:102F640009F449C00E943522E40FF51F0F010E94A5
:102F74000622E281D001F0E0EA17FB0750F40E9438
:102F84000622E281F0E0DF010E943522AE1BBF0B76
:102F9400AD010E9406220E9495210E947C1EA42F4E
:102FA4000E94A408E03021F00E942222E1E0A0C0A7
:102FB4000E943A220E94AA21C8F4EE89FF89B096A1
:102FC4000E940B22A689B789808D918D0E947A1F59
:102FD4000E94B221A885B98588279927EA0FFB1F8B
:102FE4000E94BB21AE89BF890E94DF21AE89BF89BF
:102FF4000E94C1214FC00E943A220E94E823B9F0E6
:103004000E9416220D010E941022D0010E94ED237D
:1030140048F40E9406220E9429220E947C1E0E94DB
:10302400831E09F404C00E942222E1E061C00E94D0
:103034004E1EAE89BF8956960E94AA23AE89BF89C7
:103044000E94E421AE89BF890E94E921A0E0B2E098
:10305400AE1BBF0B9D01EA89FB89E217F30710F44D
:103064002A893B89AE89BF890E94E921AE89BF893B
:103074009096EA0FFB1FFA93EA93E885F985FA9391
:10308400EA93D9010E94A01DAE89BF891496EC91E0
:10309400E064EC930E94EE21EE89FF890E94F62100
:1030A400D0010E94AA23A889B9890E94FF21EA8934
:1030B400FB89E21BF30BEA8BFB8BC7CE0E94162223
:1030C4000D010E941022D0010E94E82350F4AE8921
:1030D400BF8916960E949F23AE89BF891A960E94C3
:1030E400AA23AE89BF891496EC91E062EC93E0E0E8
:1030F4000E949F226896089524970E949822AD0109
:103104000E942020FA010E944F2109F061C0FA01B7
:10311400A481A07209F45CC0A481A07481F0DA01D6
:103124000E944122FA01B096FA93EA93FA010E94AE
:10313400D42111F0E1E04DC0DA010E94DF210E94A8
:103144002020FA01A28DB38D848D958D0E948D1E51
:1031540009F03EC0DA015E962D913C91D9011B968F
:10316400EC91E062EC93DA011A960E949F23D90154
:103174005C960E94AA23DA011E960E949B23D90121
:103184005A96ED93FC93FA01A685B78580899189B7
:10319400FD01BC010E942623D9015496ED93FC93B2
:1031A4000E94D50A0E94B41F0E94CA1FD9015696D4
:1031B4000E94AA23DA011496EC91EF7DEC930E940D
:1031C4005B20DA010E949B23DF010E94BD0B1E2FAE
:1031D400E12F0E949F222A9608950E949A229D011F
:1031E4008BDF1E2F103019F4D9010E94D220E12F59
:1031F4000E94A122249608950E94CC2360970E94E5
:103204009A22288D398D0E948C200E944F2109F02A
:1032140075C1F901A481A07811F0E2E070C10E94A7
:10322400A41E0E94B91F0E94E82320F4F901A4817E
:10323400A27009F004C00E94A41E0E9446220E94AB
:103244004B220E946C1E0E94341E0E94931FD901BF
:1032540016960E94AA23D9011596EFEFEC930E94CB
:10326400B91F0E94E22308F0F4C0D9010E949B23F5
:10327400E281F0E00E943023A0E0B2E080E090E040
:103284000E943A230E947A210E94531E0E94E22344
:1032940098F40E94E31F0E9450227F936F93FF9340
:1032A400EF930E948E1F0E945022AF91BF918F9185
:1032B4009F910E94ED2308F423C00E948E1F0E9458
:1032C4003B21DF01CB010E94DE1F0E943B210E94B3
:1032D40035230E94BE22D90116960E94AA230E9479
:1032E4004B220E94B91F0E94B922AC8BBD8B8E8BDE
:1032F4009F8BD90152960E949F230E94672126C06A
:10330400D9011E960E949F230E945722E9F4D901F5
:103314000E949B230E941D220E9467210E94E81F95
:103324000E946A1F21F40E945C22E2E0E8C00E942D
:10333400732121F40E945C22E1E0E1C00E94752126
:10334400D9011E960E94AA230E9462220E9475211E
:103354000E94DE2309F47DC00E94DE1F0E94B91F73
:103364000E94E82308F047C0F901A481A27069F023
:103374000E9468220E94740D0E94572229F40E9420
:10338400DE1F0E94462237C006C00E9468220E94A7
:103394001F0C0E9467210E94732121F40E945C2269
:1033A400E1E0ADC00E94E81F0E94B51E60F0D901A3
:1033B4000E949B237E96DF010E949F230E94E81FA8
:1033C4000E94ED2320F00E945C22E2E098C00E945B
:1033D40062220E946E220E94D91F0E94AA22D0015A
:1033E4000E94AA230E94D91F0E94E31F0E94B422B4
:1033F4000E944622B1CF0E946E220E94B91F0E94F1
:10340400AA22D0010E94AA230E94B91FE0E0F2E0A0
:1034140060E070E00E947323D9011596EC930E943A
:10342400E31FF1703097A9F00E9468220E943122B4
:1034340021F40E945C22E2E062C0F901E581F0E03F
:103444000E94571F0E9488210E94931FD9010E9445
:10345400E421F901A681B781808591850E945D21CF
:1034640049F0D90156960E949F230E94571F0E943B
:10347400E82309F42CC0F901A481A07491F0D901C6
:103484000E944122F901B096FA93EA93F9010E944D
:10349400D42121F00E945C22E1E031C0D9010E94D4
:1034A400DF21D9010E944122F901B096FA93EA93EF
:1034B4000E947C1E0E94831E21F00E945C22E1E097
:1034C4001EC00E944E1ED90156960E94AA23F901DD
:1034D400A681B781808591850D010E94A41ED0012B
:1034E4000E94E82358F40E944B22D9011A960E94A4
:1034F400AA23D9011496EC91E062EC93E12F0E9487
:10350400A1226A960895A2970E9498229D0148A537
:1035140059A5EDB7FEB73197FA93EA935F934F93AA
:103524000E942921A0E00E9438124F915F911E2F22
:10353400103079F40E942E21103059F4ECA1FDA131
:10354400309731F00E947522D9010E940C1101C0FC
:1035540016E028C1EC970E949822AD01EDB7FEB7A2
:103564003197FA93EA935F934F93FE01BE96FA93D1
:10357400EA93A1E00E9438124F915F911E2F103000
:1035840009F08BC0FE01BC967496DF01FE013A96E9
:10359400ED93FC93FE01BC96FA93EA93DA010E9440
:1035A4007A2259F0103049F4FE01BC967496DF017A
:1035B4000E949B23E385E07209F401C016E01030F9
:1035C40009F06BC02EAD3FAD022E032A11F4E6E0E4
:1035D40065C0F901E385E17011F0E7E05FC00E9486
:1035E400D7200E942B237F936F93FF93EF930E9426
:1035F400DA20AF91BF918F919F910E94DF200E94AA
:10360400B41FF901E385E07171F10E942E200E943C
:10361400B51E10F4E2E042C0FE017696FA93EA93F6
:10362400FE01BE96FA93EA93A6E1B0E00E94A01DC3
:103634000E94CA1FEC8FFD8F6E8F7F8FFE017696DE
:10364400FA93EA93A2E0B0E00E946A0E1E2F1030B3
:1036540021F5DE0156960E94D30F1E2F103009F477
:1036640017E01430D1F4DE019C960E943D101E2F09
:10367400103099F40E94062049F0ECA5FDA5FA93B8
:10368400EA930E94571F0E942B0D1E2F103029F41D
:10369400ACA5BDA50E94BD0B1E2FE12F0E949F2249
:1036A400EF9623960895A2970E9498220A2F58A570
:1036B400FE01B996FA93EA930E942921A1E00E949F
:1036C40038121E2F103059F50E948022ABA5BCA5DC
:1036D4000E947A2239F0103029F4EEA1FFA1E3858B
:1036E400E07209F401C016E01030C9F40E944021D0
:1036F40011F416E014C00772E02FE5230E2EF90131
:10370400A385E02FE095EA23E029D9011B96EC93E9
:103714000E943F1FAA89BB890E94BD0B1E2FE12F67
:103724000E949F22AB960895A2970E949822AD0111
:10373400FE01B896FA93EA930E942921A1E00E941F
:1037440038121E2F103071F50E948022AAA5BBA545
:103754000E947A2239F0103029F4EEA1FFA1E3850A
:10376400E07209F401C016E01030E1F40E94402137
:1037740011F416E017C0DA0116960E949B23D901B2
:103784005696ED93FC93DA0114960E949B23D9017B
:103794005896ED93FC930E943F1FAA89BB890E940F
:1037A400BD0B1E2FE12F0E949F22AA9608950E940E
:1037B4009A228D013C81A32F0E94B203D8010E945A
:1037C4009B233196ED93FC930E94A1220C94C01D7F
:1037D400BA93AA932B970E94982210E0A989BA89D8
:1037E4000E94D220EF89F88D3196EF8BF88F3197B4
:1037F400E4912E2FE03009F45BC1E12FE03039F47D
:10380400253211F411E002C00E94852250C1E1303A
:10381400A9F4253219F40E94852248C112E040E03F
:1038240000E02D3211F401E042C12B3211F44BE2DD
:103834003EC1203211F440E23AC102C0E23039F410
:1038440050E013E0203311F4006831C102C0E330CA
:1038540091F4203310F02A3308F007C0AAE05A9FED
:10386400502DE22FE0535E0F22C12C3619F4026072
:1038740015E01DC103C0E53009F019C1E22FE3369C
:1038840049F40E948C22ED89FE89A481AA930E94A6
:1038940092220CC1E33769F40E948C22AD89BE895F
:1038A40014960E949320AE81BF810E94C21D1E2FD8
:1038B4000FC0E03791F40E948C22AD89BE89149622
:1038C4000E949320AE81BF810E94CE1D1E2F0860EE
:1038D4000F77E0E0E88B30E068C0E43611F0E936B9
:1038E40011F4046002C0E537A1F4EAE0E88B01FFBB
:1038F40008C0E0E0FAEC6AE97BE30E94931F1AE057
:1039040022C0E0E1F7E260E070E00E94931F15E05E
:103914001AC0E83511F4086003C0E83709F0C6C0DE
:10392400E0E1E88B01FF08C0E0E0F0E060E070E176
:103934000E94931F18E007C0E0E0F0E160E070E04F
:103944000E94931F14E001FF08C00E948C22AD89DD
:10395400BE8914960E949F2313C002FF0AC00E94CE
:103964008C22AD89BE8914960E949B230E94302329
:1039740007C00E948C22AD89BE8914960E94011F43
:10398400EC87FD876E877F8702FF0FC0AF85AA2370
:103994003AF40E94DE1F0E94C8220E947A214DE25E
:1039A400403011F01F5F01C00B7F00FD11C01517DF
:1039B40078F407FF08C002FF04C00B7F242F1150C6
:1039C40001C020E301C020E20E9485225150EFCFC4
:1039D400312FE889E030B9F43030A1F003FF06C09C
:1039E400EE81FF812591EE83FF8305C0AE81BF8107
:1039F4002D91AE83BF830E948522503009F051502F
:103A04003150EACF49C00E944E1E0E94D91F0E9425
:103A140073232E2F2A3030F003FF02C0295C01C02B
:103A2400295A01C0205D04FD1BC0213328F40E94E3
:103A3400571F0E946A1F09F409C0531710F000FFB2
:103A440001C013C020E207FF0BC020E3006102FFA6
:103A540007C00B7F4A930E949222503009F05150C4
:103A64000E948522503009F0515031500E944E1E60
:103A74000E94D91F0E9497230E947A21E8890E94FC
:103A8400571FFF27662777270E9473230E94931FDF
:103A94000E94711E09F0B7CF00FF08C0503031F00A
:103AA4005150E0E2EA930E949222F8CF10E09ACEBD
:103AB400A989BA890E949B230E949F22699608952E
:103AC400FF92F82E26971A930A93DE0114960E9409
:103AD400A6228D01E0E0EC83ED83EE83EF83DE012B
:103AE40018960E94A6220E949B23FA93EA931A93A3
:103AF4000A93E9EDFBE1FA93EA93DE01189668DE96
:103B0400198108812896FF900895BA93AA9366278D
:103B1400772789919991E991F991A991B9910096A1
:103B240029F001976D9171916717C9F3671B10F420
:103B3400EFEF0895E0E009F0E3950895BA93AA93AE
:103B440099818881009641F0BD81AC81FB81EA8135
:103B540061916D930197E1F7FD81EC8126960895BB
:103B6400BA93AA93B981A881109631F0FC81EB81B4
:103B74006A8161931197E9F7EB81FC812596089599
:103B8400BA93AA93A991B991EE27FF276D91662361
:103B940011F03196FBCF0895BA93AA93AA27BB27B5
:103BA400E991F9910590002011F01196FBCFFD01E8
:103BB4000895662777270E94C723089584E00E940A
:103BC400621D26960895FF27662777270E94C7233C
:103BD400E0915E280895E6E3F6E2FA93EA93089505
:103BE400ECE6F8E2FA93EA9308950E9476143E2EE6
:103BF400E0300895EFEBF3E0FA93EA93ECE6F8E2B1
:103C0400D8CFFA93EA93F201D4CFA6E3B6E20E94A6
:103C1400EF183E2EE0300895E5EFF3E0FA93EA93CF
:103C2400ECE6F8E2C6CFFA93EA9380E00E94621DC4
:103C340022960895FA93EA93ECE6F8E2BACF0E944A
:103C4400C72388E00E94621D2A960895ACE6B8E274
:103C54000E94D703C5CFEA93A1E00E94551B3E2ED4
:103C6400E0300895E0E0F0E060E070E00895F0E016
:103C74000E943023DF01CB0108950E94CC232497B6
:103C840057D42C853D8508959E960E949F23EC83EE
:103C9400FD836E837F830895E885F9856A857B8536
:103CA4000895AC81BD818E819F810895F901A18120
:103CB400AA93F296FA93EA93EF81F88569857A8557
:103CC4000E94C723A1E00C94A408A2A1B3A184A1DB
:103CD40095A10895EC83FD836E837F830895DCDFD3
:103CE4000E94DE230895F901A181AA93F296FA9322
:103CF400EA930895EB85FC856D857E850E94C72334
:103D04000895A1E00E944A08E0300895A0E0B0E0E0
:103D140080E090E008950E946C0B1E2F10300895EF
:103D2400A1DF0E94AA230895F296FA93EA93E0E0B1
:103D3400EA93A0E0B2E00C94B21D0E94C223F90100
:103D4400F2960895D9011A960E949F230895A28994
:103D5400B389848995890E94CC230895AA85BB855B
:103D64008C859D850895A230E0E0BE07E0E08E07D3
:103D7400E0E09E070895E1E0F0E060E070E008957F
:103D840092960E949F23EE83FF8368877987089524
:103D94005A934A93D901E0E0F2E00E946023A88597
:103DA400B9858A859B85662777270E94AF220E9462
:103DB4006C0BE0300895DA01D296F901F170AE0F80
:103DC400BF1F08955A934A93AC85BD858E859F8500
:103DD4000895E0E0F1E060E070E00E947323A885BC
:103DE400B9858A859B850E94AF220C946C0B0E9436
:103DF4005A23F170DA01D296AE0FBF1F08950E94C4
:103E04009B23662777270895E0E8F0E060E070E000
:103E14000E947323A885B9858A859B850E94AF2259
:103E24000C946C0BEFEFFFEF6FEF7FEF0895AE850F
:103E3400BF85888999890895EA89FB89FA93EA9369
:103E4400D801E0E0F2E00E946023A885B9858A8564
:103E54009B85662777270E94AF220E946C0B5E2FFA
:103E640050300895AA89BB89D296F801F170EA0FFF
:103E7400FB1F9F01EE85E1700895AA89BB89149602
:103E8400E1E0EC930895EA89FB89FA93EA93A8891F
:103E9400B9898A899B8908950E945A23F170AA8955
:103EA400BB89D296EA0FFB1F0895A885B9858A8538
:103EB4009B850895D9015E960E949F23F6DF0E9498
:103EC400ED23089507DFEC81FD816E817F810895E4
:103ED400A130E0E0BE07E0E08E07E0E09E07089531
:103EE400AF3FEFEFBE07EFEF8E07EFEF9E070895AA
:103EF400EA85FB856C857D850895A685B7858089CF
:103F04009189EECF1E960E94A523EF5FFF4F6F4F5E
:103F14007F4F0E94AF230895EC81FD816E817F81E4
:103F24000895E887F9876A877B870895EA89FB897A
:103F34006C897D8908950E949F23EE83FF8368879F
:103F44007987AE81BF81888599850895EA81FB814F
:103F54006C817D810895AE81BF81888599850E9499
:103F6400ED230895EE83FF83688779870895AC89EC
:103F7400BD898E899F8908950E941F0CEE87FF8753
:103F8400688B798B0895EE85FF8568897989089512
:103F9400EE81FF81688579850895EA87FB876C87C0
:103FA4007D870895F5DFDADE0E94E8230895AC8565
:103FB400BD858E859F850895EC85FD856E857F85FD
:103FC4000895EC89FD896E897F890895A889B98946
:103FD4008A899B8908950E94CC231A930A930E819F
:103FE4001F8108950E94D1230E94B4220895AA81BA
:103FF400BB818C819D810895DA010E949B237E966A
:10400400DF010E949F23A7CFC3DF0E94DE23089510
:10401400DA010E949B23B696DF010E949F23089534
:10402400B7DFDA011A960E94AA23DA010E949B23C1
:104034000895DA010E949B23E2810895DA010E9427
:104044009B23FA93EA9308950E941F0C8BDFAE81A1
:10405400BF81888599850895AE81BF8188859985BA
:104064000895FA93EA9321DF0C94330E6627772799
:104074000E94AA220895EF70F070EE0F0E940F23A1
:10408400EA0FFB1FDA015296ED93FC93E0E00895EA
:10409400DA011E960E949F230E94DE2308950E9447
:1040A4009F230E94DE230895A285B3858485958588
:1040B4000895DA010E949B233496A1E0A083089519
:1040C40035D2AD015A934A93A0E0B0E00E946A0E43
:1040D4001E2F10300895FA01A685B785808991892D
:1040E4001ACEDA0152962D913C91D9010C910030EF
:1040F40008953A932A93FA01A489B589BA93AA93A5
:10410400ABE0B0E008955A934A93A0E00E94D80E21
:104114001E2F0895D9010E949B23FA93EA93F90173
:1041240008950E949B23EE83FF830895E885F98513
:10413400AE81BF810895E885F9853196E887F987CE
:104144003197AE81BF81AE0FBF1F0C910895E22F4E
:104154002F5FF0E0E40FF51F00830895EA0FFB1FC3
:10416400AB85BC85ED93FC9301320895DA01EE270B
:10417400A10FBE1F0C9100320895EE81FF8131968C
:10418400EE83FF83319700830895AE81BF81169635
:104194000E94AA230895EE81FF81FA93EA93089579
:1041A400E0E0F0E0ED93FC930895D901549627CE16
:1041B400D9015A960E949B230895662777270E9467
:1041C400C3220895F296E250FE4FDF010E949B2322
:1041D400E535AAEAFA0708950E949F23EF7FFF7F3F
:1041E4006F7F7070E634A1E4FA07A4E56A07A0E0E3
:1041F4007A070895ACEAB9E2F0E0EE0FFF1FAE0FC4
:10420400BF1F0895EA8BFB8B6C8B7D8B0895AA8965
:10421400BB898C899D890895AE81BF81A05CBF4F05
:104224000E949B230895AE89BF89888D998D1ECFE6
:10423400EE81FF81A085B185FD010E9418230895B8
:10424400EE81FF8142DD72DE0E94AA220895FE0102
:104254007496FA93EA930895FE013696EEA3FFA3AB
:10426400FE017296FA93EA93DA010E9489111E2FD5
:104274000895E150F0406040704008952CA13DA1A4
:10428400022E032A0895AA8DBB8D0E949B230895B4
:10429400FA93EA93EC8DFD8D0895A281B3810E9477
:1042A4002D141E2F10300895EA8DFB8DA681B78141
:1042B400808591850895FD01BC01F17030970895C2
:1042C400A289B389848995890895E88BF98B6A8BCF
:1042D4007B8B0895AA8DBB8D1496EC91E068EC93CA
:1042E400089574DEFDCDE889F9896A897B8908958A
:1042F400EC87FD876E877F8708955EDE0E94DE234C
:104304000895EA8DFB8DE581F0E008950E94302345
:104314000E94AA220895E0E0F2E00E946023AF0127
:10432400042E052A0895E181EA93EF81F885FA9332
:10433400EA930895EF85F88969897A890E94C723E9
:104344000895EA8DFB8DA689B789808D918D34CE31
:104354000E94B922FA01662777270E94ED23089567
:104364000E94B922E0E0F2E060E070E00E943A23AB
:104374000895FA93EA93A0E0B2E00C94A01D159678
:10438400EC91E40FEC93FA01EE0FFF1FFE2FE0E037
:104394009F010895E181EA93EB8DFC8DB096FA9329
:1043A400EA930895A689B789808D918D0E94CC23C4
:1043B400A1E00E94A408E03008951496EC91EF7BEC
:1043C400EC9308951596EC91EF5FEC93089516968F
:1043D4000E949B23F1700895F901AE81BF81EA0F19
:1043E400FB1FEE83FF83089536960F01DF010E94C1
:1043F4009F23DF01CB01F90139CE0E949B23E20FF9
:10440400F31FED93FC930895AE89BF890E949B230B
:104414000895FA93EA93E88DF98D0895AE89BF89DA
:104424001A960E949F230895EE89FF89A681B78179
:10443400808591850895FA93EA9368DC0C94740D51
:10444400AE89BF891496EC91E068EC930895E181FC
:10445400EA93EF89F88DB096FA93EA9308950E944F
:10446400330E5FDD3CCCEE89FF89E581F0E00895F1
:10447400EE89FF89A689B789808D918D0DCC0E9424
:104484009B23E181EA930895EC8BFD8B6E8B7F8BEC
:104494000895D90116960E949F230895EADEDF014C
:1044A400CB018ADD0E94732308950FDF1CDF0E9475
:1044B400DE230895D9011496EC91E068EC930895F5
:1044C40012DFD90152960E94AA230895D9010E94AD
:1044D4009B23FA93EA939BCEF90136960F01DF01F1
:1044E4000E949F230895FE017296FA93EA93089519
:1044F4000E9489111E2FE1E0E0300895FE013696F6
:10450400EEA3FFA3F0CF2A93AA89BB89EC89FD8986
:1045140009950895ED89FE893497ED8BFE8B0895F6
:10452400AA89BB89EC89FD89099508955A934A9310
:104534003A932A931A930A9308955D814C813B819F
:104544002A811981088108950024AF0DB01D0895B2
:10455400EA0FFB1F681F791F0895AE0FBF1F861F48
:10456400971F0895EA1BFB0B680B790B0895AE1B8C
:10457400BF0B860B970B0895EA23FB23682379234B
:104584000895EA2BFB2B682B792B0895F095609501
:104594007095E195FF4F6F4F7F4F0895EE230E2ED8
:1045A400E8E01E2EFD0151F0011420F0EF2FF0E0A1
:1045B400011821F0F695E7950A94E1F70895EE23A2
:1045C4000E2EE8E01E2EFD01BC0179F0011438F036
:1045D400762F6F2FFE2FE0E00118C1F70895EE0F3C
:1045E400FF1F661F771F0A94D1F70895EE230E2E3E
:1045F400E8E01E2EFD01BC0179F0011438F0EF2F24
:10460400F62F672F70E00118C1F708957695679526
:10461400F795E7950A94D1F70895EE0FFF1FEE0F73
:10462400FF1FEE0FFF1FEE0FFF1F0895F695E7958E
:10463400F695E795F695E795F695E7950895EE0FC7
:10464400FF1F661F771F0895E62FF72F60E070E0C5
:1046540008956E2F7F2FE0E0F0E008956F2F660F2E
:10466400660B762F0895E095F09560957095089502
:104674007A9F702D6B9F700DF89F700DE99F700DE0
:104684006A9F602D710DFB9F600D711DE89F600D89
:10469400711D8827FA9FF02D610D781FEB9FF00D97
:1046A400611D781FEA9FE02DF10D681F781F0895A2
:1046B4006E2F6A9FF0016B9FF00D08950024112462
:1046C40090E1AA0FBB1F001C111C0E1A1F0A18F43C
:1046D4000E0E1F1E01C0A1609A9599F7FD01D0012D
:1046E40008953F934F935F9300241124A00130E277
:1046F400AA0FBB1F881F991F001C111C441F551FA4
:104704000E1A1F0A460B570B28F40E0E1F1E461FC7
:10471400571F01C0A1603A9559F7FD01BC01D001B2
:10472400CA015F914F913F910895DBDFFD01BC0108
:104734000895ED91FC9111970895ED91FD916D917E
:104744007C9113970895ED91FD916D917D9108955C
:10475400ED93FD936D937C9308957E936E93FE93F6
:10476400EE9308950590F491E02D0895E881F98180
:104774006A817B810895E883F9836A837B83089542
:10478400A083B1838283938308957A936A93FA937F
:10479400EA9308959A938A93BA93AA930895182E44
:1047A400862F612D192E972F712D1B2EBF2FF12DC2
:1047B4001A2EAE2FE12D0895309760407040089571
:1047C40000240A160B06080609060895EA17FB07D3
:1047D400680779070895AE17BF07860797070895F6
:00000001FF
