:080000000C94AF010C94000008
:100008000C9400000C9400000C9400000C94000068
:100018000C9400000C9400000C9400000C94000058
:100028000C9400000C9400000C9400000C94000048
:100038000C9400000C9400000C9400000C94000038
:100048000C9400000C9400000C9400000C94000028
:100058000C9400000C9400000C9400000C94000018
:100068000C9400000C9400000C9400000C94000008
:100078000C9400000C9400000C9400000C940000F8
:100088000C9400000C9400000C9400000C940000E8
:100098000C9400000C9400000C9400000C940000D8
:1000A8000C9400000C9400000C9400000C940000C8
:1000B8000C9400000C9400000C9400000C940000B8
:1000C8000C9400000C9400000C9400000C940000A8
:1000D8000C9400000C9400000C9400000C94000098
:1000E8000C9400000C9400000C9400000C94000088
:1000F8000C9400000C9400000C9400000C94000078
:100108000C9400000C9400000C9400000C94000067
:100118000C9400000C9400000C9400000C94000057
:100128000C9400000C9400000C9400000C94000047
:100138000C9400000C9400000C9400000C94000037
:100148000C9400000C9400000C9400000C94000027
:100158000C9400000C9400000C9400000C94000017
:100168000C9400000C9400000C9400000C94000007
:100178000C9400000C9400000C9400000C940000F7
:100188000C9400000C9400000C9400000C940000E7
:100198000C9400000C9400000C9400000C940000D7
:1001A8000C9400000C9400000C9400000C940000C7
:1001B8000C9400000C9400000C9400000C940000B7
:1001C8000C9400000C9400000C9400000C940000A7
:1001D8000C9400000C9400000C9400000C94000097
:1001E8000C9400000C9400000C9400000C94B405CE
:1001F8000C945C0603010424083108000000000088
:1002080000000000000000000000000000000000E6
:1002180000000000000000000C030864FA0003005E
:10022800000000001201000200000020EB03123160
:1002380011030102030105010906A10175019508D1
:10024800050719E029E715002501810295017508C0
:100258008103950575010508190129059102950184
:100268007503910395067508150025FF0507190004
:1002780029FF8100C0000403090426034800500038
:10028800200049006E0066006F005400650063009E
:100298006800200053002E0052002E004C002E0053
:1002A800360343006F006400650056006900730060
:1002B80069006F006E004100560052002000550092
:1002C8005300420020004B006500790062006F0077
:1002D8006100720064000C03300030003000300010
:1002E800310009022200010100C0320904000001A6
:1002F80003010100092111010001223F00070581C6
:1003080003080005000100002C021200020000EAA8
:10031800022200210000FC0209002200003E023FE8
:10032800000300007E02040103090482022602037E
:100338000904A8023603030904DE020C40C08080C9
:10034800030109008025000000000800A12000002A
:10035800000001000000F894EE27F091CC01F8604D
:10036800F093CC01F8EDF4BFE093A20080E090E2B6
:10037800A0E0B0E2ED930197E9F78BBFE0E0E0B9C8
:10038800E1B9E2B9E3B9E4B9E5B9E6B9E7B9E8B979
:10039800E9B9EAB9EBB9ECB9EDB9EEB9EFB92E2E76
:1003A8003E2EEFEFEDBFEFE3EEBFC0E0D4E20C94DA
:1003B800DD0186D091D0E0E2E093B200E0E4E09382
:1003C8001006E0931106E0931206E0931306E093FB
:1003D8001406E0931506E0931606E0931706EFEF70
:1003E800E0BBE0E0E1BBE8E1E0935006E0935106B2
:1003F800E0935206E0935306E0935406E0935506C3
:10040800E0935606E0935706E0E0E4BBE3E0E093B0
:100418004400ACEFB1E00E9408047894E091022413
:10042800E030E1F3ACEDB5E00E944F0900E0E09167
:100438000C24E1BBE6B3E0951E2F1030F1F100303B
:1004480019F4012F34E634C0011711F4303009F4DF
:1004580034C0315069F510FF03C0E4E00E94B508CC
:1004680011FF03C0E5E00E94B50812FF03C0E6E0F3
:100478000E94B50813FF03C0E7E00E94B50814FF07
:1004880003C0E8E00E94B50815FF03C0E9E00E9438
:10049800B50816FF03C0EAE00E94B50817FF03C0BD
:1004A800E9E30E94B508A8ECB0E00E944F0905C036
:1004B800A1E0B0E00E944F09BACF00E0B8CFFFCF6B
:1004C8001A93F89414E0E8EDE4BF1093A200E0E07A
:1004D800E093A1000C944C031A930A930FB7F89475
:1004E800E0E0E0936000E2E0E093CA01EDE1F0E0D3
:1004F800E491E0936200ECE1F0E0E491E0936300C2
:10050800E0E0E093CA01E0915000E260E09350001F
:10051800E0915100E270E1F3EBE1E0936500E7EB75
:10052800E0936600E0915600E97FE460E0935600AE
:10053800E1E0E0936000E0914100E078E2601E2F86
:10054800E8EDE4BF10934100E0914000E87FE160EE
:100558001E2FE8EDE4BF10934000E0915000E27ECA
:10056800E0935000E091B400E07FE093B4000FBF47
:10057800099119910895BA93AA939981888100964F
:1005880041F0BD81AC81FB81EA8161916D93019756
:10059800E1F7FD81EC8110C0BA93AA939981888113
:1005A800009641F0BD81AC81FB81EA8105900D92F6
:1005B8000197E1F7FD81EC8126960895BA93AA93F5
:1005C800B981A881109631F0FC81EB816A81619331
:1005D8001197E9F7EB81FC8125960895AA931A9360
:1005E800E981E7701E2F0E94B808E0931D24F0935C
:1005F8001E24E12FE150A4E8EA9FF001E458FA4DE7
:100608000E94BF08E981E07879F0E0911D24F0911B
:100618001E243896E0931D24F0931E240E94C408DB
:10062800EE5BFF4F0E94BF081881229608951A9327
:10063800CFD11E2FE03009F02BC0E0910324A9E0B0
:10064800EA9FF001E20DF31D3596E491EF701E2F3D
:10065800E03011F4E0E81CC0F894E12FE068AE2F18
:10066800BDDF0E94C908E081E27089F00E94CF08CE
:10067800A05CBF4F0C900E94D408EC910E1628F491
:100688000E94C908A0E0A08302C0E3E801C0E0E03E
:1006980019910895AA930E948009ED81FE81E49141
:1006A800EF701E2F103011F0153008F052C0ED8198
:1006B800FE813196049128E0013210F02BE007C04A
:1006C800013110F02AE003C0093008F029E0ED817B
:1006D800FE81E491E295E3703E2FE430D0F5F0E03E
:1006E800EC5BFC4FE4912E2BAC81A12B0E94D80827
:1006F8001196E0E0EC93EC81E07811F0E2E001C0C3
:10070800E0E00E94DF08EC93E22FA0911D24B09155
:100718001E241196EC930E94DF081296E0E0F0E0A8
:10072800ED93FC932DD5A0911D24B0911E24149611
:10073800ED93FC93EC81E07811F0E02F01C0E0E04C
:10074800A0911F24B0912024AF5BBF4FEC930E946F
:10075800E4080E94870927960895BA93AA931A93E2
:10076800E981FA81E491EF701E2FE03011F4E1E0A5
:10077800EBC4153070F4E981FA81E491E073E03458
:1007880040F4E981FA813196A491A13410F4E1E0B2
:10079800DBC4E0E0D9C40E948009E0E0E0933324A0
:1007A800E2E0E0933224E2E4E0933324E0E0F0E096
:1007B800E0933424F0933524ECE5F5E2E093362415
:1007C800F0933724E0E0E0932B24E0932A24E2E43A
:1007D800E0932B24E0E0F0E0E0932C24F0932D2428
:1007E800ECE3F5E2E0932E24F0932F242BE334E29C
:1007F80018E0D901E0E0EC93285F3F4F1150C9F7AA
:100808000E94870924960895BA93AA9322970E9472
:100818007E09E885F985309711F4E0E09DC1E88507
:10082800F985B4960E946609309711F4E0E094C106
:10083800E885F985B696E491E03011F4E0E08CC1E2
:10084800E885F985B996E4910E2FE33010F0E0E0E1
:1008580083C1E02FF0E0E85BFC4FE491E0934400B3
:100868001FB7F894E2E0E093CA01EAE1F0E00491EE
:10087800EBE1F0E03491E0E0E093CA010F3F09F4C6
:100888000FE10093FA043F3F09F43FE13093FB0482
:10089800EAE2F4E2E093C604F093C704E4E5E093E7
:1008A800C004E0E0E093C804E093C904EFEFE093EC
:1008B800CA04E093CC04E091C004E068E093C0046B
:1008C800E885F985EE83FF8300E0043008F040C036
:1008D800EE81FF8134913030A1F1AE81BF81159650
:1008E8003CDFE03031F0AE81BF81179636DFE03073
:1008F80011F4E0E031C1EE81FF8132960E94660971
:10090800AF01042E052A59F05A934A93E0E0EA937E
:10091800E985FA853496A491B0E00E94E20233306A
:1009280081F4EE81FF813196E491E13051F4009336
:100938008C27EE81FF813596E491EF70E068E093B3
:100948008D27EE81FF813996EE83FF830F5FBDCF40
:1009580022DF3CD4E0E0E09303240098E0930224F3
:10096800019802E0E02F3CD4DF01ECE4F3E088E0FA
:100978000E946F090150B1F7A0E0E9D3E0E0E093ED
:100988000C24EDE7E0938E27E4EFF1E02FD4E8851F
:10099800F985B796A0E0B4E282E00E946F09288446
:1009A8003984009AE885F985BA96E491E3700E2FA8
:1009B800003019F41FBFE0E0CFC0E02FE06CE093F7
:1009C800C804E1E0E093C904E093C1041FBFC4C0B8
:1009D80000240214030411F0009902C0E0E808950D
:1009E800E0910224E03011F4E1E80895E0E0089590
:1009F800E2D3EC91ED79EC93E3D30895AA9322978F
:100A08000E947E09E0913A25F0913B259F01409193
:100A18001D2450911E24B4D3EE83FF83DA01EC9198
:100A2800A985EA2399F5E0910224E03011F4E1E880
:100A380093C0019904C0E091CA04E07411F0E4E89D
:100A48008BC0FA01A181A47011F0E2E885C0789406
:100A58000000F89440931D2450931E24EE81FF81DA
:100A68008AD300913A2510913B250217130769F0A4
:100A78009801E885E150E88741F4A985A23019F486
:100A880084D3A2E0A083E3E867C0C8CFE0E064C0F5
:100A9800E0911D24F0911E2432960F01ACD3EC9105
:100AA800D001F0E0ED93FC93A3DF0895BA93AA93E5
:100AB8000E947E093FB7BBDD0E2FE03009F04AC027
:100AC80020E06ED35C91EE81FF813097F1F1E2E096
:100AD800EA93A091002492DF0E2FE030D9F58BD352
:100AE8001C91E52FE11B2E2F203069F1EE81FF814B
:100AF800A22FB0E0EA17FB0708F42E81E22FAE819F
:100B0800BF81F0E0AE1BBF0BAE83BF83E12F77D36D
:100B1800EA85FB857BD30E94BF02E22FA885B985B1
:100B2800F0E0EA0FFB1FE887F987120FE12FA09189
:100B38001F24B0912024A05CBF4FEC93511711F4EF
:100B480020E001C001C0A4DFBECF203019F01DD3C2
:100B5800A1E0A0833FBFE02F0E9485092A9608954F
:100B68005AD30E9480091091CA04E0EFE093CA04A6
:100B780017FF4FC0E0910224E03009F44AC000E0BA
:100B88000430F8F4E02FF0E0EF5DFB4DE081E17018
:100B9800B1F0A9E00A9FF001E20DF31D3596E4914A
:100BA800EF70E068AE2F00D3EC91E27041F0E02FD7
:100BB800F0E0EF5DFB4DA0E0A0836ADF02C00F5FAD
:100BC800DFCFE0918E27E03021F1A0918D27ECD284
:100BD800EC91E270F1F00FD30C91E2D2EC91A02FDE
:100BE800A85FEA1750F025D339F4E02F08D329D3AA
:100BF8000E94BF02085F05C00CC0003051F019D335
:100C080041F426D3D8D21296E02FF0E0ED93FC936E
:100C1800EFDE14FF0FC0E0E0E09302240198E093B8
:100C2800C304B9DD02E0E02F19D30150E1F7E0E099
:100C3800E0930C2416FF0DC0019AF101BB960E94A7
:100C480066099F01309709F009950E948709249643
:100C580049C215FF09C00198F101BD960E946609B5
:100C68009F01309709F009950E94870924963AC296
:100C7800E0913224E160E0933224E0912A24ED7877
:100C8800E0932A24E160E0932A240895AA93E0914E
:100C98003224E27039F4E091CA04E07411F0E0E023
:100CA8005EC2F5CFA4E3B4E2E881E0D2E1E057C246
:100CB800B2D22C970E947E09E0912A24E07109F4AF
:100CC8000EC2E1E0E093CC04A0912C24B0912D2435
:100CD800189709F0F9C1FE013696FA93EA93ECE306
:100CE800F5E2FA93EA93A8E0B0E00E94BF02AF8170
:100CF800A63009F080C0F101B4960E946609E88B1D
:100D0800F98BF101B696249130E03F933F5FE22FD3
:100D1800AF91AE1708F0D8C1E889F9890E946A092D
:100D2800E885F9856A857B850E94790961F4E889F7
:100D3800F98934960E946609EE87FF87E889F98960
:100D48003696549106C0E889F9893796E88BF98B6D
:100D5800DCCF4C85E52FAC85BD85F0E0EA17FB07B5
:100D680008F4452F00E010E083DF20E0403059F11F
:100D7800403011F4203289F5E0913224E27041F1DB
:100D880020E2421708F4242F2030E9F0EE85FF8591
:100D9800309779F074D2E889F98938D20E94D00264
:100DA800E22FAE85BF85F0E0EA0FFB1FEE87FF87D5
:100DB80009C0002E012A31F062D21A930A93A22F99
:100DC800BB2762D2421BA4E3B4E2E22F4FD204C095
:100DD800E091CA04E07409F4CBCFE0912A24E072D0
:100DE80021F4E091CA04E074C1F3E0912A24ED797A
:100DF800E0932A2474C1AF81A53071F439DFA0E0F3
:100E080045DFE03041F0E0913224E270E1F3E8851B
:100E1800EF77E093C30463C1AF81A13011F0A33031
:100E2800A1F5AE81A23089F5E885F985309769F595
:100E3800EA85E7702E2F213010F0253008F025C004
:100E4800E22F92D1E88BF98BAF81A33031F4A889D6
:100E5800B9891196EC91E06813C0A889B9891196EF
:100E6800EC91EF77EC93E22FE150A4E8EA9FF001D0
:100E7800E454FA4DA0E0A083A889B989EC91EE7FEB
:100E8800EC93F6DEA0E002DF2AC1AF81A93019F4A5
:100E9800AE81A03009F02FC0E885E093022496D1F6
:100EA80032E0E32FDBD13150E1F7E0E0E0930C24AE
:100EB800DFDEA0E0EBDE288A398A30E03430D0F477
:100EC800E889F989E491E03071F0E889F989359683
:100ED800FA93EA93A0E8DEDBE889F9893796FA9372
:100EE800EA93A0E0D7DBE889F9893996E88BF98B92
:100EF8003F5FE4CFF4C0E0E0EE87EF87AF81A83032
:100F080019F4AE81A03809F004C002E014E241E00F
:100F18002BCFEF81E030B9F4E0E0E887E987AE81D4
:100F2800A23861F4EA85E7701FD1E88BF98BA889AC
:100F3800B989EC91E07811F0E1E0E887FE01389694
:100F48008F0142E011CFAA85BB85149708F0BCC079
:100F5800AA85BB85E9E00E946009E20DF31DE88BD4
:100F6800F98B549131962491EA85E6953E2FAE810E
:100F7800A13AE1F5523019F4AF81A13209F005C068
:100F8800E32F2ED18F0147E0EFCE533079F5AF81B3
:100F9800A130D9F4E889F98932960E9466098F014F
:100FA800002E012A29F0E889F98934964491DCCE8B
:100FB80066D1E0E0EA93A0E2B0E00E94E2024C854C
:100FC800ED85E03009F04FEFCDCEAF81A33031F49D
:100FD800EA85FB85EB5DFB4D8F0199CFAF81A23090
:100FE80029F4213019F40EE817E291CFAE81A1322D
:100FF80009F06AC0533061F5AF81AB3039F4EA8546
:10100800FB85EB5DFB4DA885A0833BCFAF81A93065
:10101800A9F4213021F40CE014E241E022C000E000
:1010280010E0E889F98938964491EC85FD85A42F6C
:10103800B0E0EA17FB0708F44C8513C0AF81AA306B
:1010480039F4213029F4E985E0938E2701D119CFAD
:101058005230D1F5AF81A03239F5E32FC1D08F01DD
:1010680047E006DE4030C9F04030E9F0E0912A243C
:10107800E07221F4E091CA04E074C1F320912C24B9
:10108800421708F4242F421B002E012A31F01A932C
:101098000A93ECE3F5E2BAD0F7D0E0912A24ED798F
:1010A800E0932A24E1CFEECEAF81A33209F4E9CE52
:1010B800AF81A23249F4E32FF0E00E945909EC5EB7
:1010C800FB4DA885A083DDCED3DDE0912A24E0681E
:1010D800E0932A24E0913224E068E09332240E94CD
:1010E80085096296E991EFBFF991E991B991A991C2
:1010F8009991899179916991F99019900990189528
:10110800E0918C27E09303249CD0D0DC0895AA9327
:101118001A93E5E0F4E2FA93EA93E0E0EA93A7E0B1
:10112800B0E00E94E202E981E0930424EA81E093BE
:101138000624E6DF1E2FE03009F006C0E0E0E09369
:101148000424E0930624DCDF188123960895AA93EB
:10115800E881EE0FE0939127EF5FE09392272196C5
:101168000895EA93A0E0D3CFEE0FF0E00E9459096A
:10117800E65DFB4D0895E0931F24F0932024089525
:10118800E0911F24F09120240895E0910324F0E0D9
:10119800EF5DFB4D0895A0911F24B0912024089580
:1011A800FADFAF5BBF4F08950E94F202A0911D24A1
:1011B800B0911E240895A0911D24B0911E24089575
:1011C800EADFA05CBF4FE0E0EC930895E1E2F4E2CF
:1011D800FA93EA93E0E0EA93A4E0B0E00C94E20228
:1011E800F0E00E945909E35FFB4D0895E0938F27D3
:1011F800F09390270895CFDFA05CBF4F0895CBDF11
:10120800F0E0EA0FFB1FFA93EA930895FA93EA9342
:10121800A22FBB2708950A921A92FA926A937A9398
:101228008A939A93AA93BA93EA93FA93EFB7EA93B5
:101238000895E0918F27F09190273197D7DF309765
:101248000895E4E0F4E2FA93EA93A8E0B0E00895A0
:10125800E0918E27F0E00E945B09C8CFF0E00E9481
:101268005909EC5EFB4DA0E0A0830895F0E0ED93F2
:10127800FC93E0913224ED79E09332240895ECE573
:10128800F5E2FA93EA9308950E94BF02E22FF0E094
:101298000E0F1F1F0895109639F0A89588EB9BE054
:1012A8000197F1F71197C9F70895EE0FFF1FEE0F99
:1012B800FF1FEE0FFF1F08956E2F6A9FF0016B9FAF
:1012C800F00D08950590F491E02D0895A591B5913C
:1012D8008591949108959927EF93FF9305900D9226
:1012E8000197E1F7FF91EF910895EA17FB07680767
:1012F800790708955A934A933A932A931A930A932B
:1013080008955D814C813B812A8119810881089566
:00000001FF
