:0C0000000C9410130C9400000C940000F1
:10000C000C9400000C9400000C9400000C94000064
:10001C000C9400000C9400000C9400000C94000054
:10002C000C9400000C9400000C9400000C94000044
:10003C000C9400000C9400000C9400000C94000034
:10004C000C9400000C9400000C9400000C94000024
:10005C000C9400000C9400000C9400000C94000014
:10006C000C9400000C9400000C9400000C94000004
:10007C000C9400000C9400000C9400000C940000F4
:10008C000C9400000C9400000C9400000C940000E4
:10009C000C9400000C9400000C9400000C940000D4
:1000AC000C9400000C9400000C9400000C940000C4
:1000BC000C9400000C9400000C9400000C940000B4
:1000CC000C9400000C9400000C9400000C940000A4
:1000DC000C9400000C9400000C9400000C94000094
:1000EC000C9400000C9400000C9400000C94000084
:1000FC000C9400000C9400000C9400000C94000074
:10010C000C9400000C9400000C9400000C94000063
:10011C000C9400000C9400000C9400000C94000053
:10012C000C9400000C9400000C9400000C94000043
:10013C000C9400000C9400000C9400000C94000033
:10014C000C9400000C9400000C9400000C94000023
:10015C000C9400000C9400000C9400000C94000013
:10016C000C9400000C9400000C9400000C94000003
:10017C000C9400000C9400000C9400000C940000F3
:10018C000C9400000C9400000C9400000C940000E3
:10019C000C9400000C9400000C9400000C940000D3
:1001AC000C9400000C9400000C9400000C940000C3
:1001BC000C9400000C9400000C9400000C940000B3
:1001CC000C9400000C9400000C9400000C940000A3
:1001DC000C9400000C9400000C9400000C94000093
:1001EC000C9400000C940000050720600000000037
:1001FC000000005F00000007000700147F147F144C
:10020C00242A7F2A1223130864623649552250008F
:10021C0005030000001C2241000041221C00082A9A
:10022C001C2A0808083E080800503000000808087E
:10023C000808003030000020100804023E514945E7
:10024C003E00427F400042615149462141454B31BD
:10025C001814127F1027454545393C4A494930014D
:10026C00710905033649494936064949291E0036A4
:10027C0036000000563600000008142241141414F5
:10028C001414412214080002015109063249794123
:10029C003E7E1111117E7F494949363E4141412232
:1002AC007F4141221C7F494949417F090901013E97
:1002BC00414151327F0808087F00417F41002040B6
:1002CC00413F017F081422417F404040407F02049F
:1002DC00027F7F0408107F3E4141413E7F0909099E
:1002EC00063E4151215E7F0919294646494949314B
:1002FC0001017F01013F4040403F1F2040201F7FF4
:10030C002018207F631408146303047804036151DC
:10031C0049454300007F4141020408102041417FC0
:10032C00000004020102044040404040000102046D
:10033C000020545454787F48444438384444442072
:10034C00384444487F3854545418087E0901020834
:10035C001454543C7F0804047800447D4000204031
:10036C00443D00007F10284400417F40007C04186D
:10037C0004787C0804047838444444387C141414FD
:10038C0008081414187C7C0804040848545454209D
:10039C00043F4440203C4040207C1C2040201C3C1E
:1003AC004030403C44281028440C5050503C44648D
:1003BC00544C44000836410000007F0000004136D8
:1003CC00080002010204027F4141417F000E2060BF
:1003DC0005020406060A07020404040603040303C8
:1003EC0006060606060606060606030306060606A7
:1003FC000B08070707060608070205070608070883
:10040C00060807070607080B07080703030305067A
:10041C00040606060606040606020205020806067F
:10042C00060604060306060A060606040204060867
:10043C0000000000000000000000F800050038007B
:10044C0038000000000020E038E038000701070108
:10045C0001003048F848900002040F0403003048B3
:10046C004830C030888000000000040300030404FE
:10047C00030000B048C83000000304040403050066
:10048C0038000000E0100800070810000810E00019
:10049C001008070050385000000000008080E080F9
:1004AC008000000003000000000000001C000000A1
:1004BC0000000101010000000000040000E018062B
:1004CC000100F0080808F0000304040403002010E5
:1004DC00F8000000000007000000100808887000F9
:1004EC0004060504040010084848B0000204040483
:1004FC000300806010F80000010101070100605842
:10050C0048488800020404040300F048484890005E
:10051C000304040403000808C8380800000700009E
:10052C000000B0484848B00003040404030070887D
:10053C008888F0000204040403002000000400007A
:10054C002000001C00008040404020000001010100
:10055C0002004040404040000101010101002040E8
:10056C004040800002010101000010088848300062
:10057C00000005000000C03090482828C86810E032
:10058C0000070813141412171412090000807008C5
:10059C00708000000601010101010600F84848487E
:1005AC0048F00007040404040300E01008080810D5
:1005BC000001020404040200F808080810E0000717
:1005CC00040404020100F8484848480007040404E5
:1005DC000400F84848480800070000000000E0103C
:1005EC0008088890A0000102040404020100F840ED
:1005FC00404040F80007000000000700F80007002A
:10060C00000000F8000304040300F88040E0100828
:10061C000007000000030400F800000000000704BD
:10062C0004040400F830C000C030F80007000106D4
:10063C0001000700F810608000F8000700000102BC
:10064C000700E01008080810E0000102040404028E
:10065C000100F88888887000070000000000E01096
:10066C0008080810E0000102040505020500F8481E
:10067C0048C8483000070000000304003048488890
:10068C00881000020404040403000808F808080099
:10069C00000007000000F800000000F8000304044C
:1006AC00040403001860800080601800000001063C
:1006BC000100000018E000807008708000E0180055
:1006CC00010601000000010601000830C0C030081E
:1006DC000004030000030400083040804030080090
:1006EC0000000007000000000008886818080004DB
:1006FC00060504040400F808001F100018E00000B0
:10070C00010608F800101F004030083040000000BF
:10071C000000000000000000101010101010081055
:10072C0000000000000040A0A0A0C00003040402D0
:10073C000700F8402020C000070204040300C0207A
:10074C0020204000030404040200C0202040F800D4
:10075C00030404020700C0A0A0A0C000030404040A
:10076C00020020F0280000070000C0202040E0001C
:10077C00131414120F00F8402020C00007000000D2
:10078C000700E800070000E8100FF8804020000781
:10079C0000030400F8000700E04020E02020C00027
:1007AC000700000700000700E0202020C000070021
:1007BC0000000700C0202020C00003040404030034
:1007CC00E0402020C0001F0204040300C020204091
:1007DC00E000030404021F00E040200007000000BA
:1007EC0040A0A020400002040405020020F82000D4
:1007FC000704E0000000E00003040402070060802E
:10080C0000806000000106010000608000C020C074
:10081C00008060000001060100010601000020407C
:10082C00804020000402010204006080008060000F
:10083C0000110E0100002020A06020000406050419
:10084C00040080700800000F1000F8001F00000862
:10085C00708000100F00C040C080400000000000FD
:10086C00000000F010101010F00000070404040445
:10087C000700000E206005030506060908030404A2
:10088C000406030403030606060606060606060609
:10089C000303060606070B080708070606080703E6
:1008AC000607070A0708070807070707080B0808C1
:1008BC0007040304060604060706070705070703D3
:1008CC000307030B0707070705070507070A0707B1
:1008DC0006040304060800000000000000000000ED
:1008EC00F8F8000606003838003838000000000020
:1008FC0020E03820E03807010107010170C8FCC86E
:10090C00900002040F04030078487880609880807F
:10091C000000000601000704070000B0F8C8B8305A
:10092C0080000307040407070500383800000000A6
:10093C00E0F01800030F180008F0C000180F0300B7
:10094C0050385000000000008080E08080000000E3
:10095C0003000000000000160E0000000000010162
:10096C00010000000006060000E018060100F0F887
:10097C0008F8F0000307040703006030F8F80000E3
:10098C00000007070000101888F87000060705041F
:10099C000400101848F8B000020604070300806039
:1009AC0010F8F800010101070701E07858C8880029
:1009BC00020604070300F0F848D890000307040768
:1009CC0003000888E8781800000707000000B0F85A
:1009DC0048F8B00003070407030070F888F8F0002B
:1009EC000206040703006060000606006060001643
:1009FC000E00C0C020201000000001010200404089
:100A0C0040404000010101010100102020C0C00045
:100A1C00020101000000001098C8783000000006A8
:100A2C0006000000C03090682828E86810E0000339
:100A3C000C0B14141617140A09000000E0F818F82F
:100A4C00E0000007070101010707F8F84848F8B073
:100A5C000007070404070300E0F01808081810004A
:100A6C000103060404060200F8F80808F8F0000771
:100A7C00070404070300F8F8484848000707040473
:100A8C000400F8F848484800070700000000E0F0B0
:100A9C001808889890000103060404070300F8F86E
:100AAC004040F8F80007070000070700F8F80007B7
:100ABC000700000000F8F800020604070300F8F82D
:100ACC00C0F0B8080007070001070600F8F800009E
:100ADC0000000007070404040400F8F878E000E0C4
:100AEC0078F8F80007070003070300070700F8F879
:100AFC006080F8F80007070001070700E0F018080D
:100B0C0018F0E0000103060406030100F8F88888D9
:100B1C00F8700007070000000000E0F0180818F05B
:100B2C00E0000103060506070900F8F88888F8704C
:100B3C0000070700010306047078C8C898900002EB
:100B4C000604040703000808F8F80808000000076A
:100B5C0007000000F8F80000F8F800030704040789
:100B6C00030018F8E000E0F8180000010706070180
:100B7C00000018F8E000F038F000E0F81800010769
:100B8C000701000107070100001838E0E0381800E1
:100B9C000006070101070600001878C0C07818008D
:100BAC0000000007070000000808C8E83818000615
:100BBC00070504040400F8F808001F1F100018E0D3
:100BCC000000010608F8F800101F1F004070187094
:100BDC0040000000000000000000000000001010A9
:100BEC0010101010081810000000000040A0A0E029
:100BFC00C000030704070700F8F82020E0C0000736
:100C0C00070404070300C0E020604000030704064B
:100C1C000200C0E02020F8F80003070404070700D6
:100C2C00C0E0A0A0E0C0000307040406020020F00E
:100C3C00F828080007070000C0E02020E0E0000BC7
:100C4C001714141F0F00F8F82020E0C0000707004D
:100C5C0000070700E8E80007070000E8E8101F0F8E
:100C6C00F8F880C060200007070103070400F8F8BB
:100C7C0000070700E0E02020E0E02020E0C00007B3
:100C8C0007000007070000070700E0E02020E0C095
:100C9C000007070000070700C0E02020E0C00003A9
:100CAC00070404070300E0E02020E0C0001F1F043D
:100CBC0004070300C0E02020E0E000030704041F49
:100CCC001F00E0E02020000707000000C0E0A0A00B
:100CDC006040000206050507030020F0F820000024
:100CEC0003070400E0E00000E0E000030704040751
:100CFC00070000E0E000E0E000000107060701004B
:100D0C00E0E000C0E0C000E0E000000707030003E3
:100D1C00070700000060E080E060000006070107A4
:100D2C00060020E0C000C0E02010111F0E070100DB
:100D3C002020A0E0600006070504040000F0F8087D
:100D4C00010F1E1000F800001F0008F8F000101E24
:100D5C000F0180404080400000000000000000F8BF
:100D6C0008080808F8000007040404040700070E2C
:100D7C0020600000000000000000000000000000E7
:100D8C00000000F000000000000005000000000062
:100D9C007000700000000000000000000040E050F7
:100DAC00E05000000A070A0702000040A0B0200033
:100DBC000000020E0201000000A0D0A08000000084
:100DCC000002050200000000C02020000000030407
:100DDC000507040000000070000000000000000087
:100DEC000000000000C0300000000000030C0000F8
:100DFC00000030C000000000000C030000000020C8
:100E0C00A070A0200000000000000000008080F016
:100E1C0080800000000007000000000000000000BF
:100E2C00000000180C04000000808080808000000E
:100E3C0000000000000000000000000000000004A2
:100E4C000400000000000080601000000806010093
:100E5C00000000E0101010E0000003040404030084
:100E6C00000010F00000000004040704040000203F
:100E7C00109050200000060504040400002010907F
:100E8C009060000002040404030000804020F00085
:100E9C0000000101050705000000F0909010000013
:100EAC0002040404030000C0A0909010000003048E
:100EBC0004040300003010109070000000000601C4
:100ECC000000006090909060000003040404030094
:100EDC000060909090E00000040404020100000007
:100EEC00404000000000000404000000000000402E
:100EFC0040000000000C06020000008080404020F2
:100F0C000000000001010200004040404040000091
:100F1C00010101010100002040408080000002011D
:100F2C00010000000020109060000000000405008B
:100F3C00000000E0109050E000000708090A0B00C8
:100F4C000000D030C000000406050105060410F0B6
:100F5C0090909060000407040404030000E010105B
:100F6C001030000003040404020010F0101020C024
:100F7C0000040704040201000010F090D0300000BF
:100F8C000407040506000010F090D03000000407A0
:100F9C000401000000E010101030000003040405F0
:100FAC00030110F0908090F0100407040004070473
:100FBC00001010F0101000000404070404000000DE
:100FCC001010F010000003040403000010F09080D7
:100FDC00503010040704000106040010F01000004B
:100FEC00000004070404070010F0708070F0100477
:100FFC0007040004070410F0708010F010040704BC
:10100C000106070000E0101010E0000003040404C7
:10101C0003000010F01010E00000040705010000B0
:10102C0000E0101010E0000003040C0C0B0000108A
:10103C00F01010E00000040705010204006090901D
:10104C00A0300000060404040300003010F010303F
:10105C00000000040704000010F0100010F0100055
:10106C0003040404030010F010009070100000073B
:10107C000403000010F010C010F01000030403046F
:10108C0003001030408040301004060100010604BB
:10109C001030508050301000000407040000003065
:1010AC00109050300000060504040600000000F00B
:1010BC001000000000000F0800000010608000000D
:1010CC0000000000030C0000000010F00000000005
:1010DC0000080F000000004020102040000000001D
:1010EC000000000000000000000000202020202054
:1010FC002020000010200000000000000000000074
:10110C00008040404080000006050505070410F0F3
:10111C008040408000040704040403000080404029
:10112C0040C000000304040404000080404090F020
:10113C0000000304040407040080404040800000C9
:10114C00030505050500000040E0505000000004B8
:10115C00070404000080404080C0400003141414B5
:10116C000F0010F0804040800004070400040704C6
:10117C00004040D0000000000404070404000040BC
:10118C004050C00000001010100F000010F0004084
:10119C00C0400004070105060400000010F0000028
:1011AC00000004040704040040C040804080000498
:1011BC0007040704070440C0804040800004070473
:1011CC000004070400804040408000000304040435
:1011DC00030040C08040408000101F140404030032
:1011EC000080404080C04000030404141F100040E5
:1011FC00C080404000000407040400000080404010
:10120C004040000004050505020040E0404040005D
:10121C00000003040404020040C0000040C00000B1
:10122C0003040402070440C0400040C04000010613
:10123C000403000040C0400040C04000030403040D
:10124C0003000040C000C04000000406010604007A
:10125C0040C0400040C0400010131C03000000C000
:10126C004040C0400000040605040600000000E0F9
:10127C001000000000010F100000000000F0000042
:10128C00000000000F000000000010E00000000053
:10129C0000100F01000000008080008000000100A1
:1012AC0001010000F010101010F0000704040404F9
:1012BC000700000E20600707070707070707070747
:1012CC0007070707070707070707070707070707A2
:1012DC000707070707070707070707070707070792
:1012EC00070707070707070707070707070907087F
:1012FC000707070707080707070707070707070771
:10130C00070707090707070707070707070907085C
:10131C000707070707070000000000000000000097
:10132C00000000000000F0F00000000000050500C7
:10133C0000000000700070000000000000000000C1
:10134C0040F8F840F8F840010F0F010F0F01006052
:10135C00F0989030000006041C070300609090E0A9
:10136C0080C0000001000304040380E0F0109080B2
:10137C0000030405070704000000007000000000D3
:10138C000000000000000000C0E03000000000037E
:10139C00070C0000000030E0C0000000000C070348
:1013AC0000000020A07070A02000000000000000D1
:1013BC00008080E08080000000000300000000003E
:1013CC000000000000000018040000000080808075
:1013DC008080000000000000000000000000000001
:1013EC000000000404000000000080E0F818000079
:1013FC000C0F0300000000E0F010F0E00000030709
:10140C0004070300002020F0F0000000040407078C
:10141C00040400203090F06000000607050404006E
:10142C0000209090F060000002040407030080404C
:10143C0020F0F000000101050707050000F07050D6
:10144C00D090000002040407030000C0E0B090102C
:10145C00000003070407030000301010F0F0000038
:10146C000000070700000060F090F0600000030728
:10147C00040703000060F090F0E000000404060391
:10148C0001000000404000000000000404000000C7
:10149C000000404000000000000C020000008080B2
:1014AC004020201000000001020204004040404097
:1014BC004040400101010101010100102020408049
:1014CC0080000402020100000020B090F0600000D7
:1014DC00000505000000E010905050E000070808DF
:1014EC000909050010D0F030F0C00004070701070F
:1014FC00070410F0F090F0600004070704070300E5
:10150C00E0F010101030000307040404020010F087
:10151C00F010F0E0000407070407030010F0F0904F
:10152C00D030000407070405060010F0F090D0300E
:10153C000004070704050000E0F010101030000351
:10154C0007040507070110F0F080F0F010040707FE
:10155C00000707041010F0F0101000040407070433
:10156C00040000001010F0F010070704040703003B
:10157C0010F0F0805030100407070503060410F03B
:10158C00F0100000000407070404070010F0E0004E
:10159C00E0F0100407040304070410F060C010F01E
:1015AC001004070401030700E0F01010F0E0000342
:1015BC0007040407030010F0F010F0E00004070724
:1015CC0005010000E0F01010F0E00003070C0C0F18
:1015DC000B0010F0F090F060000407070403060401
:1015EC000060F090903000000604040703007010B7
:1015FC00F0F01070000004070704000010F0F00079
:10160C00F0F0100003070407030010F0F000F0F0F6
:10161C00100000070607000010F0F010C010F0F0EA
:10162C00100000070701060700001030F0C0F03072
:10163C001004060701070604103070C0D07030107B
:10164C000000040707040000007010D0F030000008
:10165C000607050407000000F0F010100000000F52
:10166C000F0808001878F0C0000000000001070FF8
:10167C000C00001010F0F000000008080F0F000024
:10168C00004020102040000000000000000000007E
:10169C00000000000000202020202020202000003E
:1016AC000810000000000000000000000040404056
:1016BC00C080000207050507070410F0F04040C089
:1016CC00800407070404070380C0404040C00003A7
:1016DC0007040404020080C04050F0F0000307042B
:1016EC000407070480C04040C080000307050505BF
:1016FC0005000040E0F0505000000407070404000F
:10170C0080C04040C0C040031714141F0F0010F0DD
:10171C00F040C08000040707000707044040D0D009
:10172C0000000004040707040400404050D0C0002F
:10173C00001010101F0F000010F0F080C0400004CB
:10174C000707010306041010F0F000000004040762
:10175C000704040040C0C040C040C080000407071C
:10176C0000070007070440C0C040C0800004070702
:10177C000007070480C04040C08000030704040732
:10178C00030040C0C04040C080101F1F141407034A
:10179C0080C04040C0C040030714141F1F1040C03D
:1017AC00C08040C0000407070404000080C0404013
:1017BC0040C0000605050507020040F0F04040005F
:1017CC00000003070404020040C0C000C0C00000B9
:1017DC0003070407070440C0C000C0C04000000756
:1017EC000607000040C0C0408040C0C04000010758
:1017FC0006010607010040C0C000C0C04004060737
:10180C00010706040040C0C000C0C0401010181FE3
:10181C001601000000C040C0C040000006070504CF
:10182C0006000000F0F010000000010F0E08000090
:10183C000000F0F000000000000F0F00000000108E
:10184C00F0F000000000080E0F0100000080800086
:10185C0000800001000001010000F010101010F0D9
:10186C000007040404040700001320600607050C9D
:10187C00080A0C030908090D0406030808070807E1
:10188C0007080908080705060D0D0D08100F0E0DA9
:10189C000D0A0F0B100D0E100D0F0E0C0D0D100E62
:1018AC000E120E110E0E0C0B050B1008080A09086F
:1018BC000A080B0C0B080C0A070F0C090D0A080878
:1018CC00070B090E080C0B0808080D0A0000000095
:1018DC0000000000000000000000000000000000FC
:1018EC0000000080C0000030340201000000000045
:1018FC0000000000F800F8000000000000000000EC
:10190C0000000000404040E05848C07048400002D1
:10191C00221E03023A0E0302020000000000000027
:10192C000000000000000000008080E06000D8F89B
:10193C003B2E251B030300000000000000000000EC
:10194C008080800000800000000725170B063B2CD0
:10195C00340C0000000000000000000000000080BB
:10196C00C040C0008080C0C00000003B2C2A1D0A73
:10197C000504020000000000000000000000000050
:10198C0000F8000000000000000000000000804093
:10199C00201000C0380E03000000000003000000FF
:1019AC000000000000000000000000F0000080407B
:1019BC00301C0700020100000000000000000000C5
:1019CC0080A060D02000000000000100000000009A
:1019DC0000000000000000000000000000E000001B
:1019EC00000000000000020202023F02020202009C
:1019FC0000000000000000000000000000000000DB
:101A0C00000080807030000000000000000000002A
:101A1C00000008080808000000000000000000009A
:101A2C0030300000000000000000C02010403008E2
:101A3C000601000000000000000000000000000093
:101A4C000000808080001C262311180C030000006D
:101A5C00000000000000000000000080000824329C
:101A6C001E07010000000000000000000000808044
:101A7C00800000201B3938241303000000000000F4
:101A8C0000000000008080808030302121361C0353
:101A9C000000000000000000000000808000101812
:101AAC007473191402000000000000000000000014
:101ABC00008080800020242B2534180000000000BA
:101ACC0000000000000000000080808080001C2EC0
:101ADC002725151C0101000000000000000000007B
:101AEC0000000080808080000061790C06010000FD
:101AFC0000000000000000000000008080808000DA
:101B0C00182827262C1C03000000000000000000F1
:101B1C00000080808000303027151C0E070000006C
:101B2C00000000000000000000003030060600003D
:101B3C0000000000000000000080807030060600ED
:101B4C0000000000000000000000808040404020A9
:101B5C000000000003030304040808081000000040
:101B6C000000000000000000000000000000808069
:101B7C0080808080808080000000000404040404C5
:101B8C000404040400000000000000000000000039
:101B9C000000000000204040408080000000000059
:101BAC0000001008080804040303030000000000F0
:101BBC000000000000000000000000000080404019
:101BCC0040C0000030370503010100000000000098
:101BDC0000000000C020101088C848488858102009
:101BEC00C000001F60C0801E2120101C27A0F01810
:101BFC0007000000000000010101010101000000CC
:101C0C000000000000000000000000804020A060E8
:101C1C001038382820170915223D383E271904049E
:101C2C0000000000000000000000000000000000A8
:101C3C00008040202020D01090D030A0C000385917
:101C4C00424262311C3E3321190E0000000000009C
:101C5C0000000000000000000000008060301090C8
:101C6C00C0602010D030000003041C232D26261544
:101C7C000D0000000000000000000000000000004B
:101C8C00000080C0202010901090E060A000003375
:101C9C00343424322D2E23100807000000000000DD
:101CAC00000000000000000000000000E030D0D078
:101CBC0060001C3E222A25151D00000000000000BB
:101CCC0000000000000000000080402020D010D058
:101CDC00302020200000303023222A1B1D0F0E0143
:101CEC0001000000000000000000000000000000E7
:101CFC0000000000804020A0E06010907000000305
:101D0C001C2C2724361D06000000000000000000DB
:101D1C00000000000000C040A0E0C0C02080C02037
:101D2C009050301C2C2020381C0E073C2611090525
:101D3C000400000000000000000000000000000093
:101D4C000000000000000000804020A0D0301010E7
:101D5C00001C2C202728180E07040300000000008C
:101D6C0000000000000000000000000000000080E7
:101D7C00406020A0503010108040202097F4789CB8
:101D8C0057310000000003020201010000000000B6
:101D9C00000000000000008080C0400080402080D7
:101DAC00402010103838212020111D0703393F1016
:101DBC000806020000000000000000000000000007
:101DCC0000000000000000C060201090D060109057
:101DDC00700030303324142E27130A09040000003D
:101DEC0000000000000000000000000000000000E7
:101DFC000080A0E09080F010000030282818040328
:101E0C00381F063D271008060200000000000000E5
:101E1C00000000000000000000000000000000C0F6
:101E2C0020F010008040182C2420100C0300003FE0
:101E3C001C03000000000000000000000000000077
:101E4C0000000000000080C020A05050D0700000A6
:101E5C001E2F252211180C060100000000000000A6
:101E6C0000000000000000008040202010D01090E6
:101E7C005020E000182B2222361D0C070302010112
:101E8C000000000000000000000000000000000046
:101E9C00C0602010D010F0E0000000303734142661
:101EAC00332D27130806020000000000000000007C
:101EBC000000000000008040202020D01090D05066
:101ECC0020A0E00000182B2A2232191D0F3B3F2FB7
:101EDC0011080C02000000000000000000000000CF
:101EEC000000000000000000C060201090D06010C6
:101EFC009070003030202336140E070302010000CE
:101F0C0000000000000000000000000000000000C5
:101F1C000080402020D0109050202010001C2C233A
:101F2C0024343F1F0F0700000000000000000000D9
:101F3C00000000000000000000000000C06020F065
:101F4C001090E0000080E0703000000000070404F6
:101F5C003B2D2F17083C2F17110C0202000000001C
:101F6C000000000000000000000000000000000065
:101F7C00C040A0E040C06010806010100000000065
:101F8C00203C170B040201000000000000000000C0
:101F9C000000000000000000000000C06020D01015
:101FAC0010E000808060108080000007043413195A
:101FBC000C07043A170D020100000000000000009D
:101FCC000000000000000000000000000000C060E5
:101FDC0020D01010E0C0406060003037342413195A
:101FEC007C4F2318040400000000000000000000D7
:101FFC0000000000000000C060A0D090D060008005
:10200C00C0201000001939392727141E0F030000B7
:10201C0000000000000000000000000000000000B4
:10202C00C0201010103020E02010008081404C4C5B
:10203C00EC643F10080404030202010100000000DC
:10204C0000000000000000000080C03010100000F4
:10205C00C03018060300000000020302000000005C
:10206C000000000000000000F0000000007F0000F5
:10207C000000000000000000000000D03010000044
:10208C0000C06018040300000002020300000000FE
:10209C000000000000000040402010080810204004
:1020AC0040000000000000000000000000000000E4
:1020BC000000000000000000000000000000000014
:1020CC000000000000000000000000000000000004
:1020DC0000000000020202020202020200000000E4
:1020EC0000C0000000000000000000000000000024
:1020FC000000000000000000000000000000382C70
:10210C0026123A2E12080404000000000000000001
:10211C00000000000000C060200000003C2E232DB9
:10212C00160804040000000000000000000000007D
:10213C00000000000000382C2616160808000000CD
:10214C00000000000000000000000000806020384B
:10215C002C26123A2C170904040000000000000081
:10216C000000000000000000000000382C2A3A1E7D
:10217C000804040000000000000000000000000043
:10218C000080C040A0600000C0783E271109050205
:10219C000204070100000000000000000000000025
:1021AC0000000000000000000080B8ACE6723A1697
:1021BC0012080404070404030100000000000000DE
:1021CC0000000080C060000000000020381E0B35AD
:1021DC003A2E10080404000000000000000000006B
:1021EC00000000000000C0000000382C2E12080473
:1021FC0004000000000000000000000000000000CF
:10220C000000C0000000008040C0E8383C12080408
:10221C00040705040301000000000000000000009A
:10222C0000C06020000000203C0C07392E1208046E
:10223C00040000000000000000000000000080C04E
:10224C006020003C2E130906020000000000000074
:10225C000000000000000000000000000000002052
:10226C00343C1E243A1E0C3C2E361008040400008C
:10227C000000000000000000000000000000000052
:10228C0000000000000000000020243C1E083C2E32
:10229C0016100804040000000000000000000000FC
:1022AC000000000000000000000000382C161A1678
:1022BC000804040000000000000000000000000002
:1022CC000000C06000000000000000C0781C073552
:1022DC002A26100804040407010000000000000076
:1022EC0000000000000000000000000000382CF688
:1022FC0072FE26120804040007050301000000000A
:10230C0000000000000000000000043A2E16080433
:10231C0004000000000000000000000000000000AD
:10232C00003024341E1008040400000000000000DB
:10233C00000000000080E0A0003C2C170904040001
:10234C000000000000000000000000000000000081
:10235C000000382E12382E2612080404000000004B
:10236C000000000000000000000000000000000061
:10237C0000342C2E2C160804020000000000000073
:10238C000000000000000000000000000000000041
:10239C00003C2C160A3C2E26221E16180C0400009B
:1023AC000000000000000000000000000000000021
:1023BC00000000003024123E241A04040000000027
:1023CC000000000000000000000000000000000001
:1023DC000080B47ADE783C16120804040704040367
:1023EC0001000000000000000000000000000000E0
:1023FC0000000000809256DEE4160A08040407046C
:10240C0006030100000000000000000000F80404B6
:10241C0000000001037E808000000000000000002E
:10242C000000000000FC00000000000000FF0000A5
:10243C00000000000003000000000404F80000008D
:10244C00000080807E0301000000000000000000FE
:10245C00000000000000000000000000000000026E
:10246C000101010102020201000000000000000055
:10247C00000000000000000000F808080808080828
:10248C00F80000FF000000000000FF000001010147
:10249C00010101010100AA55AA55AA55AA55280007
:1024AC00390A391E2828171E170A280000010307AD
:1024BC000F1F3F7FFF00535437353637204772616B
:1024CC0070686963732044656D6F0A466F6E742083
:1024DC0073616D706C65733A005374616E646172F4
:1024EC00642035783700417269616C2031340A0000
:1024FC00417269616C20426F6C6420313400436F0F
:10250C00757269657220377831340A00436F7572C1
:10251C0069657220426F6C642031340053637269B8
:10252C007074203139005661722E207465787420D5
:10253C0073706163696E673A0A00535437353637E6
:10254C002044656D6F0A0053543735363720446587
:10255C006D6F00536F6D65206C696E6520737479B7
:10256C006C65733A0046696C6C00496D6167652057
:10257C0077617320736176656420746F0A454550EA
:10258C00524F4D00436972636C6573202620617253
:10259C0063730052656374616E676C657320260A01
:1025AC0066696C6C65642062617200526F756E6452
:1025BC0065640072656374616E676C650050696573
:1025CC000A736C6963653A005075740A696D6167CA
:1025DC00650A66726F6D0A454550524F4D3A005070
:1025EC0075740A696E7665727465640A696D6167E3
:1025FC00650A66726F6D0A454550524F4D3A0000A0
:10260C0001002D4E414E00494E4600000100F027BE
:10261C000C260000F894EE27E8BFE9BFEABFF09162
:10262C00CC01F860F093CC01F8EDF4BFE093A2007C
:10263C00E0934004A0918000AD7FA160F4BFA09313
:10264C00800080E090E2A0E0B0E2ED930197E9F722
:10265C00E8E1F6E285919591009761F0A591B5912D
:10266C0005901590BF01F00105900D920197E1F7CF
:10267C00FB01F0CF8BBFE0E0E0B9E1B9E2B9E3B91F
:10268C00E4B9E5B9E6B9E7B9E8B9E9B9EAB9EBB93A
:10269C00ECB9EDB9EEB9EFB9EFEFEDBFEFE3EEBF8B
:1026AC00C0EDD7E20C9499131A930A930FB7F894D0
:1026BC00E0915000E460E0935000E0915100E47030
:1026CC00E1F3E0915000E260E0935000E0914100B2
:1026DC00E0781E2FE8EDE4BF10934100E091560026
:1026EC00EC7FE0935600E0916000E160E0936000C5
:1026FC00E0915100E270E1F3E0914000E87FE1608D
:10270C001E2FE8EDE4BF10934000E0915000E67EF0
:10271C00E0935000E091B400EC7FE093B4000FBF65
:10272C000991199108952897BFDFE4EFF1E0E88350
:10273C00F983E0E0EA83EB83EC83ED83EE81ED7FBC
:10274C00EE83EB7FEE83E860EE83EF78E066EE835A
:10275C00EE7FEE83EF77EE83EF81E07CEF61EF832A
:10276C00DE01D0D1A2ECB4E264D6E0E0EA93E4E17D
:10277C00EA93A5EEB4E24DD6E8EDF3E00E94FD221B
:10278C000E940223A2EFB4E244D6EEE7F8E00E94E6
:10279C00FD22ACEFB4E20E940723EAE7FDE00E94C1
:1027AC00FD22AAE0B5E20E940F23A8E1B5E241D6D2
:1027BC00E4E7F8E10E94FD220E940223A8E2B5E2C0
:1027CC0028D6A0EABFE00E941423E4EFF1E00E94B7
:1027DC00FD22A2E3B5E20E940F23A6E4B5E229D6BE
:1027EC00E2E00E941823A6E4B5E223D6E3E00E94BF
:1027FC001823A3E5B5E20E940723E1E00E94182309
:10280C00E4EFF1E00E94FD22AFE5B5E212D6E0E084
:10281C00EA93EAE0EA93EFE7EA93AAE08FD6E1E0E5
:10282C000E941C23E0E0EA93EFE0EA93EFE7EA93DF
:10283C00AFE084D6E1E00E942223E4E1EA93EFE7E3
:10284C00EA93A4E17BD6E2E00E942A23E9E1EA9331
:10285C00EFE7EA93A9E172D6E2E00E941C230E9402
:10286C000223EFE7EA93AEE169D6E2E00E9422236D
:10287C00E3E2EA93EFE7EA93A3E260D6E4E00E9496
:10288C002A23E8E2EA93EFE7EA93A8E257D6E4E0DA
:10289C000E941C23E0E0EA93EDE2EA93EFE7EA936F
:1028AC00ADE24CD6E4E00E942223E2E3EA93EFE7A8
:1028BC00EA93A2E343D60E9432230E943523E7E039
:1028CC00EA93AAEAB4E20E947D1CA8EEB3E00E944F
:1028DC004225E0E3EA93E8E1EA93A1E00E9450206C
:1028EC00EEE1EA93E1E1EA93A1E7B5E292D5E6E104
:1028FC00EA93E0E0EA93E5E2EA93E9E2EA93A1E005
:10290C00B0E0CED50E943C230E944323A6E7B5E25B
:10291C000E944823E5E10E944B23E5E10E945123EC
:10292C00E8E7F0E0FA93EA93AFE00E94081FE3E0D7
:10293C00E093D827EFEFE093D927EFE30E944B23E6
:10294C00EFE30E945123E2EDF0E0FA93EA93AFE05B
:10295C000E94081F0E944323A0E9B5E20E9448236D
:10296C00E1E00E942A230E945923E3E0E093D82758
:10297C00E3E3E093D927EAE2EA930E945923E2EADF
:10298C00F4E2FA93EA93A1E00E94ED1FEEE0EA93E1
:10299C00EDE1EA93E6E4EA93ACE20E943E200E9469
:1029AC004323AFE9B5E20E944823E5E0EA93EA93BA
:1029BC00EAE4EA93E6E2EA93A8E00E940F1CE0E165
:1029CC00EA93EA93A7EBB5E224D5E0E1EA93E8E1D8
:1029DC00EA93AFEBB5E20E9448230E943523A9ECA1
:1029EC00B5E227D5ECE3EA93E7E1EA93EEE1F0E018
:1029FC00FA93EA93ECE2F1E0FA93EA93A4E10E94F1
:102A0C00821F0E943223A4EDB5E20E946023A0E055
:102A1C001BD50E943223ABEEB5E20E946023A3E0EB
:102A2C0013D52896FFCF00000895FDDFE09108062E
:102A3C000895AA93EFEFE0930006E881E093040673
:102A4C00E0E2E0936606E0E8E0936606ECDFE0E89F
:102A5C000E946B2355C0AA93E8E0E0936606A88118
:102A6C00E8DF4EC01A93E091EF27A091ED27EA0F13
:102A7C001E2FE12FE295EF70E061AE2FECDFE12F1E
:102A8C00EF70AE2FE8DFE091EE27E06BAE2FE3DFC7
:102A9C0023C0AA93E981E093ED27E881E093EE2728
:102AAC00E1DF4AC5AA93E8E0E0936506A881C1DF9F
:102ABC0027C01A93E0E0E0930006E8E0E093650697
:102ACC000E947123E0E40E946B230E9471231E2F4D
:102ADC00E0E40E946B23E12F19910895AA93E981F8
:102AEC00EA93E9810E947923E4DF26C5AA93A881A1
:102AFC00A03410F0EFE3E883A1E8ADDFA881ABDFF1
:102B0C0021960895BA93AA930E94E827E0E4E093F3
:102B1C006106E0E8E0936106E0E4E0936506E0E836
:102B2C00E0936506E8E0E0936106E0E1E09361067E
:102B3C00E0936506E0E2E0936106E0936506E0E170
:102B4C00E0936606A2E0B0E00E944225E0E1E0934B
:102B5C006506EE81FF81309709F449C0E681E1708A
:102B6C0011F0E3EA01C0E2EA1E2FEE81FF81E6815B
:102B7C00E27011F0E1EA01C0E0EA0E2FEE81FF8174
:102B8C00E681E87011F0E8EC01C0E0EC3E2FEE813C
:102B9C00FF81E681E695E695E170E093EF27EE8103
:102BAC00FF81E681E295E7702E2FEE81FF81E681B1
:102BBC00EE1FE0E0EE1FE1704E2FEE81FF81E7810A
:102BCC00EF735E2FAE81BF810E9470270E94FD22A1
:102BDC00AE81BF8112960E947027E093E927F09393
:102BEC00EA27AE81BF8114960E94702713C012EAA7
:102BFC0000EA30ECE0E0E093EF2726E040E05FE114
:102C0C00E0E0F0E00E94FD22E0E0F0E0E093E92754
:102C1C00F093EA27E093EB27F093EC27A12F1BDF2F
:102C2C00E22FE062AE2F17DFA52F60DFAFE213DFDC
:102C3C00A8EF11DFA42F0FDFA02F0DDFA32F0BDFC9
:102C4C00A0E409DFAFEA07DF013A21F4A091EF27F6
:102C5C00A03009F002C0E4E001C0E0E0E093EF270F
:102C6C000E943C23E1E0E093D627E093D7270E9413
:102C7C003523E1E0E093E0270E947F23EFEFEA9316
:102C8C00A8E0B0E00E94EE2005D0E1E00E94EF2722
:102C9C00289608950E94EA2700E030E0E091D127C1
:102CAC00E03009F00FEF383078F4E0E0EA93A32F2E
:102CBC003F5FEFDE10E0A12F1F5FA03820F4A02FA4
:102CCC000E948423F8CFEFCFE0E0EA93A0E0E1DEAE
:102CDC00E0E0EA93A0E025D40E94F12764C5AA9312
:102CEC001A930A93AC81A03818F4AB81A03418F075
:102CFC00198108819CC3EC81EA93AC81EFDE1E2F15
:102D0C00B1DEEB81E770A1E00E9401270E2FEA8172
:102D1C00E03011F0102B03C0E02FE0951E23A12F03
:102D2C00C1DE1981088183C3AA93A981A03818F444
:102D3C00A881A03410F0E0E0FFC3E981EA93A981F7
:102D4C00CDDE1E2EE881E770A1E00E940127E12173
:102D5C0011F0E1E001C0E0E0EFC3AA931A93ED811A
:102D6C00EA93AD81BBDE1E2F7DDEE981E73011F0E9
:102D7C00E83039F4EB81EA93AA810E940921EB83B4
:102D8C0008C0E33021F4EB81E095EB8302C0E03026
:102D9C0021F4EA81E0951E2302C0E23029F4EA8195
:102DAC00AB81EA231E2B0EC0E13029F4EA81AB8102
:102DBC00EA231E2707C0E43029F4EA81E095AB81B1
:102DCC00EA2B1E23A12F0E94842318818DC3AA9362
:102DDC0023970E94E827A889A03848F4AF85A0342F
:102DEC0030F4AE85A03019F0AD85A03009F4CBC11C
:102DFC00EE85E887A889BB27EE85F0E0AE0FBF1FF4
:102E0C00A138E0E0BE0720F0A889E0E8EA1BEE87D5
:102E1C002D85AF85BB27ED85F0E0AE0FBF1FA1342C
:102E2C00E0E0BE0720F0AF85E0E4EA1BED87A98562
:102E3C00A63009F05BC0EC85E13009F4A4C1E330A5
:102E4C0039F4E091EB27F091EC27309709F49BC112
:102E5C000885ED85E695E695E6953E2FE22FE77021
:102E6C0019F4AD852A17E9F0A02FBB27E32FF0E06A
:102E7C000E943227AA85BB850E948C232695269515
:102E8C002695532F5F935F5FE22FAF91EA1748F0BF
:102E9C00102FE12F1150E03019F00E949123F9CF3F
:102EAC00F1CFAE850A1711F1EE85AA85BB85F0E04E
:102EBC000E948C23ED85E77009F03F5F20E02F9393
:102ECC002F5FE32FAF91AE1788F41E851F931F5F02
:102EDC00E02FAF91AE1718F40E949123F7CFEE8537
:102EEC00AE81BF81F0E00E948C23E9CFEF85E770C3
:102EFC003E2FED85E03009F446C1EA85FB85EE8373
:102F0C00FF8310E00889303009F068C0AD85A83027
:102F1C0008F45FC0E985E03011F0E33009F402C039
:102F2C00E73009F402C0E83009F402C0E93009F4D2
:102F3C0002C0EA3029F4E889EA93E8890E947923EF
:102F4C001F931F5FEE85AF91AE17E0F5A985A630F4
:102F5C0089F40E949E23FA93EA930A930395AB8912
:102F6C00BDDDAE2F0E945021E091ED27EF5FE09385
:102F7C00ED2727C0E985E93011F450E00EC0EA30A6
:102F8C0011F45FEF0AC00E949E230E94A7235E2FBC
:102F9C00E985E73011F0E83021F40E94AD235E2F73
:102FAC0006C0E33011F4509502C0E03021F4A52F97
:102FBC000E94842306C00E94B123EFEFEA93AD85F3
:102FCC00CCDEBECFEF85E85FEF87ED85E850ED876F
:102FDC00D1C05D8520E0E0E0ED877AC0E32FAD85C0
:102FEC00AE0FA93020F42D85E0E0ED8703C0E8E0BA
:102FFC00E31B2E2F3A93A22F0E94FE204E2FE98521
:10300C00E630F1F41F931F5FEE85AF91AE17B8F465
:10301C000E94B723AE2FE32F0E9409270E94BE23E4
:10302C00E32FA42F0E940927E095E1215E2B0E943B
:10303C009E23FA93EA93A52F0E945021E3CF2CC034
:10304C00E93011F450E003C0EA30A9F45FEF0E94BC
:10305C00AD23AE2FE32F0E9401275E2F1F931F5F1E
:10306C00EE85AF91AE1730F40E94B1234A93A0E0E5
:10307C0074DEF4CF11C01F931F5FEE85AF91AE17B6
:10308C0058F40E94C923AE2FE32F0E940127EA9324
:10309C004A93AD8562DEEFCFED85E03009F473C065
:1030AC00AD85A83028F4ED85E21B5E2FE0E003C06F
:1030BC00532FED85E850ED8710E0EF85E85FEF8743
:1030CC00E8E0E31B2E2F0889EA85FB85EE83FF835E
:1030DC00E52FF0E0E854FB4D4491E985E630F1F43E
:1030EC001F931F5FEE85AF91AE17B8F40E94B72304
:1030FC00AE2FE22F0E9401270E94BE23E22FA42FA5
:10310C000E940127E095E1215E2B0E949E23FA93F9
:10311C00EA93A52F0E945021E3CF2CC0E93011F483
:10312C0050E003C0EA30A9F45FEF0E94AD23AE2F4C
:10313C00E22F0E9409275E2F1F931F5FEE85AF9130
:10314C00AE1730F40E94B1234A93A0E006DEF4CF10
:10315C0011C01F931F5FEE85AF91AE1758F40E94FC
:10316C00C923AE2FE22F0E940927EA934A93AD851B
:10317C00F4DDEFCFE885AA85BB85F0E0EA0FFB1FF5
:10318C00EA87FB87B6CE0E94EF27619608950E94CE
:10319C00D6231CF0E0E0F0E0CFC1A881B981A038C3
:1031AC00E0E0BE071CF0EFE7F0E0C6C1E881F98172
:1031BC00C3C10E94D6231CF0E0E0F0E0BDC1A881A1
:1031CC00B981A034E0E0BE071CF0EFE3F0E0B4C13D
:1031DC00E881F981B1C1AA93E981EA93E981EA9383
:1031EC00A091D0277CDDA8C1AA93E981E093D627D2
:1031FC00E881E093D727A0C1AA931A93AA81A0389B
:10320C0018F4A981A03430F0E0E0F0E060E070E068
:10321C00188185C1E981E7701E2FE981E695E69555
:10322C00E695E983103011F0EF5FE983AA81BB27A3
:10323C0088279927E981FF27662777270E943A2755
:10324C00EC5FFF4F6F4F7F4F188169C1BA93AA9300
:10325C0023970E94DD238F01002E012A19F4E0E050
:10326C00F0E05FC00E94E4230F820E94E4230E82F0
:10327C000E94E4230886EB85A885EA1718F4E0E0A1
:10328C00F0E04FC0F8010F5F1F4F5491A885BB278A
:10329C00EE27A50FBE1FEB85F0E0EA17FB0718F031
:1032AC00E0E0F0E03EC0EE81E695E695E6954E2F27
:1032BC00EE81E77009F04F5FEF81E030A1F0A98556
:1032CC00BA85EC93A885EB85EA1BF0E0DF01EF8172
:1032DC00F0E00E943227DF01E42FF0E00E94322759
:1032EC00E00FF11F1EC09801E52FF0E00E0F1F1F1D
:1032FC00A885AF5FA887A150EB85AE1760F4F901E4
:10330C002F5F3F4FA491B0E0E42FF0E00E943227F2
:10331C000E0F1F1FEDCFF901E491A985BA85EC932F
:10332C00F8010E94EF272C960895E0E0E093D22755
:10333C00A091D327BB270E94E923F0E0AE0FBF1F5B
:10334C00E091D727F0E0AE0FBF1F33DFE093D32718
:10335C000895AA9321970E94DD23309709F454C055
:10336C00AF81AA3009F44CC0EF81EA93DE011796C5
:10337C006DDFAF01309719F40E94EF2748C2E0913E
:10338C00D627AE81EA0F3E2FA091D227BB27E32F81
:10339C000E94F0230138E0E01E0718F0032F1127DC
:1033AC00C4DF0E94F523E885EA930E94E923EA939F
:1033BC00E1E0EA935A934A93A7E009DDE091D22722
:1033CC00AE81EA0FEA93E091D327EA93E091D627F6
:1033DC00EA930E94E9230E94FC23E091D227EA930E
:1033EC00A091D3270E94E923EA0FEA933A93E09144
:1033FC00D7270E94FC23E0E8F0E0E017F10721F466
:10340C0094DF0E94EF2703C20093D2270E94EF277C
:10341C00FEC1BA93AA931A93EC81EA93AC8181D042
:10342C000E94062419F0A12F94DFFACF188125965B
:10343C000895BA93AA931A930E94062419F0A12F07
:10344C0088DFFACF18816BC0AA932497AC81A53082
:10345C0008F50E941024EA830E941024EB830E943A
:10346C001024E8830E941024E983E885EA93E88518
:10347C00EA93EC81EA93EB81EA93E2E0EA93EA8542
:10348C00FB85FA93EA93AB85A2DCEA81EA93A981E6
:10349C00B3DE04C0E0E0F0E060E070E0299608954F
:1034AC00BA93AA93EB81A881B981F0E00E94A82776
:1034BC00A881B9811296EA81F0E00E94A827ED81DB
:1034CC00EA93ED81EA93ED81EA93ED81EA93E2E0F0
:1034DC00EA93ED81FE813496FA93EA93A6E077DCC9
:1034EC00EB81EA93AB8188DE26960895AA93EA8154
:1034FC00EA93EA81EA93E091D927AA81EA2319F0A9
:10350C00E091D02702C0E091D127AE2FE8DBE88113
:10351C00EE0FE883E03011F4E1E0E883E8812396D4
:10352C000895AA93A981BB2732DEE093D227A88104
:10353C00BB273FDEE093D32722960895AA932B97BF
:10354C000E94E827AC89BB2722DEEC8BAA89BB271B
:10355C001EDEEA8BAB89BB272CDEEB8BA989BB2744
:10356C0028DEE98BEA89E093D227E989E093D32717
:10357C00E1E0E887E989AB89EA1771F51C89AA892A
:10358C001A1731F41A93EC89EA93A1E0AFDFC8C0A3
:10359C00AA891A1730F4EA89E11B0E2F41E050E09A
:1035AC0006C0AA89E12FEA1B0E2F4FEF5FEF3B8974
:1035BC00E0E0EE830E94192438F41A933A93339581
:1035CC00AA8594DFEF83F6CFEF81E887140FE02F05
:1035DC000150E03061F7A4C0EA89AC89EA1739F5EB
:1035EC003B89A9893A1730F4E989E31B2E2FE1E0D6
:1035FC00F0E006C0A989E32FEA1B2E2FEFEFFFEFB7
:10360C00ED87FE871C89E0E0EE830E94192430F4DC
:10361C001A9313950E942124EF83F7CFEF81E8874B
:10362C00ED853E0FE22F2150E03061F779C0E0E0EC
:10363C00EE830E94192408F073C01C893B89E1E0D9
:10364C002E2F0E2FAA89BB27EC89F0E0AE1BBF0BE7
:10365C00AD0155232AF40FEFFA010E94F526AF01B4
:10366C00FA01EE0FFF1FEF87F88BA989BB27EB89B7
:10367C00F0E0AE1BBF0BAD87BE87AE85AA233AF434
:10368C002FEFED85FE850E94F526ED87FE87ED85F3
:10369C00FE85EE0FFF1FEB87FC871A933A93A1E090
:1036AC0025DFE887E0E0E987EA87AD85BE854A1724
:1036BC005B07BCF0100FEB85FC850E942524A985C7
:1036CC00BA854A175B072CF4320FAF85B8890E9474
:1036DC002C241A930E942124E887EA89E11751F7D8
:1036EC0018C0320FEF85F8890E942524ED85FE85E0
:1036FC00A985BA85EA17FB072CF4100FAB85BC859E
:10370C000E942C241A930E942124E887E989E3174C
:10371C0041F7EB89EF5FEB8BE989EF5FE98B89CFA1
:10372C000E94EF2765960895AA930E94F523EB81DA
:10373C00EA93AB8103DF0C940721BA93AA930E94FE
:10374C00E827EE81FF81138101813281AE81BF8137
:10375C002C91011718F4502F012F152F231718F443
:10376C00522F232F352FE12FAE81BF811396EC936F
:10377C00E32FAE81BF811296EC93E02FAE81BF8117
:10378C001196EC93AE81BF812C930E94EF273FC022
:10379C00AA930E943324EB81AD81EA0FEA93EB816B
:1037AC00AD81AE0F02D024960895AA930E94EA2709
:1037BC00E091D827E1503E2FDE011496BEDFED815B
:1037CC00E31B1E2FEC81E31B0E2FEF81EA93EF819D
:1037DC00EA931A93A985B2DE1A93EF81EA931A93AE
:1037EC00A02FACDEED81EA930A93E32FA985EA0FB3
:1037FC00EA93A02FA3DEEF81EA93ED81EA93E985AA
:10380C00EA93E32FA985AE0F99DE0E94F127289643
:10381C000895AA9322970E94E827EA85E03019F0D0
:10382C00E985E03009F45EC0E885AC85EA0F1E2F0F
:10383C00E885AB85EA0F2E2FE091D827E150EF8376
:10384C00EA85AC85AE0FA1503A2FA885E32FEA1B71
:10385C000E2FAF813A1BE985AB85AE0FA1504A2FD5
:10386C00A885E42FEA1B5E2FAF814A1BE091D92774
:10387C00EE83EFEFE093D9271A93EC85EA93E02FD0
:10388C00E150EA93AE855ADE0A932A93EA85EA93CD
:10389C00A1E830D23A932A933A93A52FA1504EDE49
:1038AC000A935A93EA85EA93A8E824D20A934A9396
:1038BC001A93A42F43DE1A935A93EA85EA93A4E849
:1038CC0019D2EC85EA935A93EE85EA93A22F36DE51
:1038DC001A932A93EA85EA93A2E80CD2EE81E0933C
:1038EC00D92704C0EC85EA93AC8575DC01C3BA9387
:1038FC00AA93EA81E03011F40C944E21E881F9810D
:10390C00309711F40C944E210E9438243196A491D6
:10391C0008DEEA81E150EA83EF5F51F00E9438241F
:10392C003296E983FA8332973196A491FDDEF1CF7A
:10393C000C944E210E9488271A930A93AA81BB816A
:10394C008C819D810E94A0210E9481258F01F8010C
:10395C00AA81BB818C819D810E9421270E94B82560
:10396C000E943F24DF01CB010E94442410F00F5F22
:10397C001F4FF801198108810C94EC20BA93AA937B
:10398C002497E985FA85662777270E94B825A5E351
:10399C00BAEF8EE89CE30E944B24EC85F0E0FF9399
:1039AC00EF930E9450240E9434220E945324AF9122
:1039BC00BF91AE0FBF1FEBDBAE81BF81EC93EB85EC
:1039CC00F0E0FF93EF930E9450240E94B0210E94DC
:1039DC005324AF91BF91AE1BBF0BEBDBAC81BD8110
:1039EC00EC9388C2BA93AA9323970E94E827ED859B
:1039FC00E887E091D827EF83E091D027EE83AA895E
:103A0C00BB27EF850E94F023A989BB27E8890E9478
:103A1C005F24E8890E94662471F0E885E078F1F46F
:103A2C00AD85BE85EAE5F0E00E946E241CF00E9494
:103A3C0077240CF413C0332312F00E947C24AF8142
:103A4C00A23020F02230E0E03E070CF407C00E94C8
:103A5C00802421F40A93A22FA150BDDBE885E878DD
:103A6C00E83891F0E885E078C9F4AD85BE85A25FB1
:103A7C00BE4F0E9489243CF0AD85BE85A25FBE4F2F
:103A8C000E948E240CF40AC00E94932438F00E94E9
:103A9C009A2421F40A93A42FAF5F9DDBAA89BB273C
:103AAC00EF85F0E0AE1BBF0B8D0111230AF445C06E
:103ABC00E885E278E23891F0E885E07811F5AD859B
:103ACC00BE85A65ABF4F0E9489243CF0AD85BE85A9
:103ADC00A65ABF4F0E948E240CF413C0332312F04D
:103AEC000E947C24AF81A23020F02230E0E03E071F
:103AFC000CF407C00E94802421F40A93A22FA15039
:103B0C006ADBE885E478E43871F0E885E078A9F4BC
:103B1C00AD85BE85EEE0F1E00E946E241CF00E94A3
:103B2C0077240CF40AC00E94932438F00E949A2443
:103B3C0021F40A93A42FAF5F4EDBAA89BB27E88937
:103B4C000E94F023A989BB27EF850E945F24EF8593
:103B5C000E94662481F0E885E078F1F4EB85FC8521
:103B6C00AD85BE85AE17BF072CF0E985FA85EA173F
:103B7C00FB070CF411C033237AF00E947C24AF8134
:103B8C00A23050F0E02FEE5F0E94A32429F4E02F26
:103B9C00EF5FEA93A22F1FDBE885E878E83871F035
:103BAC00E885E078C1F4AD85BE85E8E6F1E00E94D9
:103BBC006E241CF00E9477240CF40DC00E949324F8
:103BCC0050F0E02FEE5F0E94AB2429F4E02FEF5F62
:103BDC00EA93A42F00DBAA89BB27E889F0E0AE1B8F
:103BEC00BF0B8D0111230AF450C0E885E278E2384E
:103BFC0071F0E885E07809F5AD85BE85E4EBF0E081
:103C0C000E946E241CF00E9477240CF416C03323FF
:103C1C00A2F00E947C24AF81A23020F00230E0E0C0
:103C2C001E070CF40AC0E02FE2500E94A32429F4D2
:103C3C00E02FE150EA93A22FCEDAE885E478E4385D
:103C4C0091F0E885E07809F5AD85BE85AC54BF4FA1
:103C5C000E9489243CF0AD85BE85AC54BF4F0E94B8
:103C6C008E240CF412C00E94932420F00230E0E069
:103C7C001E070CF40AC0E02FE2500E94AB2429F47A
:103C8C00E02FE150EA93A42FA6DA0E94EF27639667
:103C9C000895AA930E94EA27AF81BB27ED81F0E03B
:103CAC00AE1BBF0B74DA1E2FAF81BB27ED81F0E08A
:103CBC00AE0FBF1F6CDA0E2FAE81BB27EC81F0E08C
:103CCC00AE1BBF0B76DA3E2FAE81BB27EC81F0E04A
:103CDC00AE0FBF1F6EDA2E2F1A933A930A93A32FAF
:103CEC002DDC1A932A930A93A22F28DC0E94F12729
:103CFC000C946822AA930E94E827A985A03818F48E
:103D0C00A885A03418F00E94EF277AC05091D827CC
:103D1C00E52F5150E030C1F1EF81E03019F40E94F1
:103D2C00EF276EC0EF81E150EF830E94B324AE8188
:103D3C00A03459F40E94C3241A93A02FAADF0E9426
:103D4C00C3240A93A12FA5DF0FC00E94C3241A938A
:103D5C000A93EA85F0E0FA93EA93E0E0F0E0FA9354
:103D6C00EA93A0E0B0E03EDE1F5F33231AF4E12FAC
:103D7C00F0E002C00E94C824EE0FFF1F31962E0FF8
:103D8C003F1F0117A0F6C4CF0E94EF2739C0AA939A
:103D9C00EA81EA93EA81EA93EA81EA93AFE8AADF3F
:103DAC000C944E21BA93AA930E94EA27A985A038B5
:103DBC0018F4A885A03410F0E0E020C0AE81BF81DB
:103DCC000D911C91AC81BD812D913C91D801E8E6FF
:103DDC00F1E00E946D278F01D901E9E6F1E00E9424
:103DEC006D279F01AE81BF810D931C93AC81BD816A
:103DFC002D933C93F901D8010E942C270E94F127A6
:103E0C002A960895AA930E94E8270E94D124FE01C5
:103E1C003B96FA93EA93DE011B96C4DFE03009F47B
:103E2C0067C0EC85E093DA27EB85E093DB270E94F3
:103E3C00D124EB85FC85FA93EA93EA85EA93ECEDC1
:103E4C00F7E2FA93EA93ADEDB7E298DD0E94D12444
:103E5C000E94D624EA85EA93EEEDF7E2FA93EA9310
:103E6C00AFEDB7E28BDD5091D827E52F5150E03004
:103E7C0009F43EC0EE81E030D9F1E150EE830E94AE
:103E8C00B3240E94D1241A930A93E02FFF276627AC
:103E9C0077270E94B8250E948327E12FFF276627EA
:103EAC0077270E94B825DF01CB010E94A722A1EE43
:103EBC00BEE285E692E40E9442260E948125FA9396
:103ECC00EA93EF85F889FA93EA93AF85B8898ADD8E
:103EDC001F5F33231AF4E12FF0E002C00E94C824C4
:103EEC00EE0FFF1F31962E0F3F1F011750F6BDCF5F
:103EFC000E94EF272D960895AA9322971A930A935E
:103F0C00E091D827E1500E2F0E94DB24FE01399658
:103F1C00FA93EA93DE01199645DFE03009F453C0B9
:103F2C001091D927EFEFE093D9270E94DB240E9450
:103F3C00D6240E94D624AA8565DFE0E0EA83AF810F
:103F4C00B885A53BE0E0BE0708F00A830E94DB249D
:103F5C00E091DC27EA93A091DD27ED81AE1BEEDA30
:103F6C00E0E0EA83AD81BE81A53BE0E0BE0708F04E
:103F7C000A83E091DE27EA93A091DF27EB81AE1B49
:103F8C00AA93EC85EA93AC85D9DA0E94DB24EF8105
:103F9C00F885A985BA85AE0FBF1FFD01F695E7958B
:103FAC00FA93EA93E885E695EA93FE013896FA933C
:103FBC00EA93DE011996E2DC0E943324A091D0270B
:103FCC0069D01093D927198108812B960895AA934B
:103FDC000E947F23EB81FC81FA93EA93A8E0B0E086
:103FEC000E94DC20E881E093E0270C944E21AA93F8
:103FFC000E94EA27AF81A03818F4AE81A03420F0DB
:10400C000E94F1270C946822ED81E03019F0EC81CC
:10401C00E03009F429C03E81E32FAC81EA0FEC8338
:10402C00EF81AD81EA0FED83EC813E17E8F4E31BE1
:10403C002E2F293008F028E01F81ED811E1790F4F7
:10404C00E11B0E2F093008F008E01A933A930A93FB
:10405C002A93E0E0EA930E947F23A8E00E94ED16E9
:10406C00100FEBCF320FE0CF0E94F1270C94682297
:10407C00AA93DE0162DB0E943324AD81EB81EA1B43
:10408C00EF5FEA93AD81EB81EA1BEF5FAE2FAFDF01
:10409C000C94A522FF92AA93E0970E94E827A8AD62
:1040AC00A03818F4AFA9A03408F07BC0E091E02749
:1040BC004E2FAE2FEEA9EA1709F073C0FE0136960B
:1040CC008F01E8AD0E94E024EFA90E94E024FE01DC
:1040DC003696E017F10708F064C001501040D80183
:1040EC00EC91EFAB01501040D801EC91E8AF38AD3A
:1040FC00313040F00E94E52411F0451709F402C05C
:10410C003150F6CFE894F0F8F1F83F5F303808F012
:10411C0047C00E94E52411F0451709F441C03A93B9
:10412C00E8ADEA93A42F0E947516AFA9A130D0F088
:10413C00EFA9E1500E94ED2411F0451709F410C0CD
:10414C00F0FC0DC0FE01F6960E171F0750F5E32F7D
:10415C000E94E024E22F0E94E0246894F0F802C050
:10416C00E894F0F8AFA9AF33D0F4EFA9EF5F0E9459
:10417C00ED2411F0451709F410C0F1FC0DC0FE013F
:10418C00F6960E171F0768F4E32F0E94E024E22F27
:10419C000E94E0246894F1F802C0E894F1F8B5CFDD
:1041AC0096CF0E94EF27E996FF900895BA93AA93B1
:1041BC0099818881009641F0BD81AC81FB81EA81B7
:1041CC0005900D920197E1F7FD81EC8126960895FB
:1041DC00BA93AA93B981A881109631F0FC81EB8136
:1041EC006A8161931197E9F7EB81FC81259608951B
:1041FC00AA93E881F0E0E854FB4DA491E9810E9478
:10420C00012722960895AA931A93E981E73011F0B9
:10421C00EA3019F41091D02709C0E93019F4109143
:10422C00D12704C0E830A1F41091E027E091D12708
:10423C00E03049F0103019F0EFEF188129C0EA8115
:10424C00E095188125C0103019F4E0E0188120C0E9
:10425C00EA8118811DC0BA93AA93EA81E13021F456
:10426C00E881F981E49114C0E23029F4A881B98184
:10427C000E949F270DC0E33041F4A881B981E091E1
:10428C00E927F091EA27099503C0A881B981EC913F
:10429C0023960895AA93EB81E03029F4E881A98153
:1042AC00BA81EC9314C0E23031F4E881A981BA816F
:1042BC000E94B0270CC0E33051F4E981FA81FA93E3
:1042CC00EA93AA81E091EB27F091EC2709950C94E5
:1042DC00A5220E9488277B816A81F981E88177FB7E
:1042EC00770F67FD7160972F9E5781F078F09831AA
:1042FC0090F4AA27BB27882708948795B795A7958C
:10430C009A95D1F7EA23FB23682305C0E894772715
:10431C00EE27FF2766276F77769508F4606877F9A4
:10432C00A991B99189919991EA17FB0768077907C7
:10433C0097FB08950E94F6240E946F210E947E270D
:10434C0019F40E94F924FBC0E6F70E94FC240E9499
:10435C00EB25F5C00E94882724971A9310E00E9441
:10436C000225E3E8F9EF62E27EE30E9442260E9416
:10437C000725E0DF0E9402250E943F240E940725AA
:10438C000E94442409F008F409C00E940C25A0E006
:10439C00B0E080E09FE30E94112511E00E9402250D
:1043AC00E0E0F0E060E87EE30E94D52609F008F436
:1043BC0008C00E940225E0E0F0E060E07FE30E948C
:1043CC001125103041F00E940C250E944C25ED83E4
:1043DC00FE836F8378870E940C250E9402250E9421
:1043EC004226E983FA836B837C83A1EBB4EC86E2EF
:1043FC0092E40E944226DF01CB01EDE1F5EE6DE285
:10440C0072E40E943F240E941825ACE4B3E584E0DA
:10441C0091E40E94F2250E9402250E9442267F937D
:10442C006F93FF93EF93E981FA816B817C81A1E11A
:10443C00BDEE8EED9FE30E94F2250E941825AEE59D
:10444C00BBE788EA9FE30E94F225AF91BF918F9161
:10445C009F910E9490261881299608950E94F62417
:10446C00EBEDFFE069EC7FE30E94EB25DF01CB0174
:10447C0071DF65C00E941F250E9427250E944B24D6
:10448C000E94F924A5E6B0ED8BEC90E40E942C255B
:10449C000E9427250E9442267F936F93FF93EF93F0
:1044AC000E94F924A0E0BDE689E291E40E94F22585
:1044BC000E9450240E942C25AF91BF918F919F9107
:1044CC000E949026289608950E94F624EDECF3E1C4
:1044DC0064ED7EE30E94D52620F40E945024CADFAE
:1044EC002EC00E945024EAE7F2E86AE170E40E94D0
:1044FC00D52609F008F40BC00E94FC240E94352537
:10450C00ABEDBFE089EC9FE30E943F2418C00E94F2
:10451C00FC240E94EB257F936F93FF93EF930E94F3
:10452C00FC240E94F225AF91BF918F919F910E9424
:10453C003525ABEDBFE089E49FE30E94F22524967C
:10454C0008950E941F250E94DA27E9F4E885F98571
:10455C006A857B850E94DA2729F4EFEFFFEF6FE77E
:10456C007FE743C0A885B9858A859B850E94E22791
:10457C002CF4EBEDFFE069EC7FE337C0EBEDFFE0F3
:10458C0069EC7FEB32C0EC81FD816E817F81A88567
:10459C00B9858A859B850E9490260E947E270E9461
:1045AC0027250E94E22764F4AB85AA2322F00E94FF
:1045BC0050248ADF1AC00E943B250E944C2515C04E
:1045CC00AB85AA234AF00E943B25ABEDBFE089E402
:1045DC0090E40E943F2409C00E94502475DFABED8B
:1045EC00BFE089E490EC0E94F2252C960895E093AC
:1045FC00D427F093D5270895E0E0EA93EEE1EA930F
:10460C0008950E941F1AA0EABFE00E9442250C9454
:10461C0050160E941F1AEEEBF2E1E9CF0E944225E0
:10462C000C945016EA93A1E00C94FA18E093D82756
:10463C00E5E5E093D9270895E093D827E3E3E093E9
:10464C00D927E0E0EA930895E093D827EFEFE093C1
:10465C00D927E0E0EA930895A8EBBBE0DFCFE1E0D7
:10466C00E093D827EFEFE093D9270895E1E0E093AA
:10467C00D027E0E0E093D1270895E0E0EA93EFE261
:10468C00EA9308950E940F1AE7CFEA93E7E1EA93C1
:10469C00A4E10C94CD1EEA93E7E1EA93E0E0F0E0AC
:1046AC00FA93EA930895E0E0EA93E8E2EA93A9E149
:1046BC000C94CE1B0E941F1AE8E3EA93E0E0EA9305
:1046CC00E1E0F0E0FA93EA930895E0936506E0E206
:1046DC00E09365060895E0E2E0936606E0E4E0937B
:1046EC0066060C941B15E695E695E695AE2F0C9494
:1046FC004F15E1EEF7E2FA93EA9308950E945815EC
:10470C00E091ED27EF5FE093ED270895EA0FFB1F93
:10471C00EE83FF830895EC85EA93EF81F88531965B
:10472C00EF83F8873197FA93EA93A0E00C94502129
:10473C00EC85EA93EF81F8853196EF83F887319712
:10474C00089566277727DF01CB010C9431215A930A
:10475C00AA850C9409210A930395E889EA935A9344
:10476C0008950A930395A8890E947415E42308956B
:10477C005E2FEC85EA93AF81B885882799270E9434
:10478C0031211E2E08950A930395E889EA93EE854C
:10479C00EA93E985FA853196E987FA873197D1CF83
:1047AC00BA93AA93A881B9810E94DE2708950E942A
:1047BC00E827E091D427F091D5270895F8010F5FF1
:1047CC001F4F04900895E091D427F091D52731968E
:1047DC00E4910895F0E0EA0FFB1F8F010895E0913A
:1047EC00D227EA93E091D327EA930895EA93E0E085
:1047FC00EA93E0E0F0E0FA93EA93A9E00C94ED166A
:10480C00E981FA813196E983FA833197E4911E2F7D
:10481C00E0300895AD81BE811196AD83BE831197B2
:10482C000E949F270895AE81AF5FAE83A150E091A7
:10483C00D827AE1708953A93AA850C947C1AA985AB
:10484C00BA85EA0FFB1FE987FA870895E985FA858F
:10485C00EA1BFB0BE987FA870895EB81EA93EB815E
:10486C00EA930895E881F981E491EA93E981FA8168
:10487C0008950E9492270E94EB250895E0E0F0E055
:10488C0060E07FE30E94D52608950E9442260E9494
:10489C007E2708950E9479270895A885BB2788272D
:1048AC0099270E948F270E944226DF01CB010C948E
:1048BC00A01CF0E0AE1BBF0B9D01A989BB2708957E
:1048CC00F0E0EA0FFB1FAF01E885E178E1380895CD
:1048DC00EA1BFB0B0F01DF01EB85FC85AE17BF0755
:1048EC000895E985FA85E015F10508950A93A22F3C
:1048FC000C94F1180A93A22FA2500E949A16AE2F74
:10490C00EE81EA170895EB85FC85AE17BF07089575
:10491C00E985FA85EA17FB0708950A93A42F0E94EC
:10492C00F118AF81A23008950A93A42FAE5F0E94B4
:10493C009A16AE2FEE81EA170895EA93A22F0E94E1
:10494C009A16AE2FEE81EA170895EA93A42F0E94CF
:10495C009A16AE2FEE81EA170895EF5F0E2FE02F17
:10496C00F0E0A5E0B0E0AE1BBF0BFD010E941127EB
:10497C000E9416279F0110E00895E985EA93E985C6
:10498C00EA9308950150A12FBB27E02FF0E0AE1B56
:10499C00BF0BFD010895EC85EA93EC85EA9308952D
:1049AC00E985FA85FA93EA930895EA85EA93EA850C
:1049BC00EA930895D801EC930F5F1F4F08953A9333
:1049CC00A8AD0E949A165E2FEEA9E51708952E2F1A
:1049DC003A93A22F0E949A165E2FEEA9E51708951E
:1049EC000E94882757CF0E9474270895FCDFA0E00F
:1049FC00B0E080E89FE30895AD81BE818F819885FA
:104A0C000895ED83FE836F837887F6CFED81FE8169
:104A1C006F81788508950E94EB25ED83FE836F836B
:104A2C0078870895A981BA818B819C810E94422646
:104A3C0008950E9488272497EC81FD816E817F81E7
:104A4C000895AC81BD818E819F8108950E9442267C
:104A5C00AEE4BFE88AE491E40E94F22508950E9436
:104A6C009026DF01CB010C944022BDDF0E944C2527
:104A7C00DF01CB010C946A22109639F080E49FE19F
:104A8C000197F1F7A8951197C9F7089530976040F1
:104A9C00704009F070580895552342F4503811F4C1
:104AAC00E0FF04C03196691F791F6BF050E857275F
:104ABC0011F45F93CFC05F3F31F0660F000C579538
:104ACC006795752F08955F9300200AF0CFC0C8C07A
:104ADC0050E8192E1522880F991F9527550F879589
:104AEC0050E8072E0522660F771F7527550F67951F
:104AFC000895689401C0E8945F93F2DF703818F061
:104B0C007F3F08F4A7C056E1571BAAF451955830C3
:104B1C000EF4593030F0EFEFFFEF6FEF7FE777F9DE
:104B2C001AC077275523B9F0EE0FFF1F661F771FAA
:104B3C005A95D1F710C07727583028F0EF2FF62F61
:104B4C00672F5850F9CF552331F076956795F79527
:104B5C00E7955A95D1F700200AF445D15F91089555
:104B6C00689401C0E894309760407040B1F0002424
:104B7C0026F0772312F4009436D1172E7EE1112003
:104B8C0032F07A95EE0FFF1F661F111CF9CFEF2F35
:104B9C00F62F612D5F938ADF5F9108954F93AF01DC
:104BAC00FD01DA01AB01BC01CA01402D012C142E10
:104BBC004F910895EA0FFB1F681F0895E095F0953B
:104BCC006095EF5FFF4F6F4F08955F9381DF9038D3
:104BDC0071F150E8152604C05F937ADF903839F1F3
:104BEC00703821F1572F591B2BF112F4D7DFFACF64
:104BFC00583118F0AA27BB278827583028F0AB2F3C
:104C0C00B82F88275850F9CF552329F08695B7959A
:104C1C00A7955A95D9F7502D512572F0CBDF38F462
:104C2C006795F795E795739513F420C0B7DF3EDFD2
:104C3C005F910895D8F7FBCFEA1BFB0B680B51F083
:104C4C0010F40094BBDF662392F3EE0FFF1F661F78
:104C5C007A95CBF7EE27FF27662777275F91089584
:104C6C00EFEFFFEF6FE77FEF5F910895EFEFFFEF4F
:104C7C006FE77FE75F9108955F932ADF703851F3F8
:104C8C00903841F301240894791F23F41CF300207D
:104C9C003AF3ECCF0F921F932F933F934F9311271F
:104CAC0022279927689FA0018F9F302D410D591FF6
:104CBC006B9F300D411D591F8E9F27D0BF9F25D054
:104CCC006A9F23D0BE9F1DD0AF9F1BD0AE9F110DEE
:104CDC00291F391F491F591FE32FF42F652F522FFE
:104CEC004F913F912F911F910F9066232AF0550FF2
:104CFC00EE1FFF1F661F02C073954BF2CDDE5F9156
:104D0C000895100D211D391F02C0200D311D491FA2
:104D1C00591F08955F93DCDE703821F411200AF4DA
:104D2C009FCFA4CF903809F495CF01240894970B0A
:104D3C001BF4D4F30020F3CF792F1F932F933F93C1
:104D4C004F9311241127222733274427552790E20C
:104D5C00AE17BF078607410730F0AE1BBF0B860BA3
:104D6C00410B089401C08894551F221F331F111C3E
:104D7C00AA1FBB1F881F441F9A9551F7F901612D7B
:104D8C004F913F912F911F91662332F0550FEE1FDB
:104D9C00FF1F661F7A9543F27FDE5F91089599237A
:104DAC009AF0772342F0971748F029F4AE17BF0713
:104DBC00860720F031F0989488940895989408947C
:104DCC0008951894889408957723C2F7971798F349
:104DDC00A9F7EA17FB07680788F399F3ECCFF1956D
:104DEC00E195F0400895F09560957095E195FF4F31
:104DFC006F4F7F4F0895EE230E2EEA2F19F0EE0F12
:104E0C000A94E9F70895EE230E2EEA2F19F0E69591
:104E1C000A94E9F70895EE0FFF1FEE0FFF1F089598
:104E2C00F595E795F595E7950895FE2FFF0FFF0B88
:104E3C006F2F7F2F08956F2F660F660B762F0895B7
:104E4C00BA2FBB0FBB0B8B2F9B2F0895EA17FB07B9
:104E5C00E1E008F4EE270895FA9FF02DEB9FF00D9A
:104E6C00EA9FE02DF10D08957A9F702D6B9F700DC8
:104E7C00F89F700DE99F700D6A9F602D710DFB9F5F
:104E8C00600D711DE89F600D711D8827FA9FF02D34
:104E9C00610D781FEB9FF00D611D781FEA9FE02DCF
:104EAC00F10D681F781F08950024112490E1AA0FBA
:104EBC00BB1F001C111C0E1A1F0A18F40E0E1F1E0D
:104ECC0001C0A1609A9599F7FD01D0010895ECDF1E
:104EDC00FD010895ED91FC9111970895E881F981F8
:104EEC006A817B810895A881B9818A819B8108950B
:104EFC00E883F9836A837B8308957A936A93FA93A0
:104F0C00EA9308959A938A93BA93AA93089568940E
:104F1C0001C0E89401D027DE182E862F612D192EA2
:104F2C00972F712D1B2EBF2FF12D1A2EAE2FE12D89
:104F3C000895A895E091CF01E7FDFBCFB05FEC9110
:104F4C00B051089507D01196EF93EF2F03D0EF9146
:104F5C001197089523D0B05F8C918E1711F4B05136
:104F6C0008959E2F1BD07F937FB7F8949C93B051DC
:104F7C00A093C001B093C10180E08093C20185E38E
:104F8C008093CA0188ED91E084BF9093CB0106D049
:104F9C0080E08093CA017FBF7F910895A89580918E
:104FAC00CF0187FDFBCF0895309760407040089586
:104FBC0000240A160B06089500240A160B06080690
:104FCC00090608955A934A933A932A931A930A938B
:104FDC0008955D814C813B812A8119810881089556
:00000001FF
