:020000000C945E
:10000200B6140C9400000C9400000C9400000C94A4
:1000120000000C9400000C9400000C9400000C945E
:1000220000000C9400000C9400000C9400000C944E
:1000320000000C9400000C9400000C9400000C943E
:1000420000000C9400000C9400000C9400000C942E
:1000520000000C9400000C9400000C9400000C941E
:1000620000000C9400000C9400000C9400000C940E
:1000720000000C9400000C9400000C9400000C94FE
:1000820000000C9400000C9400000C9400000C94EE
:1000920000000C9400000C9400000C9400000C94DE
:1000A20000000C9400000C9400000C9400000C94CE
:1000B20000000C9400000C9400000C9400000C94BE
:1000C20000000C9400000C9400000C9400000C94AE
:1000D20000000C9400000C9400000C9400000C949E
:1000E20000000C9400000C9400000C9400000C948E
:1000F20000000C9400000C9400000C9400000C947E
:1001020000000C9400000C9400000C9400000C946D
:1001120000000C9400000C9400000C9400000C945D
:1001220000000C9400000C9400000C9400000C944D
:1001320000000C9400000C9400000C9400000C943D
:1001420000000C9400000C9400000C9400000C942D
:1001520000000C9400000C9400000C9400000C941D
:1001620000000C9400000C9400000C9400000C940D
:1001720000000C9400000C9400000C9400000C94FD
:1001820000000C9400000C9400000C9400000C94ED
:1001920000000C9400000C9400000C9400000C94DD
:1001A20000000C9400000C9400000C9400000C94CD
:1001B20000000C9400000C9400000C9400000C94BD
:1001C20000000C9400000C9400000C9400000C94AD
:1001D20000000C9400000C9400000C9400000C949D
:1001E20000000C9400000C9400000C9400000C948D
:1001F2000000050720600000000000000004040465
:10020200040400040A0A0A000000000A0A1F0A1F66
:100212000A0A041E050E140F040313080402191817
:10022200060905021509160604020000000008046A
:10023200020202040802040808080402000A041F59
:10024200040A000004041F04040000000000060465
:10025200020000001F00000000000000060600006F
:100262001008040201000E11191513110E040604E0
:100272000404040E0E11100804021F1F08040810C3
:10028200110E080C0A091F08081F010F1010110E89
:100292000C02010F11110E1F1008040202020E11AE
:1002A200110E11110E0E11111E1008060006060085
:1002B20006060000060600060402100804020408EE
:1002C2001000001F001F0000010204080402010EBA
:1002D2001110080400040E11101615150E0E11113E
:1002E200111F11110F11110F11110F0E1101010127
:1002F200110E070911111109071F01010F01011F39
:100302001F0101070101010E11010119110E111145
:10031200111F1111110E04040404040E1C08080814
:10032200080906110905030509110101010101016D
:100332001F111B1511111111111113151911110E84
:1003420011111111110E0F11110F0101010E1111D5
:10035200111509160F11110F0509111E01010E10B9
:10036200100F1F0404040404041111111111110EC1
:1003720011111111110A0411111115151B1111116D
:100382000A040A111111110A040404041F100804BA
:1003920002011F1C04040404041C000102040810CE
:1003A2000007040404040407040A1100000000000A
:1003B20000000000001F0204080000000000000E00
:1003C200101E111E01010D1311110F00000E01016B
:1003D200110E1010161911111E00000E111F010E20
:1003E2000C12020702020200001E111E100C010173
:1003F2000D131111110400060404040E08000C0868
:100402000809060202120A060A1206040404040477
:100412000E00000B1515111100000D131111110022
:10042200000E1111110E00000F110F010100001634
:10043200191E101000000D1301010100000E010E23
:10044200100F0202070202120C00001111111916FC
:1004520000001111110A040000111115150A000003
:10046200110A040A11000011111E100E00001F08CB
:1004720004021F080404020404080404040404041B
:100482000402040408040402021508000000001F0C
:1004920011111111111F000E206005020406060A37
:1004A20007020404040603040303060606060606FE
:1004B200060606060303060606060B0807070706D6
:1004C20006080702050706080708060807070607C1
:1004D200080B0708070303030506040606060606BB
:1004E20004060602020502080606060604060306BC
:1004F200060A0606060402040608000000000000C0
:1005020000000000000000000000000101010101E4
:1005120001000100000000000005050500000000C8
:100522000000000000000014141F0A0A1F05050045
:1005320000000000000E15050E1414150E04000034
:100542000000000000004600290029001600D0002B
:1005520028012801C4000000000000000000000C77
:1005620012120C0A31112E000000000000010101DC
:100572000000000000000000000000040201010170
:100582000101010204000000000102040404040449
:100592000402010000000002070205000000000042
:1005A2000000000000000004041F0404000000001A
:1005B2000000000000000000000002020200000033
:1005C2000000000000000700000000000000000022
:1005D200000000000000020000000000000404020D
:1005E20002020201010000000000000E11111111AF
:1005F20011110E00000000000004060504040404AA
:10060200040000000000000E1110100804021F0078
:1006120000000000000E11100C1010110E0000005E
:10062200000000080C0A0A091F0808000000000068
:10063200001E02010F1010110E0000000000000E3B
:1006420011010F1111110E0000000000001F080817
:1006520004040202020000000000000E11110E113B
:1006620011110E0000000000000E1111111E1011D8
:100672000E00000000000000000100000000010068
:100682000000000000000001000000000101010064
:100692000000000000100E010E100000000000001B
:1006A200000000001F001F0000000000000000000A
:1006B20000010E100E01000000000000000E1110DB
:1006C2000804040004000000000000000000F8001C
:1006D2000601B202C902450245026501D9000202C1
:1006E200FC01000000000008141414223E414100E5
:1006F20000000000001F21213F2121211F000000D6
:100702000000001C2201010101221C000000000067
:10071200000F1121212121110F0000000000001FF4
:1007220001011F0101011F0000000000001F010163
:100732000F010101010000000000001C22410171B3
:1007420041221C0000000000002121213F21212123
:10075200210000000000000101010101010101006E
:100762000000000000080808080809090600000047
:100772000000002111090D0B1111210000000000E1
:1007820000010101010101011F0000000000004100
:100792006363555555494900000000000021232597
:1007A20025292931210000000000001C224141417D
:1007B20041221C0000000000000F1111110F010165
:1007C200010000000000001C2241414159225C004E
:1007D20000000000001F21211F091111210000004B
:1007E2000000001E2101061820211E00000000004A
:1007F200001F04040404040404000000000000219B
:100802002121212121211E0000000000004141225E
:100812002214140808000000000000000000210457
:100822005104520252028A028A02040104010000A7
:10083200000000000000002112120C0C1212210014
:1008420000000000004122221408080808000000ED
:100852000000003E1008080404023F0000000000EF
:100862000003010101010101010103000000000177
:10087200010202020204040000000000000302025E
:100882000202020202020300000000040A0A11002E
:100892000000000000000000000000000000000056
:1008A20000003F0000000001020000000000000004
:1008B200000000000000000E111E111916000000B9
:1008C20000000001010D131111130D0000000000C2
:1008D2000000000E110101110E00000000000010C6
:1008E2001016191111191600000000000000000E68
:1008F200111F01110E000000000000040207020295
:100902000202020000000000000000161911111975
:1009120016100F0000000001010D1311111111003A
:1009220000000000000100010101010101000000BE
:1009320000000002000202020202020201000000A4
:10094200000101090503050509000000000000017E
:100952000101010101010100000000000000003D51
:100962004B4949494900000000000000000F1111E5
:1009720011111100000000000000000E11111111F0
:100982000E00000000000000000D131111130D01F4
:1009920001000000000000161911111916101000B4
:1009A2000000000000050301010101000000000039
:1009B2000000000E110608110E00000000000002E7
:1009C20002070202020206000000000000000011FD
:1009D2001111111916000000000000000011110A87
:1009E2000A040400000000000000000000000000F3
:1009F20011012901AA00AA004400440000000000DD
:100A020000000000000000110A04040A11000000A6
:100A1200000000000011110A0A0404040200000090
:100A22000000001F080404021F0000000000000470
:100A3200020202010202020204000000000101019E
:100A42000101010101010100000000020404040887
:100A5200040404040200000000000000170D00005E
:100A620000000000000000007E42424242427E003E
:100A72000000000E206005030506060908030404B1
:100A82000406030403030606060606060606060611
:100A92000303060606070B080708070606080703EE
:100AA2000607070A0708070807070707080B0808C9
:100AB20007040304060604060706070705070703DB
:100AC2000307030B0707070705070507070A0707B9
:100AD20006040304060800000000000000000000F5
:100AE20000000000000000030303030300030300EF
:100AF20000000000001B1B1B0000000000000000A3
:100B020000000024243F12123F09090000000000E7
:100B1200040E15050F1E14150E040000000000003F
:100B220000002700250015001700E800A800A40017
:100B3200E4000000000000000000001C36360C5EDD
:100B420073337E0000000000000303030000000076
:100B52000000000000000004060303030303020672
:100B6200040000000001020206060606020301005C
:100B72000000000207020500000000000000000063
:100B820000000004041F0404000000000000000034
:100B9200000000000003030201000000000000004A
:100BA200000007000000000000000000000000003C
:100BB200000303000000000000040402020202011C
:100BC200010000000000000E1B1B1B1B1B1B0E0064
:100BD20000000000000C0E0F0D0C0C0C0C000000AD
:100BE2000000000E1B18180C06031F000000000076
:100BF200000E1B180C18181B0E0000000000001835
:100C02001C1A1A193F18180000000000001E0603E3
:100C12000F19181B0E0000000000000E1B030F1B13
:100C22001B1B0E0000000000001F180C0C0606061D
:100C3200060000000000000E1B1B0E1B1B1B0E00FB
:100C420000000000000E1B1B1B1E181B0E000000E4
:100C52000000000000030300000303000000000086
:100C62000000000303000003030201000000000073
:100C7200100C03030C100000000000000000000034
:100C82001F001F00000000000000000001061818ED
:100C92000601000000000000001C3630180C000C99
:100CA2000C000000000000000000F8000601FA023B
:100CB200C902450245026501FA000603F800000078
:100CC20000000038386C6C6CFEC6C60000000000E4
:100CD200001F33331F3333331F0000000000003C7A
:100CE2006603030303663C0000000000001F333369
:100CF200333333331F0000000000001F03031F03C0
:100D020003031F0000000000001F03031F0303036F
:100D1200030000000000003C6603037363663C00AE
:100D220000000000003333333F333333330000001D
:100D32000000000303030303030303000000000099
:100D4200001818181818181B0E00000000000033B5
:100D52001B1B0F1F1B3333000000000000030303A3
:100D6200030303033F000000000000000000C7016E
:100D7200C701EF01EF01AB01BB01BB019301000011
:100D820000000000000000333337373B3B333300B1
:100D920000000000001C3663636363361C00000021
:100DA2000000001F3333331F030303000000000061
:100DB200001C366363636B363C4000000000001F7A
:100DC2003333331F1B33630000000000001E330364
:100DD2000F3C30331E0000000000003F0C0C0C0CD6
:100DE2000C0C0C0000000000003333333333333378
:100DF2001E0000000000006363363636361C1C00FD
:100E0200000000000000000023067306760356036C
:100E12005603DE038C018C0100000000000000007C
:100E22000066663C18183C6666000000000000661A
:100E320066243C181818180000000000003F301803
:100E42000C0C06033F00000000000007030303032D
:100E5200030303030700000000010102020202046F
:100E62000400000000000007060606060606060645
:100E72000700000000040E0A1B0000000000000032
:100E82000000000000000000000000003F00000021
:100E92000003060000000000000000000000000047
:100EA200000E191E1B1B1E00000000000003031F82
:100EB200333333331F00000000000000000E1B0319
:100EC200031B0E00000000000030303E333333338A
:100ED2003E00000000000000001E333F03331E00EE
:100EE20000000000001C060F0606060606000000B1
:100EF20000000000003E333333333E311E00000059
:100F02000003031F333333333300000000000003B8
:100F120000030303030303000000000000060006B1
:100F220006060606060603000000000303331B0F35
:100F32001F1B33000000000000030303030303032D
:100F42000300000000000000000000000000FF019C
:100F52003303330333033303330300000000000081
:100F620000000000001F3333333333000000000061
:100F72000000001E333333331E0000000000000067
:100F8200001F333333331F03030000000000003E11
:100F9200333333333E30300000000000000F0303D0
:100FA20003030300000000000000001E330F3C3367
:100FB2001E00000000000004060F060606060C00D4
:100FC2000000000000000033333333333E000000E2
:100FD2000000000000363636361C1C0000000000FF
:100FE20000000000000000009301BB01BB01EE0005
:100FF200EE00C60000000000000000000000003605
:10100200361C1C3636000000000000000063363635
:10101200361C1C0C070000000000001F180C060301
:101022001F0000000000000C060606060306060666
:101032000C0000000002020202020202020202008E
:1010420000000003060606060C0606060300000062
:101052000000000016090000000000000000007EF1
:101062004242424242427E000000070E20600000DF
:10107200000000000000000000000000000000006E
:101082000808080808000800000000000000141406
:1010920014000000000000000000000028143E14AC
:1010A200143E140A000000000000081C020C100E7E
:1010B2000404000000000000040A041E08140800D2
:1010C200000000000000001804041A123C00000096
:1010D20000000000080808000000000000000000F6
:1010E200000010100808080810100000000000009E
:1010F2000404080808080404000000000000083E78
:101102000814000000000000000000000808083E6B
:1011120008080800000000000000000000000000B5
:10112200180C0400000000000000003E0000000057
:101132000000000000000000000000000C000000A1
:101142000000000020101008080404020000000043
:1011520000001C22222222221C00000000000000AB
:101162000C08080808083E000000000000001C22CD
:10117200100804023E000000000000001C2220189B
:1011820020221C00000000000000101814123E1063
:1011920038000000000000003C04041C20221C0057
:1011A2000000000000003804021E22221C00000081
:1011B200000000003E22201010080800000000007D
:1011C20000001C22221C22221C0000000000000041
:1011D2001C22223C20100E00000000000000000033
:1011E2000C0000000C0000000000000000001800CD
:1011F20000180C040000000000000020180618204F
:10120200000000000000000000003E003E00000060
:1012120000000000000000020C300C020000000080
:10122200000000000C12100808000C000000000072
:1012320000001C22322A2A32023C00000000000078
:101242000C0814141C2277000000000000001F226A
:10125200221E22221F000000000000003C22020287
:1012620002221C000000000000000F1222222212A3
:101272000F000000000000003E24141C14243E0055
:101282000000000000003E24141C14040E000000A4
:10129200000000003C22020272221C00000000003A
:1012A20000007722223E2222770000000000000088
:1012B2003E08080808083E000000000000003C103C
:1012C200101012120C000000000000007722120E13
:1012D200122267000000000000000E04040424240F
:1012E2003E000000000000007736362A22227700F6
:1012F2000000000000007726262A2A32370000006C
:10130200000000001C22222222221C0000000000F9
:1013120000001E2424241C040E0000000000000013
:101322001C22222222221C380000000000001E245F
:1013320024241C244E000000000000002C32021C59
:1013420020221E000000000000003E2A08080808B3
:101352001C000000000000007722222222221C0032
:101362000000000000007722221214140C0000007A
:101372000000000077222A2A2A2A14000000000016
:101382000000632214081422630000000000000021
:101392007722140808081C000000000000003E220A
:1013A200100804223E00000000000000180808088F
:1013B20008080818000000000000020404080808D9
:1013C20010100000000000000C0808080808080CB3
:1013D20000000000000008142200000000000000CD
:1013E200000000000000000000000000007F00007C
:1013F20000000408000000000000000000000000DF
:1014020000001C223C227E000000000000000302BB
:101412001A2622221F0000000000000000003C22C9
:1014220002023C0000000000000030202C32222288
:101432007C0000000000000000001C223E023C0074
:1014420000000000000030083C0808083C000000D2
:101452000000000000006C3222223C201C00000030
:10146200000003021A26222277000000000000007A
:1014720008000E0808083E000000000000000800F6
:101482001E10101010100E000000000003023A128D
:101492000E123B000000000000000C0808080808BB
:1014A2003E000000000000000000172A2A2A7F00E8
:1014B20000000000000000001B262222770000002E
:1014C2000000000000001C2222221C00000000007C
:1014D200000000001B2622221E020700000000005E
:1014E20000006C3222223C2070000000000000004C
:1014F200360C04041E0000000000000000003C0244
:101502001C201E0000000000000000021F02022238
:101512001C000000000000000000332222326C0098
:101522000000000000000000772212140C000000EE
:1015320000000000000077222A2A140000000000A8
:1015420000000000361408143600000000000000FD
:1015520000007722141408080E00000000000000AA
:101562003E1208243E000000000000001008080897
:101572000C08080810000000000008080808080805
:1015820008080000000000000408080818080808FD
:101592000400000000000000002C1A0000000000FF
:1015A200000000003F21212121213F000000000E08
:1015B2002060070707070707070707070707070747
:1015C20007070707070707070707070707070707A9
:1015D2000707070707070707070707070707070799
:1015E2000707070707070707070907080707070786
:1015F2000708070707070707070707070707070976
:101602000707070707070707070907080707070765
:1016120007070000000000000000000000000000BA
:10162200000000000C0C0C0C0C000C000000000070
:101632000000141414000000000000000000003636
:1016420036367F367F3636360000000000083C26EC
:10165200061C30321E080800000000000609293E60
:101662004A4830000000000000001C0606371D1921
:101672003E00000000000000080808000000000012
:1016820000000000000010180C0C0C0C18100000D8
:1016920000000000040C181818180C0400000000C8
:1016A2000000187E18240000000000000000000066
:1016B2000008083E080800000000000000000000CA
:1016C2000000000008040400000000000000003ECA
:1016D2000000000000000000000000000000000008
:1016E2000C000000000000303018181C0C0C06061C
:1016F2000000000000001C36363636361C000000A2
:1017020000000000181E181818187E0000000000C3
:1017120000001C3630180C063E00000000000000DD
:101722001C32301C30321C00000000000000181C6B
:101732001A193F183C000000000000003E061E324D
:1017420030321C00000000000000380C061E363645
:101752001C000000000000003E3230301818180053
:101762000000000000001C36361C36361C0000004B
:10177200000000001C36363C30180E00000000004D
:10178200000000000C0000000C000000000000003F
:1017920000000C00000804040000000000002018F3
:1017A20004030418200000000000000000007F0075
:1017B2007F000000000000000000020C1060100C0E
:1017C20002000000000000001C36301C0C000C005F
:1017D2000000000000001E2139253901211E0000F1
:1017E200000000001F1C36363E3677000000000065
:1017F20000001F36361E36361F00000000000000B3
:101802003E23030303231E000000000000001F36D6
:10181200363636361F000000000000003F26161E36
:1018220016263F000000000000003F26161E160686
:101832001F000000000000003E2303037B333E0034
:101842000000000000007736363E36367700000092
:10185200000000003F0C0C0C0C0C3F0000000000CC
:1018620000007C30303033331F00000000000000E5
:101872007726160E1E366F000000000000000F06CD
:10188200060626263F0000000000000063363636BA
:101892002A2A770000000000000073262E2A3A321E
:1018A20027000000000000001E33333333331E00D4
:1018B2000000000000001F3636361E060F00000032
:1018C200000000001E33333333331E3C000000009F
:1018D20000001F36361E16366F00000000000000A2
:1018E2003C26061C30321E000000000000003F2D86
:1018F2002D0C0C0C1E00000000000000773636365E
:1019020036361C0000000000000077363636141C04
:101912001C0000000000000000000000EF01C600F3
:10192200D600D6005C006C006C00000000000000D5
:101932000000000077361C1C1C36770000000000F7
:101942000000F7663C1818183C0000000000000078
:101952003E321A182C263E000000000000003C0C0B
:101962000C0C0C0C0C3C00000000000307060E0CD3
:101972001C1838300000000000001E181818181833
:10198200181E0000000000000814220000000000E1
:10199200000000000000000000000000000000FF46
:1019A2000000000408000000000000000000000029
:1019B200000000001E303E337E00000000000000E8
:1019C20007063E6666663F00000000000000000059
:1019D2003E2303231E0000000000000038303E3387
:1019E20033337E0000000000000000001E333F037E
:1019F2003E00000000000000380C3E0C0C0C3E00C3
:101A020000000000000000007E3333333E301E0031
:101A12000000000007061E36363677000000000080
:101A220000000C000F0C0C0C3F0000000000000036
:101A32000C001F18181818180F00000000000706E5
:101A4200361E1E3667000000000000000F0C0C0C52
:101A52000C0C3F000000000000000000000000002D
:101A620000007F00D600D600D600D701000000009B
:101A720000000000000000001F363636770000002C
:101A82000000000000001E3333331E00000000007F
:101A9200000000003F6666663E061F000000000070
:101AA20000007E3333333E307C0000000000000033
:101AB200372E06061F0000000000000000003E2333
:101AC2001E311F0000000000000006061F06062649
:101AD2001C000000000000000000373636367C0093
:101AE20000000000000000007736141C1C000000FB
:101AF200000000000000000000000000EF01D6001E
:101B0200D6006C006C000000000000000000000025
:101B1200000077361C36770000000000000000004D
:101B2200EE6C2818180C1F000000000000003E1A7E
:101B32000C263E000000000000001C0C0C0C060CE1
:101B42000C1C0000000000000C0C0C0C0C0C0C0C0B
:101B52000000000000000E0C0C0C180C0C0E000013
:101B62000000000000000026190000000000000034
:101B720000003F21212121213F00000000132060AD
:101B82000607050C080A0C030908090D04060308D8
:101B92000807080707080908080705060D0D0D08BC
:101BA200100F0E0D0D0A0F0B100D0E100D0F0E0C57
:101BB2000D0D100E0E120E110E0E0C0B050B100851
:101BC200080A09080A080B0C0B080C0A070F0C0973
:101BD2000D0A0808070B090E080C0B0808080D0A65
:101BE20000000000000000000000000000000000F3
:101BF2000000000000000000004060201008000CFF
:101C02000C00000000000000000A0A0A0A0A000094
:101C1200000000000000000000000000000000C002
:101C22000440022002FC0F20011001FE078800C8B8
:101C32000048004400000000000000000000000016
:101C420000000000606038F4EC182F271E03030028
:101C52000000000000000000000000000000000082
:101C62009C005E007A00AE03D0024801C40100006D
:101C72000000000000000000000000000000000062
:101C820000000000700C580F4801A8045003F8002F
:101C920048003800000000000000000000000000C2
:101CA2000002020202020000000000000000000028
:101CB2000000000000000000000001800040002041
:101CC200001000180008000C0004000400020002CA
:101CD20000020002000000000000008080808040BE
:101CE20040602030100804020100000000000000E3
:101CF200000080006001C000B00020000000000071
:101D020000000000000000000000000000000000D1
:101D12000000000000000000000040004000400001
:101D22004000FC074000400040004000000000006E
:101D320000000000000000000000000000000000A1
:101D420000000C0C04030000000000000000000072
:101D5200000000003C000000000000000000000045
:101D62000000000000000000060600000000000065
:101D72000000008040202010080804020201000038
:101D8200000000000000000000E0988C4662320C67
:101D92000000000000000000000000004060383435
:101DA20012180C000000000000000000000000708B
:101DB200CCC4201C5C3A00000000000000000000BF
:101DC2000000784C503020331F000000000000005B
:101DD200000000000030184824123F0C0C000000E4
:101DE2000000000000000000E018083448603E00D7
:101DF20000000000000000000000000000000000E1
:101E02000000E001B8010C007E00460062001C00E8
:101E120000000000000000000000000000000000C0
:101E220000F04C203018080C0C00000000000000EC
:101E320000000000F088987866423C000000000034
:101E420000000000000000384C647C301B070000DA
:101E5200000000000000000000000000181800064A
:101E6200060000000000000000000000000000303A
:101E720030000C0C04030000000000000000000011
:101E82000000000004800360001C001C0060008051
:101E92000300040000000000000000000000000039
:101EA20000000000000000000000000000FC07002D
:101EB200000000FC0700000000000000000000001D
:101EC200000000000000000000000000000000040C
:101ED200003800C00000070007C0003800040000FE
:101EE20000000000000000000000000000000000F0
:101EF20000F088F82818000C0C0000000000000018
:101F020000000000C00F30180820844BC444424433
:101F12002244224622222233C41C0C101818E00745
:101F22000000000000000000000000000040003837
:101F3200002400127019900C506D271753178F0F41
:101F4200000000000000000000000000000000008F
:101F52000000800F701888248436440E38138011D4
:101F62008619C60B62073C0000000000000000005A
:101F72000000000000000000701C18138809C4084B
:101F82006406A401D80750041002E001000000001A
:101F92000000000000000000000000000000C0037C
:101FA200301C080C8C1684124413B81180095C048E
:101FB200FC03000000000000000000000000000020
:101FC20000000000C0016002A003A001E0001C00AC
:101FD200E6009600C6003C00000000000000000081
:101FE20000000000000000000000000FC078200583
:101FF2001005901BF0060007C0078C017C00000052
:1020020000000000000000000000000000000000CE
:102012000007F004C80464022401A402F8031801B2
:102022008801F00000000000000000000000000035
:1020320000000000000000E06092D849E82D801CFA
:10204200C002E333730931051E03000000000000E3
:10205200000000000000000000000000001E8005DB
:1020620040022003100590059603E60042003C0062
:10207200000000000000000000000000000000005E
:102082000000003C800BC004200210031001B001CC
:10209200C000F0036C026201B100190007000000E9
:1020A200000000000000000000C000246012380997
:1020B200E4078065C0244316630E1F06000000007B
:1020C2000000000000000000000000000000C01D31
:1020D2003012181388098805C803F00840062E013B
:1020E200DE00000000000000000000000000000010
:1020F20000000000001A80090009C00FA006A065B8
:102102009027CE12C90A4706000000000000000016
:102112000000000000000000000000060003802212
:102122008012400A400A2606230611060E0200000B
:10213200000000000000000000000000000000009D
:10214200000FC008200FB00458042C021C038C019D
:10215200C400380000000000000000000000000081
:10216200000000000000C007301888148412441BCD
:102172003C07E001C60062003C00000000000000D5
:10218200000000000000000000000000C003300654
:1021920098068806C403641BBC0980045E02EE0133
:1021A200000000000000000000000000000000002D
:1021B2000000800F7070884C8466C41F3C8F804D75
:1021C200CE6FE2163C0E000000000000000000008E
:1021D2000000000000000000803B60243026101345
:1021E200100BB007E001800066003E000000000016
:1021F2000000000000000000000000000000802736
:10220200601890048802C803C803F603C601E200FE
:102212007C00000000000000000000000000000040
:102222000000000000000000808301E0C401B0C48F
:1022320000906600C87300483303B8BB00C09D001D
:10224200406A00C019000000000000000000000009
:10225200000000000000000000000000000032301A
:1022620009EC09B404C004C0026001A0006000309F
:10227200000000000000000000000000000000005C
:1022820000000000000000C041003022005822007F
:10229200489A01645900242D009C1B00C014007050
:1022A2000C0010040000000000000000000000000C
:1022B200000000000000000000000000C0013032F9
:1022C200583E4806640324039C19C005EE049E028E
:1022D200800100000000000000000000000000007B
:1022E2000000E0201811AC09F40C7C066007E00342
:1022F2001C039C01780000000000000000000000A8
:1023020000000000000000007804C4030201020182
:1023120082008000F80CB8028001E0007C002300FB
:102322001900070000000000000000000000000784
:1023320000018000C0004000600020001000180072
:102342000800040004000200070000000000000072
:1023520010101010101010101010100000000000CB
:1023620000000000000000000700020001000180E0
:102372000080004000200020001000180008000427
:102382000007000000000000000000800140022061
:102392000418180000000000000000000000000007
:1023A200000000000000000000000000000000002B
:1023B200000000000000000000000000FF0000001C
:1023C20000000000202000000000000000000000CB
:1023D20000000000000000000000000000000000FB
:1023E2000000007C002603B3005900370000000003
:1023F20000000000000000000000000000000000DB
:102402000060003000100018002C00B601560022B7
:10241200001E00000000000000000000000000009C
:10242200000000000000383CC6320E000000000030
:102432000000000000000000000000030001800016
:10244200C0005C006603B3005900370000000000C2
:102452000000000000000000000000000000001C5E
:10246200D23F190F00000000000000000000000031
:1024720000000000068005C002E00130063001982D
:1024820000580038000C000400060002000300009F
:10249200000000000000000000000000000000003A
:1024A20000F001980C4C02E4017C0030001E00197F
:1024B20000090007000000000000000000000020EA
:1024C200003000180018006C0054066E01B600734C
:1024D20000000000000000000000000000000000FA
:1024E2000020200018CC2E120E0000000000000078
:1024F20000000000000000000000000200020000D6
:102502000001800CE002C001E000380034001B0032
:102512000900070000000000000000000000600049
:1025220030001000180068002E03B600520033007D
:102532000000000000000000000000000000006039
:102542003018186C26160A06000000000000000071
:102552000000000000000000000000000000006811
:1025620006DE67EC136E0D37070000000000000066
:102572000000000000000000000000000000000059
:102582000000000000C800EE0C7C02AC01670000F5
:102592000000000000000000000000000000000039
:1025A20000000000000000000000003800AC0156EE
:1025B200003A0006000000000000000000000000D9
:1025C2000000000000000000008000C00040006029
:1025D20000A001701998045802C8010C00040006FA
:1025E20000020003000000000000000000000000E4
:1025F200000000000000007C00360393005D003FF5
:10260200001C0014001E000A00060000000000006A
:10261200000000001CDA2C140C0000000000000076
:102622000000000000000008CE281D070000000086
:1026320000000000000060207018086E160A0600F4
:102642000000000000000000000000000000000088
:10265200000000000000EC00640636019A007600DB
:102662000000000000000000000000000000000068
:102672000000000000000000000000002801BE0071
:102682005C0022001E0000000000000000000000AC
:102692000000000000000000000000000000000038
:1026A2000000D807EE36761A2A0EE6010000000076
:1026B2000000000000000000000000000000002CEC
:1026C200DA282D1B000000000000000000000000BE
:1026D20000000000000000000000009801D40C7807
:1026E20002FC016C00380016001900090007000006
:1026F20000000000000000000000000000000000D8
:1027020000DC00780690015C0020003800360019D9
:10271200000D00070000006010101010100C1810BF
:1027220010101010600000000000101010101010A7
:1027320010101010101010101010000000060808E1
:1027420008080830180808080808060000000000F9
:1027520000000000000000000000000000003C0239
:10276200C2010000000000000000000000000000A4
:1027720000000000000000000000FE010201020152
:10278200020102010201020102010201020102012F
:1027920002010201FE0100000000AA55AA55AA5535
:1027A200AA55FFFFFFFFFFFFFFFF2800390A391E6E
:1027B2002828171E170A2800FFFFEF7B18C6E0071C
:1027C200F00700F81F000BE5FF071FF8E0FFE07BB2
:1027D200BF047FF9100292C91485144500780F00D6
:1027E2000F78EF03000103070F1F3F7FFF00000078
:1027F20000000000F01F1F00407F3011EF0F0000AB
:10280200535344313333322044656D6F00466F6E4B
:10281200742073616D706C65733A005374616E64F9
:102822006172642035783700417269616C0A004137
:102832007269616C20426F6C6400436F75726965E6
:10284200720A00436F757269657220426F6C640090
:10285200536372697074005661726961626C6520BB
:10286200746578743A0A00535344313333320A00A0
:1028720053534431333332004C696E65207374799B
:102882006C65733A00436F6C6F726564206C696E9D
:1028920065733A0046696C6C00496D616765207723
:1028A20061732073617665640A746F2052414D0032
:1028B200436972636C6573202620617263733A0008
:1028C20050696520736C6963653A0052656374618F
:1028D2006E676C657320260A66696C6C656420629B
:1028E20061723A00526F756E6465640A7265637450
:1028F200616E676C653A0050757420696D61676539
:102902000A66726F6D2052414D3A00456E746572CF
:10291200696E670A706F7765722D73617665206DD7
:102922006F64650045786974656420200A706F776A
:1029320065722D73617665206D6F6465004D6574F7
:1029420065723A0042617267726170683A00436F61
:102952006C6F72733A0001002D4E414E00494E4693
:1029620000000100403458290000F894EE27E8BF27
:10297200E9BFEABFF091CC01F860F093CC01F8ED29
:10298200F4BFE093A200E0934004A0918000AD7FE9
:10299200A160F4BFA093800080E090E2A0E0B0E2EA
:1029A200ED930197E9F7E4E6F9E2859195910097B5
:1029B20061F0A591B59105901590BF01F0010590C8
:1029C2000D920197E1F7FB01F0CF8BBFE0E0E0B998
:1029D200E1B9E2B9E3B9E4B9E5B9E6B9E7B9E8B909
:1029E200E9B9EAB9EBB9ECB9EDB9EEB9EFB9EFEF84
:1029F200EDBFEFE3EEBFC0E0D8E20C943F151A93AF
:102A02000A930FB7F894E0915000E460E09350000D
:102A1200E0915100E470E1F3E0915000E260E09354
:102A22005000E0914100E0781E2FE8EDE4BF1093E2
:102A32004100E0915600EC7FE0935600E091600087
:102A4200E160E0936000E0915100E270E1F3E09117
:102A52004000E87FE1601E2FE8EDE4BF10934000E4
:102A6200E0915000E67EE0935000E091B400EC7FEC
:102A7200E093B4000FBF099119910895E097BFDF69
:102A8200E4EFF1E0E883F983E0E0EA83EB83EC83AF
:102A9200ED83EE81E07FEE83E06FEE83EF81EF6006
:102AA200EF83EF70E061EF83E885EF61E887EF7D08
:102AB200E887E064E887E068E887E0E0E987E0E447
:102AC200EA87EFE7EB87E0E3EC87E1E1ED87EFEE02
:102AD200EE87EF85EF60EF87E0E0E88BE98BDE01C0
:102AE2000E94751E0E94862BA2E0B8E20E94162464
:102AF2000E948D2B0E94942BAFE0B8E20E94082422
:102B02000E94992B0E94A02BADE1B8E20E940824FA
:102B1200E8E9F4E00E94A52BE0E0EA93EEE1EA9313
:102B2200AAE2B8E20E940824E4E7FAE00E94A52B98
:102B3200A1E3B8E20E94AA2BECE6F0E10E94A52BE9
:102B4200ACE3B8E20E941624E0EBF5E10E94A52B6B
:102B5200A5E4B8E20E941624EEE7FBE10E94A52B51
:102B6200A2E5B8E20E94AA2B0E94B22B0E948D2BF2
:102B7200A9E5B8E20E94B52BE0EBF5E10E94A52B96
:102B82000E94B82BE2E00E94BC2BE3E00E94BC2B27
:102B9200E4E0EA93A1E00E94AC22A2E7B8E20E943C
:102BA200AA2BE1E0EA93A1E00E94AC220E94B22BA0
:102BB2000E948D2BAAE7B8E20E94B52B0E94942BAB
:102BC200EFE5EA93AAE00E944520E1E00E94C12BD2
:102BD200EFE0EA93EFE5EA93AFE00E944520E1E0FF
:102BE2000E94C92B0E94A02BEFE5EA93A4E10E9468
:102BF2004520E2E00E94CF2BE9E1EA93EFE5EA9378
:102C0200A9E10E944520E2E00E94C12BEEE1EA9395
:102C1200EFE5EA93AEE10E944520E2E00E94C92B73
:102C2200E0E0EA93E3E2EA93EFE5EA93A3E20E94AB
:102C32004520E4E00E94CF2BE8E2EA93EFE5EA9335
:102C4200A8E20E944520E4E00E94C12BEDE2EA9353
:102C5200EFE5EA93ADE20E944520E4E00E94C92B31
:102C6200E0E0EA93E2E3EA93EFE5EA93A2E30E946B
:102C720045200E94D72B0E948D2BA7E8B8E20E9424
:102C820016240E94DD2B11E020E030E02036E0E047
:102C92003E076CF40E94E42B08F011E00E94942B92
:102CA2002A93AFE30E9445202C5F3F4FEFCF11E004
:102CB2002FE530E033237AF00E94E42B08F011E094
:102CC200EFE5EA93EFE3EA932A93AAE00E94452014
:102CD20024503040EFCF0E94D72B0E94DD2B0E9460
:102CE200862BE7E0EA93ACEAB7E20E9424250E9431
:102CF200F52B0E94F92BEEE1EA93E1E1EA93A0EED3
:102D0200B7E00E94B728E0910C28E160E0930C281C
:102D1200EFE1F0E0E0930428F09305280E94992B5C
:102D2200EEE1EA93E1E1EA93A6E9B8E20E9408241F
:102D32000E94002CE6E1EA93E0E0EA93E5E2EA93FE
:102D4200E9E2EA93A3E2B8E20E9454240E948D2BA6
:102D52000E94062CE0E0EA93EFE2EA93ABE9B8E2E4
:102D62000E9408240E94D72BA2EBB8E20E94B52B46
:102D7200E5E10E940D2CE0E0F8EF0E94132CE5E162
:102D82000E94182CE8E7F0E0FA93EA93AFE00E9481
:102D9200B727EFE1F0E00E94132CE3E0E0930D2867
:102DA200EFEFE0930E28EFE30E940D2C0E94862B9A
:102DB200EFE30E94182CE2EDF0E0FA93EA93AFE021
:102DC2000E94B7270E94D72B0E948D2BA2ECB8E25B
:102DD2000E94B52B0E94DD2BE6E2EA93E0E2EA9341
:102DE200EEE1F0E0FA93EA93ECE2F1E0FA93EA938F
:102DF200A4E10E942D280E94D72B0E948D2BADECBE
:102E0200B8E20E94B52B0E94DD2B0E94A02BE8E2C3
:102E1200EA93A9E10E949D24EFE1F0E00E94132CC5
:102E2200E3E00E94C92BEAE2EA93E4E1EA93E8E2F2
:102E3200EA93A9E10E949D24ECE9F7E2FA93EA936E
:102E4200A0EEB7E00E94A528EEE0EA93E1E3EA9360
:102E5200E6E4EA93A1E40E9412220E94D72B0E9488
:102E62008D2BA6EEB8E20E941624EFE1F8EF0E9445
:102E7200132CE5E0EA93E9E1EA93EAE4EA93E6E275
:102E8200EA93A8E00E94AC240E94D72B0E948D2BCB
:102E9200A9EFB8E20E941624E8E3EA93E0E0EA939D
:102EA200E3E2F8E2FA93EA93A0E00E9425240E946A
:102EB200F52BE0E0EA93EEE2EA93ADE0B9E20E949C
:102EC20008240E94F52BA0E00E94D61FA0EDB7E0D7
:102ED2000E94442FA1E00E94D61FE0E0EA93EEE2B6
:102EE200EA93A6E2B9E20E940824A0EDB7E00E94AC
:102EF200442F0E94A41FE4EAF7E2FA93EA93AFEFA9
:102F0200BFEF0E94A5280E94DD2B0E948D2BAFE30C
:102F1200B9E20E941624E0E3EDA3E2E3EEA3E9E1C5
:102F2200EFA3E0E0E8A7E9A7E4E6F0E0EAA7FBA761
:102F3200EBE0EEA7DE0195961BD210E01430D0F440
:102F420028A539A5EAA5FBA5E217F3072CF00E94F4
:102F5200202C2B5F3F4FF6CF2AA53BA5E8A5F9A56C
:102F62002E173F072CF00E94202C25503040F6CF20
:102F72001F5FE4CF0E94D72B0E948D2BA6E4B9E2FB
:102F82000E941624E2E1EA8BEFE0EB8BECE3EC8BA0
:102F9200E8E2ED8BE8A5F9A5EE8BFF8BEAA5FBA590
:102FA200E88FF98FEEA5EC8FDE01529683D310E005
:102FB2001430D0F428A539A5EAA5FBA5E217F3073A
:102FC2002CF00E942B2C2B5F3F4FF6CF2AA53BA55E
:102FD200E8A5F9A52E173F072CF00E942B2C2550AF
:102FE2003040F6CF1F5FE4CF0E94D72B0E948D2B7B
:102FF200A0E5B9E20E9416240E94362C10E0163198
:1030020040F5E12FAAEBB7E2F0E0EE0FFF1FEA0F67
:10301200FB1F0E94A3310E94392CE12FF0E0E170E6
:10302200F070A0E3B0E00E9466319F01E12FF0E072
:10303200F595E795A5E0B0E00E9466313A96AF01BA
:103042002A934A93E8E2EA93A4E00E946D221F5F6A
:10305200D6CFFFCFFFCFBA93AA9327970E942532EC
:1030620029893A89E989FA89E281F0E0FF93EF93AD
:103072000E945823F0E00E943E2CA6E6B6E686EABD
:103082009FE30E944330AF91BF910E94432C0E9464
:10309200482C1E2FEB85FC85FA93EA93DE011696E7
:1030A2000E94FB2AD901EC91F0E0FF93EF93E12F0C
:1030B200F0E0FF93EF93AD85BE858F8598890E94DE
:1030C200342AAF91BF910E944D2CAF91BF910E94C3
:1030D200512CEA93F901E181F0E0FF93EF93E12FA4
:1030E200F0E0FF93EF93AE85BF85888999890E94AE
:1030F200AA29AF91BF910E944D2CAF91BF910E941E
:10310200532CEA93DE0116960E94FF230E942C3272
:103112006396089564970E942332AD010E945B2C4E
:1031220015960E9494310E161F0624F0AA8DBB8DAF
:1031320015960BC00E945B2C13960E949431E015E9
:10314200F10554F0AA8DBB8D13960E949431AA8D7D
:10315200BB8D1796ED93FC93EA8DFB8D078010844F
:103162000E94622C0E943E2CA0E0B0E08CED92E422
:103172000E9443307F936F93FF93EF93EA8DFB8D11
:10318200058016800E94622CAF91BF918F919F9112
:103192000E943E2C0E949130A0E0B0E081E193E4D5
:1031A2000E946A2CABEDBFE089E490E40E946F2C90
:1031B200E0E0F0E064E373E40E9491300E94742C3A
:1031C2000E94792C0E94342AEA8BFB8B6C8B7D8BBC
:1031D2000E94792C0E94AA29EE87FF87688B798B3F
:1031E200EA8DFB8D0E947E2C0E943E2CEA87FB8793
:1031F2006C877D87EA8DFB8DE281F0E0DF01EA8D4D
:10320200FB8DE285F0E00E94862C0E94CB31EA1B06
:10321200FB0B0E943E2C0E948B2CAA8DBB8DEC9145
:10322200F0E0FF93EF93EA89FB896C897D890E9424
:10323200902CAF91BF910E94512C3E2FEA8DFB8DB5
:10324200E181F0E0FF93EF93EE85FF85688979894C
:103252000E94902CAF91BF910E94532C2E2F0E945E
:10326200972C4093002850930128AA8DBB8DEC9196
:10327200F0E0FF93EF93EA89FB896C897D890E94D4
:103282009C2CAF91BF910E94512CEA93EB8DFC8D47
:10329200E181F0E0FF93EF93EF85F88969897A89FC
:1032A200AB85BC858D859E850E944330AF91BF91D1
:1032B2000E94532CEA933A93A22F0E944520EA8D52
:1032C200FB8DE285F0E00E943E2CA0E0B0E080E0C1
:1032D20090E40E944330EA87FB876C877D870E94D7
:1032E200792CEBEDFFE069E47FE30E94D53009F031
:1032F20008F40CC00E94792CE4EEFBEC66E170E469
:103302000E94D53011F008F001C001C007C00E9430
:10331200792CEFEDFDEE6FE270EC06C00E94792C85
:10332200E6EDF1E362E670E40E94ED2F0E94742C58
:103332000E94A32C0E94A72CEE89FF89688D798DAB
:10334200ABEDBFE089E49FE30E94ED2F0E94742C55
:103352003A93A22F0E9476240E94A32C0E94A72CAB
:1033620000930028109301280E942A326C96089537
:10337200BA93AA9360970E942532EC89FD89E18570
:10338200F0E031970E943E2CABE0BEEB85EF9FE36D
:103392000E949130EC83FD836E837F830E94992B80
:1033A200E2E0E0930D280E94BC2CE3E2F0E0FA9305
:1033B200EA93E1E9F0E0FA93EA93EA8DFB8DA281C8
:1033C2000E94B727E0E7F7EF61E270E4E88BF98B40
:1033D2006A8B7B8BEC89FD89E2810E94C52CAC89CA
:1033E200BD891A96EC93EC89FD89E281E1503E2F6A
:1033F200EC89FD89A285E32FEA1B0E2FE1E0E09321
:103402000D2810E0EC89FD89E1851E1708F070C0D7
:10341200A889B9898A899B890E94342AEC87FD8709
:103422006E877F87A889B9898A899B890E94AA2980
:10343200E887F9876A877B87AC89BD89EC91F0E0E0
:10344200FF93EF93A02FBB27EC85FD856E857F85CB
:103452000E944D2CAF91BF910E94512CEA93ED89AD
:10346200FE89E181F0E0FF93EF93A02FBB27E9856E
:10347200FA856B857C850E944D2CAF91BF910E948D
:10348200532CEA93AE89BF89EC91F0E0FF93EF935E
:10349200A32FBB27EE85FF85688979890E944D2C71
:1034A200AF91BF910E94512CEA93EF89F88DE1818F
:1034B200F0E0FF93EF93A32FBB27EB85FC856D858F
:1034C2007E850E944D2CAF91BF910E94532CAE2F4E
:1034D2000E9445200E94CC2CE889F9896A897B895F
:1034E2000E94ED2FE88BF98B6A8B7B8B1F5F8ACF53
:1034F2000E94B22B0E94862B0E94D12CE0E7F7EFAC
:1035020061E270E40E94D62CA381B481A4DD0E9402
:10351200D12C0E94DB2C0E94D62C05801680AA8D0D
:10352200BB8D13960E949431D0010E94862C0E947A
:103532007E31DF0190DD0E94D12CEAEAF1E66CE1F6
:103542007FE30E94D62CA581B68185DDEFEFF7E0FF
:103552000E94392C0E94BC2CEE89FF890E947E2C8D
:10356200AE2F0E944529AC89BD8913960E949431E1
:10357200AC89BD891796ED93FC930E94D12CAFE1E3
:10358200B0E0C8DD0C945D1F0E94E02CF901A78118
:10359200B0850A171B0789F03A932A93A091022853
:1035A200B0910328B7DDF801D9011796ED93FC938A
:1035B2003A932A93AFE1B0E0ADDD0E942C32269619
:1035C200089527970E9423328D013D854E855F85A0
:1035D2001A930A930E94E62CE30F2E2F0E94ED2CE1
:1035E200DF01E2E0F0E00E947E31A22FAE1BAA933F
:1035F200FA01A181AA930E94F32C0E942A326096BA
:1036020008952797E0E2E883E983EA83EB83EC837A
:10361200ED83E0E0EE830E942332AD012091002889
:10362200309101280E94362CFA01A485E585EA0F23
:10363200EE5F1E2F0E94002CDA01EC91EF93FA014B
:10364200E281F0E0FF93EF930E94ED2CAF91BF91E6
:103652000E94862C0E947E31AF91EA0FEA931A9360
:103662000E94F32CE0910C28E160E0930C28FA010F
:10367200A085B185BA93AA930E94E62CEF93FA0132
:10368200E281F0E0FF93EF930E94ED2CAF91BF91A6
:103692000E94862C0E947E31AF91EA0FEA931A9320
:1036A2000E94F32C20930028309301280E942A3292
:1036B2002D960895BA93AA930E9423320E94B22BA8
:1036C2000E94992BEE81FF81E3810E94C52CAE817D
:1036D200BF811B96EC93EE81FF81A181E385EA0F06
:1036E2004E2F0E945823E40F5E2FAE81BF81EC91D2
:1036F200EA935A93A885B985AC91E885F985E28168
:10370200EA0FEA93A52F0E944520AE81BF813C912A
:10371200EE81FF81E281F0E0DF01EE81FF81E2854F
:10372200F0E031970E947E312E2F00E010E0EE8112
:10373200FF81E285D801F0E0AE17BF079CF43A930F
:10374200A52F0E9476240E94F72CE885F985E3854F
:10375200F0E00E94F530DF010E948E24320F0F5FED
:103762001F4FE5CF0E94862B0E94FC2CE0E0EA93DB
:10377200E985FA85A481B58124DF0E94FC2CE885C5
:10378200F985E281F0E0DF01E2E0F0E00E947E31C3
:10379200EA93E985FA8506801780A985BA85149689
:1037A2000E949431D0010E94862C0E947E31DF015A
:1037B20008DF0E94FC2CE885F985A281AA93E9859D
:1037C200FA85A681B781FDDEEE81FF81A381E385C3
:1037D200AE1B4A2F0E945823EE0FA42FAE1BE5E02A
:1037E2000E94CE31EA1BAE81BF811D96EC93E52F7C
:1037F200ED5FAE81BF811C96EC93EE81FF81E28189
:103802000E94012D7F936F93FF93EF93EE81FF81CF
:1038120006801780A481B581F001EA1BFB0BAF91F2
:10382200BF918F919F910E943E2C0E949130AE8158
:10383200BF811F960E949E31AE81BF8114960E9465
:103842009431AE81BF811896ED93FC93AE81BF8116
:103852001E96E0E0EC9371C00E94BB311A930E9465
:10386200072D0E949A290E94812F1E2FF0E00E94AC
:10387200072D0E943E2C0E946A2C0E940C2D08F0FB
:103882001F5FE12F1881259608950E942332AD0112
:103892000E94152D09F451C0EE81FF813685A48165
:1038A200B581FA01EA1BFB0B0F01AE81BF811F96A6
:1038B2000E949831D0010E944D2CDF01CB01CCDF58
:1038C2002E2F00911528109116280E94152D74F4A0
:1038D2000E94F92BAE81BF81EC91E30FEA93EF8155
:1038E200F885A485AA93E22FE31B0FC00E941D2D29
:1038F2000E94392CAE81BF81EC91E20FEA93EF81F5
:10390200F885A485AA93E32FE21BEA93E985FA8559
:10391200A5850E946D220093152810931628FA019E
:10392200AE81BF811896ED93FC93E22FAE81BF81E9
:103932001E96EC93AE81BF8164DE0E942A322896E5
:103942000895BA93AA93E881EE0FEE73F881F29587
:10395200F695F7706981629566956873F62B6981B1
:10396200669566956E7322960895FF92AA932197A3
:103972000E942332EF81E03011F0E53061F4AA8534
:10398200A33031F4A0911F28B0912028109709F09C
:1039920001C05CC11AC0E13011F0E23009F402C08A
:1039A200E33009F402C0E43009F450C1E63069F4AE
:1039B200EA85E13009F44AC1E33039F4E091212883
:1039C200F0912228309709F441C1AE85A03648F41F
:1039D200AD85A03430F4AC85A03019F0AB85A030B1
:1039E20009F434C1AE85BB27EC85F0E0AE0FBF1FF2
:1039F200A136E0E0BE0720F0AE85E0E6EA1BEC87E8
:103A0200AD85BB27EB85F0E0AE0FBF1FA134E0E030
:103A1200BE0720F0AD85E0E4EA1BEB87EC85AE85BE
:103A2200AE0FA150AE83EB85AD85AE0FA1503A2FFC
:103A3200AF81A93029F4009102281091032805C012
:103A4200AF81AA3051F40E94972C0E94222D3A9302
:103A52001A930A93A1E04FD2F9C00E94222DA32FFC
:103A620030D1AF81A63091F534D2EA85E330B9F492
:103A72000E94292D99F03C85E32F3150E03069F006
:103A82000DD18F010E942E2DA02F0E94372D0E9452
:103A92002E2DA12F0E94372DEFCFEACF16C00E9404
:103AA200292D99F03C85E32F3150E03069F0F6D0B2
:103AB2008F010E943D2DA02F0E94672B0E943D2D59
:103AC200A12F0E94672BEFCFEACFC0C0AF81A730F2
:103AD20031F40E94972CE0910C28E0FB09C0AF81E1
:103AE200A83009F053C00091152810911628E894C7
:103AF200F0F8EC850E94482DEC85E770EC87E03009
:103B020009F04F5FF0FC1EC0E4E0E09365060E94FE
:103B1200292DB9F020E0241798F40E944D2D21F4AC
:103B2200EC85E03009F05C8530FF02C0F80102C08C
:103B32000E941D2DDF0199D036955150A9F7EBCF88
:103B4200E6CF23C00E94292D01F10E94602DEE854F
:103B5200EE8320E02417A8F40E944D2D21F4EC8579
:103B6200E03009F05C8530FF05C0A5E1A9D1AE8146
:103B72000E94692D3695EE81EF5FEE83515099F7E1
:103B8200E9CFED85EF5FED87DDCF60C0AC85BB2768
:103B9200EB85F0E00E943E319F01E4E0E093650690
:103BA200EF81E030D9F4AA85A33061F40E94742D2C
:103BB2000E2F0E94742D1E2FD80157D02150304055
:103BC200A9F70BC00E94802D0E2F0E94802D1E2F60
:103BD200D8014BD021503040A9F738C0E530B1F5BB
:103BE200AA85A330D1F40E94292DB1F00E94602D44
:103BF2003E85EE81E31760F00E94742D0E2F0E9425
:103C0200742D0E948E2D11F00E94962D3F5FF1CFF0
:103C1200ED85EF5FED87E7CF19C00E94292DB1F046
:103C22000E94602D3E85EE81E31760F00E94802D98
:103C32000E2F0E94802D0E948E2D11F00E94962D33
:103C42003F5FF1CFED85EF5FED87E7CF0E942A322C
:103C52002F96FF900895000008951A931A2F0E943C
:103C62009B2DE2E0E0936506B3C11A930A938D019E
:103C72000E949B2DF0DF00930406E0E10E94A92D33
:103C8200E0E10E94AD2D5CC41A930E94B32D109105
:103C92000806E8E00E94AD2DE12F9AC11A930A931B
:103CA2000E94B32D10910806E8E0E0936506D3DF89
:103CB200E8E00E94A92D00910806E8E00E94AD2DDF
:103CC2003EC40E94B82D2E81A5E1FAD0A22FC5DFF5
:103CD200A02FC3DFA5E7F4D0A32FBFDFA12FBDDF45
:103CE2000E942C322796089562970E9425329D01E8
:103CF200E2E0E0936106E0936506E8E0E0936106A6
:103D0200E0936506E0E1E0936106E0936506E4E096
:103D1200E0936106E1E0E0936106E0936606A5E0C8
:103D2200B0E00E94442FE1E0E0936506A5E0B0E038
:103D32000E94442F022E032A39F0F901DE01149663
:103D420082E10E94053207C0E0EFF7E2DE0114963D
:103D520082E10E940F32AEEAB3D0ADEAB1D0AEE852
:103D62007CDFA0EBADD0ABE078DFA4EAA9D0A8EA73
:103D7200A7D0AFE372DFE0E4E0933F34EC85E0727A
:103D820019F0E2E4E0933F34EC85E07429F0E0912D
:103D92003F34E061E0933F34EC85E07829F0E09134
:103DA2003F34E062E0933F340E94BE2D56DFA1E82B
:103DB20087D0A88952DFA2E883D0A9894EDFA3E881
:103DC2007FD0AA894ADFEB89EF70AE2FF8D0ABEB38
:103DD20077D0AD8542DFACEB73D0AE853EDFADEB85
:103DE2006FD0AF853ADFEC89FD89309771F0A8EB8F
:103DF20067D010E2EC89FD893196EC8BFD8B31970F
:103E0200A4912BDF1150B1F702C0A9EB59D0AEEB50
:103E120057D0EC85EF71AE2F20DFA1EB51D0EB85AF
:103E2200EF70AE2FEB850E94C42DA3EB49D0EA853B
:103E3200EF70AE2FEA850E94C42DA1EA41D0A0E026
:103E42000CDFA2EA3DD0A0E008DF0E94CB2DAFE359
:103E520038DF0E94362C0E94062CE0E0F0E0E0936E
:103E62000428F0930528EC81FD810E94A52BEE81A8
:103E7200FF81E0931F28F0932028E885F985E093DD
:103E82002128F0932228E1E0E0930A28E0930B280E
:103E92000E94002C0E94DD2BEFEFFFEF0E94392CD5
:103EA2000E94D12DEFEFEA93A8E0B0E00E943B2BF5
:103EB2004AD0AFEA05D0E1E00E942C32669608951E
:103EC2001A931A2FE4E0E0936606EFEFE093000600
:103ED2007DC0E4E0E0936506E0E0E0930006D4DE16
:103EE2000895E4E0E0936606E0E0E0930006CCDEAD
:103EF200EC70E9F70895AA9324970E9423320B8568
:103F02001C853D852E855F854889AB85BC850E94D1
:103F1200A21C0E948B2CA6E2D3DFEA85E03011F0CE
:103F2200E1E001C0E0E0AE2F98DEA2E20E94D62DD1
:103F3200A88593DEAF8191DEAE818FDED2DF0E9453
:103F42002A32619608950E94CB2DEFE3EA930E94F4
:103F52001D2DFA93EA93A1E0CEDFE0E0EA93A0E020
:103F6200C4D408950E94ED2D2D812A933A93EFE552
:103F7200EA93AFE3A6DEE4E0E0936506D80175DEDE
:103F82000E942C329DC50E94F22D003610F410348E
:103F920018F0E0E0F0E0BDC40A931A93EFE5EA936B
:103FA200AFE38FDE96DF7ADEB4C41A931A2F103095
:103FB20011F0EFEA01C0EEEAAE2F82DF09C01A93D8
:103FC2001A2F103108F01FE0A7E87ADFA12F45DE93
:103FD200199108950E94BB310E9423323A852B85A4
:103FE2005C854D8510E0A42FBB278ED24E2FA22FC9
:103FF200BB278AD22E2FA52FBB2794D25E2FA32FA9
:10400200BB2790D23E2F421718F4351728F018C05C
:10401200241788F4531770F40E94BE2DE2E0AE27F5
:104022001CDE11E0EFE5E21B0E2FEFE5E41B2E2F65
:10403200402F03C005C0351718F4032F352F502F1A
:10404200A1E20E94D62D4DDF103019F00E94BE2D44
:1040520004DE0E942A322E9608950E94B82D3A93C9
:104062000A93E0910E28E12319F00E94F72D02C075
:104072000E941D2DDF0176DF110F103009F411E0CF
:10408200E12F0E942C321CC5AA932F970E94233243
:10409200A88DBB2739D2E88FAE89BB2735D2EE8BEC
:1040A200AF89BB273FD2EF8BAD89BB273BD2ED8BCC
:1040B200EE89E0930628ED89E0930728A0910E2867
:1040C200AF3FE9F50E94FC2D0E94A21C0E948B2C9E
:1040D200188D3F89E0910D28EA870E94012E71F127
:1040E200EE89E11719F4ED89E31709F006C01A9376
:1040F2003A930E94FC2D36DF0BC01A933A93E88D57
:10410200EA93E88DEA93AA85BB858C859D8562DF5B
:10411200EA85E03009F4EEC0EE89E11729F41F3593
:1041220010F41F5F1E8B09C03F3308F43F5FAD8957
:10413200AF3318F4ED89EF5FED8BCFCFDBC0E1E059
:10414200EC87ED89AF89EA1779F5188DAE891A17D0
:1041520031F41A93E88DEA93A1E07FDFCBC0AE89F8
:104162001A1730F4EE89E11B0E2F41E050E006C031
:10417200AE89E12FEA1B0E2F4FEF5FEF3F89E091EF
:104182000D28EA870E94012E39F01A933A9333954B
:10419200AE8563DFEB87F6CFEB85EC87140FE02F5C
:1041A2000150E03059F7A6C0EE89A88DEA1741F513
:1041B2003F89AD893A1730F4ED89E31B2E2FE1E0F8
:1041C200F0E006C0AD89E32FEA1B2E2FEFEFFFEFE1
:1041D200E98BFA8B188DE0910D28EA870E94012E57
:1041E20031F01A9313950E94062EEB87F7CFEB85D9
:1041F200EC87E9893E0FE22F2150E03059F77AC06F
:10420200E0910D28EA870E94012E09F473C0188DEF
:104212003F89E1E02E2F0E2FAE89BB27E88DF0E01B
:10422200AE1BBF0BAD0155232AF40FEFFA010E941A
:10423200F530AF01FA01EE0FFF1FEB8BFC8BAD895E
:10424200BB27EF89F0E0AE1BBF0BA98BBA8BAA8903
:10425200AA233AF42FEFE989FA890E94F530E98B13
:10426200FA8BE989FA89EE0FFF1FEF87F88B1A9311
:104272003A93A1E0F2DEEC87E0E0ED87EE87A989D0
:10428200BA894A175B07BCF0100FEF85F8890E94C4
:104292000A2EAD85BE854A175B072CF4320FAB8917
:1042A200BC890E94112E1A930E94062EEC87EE8979
:1042B200E11751F718C0320FEB89FC890E940A2ED0
:1042C200E989FA89AD85BE85EA17FB072CF4100F40
:1042D200AF85B8890E94112E1A930E94062EEC8790
:1042E200ED89E31741F7EF89EF5FEF8BED89EF5F20
:1042F200ED8B89CF0E942A3269960895BA93AA93C8
:104302000E942332EE81FF81138101813281AE81CD
:10431200BF812C91011718F4502F012F152F23174D
:1043220018F4522F232F352FE12FAE81BF81139620
:10433200EC93E32FAE81BF811296EC93E02FAE8116
:10434200BF811196EC93AE81BF812C936AC2AA936E
:104352000E942532E0910D283E2FDE011496CEDF19
:10436200A0910E28AF3FA9F5EF81E0930628EE81D8
:10437200E09307281D810C81E32F3150E03041F199
:10438200EF81EA93EF81EA931A930A930E94F72D41
:10439200FA93EA93A0E0AFDD303019F40E942C3298
:1043A20042C2113008F01150013008F00150AF81C3
:1043B200AF5FAF831A1718F40E942C3234C2AE8159
:1043C200AF5FAE830A1718F40E942C322CC2D4CFEE
:1043D20025C03150ED81E31B1E2FEC81E31B0E2F14
:1043E2000E94182E1A93A9854FDE1A93EF81EA9341
:1043F2001A93A02F49DEED81EA930A93E32FA98550
:10440200EA0FEA93A02F40DEEF81EA93ED81EA936F
:10441200E985EA93E32FA985AE0F36DE0E942C329E
:1044220002C2AA930E942532DE01149667DFAF8191
:10443200A03658F4AE81A03440F4ED81AF81AE17BE
:1044420020F4EC81AE81AE1718F00E942C32EBC141
:1044520018E0A7E1B8E21150E12FF0E0AE0FBF1F64
:10446200AC91AF3F51F1ED81EF5FED83EC81EF5FF6
:10447200EC833E81EC813E17E8F4E31B2E2F2930BA
:1044820008F028E01F81ED811E1790F4E11B0E2F2A
:10449200093008F008E01A933A930A932A93E0E06D
:1044A200EA930E94D12DA8E00E94B61C100FEBCF18
:1044B200320FE0CF0E942C32B6C1103051F60E946A
:1044C200182E0E94182E0E941D2EFA93EA93A1E044
:1044D20012DD0E942C32A7C10E94B82D2E812036F7
:1044E20030F4303420F4003011F0103009F40BC0F5
:1044F2002A933A93E02FE20FE150EA93E12FE30F80
:10450200E150AE2F8EDF23C20E94222E1CF0E0E08B
:10451200F0E016C00036E0E01E071CF0EFE5F0E028
:104522000FC00DC00E94222E1CF0E0E0F0E008C097
:104532000034E0E01E071CF0EFE3F0E001C0F801F8
:104542000991199108950E94F22D0A931A930E94DB
:10455200FC2D08DDDEC10E94F22D00930A28109383
:104562000B28D7C10E94F22D003610F4103428F027
:10457200E0E0F0E060E070E0CCC1A02FBB2788272C
:104582009927E12FFF27662777270E944631DF010F
:10459200CB01E5E00E940131BCC1BA93AA932397F3
:1045A2000E9423320E94292E8F01002E012A19F423
:1045B200E0E0F0E062C00E942E2E0F820E942E2EBA
:1045C2000E820E942E2E0886EB85A885EA1718F423
:1045D200E0E0F0E052C0F8010F5F1F4F5491A88550
:1045E200BB27EE27A50FBE1FEB85F0E0EA17FB07FE
:1045F20018F0E0E0F0E041C0EF81E030D1F0A985B1
:10460200BA85EC930E94482DEF81E77009F04F5F65
:10461200A885EB85EA1BF0E0DF01EE81F0E00E9465
:104622003E31DF01E42FF0E00E943E31E00FF11F46
:1046320024C09801E52FF0E00E0F1F1FA885AF5F81
:10464200A887A150EB85AE1790F4F901E4910E947E
:10465200482D0E94332EE77009F04F5FAE81BB27D1
:10466200E42FF0E00E943E310E0F1F1FE7CFF90149
:10467200E491A985BA85EC93F8010E942A322C961E
:10468200089521971A931A2F0E94292E309759F0D4
:104692001A93DE01129681DF309729F0E0910A2801
:1046A200A981EA0F01C0E0E01881229608950E94D4
:1046B200292E309711F4E0E008950E94292E3196B8
:1046C200A491E0910B28EA0F08950E9425329D01E2
:1046D20000E00E94382E21F0A12FD3DF0E0FF9CF78
:1046E200E02FAEC0E0E0E0930628A0910728BB27A8
:1046F2000E94292E3196E491F0E0AE0FBF1FE091A7
:104702000B28F0E0AE0FBF1F0DDFE09307280895DE
:1047120021970E9423322A2F0E94292E309709F4D2
:1047220068C02A3009F461C02A93DE01179635DF8A
:10473200AF01309719F40E942A320BC1E0910A2886
:10474200AE81EA0F3E2FA0910628BB270E943F2E82
:104752000136E0E01E0718F0032F1127C3DF0E9485
:10476200442EE885EA930E94292E3196E491EA9339
:10477200E1E0EA935A934A93A7E00E94B61CE091C3
:104782000C28E17069F5E0910628AE81EA0FEA9300
:10479200E0910728EA93E0910A28EA930E94292EE1
:1047A2003196E491EA93E0E0EA930E94F72CA9E0C3
:1047B2000E94B61CE0910628EA93A09107280E9465
:1047C200292E3196E491EA0FEA933A93E0910B286D
:1047D200EA93E0E0EA930E94F72CA9E00E94B61C5B
:1047E200E0E6F0E0E017F10721F47CDF0E942A32D4
:1047F200B0C0009306280E942A32ABC00E944B2E02
:104802000E94382E19F0A12F83DFFACF0AC00E942E
:104812004B2E0E94332E1E2FE03019F0A12F78DF8D
:10482200F8CF0E942A32289608950E9425329D01CF
:104832000E94332E1E2FE03019F0A12F69DFF8CF2E
:104842000E942C322496089524970E9423321A2F14
:104852002A853B850C855D85103011F01530F1F409
:104862000E94542EE8870E94542EE9870E94542EFB
:10487200EE830E94542EEF835A930A93EA85EA93B9
:10488200E985EA93E0E0EA933A932A93A12F0E9402
:10489200B61CE885EA93AF8165DE52C4E0E0F0E041
:1048A20060E070E04DC40E9423328D013E812F8171
:1048B20058854985E22FF0E0ED93FC93D8011296DA
:1048C200E32FF0E0ED93FC934A935A932A933A93A1
:1048D200E0E0EA93F8013496FA93EA93A6E00E94A4
:1048E200B61C2A93A32F3EDE3DC30E94F22DA02FB9
:1048F200BB270ADEE0930628A12FBB2713DEE09335
:10490200072807C00E94F22D0E94442E0A93A12F6D
:10491200BBDB19810881239608950E94E02C0E9436
:10492200442EE0910628E20FEA93A0910728A00FF7
:10493200ABDB0E942C32C4C00E94B82D2E812A9378
:104942003A93E02FE20FEA93A12FA30F00DD0E941A
:104952002C3227960895AA9322970E942332AA8581
:10496200A13019F4A985A13009F005C0EC85EA93BC
:10497200AC85E9DD64C0EA85E03019F0E985E03014
:1049820009F45DC0E885AC85EA0F1E2FE885AB858A
:10499200EA0F2E2FE0910D28E150EF83EA85AC85D6
:1049A200AE0FA1503A2FA885E32FEA1B0E2FAF813D
:1049B2003A1BE985AB85AE0FA1504A2FA885E42F9B
:1049C200EA1B5E2FAF814A1BE0910E28EE83EFEFC8
:1049D200E0930E281A93EC85EA93E02FE150EA93D4
:1049E200AE8552DB0A932A93EA85EA93A1E838D28C
:1049F2003A932A933A93A52FA15046DB0A935A93EE
:104A0200EA85EA93A8E82CD20A934A931A93A42F30
:104A12003BDB1A935A93EA85EA93A4E821D2EC8508
:104A2200EA935A93EE85EA93A22F2EDB1A932A93E6
:104A3200EA85EA93A2E814D2EE81E0930E280E945E
:104A42002A322D9608950E94ED2D3030C1F0002EAD
:104A5200012AA9F0F801E491EA93F8013196A491B0
:104A620044DFE32F3150E03051F0F801E491EA9352
:104A7200F8010E5F1F4F3196A49144DFF2CF0E94DE
:104A82002C32259608950E94BB311A930A93AA816B
:104A9200BB818C819D810E949A290E94832F8F0164
:104AA200AA81BB818C819D810E943E2C0E946A2C2E
:104AB2000E940C2D10F00F5F1F4FF8011981088121
:104AC20026960895BA93AA9324970E9423320C85BE
:104AD2001D853E854F8558892989EF85F889662786
:104AE20077270E94BA2FA5E3BAEF8EE89CE30E94D3
:104AF20043300E948B2CEA89F0E0FF93EF93AE8162
:104B0200BF81888599850E94342A0E94592EBBDF75
:104B1200AF91BF91AE0FBF1FF7DCD801EC93E22F2C
:104B2200F0E0FF93EF93AE81BF81888599850E9463
:104B3200AA290E94592EA7DFAF91BF91AE1BBF0BCE
:104B4200F1DCAA85BB85EC930E942A326396089514
:104B5200BA93AA9324970E942332EE85E987E091C3
:104B62000D28E8870E94F72DEE83FF83AB89BB27D0
:104B7200E8890E943F2EAA89BB27E9890E94602EFC
:104B8200E9890E94672E71F0E985E078F1F4AE853B
:104B9200BF85EAE5F0E00E946F2E1CF00E94782E9D
:104BA2000CF413C0332312F00E947D2EA885A2308C
:104BB20020F02230E0E03E070CF407C00E94812E74
:104BC20021F40A93A22FA150BEDCE985E878E838E7
:104BD20091F0E985E078C9F4AE85BF85A25FBE4F4A
:104BE2000E948C2E3CF0AE85BF85A25FBE4F0E9414
:104BF200912E0CF40AC00E94962E38F00E949D2E2F
:104C020021F40A93A42FAF5F9EDCAB89BB27E8890E
:104C1200F0E0AE1BBF0B8D0111230AF445C0E985FC
:104C2200E278E23891F0E985E07811F5AE85BF854A
:104C3200A65ABF4F0E948C2E3CF0AE85BF85A65A65
:104C4200BF4F0E94912E0CF413C0332312F00E9426
:104C52007D2EA885A23020F02230E0E03E070CF441
:104C620007C00E94812E21F40A93A22FA1506BDC6F
:104C7200E985E478E43871F0E985E078A9F4AE8555
:104C8200BF85EEE0F1E00E946F2E1CF00E94782EAC
:104C92000CF40AC00E94962E38F00E949D2E21F438
:104CA2000A93A42FAF5F4FDCAB89BB27E9890E942F
:104CB2003F2EAA89BB27E8890E94602EE8890E94BC
:104CC200672E81F0E985E078F1F4EC85FD85AE850B
:104CD200BF85AE17BF072CF0EA85FB85EA17FB07F5
:104CE2000CF411C033237AF00E947D2EA885A230E5
:104CF20050F0E02FEE5F0E94A82E29F4E02FEF5F24
:104D0200EA93A22F20DCE985E878E83871F0E9859A
:104D1200E078C1F4AE85BF85E8E6F1E00E946F2E2F
:104D22001CF00E94782E0CF40DC00E94962E50F0BA
:104D3200E02FEE5F0E94B22E29F4E02FEF5FEA939C
:104D4200A42F01DCAB89BB27E989F0E0AE1BBF0BC6
:104D52008D0111230AF450C0E985E278E23871F03E
:104D6200E985E07809F5AE85BF85E4EBF0E00E94C5
:104D72006F2E1CF00E94782E0CF416C03323A2F082
:104D82000E947D2EA885A23020F00230E0E01E07AE
:104D92000CF40AC0E02FE2500E94A82E29F4E02F62
:104DA200E150EA93A22FCFDBE985E478E43891F071
:104DB200E985E07809F5AE85BF85AC54BF4F0E9406
:104DC2008C2E3CF0AE85BF85AC54BF4F0E94912E15
:104DD2000CF412C00E94962E20F00230E0E01E0772
:104DE2000CF40AC0E02FE2500E94B22E29F4E02F08
:104DF200E150EA93A42FA7DB0E942A326496089519
:104E02000E9423325A2F4E81A885BB27E42FF0E05F
:104E1200AE1BBF0B79DB1E2FA885BB27EE27A40F85
:104E2200BE1F72DB0E2FAF81BB27E52FF0E0AE1B5A
:104E3200BF0B78DB3E2FAF81BB27EE27A50FBE1F2E
:104E420071DB2E2F1A933A930A93A32F1DD91A932B
:104E52002A930A93A22F18D90E942A320C94322A3A
:104E62000E9423324A2FA885A03618F4AF81A034BD
:104E720020F00E942A320C94322A50910D28E52FFC
:104E82005150E030C1F1EE81E03021F40E942A322B
:104E92000C94322AEE81E150EE83EF5F0E2F0E94D6
:104EA200BC2E403459F40E94CA2E1A93A02FA8DFB8
:104EB2000E94CA2E0A93A12FA3DF0DC00E94CA2E00
:104EC2001A930A93E42FF0E0FA93EA930E94F72CE4
:104ED200A0E0B0E03DDE1F5F33231AF4E12FF0E0E3
:104EE20002C00E94CF2EEE0FFF1F31962E0F3F1FE2
:104EF2000117B8F6C4CF0E942A320C94322A0E94BB
:104F0200B82D3A930A931A93AFE8AADF0E942C3283
:104F12000C94392B0E942332AD01A985A03618F4D6
:104F2200A885A03410F0E0E01DC0AE81BF810D91D4
:104F32001C91DA012D913C91D801E8E6F1E00E9442
:104F420083318F01D901E9E6F1E00E9483319F01AB
:104F5200AE81BF810D931C93DA01ED93FC93D801CE
:104F62000E9438310E942A322A9608950E942332E2
:104F72004A2F0E94D82EFE013A96FA93EA93DE0156
:104F82001A96C8DFE03009F463C0EB85E0930F287E
:104F9200EA85E09310280E94D82EEA85FB85FA93D1
:104FA200EA934A93E1E1F8E2FA93EA93A2E1B8E2E2
:104FB20089DD0E94D82EE885F985FA93EA934A930F
:104FC200E3E1F8E2FA93EA93A4E1B8E27BDD5091DF
:104FD2000D28E52F5150E030D9F1403021F40E94E4
:104FE2002A320C94F92A042F4A950E94BC2E0E9460
:104FF200D82E1A930A93E02F0E94012D0E94B631F7
:10500200E12F0E94012DDF01CB010E94A72AA1EE10
:10501200BEE285E692E40E9443300E94832FFA9317
:10502200EA93EE85FF85FA93EA93AE85BF8590DD1C
:105032001F5F33231AF4E12FF0E002C00E94CF2E4B
:10504200EE0FFF1F31962E0F3F1F011780F6C1CFC3
:105052000E942A320C94F92A22970E9423323A2F74
:10506200488559852C85E0910D28E1500E2FED855C
:10507200EA932A93FE013C96FA93EA93ADB7BEB740
:1050820011975F934F9346DF4F915F91E03009F4A0
:1050920057C010910E28EFEFE0930E28ED85EA93AA
:1050A2002A93EC85FD85FA93EA935A934A93A32FA8
:1050B2005DDFE0E0EE83AA85BB85A53BE0E0BE07AD
:1050C20008F00E83ED85EA932A93E0911128EA9382
:1050D200A0911228E985AE1B0E944520E0E0EE83F4
:1050E200453BE0E05E0708F00E83E0911328EA9367
:1050F200A0911428EF81AE1BAA93EF85EA93A22F09
:105102000E944520ED85EA932A93FA01AC85BD857C
:10511200AE0FBF1FFD01F695E795FA93EA93E32FD1
:10512200E695EA93FE013C96FA93EA93DE011D9618
:10513200C9DC0E94182E0E94FC2D18D010930E2854
:105142000E942A322E9608950E94E02C0E94D12DB0
:105152003A932A93A8E0B0E00E94292B00931528E5
:10516200109316280E942C320C94392BFF92BA937A
:10517200AA93E2970E942332ABADA03618F4AAADEF
:10518200A03408F07CC00E941D2EEE83FF83FE0136
:1051920038968F01EBAD0E94DD2EEAAD0E94DD2E26
:1051A200FE013896E017F10708F069C0015010407F
:1051B200D801EC91EAAF01501040D801EC91EBAF6D
:1051C2003BAD313048F00E94E22E19F00E94EC2EE5
:1051D20009F402C03150F5CFE894F0F8F1F83F5FDE
:1051E200303608F04BC00E94E22E19F00E94EC2EDD
:1051F20009F444C03A93EBADEA93A885B9850E94BD
:10520200B31FAAADA130D8F0EAADE1500E94F12E51
:1052120019F00E94EC2E09F410C0F0FC0DC0FE0142
:10522200F8960E171F0758F5E32F0E94DD2EE22F86
:105232000E94DD2E6894F0F802C0E894F0F8AAAD5E
:10524200AF33D8F4EAADEF5F0E94F12E19F00E945D
:10525200EC2E09F410C0F1FC0DC0FE01F8960E17F9
:105262001F0768F4E32F0E94DD2EE22F0E94DD2E3D
:105272006894F1F802C0E894F1F8B1CF91CF0E949E
:105282002A32EC96FF9008950E9423322A2F5E81E3
:105292004F8110910028E0910D280E2FE0910E28E9
:1052A2003E2F0E941D2E0E94132C0E94DD2B4A933A
:1052B2005A932A93A0E4D4DDE12FF0E00E94132C4C
:1052C20000930D2830930E280E942A320C94682AEB
:1052D2000E94BB317B816A81F981E88177FB770F7C
:1052E20067FD7160972F9E5781F078F0983190F4A6
:1052F200AA27BB27882708948795B795A7959A95DB
:10530200D1F7EA23FB23682305C0E8947727EE2729
:10531200FF2766276F77769508F4606877F9A99179
:10532200B99189919991EA17FB076807790797FB69
:1053320008950E94FC2E0E9469290E94012F19F4EF
:105342000E94042F01C1E6F70E94072F0E94ED2F51
:10535200FBC00E94BB3124971A9310E00E940D2FCC
:10536200E3E8F9EF62E27EE30E9443300E94122FEB
:10537200E0DF0E940D2F0E946A2C0E94122FE0E0B3
:10538200F0E060E07FE30E94D53009F008F409C044
:105392000E94172FA0E0B0E080E09FE30E941C2F44
:1053A20011E00E940D2FE0E0F0E060E87EE30E9451
:1053B200D53009F008F408C00E940D2FE0E0F0E0BB
:1053C20060E07FE30E941C2F103041F00E94172FF3
:1053D2000E944E2FED83FE836F8378870E94172FE2
:1053E2000E940D2F0E944330E983FA836B837C83F2
:1053F200A1EBB4EC86E292E40E946F2CEDE1F5EEB3
:105402006DE272E40E946A2C0E94072D0E944330D2
:10541200ACE4B3E584E091E40E94F42F0E940D2FE6
:105422000E9443307F936F93FF93EF93E981FA8158
:105432006B817C81A1E1BDEE8EED9FE30E94F42F92
:105442000E94072D0E944330AEE5BBE788EA9FE346
:105452000E94F42FAF91BF918F919F910E94913042
:105462001881299608950E94FC2E0E94DB2C0E942E
:10547200ED2FDF01CB016DDF67C00E94232F0E9459
:10548200CC2C0E9443300E94012F0E94042FA5E6DB
:10549200B0ED8BEC90E40E942B2F0E94CC2C0E944A
:1054A20043307F936F93FF93EF930E94042FA0E00A
:1054B200BDE689E291E40E94F42F0E94342F0E94FB
:1054C2002B2FAF91BF918F919F910E94913028967F
:1054D20008950E94FC2EEDECF3E164ED7EE30E9460
:1054E200D53020F40E94342FC8DF2EC00E94342F02
:1054F200EAE7F2E86AE170E40E94D53009F008F4C4
:105502000BC00E94072F0E94372FABEDBFE089EC42
:105512009FE30E946A2C18C00E94072F0E94ED2F61
:105522007F936F93FF93EF930E94072F0E94F42FB4
:10553200AF91BF918F919F910E94372FABEDBFE04A
:1055420089E49FE30E94F42F249608950E94232F5A
:105552000E941932D9F4E885F9856A857B850E9413
:10556200193229F4EFEFFFEF6FE77FE741C0A8851B
:10557200B9858A859B850E941D321CF40E94DB2C12
:1055820037C0EBEDFFE069EC7FEB32C0EC81FD81CF
:105592006E817F81A885B9858A859B850E9491301D
:1055A2000E94012F0E94CC2C0E941D3264F4AB8514
:1055B200AA2322F00E94342F8CDF1AC00E943D2FB2
:1055C2000E944E2F15C0AB85AA234AF00E943D2FA0
:1055D200ABEDBFE089E490E40E946A2C09C00E940E
:1055E200342F77DFABEDBFE089E490EC0E94F42F1B
:1055F2002C960895BA93AA93A991B991E991F99138
:1056020030962AF4E095F09531966DE26D93E89428
:1056120080E197E20DD088EE93E00AD084E69927E4
:1056220007D08AE005D06E2F10D066276C930895BC
:105632006627E817F90720F06395E81BF90BC9F70D
:10564200662311F416F008956894605D6D930895D1
:10565200BA93AA9399818881009641F0BD81AC8169
:10566200FB81EA8105900D920197E1F7FD81EC81C2
:1056720026960895BA93AA93B981A881109631F01B
:10568200FC81EB816A8161931197E9F7EB81FC81DF
:105692001BC00E94ED2DE32FE13019F4F801E491D3
:1056A20011C0E23021F4D8010E94D2310BC0E330A4
:1056B20039F4D801E0911F28F0912028099502C001
:1056C200D801EC910E942C32259608950E94253231
:1056D2001A2F2C813D810E81E02FE03021F4E12F41
:1056E200D901EC930EC0E23029F4E12FD9010E94D6
:1056F200DB3107C0E33029F43A932A93A12F0E94A9
:10570200372D0E942C3227960895E0EEF7E0E093C1
:105712000028F09301280895E0EEFFEFE0930028BF
:10572200F09301280895E0E0EA93EAE0EA9308950D
:10573200EFEFF7E0E0930028F09301280895E0E00E
:10574200EA93E4E1EA930895E0930828F0930928A4
:1057520008950E941624A0EABFE00E94442F0C94F0
:10576200A41FE4EFF1E0F0CF0E941624E1CFA9E6F6
:10577200B8E20C941624EA93A1E00E94AC22F7CF7F
:10578200E0930D28E5E5E0930E28E0E0EA93089522
:10579200E0930D28E3E3E0930E280895E0930D28AB
:1057A200EFEFE0930E28E0E0EA930895A8EBBBE068
:1057B2000E94442F0C94A41FE1E0E0930D28EFEF28
:1057C200E0930E280895E12F1F5FAAEBB7E2F0E005
:1057D200EE0FFF1FEA0FFB1F0E94A331E093002888
:1057E200F093012816310895A8EEB3E00C94442FEB
:1057F200EFE1F0E0E0931528F09316280895E09188
:105802000C28EE7FE0930C280895E0E0F0E0E093AE
:105812000228F09303280895EA93E1E2EA93A4E1CF
:105822000C948027E0930028F09301280895EA93CE
:10583200E1E2EA93E0E0F0E0FA93EA930895FE01F0
:10584200B596FA93EA93D9010E94C51AA4E6B0E08C
:105852000C94442FFE017296FA93EA93D9010E94A6
:10586200461CA4E6B0E00C94442FEFEFFFEFDACF32
:10587200E0931528F093162808950E9428310E947B
:10588200BA2F08950E9433310E94C23108950E94B6
:10589200F42F0E94812F0895F5DF0E94433008956E
:1058A200F1DFF5CFEFDF0E94C5310E94ED2F0E949C
:1058B200812F0895EA8DFB8D07801084AA8DBB8D00
:1058C2000895EA8DFB8DA381B481F001EA1BFB0BE5
:1058D20008950E94C5310E94ED2F08950E94433021
:1058E200DF01CB010895EE8BFF8B688F798F0895CE
:1058F200AE89BF89888D998D0895E281F0E0DF013C
:10590200ECE0F0E00E947E310895AE1BBF0BE2E0B6
:10591200F0E00895EE83FF83688779870895AE816A
:10592200BF81888599850E9443300895009100289F
:10593200109101280895AA85BB858C859D850E94BA
:1059420043300895D5DF0E94342AF5CF0E94832F79
:10595200FA93EA93A88DB98D8A8D9B8D0E94AA290C
:10596200AC85BD858E859F850E9443300E94832F22
:10597200DF010C948E24AC89BD89EC91EA93ED8908
:10598200FE89A181AA930895F0E0DF01EAE0F0E048
:105992000E947E310895AC81BD818E819F810895E0
:1059A200EC89FD89FA93EA9308950E94B631EA8D53
:1059B200FB8D0895EBEDFFE069EC7FE308950E9413
:1059C20025328D012C813D810895DE0118960E94B9
:1059D200FB2ADA01EC910895DE0116960E946623F5
:1059E200F0E00895DE0118960C94FF23E0E0F0E069
:1059F200FA93EA930895EE81FF81FA93EA93089568
:105A0200FF27662777270E94BA2F0895A981BA81B6
:105A12008B819C810895DF01CB01E0E0F0E060E042
:105A22007FE30E94D5300895AE81BF8118960E940F
:105A32009431E417F5070895E0910228F0910328C4
:105A42000895EE85EA93EE85EA93E885EA93089550
:105A5200EB85E150EB87EF5F0895E885F985319694
:105A6200E887F9873197FA93EA930895E09121281C
:105A7200F091222809950895EA85EA93E985FA8545
:105A82003196E987FA873197FA93EA930895E69572
:105A9200E695E6954E2F0895EA85EA93E985FA851B
:105AA2003196E987FA87319766277727DF01CB019D
:105AB2000E944A2B3E2F58E02F5F42170895A5E718
:105AC2000E94611FAD850E942E1EAFE30C942E1E14
:105AD2000E942E1EAFE50E942E1EE4E0E0936506B2
