:0C0000000C944B000C9400000C940000C9
:10000C000C9400000C9400000C9400000C94000064
:10001C000C9400000C9400000C9400000C94000054
:10002C000C9400000C9400000C9400000C94000044
:10003C000C9400000C9400000C9400000C94000034
:10004C000C9400000C9400000C9400000C94000024
:10005C000C9400000C9400000C9400000C94000014
:10006C000C9400000C9400000C9400000C94000004
:10007C000C9400000C9400000C9400000C940000F4
:10008C000000020006008C000000F894EE27ECBB88
:10009C00F1E0F5BFE5BFE0936C008DE0A2E0BB277B
:1000AC00ED938A95E9F780E090E1A0E0B1E0ED9363
:1000BC000197E9F7EEE8F0E085919591009761F0F2
:1000CC00A591B59105901590BF01F00105900D9289
:1000DC000197E1F7FB01F0CF8BBFEFEFEDBFE0E154
:1000EC00EEBFC0E0D5E00C947B00EFEFE4BBE0E0AA
:1000FC00E5BBE0E4E7B9E7E8E6B9E0E8EFBFAAE082
:10010C00B0E00CD2E7ECE6B9349BFECFE4B1F0E002
:10011C00DF01E5B1FE2FE0E0EA0FFB1F8F01D801F4
:10012C0014D0E4E6F0E04E165F063CF0E7B1E034A4
:10013C0011F43CD001C04DD006C0E7B1E03411F44D
:10014C0058D001C058D0DECFFFCF1A930A938D013F
:10015C00F80165D0CFD0A0E0B0E080EA90E44CD1BB
:10016C00DF01CB01E0E0F0EC6FE774E493D1E093B6
:10017C000005F09301056093020570930305A091AF
:10018C000005B09101058091020590910305E0E016
:10019C00F0E068EC72E430D1A0E0B0E080E09FE3E6
:1001AC00DCD071D02F01099119910895E0E8E5BBDD
:1001BC00E1E0F0E03F018824992424D03CF4A8EE3F
:1001CC00B3E0ACD1F40131964F01F7CFE3E4E7B9DA
:1001DC000895E0E4E5BB662477248824992412D0A2
:1001EC003CF4A8EEB3E09AD1F40131964F01F7CF6D
:1001FC000895E0E001C0E0E2E5BBA5E0B0E08ED1FF
:10020C0033010895E3E0F0E08E169F060895F09513
:10021C0060957095E195FF4F6F4F7F4F08956F2F4D
:10022C00660F660B762F0895552342F4503811F45F
:10023C00E0FF04C03196691F791F6BF050E8572717
:10024C0011F45F93C8C05F3F31F0660F000C5795F7
:10025C006795752F08955F9300200AF0C7C0C0C042
:10026C0050E8192E1522880F991F9527550F879541
:10027C0050E8072E0522660F771F7527550F6795D7
:10028C000895689401C0E8945F93F2DF703818F019
:10029C007F3F08F4A0C056E1571BAAF45195583083
:1002AC000EF4593030F0EFEFFFEF6FEF7FE777F997
:1002BC001AC077275523B9F0EE0FFF1F661F771F63
:1002CC005A95D1F710C07727583028F0EF2FF62F1A
:1002DC00672F5850F9CF552331F076956795F795E0
:1002EC00E7955A95D1F700200AF491DF5F910895B4
:1002FC00689401C0E894309760407040B1F00024DD
:10030C0026F0772312F4009482DF172E7EE1112061
:10031C0032F07A95EE0FFF1F661F111CF9CFEF2FED
:10032C00F62F612D5F938ADF5F9108954F93AF0194
:10033C00FD01DA01AB01BC01CA01402D012C142EC8
:10034C004F910895EA0FFB1F681F0895E095F095F3
:10035C006095EF5FFF4F6F4F08955F9381DF90388B
:10036C0039F1703821F1572F591B2BF112F4DEDFC4
:10037C00FACF583118F0AA27BB278827583028F015
:10038C00AB2FB82F88275850F9CF552329F08695D5
:10039C00B795A7955A95D9F7502D512572F0D2DF04
:1003AC0038F46795F795E795739513F41FC0BEDF86
:1003BC0045DF5F910895D8F7FBCFEA1BFB0B680B69
:1003CC0051F010F40094C2DF662392F3EE0FFF1F7E
:1003DC00661F7A95CBF7EE27FF27BF015F91089533
:1003EC00EFEFFFEF6FE77FEF5F910895EFEFFFEF18
:1003FC006FE77FE75F9108955F9332DF703859F3B1
:10040C00903849F301240894791F23F424F3002035
:10041C003AF3ECCF0F921F932F933F934F931127E7
:10042C0022279927689FA0018F9F302D410D591FBE
:10043C006B9F300D411D591F8E9F27D0BF9F25D01C
:10044C006A9F23D0BE9F1DD0AF9F1BD0AE9F110DB6
:10045C00291F391F491F591FE32FF42F652F522FC6
:10046C004F913F912F911F910F9066232AF0550FBA
:10047C00EE1FFF1F661F02C073954BF2D5DE5F9116
:10048C000895100D211D391F02C0200D311D491F6B
:10049C00591F08955F93E4DE703821F411200AF49B
:1004AC009FCFA4CF903809F496CF01240894970BD2
:1004BC001BF4D4F30020F3CF792F1F932F933F938A
:1004CC004F931124112722273327A90190E2AE174D
:1004DC00BF078607410730F0AE1BBF0B860B410BE5
:1004EC00089401C08894551F221F331F111CAA1F8A
:1004FC00BB1F881F441F9A9551F7F901612D4F912D
:10050C003F912F911F91662332F0550FEE1FFF1F65
:10051C00661F7A954BF288DE5F910895109639F03C
:10052C00A89580EA9FE00197F1F71197C9F7089514
:00000001FF
