:060000000C9473140C9433
:1000060000000C9400000C9400000C9400000C946A
:1000160000000C9400000C9400000C9400000C945A
:1000260000000C9400000C9400000C9400000C944A
:1000360000000C9400000C9400000C9400000C943A
:1000460000000C9400000C9400000C9400000C942A
:1000560000000C9400000C9400000C9400000C941A
:1000660000000C9400000C9400000C9400000C940A
:1000760000000C9400000C9400000C9400000C94FA
:1000860000000C9400000C9400000C9400000C94EA
:1000960000000C9400000C9400000C9400000C94DA
:1000A60000000C9400000C9400000C9400000C94CA
:1000B60000000C9400000C9400000C9400000C94BA
:1000C60000000C9400000C9400000C9400000C94AA
:1000D60000000C9400000C9400000C9400000C949A
:1000E60000000C9400000C9400000C9400000C948A
:1000F60000000C9400000C9400000C9400000C947A
:1001060000000C9400000C9400000C9400000C9469
:1001160000000C9400000C9400000C9400000C9459
:1001260000000C9400000C9400000C9400000C9449
:1001360000000C9400000C9400000C9400000C9439
:1001460000000C9400000C9400000C9400000C9429
:1001560000000C9400000C9400000C9400000C9419
:1001660000000C9400000C9400000C9400000C9409
:1001760000000C9400000C9400000C9400000C94F9
:1001860000000C9400000C9400000C9400000C94E9
:1001960000000C9400000C9400000C9400000C94D9
:1001A60000000C9400000C9400000C9400000C94C9
:1001B60000000C9400000C9400000C9400000C94B9
:1001C60000000C9400000C9400000C9400000C94A9
:1001D60000000C9400000C9400000C9400000C9499
:1001E60000000C9400000C9400000C94000005071D
:1001F6002060000000000000000404040404000461
:100206000A0A0A000000000A0A1F0A1F0A0A041E38
:10021600050E140F04031308040219180609050233
:100226001509160604020000000008040202020472
:100236000802040808080402000A041F040A000051
:1002460004041F040400000000000604020000006D
:100256001F0000000000000006060000100804024F
:1002660001000E11191513110E0406040404040EE0
:100276000E11100804021F1F08040810110E080CA6
:100286000A091F08081F010F1010110E0C02010F9A
:1002960011110E1F1008040202020E11110E111187
:1002A6000E0E11111E1008060006060006060000B6
:1002B6000606000604021008040204081000001FC7
:1002C600001F0000010204080402010E11100804B8
:1002D60000040E11101615150E0E1111111F111115
:1002E6000F11110F11110F0E11010101110E070946
:1002F60011111109071F01010F01011F1F0101073C
:100306000101010E11010119110E1111111F111117
:10031600110E04040404040E1C080808080906113A
:100326000905030509110101010101011F111B1531
:1003360011111111111113151911110E111111119C
:10034600110E0F11110F0101010E111111150916D0
:100356000F11110F0509111E01010E10100F1F04B8
:1003660004040404041111111111110E11111111BB
:10037600110A0411111115151B1111110A040A1184
:100386001111110A040404041F10080402011F1CA1
:1003960004040404041C00010204081000070404F9
:1003A60004040407040A1100000000000000000015
:1003B600001F0204080000000000000E101E111E9F
:1003C60001010D1311110F00000E0101110E101085
:1003D600161911111E00000E111F010E0C12020734
:1003E60002020200001E111E100C01010D13111154
:1003F600110400060404040E08000C08080906028D
:1004060002120A060A120604040404040E00000B73
:100416001515111100000D1311111100000E111107
:10042600110E00000F110F0101000016191E101009
:1004360000000D1301010100000E010E100F020253
:10044600070202120C0000111111191600001111F9
:10045600110A040000111115150A0000110A040AF8
:1004660011000011111E100E00001F0804021F08C3
:100476000404020404080404040404040402040436
:1004860008040402021508000000001F11111111D2
:10049600111F000E206005020406060A0702040466
:1004A60004060304030306060606060606060606F3
:1004B6000303060606060B080707070606080702D3
:1004C600050706080708060807070607080B0708B2
:1004D60007030303050604060606060604060602C7
:1004E600020502080606060604060306060A0606AE
:1004F60006040204060800000000000000000000D8
:1005060000000000000000010101010101000100DE
:1005160000000000000505050000000000000000C6
:1005260000000014141F0A0A1F0505000000000041
:10053600000E15050E1414150E0400000000000030
:1005460000004600290029001600D00028012801D5
:10055600C4000000000000000000000C12120C0A8B
:1005660031112E0000000000000101010000000012
:100576000000000000000004020101010101010267
:100586000400000000010204040404040402010043
:100596000000000207020500000000000000000045
:1005A60000000004041F0404000000000000000016
:1005B600000000000000020202000000000000002F
:1005C600000007000000000000000000000000001E
:1005D6000000020000000000000404020202020102
:1005E600010000000000000E1111111111110E0082
:1005F60000000000000406050404040404000000D2
:100606000000000E1110100804021F000000000078
:10061600000E11100C1010110E0000000000000852
:100626000C0A0A091F08080000000000001E02014B
:100636000F1010110E0000000000000E11010F1126
:1006460011110E0000000000001F08080404020239
:10065600020000000000000E11110E1111110E0013
:1006660000000000000E1111111E10110E000000F6
:100676000000000000010000000001000000000072
:100686000000000100000000010101000000000060
:1006960000100E010E100000000000000000000017
:1006A6001F001F00000000000000000000010E10E7
:1006B6000E01000000000000000E111008040400E6
:1006C60004000000000000000000F8000601B2026D
:1006D600C902450245026501D9000202FC0100007B
:1006E60000000008141414223E41410000000000DE
:1006F600001F21213F2121211F0000000000001CB6
:100706002201010101221C0000000000000F11213E
:10071600212121110F0000000000001F01011F010F
:1007260001011F0000000000001F01010F0101016F
:10073600010000000000001C2241017141221C0042
:1007460000000000002121213F212121210000007D
:10075600000000010101010101010100000000008B
:100766000008080808080909060000000000002122
:1007760011090D0B111121000000000000010101FB
:10078600010101011F00000000000041636355558F
:10079600554949000000000000212325252929315B
:1007A600210000000000001C2241414141221C00A2
:1007B60000000000000F1111110F010101000000DF
:1007C6000000001C2241414159225C00000000004B
:1007D600001F21211F091111210000000000001E29
:1007E6002101061820211E0000000000001F04043D
:1007F600040404040400000000000021212121213A
:1008060021211E000000000000414122221414088C
:1008160008000000000000000000210451045202FC
:1008260052028A028A02040104010000000000004C
:100836000000002112120C0C121221000000000010
:100846000041222214080808080000000000003EAB
:100856001008080404023F00000000000003010124
:100866000101010101010300000000010102020271
:100876000204040000000000000302020202020259
:1008860002020300000000040A0A11000000000032
:1008960000000000000000000000000000003F0013
:1008A600000000010200000000000000000000003F
:1008B6000000000E111E11191600000000000001B4
:1008C600010D131111130D00000000000000000EB1
:1008D600110101110E000000000000101016191180
:1008E60011191600000000000000000E111F011172
:1008F6000E000000000000040207020202020200CD
:1009060000000000000000161911111916100F0042
:1009160000000001010D131111111100000000006B
:1009260000010001010101010100000000000002B8
:100936000002020202020202010000000001010997
:100946000503050509000000000000010101010181
:1009560001010100000000000000003D4B4949492B
:100966004900000000000000000F111111111100D4
:10097600000000000000000E111111110E00000011
:1009860000000000000D131111130D0101000000FD
:1009960000000016191111191610100000000000B1
:1009A6000005030101010100000000000000000E27
:1009B600110608110E0000000000000202070202E4
:1009C60002020600000000000000001111111119BA
:1009D60016000000000000000011110A0A040400BD
:1009E60000000000000000000000000011012901C5
:1009F600AA00AA0044004400000000000000000015
:100A0600000000110A04040A1100000000000000A2
:100A16000011110A0A040404020000000000001F6D
:100A2600080404021F000000000000040202020184
:100A3600020202020400000000010101010101019D
:100A46000101010000000002040404080404040477
:100A56000200000000000000170D0000000000006A
:100A6600000000007E42424242427E000000000E2C
:100A760020600503050606090803040404060304AA
:100A8600030306060606060606060606030306060C
:100A960006070B0807080706060807030607070ADE
:100AA6000708070807070707080B080807040304D1
:100AB6000606040607060707050707030307030BD1
:100AC6000707070705070507070A070706040304BC
:100AD6000608000000000000000000000000000002
:100AE60000000003030303030003030000000000EB
:100AF600001B1B1B0000000000000000000000247B
:100B0600243F12123F09090000000000040E1505DB
:100B16000F1E14150E040000000000000000270040
:100B2600250015001700E800A800A400E400000056
:100B3600000000000000001C36360C5E73337E0099
:100B46000000000000030303000000000000000096
:100B5600000000040603030303030206040000006A
:100B6600000102020606060602030100000000025A
:100B7600070205000000000000000000000000045D
:100B8600041F040400000000000000000000000034
:100B9600000303020100000000000000000007003F
:100BA6000000000000000000000000000003030039
:100BB600000000000004040202020201010000001D
:100BC6000000000E1B1B1B1B1B1B0E000000000061
:100BD600000C0E0F0D0C0C0C0C0000000000000E9B
:100BE6001B18180C06031F0000000000000E1B183F
:100BF6000C18181B0E000000000000181C1A1A1909
:100C06003F18180000000000001E06030F19181BED
:100C16000E0000000000000E1B030F1B1B1B0E0026
:100C260000000000001F180C0C0606060600000057
:100C36000000000E1B1B0E1B1B1B0E0000000000FD
:100C4600000E1B1B1B1E181B0E00000000000000E0
:100C5600000303000003030000000000000000037F
:100C6600030000030302010000000000100C030350
:100C76000C10000000000000000000001F001F0014
:100C86000000000000000000010618180601000020
:100C960000000000001C3630180C000C0C00000090
:100CA600000000000000F8000601FA02C902450231
:100CB60045026501FA000603F8000000000000384E
:100CC600386C6C6CFEC6C60000000000001F333393
:100CD6001F3333331F0000000000003C660303038C
:100CE60003663C0000000000001F33333333333308
:100CF6001F0000000000001F03031F0303031F0063
:100D060000000000001F03031F030303030000008D
:100D16000000003C6603037363663C0000000000AD
:100D2600003333333F333333330000000000000316
:100D36000303030303030300000000000018181850
:100D46001818181B0E000000000000331B1B0F1F95
:100D56001B333300000000000003030303030303F7
:100D66003F000000000000000000C701C701EF01BE
:100D7600EF01AB01BB01BB019301000000000000C5
:100D8600000000333337373B3B33330000000000AD
:100D9600001C3663636363361C0000000000001FFE
:100DA6003333331F0303030000000000001C3663C7
:100DB60063636B363C4000000000001F3333331F73
:100DC6001B33630000000000001E33030F3C30336A
:100DD6001E0000000000003F0C0C0C0C0C0C0C005C
:100DE6000000000000333333333333331E0000007A
:100DF6000000006363363636361C1C000000000017
:100E06000000000023067306760356035603DE032E
:100E16008C018C0100000000000000000066663CAA
:100E260018183C66660000000000006666243C1840
:100E36001818180000000000003F30180C0C0603BC
:100E46003F0000000000000703030303030303033E
:100E56000700000000010102020202040400000073
:100E6600000000070606060606060606070000003E
:100E760000040E0A1B000000000000000000000035
:100E860000000000000000003F0000000003060014
:100E9600000000000000000000000000000E191E07
:100EA6001B1B1E00000000000003031F33333333F7
:100EB6001F00000000000000000E1B03031B0E00B5
:100EC600000000000030303E333333333E00000074
:100ED60000000000001E333F03331E000000000028
:100EE600001C060F060606060600000000000000AD
:100EF600003E333333333E311E0000000003031F30
:100F060033333333330000000000000300030303D0
:100F1600030303000000000000060006060606069E
:100F2600060603000000000303331B0F1F1B3300DC
:100F36000000000000030303030303030300000093
:100F460000000000000000000000FF01330333032F
:100F560033033303330300000000000000000000E9
:100F6600001F333333333300000000000000001E3F
:100F7600333333331E00000000000000001F3333FC
:100F860033331F03030000000000003E33333333C6
:100F96003E30300000000000000F0303030303008F
:100FA600000000000000001E330F3C331E0000004E
:100FB60000000004060F060606060C0000000000EE
:100FC60000000033333333333E00000000000000DE
:100FD60000363636361C1C000000000000000000FB
:100FE600000000009301BB01BB01EE00EE00C6004D
:100FF600000000000000000000000036361C1C3611
:10100600360000000000000000633636361C1C0C5B
:10101600070000000000001F180C06031F00000058
:101026000000000C06060606030606060C00000075
:101036000002020202020202020202000000000393
:10104600060606060C060606030000000000000061
:1010560016090000000000000000007E42424242E5
:1010660042427E000000070E2060000000000000E3
:10107600000000000000000000000000080808084A
:10108600080008000000000000001414140000000E
:10109600000000000000000028143E14143E140A4C
:1010A600000000000000081C020C100E04040000E2
:1010B60000000000040A041E0814080000000000D6
:1010C6000000001804041A123C0000000000000092
:1010D60008080800000000000000000000001010D2
:1010E60008080808101000000000000004040808A2
:1010F60008080404000000000000083E0814000070
:1011060000000000000000000808083E080808006B
:10111600000000000000000000000000180C0400A1
:10112600000000000000003E00000000000000007B
:1011360000000000000000000C000000000000009D
:1011460020101008080404020000000000001C2201
:10115600222222221C000000000000000C080808C1
:1011660008083E000000000000001C2210080402CF
:101176003E000000000000001C22201820221C0057
:10118600000000000000101814123E103800000085
:10119600000000003C04041C20221C00000000008B
:1011A60000003804021E22221C000000000000007D
:1011B6003E222010100808000000000000001C223B
:1011C600221C22221C000000000000001C22223CDF
:1011D60020100E0000000000000000000C000000BF
:1011E6000C000000000000000000180000180C04AD
:1011F6000000000000000020180618200000000073
:101206000000000000003E003E000000000000005C
:10121600000000020C300C0200000000000000007C
:101226000C12100808000C000000000000001C2230
:10123600322A2A32023C0000000000000C08141476
:101246001C2277000000000000001F22221E22221E
:101256001F000000000000003C22020202221C00C7
:101266000000000000000F12222222120F000000D0
:10127600000000003E24141C14243E000000000060
:1012860000003E24141C14040E00000000000000A0
:101296003C22020272221C0000000000000077229D
:1012A600223E222277000000000000003E080808C7
:1012B60008083E000000000000003C10101012124A
:1012C6000C000000000000007722120E12226700B8
:1012D6000000000000000E04040424243E00000068
:1012E600000000007736362A222277000000000030
:1012F60000007726262A2A32370000000000000068
:101306001C22222222221C000000000000001E24B3
:1013160024241C040E000000000000001C222222CF
:1013260022221C380000000000001E2424241C2455
:101336004E000000000000002C32021C20221E007D
:101346000000000000003E2A080808081C000000F3
:10135600000000007722222222221C00000000004A
:1013660000007722221214140C0000000000000076
:1013760077222A2A2A2A140000000000000063228D
:1013860014081422630000000000000077221408ED
:1013960008081C000000000000003E22100804227D
:1013A6003E00000000000000180808080808081899
:1013B60000000000000002040408080810100000E5
:1013C600000000000C0808080808080C00000000CF
:1013D60000000814220000000000000000000000C9
:1013E6000000000000000000007F0000000004086C
:1013F60000000000000000000000000000001C22A9
:101406003C227E0000000000000003021A26222271
:101416001F0000000000000000003C2202023C0009
:1014260000000000000030202C3222227C00000048
:101436000000000000001C223E023C0000000000EC
:10144600000030083C0808083C00000000000000CE
:1014560000006C3222223C201C0000000000030227
:101466001A262222770000000000000008000E085D
:1014760008083E0000000000000008001E101010C2
:1014860010100E000000000003023A120E123B007C
:101496000000000000000C08080808083E000000D4
:1014A600000000000000172A2A2A7F000000000022
:1014B600000000001B26222277000000000000002A
:1014C60000001C2222221C00000000000000000078
:1014D6001B2622221E0207000000000000006C32BC
:1014E60022223C207000000000000000360C04049C
:1014F6001E0000000000000000003C021C201E0030
:1015060000000000000000021F0202221C00000072
:10151600000000000000332222326C0000000000B0
:1015260000000000772212140C00000000000000EA
:10153600000077222A2A14000000000000000000A4
:101546003614081436000000000000000000772260
:10155600141408080E000000000000003E120824C3
:101566003E00000000000000100808080C080808EB
:101576001000000000000808080808080808000015
:101586000000000004080808180808080400000005
:1015960000000000002C1A000000000000000000FF
:1015A6003F21212121213F000000000E2060070776
:1015B60007070707070707070707070707070707B5
:1015C60007070707070707070707070707070707A5
:1015D6000707070707070707070707070707070795
:1015E6000707070707090708070707070708070781
:1015F6000707070707070707070707090707070773
:10160600070707070709070807070707070700006F
:1016160000000000000000000000000000000000C4
:101626000C0C0C0C0C000C00000000000000141444
:1016360014000000000000000000003636367F3639
:101646007F3636360000000000083C26061C303285
:101656001E080800000000000609293E4A4830001E
:101666000000000000001C0606371D193E000000A1
:10167600000000000808080000000000000000004C
:10168600000010180C0C0C0C1810000000000000D4
:10169600040C181818180C04000000000000187E2E
:1016A6001824000000000000000000000008083EAA
:1016B6000808000000000000000000000000000014
:1016C60008040400000000000000003E00000000C6
:1016D6000000000000000000000000000C000000F8
:1016E600000000303018181C0C0C06060000000024
:1016F60000001C36363636361C000000000000009E
:10170600181E181818187E000000000000001C366D
:1017160030180C063E000000000000001C32301C91
:1017260030321C00000000000000181C1A193F1877
:101736003C000000000000003E061E3230321C0055
:10174600000000000000380C061E36361C000000A3
:10175600000000003E32303018181800000000006B
:1017660000001C36361C36361C0000000000000047
:101776001C36363C30180E00000000000000000049
:101786000C0000000C0000000000000000000C002F
:1017960000080404000000000000201804030418D8
:1017A600200000000000000000007F007F00000015
:1017B600000000000000020C1060100C0200000087
:1017C600000000001C36301C0C000C00000000005D
:1017D60000001E2139253901211E000000000000ED
:1017E6001F1C36363E3677000000000000001F360C
:1017F600361E36361F000000000000003E2303039D
:1018060003231E000000000000001F363636363661
:101816001F000000000000003F26161E16263F008F
:101826000000000000003F26161E16061F000000DE
:10183600000000003E2303037B333E00000000004F
:1018460000007736363E363677000000000000008E
:101856003F0C0C0C0C0C3F000000000000007C301C
:10186600303033331F000000000000007726160ECC
:101876001E366F000000000000000F060606262632
:101886003F00000000000000633636362A2A770043
:1018960000000000000073262E2A3A3227000000BE
:1018A600000000001E33333333331E0000000000F7
:1018B60000001F3636361E060F000000000000002E
:1018C6001E33333333331E3C0000000000001F3646
:1018D600361E16366F000000000000003C26061C6F
:1018E60030321E000000000000003F2D2D0C0C0CB5
:1018F6001E000000000000007736363636361C0023
:1019060000000000000077363636141C1C0000006C
:101916000000000000000000EF01C600D600D6005F
:101926005C006C006C00000000000000000000007D
:1019360077361C1C1C367700000000000000F76696
:101946003C1818183C000000000000003E321A182F
:101956002C263E000000000000003C0C0C0C0C0C79
:101966000C3C00000000000307060E0C1C18383063
:101976000000000000001E1818181818181E000095
:101986000000000008142200000000000000000013
:101996000000000000000000000000FF000000043E
:1019A6000800000000000000000000000000000029
:1019B6001E303E337E0000000000000007063E6633
:1019C60066663F0000000000000000003E2303237F
:1019D6001E0000000000000038303E3333337E0026
:1019E60000000000000000001E333F033E00000020
:1019F60000000000380C3E0C0C0C3E0000000000FD
:101A0600000000007E3333333E301E00000000002D
:101A160007061E36363677000000000000000C0070
:101A26000F0C0C0C3F000000000000000C001F18FB
:101A3600181818180F00000000000706361E1E367C
:101A460067000000000000000F0C0C0C0C0C3F009F
:101A560000000000000000000000000000007F0001
:101A6600D600D600D600D701000000000000000016
:101A7600000000001F363636770000000000000028
:101A860000001E3333331E0000000000000000007B
:101A96003F6666663E061F000000000000007E33BB
:101AA60033333E307C00000000000000372E06066F
:101AB6001F0000000000000000003E231E311F0032
:101AC60000000000000006061F0606261C00000097
:101AD600000000000000373636367C0000000000AB
:101AE600000000007736141C1C00000000000000F7
:101AF6000000000000000000EF01D600D6006C00D8
:101B06006C000000000000000000000000007736B6
:101B16001C3677000000000000000000EE6C28185C
:101B2600180C1F000000000000003E1A0C263E00A4
:101B36000000000000001C0C0C0C060C0C1C000025
:101B4600000000000C0C0C0C0C0C0C0C000000002F
:101B560000000E0C0C0C180C0C0E0000000000000F
:101B660000000026190000000000000000003F21D0
:101B7600212121213F000000001120600706050DEC
:101B86000C090A090506060D0D05060508090708CC
:101B9600080808080808080409090A090B0B0B0AB3
:101BA6000A0A0A090B0B070B0A0D0D0B09090A0A8B
:101BB600090A0B0F0F0B0B0806060D0D090708087F
:101BC6000708070708080508080B0C09080808068F
:101BD6000608080A0A08080C0D0C0C0C0000000088
:101BE60000000000000000000000000000000000EF
:101BF600060E0E0C0C0C06000C0E00000000000079
:101C0600001E1F0F0F0000000000000000000080F3
:101C160001E001FC019E01FF07FE06FF07DF03FE50
:101C260001DE037C037E07DE0EFC1B700000000055
:101C3600000000180030007C007E007E001E001CA4
:101C460000780078007B007E003E000C000C00004F
:101C5600000000000000000000CE00DE007B007ED9
:101C6600003C00D800F801BC01EC01E600060000CB
:101C7600000000000000000000000078006E006612
:101C860000CE0038001C00F601C700CE0078000028
:101C96000000000000000000000000000006000731
:101CA6000003000300000000000000000000000028
:101CB600000000000000000000000018180C0C0CCA
:101CC6000E0E0C0C0C181800000000000306060C83
:101CD6000C1C0C0C0C0606030000000000001E1C69
:101CE6001F00000000000000000000008001EC0161
:101CF600FE01FF03F601F601FE03FC03F807B80731
:101D0600F806780E781FEC01600060000000000005
:101D160000000000000000000000000000000000BD
:101D26000000000006000600060006000000000095
:101D36000000000000000000001F0000000000007E
:101D46000000000000000000000000000606000081
:101D56000000000018181C0C0C0C060606030303F2
:101D66000000000000003C6E66E6E6E7E6E66C383A
:101D76000000000000000000000038003E003B00AC
:101D86003800380018001800180018007E000000FF
:101D96000000000000000000001E3B736070303839
:101DA600786C7F000000000000003E7663301C382F
:101DB60063E3731E00000000000060607070787CB2
:101DC60036FF3030F8000000000000007E060606F0
:101DD6003E706066361E00000000000060380C0C85
:101DE6003E6EE6E7E66E3C00000000000000FE6383
:101DF60063633030181C1C0E000000000000003C1D
:101E060066666E3C76E6E7663C0000000000000071
:101E16003C6666E7E67E7C7030180E000000000027
:101E2600000000000606060000060600000000008E
:101E36000000000000060606000006060606000072
:101E4600000000001C007E000E000E00FE00FF00D9
:101E5600CE00CC00C600C600FF0100000000000056
:101E66000000C000F000FC00FC01FC00FC00FC00CF
:101E7600FE00FF007E0070007800FC00FC013000D0
:101E86000000000000000000DC00FE00EE00E6009E
:101E9600E600FF00C600C600C6006600FF0100009F
:101EA6000000000000000000000000001C003600DA
:101EB6003300300038000C000C0000000C001C0041
:101EC60000000000000000008001FC01FC017E0310
:101ED600DE03EF03EE00FE00FF006C007C007807D7
:101EE600F00170006000000000000000000000002B
:101EF6007800700070007000D800D800FC01CC019A
:101F0600C601FF07000000000000000000000000FE
:101F160000007F00EC00CC01EC003C00FC00CC0192
:101F26008C01FC017F0000000000000000000000A2
:101F3600000000007000DC00CE000600070006006E
:101F460006000E00DC00700000000000000000002B
:101F56000000000000003F00EC00CC018C018C0367
:101F66008C038C03CC01FC003F0000000000000045
:101F76000000000000000000FF00DC008C01CC0027
:101F8600FC00CC00CC008C018C01FE01000000009E
:101F960000000000000000000000FF00CC00CC00A4
:101FA600CC007C006C006C000C000C003E000000B5
:101FB600000000000000000000000000F000DC004F
:101FC600CE00060007000600F601CE007C00700079
:101FD6000000000000000000000000000000FE07F6
:101FE6008C018C018C01EC01BC018C018C019C01E3
:101FF600FF030000000000000000000000000000D9
:102006003F001C000C000C000C000C000C000C0027
:102016000C003E0000000000000000000000007EF2
:10202600383838181818181F1C0000000000000067
:10203600000000FF03DC007C003C003C003C006C20
:1020460000EC00CC01FE07000000000000000000CC
:1020560000000000003F001C000C000C000C000CEF
:10206600000C00CC00CC00FE0000000000000000C8
:10207600000000000000007E1F3C063C063C073CBA
:1020860007BC0FEC0FEC0CCE0CCE0E7B1B00000039
:10209600000000000000000000FE07BC01BC01BCFF
:1020A60001FC01EC01EC01CC018C018E019B0100CD
:1020B60000000000000000000000007800EC00C6F0
:1020C60000C601C601C701C600CE006C003800007C
:1020D600000000000000000000000000007E00EC90
:1020E600018C01CC006C003C000C000C000C003F85
:1020F6000000000000000000000000000000007C5E
:1021060000EC00C600C601C601C701DE00DE007C89
:102116000038006000E00130000000000000000010
:10212600007E00EC00CC01CC01EC007C006C00FCD5
:1021360000DC00FF030000000000000000000000BB
:102146000000007C00660066000E001C007800E0BF
:1021560000E30066003E00000000000000000000F2
:102166000000000000FF01BB01BB01380038003849
:10217600003000300018007C000000000000000065
:1021860000000000000000FF038C018C018C018C14
:10219600018C018C018C01DC00F8000000000000BD
:1021A600000000000000000000FF079C019C01DC0D
:1021B60000D800D8007800700070003000000000E1
:1021C6000000000000000000000000FF7F9C339C20
:1021D6001BDC1BD81B780F780F780F3006300630C3
:1021E60006000000000000000000000000FF079C41
:1021F60001F800780070007000D80098018C01DFAB
:10220600070000000000000000000000000000DFE2
:10221600078C01DC00D80078007000700070007038
:1022260000FC0000000000000000000000000000AC
:1022360000FE00630063007000300038001C00DC04
:1022460000CE00FF00000000000000000000003E7D
:102256000E0E0E0E0E0E0E0E0E0E3E0000000000AE
:102266000607060E0C0C0C0C1818181800000000B7
:10227600000F0C0C0C0C0C0C0C0C0C0C0F000000C2
:102286000000E001FE01CF1FFE07DB03FE03FC0199
:10229600F601FC01F801FC01B001F80378006000CA
:1022A6000000000000000000000000000000000028
:1022B6000000000000000000000000000000000018
:1022C600FF01000000000000000006000C001800DE
:1022D60000000000000000000000000000000000F8
:1022E600000000000000000000000000181C363C42
:1022F600363E7F0000000000000E0F0E0E3E7E6E82
:10230600EC6C6C3E00000000000000000000183E6F
:10231600060707363C000000000000707C707078ED
:102326003E363737367C0000000000000000000013
:10233600183E363F67361C0000000000001C7E0E6B
:102346000E0E3F060606063F0000000000000000D5
:1023560000703C363637361C0C3E63673C00000E78
:102366000F0E0E1E3E6E767676FF00000000000011
:10237600000E06000C0F0E0E0C061F0000000000DB
:1023860000000E06000C0F0E0E0E060607070300D1
:1023960000000E0F0E0E6E7E6E3C3636FF000000FD
:1023A6000000000E0F0E0E0E0E0E0606061F000093
:1023B6000000000000000000000000000000BC015A
:1023C600FF036E036E036C036603FF070000000045
:1023D60000000000000000000000000000000000F7
:1023E6003C003F006E006E006C006C00FF000000B9
:1023F60000000000000000000000000000000000D7
:10240600000018003E0076007700770036001C00BA
:1024160000000000000000000000000000001C7F1B
:102426006E6EEE6C3C0C06061E0000000000003CC2
:10243600FE763737363C303030780000000000003A
:102446003C3F3E3E0C061F0000000000000000005E
:10245600001C1E071E383B1E000000000000000086
:102466000C0C0E3F060606061C00000000000000CD
:102476000000006C7F7E3E3E36FC0000000000003F
:1024860000000000FF363E3C1C1C0C000000000053
:102496000000000000000000000000FF03F601FE3F
:1024A60001FC01FC00FC00CC000000000000000064
:1024B600000000000000000000000000007F003E59
:1024C600003C0018003C003E00FF00000000000039
:1024D600000000000000000000FF6E3E3C3C1C189F
:1024E6000C0C0F060000000000003E331B180C3ECB
:1024F6003F000000000000F001FE019E01FF03FC0A
:1025060007FE0EFF0CDC0CD80E78067C03DC017887
:10251600007000000000000000C007FC033F0EBE74
:102526000FBC0DBC077E07FE07FC06F800FC00FC8E
:1025360001780370000000000000008003F003FE35
:1025460007BC07DE07FF01EE01FF00FC0FDC06FCFF
:1025560006F8036000600000000000C000F000FE06
:10256600008F07FF037E03FF01FC01FB00FE007ED8
:10257600037C03EC0338003000000000000000007C
:102586000000007F00630063006300630063006374
:1025960000630063007F00000000000000000000F0
:1025A600AA55AA55AA55AA55FFFFFFFFFFFFFFFF31
:1025B600280000390A00391E00282800171E0017B7
:1025C6000A00280000004026004626FF4C265B51E4
:1025D60026F65C26386226B86726076C26C0702663
:1025E6006F7526F87C26C784263F89261B9326E02E
:1025F6009A26CF9F2690A5268EAC26ACB326AAB8DF
:102606002603BD2640C42643CB26580000010307F7
:102616000F1F3F7FFF00000000000000002604405F
:1026260034C0B600080201041027E80364000A005B
:1026360001000010000110000100426C61636B0094
:1026460057686974650047726179004C69676874F8
:10265600204772617900477265656E004C696D6549
:1026660000426C75650052656400417175610059E0
:10267600656C6C6F77004D6167656E7461004379B8
:10268600616E004461726B204379616E004F726126
:102696006E67650050696E6B0042726F776E00560A
:1026A600696F6C65740053696C76657200476F6C70
:1026B60064004E617679004D61726F6F6E005075E1
:1026C60072706C65004F6C69766500496C6974655B
:1026D6006B20494C49393334302047726170686940
:1026E60063732044656D6F0A486572652061726583
:1026F60020736F6D6520666F6E742073616D706CEC
:1027060065733A005374616E646172642C20357887
:102716003720706978656C7300417269616C2C2092
:10272600313420706978656C7320686569676874F0
:102736000A00417269616C20426F6C642C2031344E
:1027460020706978656C73206865696768740A002B
:10275600436F75726965722C203778313420706941
:1027660078656C730A00436F757269657220426FF3
:102776006C642C313420706978656C7320686569E7
:102786006768740A004C612042616D62612C3137C2
:1027960020706978656C73206865696768740A00DB
:1027A6000A5661726961626C65207465787420737B
:1027B600706163696E673A0A00494C4939333430AF
:1027C6002054465420436F6E74726F6C6C65720AA7
:1027D60000494C49393334302054465420436F6EF7
:1027E60074726F6C6C6572004C696E6520737479D7
:1027F6006C65733A00436F6C6F75726564206C6923
:102806006E65733A0046696C6C00496D61676520B8
:1028160077617320736176656420746F2052414D31
:1028260000436972636C65732026206172637300CE
:1028360052656374616E676C657320262066696CE9
:102846006C65642062617200526F756E6465640027
:1028560072656374616E676C650050696500736CC0
:102866006963653A005075740A696D6167650A6641
:10287600726F6D0A52414D3A004E6F6E2D74726141
:102886006E73706172656E74206D6F64650054724C
:10289600616E73706172656E74206D6F6465004D54
:1028A600657465722026204261722D6772617068B8
:1028B600206761756765733A00507265646566697D
:1028C6006E656420636F6C6F72733A0001002D4E63
:1028D600414E00494E46000001004034D228000017
:1028E600F894EE27E8BFE9BFEABFF091CC01F860A3
:1028F600F093CC01F8EDF4BFE093A200E09340041E
:10290600A0918000AD7FA160F4BFA093800080E01D
:1029160090E2A0E0B0E2ED930197E9F7EEEDF8E280
:1029260085919591009761F0A591B59105901590C7
:10293600BF01F00105900D920197E1F7FB01F0CF81
:102946008BBFE0E0E0B9E1B9E2B9E3B9E4B9E5B9D2
:10295600E6B9E7B9E8B9E9B9EAB9EBB9ECB9EDB95D
:10296600EEB9EFB9EFEFEDBFEFE3EEBFC0E0D8E2AF
:102976000C94FC141A930A930FB7F894E091500044
:10298600E460E0935000E0915100E470E1F3E091DF
:102996005000E260E0935000E0914100E0781E2F85
:1029A600E8EDE4BF10934100E0915600EC7FE09320
:1029B6005600E0916000E160E0936000E091510014
:1029C600E270E1F3E0914000E87FE1601E2FE8ED60
:1029D600E4BF10934000E0915000E67EE093500083
:1029E600E091B400EC7FE093B4000FBF0991199118
:1029F6000895E197E0E2E0936106E0936506BADFA9
:102A0600E4EFF1E0ECA3FDA3E0E0EEA3EFA3E8A77B
:102A1600E9A7EAA5E160EAA7ED7FEAA7E460EAA7ED
:102A2600EBA5E07CE662EBA7ECA5E07FE460ECA713
:102A3600EDA5E078E064EDA7EEA5E078E463EEA707
:102A4600EFA5E078E064EFA7E068EFA7E8A9EE7FDE
:102A5600E8ABE17CE663E8ABEF73E068E8ABDE0188
:102A660094960E94C01EE0910A28E160E0930A282D
:102A7600A1EDB6E20E942D23E8EF0E94B72CE4E117
:102A8600F0E0FA93EA93AAE0B7E20E942323E8E98A
:102A9600F4E00E94BC2CE0EC0E94B72CEEE1F0E0E2
:102AA600FA93EA93AFE1B7E20E9423230E94C12C76
:102AB600E7ECE0930028A8E3B7E20E942D23ECE6BA
:102AC600F0E10E94BC2CE8E3E0930028A6E5B7E21B
:102AD6000E94C42CE8EBE0930028ACE6B7E20E9423
:102AE6002D23EEE7FBE10E94BC2CEFE6E0930028E5
:102AF600ABE8B7E20E942D230E94C12CEFE3E093DE
:102B06000028A6EAB7E20E94C42CE8EFE09300286A
:102B1600AFEBB7E20E942D23E2E00E94C92CAFEB97
:102B2600B7E20E942D23E3E00E94C92CA7EDB7E28D
:102B36000E942D23E1E00E94C92C0E94C12CEFE3E4
:102B46000E94B72CEEEBF0E0FA93EA93AEEEB7E212
:102B56000E942323E0EE0E94B72CE2EDF0E00E94F3
:102B6600CD2CA2ED0E94D22C0E94D92CE7EDF0E0EC
:102B76000E94CD2CA7ED0E94D22C0E94DF2CECEDFA
:102B8600F0E00E94CD2CACED0E94E52CEFEFE09337
:102B96000C28E0E0EA93E1EEF0E00E94CD2CA1EEF5
:102BA6000E94E52C0E94D92CE6EEF0E00E94CD2C86
:102BB600A6EE0E94E52C0E94DF2CEBEEF0E00E94D0
:102BC600CD2CABEE0E94EC2CEFEFE0930C28E0E06E
:102BD600EA93E0EFF0E00E94CD2CA0EF0E94EC2CEF
:102BE6000E94D92CE5EFF0E00E94CD2CA5EF0E94C3
:102BF600EC2C0E94DF2CEAEFF0E00E94CD2CAAEF2D
:102C0600B0E00E94B023EFE30E94B72CE4E0F1E0CD
:102C1600FA93EA93ABEFB7E20E94F32C11E020E0BF
:102C260030E0203FE0E03E0794F40E94FC2C08F0E0
:102C360011E0E0E0EA93E3E1F1E0FA93EA932A9304
:102C4600AFE3B1E00E94B0232C5F3F4FEACF11E023
:102C56002FEE30E0332392F00E94FC2C08F011E0B6
:102C6600EFEEEA93EFE3F1E0FA93EA932A93A3E116
:102C7600B1E00E94B02324503040ECCF0E94092DD1
:102C8600E8EF0E940F2DE7E0EA93A6EBB5E20E947B
:102C9600A8250E94182DEEE1EA93E1E1F0E0FA930F
:102CA600EA93ABE0B8E20E942323E0ECE093162817
:102CB600E0E3EA93E8E1F0E0FA93EA93A8EF0E94F2
:102CC600DA29E6E10E941B2DE5E2EA93E9E2F0E06B
:102CD600FA93EA93A3E2B8E20E9462230E94182DB7
:102CE600E0E0EA93EFE2F0E0FA93EA93A0E1B8E2DB
:102CF6000E9423230E94212DA4E1B0E00E941C28FB
:102D0600E0ECE09300280E94212D0E94282DE8E7A0
:102D1600F0E00E942D2DE3E0E0930B28EFEFE09327
:102D26000C28E8EB0E94332DA4E1B0E00E941C2899
:102D3600E7EC0E94332D0E94282DE2EDF0E00E9480
:102D46002D2DE8EF0E94B72CEBE6F0E0FA93EA931C
:102D5600A7E2B8E20E942323E0EC0E940F2DE4E6EE
:102D66000E943C2DEFE6E0930028E3E0E0930B2879
:102D7600E3E3E0930C28EEE80E943C2DE6EAF5E258
:102D8600FA93EA93A8E30E946329E2E7EA93E9E566
:102D9600F0E0FA93EA93EAEAEA93A8E6B0E00E9442
:102DA600C429E8EFE0930028E4E6EA93EBE6F0E0D6
:102DB600FA93EA93A6E3B8E20E942323E0ECE093B9
:102DC6000028E5E0EA93EDE7F0E0FA93EA93EAE417
:102DD600EA93E6E2F0E0FA93EA93A8E0B0E00E9414
:102DE6002525E8EFE0930028E0E1EA93E8E8F0E043
:102DF600FA93EA93AEE4B8E20E942323E0E1EA9371
:102E0600E0E9F0E0FA93EA93A6E5B8E20E94F32C33
:102E1600E8EFE0930028E4E6EA93E8E7F0E0FA93C7
:102E2600EA93A0E6B8E20E942323E4E6EA93EFE7FA
:102E3600F0E0FA93EA93A4E6B8E20E942323E7E0DF
:102E4600E0931628EAEAEA93EFE8F0E0FA93EA93C9
:102E5600EEE1F0E0FA93EA93ECE2F1E0FA93EA931A
:102E6600A4E1B0E00E94D928E0E00E94472DABE63D
:102E7600B8E20E942323EEE20E94472DE3E2F8E245
:102E8600FA93EA93A0E00E943823E0E0EA93E7EDA4
:102E9600F0E0FA93EA93AFE7B8E20E942323E0EC6E
:102EA600E0930228E6E90E94472DE3E2F8E2FA936E
:102EB600EA93A5E00E943823E2E8EA93E7EDF0E022
:102EC600FA93EA93A4E9B8E20E9423230E944D2DC7
:102ED6000E94C12CEFE3E0930028EEE1EA93E1EED5
:102EE600F0E0FA93EA93A5EAB8E20E942323ECE322
:102EF600EF8BE1E3F1E0E88FF98FE2E3F0E0EA8FB0
:102F0600FB8FE0E0EC8FED8FE4E6F0E0EE8FFF8FD5
:102F1600EBE0EAA3DE01579604D2E5E8E883E88D04
:102F2600F98DF297E983FA83EAE5EB83E8E2F0E0CC
:102F3600EC83FD83EC8DFD8DEE83FF83EE8DFF8D9F
:102F4600E887F987EAA1EC87DE01A5D310E0143003
:102F5600D0F42C8D3D8DEE8DFF8DE217F3072CF00E
:102F66000E94542D2B5F3F4FF6CF2E8D3F8DEC8D5B
:102F7600FD8D2E173F072CF00E94542D2550304012
:102F8600F6CF1F5FE4CF0E94092D0E94C12CEFE30C
:102F9600E0930028AFEBB8E20E942D230E944D2D4E
:102FA6000E94182DEFEFE093002810E01731C0F5CE
:102FB600A3E01A9FF001E453FA4D32960490009272
:102FC6001628A12FBB27E2E0F0E00E940531A8E712
:102FD600B0E00E94E5309F01A12FB0E00E94652D70
:102FE600A4E1B0E00E94E5307496AF012A933696CC
:102FF600FA93EA93A3E01A9FF001E453FA4D0E9474
:103006002F310E942323E22FEF5BEA935A934A93D0
:10301600EDE2EA93A3E1B0E00E9473291F5FC6CFF9
:10302600FFCFFFCFBA93AA9327971A930A93EF85F8
:10303600F889A381B481BF93AF930E946B22F0E01D
:103046000E946A2DA6E6B6E686EA9FE30E94A732AC
:10305600AF91BF910E946F2D0E94742D8F01E9855B
:10306600FA85FA93EA93DE0114960E94292CAF851D
:10307600B889EC91F0E0FF93EF93AB85BC858D8525
:103086009E850E94612BD8010E94792DAF91BF9138
:103096000E947D2DEA93E889F989A181B281BF93C7
:1030A600AF93AC85BD858E859F850E94D72AD801B2
:1030B6000E94792DAF91BF910E94822DFA93EA93D7
:1030C600DE0115960E9414231981088161960895E0
:1030D600AA9364970E9485300E948A2D17960E94B3
:1030E60021310E161F0624F0A98DBA8D17960BC036
:1030F6000E948A2D15960E942131E015F10554F0A3
:10310600A98DBA8D1596ED91FD91A98DBA8D199659
:10311600ED93FC93E98DFA8D018412840E94912D22
:103126000E946A2DA0E0B0E08CED92E40E94A732E6
:103136007F936F93FF93EF93E98DFA8D0780108449
:103146000E94912DAF91BF918F919F910E946A2D00
:103156000E94F532A0E0B0E081E193E40E94992D4F
:10316600ABEDBFE089E490E40E949E2DE0E0F0E044
:1031760064E373E40E94F5320E94A32D0E94A82DF9
:103186000E94612BE88BF98B6A8B7B8B0E94A82DA2
:103196000E94D72AEC87FD876E877F870E94AD2D18
:1031A600ECE0F0E00E94EA300E94B22DE887F98751
:1031B6006A877B870E94AD2DE98DFA8DE485F0E064
:1031C600AE1BBF0BE2E0F0E00E94B72D0E94B22DCD
:1031D600EC83FD836E837F830E94BC2DFF93EF9368
:1031E600E889F9896A897B890E94C12DAF91BF91CF
:1031F6000E947D2D0E2FE98DFA8DA181B281BF939C
:10320600AF93EC85FD856E857F850E94C12DAF91BC
:10321600BF910E94822D9F0110910028E88DE093B6
:1032260000280E94BC2DFF93EF93E889F9896A89EB
:103236007B890E94C82DAF91BF910E947D2DEA9394
:10324600EA8DFB8DA181B281BF93AF93ED85FE859B
:103256006F857889A985BA858B859C850E94A7325A
:10326600AF91BF910E94822DFA93EA930A93D901F6
:103276000E94B023E98DFA8DE485F0E00E946A2D64
:10328600A0E0B0E080E090E40E94A732E887F987EA
:103296006A877B870E94A82DEBEDFFE069E47FE358
:1032A6000E94393309F008F40CC00E94A82DE4EE00
:1032B600FBEC66E170E40E94393311F008F001C0BE
:1032C60001C007C00E94A82DEFEDFDEE6FE270EC85
:1032D60006C00E94A82DE6EDF1E362E670E40E94C6
:1032E60051320E94A32D0E94CF2D0E94D32DEC892E
:1032F600FD896E897F89ABEDBFE089E49FE30E947B
:1033060051320E94A32D0A93D9010E94A4230E9440
:10331600CF2D0E94D32D109300280E948C306B96DF
:103326000895BA93AA9360970E948330EE89FF8925
:10333600E385F0E031970E946A2DABE0BEEB85EFA6
:103346009FE30E94F532EE83FF8368877987E8EF73
:10335600E0930028E2E0E0930B280E94E82DE3E2E8
:10336600F0E0FA93EA93E1E9F0E0FA93EA93ED8D5F
:10337600FE8DA381B4810E945828E0E7F7EF61E251
:1033860070E4EA8BFB8B6C8B7D8BEE89FF89A381C6
:10339600B481EAE0F0E00E94EA30AE89BF891C966B
:1033A600EC93EE89FF89A381B4811197AD01E48581
:1033B600F0E0DF01FA01EA1BFB0B9F01E1E0E0937D
:1033C6000B2810E0EE89FF89E3851E1708F06DC013
:1033D600AA89BB898C899D890E94612BEE87FF870C
:1033E600688B798BAA89BB898C899D890E94D72A8B
:1033F600EA87FB876C877D87AE89BF89EC91F0E011
:10340600FF93EF93EE85FF8568897989D9010E943C
:10341600792DAF91BF910E947D2DEA93EF89F88DAA
:10342600A181B281BF93AF93EB85FC856D857E85C7
:10343600D9010E94792DAF91BF910E94822DFA93F6
:10344600EA930E94BC2DFF93EF93E989FA896B8971
:103456007C89DA010E94792DAF91BF910E947D2D62
:10346600EA93EA8DFB8DA181B281BF93AF93EE857E
:10347600FF8568897989DA010E94792DAF91BF911C
:103486000E94822DDF010E94B023AE81BF81888514
:103496009985EA89FB896C897D890E945132EA8B7C
:1034A600FB8B6C8B7D8B1F5F8DCF0E94182DE8E305
:1034B600E09300280E94F32DE0E7F7EF61E270E465
:1034C6000E94F82DA581B681ADDD0E94F32D0E94E4
:1034D600FD2D0E94F82D07801084AC8DBD8D1596AC
:1034E6000E94022EDF019EDD0E94F32DEAEAF1E63C
:1034F6006CE17FE30E94F82DA781B08593DDE8EFAC
:10350600E09316280E94E82D0E94AD2DECE0F0E035
:103516000E94EA30DF010E94742AAE89BF8915969F
:10352600ED91FD91AE89BF891996ED93FC930E94AA
:10353600F32DA0ECCDDD0E948A3068960895BA93EB
:10354600AA93EA81FB81A185B285E881F981EA1710
:10355600FB0781F00E94082EA0910128B9DDE881C1
:10356600F981AA81BB811996ED93FC930E94082EDE
:10357600A0ECAEDD24960895BA93AA9327970E94ED
:103586000D2EDE0112960E94292CAA85BB85EC9190
:10359600A985EA0FEF93DE010E947922F0E0DF01B0
:1035A6000E94652DAF91AE1BAA93EB85FC85A18188
:1035B600B281BA93AA93DE0113960E9414232C9625
:1035C6000895BA93AA932797E0E2E883E983EA830A
:1035D600EB83EC83ED83E0E0EE830E94853030914F
:1035E6000028EFEFE0930028EB85FC85068417841E
:1035F600AB85BC855096ED91FD91E00DF11D32969F
:103606008F01E0910A28EE7FE0930A28AB85BC85FE
:10361600EC91EF93EB85FC85E381F0E0FF93EF936C
:10362600DE0114960E947922F0E0AF91BF91AE1BA5
:10363600BF0B0E94652DAF910E94122EE0910A28C1
:10364600E160E0930A28EB85FC85A285B385BA93F1
:10365600AA93DE0116960E94292CAB85BC85EC91B7
:10366600EF93EB85FC85E381F0E0FF93EF93DE01BA
:1036760014960E947922F0E0AF91BF91AE1BBF0B6A
:103686000E94652DAF910E94122E309300280E9451
:103696008C302D9608950E941A2E0E94182DE8EF60
:1036A600E0930028EE81FF81A481B581EAE0F0E095
:1036B6000E94EA30AE81BF811D96EC93EE81FF81B8
:1036C600A181B281E585F0E0EA0FFB1FFF93EF933E
:1036D6000E946B22F0E0AF91BF91EA0FFB1FAF0192
:1036E600AE81BF81EC91EA935A934A93A985BA8534
:1036F600AC91E985FA85E381EA0FEA93DA010E9443
:10370600B023AE81BF813C91EE81FF81E381F0E081
:10371600DF01EE81FF81E485F0E031970E94FD3004
:103726002E2F00E010E0EE81FF81E485D801F0E065
:10373600AE17BF079CF43A93DA010E94A4230E94B5
:10374600282DE885F985E585F0E00E949130DF01B6
:103756000E949424320F0F5F1F4FE5CFE8E3E093FA
:1037660000280E941E2EE0E0EA93E985FA85A681EC
:10377600B78102DF0E941E2EE885F985E381F0E01D
:10378600DF010E94652DEA93E985FA85008411849C
:10379600A985BA8516960E94022EDF01EDDE0E94EB
:1037A6001E2EE885F985A381AA93E985FA85A08569
:1037B600B185E2DEEE81FF81A481B581E585F0E089
:1037C6000E94B72DFF93EF930E946B22A2E0EA9F1F
:1037D600F001AF91BF91AE1BBF0BE5E0F0E00E9498
:1037E600B72DAE81BF815096ED93FC93FA013396C7
:1037F600AE81BF811E96ED93FC93EE81FF81E3813E
:10380600FF27662777270E941E327F936F93FF93C9
:10381600EF93EE81FF8100841184A681B781F001C8
:10382600EA1BFB0BAF91BF918F919F910E946A2D6E
:103836000E94F532AE81BF8153960E942A31AE8135
:10384600BF811696ED91FD91AE81BF811A96ED93DB
:10385600FC93AE81BF815296E0E0EC930E948A30E1
:1038660071C00E9446311A930E94232E0E94C52AD7
:103876000E94E5311E2FF0E00E94232E0E946A2D41
:103886000E94992D0E94282E08F01F5FE12F1881B3
:10389600259608950E94312E0E94352E09F450C0B7
:1038A600EE81FF810289AE81BF811696ED91FD9171
:1038B600AC81BD81AE1BBF0B0D01AE81BF8153969E
:1038C6000E942531D0010E94B2300E944D310E94E3
:1038D6009E2DC7DF3E2F109116280E94352E64F4C8
:1038E600E0ECE0931628AE81BF81EC91E00F0E94D8
:1038F6003F2EE32FE01B0CC0E0910128E093162831
:10390600AE81BF81EC91E30F0E943F2EE02FE31BB7
:10391600EA93EA85FB85A089B1890E9473291093F1
:103926001628EC81FD81AE81BF811A96ED93FC933A
:10393600E32FAE81BF815296EC93AE81BF8141DE0B
:103946000E948C30289608950E94561EE4E0E0936B
:1039560066060E94561EE4E0E09365060895AA9363
:10396600E881E770EE0FEE0FF881F873F695F6959D
:10397600F6956881607CF62B0C94EB1FFF92AA9358
:1039860023970E948330E985E03011F0E53061F439
:10399600AC85A33031F4A0911F28B0912028109750
:1039A60009F001C07BC11AC0E13011F0E23009F420
:1039B60002C0E33009F402C0E43009F46FC1E63016
:1039C60069F4EC85E13009F469C1E33039F4E0913A
:1039D6002128F0912228309709F460C1AA89A03FD6
:1039E60068F4A889B989A034E1E0BE0738F4AF8548
:1039F600A03021F0AD85BE85109709F44FC1AA8984
:103A0600BB27EF85F0E0AE0FBF1FA13FE0E0BE078A
:103A160020F0AA89E0EFEA1BEF870E94472EA13427
:103A2600E1E0BE0740F0A889B989E0E4F1E0EA1BCD
:103A3600FB0BED87FE87EF85AA89AE0FA150A887FD
:103A4600EA89EA93E989FA89FA93EA93EB85EA9394
:103A5600E989FA89AC89BD89AE0FBF1F11970E940B
:103A6600AB1EA985A63081F50E944E2EEC85E3306B
:103A7600B9F40E945C2E99F03F85E32F3150E03077
:103A860069F0EA85FB853196EA87FB870E94632EFB
:103A9600E0912128F09122280995EFCFEACF10C0B6
:103AA6000E945C2E69F03F85E32F3150E03039F0FB
:103AB6000E946A2E0E94632E0E94982CF5CFF0CFAA
:103AC600E1E0E0936506EAC0A985A73031F40091EC
:103AD6000028E0910A28E0FB07C0A985A83009F074
:103AE60061C000911628E894F0F8EF850E94722EC6
:103AF600EF85E770EF87E03009F04F5FA02F2FDFEB
:103B06008F01F0FC27C00E94772EEE83FF830E9470
:103B16007B2E0E945C2ED1F020E02417B0F40E9488
:103B26006A2E0E94852E21F4EF85E03009F05F852C
:103B360030FF02C0F80102C0EE81FF81DF010E9462
:103B4600751E36955150A1F7E8CFE3CFE1E0E0933B
:103B5600650627C00E945C2E21F10E94912EEA89FB
:103B6600E88720E02417D0F40E946A2E0E94852E52
:103B760021F4EF85E03009F05F8530FF08C00E9430
:103B8600A02EA8850E94A62ED8010E94AF2E36959B
:103B9600E885EF5FE887515081F7E4CF0E94B52EA4
:103BA600D9CF7CC0AF85BB2788279927ED85FE85B1
:103BB6000E94BB2E9F01462F0E94C02EE985E03051
:103BC600E9F4E1E0E0936606AC85A33049F40E948F
:103BD600C72E0E94D32E215030404040C1F70AC064
:103BE6000E946A2E0E94D92E0E94D32E2150304068
:103BF6004040B1F7E1E0E093650650C0E53009F0DA
:103C060041C0AC85A330F1F40E945C2ED1F00E9435
:103C1600912E3A89E885E31788F00E94C72E0E2F69
:103C2600AE2FE0910228EA1739F00E94A02EA32FAA
:103C36000E94A62E0E94E02E3F5FECCF0E94B52E7A
:103C4600E3CF1FC00E945C2EE1F00E94912E3A89BC
:103C5600E885E31798F00E946A2E0E94D92E0E2F4F
:103C6600AE2FE0910228EA1739F00E94A02EA32F6A
:103C76000E94A62E0E94E02E3F5FEACF0E94B52E3C
:103C8600E1CF0CC0E93019F44091012804C0EA30B4
:103C960029F440910028A42F0E94E52E0E948A3024
:103CA6006396FF90089500000000000000000000E9
:103CB6000000000000000000000000000895AA9324
:103CC600E1E0E0936606E881E0930406ECDFE8E0D5
:103CD600E0936606E8DFE8E0E0936506E1E0E0935E
:103CE600650676C1BA93AA93E981E0930406DBDF01
:103CF600E8E0E0936606D7DFE8E0E0936506E88152
:103D0600E0930406D0DFE8E0E0936606CCDFE8E067
:103D1600E09365060C9469221A93E4E0E093660644
:103D2600C2DF10910806E4E00EC01A93E2E0E093C9
:103D36006506E0E0E0930006E1E0E0936606B3DFA7
:103D4600EBDF1E2FE1E0E0936506E12F1991089560
:103D5600BA93AA930E94A02EAD810E94EA2EAA8150
:103D6600AEDFABE227D1AC812AD1AB81A8DFA98136
:103D7600A6DFA881A4DF26960895BA93AA932D9765
:103D86001A93E1E0E0936106E0936506E4E0E093D0
:103D96006106E0936506E8E0E0936106E093650658
:103DA600E2E0E0936106E0E1E0936106E0936606F7
:103DB600AAE0B0E00E945933E0E1E0936506A8E787
:103DC600B0E00E945933A3EDF5D0AFDFAEDFADDF33
:103DD6001E2FABDFE03411F0E0E0CFC0133911F055
:103DE600E0E0CBC0EE85FF85309731F0DE0111961D
:103DF6008DE00E94903107C0ECE1F6E2DE011196FB
:103E06008DE00E949A31A8E2D5D0A6EFD3D0A1E0EA
:103E1600D6D0A1E10E94EA2EA0ECCCD0E885EF73C3
:103E2600AE2FCDD0E985EF70AE2FC9D0A1ECC2D0B0
:103E3600A4E0C5D0A5ECBED0EB85EF77AE2FBFD002
:103E4600EA85EF77AE2F3BDFA7ECB4D0EC85E068D0
:103E5600AE2FB5D0A6E3AED010E0EF81E47009F046
:103E66001860EF81E17009F01064EF81E27009F0EB
:103E76001068A12FA4D010933F34A6EB9BD0AAE0E4
:103E86009ED012E0ED85E17009F012E1EC85E07854
:103E960009F01068A12F13DFA1EB8CD0A0E08FD022
:103EA600ED85E695EF711E2F103108F410E1A12F74
:103EB60006DFA6E27FD0ED85E295EF70E695E69502
:103EC600E370F0E0E65DF94DA49179D0AAE372D0F3
:103ED600A5E575D0ADE26ED010E0103420F4A12F28
:103EE6006ED01E5FFACF10E0103420F4A12FE7DE6B
:103EF6001F5FFACF10E0103420F4A12FE0DE1E5F22
:103F0600FACFA1E157D0A8E7B0E00E945933EFEF0E
:103F1600E0930028E0E0E0930128E0930228E9819D
:103F2600FA810E94BC2CEB81FC81E0931F28F09360
:103F36002028ED81FE81E0932128F0932228E1E0FC
:103F4600E0930828E0930928E0910A28EE7FE093A1
:103F56000A28E1E0E0930B28EFEFE0930C28E093CA
:103F660016280E94EF2EEFEFEA93A8E0B0E00E9439
:103F7600692C41D0A9E21ED0E1E01881609608952F
:103F86000E948530C9DE1E2FC7DE0E2FC5DEE07EFD
:103F9600E295EF70E695AE2FE12FE07CEA2BAE2F8F
:103FA600E02FE07EE695E695EA2B3E2F0E948C30C8
:103FB6000C94A224AA93E2E0E093660604C0AA93B6
:103FC600E2E0E0936506EFEFE0930006A88177DE76
:103FD60021960895BA93AA93E1E0E0936606A88134
:103FE600B98180DE215030404040C9F7E1E0E093DE
:103FF60065060C9469220E94F42E0E94F92E0E94F6
:10400600C02E2F933F934F9320E03CE241E00E9465
:10401600772EDF01DFDF4F913F912F91E0E0EA93AA
:10402600A0E0B0E08ED30895AA930E94FD2E0E94D0
:10403600F92E0E947B2EA8810E94B21CDF010E94ED
:10404600AF2E7DC4BA93AA931A93AB81A03F30F4E6
:10405600A981BA81A034E1E0BE0718F0E0E018813A
:104066006EC40E94FD2E0E94F92E0E944E2E88DFFD
:104076001E2FE1E0E0936506E12F188160C4FF92F0
:10408600AA930E948330FF24A985BB2741D1E987E3
:10409600AE81BB273DD1EE83AF81B8854BD1EF838F
:1040A600F887E0910B28AF81B885F0E0AE0FBF1F0F
:1040B600119740D1AF01EE81EA93A885B98541D326
:1040C600EE81A985EA1798F42985E9872E83AE81C2
:1040D600EFEEEA1B2E2FA985EFEEEA1B3E2F0E947C
:1040E600022FE0E4AE276BDF6894F0F802C0298562
:1040F6003E812A930E94082F3A93DA010E94AB1E52
:104106000E94C02EA985EE81EA1BEF5F2E2FAF819C
:10411600B885FA01EA1BFB0B3196AF01A0910C287A
:10412600AF3F69F4A22FBB27882799270E94BB2E91
:104136009F01462FA09100280E94E52E22C02497B9
:104146000E94772E0E940D2F00E0322FA02F0F5FC6
:10415600A77011F410910C2810FF03C0E881F981B3
:1041660002C0EA81FB81DF010E94751E169531505F
:1041760069F7FA013197AF0139F7E1E0E093650697
:104186002496F0FE04C00E94022F0E94E21F0E94A5
:10419600F42E0E94F92E0E948A302A96FF900895E6
:1041A600BA93AA9322970E948330AC85BB27B0D0DE
:1041B600EC87AC85BB27E0910B28F0E0AE0FBF1F64
:1041C6001197A6D03E2FAA85BB85B4D0EA87FB8778
:1041D600A885B985AFD0E887F987EC85EA93A985E4
:1041E600BA85AFD2E0913F34E0620E2FE885F985BB
:1041F600AA85BB85EA17FB07C0F44A855B85EA8773
:10420600FB8748875987E0E80E27A885B985EFE33D
:10421600F1E0EA1BFB0BEE83FF83AA85BB85EFE388
:10422600F1E0EA1BFB0BAF0106C0EA85FB85EE83D6
:10423600FF8348855985A6E30E94DD1FA02F0E94B3
:10424600E21FAAE20E94DD1FAF810E94E21FAE813B
:104256000E94621EA52F0E94621EA42F0E94621E4B
:10426600ABE20E94DD1FA0E00E94E21FAC850E9427
:10427600EA2EA32F0E94621E0E94C02EAC85E32F59
:10428600EA1BEF5F3E2F0E94192F3196EE83FF83C4
:10429600A0910C28AF3F69F4A32FBB278827992745
:1042A6000E94BB2E9F01462FA09100280E94E52E5A
:1042B60023C024970E94772E0E940D2F00E04A8586
:1042C6005B85A02F0F5FA77011F410910C2810FFCB
:1042D60003C0E881F98102C0EA81FB81DF010E9407
:1042E600751E1695FA013197AF0159F7315031F71E
:1042F600E1E0E093650624960E94022F0E94E21FE9
:104306000E94F42E0E94F92E0E948A302D9608955E
:104316000E94202F1CF0E0E0F0E0D8C0A881B9810F
:10432600A03FE0E0BE071CF0EFEEF0E0CFC0E88172
:10433600F981CCC00E94202F1CF0E0E0F0E0C6C05E
:10434600A881B981A034E1E0BE071CF0EFE3F1E0FB
:10435600BDC0E881F981BAC0BA93AA93EA81EA930B
:10436600E981FA81FA93EA93A09100285DDE0BC4F5
:10437600AA93E981E0930828E881E0930928A6C07A
:10438600BA93AA93AA81A13F30F4A881B981A13436
:10439600E1E0BE0728F0E0E0F0E060E070E0F3C3A3
:1043A600AA81BB2788279927E881F9810E94BB2E1D
:1043B600EC5FFF4F6F4F7F4FE6C3BA93AA932397E5
:1043C6000E94272F8F01002E012A19F4E0E0F0E069
:1043D60064C00E942D2F0F820E942D2F0E820E94F4
:1043E6002D2F0886EB85A885EA1718F4E0E0F0E0A3
:1043F60054C0F8010F5F1F4F5491A885BB27EE27C5
:10440600A50FBE1FEB85F0E0EA17FB0718F0E0E00A
:10441600F0E043C0EF81E030D1F0A985BA85EC9396
:104426000E94722EEF81E77009F04F5FA885EB8539
:10443600EA1BF0E0DF01EE81F0E00E94BD30DF0113
:10444600E42FF0E00E94BD30E00FF11F26C0980176
:10445600E52FF0E00E0F1F1FA885AF5FA887A150BC
:10446600EB85AE17A0F4F901E4910E94722EF901D2
:104476002F5F3F4FE491E77009F04F5FAE81BB2796
:10448600E42FF0E00E94BD300E0F1F1FE5CFF901AB
:10449600E491A985BA85EC93F8010E948A302C969E
:1044A6000895AA932197E0910628F091072830975E
:1044B60061F0E981EA93DE0111967FDF309729F0FA
:1044C600E0910828A881EA0F01C0E0E0229608954D
:1044D6000E94322F309711F4E0E008950E94322FA7
:1044E6003196A491E0910928EA0F0895BA93AA9308
:1044F6001A930A9300E0AA81BB81ED91AA83BB833C
:104506001E2FE03220F0A12FCCDF0E0FF4CFE02FCC
:104516001981088114C2E0E0E09303280E94372F36
:104526003196E491F0E0AE0FBF1FE0910928F0E06C
:10453600AE0FBF1F0E943C2F0895AA9321970E9499
:10454600272F309709F468C0AF81AA3009F460C0FC
:10455600EF81EA93DE01179630DFAF01309719F449
:104566000E948A30D2C0E0910828AE81EA0F3E2F21
:10457600A0910328BB27F0E0EA0FFB1F8F01013F44
:10458600E0E01E0718F0032F1127C5DF0E94432F16
:10459600E985EA930E94322F3196E491F0E0FA938E
:1045A600EA93E1E0EA935A934A93A7E00E94C11C7A
:1045B600E0910A28E17039F5E0910328AE810E9466
:1045C6004D2FFA93EA93E0910828EA930E94322F3E
:1045D6003196E4910E94542FA9E00E94C11CE091FB
:1045E6000328EA930E94372F3196E491F0E0EA0F10
:1045F600FB1FFA93EA933A93E09109280E94542FFD
:10460600A9E00E94C11CE0EFF0E0E017F10721F4F9
:1046160082DF0E948A3079C0009303280E948A3084
:1046260074C00E94592FA981BA81ED91A983BA83DA
:104636001E2FE03019F0A12F80DFF5CF1881C2C2FE
:104646000E94592F0E94622F19F0A12F76DFFACF10
:104656001881B8C2BA93AA931A930E94622F19F0CE
:10466600A12F6BDFFACF18818EC2AA932497AC8153
:10467600A03011F0A530F1F40E946C2FEA830E945D
:104686006C2FEB830E946C2FE8830E946C2FE983CA
:10469600E985EA930E94082F0E94722FE0E00E94AB
:1046A600792FAD850E94C11CEA81EA93A981BA815E
:1046B60067DEC6C1E0E0F0E060E070E0C1C1BA9339
:1046C600AA93EC81A881B981F0E0ED93FC93EA818D
:1046D600FB81A881B9811296ED93FC93EF81EA9351
:1046E6000E941E2EEF81EA930E941E2EE0E0EA93BE
:1046F600EF81F8853496FA93EA93A6E00E94C11CEE
:10470600EC81EA93AB81BC813BDE28960895AA939F
:10471600EB81EA930E94082EE0910C28AB81EA23F4
:1047260019F0E091002802C0E0910128AE2F7CDC50
:10473600E881EE0FE883E03011F4E1E0E883E881F8
:10474600FEC0BA93AA93AA81BB27E2DDE0930328B1
:10475600A881B9810E943C2F16C2BA93AA932C97BE
:104766000E948330AF89BB27D3DDEF8BAC89BB2793
:10477600CFDDEC8BAD89BE89DDDDED8BFE8BAA89A5
:10478600BB89D8DDEA8BFB8BEC89E0930328EA89A9
:10479600FB89E0930428F0930528E1E0EF83EA899A
:1047A600FB89AD89BE89EA17FB0781F41F89AC89AD
:1047B6001A1731F41A930E94F32DA1E0A8DFA3C0C3
:1047C6001A930E94F32DAF895ADC9DC0EC89AF89FC
:1047D600EA1751F42D893E89EF89EA933A932A9391
:1047E600AD89BE89DDDC8FC0E0910B28EE83EE81BA
:1047F600E150EE83EF5F09F486C01F892D893E895B
:10480600E1E0F0E0AF010E2FAC89BB27EF89F0E0C5
:10481600AE1BBF0BA88BB98BA989AA233AF40FEF5D
:10482600E889F9890E949130E88BF98BE889F98942
:10483600EE0FFF1FEE87FF87AD89BE89EA89FB89E8
:10484600EA1BFB0BEC87FD87AD85AA2332F44FEFFD
:104856005FEF0E949130EC87FD87EC85FD85EE0FBA
:10486600FF1FEA87FB871A933A932A93A1E04FDF4B
:10487600EF83E0E0E887E987E889F989AC85BD85BB
:10488600EA17FB07E4F0100FEA85FB850E947F2FED
:10489600E889F989A885B985EA17FB0754F4240F36
:1048A600351FAE85BF85E885F985EA1BFB0BE887D2
:1048B600F9870E94862FEC89E11729F719C0240F82
:1048C600351FEE85FF850E947F2FEC85FD85A88527
:1048D600B985EA17FB072CF4100F0E94192FE887F9
:1048E600F9870E94862FEA89FB89E217F30739F7D1
:1048F600ED89FE893196ED8BFE8BEA89FB8931962F
:10490600EA8BFB8B74CF0E948A3068960895BA931F
:10491600AA930E94432FED81EA93AC81BD811DDFEE
:1049260032C1BA93AA930E94432FE0910328AD8126
:104936000E944D2FAC81BD81AE0FBF1F0EDF2496A6
:104946000895BA93AA9322970E948330E885F98541
:1049560015810281A885B98513962D913C91A8856C
:10496600B9854D915C91011730F4E02FF0E0EE83AC
:10497600FF83012F1E814217530728F44E835F835E
:10498600A9012E813F81E12FA885B9851596EC9363
:10499600F901A885B9851396ED93FC93E02FA885B8
:1049A600B9851296EC93A885B9854D935C930E94C0
:1049B6008A3046C0BA93AA930E94722FE885E150C6
:1049C600AD81EA0FEA93EF81F8853197AC81BD811D
:1049D600AE0FBF1F01D0F6C00E94312EE0910B280A
:1049E600E1500E2FDE011496ACDFEE81E01B1E2F88
:1049F600E02FAC81BD81F0E0AE1BBF0B9D01E985C8
:104A0600EA930E94082FA12F3ADB1A930E94082FDF
:104A1600D901C6DBEE81EA933A932A93E02FAC855F
:104A2600AE0F2DDBE985EA93ED81FE81FA93EA93D9
:104A3600AA85BB85EE27A00FBE1FB2DB0E948C3075
:104A46002A960895BA93AA9325970E948330AF8534
:104A5600A13021F4AD85BE85119709F006C0EA891B
:104A6600EA93A989BA8978DC6CC0EF85E03021F039
:104A7600ED85FE85309709F464C0EB85AA89EA0FB7
:104A86001E2FEB85FC85A889B989EA0FFB1FAF01AC
:104A9600E0910B28E1502E2FEF85AA89AE0FA15089
:104AA6003A2FAB85E32FEA1B0E2F321B0E94472EAF
:104AB6001197AF83B887AB85BC85EF81F885EA1B74
:104AC600FB0BE987FA87E22FAF81B885F0E0AE1BD2
:104AD600BF0BAF83B887E0910C28EE83EFEFE0932E
:104AE6000C281A93E989FA89FA93EA93A02FA15020
:104AF600C6DA0A930E948E2FA1E839D23A935A93C6
:104B06004A93AC85BD8511974BDB0A930E94952F7E
:104B1600A8E82DD20A930E94082FA12FB0DA1A9383
:104B26000E94952FA4E823D2EA890E949E2FDA01DB
:104B360037DB1A930E948E2FA2E819D2EE81E093FA
:104B46000C280E948A3063960895BA93AA93EA8144
:104B5600E030C9F0E881F9813097A9F00E94A42FCE
:104B660031960E942F31EDDDEA81E150EA83EF5F55
:104B760051F00E94A42F3396E983FA8332970E945C
:104B86002F31C5DEF1CF239608950E9446311A9340
:104B96000A93AA81BB818C819D810E94C52A0E94AD
:104BA600E7318F01AA81BB818C819D810E946A2D8C
:104BB6000E94992D0E94282E10F00F5F1F4FF801BA
:104BC6001981088126960895BA93AA932497EA85AF
:104BD600FB850E94B22DA5E3BAEF8EE89CE30E9406
:104BE600A7320E94AB2FEE85F0E0FF93EF930E9471
:104BF600AE2F0E94612BA885B9850E94792DDF0111
:104C0600CB01C3DFAF91BF91AE0FBF1F81DBAE817A
:104C1600BF81EC930E94AE2F0E94D72AA885B98542
:104C26000E94792DDF01CB01B0DFAC85BD85AE1BBF
:104C3600BF0B80DBAC81BD81ED93FC93B5C2BA930B
:104C4600AA9323970E948330ED85E887E0910B288D
:104C5600EF83E0910028EE83EC89F0E0AF85B88918
:104C6600EA0FFB1F8F01E989AA89BB89F0E0AE1B19
:104C7600BF0B9D01E989AA89BB89F0E00E94B12F8B
:104C860071F0E885E078F1F4AD85BE85EAE5F0E0FF
:104C96000E94B82F1CF00E94C12F0CF413C03323BE
:104CA60012F00E94C62FAF81A23020F02230E0E041
:104CB6003E070CF407C00E94CA2F21F40A93D901BB
:104CC60011974ADBE885E878E83891F0E885E078DE
:104CD600C9F4AD85BE85A25FBE4F0E94D32F3CF0BE
:104CE600AD85BE85A25FBE4F0E94D82F0CF40AC0C8
:104CF6000E94DD2F38F00E94E42F21F40A93DA0196
:104D060011962ADBAC89BB27EF85F889AE1BBF0B52
:104D16008D0111230AF445C0E885E278E23891F066
:104D2600E885E07811F5AD85BE85A65ABF4F0E948D
:104D3600D32F3CF0AD85BE85A65ABF4F0E94D82F13
:104D46000CF413C0332312F00E94C62FAF81A23099
:104D560020F02230E0E03E070CF407C00E94CA2F84
:104D660021F40A93D9011197F7DAE885E478E43853
:104D760071F0E885E078A9F4AD85BE85EEE0F1E056
:104D86000E94B82F1CF00E94C12F0CF40AC00E948A
:104D9600DD2F38F00E94E42F21F40A93DA011196F0
:104DA600DBDAAC89BB27E989F0E0EA0FFB1F8F014C
:104DB600AF85B889EA89FB89EA1BFB0B9F01EF8562
:104DC600F889AA89BB890E94B12F81F0E885E0782D
:104DD600F1F4EB85FC85AD85BE85AE17BF072CF0DB
:104DE600E985FA85EA17FB070CF411C033237AF03C
:104DF6000E94C62FAF81A23050F0E02FEE5F0E94D6
:104E0600ED2F29F4E02FEF5FEA93D901A5DAE885C3
:104E1600E878E83871F0E885E078C1F4AD85BE85BC
:104E2600E8E6F1E00E94B82F1CF00E94C12F0CF4B6
:104E36000DC00E94DD2F50F0E02FEE5F0E94F52F8F
:104E460029F4E02FEF5FEA93DA0186DAAC89BB2713
:104E5600E989F0E0AE1BBF0B8D0111230AF450C0A7
:104E6600E885E278E23871F0E885E07809F5AD8505
:104E7600BE85E4EBF0E00E94B82F1CF00E94C12F23
:104E86000CF416C03323A2F00E94C62FAF81A230C5
:104E960020F00230E0E01E070CF40AC0E02FE250DA
:104EA6000E94ED2F29F4E02FE150EA93D90154DA5C
:104EB600E885E478E43891F0E885E07809F5AD8591
:104EC600BE85AC54BF4F0E94D32F3CF0AD85BE8546
:104ED600AC54BF4F0E94D82F0CF412C00E94DD2F95
:104EE60020F00230E0E01E070CF40AC0E02FE2508A
:104EF6000E94F52F29F4E02FE150EA93DA012CDA2B
:104F06000E948A30659608950E941A2EAC85BB27AA
:104F1600E885F985AE1BBF0BFBD91E2FEC85F0E0AB
:104F2600A885B985AE0FBF1FF3D90E2FAE81BF81FD
:104F3600EA85FB85EA1BFB0BDF01FCD99F01EE81AD
:104F4600FF81AA85BB85AE0FBF1FF4D9AF011A93A7
:104F56003A932A930A93D90100DC1A935A934A93F7
:104F66000A93DA01FADB0E948A302D960895AA93F5
:104F76000E948330AB85A03F30F4A985BA85A03462
:104F8600E1E0BE0720F00E948A300C94272C0091A5
:104F96000B28E02F0150E03009F447C0EF81F88577
:104FA600309721F40E948A300C94272CEF81F885E3
:104FB6003197EF83F8870E94FD2FAE81A03491F4DC
:104FC600EB850E949E2FE12FF0E0FA93EA93D90138
:104FD6009BDFEB850E949E2F3A932A93A12FBB2736
:104FE60093DF0FC0EB850E949E2F1A933A932A9364
:104FF600EC85F0E0FA93EA930E94282DA0E0B0E059
:105006001EDE1F5F55231AF4E12FF0E002C00E9456
:105016000A30EE0FFF1F31964E0F5F1FF901A12FC9
:10502600B0E0EA17FB0748F6B4CF0E948A300C942A
:10503600272CBA93AA930E941130EB81FC81FA9334
:10504600EA93AFE894DF0C94772C0E94312EAA8560
:10505600A03F30F4A885B985A034E1E0BE0710F082
:10506600E0E01FC0AE81BF810D911C91AC81BD8176
:105076002D913C91D801E8E6F1E00E9402318F01C2
:10508600D901E9E6F1E00E9402319F01AE81BF81BC
:105096000D931C93AC81BD812D933C93D8010E9446
:1050A600B7300E948C302B9608950E941A2E0E94CB
:1050B6001830FE013D96FA93EA93DE011D96C5DF90
:1050C600E03009F46FC0EE85E0930D28EC85FD8590
:1050D600E0930E28F0930F280E941830ED85FE8588
:1050E6000E941F30E0E1F8E2FA93EA93A1E1B8E208
:1050F6006BDD0E941830EB85FC850E941F30E3E1D2
:10510600F8E2FA93EA93A4E1B8E25EDD00910B2897
:10511600E02F0150E03009F445C0EE81FF81309761
:1051260009F440C0EE81FF813197EE83FF830E9430
:10513600FD2F0E9418301A933A932A93F9010E9480
:10514600B22D0E944131E12FFF27662777270E9463
:105156001E32DF01CB010E94D32BA1EEBEE285E613
:1051660092E40E94A7320E94E731FA93EA93EA8911
:10517600FB89FA93EA93AA89BB8961DD1F5F5523F0
:105186001AF4E12FF0E002C00E940A30EE0FFF1F72
:1051960031964E0F5F1FF901A12FB0E0EA17FB070A
:1051A60040F6B6CF0E948A302F960895BA93AA93F6
:1051B60023971A930A93E0910B28E1500E2FED8561
:1051C6000E94792FFE013C96FA93EA93DE011C9623
:1051D6003CDFE03009F470C010910C28EFEFE0934B
:1051E6000C28ED850E94792FEC85FD85FA93EA93CC
:1051F600EC85FD85FA93EA93AC85BD8556DFE0E044
:10520600EA83EB83A985BA85A53BE0E0BE0720F0DB
:10521600E02FF0E0EA83FB83ED850E94792FE09191
:105226001028EA93A0911128B0911228EE81FF81EF
:10523600AE1BBF0B92DAE0E0EA83EB83AF81B88561
:10524600A53BE0E0BE0720F0E02FF0E0EA83FB8319
:10525600E0911328EA93A0911428B0911528EB81C8
:10526600FC81AE1BBF0BBA93AA93E889EA93AF857C
:10527600B88973DAED850E94792FEA85FB85AC85BE
:10528600BD85AE0FBF1FFD01F695E795FA93EA932C
:10529600EA85FB85F695E795FA93EA93FE013B9638
:1052A600FA93EA93DE011B968FDC0E941130A091DF
:1052B60000287DD010930C28198108812E96089518
:1052C600AA930E94EF2EEB81FC81FA93EA93A8E061
:1052D600B0E00E94572CE881E09316280C94962C97
:1052E6000E941A2EAB85A03F30F4A985BA85A0345A
:1052F600E1E0BE0720F00E948A300C94272CE88556
:10530600E03021F0EE81FF81309709F436C029851F
:105316003A85F901AE81BF81EA0FFB1FEE83FF8359
:10532600EB85A885EA0FE887EE81FF812E173F07F8
:1053360020F5E21BF30BAF014930E0E05E0710F009
:1053460048E050E01B85E8851E17A0F4E11B0E2FF0
:10535600093008F008E01A933A932A930A935A936D
:105366004A93E0E0EA930E94EF2EA8E00E94C11C57
:10537600100FE9CF240F351FD7CF0E948A300C9427
:10538600272CBA93AA93DE01DCDA0E94722FA88535
:10539600ED81EA1BEF5FEA93AF81B885EC81FD8171
:1053A600EA1BFB0B3196DF019BDF0C94672CFF9207
:1053B600AA93E1970E948330AAADA03F30F4A8AD2E
:1053C600B9ADA034E1E0BE0708F086C0E09116282A
:1053D600EE83FE0137968F01EAAD0E942630E8ADD6
:1053E600F9AD0E942B30FE013796E017F10708F061
:1053F60073C002501040D801ED91FD91E8AFF9AFAE
:1054060001501040D801EC91EAAF3AAD313048F086
:105416000E94313019F0EE81E21709F402C03150D2
:10542600F5CFE894F0F8F1F83F5F303F08F053C04D
:105436000E94313019F0EE81E21709F44CC03A931C
:10544600E9ADFAADFA93EA93A9850E941720A8ADB3
:10545600B9AD0E94A831E0F4E8ADF9AD31970E94EC
:105466003A3019F0EE81E21709F410C0F0FC0DC0D5
:10547600FE01F7960E171F0778F5E32F0E942630D8
:10548600FA010E942B306894F0F802C0E894F0F814
:10549600A8ADB9ADAF33E1E0BE07E0F4E8ADF9ADD4
:1054A60031960E943A3019F0EE81E21709F410C0E5
:1054B600F1FC0DC0FE01F7960E171F0768F4E32FE7
:1054C6000E942630FA010E942B306894F1F802C03F
:1054D600E894F1F8A9CF87CF0E948A30EB96FF9027
:1054E60008950E94312E10910028E0910B280E2F6E
:1054F600E0910C283E2FE09116280E940F2DE8859A
:10550600EA930E940D2E0E940D2EA0E430DD10932A
:10551600002800930B2830930C280E948C300C94A2
:105526005F2B0E9446317B816A81F981E88177FB96
:10553600770F67FD7160972F9E5781F078F098314D
:1055460090F4AA27BB27882708948795B795A7952F
:105556009A95D1F7EA23FB23682305C0E8947727B9
:10556600EE27FF2766276F77769508F4606877F948
:10557600A991B99189919991EA17FB07680779076B
:1055860097FB08950E9443300E94942A0E94AB2FF5
:1055960021F40E9446300C94B52CDEF70E94493067
:1055A6000E9451320C94B52C0E94463124971A93CE
:1055B60010E00E944F30E3E8F9EF62E27EE30E94DA
:1055C600A7320E945430DEDF0E944F300E94992D90
:1055D6000E945430E0E0F0E060E07FE30E9439335F
:1055E60009F008F409C00E945930A0E0B0E080E05C
:1055F6009FE30E945E3011E00E944F30E0E0F0E051
:1056060060E87EE30E94393309F008F408C00E947E
:105616004F30E0E0F0E060E07FE30E945E30103063
:1056260041F00E9459300E94B231ED83FE836F83B0
:1056360078870E9459300E944F300E94A732E98332
:10564600FA836B837C83A1EBB4EC86E292E40E943E
:105656009E2DEDE1F5EE6DE272E40E94992D0E9419
:10566600232E0E94A732ACE4B3E584E091E40E94C5
:1056760058320E944F300E94A7327F936F93FF9358
:10568600EF93E981FA816B817C81A1E1BDEE8EED1C
:105696009FE30E9458320E94232E0E94A732AEE555
:1056A600BBE788EA9FE30E945832AF91BF918F9182
:1056B6009F910E94F5321881299608950E944330E1
:1056C6000E94FD2D0E945132DF01CB016DDF0C944B
:1056D600B52C0E9465300E94C12D0E94AB2F0E94FE
:1056E6004630A5E6B0ED8BEC90E40E946D300E944A
:1056F600C12D7F936F93FF93EF930E944630A0E0F6
:10570600BDE689E291E40E9458320E94AE2F0E94C3
:105716006D30AF91BF918F919F910E94F53228967F
:1057260008950E944330EDECF3E164ED7EE30E94C0
:10573600393328F40E94AE2FCCDF0C94B52C0E948E
:10574600AE2FEAE7F2E86AE170E40E94393309F025
:1057560008F40CC00E9449300E947630ABEDBFE0E1
:1057660089EC9FE30E94992D0C94B52C0E94493038
:105776000E9451327F936F93FF93EF930E944930BB
:105786000E945832AF91BF918F919F910E947630BF
:10579600ABEDBFE089E49FE30E9458320C94B52C30
:1057A6000E9465300E94A431D9F4E885F9856A859E
:1057B6007B850E94A43129F4EFEFFFEF6FE77FE7C7
:1057C60043C0A885B9858A859B850E94AC311CF4A7
:1057D6000E94FD2D39C0EBEDFFE069EC7FEB34C094
:1057E600EC81FD816E817F81A885B9858A859B853F
:1057F6000E94F5320E94AB2FAC81BD818E819F81C4
:105806000E94AC3164F4AB85AA2322F00E94AE2F2D
:1058160088DF1AC00E947C300E94B23115C0AB8569
:10582600AA234AF00E947C30ABEDBFE089E490E405
:105836000E94992D09C00E94AE2F73DFABEDBFE029
:1058460089E490EC0E9458322C960895BA93AA9354
:10585600A991B991E991F99130962AF4E095F095DC
:1058660031966DE26D93E89480E197E20DD088EE73
:1058760093E00AD084E6992707D08AE005D06E2FF8
:1058860010D066276C9308956627E817F90720F06D
:105896006395E81BF90BC9F7662311F416F0089512
:1058A6006894605D6D930895BA93AA9399818881EF
:1058B600009641F0BD81AC81FB81EA8105900D9295
:1058C6000197E1F7FD81EC8126960895BA93AA9394
:1058D600B981A881109631F0FC81EB816A816193D0
:1058E6001197E9F7EB81FC8125960895BA93AA935F
:1058F600EA81E13021F4E881F981E49114C0E230D3
:1059060029F4A881B9810E945D310DC0E33041F4CC
:10591600A881B981E0911F28F0912028099503C03C
:10592600A881B981EC9123960895AA93EB81E03082
:1059360029F4E881A981BA81EC9314C0E23031F4EC
:10594600E881A981BA810E9466310CC0E33051F426
:10595600E981FA81FA93EA93AA81E0912128F091EC
:105966002228099524960895E0930028E0E0EA931A
:105976000895E0930628F09307280895E4E7FAE0EF
:10598600F8CF0E942D23E0EBF5E1F3CFEA93A1E0F7
:105996000C94BB21FA93EA93EFEEEA930895B0E0F4
:1059A6000E94B023E1E0E0930B280895E5E5E0933B
:1059B6000C28E0E0EA930895E3E3E0930C28E0E0A6
:1059C600EA930895B0E00E94B023E2E0E0930B284A
:1059D6000895B0E00E94B023E4E0E0930B28089518
:1059E6000E942323E1E0E0930B28EFEFE0930C28DD
:1059F6000895E12F1F5FA3E0EA9FF001E453FA4DFB
:105A0600329604900092002817310895A8E8B3E171
:105A16000E9459330C94FE1FE0930028E1E0E093C6
:105A26000B28EFEFE0930C280895E4EFF1E0A1CF07
:105A3600EA93E0E0F0E0FA93EA930895E5E1EA9369
:105A4600E3E5F0E0FA93EA930895E0E0F0E0FA93F4
:105A5600EA930895FA93EA93AFE0B0E00C945828DD
:105A6600E0930028EFE3EA93E3E5F0E0FA93EA93A4
:105A76000895EA93ECE3F0E0FA93EA93E8E2EA9316
:105A8600A9E1B0E00C94DD24EA93EAEAF0E0FA93A7
:105A9600EA930895EEEAF5E2FA93EA93AFEF0C94EF
:105AA6006329FE017796FA93EA93D9010E94A21A16
:105AB600FE01FA93EA93D9010E944D1CA4E6B0E0D8
:105AC6000C945933E2E0F0E00E94FD3008950E9404
:105AD600AD300E941E320895882799270E944D31C5
