:0A0000000C940C030C9400000C9407
:10000A0000000C9400000C9400000C9400000C9466
:10001A0000000C9400000C9400000C9400000C9456
:10002A0000000C9400000C9400000C9400000C9446
:10003A0056030C9400000C9400000C9400000C94DD
:10004A0000000C9400000C9400000C9400000C9426
:10005A0000000C9400000C9400000C9400000C9416
:10006A0000000C9400000C9400000C9400000C9406
:10007A0000000C9400000C9400000C9400000C94F6
:10008A0000000C9400000C9400000C9400000C94E6
:10009A0000000C9400000C9400000C9400000C94D6
:1000AA0000000C9400000C9400000C9400000C94C6
:1000BA0000000C9400000C9400000C9400000C94B6
:1000CA0000000C9400000C9400000C9400000C94A6
:1000DA0000000C9400000C9400000C9400000C9496
:1000EA0000000C9400000C9400000C9400000C9486
:1000FA0000000C9400000C9400000C9400000C9476
:10010A0000000C9400000C9400000C9400000C9465
:10011A0000000C9400000C9400000C9400000C9455
:10012A0000000C9400000C9400000C9400000C9445
:10013A0000000C9400000C9400000C9400000C9435
:10014A0000000C9400000C9400000C9400000C9425
:10015A0000000C9400000C9400000C9400000C9415
:10016A0000000C9400000C9400000C9400000C9405
:10017A0000000C9400000C9400000C9400000C94F5
:10018A0000000C9400000C9400000C9400000C94E5
:10019A0000000C9400000C9400000C9400000C94D5
:1001AA0000000C9400000C9400000C9400000C94C5
:1001BA0000000C9400000C9400000C9400000C94B5
:1001CA0000000C9400000C9400000C9400000C94A5
:1001DA0000000C9400000C9400000C9400000C9495
:1001EA0000000C9400000C94000005072060000039
:1001FA000000000000040404040400040A0A0A00BF
:10020A000000000A0A1F0A1F0A0A041E050E140F1C
:10021A00040313080402191806090502150916062B
:10022A000402000000000804020202040802040892
:10023A0008080402000A041F040A000004041F0438
:10024A000400000000000604020000001F00000075
:10025A0000000000060600001008040201000E114A
:10026A00191513110E0406040404040E0E111008C5
:10027A0004021F1F08040810110E080C0A091F089F
:10028A00081F010F1010110E0C02010F11110E1F81
:10029A001008040202020E11110E11110E0E111194
:1002AA001E100806000606000606000006060006DE
:1002BA0004021008040204081000001F001F0000B6
:1002CA00010204080402010E1110080400040E11B0
:1002DA00101615150E0E1111111F11110F11110FF4
:1002EA0011110F0E11010101110E07091111110946
:1002FA00071F01010F01011F1F0101070101010E63
:10030A0011010119110E1111111F1111110E0404FD
:10031A000404040E1C080808080906110905030547
:10032A0009110101010101011F111B1511111111FF
:10033A00111113151911110E11111111110E0F119D
:10034A00110F0101010E1111111509160F11110FCB
:10035A000509111E01010E10100F1F0404040404E4
:10036A00041111111111110E11111111110A041197
:10037A00111115151B1111110A040A111111110A73
:10038A00040404041F10080402011F1C04040404CA
:10039A00041C0001020408100007040404040407F2
:1003AA00040A11000000000000000000001F0204FF
:1003BA00080000000000000E101E111E01010D139E
:1003CA0011110F00000E0101110E10101619111152
:1003DA001E00000E111F010E0C120207020202007B
:1003EA00001E111E100C01010D131111110400063B
:1003FA000404040E08000C080809060202120A0680
:10040A000A120604040404040E00000B1515111147
:10041A0000000D1311111100000E1111110E000030
:10042A000F110F0101000016191E101000000D1304
:10043A0001010100000E010E100F02020702021252
:10044A000C0000111111191600001111110A0400F3
:10045A0000111115150A0000110A040A11000011F1
:10046A00111E100E00001F0804021F0804040204D3
:10047A00040804040404040404020404080404022E
:10048A00021508000000001F11111111111F14009C
:10049A001E0064006400C800C8000A001E00D601DD
:1004AA008800F000FA00000103070F1F3F7FFF00DA
:1004BA0000000000000010271482285207111D16A0
:1004CA0000001027E80364000A0001000010000180
:1004DA00100001004144533738343620526573699D
:1004EA00737469766520546F75636820436F6E7400
:1004FA00726F6C6C65722044656D6F00546F756322
:10050A006820636F6E74726F6C6C65722063616CC5
:10051A006962726174696F6E206661696C656400F4
:10052A00546F75636820636F6E74726F6C6C65725A
:10053A002063616C69627261746564204F4B005478
:10054A006F7563682063726F73732063656E746579
:10055A007220746F207265616420636F6F726469C0
:10056A006E6174657300436F6F7264696E6174655E
:10057A007320726561642062792074686520746FE3
:10058A0075636873637265656E3A0A583D25642C13
:10059A0020593D2564004572726F7220726561644C
:1005AA00696E6720636F6F7264696E617465730048
:1005BA00546F756368207468652073637265656E2D
:1005CA0020746F20647261772E2E2E002825642CE9
:1005DA0025642900546F7563682063726F737320F2
:1005EA0063656E74657220746F2063616C696272F0
:1005FA006174650001002D4E414E00494E460000CF
:10060A001A000024A0050100BC24FE050000F8948D
:10061A00EE27E8BFE9BFEABFF091CC01F860F0939A
:10062A00CC01F8EDF4BFE093A200E0934004A0915E
:10063A008000AD7FA160F4BFA093800080E090E2CB
:10064A00A0E0B0E2ED930197E9F7EAE0F6E08591E0
:10065A009591009761F0A591B59105901590BF010C
:10066A00F00105900D920197E1F7FB01F0CF8BBFE6
:10067A00E0E0E0B9E1B9E2B9E3B9E4B9E5B9E6B96C
:10068A00E7B9E8B9E9B9EAB9EBB9ECB9EDB9EEB944
:10069A00EFB9EFEFEDBFEFE3EEBFC0E0D4E20C94A9
:1006AA007D030A921A92FA926A937A938A939A9398
:1006BA00AA93BA93EA93FA93EFB7EA930E94A30F25
:1006CA000198E991EFBFF991E991B991A9919991AD
:1006DA00899179916991F9901990099018950E94D8
:1006EA00F9120E94F912AEEDB4E00E94580C089576
:1006FA006197DAD017D1E0E2E0938106E0938506AC
:10070A007894E4EFF1E0E883F983E0E0EA83EB83AD
:10071A00EC83ED83E0E1F7E2EE83FF83E8E2F3E2C4
:10072A00E887F987E9E2EA87E2E0EB87EC87EAE023
:10073A00ED87E2E0EE87EF87E889EE7FE88BED7FD1
:10074A00E88BEB7FE88BE77FE88BEF7EE88BDE01B7
:10075A000E94D407C4DFE091A200E873E1601E2F73
:10076A00E8EDE4BF1093A200E0E0E093A100A0E06E
:10077A000E949510E03001F57894D5D1E03059F413
:10078A000E94F912E4E1F0E0FA93EA93A6E0B5E0F8
:10079A000E94580CFFCF0E94F912E4E1F0E0FA93AC
:1007AA00EA93AAE2B5E00E94580CA8EBBBE00E94CB
:1007BA00F4150E94830993DF78940E94F9120E942B
:1007CA00FE12A9E4B5E00E94580C10E0133008F0BC
:1007DA0042C00E94031383D1EDB7FEB73197FA9353
:1007EA00EA933F932F93ADB7BEB711975F934F9399
:1007FA000E94F10F4F915F912F913F910E947217C2
:10080A00F0F80E94031374D1F0FE19C0E5E4F4E293
:10081A00FA93EA93E0E7F5E0FA93EA93F9010E9482
:10082A000F13FA010E940F1388E00E94B20E2C9651
:10083A000E94F9120E94FE12A5E4B4E206C00E94C8
:10084A00F9120E94FE12A0E0B4E20E944A0C0E9431
:10085A0014131F5FBBCFA0EDB7E00E94F4150E94EE
:10086A008309AAEBB5E00E94630CEDB7FEB7319796
:10087A00FA93EA933F932F93ADB7BEB711975F935D
:10088A004F930E94F10F4F915F912F913F91E0306A
:10089A0049F03A932A93DA010E94EF0AAAE0B0E0FB
:1008AA000E94F415E2CFFFCF1A930A930FB7F89478
:1008BA00E0915000E460E0935000E0915100E47050
:1008CA00E1F3E0915000E260E0935000E0914100D2
:1008DA00E0781E2FE8EDE4BF10934100E091560046
:1008EA00EC7FE0935600E0916000E160E0936000E5
:1008FA00E0915100E270E1F3E0914000E87FE160AD
:10090A001E2FE8EDE4BF10934000E0915000E67E10
:10091A00E0935000E091B400EC7FE093B4000FBF85
:10092A000C94BD07E0910008E07FE160E0930008C5
:10093A00E0910108E870E0930108E0910308E07192
:10094A00E0930308E0910608E07FE160E09306087F
:10095A00E0910708E070E0930708E0910C08E09343
:10096A000C08E0E0F0E0E0932008F0932108EFE3C0
:10097A00FCE9E0932608F0932708E0E0F0E0E09332
:10098A002808F0932908E0932A08F0932B08E093AB
:10099A002C08F0932D08E0932E08F0932F08089561
:1009AA0024970E947717EA85FB850E941813EE8523
:1009BA00FF853596FA93EA93AA89BB890E949D0C12
:1009CA000E942013EE85FF850E941813AA89BB890D
:1009DA0015960E949D0CE5E4F4E2FA93EA93E6ED9B
:1009EA00F5E0FA93EA93EE85FF850E940F13EC89EE
:1009FA00FD890E940F1388E00E94B20E2C96A5E48E
:100A0A00B4E20E949A0B8F010E948C0B4E2F55273D
:100A1A00EC85FD853596E40FF51FEE83FF83E03EF6
:100A2A00A1E0FA074CF0EC85FD853597E41BF50B40
:100A3A00EE83FF83FF23F2F00E942513D801E2E040
:100A4A00F0E00E946E16AA85BB85AE1BBF0B9D0106
:100A5A0033231AF420E030E00CC0D801A20FB31FF0
:100A6A00A032E3E0BE072CF0EFE1F3E0E01BF10B6C
:100A7A009F0129C0DA01E2E0F0E00E946E16AC851F
:100A8A00BD85AE1BBF0BA887B987EA85FB8535965E
:100A9A00E00FF11FEE83FF83E032A3E0FA071CF4B4
:100AAA002E813F8110C0EA85FB853597E01BF10B4B
:100ABA00EE83FF83FF231AF02E813F8104C0EA856B
:100ACA00FB8535979F013A932A930E942013A5E448
:100ADA00B4E20E944A0C0E947E172E9608950E9444
:100AEA002A130E9431130E94D6165ADF24960895BB
:100AFA001A930A9300911A2410911B240E9434130A
:100B0A00E0931A24F0931B24EA81FB816C817D8196
:100B1A000E94D61645DF00931A2410931B241981CC
:100B2A000881269608952C970E94F9120E94FE12B7
:100B3A00AEEDB5E00E94580C0E943913D0DFFE01D9
:100B4A00FA93EA93DE0114960E94D40F0E94391395
:100B5A00CFDF0E941413E8EAF4E0A4E00E94DB1657
:100B6A00BEDFFE013496FA93EA93DE0118960E94DC
:100B7A00D40FE8EAF4E0A4E00E94DB16B9DF0E9491
:100B8A001413ECEAF4E0A4E00E94DB16A8DFFE01ED
:100B9A003896FA93EA93DE011C960E94D40FECEA87
:100BAA00F4E0A4E00E94DB16A3DFFE01FA93EA93C5
:100BBA00A4EAB4E00E9405112C960895FF92AA9324
:100BCA0023970E947717E985E03011F0E53061F448
:100BDA00AC85A33031F4A0914124B09142241097FE
:100BEA0009F001C08CC11AC0E13011F0E23009F4F9
:100BFA0002C0E33009F402C0E43009F480C1E630EF
:100C0A0069F4EC85E13009F47AC1E33039F4E09112
:100C1A004324F0914424309709F471C1AB89BC890B
:100C2A00A032E3E0BE0770F4A989BA89A03EE1E0E8
:100C3A00BE0740F4AF85B889109721F0AD85BE850F
:100C4A00109709F45CC10E944013A132E3E0BE0789
:100C5A0040F0AB89BC89E0E2F3E0EA1BFB0BEF87CB
:100C6A00F88BED85FE85A989BA89AE0FBF1FA13E13
:100C7A00E1E0BE0740F0A989BA89E0EEF1E0EA1B9B
:100C8A00FB0BED87FE870E9440131197AE83BF834B
:100C9A00EB89FC89FA93EA93EB89FC89FA93EA9344
:100CAA000E942013EB89FC89AF89B88DAE0FBF1F54
:100CBA00119761D1A985A630C9F5AEE20E94471302
:100CCA0027D1EC85E330C9F40E944D13A9F02F8592
:100CDA003889F90121503040309769F03ED18F01AF
:100CEA000E945413A02F0E945D130E945413A12F37
:100CFA000E945D13EECFE8CF18C00E944D13A9F0F1
:100D0A002F853889F90121503040309769F025D173
:100D1A008F010E946313A02F0E94DD120E946313A9
:100D2A00A12F0E94DD12EECFE8CFE9C0A985A73036
:100D3A0041F400911A2410911B24E0912824E0FB2D
:100D4A0009C0A985A83009F05DC000913724109127
:100D5A003824E894F0F8EF85F8890E942716E88786
:100D6A00EF85E770EF87E03019F0E885EF5FE887F5
:100D7A00F0FC1FC0ACE20E9447130E944D13C1F061
:100D8A0050E0E8855E1798F40E946E1321F4EF850F
:100D9A00E03009F04F8520FF02C0F80102C00E942E
:100DAA003413DF01C4D026954150A9F7EACFE5CF25
:100DBA0028C00E944D1329F10E948213EB89FC89F5
:100DCA00EE83FF8350E0E8855E17C0F40E946E133D
:100DDA0021F4EF85E03009F04F8520FF06C00E941C
:100DEA0091130E949A13D801A2D02695EE81FF8111
:100DFA003196EE83FF83415081F7E5CF0E94A2131B
:100E0A00D8CF7DC0AF85B88988279927ED85FE851B
:100E1A000E94A8139F01462FACE20E944713E9855E
:100E2A00E030E9F4AC85A33069F40E94AD130E2FCB
:100E3A000E94AD131E2FD8017AD021503040404075
:100E4A00A1F70CC00E94B9130E2F0E94B9131E2FCE
:100E5A00D8016DD0215030404040A1F750C0E53054
:100E6A0009F041C0AC85A330F9F40E944D13D9F0C2
:100E7A000E9482132B893C89EE81FF81E217F307D6
:100E8A0078F00E94AD130E2F0E94AD130E94C71373
:100E9A0021F00E94CF13D8014AD02F5F3F4FECCFE9
:100EAA000E94A213E2CF1EC00E944D13D9F00E94E5
:100EBA0082132B893C89EE81FF81E217F30778F0D0
:100ECA000E94B9130E2F0E94B9130E94C71321F072
:100EDA000E94CF13D8012BD02F5F3F4FECCF0E9437
:100EEA00A213E2CF0CC0E93029F4A0911C24B091DE
:100EFA001D2404C0EA3019F40E94D913EBD10E94D0
:100F0A007E176596FF900895EFEFE093400603C0C1
:100F1A00E0E0E0934006E09300060895000008959B
:100F2A00AA93E881E09344060E94DE13D1C1BA93E2
:100F3A00AA93E881E0934406E981E09304060E94BB
:100F4A00DE130C948A0B1A930E94ED131091480633
:100F5A000E94F513E12F199108951A930A930E949A
:100F6A00ED1300914806109108060E94F513F80146
:100F7A00099119910895BA93AA930E949113AB818A
:100F8A00CFDFAA81CDDFABE297D1AD819AD1AC8117
:100F9A00C7DFA981C5DFA881C3DF28960895BA9360
:100FAA00AA9369970E947717E8E0E0932106E093F5
:100FBA002506E4E0E0932106E0932506E2E0E093CB
:100FCA002106E0932506E1E0E0932106E4E0E093C0
:100FDA006106E09366060E94FC13E4E0E09365066E
:100FEA000E94FC13EF8DF8A1309731F0DE011E96B6
:100FFA0081E10E94311707C0EAEBF4E0DE011E9698
:10100A0081E10E943B17A1E057D10E94FC13A1EA9B
:10101A0053D14CD1E13011F0E0E044C194DFE7351F
:10102A0011F0E0E03FC18FDFE13611F0E0E03AC1B4
:10103A008ADFE13010F4E0E035C185DFEF3F11F0DF
:10104A00E0E030C13FEFEFEFFFEFEC87FD8710E004
:10105A001F5F1F3FD0F5AC89BD8988279927E12FEB
:10106A00FF27662777270E943616DF01CB01E8EEB5
:10107A00F3E060E070E00E947316AF014B3FE0E0DE
:10108A005E0720F04032E3E05E0708F01DC000E191
:10109A000130D0F0E02F0150DA01F0E00E945B1637
:1010AA00E456F040DF010E94A412EA87FB87DF01C1
:1010BA00EC85FD85AE17BF0730F4EA85FB85EC8722
:1010CA00FD87212F302FE4CFC3CF3F3F11F4E0E05B
:1010DA00E9C0A2EEF1D0A22FA150F3D0A32F20DFB6
:1010EA00A4E01EDFA0EEE8D0A1E0EBD0A1E0B0E0E2
:1010FA000E94F415A0EEE0D0A3E0E3D0E0E0EE8396
:10110A00EF83AE89BF89E5E0F0E00E945B16EE0F3F
:10111A00FF1FE887F987AE81BF8188859985E4EC4E
:10112A00F9E060E070E00E947316E150F040604020
:10113A007040EE83FF8368877987A6EEBDD0A885C5
:10114A00C0D0AF81EDDEAE81EBDEA0EBB5D0EE8D87
:10115A00E17011F0E0E201C0E0E0AE2FEE8DE27046
:10116A0011F0E4E001C0E0E0EA2BAE2FAAD0A0E043
:10117A00D7DEA3E0D5DEAFE1D3DEA1E0D1DEAFED6D
:10118A000E940014A88DBB27EA8D0E940514E98DE0
:10119A00AC85BD85F0E0EA0FFB1FE05EFC4FAF01B6
:1011AA00A4EB0E940C14A88DA1500E940014A0E088
:1011BA000E940014AB8DBB27ED8D0E940514EC8DA7
:1011CA00AC85BD85F0E0EA0FFB1FE052FE4FAF0190
:1011DA00A6EB0E940C14AB8DA1500E940014A0E053
:1011EA009FDEEE8DE295E170EE0FEE0FEE0FAE2F61
:1011FA00EE8DE695E695E170EE0FAE0FEE8DE69573
:10120A00E695E695E170EA0FE09395240E941A1498
:10121A00A0EF52D0A3E055D0AAE34ED0A0E551D01A
:10122A000E942A13E0E0F0E0E0931C24F0931D24CE
:10123A00E0931E24F0931F24EE85FF85E093242477
:10124A00F0932524E889F989E0934124F093422414
:10125A00EA89FB89E0934324F0934424E1E0E09394
:10126A002624E0932724E0912824EE7FE093282483
:10127A00E1E0E0932924EFEFE0932A24EFEFFFEF78
:10128A00E0933724F0933824E9E3F4E2FA93EA93FB
:10129A00EFEFEA93A8E0B0E00E94AE122FD0A9E2E5
:1012AA000BD0E1E00E947E17A1960895E1E0E09359
:1012BA0025062EDE48DE0895AA93E1E0E09326068D
:1012CA0004C0AA93E1E0E09325061EDEA88128DE89
:1012DA0021960895BA93AA931A930A930A811B81B5
:1012EA0010930406009344060E94DE1321503040F6
:1012FA004040D1F7198108810C949B0C0E94F91285
:10130A000E94F9120E9421142F933F934F9320E0D9
:10131A003CED45E0A0911C24B0911D24DBDF4F91E8
:10132A003F912F910E94F912A0E0B0E0F4D2089503
:10133A00BA93AA93EC81FD81FA93EA93EC81FD8139
:10134A00FA93EA930E942114A881B9810E949C070A
:10135A0003C2FF92BA93AA9322970E947717FF2497
:10136A000E942B14A885B98511D1E887F9870E94B4
:10137A003214E0912924AA85BB85F0E0AE0FBF1F85
:10138A00119716D1AF01E885F985FA93EA93AC85EE
:10139A00BD85C1D2E885F985AC85BD85EA17FB070D
:1013AA0088F4EC85FD85EE83FF83E885F985EC8773
:1013BA00FD870E9425130E943914E064AE2F81DF55
:1013CA006894F0F80E9440140E9440140E9440144D
:1013DA00DA010E94C007ACE20E944713AC85BD85C2
:1013EA000E944514AA85BB85FA01EA1BFB0B3196BC
:1013FA00AF01A0912A24AF3F69F4AE81BF8188274B
:10140A0099270E94A8139F01462F0E94D9130E9470
:10141A006F0922C024970E9434130E944D1400E0E1
:10142A002A853B85A02F0F5FA77011F410912A24FB
:10143A0010FF03C0E881F98102C0EA81FB81DF0164
:10144A000E949C071695F90131979F0159F7FA01F5
:10145A003197AF0121F72496F0FE02C00E941A14B8
:10146A000E94F9120E94F9120E945614FF900895E0
:10147A00BA93AA9322970E9477170E942B14E0919D
:10148A002924AC85BD85F0E0AE0FBF1F11977ED031
:10149A009F010E943214A885B9858AD0E887F98706
:1014AA000E944014AA85BB8536D2E885F985AA85AB
:1014BA00BB85EA17FB0760F4EA85FB85EE83FF83A9
:1014CA00E885F985EA87FB870E942513E0EE01C0CB
:1014DA00E0E2EE830E943914AE81EA2BAE2F0E941D
:1014EA0066090E9440140E9440143A932A93AE85DA
:1014FA00BF850E94C007ACE20E944713AC85BD8538
:10150A00F901EA1BFB0B31969F01AA85BB850E9454
:10151A004514A0912A24AF3F71F4D901882799274D
:10152A00EE81FF810E94A8139F01462F0E94D913C2
:10153A000E946F0922C024970E9434130E944D14FE
:10154A0000E04A855B85A02F0F5FA77011F4109108
:10155A002A2410FF03C0E881F98102C0EA81FB81D5
:10156A00DF010E949C071695FA013197AF0159F7DE
:10157A00F90131979F0121F724960E941A140E94BB
:10158A00F9120E94F9120E94561408950E946214D8
:10159A001CF0E0E0F0E0B9C0A881B981A032E3E034
:1015AA00BE071CF0EFE1F3E0B0C0E881F981ADC0FD
:1015BA000E9462141CF0E0E0F0E0A7C0A881B981A3
:1015CA00A03EE1E0BE071CF0EFEDF1E09EC0E8812D
:1015DA00F9819BC0BA93AA93EA81FB81FA93EA93B1
:1015EA00EA81FB81FA93EA930E94D913A1DE9EC194
:1015FA00BA93AA9323970E9469148F01002E012A95
:10160A0019F4E0E0F0E068C00E9470140F820E94B2
:10161A0070140E820E9470140886EB85A885EA175A
:10162A0018F4E0E0F0E058C0F8010F5F1F4F549142
:10163A00A885BB27EE27A50FBE1FEB85F0E0EA17AA
:10164A00FB0718F0E0E0F0E047C0EF81E030E1F09E
:10165A00A985BA85EC93E695E695E6954E2FEF8136
:10166A00E77009F04F5FA885EB85EA1BF0E0DF0120
:10167A00EE81F0E00E942E16DF01E42FF0E00E94D6
:10168A002E16E00FF11F28C09801E52FF0E00E0F8B
:10169A001F1FA885AF5FA887A150EB85AE17B0F4CE
:1016AA00F901E491E695E695E6954E2FF9012F5F4B
:1016BA003F4FE491E77009F04F5FAE81BB27E42FFB
:1016CA00F0E00E942E160E0F1F1FE3CFF901E491DE
:1016DA00A985BA85EC93F8010E947E172C96089585
:1016EA00AA932197E0912424F0912524309761F060
:1016FA00E981EA93DE0111967BDF309729F0E091C8
:10170A002624A881EA0F01C0E0E0229608950E94EB
:10171A007514309711F4E0E008950E94751431961B
:10172A00A491E0912724EA0F0895BA93AA930E94FC
:10173A00791720E030E0AC81BD81ED91AC83BD83A7
:10174A001E2FE03031F0A12FCBDFF0E02E0F3F1F2C
:10175A00F2CFF9010E94801726960895E0E0F0E0A2
:10176A000E947A140E947F143196E491F0E0AE0F41
:10177A00BF1FE0912724F0E0AE0FBF1F0E94841420
:10178A000895AA9321970E946914309709F476C0A4
:10179A00AF81AA3009F46EC0EF81EA93DE01179691
:1017AA0027DFAF01309719F40E947E1788C4E091B1
:1017BA002624AE81EA0F3E2FA0912024B091212445
:1017CA00F0E0EA0FFB1F8F010132E3E01E0718F079
:1017DA00032F1127C3DF0E948B140E949214EA85FB
:1017EA00F0E0FA93EA930E9475143196E491F0E0DE
:1017FA00FA93EA93E1E0EA935A934A93A7E00E94A4
:10180A00E305E0912824E17081F5A0912024B091AC
:10181A002124EE81F0E0EA0FFB1FFA93EA930E947B
:10182A009214E0912624F0E0FA93EA930E94751448
:10183A003196E4910E949914A9E00E94E3050E945E
:10184A008B140E947F143196E491F0E0EA0FFB1F9B
:10185A00FA93EA93E32FF0E0FA93EA93E0912724CC
:10186A000E949914A9E00E94E305E0E2F3E0E01780
:10187A00F10721F473DF0E947E1721C4009320240C
:10188A00109321240E947E171AC40E949F14A981D2
:10189A00BA81ED91A983BA831E2FE03019F0A12FE6
:1018AA0070DFF5CF08C00E949F140E94AA1419F095
:1018BA00A12F67DFFACF188127960895BA93AA93C2
:1018CA001A930E94AA1419F0A12F5BDFFACF18818C
:1018DA0023960895AA93EB81FC81FA93EA93EB810C
:1018EA00FC81FA93EA93E0912A24AC81EA2329F055
:1018FA00E0911A24F0911B2402C00E943413DF01E4
:10190A0017DDE881EE0FE883E03011F4E1E0E883C7
:10191A00E88125960895BA93AA93AA81BB8136DEF7
:10192A000E947A14A881B9810E9484142496089589
:10193A00BA93AA932E970E947717AA8DBB8D26DE9B
:10194A00EA8FFB8FAE89BF8921DEEE8BFF8BA88DD4
:10195A00B98D2EDEE88FF98FAC89BD8929DEEC8B33
:10196A00FD8BEE89FF890E947A14EC89FD89E09348
:10197A002224F0932324E1E0EF83EC89FD89A88DEA
:10198A00B98DEA17FB0791F40A8D1B8DAE89BF89C1
:10199A000A171B0729F40E94B414A1E09BDFB8C000
:1019AA000E94B414AA8DBB8DD4DCB2C0EE89FF8923
:1019BA00AA8DBB8DEA17FB0761F4488D598DEA8D14
:1019CA00FB8DFA93EA935A934A93A88DB98D50DD09
:1019DA009FC0E0E0EE83AE81AF5FAE83A150E0919D
:1019EA002924AE1708F094C00A8D1B8D488D598D95
:1019FA00E1E0F0E0EA8BFB8B9F01AA8DBB8DEE89BB
:101A0A00FF89EA1BFB0BE88BF98BA989AA2332F41D
:101A1A002FEF3FEF0E941616E88BF98BE889F989B8
:101A2A00EE0FFF1FEE87FF87A88DB98DEC89FD8920
:101A3A00EA1BFB0BEC87FD87AD85AA2352F4EFEF77
:101A4A00FFEFEA8BFB8BEC85FD850E941616EC876F
:101A5A00FD87EC85FD85EE0FFF1FEA87FB870E9455
:101A6A00BB14A1E037DFEF83E0E0E887E987E88984
:101A7A00F989AC85BD85EA17FB0704F1020F131F2C
:101A8A00EA85FB850E94C014E889F989A885B98589
:101A9A00EA17FB0744F4EA89FB894E0F5F1FAE85FC
:101AAA00BF850E94C7140E94BB14AB8513DFEF8366
:101ABA00EE89FF89E017F10709F71FC0EA89FB8958
:101ACA004E0F5F1FEE85FF850E94C014EC85FD85D1
:101ADA00A885B985EA17FB0734F4020F131FAA85F4
:101AEA00BB850E94C7140E94BB14AB85F3DEEF834B
:101AFA00EC89FD89E417F50709F7E88DF98D319628
:101B0A00E88FF98FEC89FD893196EC8BFD8B63CFD9
:101B1A000E947E176C960895BA93AA931A930A9311
:101B2A00AA81BB8112960E94BE16309759F1AA81EA
:101B3A00BB8114960E94BE168F01309761F0023065
:101B4A00E0E01E0798F0F80131978F01AA81BB8166
:101B5A001496ED93FC93AA81BB8112960E94BE163D
:101B6A003196ED93FC933197AC81A083AA81BB8116
:101B7A000E94BE16FF232AF00E94BE163196ED93EC
:101B8A00FC9306C0AA81BB81EFEFFFEFED93FC93B4
:101B9A00198108810C94BC12BA93AA9324970E94C3
:101BAA00771710E0AA85BB85E0E0F0E0ED93FC939F
:101BBA00E889F9893196E88BF98B3197E4913E2FC0
:101BCA00E03009F4C2C0E12FE03039F4353211F4C3
:101BDA0011E002C00E94CE14B7C0E13089F4353258
:101BEA0019F40E94CE14AFC012E020E000E03B32AC
:101BFA0011F42BE2A9C0303211F420E2A5C002C0D0
:101C0A00E23031F4303319F4006115E09DC003C0AD
:101C1A00E53009F099C0E32FE33661F40E94D51448
:101C2A00EE85FF85A481AA93AB85BC85ED85FE85EB
:101C3A00099589C0E33781F40E94D5140E94DB1408
:101C4A00AE81BF81ED91AE83BF833E2FE03019F0A4
:101C5A000E94CE14F5CF77C0E03791F40E94D514D4
:101C6A000E94DB14EE81FF813196EE83FF83319768
:101C7A00E4913E2FE03019F00E94CE14F3CF63C0F6
:101C8A00E43611F0E93611F4016002C0E53719F4BF
:101C9A00ECECF4E009C0E83511F4026003C0E8375F
:101CAA0009F051C0E6EDF4E0EE83FF8300FF17C0B0
:101CBA000E94D514AE85BF8514964D915C9155232B
:101CCA002AF4FA010E941616AF012DE2203031F0F3
:101CDA002A93AB85BC85ED85FE85099507C00E94D0
:101CEA00D514AE85BF8514964D915C9130E3EE8193
:101CFA00FF810E94C216E887F987EE81FF8132963A
:101D0A00EE83FF83E885F9854E175F0730F03F5F62
:101D1A00A885B9854A1B5B0BF5CF04FD06C0313394
:101D2A0020F4A885B985119751F400613A3328F057
:101D3A0001FF02C0395F01C0395D0E94CE14A88537
:101D4A00B985129798F610E033CFAA85BB850E9411
:101D5A00BE160E947E1762960895FF92F82E269765
:101D6A000E9479170E94E314309719F4EFEFFFEFFE
:101D7A0023C0DE0116960E94FE158D010E94E3140F
:101D8A00EE83FF83E0E0E887E987DE011A960E9486
:101D9A00FE150E94BE16FA93EA931A930A93E1E992
:101DAA00FDE0FA93EA93DE011A96F6DE9F01AE8110
:101DBA00BF81E0E0EC93F9010E9480172A96FF9018
:101DCA00089500000895AA930E9479170C8135E0BE
:101DDA00E2E0E093860607FF04C0E4E0E0938506AC
:101DEA0003C0E4E0E0938606ECDF0E94EA14000FE9
:101DFA00315089F733E007FF04C0E4E0E093850639
:101E0A0003C0E4E0E0938606DCDFE1E0E0938506C8
:101E1A0085ED8A95F1F7E093860685ED8A95F1F7C7
:101E2A00000F315041F7E4E0E093860600E010E04D
:101E3A003CE00E94EA14E1E0E0938506000F111FDE
:101E4A00E0918806E87009F00160E1E0E093860617
:101E5A00B8DF315081F7E2E0E0938506F8010E948D
:101E6A0080170C94BC12AA9362970E947717388D38
:101E7A00A32FA9DF10E0193078F4E12F0E94F4149F
:101E8A00EA0FFB1FFF93EF93A32F9DDFAF91BF9143
:101E9A00ED93FC931F5FEFCF18E000E0011790F578
:101EAA00302F0395E32F0E94F414AE0FBF1F0D903D
:101EBA001C90E02F0E94F414AE0FBF1F0E94BE16A2
:101ECA00E015F105F0F4E32F0E94F414AE0FBF1FE2
:101EDA004D915C91E32F0E94F414EA0FFB1F0F014E
:101EEA00E02F0E94F414AE0FBF1F0E94BE16D0014D
:101EFA00ED93FC93E02F0E94F414EA0FFB1F40833A
:101F0A005183CCCF115049F6EC85FD85AA85BB8556
:101F1A00EA0FFB1FAE85BF85EA0FFB1FA889B989A7
:101F2A00EA0FFB1FAA89BB89AE0FBF1FE5E0F0E0ED
:101F3A000E945B160E947E1769960895E0916806D2
:101F4A00E17019F00E94FA1429C0E091B724E03038
:101F5A0029F1E150E093B724E03019F4E1E0E0938D
:101F6A006106E1E0E0936606E091B624E069AE2FEF
:101F7A007ADF0E942916E093B824F093B924E091FD
:101F8A00B624E06DAE2F6FDF0E942916E093BA24C3
:101F9A00F093BB24009AE1E0E09362060895BA93B5
:101FAA00AA931A93009BFECF1FB7F894E091B82426
:101FBA00F091B924AB81BC81ED93FC93E091BA24F2
:101FCA00F091BB24A981BA81ED93FC930E94FA1483
:101FDA001FBF18810C94BC12BA93AA932497FE01CE
:101FEA003296FA93EA93DE011296D9DF0E94FF1421
:101FFA0019F40E940F1511F4E0E061C0A0919A242F
:10200A00B0919B2480919C2490919D240E941A1542
:10201A007F936F93FF93EF93A0919E24B0919F2497
:10202A008091A0249091A1240E942115AF91BF9183
:10203A008F919F910E940716E091A224F091A32408
:10204A006091A4247091A5240E942815AE81BF81B5
:10205A00ED93FC93F07811F0E0E031C0A091A62452
:10206A00B091A7248091A8249091A9240E941A15BE
:10207A007F936F93FF93EF93A091AA24B091AB241F
:10208A008091AC249091AD240E942115AF91BF910B
:10209A008F919F910E940716E091AE24F091AF2490
:1020AA006091B0247091B1240E942815AC81BD8141
:1020BA00ED93FC93F07811F0E0E001C0E1E028969E
:1020CA000895BA93AA931A93AB81BC810E943515DD
:1020DA0029F4A981BA810E94351521F0E0E018811E
:1020EA000C94BC1210E2AB81BC811196AB83BC8309
:1020FA0011970E94FE160E2EA981BA811196A98304
:10210A00BA8311970E94FE16E01521F0E0E01881CB
:10211A000C94BC12115039F7E1E018810C94BC12EE
:10212A00AA930E947917E2E0E0938106E09385067C
:10213A00E1E0E0938106E0938606E4E0E09381061D
:10214A00E0938606E8E0E0938206E1E0E093620627
:10215A00EC81E03011F0E4E001C0E0E0E093B62465
:10216A000E94FA14E091B624E069AE2F2CDEE1E079
:10217A00F0E0FA93EA93A1E2B0E0A3DF1E2FE1E2D6
:10218A00F0E00E943F150E2FE1E0F0E00E943F15BB
:10219A003E2FE1E0F0E0A6E9B4E280E20E944517B2
:1021AA00103021F0003011F0303009F401C01BC0AA
:1021BA00103019F00E94451516C0003051F0E1E2C6
:1021CA00F0E0A6E9B4E280E20E9445170E944D15AC
:1021DA000AC0303019F00E94551505C0E0E00E948F
:1021EA0080170C94BC120E94FF1429F40E940F1548
:1021FA0011F0E1E001C0E0E00E9480170C94BC12EB
:10220A00BA93AA93E897E8ADF9ADDE0190968CE00F
:10221A000E943B17EAADFBADDE019C968CE00E9462
:10222A003117AAA9BBA90E945D15AC8FBD8F8E8FED
:10223A009F8FAEA5BFA50E945D15A88FB98F8A8F03
:10224A009B8F0E9466150E946B15AC8BBD8B8E8B83
:10225A009F8B0E9472150E946B15A88BB98B8A8B73
:10226A009B8BA8A1B9A10E947715AC87BD878E87E1
:10227A009F87ACA1BDA10E947715A887B9878A87D5
:10228A009B87AAA1BBA10E948015AC83BD838E83C4
:10229A009F83AEA1BFA10E9480150E94D116EC892E
:1022AA00FD896E897F890E9489157F936F93FF93B9
:1022BA00EF93E889F9896A897B890E949015AF9121
:1022CA00BF918F919F910E949715E093B224F0934A
:1022DA00B3246093B4247093B5240E94641711F454
:1022EA00E0E02BC1EC85FD856E857F850E9489150E
:1022FA007F936F93FF93EF93E885F9856A857B85D2
:10230A000E949015AF91BF918F919F910E9497154E
:10231A00E0939A24F0939B2460939C2470939D24C9
:10232A00E885F9856A857B850E949C157F936F9362
:10233A00FF93EF93EC85FD856E857F850E94A3153B
:10234A00AF91BF918F919F910E949715E0939E2420
:10235A00F0939F246093A0247093A124EC81FD81C3
:10236A006E817F810E9489157F936F93FF93EF930C
:10237A000E9431130E949015AF91BF918F919F9146
:10238A000E949715E093A624F093A7246093A824AB
:10239A007093A9240E9431130E949C157F936F9316
:1023AA00FF93EF93EC81FD816E817F810E94A315DB
:1023BA00AF91BF918F919F910E949715E093AA24A4
:1023CA00F093AB246093AC247093AD240E94AA15B9
:1023DA000E94AF157F936F93FF93EF930E9472153C
:1023EA000E94B615AF91BF918F919F910E94BD1522
:1023FA007F936F93FF93EF930E9466150E94B61521
:10240A007F936F93FF93EF930E94AA150E94C615BC
:10241A00AF91BF918F919F910E94CD15AF91BF91BE
:10242A008F919F910E9402167F936F93FF93EF9370
:10243A000E9472150E94C6157F936F93FF93EF93C4
:10244A000E9466150E94AF15AF91BF918F919F911F
:10245A000E94D615AF91BF918F919F910E9402164B
:10246A00E093A224F093A3246093A4247093A52458
:10247A000E94AA150E94DF157F936F93FF93EF9333
:10248A000E9472150E94E615AF91BF918F919F919C
:10249A000E94BD157F936F93FF93EF930E94661579
:1024AA000E94E6157F936F93FF93EF930E94AA15FC
:1024BA000E94ED15AF91BF918F919F910E94CD150A
:1024CA00AF91BF918F919F910E9402167F936F9354
:1024DA00FF93EF930E9472150E94ED157F936F93FD
:1024EA00FF93EF930E9466150E94DF15AF91BF918B
:1024FA008F919F910E94D615AF91BF918F919F9115
:10250A000E940216E093AE24F093AF246093B024A5
:10251A007093B124E5E0F3E062E679E1E093962472
:10252A00F093972460939824709399240E944D15F0
:10253A000E9455150E944515E1E0EC960895BA935C
:10254A00AA93E991F99130971AF4E095F0953196AA
:10255A000895BA93AA93B981A881109631F0FC81A3
:10256A00EB816A8161931197E9F7EB81FC812596EA
:10257A000895BA93AA93EA81E13021F4E881F981B6
:10258A00E49114C0E23029F4A881B9810E94FE16B0
:10259A000DC0E33041F4A881B981E0914124F09162
:1025AA004224099503C0A881B981EC912396089524
:1025BA00AA93EB81E03029F4E881A981BA81EC93EE
:1025CA0011C0E23031F4E881A981BA810E9407176B
:1025DA0009C0E33039F4E981FA81FA93EA93AA81CE
:1025EA000E945D1324960895E0E0F0E0FA93EA93DE
:1025FA000895EAE0F0E0FA93EA930895E12FA8E952
:10260A00B4E0F0E00E942216EA0FFB1FA4E00E9449
:10261A00DB160895662777270E94D6160895A8EE36
:10262A00B3E00C94F4153597FA93EA93EE85FF8597
:10263A00FA93EA930895EA85FB85FA93EA93089553
:10264A00EE81FF81E887F9870895EFEFFFEFE093C6
:10265A001A24F0931B2408950E94CC160895E09141
:10266A001C24F0911D240895E4EAF4E00E94C616A1
:10267A000E94D6160895EF85F889AB89BC89AE0FFA
:10268A00BF1F08950E946109E1E0E09325060895BD
:10269A00ED85FE853197ED87FE8731960895EA85A7
:1026AA00FB853196EA87FB873197FA93EA93089577
:1026BA00E0914324F091442409950895EC85EA9326
:1026CA00EB85FC853196EB87FC873197FA93EA9381
:1026DA000895EC85EA93EB85FC853196EB87FC87B8
:1026EA00319766277727DF01CB010E94BE122E2F72
:1026FA0048E05F5FE885E5170895ABE20E9461094B
:10270A00AA890E946609A9890E949507A1E00E94E8
:10271A009507AFED0C949507AAE20E946109AF8173
:10272A000E946609AE810C949507A3E00E94950762
:10273A00AFE10E949507ACE2A5CFE989FA89319603
:10274A00E98BFA8B0895662777270E943616089533
:10275A00AA85BB851196AA87BB871197E091412468
:10276A00F091422409950895EC85EA93EB85FC855E
:10277A003196EB87FC87319766277727DF01CB01F4
:10278A000C94BE121E2FE0911E24F0911F24E01714
:10279A00F1070895AAE20E946109A32F0E9466091F
:1027AA00A22F0E949507C1CFA0911A24B0911B2491
:1027BA000895E8E0E0932606E2E0E09326060E9408
:1027CA009307E2E0E0932506E8E0E0932506089502
:1027DA00E4E0E0932606E8E0E09326060C949307EB
:1027EA00E8E0E0932506E4E0E09325060895A5E0F5
:1027FA00B0E00C94F4150E949507A0E00C9495079C
:10280A00F0E0AE0FBF1F1197AC87BD8708950E94F5
:10281A006109A52F0E946609A42F0E949507AD851C
:10282A000E949507AC850C949507A6E30E9461095E
:10283A00A09195240C946609EFE1F3E0FA93EA93E8
:10284A00AFEDB1E00E94C007ACE21CCFAC85BD85FC
:10285A000E94CB0AEC87FD870895AA85BB850E9452
:10286A00DD0AEA87FB870895A6E30E946109E091E1
:10287A009524EF710895EC85FD85FA93EA930895FE
:10288A00E885F985EA1BFB0B3196EE83FF830895F1
:10289A00EA83FB83E0911A24F0911B24E883F983ED
:1028AA000895EFE1F3E0FA93EA93AFEDB1E00E9405
:1028BA00C0070E947E172E960895BA93AA93A881FC
:1028CA00B9810E94681708950E947717E09124241D
:1028DA00F09125240895F8010F5F1F4F0490089581
:1028EA00E0912424F09125240895E0932024F09384
:1028FA0021240895A0912224B0912324F1CF0E948B
:10290A00DD0AE0932224F09323240895E091202401
:10291A00F0912124FA93EA930895E0912224F09108
:10292A002324FA93EA930895F0E0FA93EA93E0E015
:10293A00EA935ACEBA93AA931A93ED81FE81FA9337
:10294A00EA93AD81BE810C94900CE981FA813196AB
:10295A00E983FA833197E4911E2FE03008951A93A0
:10296A000A93EA8DFB8DFA93EA9308951A930A93D0
:10297A005A934A930895A885B985EA0FFB1FE887F9
:10298A00F9870895E885F985EA1BFB0BE887F9873B
:10299A0008953A93AB85BC85ED85FE850995089522
:1029AA00EE85FF853497EE87FF870895AE85BF854C
:1029BA0014960E94BE16EE83FF830895DE011C96CC
:1029CA000E94FE150E94BE160895E1E0E093850676
:1029DA000E94E60EE1E0E09386060C94E60EF0E033
:1029EA00DE011696EE0FFF1F0895E5E0E093B72487
:1029FA0000980895A0919624B091972480919824E4
:102A0A0090919924A530E3E0BE07E2E68E07E9E15A
:102A1A009E070895A091B224B091B3248091B42462
:102A2A009091B5240E946C170895EA81FB8166276C
:102A3A0077270E9456160895E881F9816627772735
:102A4A000E94561608950E940716E091B224F0914A
:102A5A00B3246091B4247091B5240E949816089505
:102A6A000E94F116E530A3E0FA07A2E66A07A9E197
:102A7A007A070895FA93EA93A1E4B0E00C946610F9
:102A8A00A1E4B0E0E6E9F4E260E20E945517089595
:102A9A00E6E9F4E2A1E0B0E060E20E945517089589
:102AAA00A1E2B0E0E6E9F4E260E20E945517089577
:102ABA0088279927EEA9FFA9662777270E9411166A
:102ACA000895ACA5BDA5882799270895ECA9FDA965
:102ADA00662777270E9411160895A8A9B9A98827F9
:102AEA009927089588279927E8A5F9A566277727BA
:102AFA000E941116089588279927EAA5FBA566273B
:102B0A0077270E9411160895AC8DBD8D8E8D9F8DED
:102B1A000E9456160895A88DB98D8A8D9B8D0E94A4
:102B2A00561608950E94E4160E940C160895AC8960
:102B3A00BD898E899F890E9456160895A889B989E8
:102B4A008A899B890E9456160895ACA9BDA988272F
:102B5A0099270895ECA1FDA1662777270E945616AA
:102B6A000895E8A5F9A5662777270E9456160895BD
:102B7A000E941116EEA5FFA5662777270E94561612
:102B8A000895E8A1F9A1662777270E9456160895A5
:102B9A000E941116EAA9FBA9662777270E945616F2
:102BAA0008950E941116EEA9FFA9662777270E94A9
:102BBA0056160895EEA1FFA1662777270E9456169A
:102BCA000895EAA5FBA5662777270E945616089559
:102BDA00EAA1FBA1662777270E9456160895109648
:102BEA0039F080E49FE10197F1F7A8951197C9F7A9
:102BFA0008950024AF0DB01D0895EA0FFB1F681F4A
:102C0A00791F0895AE0FBF1F861F971F0895EA1BED
:102C1A00FB0B680B790B0895AE1BBF0B860B970B4A
:102C2A000895F195E195F0400895F09560957095B5
:102C3A00E195FF4F6F4F7F4F0895EE0FFF1FEE0F85
:102C4A00FF1F0895F695E795F695E795F695E795AA
:102C5A000895FA9FF02DEB9FF00DEA9FE02DF10DFC
:102C6A0008957A9F702D6B9F700DF89F700DE99FE4
:102C7A00700D6A9F602D710DFB9F600D711DE89F9D
:102C8A00600D711D8827FA9FF02D610D781FEB9F4B
:102C9A00F00D611D781FEA9FE02DF10D681F781F66
:102CAA00089554D0DEDF0EF4C0DF08950024112405
:102CBA0090E1AA0FBB1F001C111C0E1A1F0A18F460
:102CCA000E0E1F1E01C0A1609A9599F7FD01D00151
:102CDA0008952ED0EBDF0EF4A4DF08953F934F93AF
:102CEA005F93002411244427552730E2AA0FBB1F03
:102CFA00881F991F001C111C441F551F0E1A1F0AFA
:102D0A00460B570B28F40E0E1F1E461F571F01C0F5
:102D1A00A1603A9559F7FD01BC01D001CA015F9142
:102D2A004F913F91089512D0D9DF0EF47EDF0895B6
:102D3A00E894F7FF02C075DF6894B7FF06C0A09554
:102D4A00B095119600F8039400FA0895E89477FF75
:102D5A0002C06BDF689497FF0BC00024A095B09562
:102D6A00809590951196801D901D00F8039400FAA5
:102D7A000895ED91FC91119708950590F491E02D35
:102D8A0008950590159065917491F0010895E88170
:102D9A00F9816A817B810895A883B9838A839B8399
:102DAA0008957A936A93FA93EA930895BB27EA0FF0
:102DBA00FB1F3197C8950A921197D9F70895182ED3
:102DCA00862F612D192E972F712D1B2EBF2FF12DB6
:102DDA001A2EAE2FE12D0895A895E091CF01E7FDB7
:102DEA00FBCFB05FED91FD916D917C91A350B04105
:102DFA000895A895E091CF01E7FDFBCFB05FEC9174
:102E0A00B051089523D0B05F8C918E1711F4B05150
:102E1A0008959E2F1BD07F937FB7F8949C93B0514F
:102E2A00A093C001B093C10180E08093C20185E301
:102E3A008093CA0188ED91E084BF9093CB0106D0BC
:102E4A0080E08093CA017FBF7F910895A895809101
:102E5A00CF0187FDFBCF08959927EF93FF936191E7
:102E6A006D930197E1F7FF91EF9108959927EF93F9
:102E7A00FF9305900D920197E1F7FF91EF91089565
:102E8A009927EF93FF93F05FA8956091CF0167FDB3
:102E9A00FBCF61916D930197E1F7FF91EF9108954F
:102EAA007727EF93FF930190EF93E02DABDFEF913C
:102EBA00119661507040B9F7FF91EF9108953097DC
:102ECA0060407040089500240A160B0608950024F5
:102EDA000A160B06080609060895E894EE2309F077
:102EEA00689408955A934A933A932A931A930A93A1
:102EFA0008955D814C813B812A8119810881089559
:00000001FF
