:0E0000000C940E140C9400000C9400000C9450
:10000E0000000C9400000C9400000C9400000C9462
:10001E0000000C9400000C9400000C9400000C9452
:10002E0000000C9400000C9400000C9400000C9442
:10003E0000000C9400000C9400000C9400000C9432
:10004E0000000C9400000C9400000C9400000C9422
:10005E0000000C9400000C9400000C9400000C9412
:10006E0000000C9400000C9400000C9400000C9402
:10007E0000000C9400000C9400000C940000050786
:10008E0020600000000000000004040404040004CA
:10009E000A0A0A000000000A0A1F0A1F0A0A041EA2
:1000AE00050E140F0403130804021918060905029D
:1000BE0015091606040200000000080402020204DC
:1000CE000802040808080402000A041F040A0000BB
:1000DE0004041F04040000000000060402000000D7
:1000EE001F000000000000000606000010080402B9
:1000FE0001000E11191513110E0406040404040E4A
:10010E000E11100804021F1F08040810110E080C0F
:10011E000A091F08081F010F1010110E0C02010F03
:10012E0011110E1F1008040202020E11110E1111F0
:10013E000E0E11111E10080600060600060600001F
:10014E000606000604021008040204081000001F30
:10015E00001F0000010204080402010E1110080421
:10016E0000040E11101615150E0E1111111F11117E
:10017E000F11110F11110F0E11010101110E0709AF
:10018E0011111109071F01010F01011F1F010107A5
:10019E000101010E11010119110E1111111F111181
:1001AE00110E04040404040E1C08080808090611A4
:1001BE000905030509110101010101011F111B159B
:1001CE0011111111111113151911110E1111111106
:1001DE00110E0F11110F0101010E1111111509163A
:1001EE000F11110F0509111E01010E10100F1F0422
:1001FE0004040404041111111111110E1111111125
:10020E00110A0411111115151B1111110A040A11ED
:10021E001111110A040404041F10080402011F1C0A
:10022E0004040404041C0001020408100007040462
:10023E0004040407040A110000000000000000007E
:10024E00001F0204080000000000000E101E111E08
:10025E0001010D1311110F00000E0101110E1010EE
:10026E00161911111E00000E111F010E0C1202079D
:10027E0002020200001E111E100C01010D131111BD
:10028E00110400060404040E08000C0808090602F6
:10029E0002120A060A120604040404040E00000BDD
:1002AE001515111100000D1311111100000E111171
:1002BE00110E00000F110F0101000016191E101073
:1002CE0000000D1301010100000E010E100F0202BD
:1002DE00070202120C000011111119160000111163
:1002EE00110A040000111115150A0000110A040A62
:1002FE0011000011111E100E00001F0804021F082D
:10030E00040402040408040404040404040204049F
:10031E0008040402021508000000001F111111113B
:10032E00111F000E206005020406060A07020404CF
:10033E00040603040303060606060606060606065C
:10034E000303060606060B0807070706060807023C
:10035E00050706080708060807070607080B07081B
:10036E000703030305060406060606060406060230
:10037E00020502080606060604060306060A060617
:10038E000604020406080000000000000000000041
:10039E000000000000000001010101010100010048
:1003AE000000000000050505000000000000000030
:1003BE0000000014141F0A0A1F05050000000000AB
:1003CE00000E15050E1414150E040000000000009A
:1003DE0000004600290029001600D000280128013F
:1003EE00C4000000000000000000000C12120C0AF5
:1003FE0031112E000000000000010101000000007C
:10040E0000000000000000040201010101010102D0
:10041E0004000000000102040404040404020100AC
:10042E0000000002070205000000000000000000AE
:10043E0000000004041F040400000000000000007F
:10044E000000000000000202020000000000000098
:10045E000000070000000000000000000000000087
:10046E00000002000000000000040402020202016B
:10047E00010000000000000E1111111111110E00EB
:10048E00000000000004060504040404040000003B
:10049E000000000E1110100804021F0000000000E2
:1004AE00000E11100C1010110E00000000000008BC
:1004BE000C0A0A091F08080000000000001E0201B5
:1004CE000F1010110E0000000000000E11010F1190
:1004DE0011110E0000000000001F080804040202A3
:1004EE00020000000000000E11110E1111110E007D
:1004FE0000000000000E1111111E10110E00000060
:10050E0000000000000100000000010000000000DB
:10051E0000000001000000000101010000000000C9
:10052E0000100E010E100000000000000000000080
:10053E001F001F00000000000000000000010E1050
:10054E000E01000000000000000E1110080404004F
:10055E0004000000000000000000F8000601B202D6
:10056E00C902450245026501D9000202FC010000E4
:10057E0000000008141414223E4141000000000047
:10058E00001F21213F2121211F0000000000001C1F
:10059E002201010101221C0000000000000F1121A8
:1005AE00212121110F0000000000001F01011F0179
:1005BE0001011F0000000000001F01010F010101D9
:1005CE00010000000000001C2241017141221C00AC
:1005DE0000000000002121213F21212121000000E7
:1005EE0000000001010101010101010000000000F5
:1005FE00000808080808090906000000000000218C
:10060E0011090D0B11112100000000000001010164
:10061E00010101011F0000000000004163635555F8
:10062E0055494900000000000021232525292931C4
:10063E00210000000000001C2241414141221C000B
:10064E0000000000000F1111110F01010100000048
:10065E000000001C2241414159225C0000000000B4
:10066E00001F21211F091111210000000000001E92
:10067E002101061820211E0000000000001F0404A6
:10068E0004040404040000000000002121212121A3
:10069E0021211E00000000000041412222141408F6
:1006AE000800000000000000000021045104520266
:1006BE0052028A028A0204010401000000000000B6
:1006CE000000002112120C0C12122100000000007A
:1006DE000041222214080808080000000000003E15
:1006EE001008080404023F0000000000000301018E
:1006FE0001010101010103000000000101020202DB
:10070E0002040400000000000003020202020202C2
:10071E0002020300000000040A0A1100000000009B
:10072E0000000000000000000000000000003F007C
:10073E0000000001020000000000000000000000A8
:10074E000000000E111E111916000000000000011D
:10075E00010D131111130D00000000000000000E1A
:10076E00110101110E0000000000001010161911E9
:10077E0011191600000000000000000E111F0111DB
:10078E000E00000000000004020702020202020036
:10079E0000000000000000161911111916100F00AC
:1007AE0000000001010D13111111110000000000D5
:1007BE000001000101010101010000000000000222
:1007CE000002020202020202010000000001010901
:1007DE0005030505090000000000000101010101EB
:1007EE0001010100000000000000003D4B49494995
:1007FE004900000000000000000F1111111111003E
:10080E00000000000000000E111111110E0000007A
:10081E0000000000000D131111130D010100000066
:10082E00000000161911111916101000000000001A
:10083E000005030101010100000000000000000E90
:10084E00110608110E00000000000002020702024D
:10085E000202060000000000000000111111111923
:10086E0016000000000000000011110A0A04040026
:10087E00000000000000000000000000110129012E
:10088E00AA00AA004400440000000000000000007E
:10089E00000000110A04040A11000000000000000C
:1008AE000011110A0A040404020000000000001FD7
:1008BE00080404021F0000000000000402020201EE
:1008CE000202020204000000000101010101010107
:1008DE0001010100000000020404040804040404E1
:1008EE000200000000000000170D000000000000D4
:1008FE00000000007E42424242427E000000000E96
:10090E002060050305060609080304040406030413
:10091E000303060606060606060606060303060675
:10092E0006070B0807080706060807030607070A47
:10093E000708070807070707080B0808070403043A
:10094E000606040607060707050707030307030B3A
:10095E000707070705070507070A07070604030425
:10096E00060800000000000000000000000000006B
:10097E000000000303030303000303000000000054
:10098E00001B1B1B000000000000000000000024E4
:10099E00243F12123F09090000000000040E150545
:1009AE000F1E14150E0400000000000000002700AA
:1009BE00250015001700E800A800A400E4000000C0
:1009CE00000000000000001C36360C5E73337E0003
:1009DE000000000000030303000000000000000000
:1009EE0000000004060303030303020604000000D4
:1009FE0000010202060606060203010000000002C4
:100A0E0007020500000000000000000000000004C6
:100A1E00041F04040000000000000000000000009D
:100A2E0000030302010000000000000000000700A8
:100A3E0000000000000000000000000000030300A2
:100A4E000000000000040402020202010100000086
:100A5E000000000E1B1B1B1B1B1B0E0000000000CA
:100A6E00000C0E0F0D0C0C0C0C0000000000000E04
:100A7E001B18180C06031F0000000000000E1B18A8
:100A8E000C18181B0E000000000000181C1A1A1972
:100A9E003F18180000000000001E06030F19181B57
:100AAE000E0000000000000E1B030F1B1B1B0E0090
:100ABE0000000000001F180C0C06060606000000C1
:100ACE000000000E1B1B0E1B1B1B0E000000000067
:100ADE00000E1B1B1B1E181B0E000000000000004A
:100AEE0000030300000303000000000000000003E9
:100AFE00030000030302010000000000100C0303BA
:100B0E000C10000000000000000000001F001F007D
:100B1E000000000000000000010618180601000089
:100B2E0000000000001C3630180C000C0C000000F9
:100B3E00000000000000F8000601FA02C90245029A
:100B4E0045026501FA000603F800000000000038B7
:100B5E00386C6C6CFEC6C60000000000001F3333FC
:100B6E001F3333331F0000000000003C66030303F5
:100B7E0003663C0000000000001F33333333333371
:100B8E001F0000000000001F03031F0303031F00CC
:100B9E0000000000001F03031F03030303000000F7
:100BAE000000003C6603037363663C000000000017
:100BBE00003333333F333333330000000000000380
:100BCE0003030303030303000000000000181818BA
:100BDE001818181B0E000000000000331B1B0F1FFF
:100BEE001B33330000000000000303030303030361
:100BFE003F000000000000000000C701C701EF0128
:100C0E00EF01AB01BB01BB0193010000000000002E
:100C1E00000000333337373B3B3333000000000016
:100C2E00001C3663636363361C0000000000001F67
:100C3E003333331F0303030000000000001C366330
:100C4E0063636B363C4000000000001F3333331FDC
:100C5E001B33630000000000001E33030F3C3033D3
:100C6E001E0000000000003F0C0C0C0C0C0C0C00C5
:100C7E000000000000333333333333331E000000E3
:100C8E000000006363363636361C1C000000000080
:100C9E000000000023067306760356035603DE0398
:100CAE008C018C0100000000000000000066663C14
:100CBE0018183C66660000000000006666243C18AA
:100CCE001818180000000000003F30180C0C060326
:100CDE003F000000000000070303030303030303A8
:100CEE0007000000000101020202020404000000DD
:100CFE0000000007060606060606060607000000A8
:100D0E0000040E0A1B00000000000000000000009E
:100D1E0000000000000000003F000000000306007D
:100D2E00000000000000000000000000000E191E70
:100D3E001B1B1E00000000000003031F3333333360
:100D4E001F00000000000000000E1B03031B0E001E
:100D5E00000000000030303E333333333E000000DD
:100D6E0000000000001E333F03331E000000000091
:100D7E00001C060F06060606060000000000000016
:100D8E00003E333333333E311E0000000003031F99
:100D9E00333333333300000000000003000303033A
:100DAE000303030000000000000600060606060608
:100DBE00060603000000000303331B0F1F1B330046
:100DCE0000000000000303030303030303000000FD
:100DDE0000000000000000000000FF013303330399
:100DEE003303330333030000000000000000000053
:100DFE00001F333333333300000000000000001EA9
:100E0E00333333331E00000000000000001F333365
:100E1E0033331F03030000000000003E333333332F
:100E2E003E30300000000000000F030303030300F8
:100E3E00000000000000001E330F3C331E000000B7
:100E4E0000000004060F060606060C000000000057
:100E5E0000000033333333333E0000000000000047
:100E6E0000363636361C1C00000000000000000064
:100E7E00000000009301BB01BB01EE00EE00C600B6
:100E8E00000000000000000000000036361C1C367A
:100E9E00360000000000000000633636361C1C0CC5
:100EAE00070000000000001F180C06031F000000C2
:100EBE000000000C06060606030606060C000000DF
:100ECE0000020202020202020202020000000003FD
:100EDE00060606060C0606060300000000000000CB
:100EEE0016090000000000000000007E424242424F
:100EFE0042427E000000070E20600000000000004D
:100F0E0000000000000000000000000008080808B3
:100F1E000800080000000000000014141400000077
:100F2E00000000000000000028143E14143E140AB5
:100F3E00000000000000081C020C100E040400004B
:100F4E0000000000040A041E08140800000000003F
:100F5E000000001804041A123C00000000000000FB
:100F6E00080808000000000000000000000010103B
:100F7E00080808081010000000000000040408080B
:100F8E0008080404000000000000083E08140000D9
:100F9E0000000000000000000808083E08080800D5
:100FAE00000000000000000000000000180C04000B
:100FBE00000000000000003E0000000000000000E5
:100FCE0000000000000000000C0000000000000007
:100FDE0020101008080404020000000000001C226B
:100FEE00222222221C000000000000000C0808082B
:100FFE0008083E000000000000001C221008040239
:10100E003E000000000000001C22201820221C00C0
:10101E00000000000000101814123E1038000000EE
:10102E00000000003C04041C20221C0000000000F4
:10103E0000003804021E22221C00000000000000E6
:10104E003E222010100808000000000000001C22A4
:10105E00221C22221C000000000000001C22223C48
:10106E0020100E0000000000000000000C00000028
:10107E000C000000000000000000180000180C0416
:10108E0000000000000000201806182000000000DC
:10109E000000000000003E003E00000000000000C6
:1010AE00000000020C300C020000000000000000E6
:1010BE000C12100808000C000000000000001C229A
:1010CE00322A2A32023C0000000000000C081414E0
:1010DE001C2277000000000000001F22221E222288
:1010EE001F000000000000003C22020202221C0031
:1010FE000000000000000F12222222120F0000003A
:10110E00000000003E24141C14243E0000000000C9
:10111E0000003E24141C14040E0000000000000009
:10112E003C22020272221C00000000000000772206
:10113E00223E222277000000000000003E08080830
:10114E0008083E000000000000003C1010101212B3
:10115E000C000000000000007722120E1222670021
:10116E000000000000000E04040424243E000000D1
:10117E00000000007736362A222277000000000099
:10118E0000007726262A2A323700000000000000D1
:10119E001C22222222221C000000000000001E241D
:1011AE0024241C040E000000000000001C22222239
:1011BE0022221C380000000000001E2424241C24BF
:1011CE004E000000000000002C32021C20221E00E7
:1011DE000000000000003E2A080808081C0000005D
:1011EE00000000007722222222221C0000000000B4
:1011FE0000007722221214140C00000000000000E0
:10120E0077222A2A2A2A14000000000000006322F6
:10121E001408142263000000000000007722140856
:10122E0008081C000000000000003E2210080422E6
:10123E003E00000000000000180808080808081802
:10124E00000000000000020404080808101000004E
:10125E00000000000C0808080808080C0000000038
:10126E000000081422000000000000000000000032
:10127E000000000000000000007F000000000408D5
:10128E0000000000000000000000000000001C2212
:10129E003C227E0000000000000003021A262222DB
:1012AE001F0000000000000000003C2202023C0073
:1012BE0000000000000030202C3222227C000000B2
:1012CE000000000000001C223E023C000000000056
:1012DE00000030083C0808083C0000000000000038
:1012EE0000006C3222223C201C0000000000030291
:1012FE001A262222770000000000000008000E08C7
:10130E0008083E0000000000000008001E1010102B
:10131E0010100E000000000003023A120E123B00E5
:10132E000000000000000C08080808083E0000003D
:10133E00000000000000172A2A2A7F00000000008B
:10134E00000000001B262222770000000000000093
:10135E0000001C2222221C000000000000000000E1
:10136E001B2622221E0207000000000000006C3225
:10137E0022223C207000000000000000360C040405
:10138E001E0000000000000000003C021C201E0099
:10139E0000000000000000021F0202221C000000DC
:1013AE00000000000000332222326C00000000001A
:1013BE0000000000772212140C0000000000000054
:1013CE00000077222A2A140000000000000000000E
:1013DE0036140814360000000000000000007722CA
:1013EE00141408080E000000000000003E1208242D
:1013FE003E00000000000000100808080C08080855
:10140E00100000000000080808080808080800007E
:10141E00000000000408080818080808040000006E
:10142E0000000000002C1A00000000000000000068
:10143E003F21212121213F000000000E20600707DF
:10144E00070707070707070707070707070707071E
:10145E00070707070707070707070707070707070E
:10146E0007070707070707070707070707070707FE
:10147E0007070707070907080707070707080707EA
:10148E0007070707070707070707070907070707DC
:10149E0007070707070907080707070707070000D9
:1014AE00000000000000000000000000000000002E
:1014BE000C0C0C0C0C000C000000000000001414AE
:1014CE0014000000000000000000003636367F36A3
:1014DE007F3636360000000000083C26061C3032EF
:1014EE001E080800000000000609293E4A48300088
:1014FE000000000000001C0606371D193E0000000B
:10150E0000000000080808000000000000000000B5
:10151E00000010180C0C0C0C18100000000000003D
:10152E00040C181818180C04000000000000187E97
:10153E001824000000000000000000000008083E13
:10154E00080800000000000000000000000000007D
:10155E0008040400000000000000003E000000002F
:10156E000000000000000000000000000C00000061
:10157E00000000303018181C0C0C0606000000008D
:10158E0000001C36363636361C0000000000000007
:10159E00181E181818187E000000000000001C36D7
:1015AE0030180C063E000000000000001C32301CFB
:1015BE0030321C00000000000000181C1A193F18E1
:1015CE003C000000000000003E061E3230321C00BF
:1015DE00000000000000380C061E36361C0000000D
:1015EE00000000003E3230301818180000000000D5
:1015FE0000001C36361C36361C00000000000000B1
:10160E001C36363C30180E000000000000000000B2
:10161E000C0000000C0000000000000000000C0098
:10162E000008040400000000000020180403041841
:10163E00200000000000000000007F007F0000007E
:10164E00000000000000020C1060100C02000000F0
:10165E00000000001C36301C0C000C0000000000C6
:10166E0000001E2139253901211E00000000000056
:10167E001F1C36363E3677000000000000001F3675
:10168E00361E36361F000000000000003E23030306
:10169E0003231E000000000000001F3636363636CB
:1016AE001F000000000000003F26161E16263F00F9
:1016BE000000000000003F26161E16061F00000048
:1016CE00000000003E2303037B333E0000000000B9
:1016DE0000007736363E36367700000000000000F8
:1016EE003F0C0C0C0C0C3F000000000000007C3086
:1016FE00303033331F000000000000007726160E36
:10170E001E366F000000000000000F06060626269B
:10171E003F00000000000000633636362A2A7700AC
:10172E0000000000000073262E2A3A322700000027
:10173E00000000001E33333333331E000000000060
:10174E0000001F3636361E060F0000000000000097
:10175E001E33333333331E3C0000000000001F36AF
:10176E00361E16366F000000000000003C26061CD8
:10177E0030321E000000000000003F2D2D0C0C0C1E
:10178E001E000000000000007736363636361C008C
:10179E0000000000000077363636141C1C000000D6
:1017AE000000000000000000EF01C600D600D600C9
:1017BE005C006C006C0000000000000000000000E7
:1017CE0077361C1C1C367700000000000000F76600
:1017DE003C1818183C000000000000003E321A1899
:1017EE002C263E000000000000003C0C0C0C0C0CE3
:1017FE000C3C00000000000307060E0C1C183830CD
:10180E000000000000001E1818181818181E0000FE
:10181E00000000000814220000000000000000007C
:10182E000000000000000000000000FF00000004A7
:10183E000800000000000000000000000000000092
:10184E001E303E337E0000000000000007063E669C
:10185E0066663F0000000000000000003E230323E8
:10186E001E0000000000000038303E3333337E008F
:10187E0000000000000000001E333F033E00000089
:10188E0000000000380C3E0C0C0C3E000000000066
:10189E00000000007E3333333E301E000000000097
:1018AE0007061E36363677000000000000000C00DA
:1018BE000F0C0C0C3F000000000000000C001F1865
:1018CE00181818180F00000000000706361E1E36E6
:1018DE0067000000000000000F0C0C0C0C0C3F0009
:1018EE0000000000000000000000000000007F006B
:1018FE00D600D600D600D701000000000000000080
:10190E00000000001F363636770000000000000091
:10191E0000001E3333331E000000000000000000E4
:10192E003F6666663E061F000000000000007E3324
:10193E0033333E307C00000000000000372E0606D8
:10194E001F0000000000000000003E231E311F009B
:10195E0000000000000006061F0606261C00000000
:10196E00000000000000373636367C000000000014
:10197E00000000007736141C1C0000000000000060
:10198E000000000000000000EF01D600D6006C0041
:10199E006C00000000000000000000000000773620
:1019AE001C3677000000000000000000EE6C2818C6
:1019BE00180C1F000000000000003E1A0C263E000E
:1019CE000000000000001C0C0C0C060C0C1C00008F
:1019DE00000000000C0C0C0C0C0C0C0C0000000099
:1019EE0000000E0C0C0C180C0C0E00000000000079
:1019FE0000000026190000000000000000003F213A
:101A0E00212121213F000000001320600607050C54
:101A1E00080A0C030908090D04060308080708073D
:101A2E0007080908080705060D0D0D08100F0E0D05
:101A3E000D0A0F0B100D0E100D0F0E0C0D0D100EBE
:101A4E000E120E110E0E0C0B050B1008080A0908CB
:101A5E000A080B0C0B080C0A070F0C090D0A0808D4
:101A6E00070B090E080C0B0808080D0A00000000F1
:101A7E000000000000000000000000000000000058
:101A8E0000000000004060201008000C0C00000058
:101A9E0000000000000A0A0A0A0A00000000000006
:101AAE000000000000000000000000C00440022002
:101ABE0002FC0F20011001FE078800C800480044F8
:101ACE000000000000000000000000000000000008
:101ADE00606038F4EC182F271E030300000000008E
:101AEE000000000000000000000000009C005E00EE
:101AFE007A00AE03D0024801C401000000000000CD
:101B0E0000000000000000000000000000000000C7
:101B1E00700C580F4801A8045003F8004800380014
:101B2E0000000000000000000000000000020202A1
:101B3E000202000000000000000000000000000093
:101B4E00000000000000018000400020001000187E
:101B5E000008000C00040004000200020002000253
:101B6E000000000000000080808080404060203037
:101B7E0010080402010000000000000000008000B8
:101B8E006001C000B0002000000000000000000056
:101B9E000000000000000000000000000000000037
:101BAE000000000000004000400040004000FC0724
:101BBE004000400040004000000000000000000017
:101BCE0000000000000000000000000000000C0CEF
:101BDE0004030000000000000000000000000000F0
:101BEE003C000000000000000000000000000000AB
:101BFE00000000000606000000000000000000804B
:101C0E00402020100808040202010000000000001D
:101C1E000000000000E0988C4662320C00000000CC
:101C2E0000000000000000004060383412180C0064
:101C3E00000000000000000000000070CCC4201C5A
:101C4E005C3A000000000000000000000000784C2C
:101C5E00503020331F000000000000000000000084
:101C6E000030184824123F0C0C0000000000000049
:101C7E0000000000E018083448603E00000000003C
:101C8E000000000000000000000000000000E00165
:101C9E00B8010C007E00460062001C00000000002F
:101CAE0000000000000000000000000000F04C20CA
:101CBE003018080C0C0000000000000000000000AE
:101CCE00F088987866423C0000000000000000009A
:101CDE00000000384C647C301B0700000000000040
:101CEE0000000000000000001818000606000000AA
:101CFE0000000000000000000000003030000C0C5E
:101D0E0004030000000000000000000000000000BE
:101D1E0004800360001C001C0060008003000400AF
:101D2E0000000000000000000000000000000000A5
:101D3E00000000000000000000FC0700000000FC96
:101D4E00070000000000000000000000000000007E
:101D5E00000000000000000000000004003800C079
:101D6E000000070007C0003800040000000000005B
:101D7E0000000000000000000000000000F088F8E5
:101D8E002818000C0C0000000000000000000000ED
:101D9E00C00F30180820844BC444424422442246CB
:101DAE0022222233C41C0C101818E0070000000079
:101DBE000000000000000000004000380024001267
:101DCE007019900C506D271753178F0F00000000DD
:101DDE000000000000000000000000000000800F66
:101DEE00701888248436440E381380118619C60B59
:101DFE0062073C0000000000000000000000000030
:101E0E0000000000701C18138809C4086406A401A1
:101E1E00D80750041002E00100000000000000008E
:101E2E0000000000000000000000C003301C080C81
:101E3E008C1684124413B81180095C04FC03000054
:101E4E000000000000000000000000000000000084
:101E5E00C0016002A003A001E0001C00E600960095
:101E6E00C6003C0000000000000000000000000062
:101E7E00000000000000000FC07820051005901B28
:101E8E00F0060007C0078C017C0000000000000077
:101E9E000000000000000000000000000007F00439
:101EAE00C80464022401A402F80318018801F0009A
:101EBE000000000000000000000000000000000014
:101ECE00000000E06092D849E82D801CC002E33388
:101EDE00730931051E030000000000000000000021
:101EEE000000000000000000001E800540022003DC
:101EFE00100590059603E60042003C00000000002D
:101F0E000000000000000000000000000000003C87
:101F1E00800BC004200210031001B001C000F003BA
:101F2E006C026201B1001900070000000000000001
:101F3E000000000000C0002460123809E40780652C
:101F4E00C0244316630E1F060000000000000000B0
:101F5E0000000000000000000000C01D3012181329
:101F6E0088098805C803F00840062E01DE0000002F
:101F7E000000000000000000000000000000000053
:101F8E00001A80090009C00FA006A0659027CE1286
:101F9E00C90A470600000000000000000000000013
:101FAE000000000000000006000380228012400A9C
:101FBE00400A2606230611060E020000000000004D
:101FCE00000000000000000000000000000FC0082C
:101FDE00200FB00458042C021C038C01C4003800DE
:101FEE0000000000000000000000000000000000E3
:101FFE000000C007301888148412441B3C07E0010F
:10200E00C60062003C00000000000000000000005E
:10201E000000000000000000C0033006980688068D
:10202E00C403641BBC0980045E02EE0100000000C4
:10203E000000000000000000000000000000800F03
:10204E007070884C8466C41F3C8F804DCE6FE21634
:10205E003C0E000000000000000000000000000028
:10206E0000000000803B602430261013100BB007D8
:10207E00E001800066003E0000000000000000004D
:10208E00000000000000000000008027601890048F
:10209E008802C803C803F603C601E2007C000000F4
:1020AE000000000000000000000000000000000022
:1020BE0000000000808301E0C401B0C400906600FF
:1020CE00C87300483303B8BB00C09D00406A00C00F
:1020DE0019000000000000000000000000000000D9
:1020EE0000000000000000000000323009EC09B4CE
:1020FE0004C004C0026001A00060003000000000B7
:10210E0000000000000000000000000000000000C1
:10211E00000000C04100302200582200489A01649D
:10212E005900242D009C1B00C01400700C001004DC
:10213E000000000000000000000000000000000091
:10214E000000000000000000C0013032583E48067A
:10215E00640324039C19C005EE049E028001000056
:10216E000000000000000000000000000000E02061
:10217E001811AC09F40C7C066007E0031C039C01EB
:10218E0078000000000000000000000000000000C9
:10219E00000000007804C4030201020182008000E6
:1021AE00F80CB8028001E0007C0023001900070043
:1021BE000000000000000000000000070001800089
:1021CE00C00040006000200010001800080004004D
:1021DE0004000200070000000000000010101010A4
:1021EE001010101010101000000000000000000071
:1021FE000000000007000200010001800080004086
:10220E000020002000100018000800040007000045
:10221E000000000000000080014002200418180099
:10222E0000000000000000000000000000000000A0
:10223E000000000000000000000000000000000090
:10224E000000000000000000FF0000000000000081
:10225E002020000000000000000000000000000030
:10226E000000000000000000000000000000007CE4
:10227E00002603B3005900370000000000000000E4
:10228E0000000000000000000000000000600030B0
:10229E0000100018002C00B601560022001E00008F
:1022AE000000000000000000000000000000000020
:1022BE000000383CC6320E00000000000000000096
:1022CE00000000000000000300018000C0005C0060
:1022DE006603B30059003700000000000000000044
:1022EE0000000000000000000000001CD23F190F8B
:1022FE0000000000000000000000000000000000D0
:10230E00068005C002E00130063001980058003802
:10231E00000C000400060002000300000000000094
:10232E0000000000000000000000000000F0019816
:10233E000C4C02E4017C0030001E0019000900075D
:10234E000000000000000000000000200030001817
:10235E000018006C0054066E01B6007300000000F9
:10236E00000000000000000000000000002020001F
:10237E0018CC2E120E00000000000000000000001D
:10238E000000000000000002000200000001800CAE
:10239E00E002C001E000380034001B000900070015
:1023AE00000000000000000000006000300010007F
:1023BE00180068002E03B600520033000000000023
:1023CE000000000000000000000000603018186CD3
:1023DE0026160A06000000000000000000000000A3
:1023EE0000000000000000000000006806DE67EC40
:1023FE00136E0D3707000000000000000000000003
:10240E0000000000000000000000000000000000BE
:10241E0000C800EE0C7C02AC01670000000000005A
:10242E00000000000000000000000000000000009E
:10243E00000000000000003800AC0156003A000613
:10244E00000000000000000000000000000000007E
:10245E0000000000008000C00040006000A001707D
:10246E001998045802C8010C00040006000200036B
:10247E00000000000000000000000000000000004E
:10248E000000007C00360393005D003F001C00142A
:10249E00001E000A00060000000000000000000000
:1024AE001CDA2C140C0000000000000000000000DC
:1024BE0000000008CE281D070000000000000000EC
:1024CE00000060207018086E160A0600000000005A
:1024DE0000000000000000000000000000000000EE
:1024EE000000EC00640636019A0076000000000041
:1024FE0000000000000000000000000000000000CE
:10250E0000000000000000002801BE005C00220058
:10251E001E0000000000000000000000000000008F
:10252E000000000000000000000000000000D807BE
:10253E00EE36761A2A0EE6010000000000000000BA
:10254E0000000000000000000000002CDA282D1B07
:10255E00000000000000000000000000000000006D
:10256E00000000000000009801D40C7802FC016C01
:10257E0000380016001900090007000000000000D6
:10258E0000000000000000000000000000DC0078E9
:10259E000690015C0020003800360019000D00077F
:1025AE000000006010101010100C181010101010F9
:1025BE00600000000000101010101010101010100D
:1025CE00101010101010000000060808080808303F
:1025DE0018080808080806000000000000000000A7
:1025EE00000000000000000000003C02C2010000DC
:1025FE0000000000000000000000000000000000CD
:10260E00000000000000FE010201020102010201B1
:10261E000201020102010201020102010201020194
:10262E00FE0100000000AA55AA55AA55AA55280079
:10263E000039000A39001E28002817001E17000A4C
:10264E0028000000000103070F1F3F7FFF004570A9
:10265E00736F6E20533144313337303020477261FF
:10266E0070686963732044656D6F0A4865726520F2
:10267E0061726520736F6D6520666F6E7420736175
:10268E006D706C65733A005374616E646172642C84
:10269E002035783720706978656C730041726961F6
:1026AE006C2C20313420706978656C7320686569F4
:1026BE006768740A00417269616C20426F6C642C09
:1026CE0020313420706978656C732068656967689D
:1026DE00740A00436F75726965722C203778313435
:1026EE0020706978656C730A00436F757269657244
:1026FE0020426F6C642C20313420706978656C73C5
:10270E00206865696768740A005363726970742C77
:10271E0020313920706978656C7320686569676847
:10272E00740A000A5661726961626C65207465787C
:10273E00742073706163696E673A0A004570736F37
:10274E006E2053314431333730300A004570736F89
:10275E006E205331443133373030004C696E652072
:10276E007374796C65733A0046696C6C00496D61DF
:10277E0067652077617320736176656420746F20BE
:10278E00454550524F4D00436972636C6573202668
:10279E0020617263730052656374616E676C65735A
:1027AE0020262066696C6C65642062617200526F2F
:1027BE00756E6465640072656374616E676C650046
:1027CE0050696500736C6963653A005075740A69E7
:1027DE006D6167650A66726F6D0A454550524F4DC1
:1027EE003A0050757400696E76657274656400699E
:1027FE006D6167650066726F6D0001002D4E414E72
:10280E0000494E4600000100230508280000F894F8
:10281E00EE27ECBBF1E0F5BFE5BFE0936C00F8E10D
:10282E00F1BDE1BD8DE0A2E0BB27ED938A95E9F7FE
:10283E0080E090E1A0E0B1E0ED930197E9F7E4E1EB
:10284E00F8E285919591009761F0A591B59105906B
:10285E001590BF01F00105900D920197E1F7FB0174
:10286E00F0CF8BBFEFEFEDBFE0E1EEBFC0E0D5E004
:10287E000C9441142697ECE8F0E0E883F983E0E04D
:10288E00EA83EB83EC83ED83DE010E944C17ACE50B
:10289E00B6E20E94211DE0E0F0E0FA93EA93E4E153
:1028AE00EA93A5E9B6E20E94091DE0E3F3E0E093A6
:1028BE000505F0930605E0E0F0E0FA93EA93EEE109
:1028CE00EA93AAEAB6E20E94091DECE0F9E0E09371
:1028DE000505F0930605A3ECB6E20E94211DE4E087
:1028EE00FFE0E0930505F0930605A1EEB6E20E9427
:1028FE00211DE8E4F4E1E0930505F0930605A7EF4A
:10290E00B6E20E94211DE6E1FAE1E0930505F0939F
:10291E000605A7E1B7E20E94211DECE8F0E0E09386
:10292E000505F0930605A1E3B7E20E94211DE8E438
:10293E00F4E1E0930505F0930605AAE4B7E20E94E0
:10294E00211DE2E0EA93A1E00E94511BAAE4B7E246
:10295E000E94211DE3E0EA93A1E00E94511BAAE52B
:10296E00B7E20E94211DE1E0EA93A1E00E94511B13
:10297E00ECE8F0E0E0930505F0930605E0E0F0E00A
:10298E00FA93EA93E4EBEA93A9E6B7E20E94091DF3
:10299E00E0E0F0E0FA93EA93EEEBEA93EFE3F1E096
:1029AE00FA93EA93AEEB0E94CF1DE1E0E0930905A6
:1029BE00E5E5E0930A05E0E0F0E0FA93EA93E3EC54
:1029CE00EA93EFE3F1E0FA93EA93A3EC0E94CF1DB2
:1029DE00E1E0E0930905E3E3E0930A05E0E0F0E0CF
:1029EE00FA93EA93E8ECEA93EFE3F1E0FA93EA93D1
:1029FE00A8EC0E94CF1DE2E0E0930905EFEFE09313
:102A0E000A05E0E0F0E0FA93EA93EDECEA93EFE3E7
:102A1E00F1E0FA93EA93ADEC0E94CF1DE2E0E09371
:102A2E000905E5E5E0930A05E0E0F0E0FA93EA93A4
:102A3E00E2EDEA93EFE3F1E0FA93EA93A2ED0E945E
:102A4E00CF1DE2E0E0930905E3E3E0930A05E0E041
:102A5E00F0E0FA93EA93E7EDEA93EFE3F1E0FA930D
:102A6E00EA93A7ED0E94CF1DE4E0E0930905EFEF96
:102A7E00E0930A05E0E0F0E0FA93EA93ECEDEA93D6
:102A8E00EFE3F1E0FA93EA93ACED0E94CF1DE4E0A0
:102A9E00E0930905E5E5E0930A05E0E0F0E0FA933E
:102AAE00EA93E1EEEA93EFE3F1E0FA93EA93A1EE13
:102ABE000E94CF1DE4E0E0930905E3E3E0930A05ED
:102ACE00E0E0F0E0FA93EA93E6EEEA93EFE3F1E06A
:102ADE00FA93EA93A6EE0E94CF1DA0E4BFE10E94F6
:102AEE0026290E943718E1E0E0930905EFEFE09305
:102AFE000A05E7E0EA93ACE3B6E20E946220A8EE94
:102B0E00B3E00E942629E0E3F0E0FA93EA93E8E1CD
:102B1E00EA93A1E00E94AF25E0E0E0930005E1E03A
:102B2E00E0930105EEE1F0E0FA93EA93E1E1EA9336
:102B3E00A6E7B7E20E94091DE6E1F0E0FA93EA93F8
:102B4E00E0E0EA93E5E2F0E0FA93EA93E9E2EA9351
:102B5E00A0E0B0E00E94781DE1E0E0930005E0E027
:102B6E00E0930105E0E0F0E0FA93EA93EFE2EA93F6
:102B7E00ABE7B7E20E94091DE5E1F0E0FA93EA93B4
:102B8E00E3E5EA93A4E1B0E00E94A823E5E1F0E0DA
:102B9E00FA93EA93E3E5EA93E0E0F0E0FA93EA933E
:102BAE00E8E7F0E0FA93EA93AFE0B0E00E94EB239F
:102BBE00E3E0E0930905EFEFE0930A05EFE3F0E0C1
:102BCE00FA93EA93E3E5EA93A4E1B0E00E94A82326
:102BDE00EFE3F0E0FA93EA93E3E5EA93E0E0F0E066
:102BEE00FA93EA93E2EDF0E0FA93EA93AFE0B0E005
:102BFE000E94EB23E0E0F0E0FA93EA93EBE6EA932F
:102C0E00A5E9B7E20E94091DE1E0E0930905EFEFA7
:102C1E00E0930A05E4E6F0E0FA93EA93ECE3EA9334
:102C2E00E8E2F0E0FA93EA93A9E10E94661FE3E07E
:102C3E00E0930905E3E3E0930A05EEE8F0E0FA938A
:102C4E00EA93ECE3EA93E8E2F0E0FA93EA93A9E17F
:102C5E000E94661FE4E3F6E2FA93EA93A1E00E9473
:102C6E002F25E2E7F0E0FA93EA93E9E5EA93EAEA40
:102C7E00F0E0FA93EA93A8E60E949625E4E6F0E0E7
:102C8E00FA93EA93EBE6EA93A4EAB7E20E94091DEF
:102C9E00E5E0F0E0FA93EA93EDE7EA93EAE4F0E098
:102CAE00FA93EA93E6E2EA93A8E0B0E00E94C21F2C
:102CBE00E0E1F0E0FA93EA93E8E8EA93ACEBB7E2EE
:102CCE000E94091DE0E1F0E0FA93EA93E0E9EA934D
:102CDE00A4ECB7E20E94091DE1E0E0930905EFEFD5
:102CEE00E0930A05E4E6F0E0FA93EA93E8E7EA9364
:102CFE00AEECB7E20E94091DE4E6F0E0FA93EA9327
:102D0E00EFE7EA93A2EDB7E20E94091DE0EAF0E0D8
:102D1E00FA93EA93EFE8EA93EEE1F0E0FA93EA939E
:102D2E00ECE2F1E0FA93EA93A4E1B0E00E949E2473
:102D3E00E0E0F0E0FA93EA93EAEAEA93A9EDB7E26B
:102D4E000E94091DEEE2F0E0FA93EA93EAEAEA93B2
:102D5E00E0E0F0E0FA93EA93A0E00E94331DE4E68F
:102D6E00F0E0FA93EA93EAEAEA93A0EFB7E20E9460
:102D7E00091DE4E6F0E0FA93EA93E1EBEA93A4EF9F
:102D8E00B7E20E94091DE4E6F0E0FA93EA93E9EB5C
:102D9E00EA93ADEFB7E20E94091DE4E6F0E0FA9384
:102DAE00EA93E1ECEA93A3E0B8E20E94091DE4E69F
:102DBE00F0E0FA93EA93E9ECEA93A8EEB7E20E9408
:102DCE00091DECE9F0E0FA93EA93EAEAEA93E0E00F
:102DDE00F0E0FA93EA93A3E00E94331D2696FFCF0C
:102DEE0000000895AA93AC98A898EFEFEABBE8818B
:102DFE00EBBBF6DFA89A00000000AC9AF5C0AA93D0
:102E0E00AA9AA881EFDFF0C0AA93AA98A881EADF58
:102E1E00EBC01A93AA9AAC98A998E0E0EABBE0DF5F
:102E2E0019B3A99AAC9AE12F19910895BA93AA935E
:102E3E00A6E4E5DFA881E8DFA981E6DF32C4AA9324
:102E4E00A881E8E2EA9FF001E055FB4FDF01E9813E
:102E5E00FA810E94082BEA0FFB1FE0932105F093E5
:102E6E002205A0912105B0912205E0DFA3E4C7DF82
:102E7E00D0DF23960895AA93A0912105B091220543
:102E8E00D5DFA2E4BCDFA881AEC0BA93AA93A49A00
:102E9E00AC9AA19AA99AA09AA89AA29AA39AAB9828
:102EAE00A5E0B0E00E942629AB9AA5E0B0E00E9412
:102EBE002629A0E4A4DFA1E0B0E00E942629A0E329
:102ECE00A3DFA7E8A1DFA7E09FDFA7E29DDFA4E3D2
:102EDE009BDFAFEE99DFA8E297DFA0E095DFA4E4D9
:102EEE008EDFA0E091DFA0E08FDFAFEE8DDFA0EBF5
:102EFE008BDFA4E089DFAFEE87DFA0E085DFA0E007
:102F0E0083DFA0E081DFA0E07FDFACE578DFA0E328
:102F1E007BDFAAE279DFA0E672DFA0E075DFADE528
:102F2E006EDFA3E071DFA7E06FDFACE468DFAAE538
:102F3E0066DFA0E069DFABE562DFA0E065DFA1E060
:102F4E0047D0E1E0E0930005E0E0E0930105E88181
:102F5E00F9813097A9F0A881B9810E94632BE09383
:102F6E000505F093060512960E94632BE0931D054E
:102F7E00F0931E05A881B98114960E94632B0AC096
:102F8E00E0E0F0E0E0930505F0930605E0931D0503
:102F9E00F0931E05E0931F05F0932005E1E0E0930A
:102FAE000705E0930805E0930905EFEFE0930A05A6
:102FBE00E1E0E0931405E5E1F5E0FA93EA93EFEF33
:102FCE00EA93A8E0B0E00E948B264AD0E1E069C304
:102FDE00AA93E881E03011F0E1E001C0E0E0E8659D
:102FEE00AE2F0DDFA4E110DF219608951A930A93F8
:102FFE00A0E0B0E01BDFA2E402DF00EB14E0F8017A
:10300E0001501040309719F0A0E2FEDEF8CFE0E05C
:10301E00F0E0FA93EA93A0E0ADD5099119910895E5
:10302E000E94CB2B30E0E0910105E03009F03FEF3C
:10303E00A0EBB4E0FBDEA2E4E2DE00E815E2F8016C
:10304E0001501040309719F0A32FDEDEF8CFE0E0EC
:10305E00F0E0FA93EA93A0E08DD50E94D22B88C5BA
:10306E00C5DFDEDF0895AA931A930A93AC81BD8162
:10307E00A034E1E0BE0718F4AB81A03F08F01BC0FE
:10308E00EC81FD81FA93EA93AD81D9DE1E2FEC819E
:10309E00E770A7E00E94922BEA1BA1E00E94E52AAE
:1030AE000E2FEA81E03011F0102B03C0E02FE095D7
:1030BE001E23A12FE0DE1981088126960895AA937A
:1030CE00A981BA81A034E1E0BE0718F4A881A03F1F
:1030DE0010F0E0E0B6C6E981FA81FA93EA93AA818C
:1030EE00AEDE6E2FE981FA81E770F070A7E0B0E0F6
:1030FE000E948F2BEA1BFB0BA1E0B0E00E94F52A89
:10310E00A62FB0E0EA23FB23309711F0E1E001C0D7
:10311E00E0E097C6AA931A93ED81FE81FA93EA93A3
:10312E00AE818DDEAE2F0E940C271E2FE981E63078
:10313E0011F0E73039F4EB81EA93AA810E94A626BA
:10314E00EB830EC0E33021F4EB81E095EB8302C0FC
:10315E00E03009F402C0E83009F402C0E93021F48D
:10316E00EA81E0951E2302C0E23029F4EA81AB81A8
:10317E00EA231E2B0EC0E13029F4EA81AB81EA234B
:10318E001E2707C0E43029F4EA81E095AB81EA2BD3
:10319E001E23A12F0E940C27AE2F6DDE18812796BD
:1031AE000895AA9329970E94C92BAF89B88DA03490
:1031BE00E1E0BE0750F4AE89A03F38F4AC89BD897A
:1031CE00109719F0AB89A03009F427C6EC89FD8958
:1031DE000E94082B4E2F4887EC89E770EB87E03072
:1031EE0019F0E885EF5FE8872C893D89EC89FD8928
:1031FE00AF89B88DAE0FBF1FA134E1E0BE0740F01E
:10320E00AF89B88DE0E4F1E0EA1BFB0BEC8BFD8B94
:10321E00EB89EA87AE89BB27EB89F0E0AE0FBF1FC3
:10322E00A13FE0E0BE0720F0AE89E0EFEA1BEB8B9A
:10323E00EF85E53011F00C949019EA89E13009F42C
:10324E00ECC5E33039F4E0911F05F091200530977D
:10325E0009F4E3C5EB85E03029F4AC89BD892A1762
:10326E003B0751F1E42FA889B989F0E0EA0FFB1F63
:10327E00EE83FF830B890030F9F0542F5F935F5F6D
:10328E00E885AF91AE1770F4EA89EA93EF81F8857D
:10329E003196EF83F8873197FA93EA93A0E00E9474
:1032AE00ED26ECCFE42FAE81BF81F0E0EA0FFB1FDD
:1032BE00EE83FF830150DFCF4B89EA85E41741F19E
:1032CE00A42FBB27E885F0E00E94252BA889B98999
:1032DE00EA0FFB1FEE83FF834F934F5FEA85AF919B
:1032EE00AE17B0F450E05F935F5FE885AF91AE1715
:1032FE0070F4EA89EA93EF81F8853196EF83F887C7
:10330E003197FA93EA93A0E00E94ED26ECCFE4CF3A
:10331E000DC0E83011F4E0E003C0E93039F4EFEF0E
:10332E00EA87EA93A8890E94A626EA87EF89E770C2
:10333E005E2FE8E0E51B4E2F4E87E42FAC89BD894A
:10334E00F0E0EA17FB0718F0EC89EE8710C050305A
:10335E0071F05D87AC89BD89199718F4EC89E41B6F
:10336E00ED87ED85F0E0EE5AF94D04900D865A93F7
:10337E00AF850E949B26EE87AB854A1718F4EB8526
:10338E00E41BEB87EB85F0E0EE5AF94D04900C86CA
:10339E00EB89E150EB8BEF5F11F40C94091B00E00D
:1033AE0010E02F89388DE889F989EE83FF8350303C
:1033BE0011F40C94A71AED85EB87AF85A53011F0AB
:1033CE000C94591AEC89FD890E171F0710F00C94F6
:1033DE00581A3A932A93A88D32DDAE2F0E940C27ED
:1033EE00AE85EA23AE2FE52F0E94ED2AE987EA8902
:1033FE00EA93AF81B885882799270E94CE261E2E84
:10340E00E52FAE850E94ED2AE095E121A985EA2BF4
:10341E00E987E42FAC89BD89F0E0EA17FB0728F4B1
:10342E00F9010E94082BB79750F0EA89EA93EF81D1
:10343E00F885FA93EA93AC850E94ED2632C0AC89EA
:10344E00BD89A01BB10B189710F4EC85EB87285F94
:10345E003F4F3A932A93A88DF2DCAE2F0E940C2791
:10346E00AB85EA23AE2FE42F0E94E52AEA87E42FEC
:10347E00AB850E94E52AE095A985EA23AA85EA2B69
:10348E00EA87EA89EA93EF81F8853196EF83F88728
:10349E003197FA93EA93AD850E94ED26085F1F4F90
:1034AE0091CF4DC0EC89FD890E171F0710F00C94BB
:1034BE00A61AEF85E83011F0E93009F40FC0EA8959
:1034CE00EA93EF81F8853196EF83F8873197662777
:1034DE007727DF01CB010E94CE26EA873A932A9303
:1034EE00E88DEA93E52FAD850E94E52AEA93EA89F5
:1034FE00EA93AC890FDEE42FAC89BD89F0E0EA17C0
:10350E00FB07E8F4F9010E94082BB797C0F4A01B43
:10351E00B10B189710F4EC85EB87285F3F4F3A9369
:10352E002A93E88DEA93E42FAD850E94ED2AEA9363
:10353E00EF85EA93AC89EEDD085F1F4FB3CF56C01F
:10354E00EE85EB87EC89FD890E171F0710F00C94A2
:10355E00FD1AAC89BD89A01BB10B189710F4EC8530
:10356E00EB87EF85E83011F0E93009F40FC0AF8535
:10357E00A53019F4AB85AF3F49F0EA89EA93AF81E4
:10358E00B885882799270E94CE26EA87AF85A53071
:10359E00C9F4EA89EA93EF81F885FA93EA933A93AC
:1035AE002A93AB8D4CDCAE2F0E940C27AE85EA23FE
:1035BE000E2EEE85E095AD85EA23E029AE2F0E9412
:1035CE00ED260AC03A932A93E88DEA93ED85EA93A5
:1035DE00EF85EA93AC899EDDEE81FF813196EE8315
:1035EE00FF83285F3F4F085F1F4FACCFEE89EF5F21
:1035FE00EE8BE885A889B989F0E0EA0FFB1FE88B0E
:10360E00F98BC6CE0AC4AA93A981E8E2EA9FF0011B
:10361E00DF01EA81F0E0AE0FBF1F08DCA2E4EFDBB2
:10362E00A881F2DB0EC4BA93AA93A881B9810E9435
:10363E00BF2B1CF0E0E0F0E034C0A881B981A034CB
:10364E00E1E0BE071CF0EFE3F1E02BC0E881F98169
:10365E0028C0BA93AA93A881B9810E94BF2B1CF0EF
:10366E00E0E0F0E01EC0A881B981A03FE0E0BE0717
:10367E001CF0EFEEF0E015C0E881F98112C0AA93BC
:10368E00E981FA81FA93EA93EA81EA93A09100051F
:10369E00EADCD7C3AA93E981E0930705E881E093BA
:1036AE00080522960895AA931A93AA81BB81A03485
:1036BE00E1E0BE0718F4A981A03F30F0E0E0F0E0B1
:1036CE0060E070E0188154C2EA81E7701E2FEA8133
:1036DE00FB810E94082BEA83FB83103019F0319690
:1036EE00EA83FB83AA81BB8188279927E981FF277B
:1036FE00662777270E942D2BEC5FFF4F6F4F7F4F72
:10370E00188136C2BA93AA9323970E94C92BE091CF
:10371E000505F09106058F01002E012A19F4E0E04F
:10372E00F0E06AC0F8010F5F1F4F04900F82F8019E
:10373E000F5F1F4F04900E82F8010F5F1F4F049012
:10374E000886EB85A885EA1718F4E0E0F0E054C08F
:10375E00F8010F5F1F4F5491E52FA885AE0FEB8533
:10376E00EA1718F0E0E0F0E047C0EF81E030E1F05A
:10377E00A985BA85EC93E695E695E6954E2FEF81F1
:10378E00E77009F04F5FA885EB85EA1BF0E0DF01DB
:10379E00EE81F0E00E94252BDF01E42FF0E00E9485
:1037AE00252BE00FF11F28C09801E52FF0E00E0F3A
:1037BE001F1FA885AF5FA887A150EB85AE17B0F489
:1037CE00F901E491E695E695E6954E2FF9012F5F06
:1037DE003F4FE491E77009F04F5FAE81BB27E42FB6
:1037EE00F0E00E94252B0E0F1F1FE3CFF901E4918D
:1037FE00A985BA85EC93F8010E94D02B2C960895DA
:10380E00E0E0F0E0E0930205F0930305A0910405DB
:10381E00BB27E0910505F09106053196E491F0E0A5
:10382E00AE0FBF1FE0910805F0E0AE0FBF1F11DF16
:10383E00E09304050895AA9321970E94C92BE09165
:10384E000505F0910605309711F40C94B61CAF8166
:10385E00AA3009F47FC0EF81EA93DE01179652DF9A
:10386E00AF01309719F40E94D02B65C1E091070586
:10387E00AE81EA0F3E2FA0910205B0910305E32F12
:10388E00F0E0EA0FFB1F8F010134E1E01E0718F094
:10389E00032F1127B5DFE0910205F0910305FA938E
:1038AE00EA93E0910405EA93E985F0E0FA93EA934E
:1038BE00E0910505F09106053196E491EA93E1E079
:1038CE00EA935A934A93A6E06CDCA0910205B0915C
:1038DE000305EE81F0E0EA0FFB1FFA93EA93E09105
:1038EE000405EA93E0910705F0E0FA93EA93E0917C
:1038FE000505F09106053196E491EA93E0E0EA932E
:10390E00E0E0F0E0FA93EA93A8E04BDCE0910205E8
:10391E00F0910305FA93EA93A0910405E091050551
:10392E00F09106053196E491EA0FEA93E32FF0E069
:10393E00FA93EA93E0910805EA93E0E0EA93E0E077
:10394E00F0E0FA93EA93A8E02CDCE0E4F1E0E01773
:10395E00F10721F455DF0E94D02BEDC04CC0AF8192
:10396E00AA3009F43EC0E0910205F09103050E94D1
:10397E00082B3E2FE0910405E695E695E6952E2F51
:10398E003A932A93A9853FDEE8E0E39FF001E093A6
:10399E000205F0930305E22FEE0FEE0FEE0FE0930C
:1039AE000405E0910205F0910305FA93EA93E09184
:1039BE000405EA93E8E0F0E0FA93EA93EA93E0E094
:1039CE00EA93E0E0F0E0FA93EA93A8E0EADBE09114
:1039DE000205F091030538968F010034E1E01E07D1
:1039EE0050F000E010E0E0910405F0E03896DF01C1
:1039FE0030DEE093040500930205109303050E9448
:103A0E00D02B99C0BA93AA931A93EC81FD81FA93A5
:103A1E00EA93AD81AFD0E981FA813196E983FA83D9
:103A2E003197E4911E2FE03019F0A12F04DFF3CF70
:103A3E00188158C2BA93AA931A93E981FA813196E2
:103A4E00E983FA833197E4911E2FE03019F0A12F0C
:103A5E00F2DEF3CF1881F5C1AA930E94CB2BAC8175
:103A6E00A530D0F5AD81BE811196AD83BE83119781
:103A7E000E94962B0E2FAD81BE811196AD83BE8313
:103A8E0011970E94962B1E2FAD81BE811196AD838C
:103A9E00BE8311970E94962B2E2FAD81BE8111965B
:103AAE00AD83BE8311970E94962B3E2FE885F98534
:103ABE00FA93EA93E985EA931A930A932A93E2E03A
:103ACE00EA93EC85FD85FA93EA93AD856ADB1A934A
:103ADE000A93A22FE8DD4BC2E0E0F0E060E070E078
:103AEE0046C2BA93AA93EB81FC81A881B9810E9448
:103AFE00A22BA881B9811296EA81F0E00E94A22B36
:103B0E00EE81FF81FA93EA93EF81EA93EE81FF81D2
:103B1E00FA93EA93EF81EA93E2E0EA93EF81F88574
:103B2E003496FA93EA93A5E03CDBEB81FC81FA93A1
:103B3E00EA93AC81B8DD28960895AA93EA81FB81B9
:103B4E00FA93EA93EB81EA93E0910A05AB81EA23BB
:103B5E0019F0E091000502C0E0910105AE2F83DA65
:103B6E00E881EE0FE883E03011F4E1E0E883E881CC
:103B7E0024960895AA93A981BA8155DDE093020592
:103B8E00F0930305A881BB2764DDE093040559C1BA
:103B9E00AA932D970E94C92BAF89B88D44DDEF8B68
:103BAE00F88FAC89BD893FDDEC8BFD8BAE89BB27D1
:103BBE0050DDEE8BAB89BB274CDDEB8BEC89FD89A1
:103BCE00E0930205F0930305EB89E0930405E1E031
:103BDE00E887EB89AE89EA1711F00C943A1E0F892B
:103BEE00188DAC89BD890A171B0739F41A930A93ED
:103BFE00E88DEA93A1E0A1DF10C1AC89BD890A1757
:103C0E001B0740F4EC89FD89E01BF10B9F01E1E0FD
:103C1E00F0E008C0AC89BD89F801EA1BFB0B9F01DF
:103C2E00EFEFFFEFE98BFA8B5E89E0E0EE83AE817A
:103C3E00AF5FAE83A150E0910905AE1740F41A9321
:103C4E000A935A935395AB8578DFEF83F0CFEF81CC
:103C5E00E887E989FA890E0F1F1FF90121503040BC
:103C6E00309711F7DAC0EC89FD89AF89B88DEA1764
:103C7E00FB0789F55E89AB895A1730F4EB89E51B92
:103C8E004E2FE1E0F0E006C0AB89E52FEA1B4E2F88
:103C9E00EFEFFFEFED87FE870F89188DE0E0EE83E3
:103CAE00AE81AF5FAE83A150E0910905AE1750F41F
:103CBE00F8010F5F1F4FFA93EA935A93AB853DDFDE
:103CCE00EF83EECFEF81E887ED855E0FE42F415055
:103CDE00E03011F7A2C0E0E0EE83AE81AF5FAE83BD
:103CEE00A150E0910905AE1710F00C94141F0F8926
:103CFE00188D5E89E1E04E2F2E2F3327AF89B88DB8
:103D0E00EC89FD89EA1BFB0BE98BFA8BAA89AA23A6
:103D1E0032F42FEF3FEF0E94D92AE98BFA8BE98913
:103D2E00FA89EE0FFF1FEF87F88BAB89BB27EE8961
:103D3E00F0E0AE1BBF0BAD87BE87AE85AA233AF46B
:103D4E004FEFED85FE850E94D92AED87FE87ED8522
:103D5E00FE85EE0FFF1FEB87FC871A930A935A938B
:103D6E00A1E0EBDEE887E0E0E987EA87E989FA89F6
:103D7E00AD85BE85EA17FB0734F1020F131FEB85E5
:103D8E00FC85A985BA85EA0FFB1FE987FA87E989C1
:103D9E00FA89A985BA85EA17FB074CF4540FAF854B
:103DAE00B889E985FA85EA1BFB0BE987FA871A932E
:103DBE000A935A93AB85C1DEE887EC89FD89E0173B
:103DCE00F107D9F623C0540FEF85F889A985BA8576
:103DDE00EA0FFB1FE987FA87ED85FE85A985BA856F
:103DEE00EA17FB0754F4020F131FAB85BC85E98558
:103DFE00FA85EA1BFB0BE987FA871A930A935A9303
:103E0E00AB859BDEE887EB89E517E9F6EE89EF5F78
:103E1E00EE8BEB89EF5FEB8B60CF0E94D02B699618
:103E2E000895AA93E0910205F0910305FA93EA939F
:103E3E00E0910405EA93EC81FD81FA93EA93AD815A
:103E4E00A7DE23960895BA93AA9322970E94C92BB0
:103E5E00A885B98514960D911C91A885B9851196E2
:103E6E002D913C91E885F9855381A885B9854C91B2
:103E7E002017310728F42E833F8398010E811F816E
:103E8E00451730F4E42FF0E0EE83FF83452F5E817B
:103E9E00F801A885B9851496ED93FC93E52FA885B6
:103EAE00B9851396EC93F901A885B9851196ED9312
:103EBE00FC93A885B9854C930E94D02B5AC0AA9327
:103ECE00EC81FD81FA93EA93ED81EA93EC81FD8119
:103EDE00AF81B885EA0FFB1FFA93EA93ED81A885AF
:103EEE00AE0F02D026960895AA930E94CB2BE09196
:103EFE000905E1502E2FDE011496A5DFE22FAD81CC
:103F0E00BE81F0E0AE1BBF0B8D01EC81E21B3E2F9C
:103F1E00E885F985FA93EA93E985EA931A930A9369
:103F2E00AC8536DE1A930A93E985EA931A930A93BF
:103F3E00A32F2EDEED81FE81FA93EA933A93E22FC0
:103F4E00AB85BC85F0E0EA0FFB1FFA93EA93A32F33
:103F5E001FDEE885F985FA93EA93EE81EA93EB8505
:103F6E00FC85FA93EA93E22FAC85AE0F11DE0E9428
:103F7E00D22B2A960895BA93AA9325970E94C92BFD
:103F8E00EE85FF85309719F0ED85E03009F489C094
:103F9E00E0910A05EE83EFEFE0930A05EB85FC85D1
:103FAE00A989BA89EA0FFB1F8F01EB85A889EA0F51
:103FBE00EA87E0910905E150EF83EE85FF85A98937
:103FCE00BA89AE0FBF1F1197AD01AB85BC85FA0143
:103FDE00EA1BFB0B9F01EF81DA01F0E0AE1BBF0B7A
:103FEE00AD01ED85A889AE0FA150A887AB85E885F8
:103FFE00EA1BE987AF81E885EA1BE8871A930A93E3
:10400E00EA89EA93F9013197FA93EA93AD89C0DD13
:10401E003A932A93EC85EA93EE85FF85FA93EA9319
:10402E00A1E80DD35A934A93EC85EA935A934A9397
:10403E00AE85A150ADDD3A932A93EB85EA93EE85DA
:10404E00FF85FA93EA93A8E8FAD23A932A93EA857F
:10405E00EA931A930A93AD859BDD1A930A93EB8527
:10406E00EA93EE85FF85FA93EA93A4E8E8D2E9890C
:10407E00FA89FA93EA93EB85EA93EC89FD89FA9330
:10408E00EA93AF8585DD1A930A93EC85EA93EE8564
:10409E00FF85FA93EA93A2E8D2D2EE81E0930A0565
:1040AE0006C0E989FA89FA93EA93AA89E8DA0E94A6
:1040BE00D02B63960895BA93AA93EA81E03011F457
:1040CE000C94EB26E881F981309711F40C94EB26D1
:1040DE00E881F9810E94672BFA93EA93EA81FB81CA
:1040EE003296A49147DDEA81E150EA83EF5F81F0D9
:1040FE00E881F9810E94672BFA93EA93EA81FB81AA
:10410E003396EA83FB8333973296A4918ADEEBCF04
:10411E000C94EB260E947F2B1A930A93AA81BB81E3
:10412E008C819D810E9450270E9465298F01F80184
:10413E00AA81BB818C819D810E94152B0E949C2996
:10414E000E94892B0E94CF29DF01CB01E0E0F0E035
:10415E0060E07FE30E94B92A10F00F5F1F4FF80155
:10416E00198108810C948926BA93AA932497EA851B
:10417E00FB85662777270E949C29A5E3BAEF8EE878
:10418E009CE30E94262A0E94752B0E94702B0E948F
:10419E001E28A885B985882799270E94862B0E94FC
:1041AE00262ADF01CB01B6DFAD85BE85AE0FBF1F60
:1041BE003ADAAE81BF81ED93FC93EC85F0E0FF938C
:1041CE00EF930E94702B0E946627A885B9858827D9
:1041DE0099270E94862B0E94262ADF01CB019ADFA7
:1041EE00AF91BF91AE1BBF0B34DAAC81BD81EC93A6
:1041FE009CC3BA93AA9323970E94C92BED85E88797
:10420E00E0910905EF83E0910005EE83EF85AB8920
:10421E00BC89F0E0EA0FFB1F8F01AA89BB27E88952
:10422E00F989AE1BBF0B9D01EA89F0E0A889B98917
:10423E00EA0FFB1FAF01E885E178E138B1F0E885C0
:10424E00E07881F5AD85BE85EAE5F0E0EA1BFB0B73
:10425E000F01DF01EB85FC85AE17BF072CF0E9855A
:10426E00FA85E015F1050CF41DC0332322F01A93E4
:10427E000A93A22F04DAAF81A23020F02230E0E0C0
:10428E003E070CF40FC01A930A93A22FA2500E945D
:10429E006618AE2FEE81EA1729F41A930A93A22F0D
:1042AE00A150EDD9E885E878E838B1F0E885E078F6
:1042BE0049F5AD85BE85A25FBE4FEB85FC85AE1779
:1042CE00BF074CF0AD85BE85A25FBE4FE985FA856E
:1042DE00EA17FB070CF416C01A930A93A42FCFD932
:1042EE00AF81A23078F01A930A93A42FAE5F0E948A
:1042FE006618AE2FEE81EA1729F41A930A93A42FAB
:10430E00AF5FBDD9EF85AB89BC89F0E0AE1BBF0BAB
:10431E008D01112312F40C94FB21E885E278E2382A
:10432E00B1F0E885E07881F5AD85BE85A65ABF4F20
:10433E00EB85FC85AE17BF074CF0AD85BE85A65A42
:10434E00BF4FE985FA85EA17FB070CF41DC033232E
:10435E0022F01A930A93A22F92D9AF81A23020F0A5
:10436E002230E0E03E070CF40FC01A930A93A22FFE
:10437E00A2500E946618AE2FEE81EA1729F41A9306
:10438E000A93A22FA1507BD9E885E478E438B1F0E6
:10439E00E885E07849F5AD85BE85EEE0F1E0EA1BF3
:1043AE00FB0B0F01DF01EB85FC85AE17BF072CF071
:1043BE00E985FA85E015F1050CF416C01A930A93F7
:1043CE00A42F5DD9AF81A23078F01A930A93A42F4F
:1043DE00AE5F0E946618AE2FEE81EA1729F41A938B
:1043EE000A93A42FAF5F4BD9E889F989AB89BC89B1
:1043FE00EA0FFB1F8F01AA89BB27EF85F0E0AE1BEA
:10440E00BF0B9D01AA89BB27EF85F0E0EA0FFB1FCA
:10441E00AF01E885E178E13881F0E885E07839F59B
:10442E00EB85FC85AD85BE85AE17BF072CF0E98503
:10443E00FA85EA17FB070CF41AC03323C2F01A935D
:10444E000A93A22F1CD9AF81A23088F0F8013296C0
:10445E00FA93EA93A22F0E946618AE2FEE81EA1706
:10446E0031F4F8013196FA93EA93A22F08D9E88530
:10447E00E878E838B1F0E885E07859F5AD85BE8585
:10448E00E8E6F1E0EA1BFB0B0F01DF01EB85FC8593
:10449E00AE17BF072CF0E985FA85E015F1050CF48F
:1044AE0018C01A930A93A42FEAD8AF81A23088F0CD
:1044BE00F8013296FA93EA93A42F0E946618AE2F53
:1044CE00EE81EA1731F4F8013196FA93EA93A42FAC
:1044DE00D6D8A889B989EB89FC89EA1BFB0B8F0119
:1044EE00112312F40C94EB22E885E278E238B1F055
:1044FE00E885E07891F5AD85BE85E4EBF0E0EA1B4A
:10450E00FB0B0F01DF01EB85FC85AE17BF072CF00F
:10451E00E985FA85E015F1050CF41FC03323EAF0A6
:10452E001A930A93A22FABD8AF81A23020F002309B
:10453E00E0E01E070CF411C0F8013297FA93EA93EB
:10454E00A22F0E946618AE2FEE81EA1731F4F80101
:10455E003197FA93EA93A22F92D8E885E478E4385B
:10456E00B1F0E885E07881F5AD85BE85AC54BF4FDE
:10457E00EB85FC85AE17BF074CF0AD85BE85AC5400
:10458E00BF4FE985FA85EA17FB070CF41DC01A9395
:10459E000A93A42F74D8AF81A23020F00230E0E04D
:1045AE001E070CF411C0F8013297FA93EA93A42F68
:1045BE000E946618AE2FEE81EA1731F4F80131979A
:1045CE00FA93EA93A42F5BD80E94D02B6596089598
:1045DE00BA93AA930E94C92BA885B985EB85FC8551
:1045EE00EA1BFB0BDF011FD88F01E885F985AB8530
:1045FE00BC85AE0FBF1F17D89F01AA85BB27EE81C2
:10460E00FF81AE1BBF0B25D85E2FEA85F0E0AE8191
:10461E00BF81AE0FBF1F1DD84E2F1A930A935A9308
:10462E003A932A93A52FB4DA1A930A934A933A939C
:10463E002A93A42FADDA0E94D02B2D960895AA931B
:10464E000E94C92BAA85BB85A034E1E0BE0718F4F1
:10465E00A985A03F20F00E94D02B0C9424292091F4
:10466E000905E22F2150E03011F40C94A423EF81C0
:10467E00F885309721F40E94D02B0C942429EF81D9
:10468E00F8853197EF83F88731963E2FE32FF0E0D0
:10469E00A5E0B0E0AE1BBF0BFD010E94FE2A0E94FA
:1046AE00032BAF0100E010E0AE81A034C1F4EA8527
:1046BE00FB85FA93EA93EB85EA931A930A93A32F59
:1046CE00BB2786DFEA85FB85FA93EA93EB85EA93AF
:1046DE00E32FF0E0FA93EA93D8017ADF14C0EA856B
:1046EE00FB85FA93EA93EB85EA931A930A933A932E
:1046FE00EC85F0E0FA93EA93E0E0F0E0FA93EA93C7
:10470E00A0E0B0E076DD0F5F1F4F552312F4F801E5
:10471E0007C03150E32FD801F0E0AE1BBF0BFD01F7
:10472E00EE0FFF1F31964E0F5F1FE32FD801F0E003
:10473E00EA17FB0708F0B8CF94CF0E94D02B0C9449
:10474E002429BA93AA93EB81FC81FA93EA93EC8124
:10475E00EA93EB81FC81FA93EA93AFE870DF0C9455
:10476E009926BA93AA930E94CB2BA985BA85A03419
:10477E00E1E0BE0718F4A885A03F10F0E0E020C0ED
:10478E00AE81BF810D911C91AC81BD812D913C916B
:10479E00D801E8E6F1E00E94602B8F01D901E9E62D
:1047AE00F1E00E94602B9F01AE81BF810D931C939F
:1047BE00AC81BD812D933C93F901D8010E941F2B32
:1047CE000E94D22B2B960895BA93AA930E94C92BBE
:1047DE00ED85FE85FA93EA93EE85EA93FE013D960A
:1047EE00FA93EA93DE011D96BCDFE03011F40C94CF
:1047FE009A24ED85FE85E0930B05F0930C05EC8570
:10480E00E0930D05ED85FE85FA93EA93EE85EA9326
:10481E00ED85FE85FA93EA93EB85FC85FA93EA9390
:10482E00EEE0F5E0FA93EA93A0E1B5E09DDCED85CC
:10483E00FE85FA93EA93EE85EA93EB85FC85FA936F
:10484E00EA93EB85FC85FA93EA93E1E1F5E0FA93BE
:10485E00EA93A3E1B5E088DC20910905E22F21500F
:10486E00E03011F40C949A24EE81FF81309709F414
:10487E005AC0EE81FF813197EE83FF8331963E2F32
:10488E00E32FF0E0A5E0B0E0AE1BBF0BFD010E94F0
:10489E00FE2A0E94032BAF0100E010E0ED85FE859D
:1048AE00FA93EA93EE85EA931A930A933A93E32FD7
:1048BE00FF27662777270E949C290E947A2BF801F2
:1048CE00662777270E949C29DF01CB010E94BD2815
:1048DE00A1EEBEE285E692E40E94262A0E94652998
:1048EE00FA93EA93EA89FB89FA93EA93AA89BB8938
:1048FE0080DC0F5F1F4F552312F4F80107C03150B3
:10490E00E32FD801F0E0AE1BBF0BFD01EE0FFF1F32
:10491E0031964E0F5F1FE32FD801F0E0EA17FB0729
:10492E0008F0BCCF9BCF0E94D02B2F960895BA9340
:10493E00AA9323971A930A93E0910905E1500E2F3B
:10494E00EC85FD85FA93EA93ED85EA93FE013C969C
:10495E00FA93EA93DE011C9604DFE03011F40C9416
:10496E002B2510910A05EFEFE0930A05EC85FD85E6
:10497E00FA93EA93ED85EA93EC85FD85FA93EA9333
:10498E00EC85FD85FA93EA93AC85BD851DDFE0E0ED
:10499E00EA83A985BA85A53BE0E0BE0708F00A8345
:1049AE00EC85FD85FA93EA93ED85EA93E0910E0589
:1049BE00F0910F05FA93EA93A0911005EF81AE1BCB
:1049CE00E7D8E0E0EA83AF81B885A53BE0E0BE071B
:1049DE0008F00A83E0911105F0911205FA93EA931B
:1049EE00A0911305EC81AE1BAA93EF85F889FA937B
:1049FE00EA93A889CDD8EC85FD85FA93EA93ED85E7
:104A0E00EA93EA85FB85AC85BD85AE0FBF1FFD0120
:104A1E00F695E795FA93EA93EA85FB85F695E79581
:104A2E00FA93EA93FE013A96FA93EA93DE011B9605
:104A3E009BDBEB81FC81FA93EA93EC81EA93A091E4
:104A4E00000586D010930A05198108812E960895C7
:104A5E00AA93E5E1F5E0FA93EA93EB81FC81FA93F0
:104A6E00EA93A8E0B0E00E947926E881E09314056D
:104A7E000C94EB26AA930E94C92BAA85BB85A03461
:104A8E00E1E0BE0718F4A985A03F20F00E94D02BCC
:104A9E000C942429EF81F885309719F0EE81E030DF
:104AAE0009F439C05985E52FAE81EA0FEE83EA8508
:104ABE00FB85AF81B885EA0FFB1FEF83F887EE8188
:104ACE005E1748F5E51B4E2F493008F048E00A8581
:104ADE001B85EF81F8850E171F07D8F4E01BF10B2D
:104AEE009F012930E0E03E0710F028E030E01A93F5
:104AFE000A935A933A932A934A93E0E0EA93E5E1B4
:104B0E00F5E0FA93EA93A7E00E94D818020F131F5C
:104B1E00E0CF540FD4CF0E94D02B0C942429AA930B
:104B2E00DE0191D9EC81FD81FA93EA93ED81EA934E
:104B3E00AF81B885EC81FD81EA1BFB0B3196FA93B0
:104B4E00EA93A885ED81EA1BEF5FAE2F93DFDAC003
:104B5E00FF92AA93E1970E94C92BA9ADBAADA034DA
:104B6E00E1E0BE0718F4A8ADA03F08F0B6C0E09192
:104B7E001405EE83AE2FEFA9EA1709F0AEC0FE01C1
:104B8E0037968F01E9ADFAADD801ED93FC930E5F28
:104B9E001F4FE8ADD801EC930F5F1F4FFE01379604
:104BAE00E017F10710F00C94742601501040D80154
:104BBE00EC91E8AF02501040D8010E94632BE9AF90
:104BCE00FAAF29AD3AAD00240216030680F43A93EB
:104BDE002A93AAAD0E9466184E2FEFA9E41719F07A
:104BEE00EE81E41709F403C021503040ECCFE89475
:104BFE00F0F8F1F8F90131969F01E034A1E0FA07DF
:104C0E0010F00C9473263A932A93AAAD0E9466185C
:104C1E004E2FEFA9E41719F0EE81E41709F45CC0EA
:104C2E003A932A93EAADEA93A9850E943A18A8AD61
:104C3E00A13038F1E8ADE1505E2F3A932A93A52FBB
:104C4E000E9466184E2FEFA9E41719F0EE81E417B3
:104C5E0009F415C0F0FC12C0FE01F7960E171F07DF
:104C6E00E0F5F901D801ED93FC930E5F1F4FE52F90
:104C7E00D801EC930F5F1F4F6894F0F802C0E894D0
:104C8E00F0F8A8ADAF3E38F5E8ADEF5F5E2F3A9382
:104C9E002A93A52F0E9466184E2FEFA9E41719F03C
:104CAE00EE81E41709F415C0F1FC12C0FE01F7966F
:104CBE000E171F0790F4F901D801ED93FC930E5FC8
:104CCE001F4FE52FD801EC930F5F1F4F6894F1F83B
:104CDE0002C0E894F1F88ECF61CF0E94D02BEB96F4
:104CEE00FF900895BA93AA9399818881009641F016
:104CFE00BD81AC81FB81EA8105900D920197E1F7B0
:104D0E00FD81EC8126960895BA93AA93B981A88164
:104D1E00109631F0FC81EB816A8161931197E9F76E
:104D2E00EB81FC8125960895AA93E881F0E0EE5A76
:104D3E00F94DA491E9810E94E52A22960895AA933D
:104D4E001A93E981E63011F0E93019F4109100055B
:104D5E0009C0E83019F41091010504C0E730A1F440
:104D6E0010911405E0910105E03049F0103019F072
:104D7E00EFEF188129C0EA81E095188125C0103027
:104D8E0019F4E0E0188120C0EA8118811DC0BA93A1
:104D9E00AA93EA81E13021F4E881F981E49114C00B
:104DAE00E23029F4A881B9810E94962B0DC0E33020
:104DBE0041F4A881B981E0911D05F0911E05099578
:104DCE0003C0A881B981EC9123960895AA93EB8133
:104DDE00E03029F4E881A981BA81EC9314C0E23065
:104DEE0031F4E881A981BA810E94AA2B0CC0E3306C
:104DFE0051F4E981FA81FA93EA93AA81E0911F05B1
:104E0E00F091200509950C94BB28AA93A991A0FBBB
:104E1E00E7F9A1FBE6F9A2FBE5F9A3FBE4F9A4FB94
:104E2E00E3F9A5FBE2F9A6FBE1F9A7FBE0F908958A
:104E3E000E947F2B7B816A81F981E88177FB770F56
:104E4E0067FD7160972F9E5781F078F0983190F43E
:104E5E00AA27BB27882708948795B795A7959A9573
:104E6E00D1F7EA23FB23682305C0E8947727EE27C2
:104E7E00FF2766276F77769508F4606877F9A99112
:104E8E00B99189919991EA17FB076807790797FB02
:104E9E0008950E947F2B0E94702B0E941F270E9454
:104EAE00752B19F40E946B2B5FC1E6F70E946B2BDA
:104EBE00A0E0B0E080E89FE30E94CF2955C10E9498
:104ECE007F2B24971A9310E0AD81BE818F81988538
:104EDE00E3E8F9EF62E27EE30E94262AED83FE8389
:104EEE006F837887AD81BE818F819885D2DFAD814A
:104EFE00BE818F8198850E94892B0E94CF29ED83D8
:104F0E00FE836F837887AD81BE818F819885E0E0C7
:104F1E00F0E060E07FE30E94B92A09F010F40C94EF
:104F2E00A727ED81FE816F817885A0E0B0E080E05B
:104F3E009FE30E94CF29ED83FE836F83788711E074
:104F4E00AD81BE818F819885E0E0F0E060E87EE380
:104F5E000E94B92A09F010F40C94BF27E0E0F0E0AB
:104F6E0060E07FE30E94CF29ED83FE836F83788715
:104F7E00103051F0ED81FE816F8178850E943029CD
:104F8E00ED83FE836F837887ED81FE816F81788557
:104F9E00AD81BE818F8198850E94262AE983FA838E
:104FAE006B837C83A1EBB4EC86E292E40E94262A0A
:104FBE00DF01CB01EDE1F5EE6DE272E40E94892B8B
:104FCE000E94CF29A981BA818B819C810E94262AB9
:104FDE00ACE4B3E584E091E40E94D629AD81BE81B4
:104FEE008F8198850E94262A7F936F93FF93EF936C
:104FFE00E981FA816B817C81A1E1BDEE8EED9FE3AB
:10500E000E94D629A981BA818B819C810E94262A71
:10501E00AEE5BBE788EA9FE30E94D629AF91BF9128
:10502E008F919F910E94742A1881299608950E944B
:10503E007F2B0E94702BEBEDFFE069EC7FE30E946B
:10504E00CF29DF01CB013BDF8FC00E947F2B24973E
:10505E00EC81FD816E817F81AC81BD818E819F81CE
:10506E000E94262A0E94752BA5E6B0ED8BEC90E4EB
:10507E000E94262AAEE4BFE88AE491E40E94D62973
:10508E00AC81BD818E819F810E94262A7F936F9372
:10509E00FF93EF930E946B2BA0E0BDE689E291E4B3
:1050AE000E94D6290E94702B0E94262AAEE4BFE8E9
:1050BE008AE491E40E94D629AF91BF918F919F917E
:1050CE000E94742A289608950E947F2B0E94702BAE
:1050DE00EDECF3E164ED7EE30E94B92A10F4B5DF46
:1050EE0043C00E94702BEAE7F2E86AE170E40E9486
:1050FE00B92A09F010F40C9498280E946B2BA0E0AA
:10510E00B0E080E89FE30E94742ADF01CB019DDFAF
:10511E00ABEDBFE089EC9FE30E94892B0E94CF2963
:10512E0023C00E946B2BA0E0B0E080E89FE30E94BA
:10513E00CF297F936F93FF93EF930E946B2BA0E089
:10514E00B0E080E89FE30E94D629AF91BF918F9186
:10515E009F910E94742ADF01CB0177DFABEDBFE098
:10516E0089E49FE30E94D629249608950E947F2BFE
:10517E002497EC81FD816E817F810E94BB2BE9F427
:10518E00E885F9856A857B850E94BB2B29F4EFEFB4
:10519E00FFEF6FE77FE751C0A885B9858A859B85AC
:1051AE000E94C32B2CF4EBEDFFE069EC7FE345C0CE
:1051BE00EBEDFFE069EC7FEB40C0EC81FD816E8191
:1051CE007F81A885B9858A859B850E94742A0E9455
:1051DE00752BAC81BD818E819F810E94C32B8CF477
:1051EE00AB85AA2322F00E94702B6EDF26C00E9490
:1051FE006B2B0E943029DF01CB0166DF0E94302924
:10520E001CC0AB85AA2382F00E946B2B0E94302912
:10521E00DF01CB0159DFABEDBFE089E490E40E94E2
:10522E00892B0E94CF2909C00E94702B4DDFABED58
:10523E00BFE089E490EC0E94D6292C960895109632
:10524E0039F080EA9FE00197F1F7A8951197C9F719
:10525E00089530976040704009F0705808955523B6
:10526E0042F4503811F4E0FF04C03196691F791FE3
:10527E006BF050E8572711F45F93CFC05F3F31F0CA
:10528E00660F000C57956795752F08955F93002054
:10529E000AF0CFC0C8C050E8192E1522880F991FEA
:1052AE009527550F879550E8072E0522660F771F15
:1052BE007527550F67950895689401C0E8945F931C
:1052CE00F2DF703818F07F3F08F4A7C056E1571B85
:1052DE00AAF4519558300EF4593030F0EFEFFFEF3D
:1052EE006FEF7FE777F91AC077275523B9F0EE0FE6
:1052FE00FF1F661F771F5A95D1F710C077275830BA
:10530E0028F0EF2FF62F672F5850F9CF552331F095
:10531E0076956795F795E7955A95D1F700200AF49B
:10532E0045D15F910895689401C0E894309760402C
:10533E007040B1F0002426F0772312F4009436D199
:10534E00172E7EE1112032F07A95EE0FFF1F661FA9
:10535E00111CF9CFEF2FF62F612D5F938ADF5F912E
:10536E0008954F93AF01FD01DA01AB01BC01CA01F3
:10537E00402D012C142E4F910895EA0FFB1F681F2C
:10538E000895E095F0956095EF5FFF4F6F4F08958C
:10539E005F9381DF903871F150E8152604C05F935A
:1053AE007ADF903839F1703821F1572F591B2BF1D4
:1053BE0012F4D7DFFACF583118F0AA27BB27882767
:1053CE00583028F0AB2FB82F88275850F9CF5523D7
:1053DE0029F08695B795A7955A95D9F7502D512551
:1053EE0072F0CBDF38F46795F795E795739513F464
:1053FE0020C0B7DF3EDF5F910895D8F7FBCFEA1BE1
:10540E00FB0B680B51F010F40094BBDF662392F394
:10541E00EE0FFF1F661F7A95CBF7EE27FF27662745
:10542E0077275F910895EFEFFFEF6FE77FEF5F91C3
:10543E000895EFEFFFEF6FE77FE75F9108955F93BA
:10544E002ADF703851F3903841F301240894791F04
:10545E0023F41CF300203AF3ECCF0F921F932F93FB
:10546E003F934F93112722279927689FA0018F9F63
:10547E00302D410D591F6B9F300D411D591F8E9FB1
:10548E0027D0BF9F25D06A9F23D0BE9F1DD0AF9F30
:10549E001BD0AE9F110D291F391F491F591FE32F16
:1054AE00F42F652F522F4F913F912F911F910F90F7
:1054BE0066232AF0550FEE1FFF1F661F02C073955D
:1054CE004BF2CDDE5F910895100D211D391F02C0E4
:1054DE00200D311D491F591F08955F93DCDE703872
:1054EE0021F411200AF49FCFA4CF903809F495CF60
:1054FE0001240894970B1BF4D4F30020F3CF792FDB
:10550E001F932F933F934F93112411272227332755
:10551E004427552790E2AE17BF078607410730F0A4
:10552E00AE1BBF0B860B410B089401C08894551F10
:10553E00221F331F111CAA1FBB1F881F441F9A95C1
:10554E0051F7F901612D4F913F912F911F916623D4
:10555E0032F0550FEE1FFF1F661F7A9543F27FDE66
:10556E005F91089599239AF0772342F0971748F0A8
:10557E0029F4AE17BF07860720F031F0989488946F
:10558E00089598940894089518948894089577230C
:10559E00C2F7971798F3A9F7EA17FB07680788F37E
:1055AE0099F3ECCFF195E195F0400895F095609563
:1055BE007095E195FF4F6F4F7F4F0895EE230E2E9E
:1055CE00EA2F19F0EE0F0A94E9F70895EE230E2E46
:1055DE00EA2F19F0E6950A94E9F70895EE230E2EB8
:1055EE00FD0121F0EE0FFF1F0A94E1F70895EE0F73
:1055FE00FF1FEE0FFF1F0895F595E795F595E795BB
:10560E000895F695E795F695E795F695E79508953D
:10561E00FE2FFF0FFF0B6F2F7F2F08956F2F660F3B
:10562E00660B762F08958B2F880F880B982F089571
:10563E00EA17FB07E1E008F4EE270895FA9FF02D34
:10564E00EB9FF00DEA9FE02DF10D08957A9F702DDE
:10565E006B9F700DF89F700DE99F700D6A9F602D06
:10566E00710DFB9F600D711DE89F600D711D8827E8
:10567E00FA9FF02D610D781FEB9FF00D611D781FC5
:10568E00EA9FE02DF10D681F781F08950024112464
:10569E0090E1AA0FBB1F001C111C0E1A1F0A18F452
:1056AE000E0E1F1E01C0A1609A9599F7FD01D00143
:1056BE000895ECDFFD010895ED91FC911197089589
:1056CE000590F491E02D0895E881F9816A817B813E
:1056DE000895A881B9818A819B810895E883F98311
:1056EE006A837B8308957A936A93FA93EA93089573
:1056FE009A938A93BA93AA930895689401C0E894F2
:10570E0001D014DE182E862F612D192E972F712D94
:10571E001B2EBF2FF12D1A2EAE2FE12D0895E199DC
:10572E00FECFFF93FFB7F894AEBBBFBBE09AEDB3CD
:10573E00FFBFFF91089507D01196EF93EF2F03D07F
:10574E00EF9111970895E19B02C0A895FCCF9FB7EA
:10575E00F894AEBBBFBBE09A8DB3E81719F0EDBB62
:10576E00E29AE19A9FBF0895309760407040089585
:10577E0000240A160B06089500240A160B060806C6
:10578E00090608955A934A933A932A931A930A93C1
:10579E0008955D814C813B812A811981088108958C
:00000001FF
