:020000000C945E
:1000020094030C9400000C9400000C9400000C94D7
:1000120000000C9400000C9400000C9400000C945E
:1000220000000C9400000C9400000C9400000C944E
:1000320000000C9400000C94E1030C9400000C945A
:1000420000000C9400000C9400000C9400000C942E
:1000520000000C9400000C9400000C9400000C941E
:1000620000000C9400000C9400000C9400000C940E
:1000720000000C9400000C9400000C9400000C94FE
:1000820000000C9400000C9400000C9400000C94EE
:1000920000000C9400000C9400000C9400000C94DE
:1000A20000000C9400000C9400000C9400000C94CE
:1000B20000000C9400000C9400000C9400000C94BE
:1000C20000000C9400000C9400000C9400000C94AE
:1000D20000000C9400000C9400000C9400000C949E
:1000E20000000C9400000C9400000C9400000C948E
:1000F20000000C9400000C9400000C9400000C947E
:1001020000000C9400000C9400000C9400000C946D
:1001120000000C9400000C9400000C9400000C945D
:1001220000000C9400000C9400000C9400000C944D
:1001320000000C9400000C9400000C9400000C943D
:1001420000000C9400000C9400000C9400000C942D
:1001520000000C9400000C9400000C9400000C941D
:1001620000000C9400000C9400000C9400000C940D
:1001720000000C9400000C9400000C9400000C94FD
:1001820000000C9400000C9400000C9400000C94ED
:1001920000000C9400000C9400000C9400000C94DD
:1001A20000000C9400000C9400000C9400000C94CD
:1001B20000000C9400000C9400000C9400000C94BD
:1001C20000000C9400000C9400000C9400000C94AD
:1001D20000000C9400000C9400000C9400000C949D
:1001E20000000C9400000C9400000C9400000C948D
:1001F2000000050720600000000000000004040465
:10020200040400040A0A0A000000000A0A1F0A1F66
:100212000A0A041E050E140F040313080402191817
:10022200060905021509160604020000000008046A
:10023200020202040802040808080402000A041F59
:10024200040A000004041F04040000000000060465
:10025200020000001F00000000000000060600006F
:100262001008040201000E11191513110E040604E0
:100272000404040E0E11100804021F1F08040810C3
:10028200110E080C0A091F08081F010F1010110E89
:100292000C02010F11110E1F1008040202020E11AE
:1002A200110E11110E0E11111E1008060006060085
:1002B20006060000060600060402100804020408EE
:1002C2001000001F001F0000010204080402010EBA
:1002D2001110080400040E11101615150E0E11113E
:1002E200111F11110F11110F11110F0E1101010127
:1002F200110E070911111109071F01010F01011F39
:100302001F0101070101010E11010119110E111145
:10031200111F1111110E04040404040E1C08080814
:10032200080906110905030509110101010101016D
:100332001F111B1511111111111113151911110E84
:1003420011111111110E0F11110F0101010E1111D5
:10035200111509160F11110F0509111E01010E10B9
:10036200100F1F0404040404041111111111110EC1
:1003720011111111110A0411111115151B1111116D
:100382000A040A111111110A040404041F100804BA
:1003920002011F1C04040404041C000102040810CE
:1003A2000007040404040407040A1100000000000A
:1003B20000000000001F0204080000000000000E00
:1003C200101E111E01010D1311110F00000E01016B
:1003D200110E1010161911111E00000E111F010E20
:1003E2000C12020702020200001E111E100C010173
:1003F2000D131111110400060404040E08000C0868
:100402000809060202120A060A1206040404040477
:100412000E00000B1515111100000D131111110022
:10042200000E1111110E00000F110F010100001634
:10043200191E101000000D1301010100000E010E23
:10044200100F0202070202120C00001111111916FC
:1004520000001111110A040000111115150A000003
:10046200110A040A11000011111E100E00001F08CB
:1004720004021F080404020404080404040404041B
:100482000402040408040402021508000000001F0C
:1004920011111111111F2E052F053B05460553059C
:1004A2005E056905790583058C059E05B105C205C2
:1004B200D105E205F20520222A2B2C5B3D5D7C7FD3
:1004C2000000000400020001800040002000100033
:1004D200080004000200000000800040002000101C
:1004E2000008004000200010000800040002000183
:1004F20003070F1F3F7FFF00000000000000202ABB
:1005020058041A7E27221215E325221215031027FA
:10051200E80364000A00010000100001100001005D
:10052200303A2F696D6167652E62696E0046525FCF
:100532004449534B5F4552520046525F494E545F05
:100542004552520046525F4E4F545F524541445904
:100552000046525F4E4F5F46494C450046525F4E41
:100562004F5F504154480046525F494E56414C49F4
:10057200445F4E414D450046525F44454E49454415
:100582000046525F45584953540046525F494E5601
:10059200414C49445F4F424A4543540046525F57DB
:1005A200524954455F50524F5445435445440046C6
:1005B200525F494E56414C49445F445249564500A8
:1005C20046525F4E4F545F454E41424C45440046B1
:1005D200525F4E4F5F46494C4553595354454D0067
:1005E20046525F4D4B46535F41424F525445440081
:1005F20046525F54494D454F5554004552524F5251
:100602003A20004552524F523A2042756666657250
:1006120020756E646572666C6F7700536F6C6F6DD8
:100622006F6E20537973746563682053534431327B
:1006320038392047726170686963732044656D6F51
:100642000A446973706C617920616E20696D61671B
:10065200652073746F72656420696E20612062691F
:100662006E6172790A66696C65206F6E2061205333
:100672004420636172642E0A0A004C6F67696361E9
:100682006C20647269766520303A206D6F756E74E5
:100692006564204F4B2E0A00496D616765206669CB
:1006A2006C65206F70656E6564204F4B2E0A0044A6
:1006B2006973706C6179696E6720696D6167652025
:1006C20066726F6D20534420636172643A0A0000BF
:1006D2000100EBFE904D53444F53352E30004E4FE8
:1006E200204E414D452020202046415433322020C7
:1006F20020004E4F204E414D45202020204641549F
:1007020020202020200001002D4E414E00494E465F
:1007120000000C007D28220501008E2AD20601006D
:10072200972A08070000F894EE27E8BFE9BFEABF5E
:10073200F091CC01F860F093CC01F8EDF4BFE093B6
:10074200A200E0934004A0918000AD7FA160F4BFBD
:10075200A093800080E090E2A0E0B0E2ED930197E8
:10076200E9F7E4E1F7E085919591009761F0A591B1
:10077200B59105901590BF01F00105900D9201977A
:10078200E1F7FB01F0CF8BBFE0E0E0B9E1B9E2B9FC
:10079200E3B9E4B9E5B9E6B9E7B9E8B9E9B9EAB95B
:1007A200EBB9ECB9EDB9EEB9EFB93E2E4E2E5E2E95
:1007B200EFEFEDBFEFE3EEBFC0E0D4E20C947A04BA
:1007C2000A921A92FA926A937A938A939A93AA93C2
:1007D200BA93EA93FA93EFB7EA93C3D6E991EFBFDC
:1007E200F991E991B991A991999189917991699137
:1007F200F990199009901895AA93A881A13010F048
:10080200A03108F010C0ADEFB5E00E941126E881DA
:10081200A8E9B4E0F0E0EE0FFF1FEA0FFB1F0E9411
:100822002A280E941126FFCFBA93AA9324971A93DB
:100832000A93EE81FF8166277727E070FE7FEA83C5
:10084200FB836C837D8300240414050459F0A0917A
:100852008A28B0918B2880918C2890918D280E94B3
:10086200AD2899F1EDE5F6E2FA93EA93AC81BD8108
:100872008E819F810E94931CEDE5F6E2FA93EA9342
:10088200EEE8F8E2FA93EA93E0E0F2E0FA93EA9310
:10089200ADB7BEB711975F924F920E94B0194F90B9
:1008A2005F90A0E00E94A2273E2EE03011F0A32D1F
:1008B200A3DFEA81FB816C817D81E0938A28F0933A
:1008C2008B2860938C2870938D28EE81FF81F170C4
:1008D2008F010415150528F0A5E0B6E00E94112647
:1008E200FFCFAEE8B8E2A00FB11FEC9119810881E9
:1008F2009DC46697C8D0D5D013D1E4EFF1E0E88368
:10090200F983E5E1F4E0EA83FB83E0E0EC83ED8345
:10091200EE81E160EE83ED7FEE83E460EE83E77CBF
:10092200E062EE83EF81E07FEA60EF83EF78E062DE
:10093200EF83E885E87FE887E778E865E887E98577
:10094200E07EE460E987EA85E07EEA61EA87EB859A
:10095200E07FEE60EB87E067EB87EC85E760EC8792
:10096200E77CE062EC87ED85E87FE260ED87E77C7B
:10097200E062ED87EE85E87FE260EE87E77CE0618A
:10098200EE87EF85E87FE560EF87E778E061EF8744
:10099200E889E07EE360E88BE06EE88BE989E87F36
:1009A200E560E98BE77CE062E98BEA89E87FE26057
:1009B200EA8BE77CE062EA8BEB89E87FE260EB8B13
:1009C200E77CE061EB8BEC89E87FE560EC8BE77814
:1009D200E061EC8BED89E07EE360ED8BDE010E944D
:1009E2003D22ADE1B6E00E9411267894D0D5E030E8
:1009F20011F4A3E001DFE0E0EA93ABE2B4E20E948B
:100A020023183E2EE03029F4ACE7B6E00E9411260E
:100A120002C0A32DF1DEEDE5F6E2FA93EA93EDE7EB
:100A2200F8E2FA93EA93A1E00E9455183E2EE030D4
:100A320029F4AAE9B6E00E94112602C0A32DDCDE49
:100A4200A1EBB6E00E9411260E944B25A2E0EA9F8C
:100A5200F001A0910B24B0910C24EA0FFB1F8F012F
:100A620044245524EAE0EA931A930A93E0E0F0E082
:100A7200FA93EA93A0E00E942426ADE5B6E20E9432
:100A8200801CFFCFFFCF1A93E091A200E873E160D0
:100A92001E2FE8EDE4BF1093A200E0E0E093A10076
:100AA20074C51A930A930FB7F894E0915000E4606A
:100AB200E0935000E0915100E470E1F3E0915000C6
:100AC200E260E0935000E0914100E0781E2FE8EDF3
:100AD200E4BF10934100E0915600EC7FE093560092
:100AE200E0916000E160E0936000E0915100E2700B
:100AF200E1F3E0914000E87FE1601E2FE8EDE4BF02
:100B020010934000E0915000E67EE0935000E091A7
:100B1200B400EC7FE093B4000FBF099119910895DE
:100B2200E0910008E07FE260E0930008E0910108B4
:100B3200E870E0930108E0910308E071E093030894
:100B4200E0910608E07FE160E0930608E091070883
:100B5200E070E0930708E0919008EE7FE093900840
:100B6200E0910C08E0930C08E0E0F0E0E09320084C
:100B7200F0932108EFE3FCE9E0932608F0932708BD
:100B82000895AA930E940E2720E00C81AD81BE81B8
:100B92003D91AD83BE8318E0220FE22FE327E07878
:100BA20011F0E9E02E27330F1150B1F7015071F720
:100BB200E22FEE0FE1600E94152792C51A93E2E33D
:100BC200E093902AEFEFE093C30BE091C20BE07841
:100BD200E1F3EFEFE093C30BE091C20BE078E1F3B6
:100BE2001091C30B1F3F21F0E091902AE03009F4ED
:100BF20001C0EFCFE12FC9C4E0E1E093A506EFEF1A
:100C0200E093C30BE091C20BE078E1F30895BA934D
:100C1200AA930E940E27E4E1E0938F2AEFEFE0937C
:100C2200C30BE091C20BE078E1F31091C30B1F3FBD
:100C320021F4E0918F2AE03009F401C0EFCF1E3F8A
:100C420021F0E0E00E941527F1C22E813F81EFEFF3
:100C5200E093C30BE091C20BE078E1F33F932F9353
:100C62002F5F3F4FE091C30BAF91BF91EC93EFEF3A
:100C7200E093C30BE091C20BE078E1F33F932F9333
:100C82002F5F3F4FE091C30BAF91BF91EC93EFEF1A
:100C9200E093C30BE091C20BE078E1F33F932F9313
:100CA2002F5F3F4FE091C30BAF91BF91EC93EFEFFA
:100CB200E093C30BE091C20BE078E1F33F932F93F3
:100CC2002F5F3F4FE091C30BAF91BF91EC93EC814B
:100CD200FD813497EC83FD8309F0B9CFEFEFE09308
:100CE200C30BE091C20BE078E1F3EFEFE093C30BAB
:100CF200E091C20BE078E1F3E1E00E94152796C291
:100D0200AA930E940E275ADFEF3F21F0E0E00E94F3
:100D12001527E6C4EC81E093C30BE091C20BE078A7
:100D2200E1F3AC81AD3FC1F100E02D813E81D901FB
:100D32002F5F3F4FEC91E093C30BE091C20BE07841
:100D4200E1F3D9012F5F3F4FEC91E093C30BE091A8
:100D5200C20BE078E1F3015051F7EFEFE093C30BE0
:100D6200E091C20BE078E1F3EFEFE093C30BE09187
:100D7200C20BE078E1F3EFEFE093C30BE091C20B1B
:100D8200E078E1F31091C30BE12FEF71E53021F030
:100D9200E0E00E941527A4C4E1E00E941527A0C448
:100DA2000E9446281A930A93EE81E07881F0EE8140
:100DB200EF77EE83E7E7EA93A0E0B0E080E090E02F
:100DC200EFDF0E2F023018F01981088189C4AE813D
:100DD200AC3459F011DFE0E1E093A606EFDEEF3F1D
:100DE20021F0EFEF198108817BC4EE81E093C30B00
:100DF200E091C20BE078E1F3ED81E093C30BE09167
:100E0200C20BE078E1F3EC81E093C30BE091C20BFB
:100E1200E078E1F3EB81E093C30BE091C20BE07861
:100E2200E1F3EA81E093C30BE091C20BE078E1F3D6
:100E320011E0AE81A03411F415E904C0AE81A834EA
:100E420009F417E81093C30BE091C20BE078E1F3C9
:100E5200AE81AC3439F4EFEFE093C30BE091C20BF7
:100E6200E078E1F31FEFEFEFE093C30BE091C20BE9
:100E7200E078E1F30091C30B07FF02C0115009F4BF
:100E820001C0F1CFE02F198108812AC4BA93AA9335
:100E92001A9314E0EFEFE093C30BE091C20BE078FA
:100EA200E1F3A981BA811196A983BA831197E091DE
:100EB200C30BEC93115071F758C5AA9324970E9463
:100EC2000E27E885E03011F0E1E0C9C0EAE0E093E6
:100ED2008F2AE0918F2AE030E1F7E0918E2AE270CA
:100EE20009F0BBC0E0E1E093A106E093A506E0EAC9
:100EF200E093A606E0E4E093A206E8E1E093B606FA
:100F0200E0EBE093A106E3E5E093C00B35E01AE0E5
:100F1200EFEFE093C30BE091C20BE078E1F31150E5
:100F2200B9F7E0E4EA93A0E0B0E080E090E038DFD7
:100F32000E2F3150013011F0303009F401C0E7CFEB
:100F420030E0013009F068C0E4E6E0938F2AE8E47B
:100F5200EA93AAEAB1E080E090E022DFE13091F585
:100F6200DE01149693DFAE81A13019F4AF81AA3A63
:100F720009F027C0E0918F2AE03049F0E9EEEA93C8
:100F8200A0E0B0E080E090E40BDFE03009F401C0C3
:100F9200F1CFE0918F2AE03049F0EAE7EA93A0E04E
:100FA200B0E080E090E0FCDEE03009F00AC0DE0153
:100FB20014966CDFEC81E07411F0ECE001C0E4E027
:100FC2003E2F2AC0E9EEEA93A0E0B0E080E090E094
:100FD200E7DEE23018F432E009EE02C031E001E46B
:100FE200E0918F2AE03041F00A93A0E0B0E080E087
:100FF20090E0D6DEE03009F401C0F2CFE0918F2A12
:10100200E03049F0E0E5EA93A0E0B2E080E090E071
:10101200C7DEE03009F030E03093912AEDDD303068
:1010220049F0E0918E2AEE7FE0938E2AE0EDE09384
:10103200C00B13C0E0E1E093A606C0DDDDDDE0E019
:10104200E093C00BE0EFE093A206E0E1E093A2069A
:10105200E0918E2AE160E0938E2AE0918E2A0E942E
:10106200152729960895AA93E881E03011F0E1E06E
:1010720002C0E0918E2A21960895AA93EF81E03072
:1010820019F4E881E03011F4E4E0D0C0E0918E2A56
:10109200E17011F0E3E0CAC0E091912AE87071F4C6
:1010A200E981FA816B817C81A0E0B2E080E090E08E
:1010B2000E94B427E983FA836B837C83A881A130E1
:1010C200A9F4E1E5EA93AA81BB818C819D8168DE66
:1010D200E03059F4ED81FE81FA93EA93A0E0B2E0A8
:1010E20096DDE03011F0E0E0E88323C0E2E5EA9328
:1010F200AA81BB818C819D8153DEE030D1F4ED81E8
:10110200FE81FA93EA93A0E0B2E081DDE03051F093
:10111200ED81FE81E050FE4FED83FE83E881E150D8
:10112200E88369F7ECE4EA93A0E0B0E080E090E0C5
:1011320037DE62DDE881E03011F0E1E001C0E0E09D
:1011420075C0AA93EF81E03019F4E881E03011F420
:10115200E4E06CC0E0918E2AE17011F0E3E066C039
:10116200E0918E2AE47011F0E2E060C0E091912AF1
:10117200E87071F4E981FA816B817C81A0E0B2E0D0
:1011820080E090E00E94B427E983FA836B837C833A
:10119200A881A130A1F4E8E5EA93AA81BB818C8100
:1011A2009D81FEDDE03051F4ED81FE81FA93EA93F8
:1011B200AEEFA6DDE03011F0E0E0E88330C0E09170
:1011C200912AE67039F0E7EDEA93A981BB278827D7
:1011D2009927E6DDE9E5EA93AA81BB818C819D81AD
:1011E200DFDDE030E1F4ED81FE81FA93EA93ACEFCA
:1011F20087DDE03051F0ED81FE81E050FE4FED835E
:10120200FE83E881E150E88371F7E0E0F0E0FA93D1
:10121200EA93ADEF75DDE03011F4E1E0E883ECDC58
:10122200E881E03011F0E1E001C0E0E028960895A5
:10123200BA93AA9360970E940E27EF89E03011F0CB
:10124200E4E08BC1E0918E2AE17011F0E3E085C108
:1012520011E0EE89E03041F4E0E1E093A606AEDC75
:10126200EF3F09F410E077C1E13009F05BC0E9E437
:10127200EA93A0E0B0E080E090E092DDE03049F453
:10128200FE013496FA93EA93A0E1B0E0C0DCE030CC
:1012920009F447C0EC81E295EF70E695E695E130FE
:1012A20069F4E0E0FC85AD85B0E0EA0FFB1F319602
:1012B2009F01D90188279927EAE02CC0E985EF70C0
:1012C200AE2FEE85E078EE1FE0E0EE1FAE0FED856B
:1012D200E370EE0FEA0FEE5F0E2FEC85E295EF70F2
:1012E200E695E695AE2FEB85F0E00E947B27B0E015
:1012F200AE0FBF1FEA85E370F0E00E947B27FE2F4E
:10130200E0E0EA0FFB1F31969F01D9018827992758
:10131200E02FE9500E944927AC89BD890E9420280C
:1013220010E019C1E23041F4AC89BD89E0E0F2E09D
:10133200ED93FC9310E00FC1E33009F0AFC0E091F0
:10134200912AE470A1F1EDECEA93A0E0B0E080E034
:1013520090E026DDE03051F5EFEFE093C30BE09132
:10136200C20BE078E1F3FE013496FA93EA93A0E12E
:10137200B0E04DDCE030D1F000E3003049F0EFEFB7
:10138200E093C30BE091C20BE078E1F30150F5CF9B
:10139200EE85E295EF70A0E1B0E080E090E00E947F
:1013A2004927AC89BD890E94202810E076C0E9E473
:1013B200EA93A0E0B0E080E090E0F2DCE03009F0F7
:1013C2006CC0FE013496FA93EA93A0E1B0E01FDC10
:1013D200E03009F462C0E091912AE27051F1EE85A9
:1013E200EF73FF27662777270E9489277F936F93E2
:1013F200FF93EF93EF85E078FF2766277727DF01DA
:10140200CB01E7E00E946027AF91BF918F919F913E
:101412000E941A27EF5FFF4F6F4F7F4FDF01CB0113
:10142200E989E295EF70E695E695E1500E94492739
:101432002FC0EE85EC77E695E695FF27662777279E
:10144200EF5FFF4F6F4F7F4F7F936F93FF93EF934A
:10145200EF85E370FF2766277727DF01CB01E3E003
:101462000E944927DF01CB01EF85E07EE295EF7014
:10147200E695FF27662777270E941A27EF5FFF4F1F
:101482006F4F7F4FAF91BF918F919F910E94B42771
:10149200AC89BD890E94202810E05DC0EA3039F491
:1014A200E091912AAC89BD89EC9310E054C0EB30F5
:1014B20011F409E403C0EC3001F50AE40A93A0E058
:1014C200B0E080E090E06CDCE030B1F4EC89FD89C2
:1014D200FA93EA93A0E1B0E09ADBE03069F0EC899C
:1014E200FD89FA93EA93AFE04CDBAE2FEC89FD89DC
:1014F200E785EA1709F410E02EC0ED3071F4EAE74F
:10150200EA93A0E0B0E080E090E04ADCE03021F431
:10151200AC89BD89BBDC10E01EC0EE30D9F4EDEC25
:10152200EA93A0E0B0E080E090E03ADCE03089F4B9
:10153200EFEFE093C30BE091C20BE078E1F3EC89AB
:10154200FD89FA93EA93A0E4B0E061DBE03009F0B0
:1015520010E001C014E050DBE12F0E9415276896CD
:1015620008951A9310918F2A103019F01150109388
:101572008F2A1091902A103019F011501093902A4E
:10158200E0918E2AEB7FE0938E2A1991089560975D
:10159200E0918E2AE17021F0A0E08FDCE37081F40B
:1015A200E0E0EA93ECE0EA93DE01129641DEE030FD
:1015B20039F4E0918E2AEC7FE0938E2AE1E006C0B6
:1015C200E0918E2AE360E0938E2AE0E0609608952F
:1015D2002797A0910024B0910124109731F0A09197
:1015E2000224B0910324109729F4E0E0F0E061E2D4
:1015F2007AE376C0FE013696FA93EA93FE013796B5
:10160200FA93EA93DE011896E0910024F091012406
:101612000995FE013396FA93EA93FE013496FA9302
:10162200EA93DE011496E0910224F09103240995D5
:10163200E881F981EC5BF74066277727DF01CB0170
:10164200E9E10E9449277F936F93FF93EF93EA8129
:10165200F0E00E949827DF01CB01E5E10E944927D3
:10166200AF91BF918F919F910E943327DF01CB01F0
:10167200EB81F0E00E9498270E9493270E94332773
:101682007F936F93FF93EF93EE81F0E00E94982790
:10169200DF01CB01EBE00E944927AF91BF918F910F
:1016A2009F910E9433277F936F93FF93EF93ED8176
:1016B200F0E00E949827DF01CB01E5E00E94492774
:1016C200AF91BF918F919F910E943327DF01CB0190
:1016D200EC81F0E0F595E7950E9498270E94332768
:1016E20027960895AA931A93EA81FB81E4911E2F0B
:1016F200E03019F0E981E11709F406C0EA81FB81C3
:101702003196EA83FB83F0CFE12FF0E01881249633
:1017120008950E94462824971A93A985BA859E9611
:101722000E941B28E983FA836B837C83ED81FE810F
:101732006F817885A981BA818B819C810E94AD28B5
:1017420009F483C0E985FA85E481E03009F456C0E2
:10175200E985FA85A181AA93EA85FB85F296FA9337
:10176200EA93EC81FD816E817F810E944128A1E094
:10177200E8DCE03009F05CC0A985BA851496E0E0A7
:10178200EC93E985FA85A2A1B3A184A195A10D01EB
:10179200A985BA855A960E941B28D0010E941A2751
:1017A200A981BA818B819C810E94B22838F5E98592
:1017B200FA851381123010F1A985BA855A960E94D2
:1017C2001B28A981BA818B819C810E941A27E983F7
:1017D200FA836B837C83E985FA85A181AA93EA85E2
:1017E200FB85F296FA93EA93EC81FD816E817F810B
:1017F2000E944128A1E0A5DC1150DCCFED81FE81E1
:101802006F8178850E949F2801F1E985FA85A1817F
:10181200AA93EA85FB85F296FA93EA93E885F9851D
:101822006A857B850E944128A1E027DCE03021F017
:10183200E1E018812B960895ED81FE816F81788514
:10184200A985BA859E960E942028E0E01881F0C6FC
:10185200BA93AA931A93E981FA81FA93EA93A0E0E0
:10186200B0E080E090E055DF1E2F103009F07CC020
:10187200A981BA81AC91A33029F4E981FA81E58189
:10188200E03009F465C0A981BA819E96E0E0F0E0FB
:1018920060E070E00E942028E981FA81F296FA93D2
:1018A200EA93E0E0EA93A0E0B2E00E94BE26E9817A
:1018B200FA81F296E250FE4FA5E5BAEAA083B1831F
:1018C200E981FA81F296A2E5B2E581E691E40E940D
:1018D2003C28E981FA81F296EC51FE4FA2E7B2E789
:1018E20081E491E60E943C28E981FA81F296E8516E
:1018F200FE4F0F01A981BA811E960E941B28D001BA
:101902000E942028E981FA81F296E451FE4F0F01EC
:10191200A981BA811A960E941B28D0010E94202810
:10192200E981FA81A181AA93EA81FB81F296FA9375
:10193200EA93EC81FD81A289B389848995890E9409
:101942004628A1E0FEDBA981BA811596E0E0EC937E
:10195200E981FA81A181AA93E0E0EA93A0E0B0E0F4
:1019620067DCE03009F011E0E12F18812396089539
:101972000E94462824970E940E27A885B9858A8549
:101982009B85A230E0E0BE07E0E08E07E0E09E0724
:1019920060F0AC85BD855E960E941B28A885B9853E
:1019A2008A859B850E94B22828F0E1E0F0E060E0A1
:1019B20070E0C2C0AC85BD8592960E941B28EC8364
:1019C200FD836E837F83AC85BD85EC91F0E0E130D1
:1019D200A0E0FA0709F054C028853985F901F69587
:1019E200E7952E0F3F1FEC85FD85FA93EA93D90107
:1019F200E0E0F2E00E94DA27AE81BF818885998516
:101A0200662777270E941F2784DEE03009F090C006
:101A1200AC85BD85D296F901F170AE0FBF1F0C9156
:101A220011272F5F3F4FEC85FD85FA93EA93D90189
:101A3200E0E0F2E00E94DA27AE81BF8188859985D5
:101A4200662777270E941F2764DEE03009F070C006
:101A5200AC85BD85D296F901F170AE0FBF1FEC9136
:101A6200FE2FE0E00E2B1F2BE885E17021F0F8013C
:101A72000E94802702C0F801FF70662777275CC0AA
:101A8200E230A0E0FA0739F5EC85FD85FA93EA9396
:101A9200AA85BB858C859D85E0E0F1E060E070E081
:101AA2000E94ED27AE81BF81888599850E941F27FC
:101AB20030DEE030E9F5A885B985E2E00E94D4275E
:101AC200F170AC85BD85D296AE0FBF1F0E94112862
:101AD2006627772731C0E330A0E0FA0749F5EC85A5
:101AE200FD85FA93EA93AA85BB858C859D85E0E8FE
:101AF200F0E060E070E00E94ED27AE81BF81888552
:101B020099850E941F2705DEE03091F4A885B985EA
:101B1200E4E00E94D427F170AC85BD85D296AE0F69
:101B2200BF1F0E941528EF7FFF7F6F7F7F7004C069
:101B3200EFEFFFEF6FEF7FEF0E9415272E960895CC
:101B42000E94462824970E940C27AE85BF8588896B
:101B52009989A230E0E0BE07E0E08E07E0E09E0750
:101B620060F0AA89BB895E960E941B28AE85BF855C
:101B7200888999890E94B22810F052E0EEC0AA89A1
:101B8200BB8992960E941B28EE83FF836887798720
:101B9200AA89BB89EC91F0E0E130A0E0FA0709F0F4
:101BA2007BC00E851F85F801F695E7950E0F1F1F66
:101BB200EA89FB89FA93EA93D801E0E0F2E00E9415
:101BC200DA27A885B9858A859B85662777270E94AB
:101BD2001F279FDD5E2F503009F0BAC0AA89BB894A
:101BE200D296F801F170EA0FFB1F9F01EE85E170BA
:101BF20051F0D901EC91EF70AE2FEA85F0E00E942E
:101C02007727EA2B01C0EA85D901EC930F5F1F4FBA
:101C1200AA89BB891496E1E0EC93EA89FB89FA93DD
:101C2200EA93D801E0E0F2E00E94DA27A885B985BC
:101C32008A859B85662777270E941F276ADD5E2F8C
:101C4200503009F085C0AA89BB89D296F801F1709B
:101C5200EA0FFB1F9F01EE85E17059F0AA85BB8553
:101C62008C859D85E4E00E946027FF276627772701
:101C720010C0D901EC91E07F4E2FAA85BB858C85DF
:101C82009D85E8E00E946027FF2766277727EF708F
:101C9200E42BD901EC935CC0E230A0E0FA0749F5ED
:101CA200EA89FB89FA93EA93A889B9898A899B8987
:101CB200E0E0F1E060E070E00E94ED27A885B985E0
:101CC2008A859B850E941F2724DD5E2F503009F0F4
:101CD2003FC0AE85BF85E2E00E94D427F170AA8999
:101CE200BB89D296EA0FFB1FAA85BB85A083B1836D
:101CF2002FC0E330A0E0FA0751F5EA89FB89FA9395
:101D0200EA93A889B9898A899B89E0E8F0E060E0D2
:101D120070E00E94ED27A885B9858A859B850E947F
:101D22001F27F7DC5E2F503099F4AE85BF85E4E0C3
:101D32000E94D427F170AA89BB89D296EA0FFB1FB1
:101D4200AA85BB858C859D850E943C2801C052E0F6
:101D5200AA89BB891496E1E0EC93E52F0E94132730
:101D6200649608950E94462824971A93AD81BE81F5
:101D72008F819885A230E0E0BE07E0E08E07E0E0C8
:101D82009E0760F0A985BA855E960E941B28AD81E8
:101D9200BE818F8198850E94B22810F012E074C033
:101DA20010E0A985BA855E960E941B28AD81BE818E
:101DB2008F8198850E94B22808F066C0E985FA856D
:101DC200FA93EA93AF81B88589859A85D1DDE98353
:101DD200FA836B837C830E949F2809F455C0A981F2
:101DE200BA818B819C81A130E0E0BE07E0E08E07E2
:101DF200E0E09E0711F412E047C0A981BA818B810D
:101E02009C81AF3FEFEFBE07EFEF8E07EFEF9E072C
:101E120011F411E039C0E985FA85FA93EA93EF816A
:101E2200F88569857A850E944128A0E0B0E080E0CB
:101E320090E086DE1E2F103039F5E985FA85A685F9
:101E4200B78580899189AF3FEFEFBE07EFEF8E072D
:101E5200EFEF9E0781F0A985BA851E960E941B2886
:101E6200EF5FFF4F6F4F7F4F0E942528A985BA85EC
:101E72001596E1E0EC93E981FA816B817C81ED8337
:101E8200FE836F8378878DCFE12F1881D1C30E94A3
:101E920046286097AC89BD895E960E9415280E94EB
:101EA2003728E889F9896A897B890E949F28F1F499
:101EB200AC89BD891A960E941B28EC83FD836E8330
:101EC2007F83AC81BD818E819F810E94A72829F0EA
:101ED2000E942D280E94B22840F0E1E0F0E060E08C
:101EE20070E0EC83FD836E837F8334C0EC89FD89CF
:101EF200FA93EA93AA89BB898C899D8939DDEC879B
:101F0200FD876E877F87AC85BD858E859F85A230D4
:101F1200E0E0BE07E0E08E07E0E09E0728F4E1E0A3
:101F2200F0E060E070E0E2C00E942D28AC85BD8543
:101F32008E859F850E94B22828F4EC85FD856E85EA
:101F42007F85D4C0E889F9896A897B89EC83FD831E
:101F52006E837F83EC81FD816E817F81E887F987C3
:101F62006A877B87E885F9856A857B85EF5FFF4F06
:101F72006F4F7F4FE887F9876A877B870E942D28FA
:101F8200A885B9858A859B850E94B228C0F0E2E0C7
:101F9200F0E060E070E0E887F9876A877B87EC8190
:101FA200FD816E817F81A885B9858A859B850E9486
:101FB200AD2828F4E0E0F0E060E070E097C0EC8942
:101FC200FD89FA93EA93AA85BB858C859D85D0DC31
:101FD200EC87FD876E877F870E949F2851F1AC8531
:101FE200BD858E859F85AF3FEFEFBE07EFEF8E0772
:101FF200EFEF9E0741F0A130E0E0BE07E0E08E0780
:10200200E0E09E0729F4EC85FD856E857F856EC034
:10201200EC81FD816E817F81A885B9858A859B854A
:102022000E94AD2829F4E0E0F0E060E070E05EC0DC
:1020320099CFEC89FD89FA93EA93EA85FB856C8551
:102042007D850E944128AFEFBFEF8FEF9FE078DDE3
:10205200E03029F0EFEFFFEF6FEF7FEF47C0E88945
:10206200F9896A897B890E949F28B1F0EC89FD89F0
:10207200FA93EA93EA89FB896C897D890E94412857
:10208200AE85BF85888999895BDDE03029F0EFEF65
:10209200FFEF6FEF7FEF2AC0E885F9856A857B85C0
:1020A200AC89BD891A960E942028EC89FD89A685F3
:1020B200B78580899189AF3FEFEFBE07EFEF8E07BB
:1020C200EFEF9E0779F0AC89BD891E960E941B280E
:1020D2003197604070400E942528AC89BD891596D1
:1020E200E1E0EC93E885F9856A857B85669608953B
:1020F2000E9446280E942D28E250F0406040704025
:102102000E943728EC81FD81A68DB78D80A191A117
:10211200E2E0F0E060E070E00E944B280E94242799
:102122000E9432280E94B22828F0E0E0F0E060E04D
:1021320070E007C5EC81FD81E281F0E00E94322867
:102142000E9498270E94B4277F936F93FF93EF9387
:10215200AC81BD819A960E941B28AF91BF918F914D
:102162009F910E941A27EDC4BA93AA9324971A93B7
:102172000A93EE81FF81A885B9851496ED93FC93AD
:10218200A885B98516960E941B28EA83FB836C8377
:102192007D83AA81BB818C819D81A130E0E0BE0755
:1021A200E0E08E07E0E09E0779F0A885B985ED9121
:1021B200FD917E96DF010E941B28AA81BB818C8142
:1021C2009D810E94B22810F0E2E0C6C0EA81FB8144
:1021D2006C817D810E949F2839F4A885B985ED9193
:1021E200FD91A081A33009F00CC0A885B985ED91BD
:1021F200FD91B696DF010E941528EA83FB836C836A
:102202007D83EA81FB816C817D810E949F28E9F4B4
:10221200A885B9851A960E942028A885B985ED91CE
:10222200FD913896DF01ED91FD91AE81BF81AE1730
:10223200BF0710F0E2E090C0A885B985ED91FD914D
:10224200B696DF010E94152863C0A885B985ED9175
:10225200FD91E281A0E1EA9F8001AE81BF81A017DA
:10226200B10708F441C0A885B985ED91FD91FA93B3
:10227200EA93AC81BD818E819F817ADBEA83FB8305
:102282006C837D83AA81BB818C819D81AF3FEFEFFF
:10229200BE07EFEF8E07EFEF9E0711F4E1E05CC09F
:1022A200AA81BB818C819D81A230E0E0BE07E0E083
:1022B2008E07E0E09E0778F0A885B985ED91FD9143
:1022C2007E96DF010E941B28AA81BB818C819D81A1
:1022D2000E94B22810F0E2E03FC0EE81FF81E01BD5
:1022E200F10BEE83FF83B9CFEA81FB816C817D81A3
:1022F200A885B9851A960E942028A885B985ED91EE
:10230200FD91FA93EA93AC81BD818E819F81F0DECB
:10231200DF01CB01EE81FF810E94802766277727AC
:102322000E941A27A885B9851E960E942028A88592
:10233200B985ED91FD91F296DF01EE81FF81EF709B
:10234200F070EE0F0E947727EA0FFB1FA885B98570
:102352005296ED93FC93E0E0198108812A96089544
:10236200AA9324970E940E27A985BA8514960E94E3
:10237200112831968F01002E012A41F0A985BA85D4
:102382001E960E9415280E949F2811F4E4E04EC177
:10239200F801EF7009F030C1A985BA851E960E9436
:1023A2001B28EF5FFF4F6F4F7F4F0E942528A985A3
:1023B200BA851A960E9415280E949F2871F4A98551
:1023C200BA85ED91FD913896DF010E9411280E1712
:1023D2001F0710F0E4E02AC10FC1F8010E94802714
:1023E2000F01A985BA850E941128E281F0E0319798
:1023F200E021F121309709F0FFC0ED91FD91FA93B0
:10240200EA93EB85FC85A285B38584859585B0DA50
:10241200EC83FD836E837F83AC81BD818E819F813E
:10242200A230E0E0BE07E0E08E07E0E09E0710F495
:10243200E2E0FCC0AC81BD818E819F81AF3FEFEFB6
:10244200BE07EFEF8E07EFEF9E0711F4E1E0EEC05B
:10245200A985BA85ED91FD917E96DF010E941B2828
:10246200AC81BD818E819F810E94B22808F4ABC0ED
:10247200E885E03011F4E4E0D9C0A985BA85ED9190
:10248200FD91FA93EA93EB85FC85A285B385848559
:102492009585FDDCEC83FD836E837F830E949F28FC
:1024A20011F4E7E0C3C0AC81BD818E819F81A13070
:1024B200E0E0BE07E0E08E07E0E09E0711F4E2E014
:1024C200B5C0AC81BD818E819F81AF3FEFEFBE076A
:1024D200EFEF8E07EFEF9E0711F4E1E0A7C0A985A9
:1024E200BA85ED91FD91FA93EA93A0E0B0E080E025
:1024F20090E00FD9E03011F0E1E098C0A985BA85EB
:10250200ED91FD91F296FA93EA93E0E0EA93A0E06E
:10251200B2E00E94BE26A985BA85ED91FD91DF0148
:10252200BE96FF93EF93FD01FA93EA93AE81BF81CA
:1025320088859985DDDDAF91BF910E94202830E02A
:10254200A985BA850E941128E2813E1720F5ED91F6
:10255200FD913496A1E0A083A985BA85ED91FD9104
:10256200FA93EA93A0E0B0E080E090E0D2D8E030C5
:1025720011F0E1E05BC0A985BA85ED91FD91BE96AF
:10258200DF010E941B28EF5FFF4F6F4F7F4F0E94BA
:1025920025283F5FD5CFA985BA85ED91FD91BE96DD
:1025A200FF93EF93DF010E941B28DF01CB01E32F92
:1025B200F0E00E9498270E944B280E942427AF91A6
:1025C200BF910E942028EC81FD816E817F81A985C7
:1025D200BA851A960E942028A985BA85ED91FD91A7
:1025E200FA93EA93AE81BF818885998581DDA985B9
:1025F200BA851E960E942028F801A985BA851496EC
:10260200ED93FC93A985BA85ED91FD91F296DF01D8
:10261200F801EF70F070EE0F0E947727EA0FFB1FB0
:10262200A985BA855296ED93FC93E0E00E941527A6
:102632002B960895BA93AA930E940E27EC81FD81EE
:10264200FA93EA93A0E0B0E08FDD1E2F103019F06C
:102652000E94152776C2AC81BD81ED91FD91FA935E
:10266200EA93EE81FF81A685B7858089918951D849
:102672001E2F103041F5AC81BD8152962D913C91B7
:10268200D9010C91003011F414E01DC0F901E38569
:10269200E87071F43A932A93EE81FF81A489B58997
:1026A200BA93AA93ABE0B0E00E949326E03009F01F
:1026B20001C009C0EC81FD81FA93EA93A0E050DEEB
:1026C2001E2F103041F2E12F0E9415273AC2BA9311
:1026D200AA930E940E27EC81FD81FA93EA93A0E06F
:1026E200B0E042DD1E2F103021F5AC81BD81ED91AD
:1026F200FD91FA93EA93EE81FF81A685B7858089E1
:1027020091890E948A0B1E2F103099F4EC81FD8171
:10271200A289B3890C91053E11F0003009F409C079
:10272200EC81FD81FA93EA93A1E01ADE1E2F1030AC
:10273200E1F21030D9F5AC81BD81ED91FD91FA93B2
:10274200EA93EE81FF81A685B785808991890E94EF
:102752008A0B1E2F103051F5AC81BD8152962D91FE
:102762003C913A932A93E0E0EA93A0E2B0E00E941F
:10277200BE263A932A93EE81FF81A489B589BA9342
:10278200AA93ABE0B0E00E94AC26AC81BD81549626
:10279200ED91FD91E385E871D9011C96EC93AC8132
:1027A200BD81ED91FD913496A1E0A083E12F0E94BD
:1027B2001527C7C1BA93AA9325970E940C27AD8506
:1027C200BE8554964D915C915A934A93E0E2EA9306
:1027D200ABE0B0E00E94BE26E0E0E887E9871E2F6A
:1027E2002E2FE8E0EA87AB85BC85ED91FD91EE8363
:1027F200FF83E885F985AE81BF81AE0FBF1FAC9123
:10280200AE32A9F5E885F9853196E887F9873197DF
:10281200AE81BF81AE0FBF1F0C910E3221F4A8858D
:10282200B98513970CF007C0E22F2F5FF0E0E40F99
:10283200F51F0083E7CF0F3221F00C3511F0013282
:1028420008F402C0E6E089C0E885F985AE81BF815F
:10285200EA0FFB1FAB85BC85ED93FC93013210F4AC
:10286200E4E201C0E0E2DA011B96EC9375C0E88570
:10287200F9853196E887F9873197AE81BF81AE0F2E
:10288200BF1F0C91013220F00F3211F00C3509F408
:1028920037C00E3219F0EA852E1768F0AA85A830E3
:1028A20011F40E3211F0E6E058C028E0EBE0EA87BE
:1028B200110F110F24C0003818F01360E6E04DC06C
:1028C200E8EBF4E0FA93EA93A02F0E94730B30979F
:1028D20011F0E6E042C0013410F00B3508F002C0FE
:1028E200126007C0013610F00B3708F002C0116009
:1028F2000052E22F2F5FF0E0E40FF51F0083B7CF05
:10290200E885F985AE81BF81EA0FFB1FAB85BC85E7
:10291200ED93FC93013210F4E4E001C0E0E00E2FED
:10292200203011F4E6E019C0DA01AC91A53E19F4A9
:10293200DA01E5E0EC93AA85A83011F4110F110F2A
:10294200E12FE370E13009F40061E12FEC70E43033
:1029520009F40860FA010387E0E00E9413272F962A
:102962000895BA93AA930E940E27E1E0E03029F07D
:10297200AC81BD81AC91A03209F006C0EC81FD8131
:102982003196EC83FD83F1CFAC81BD81AC91AF3246
:1029920029F0AC81BD81AC91AC3579F4EC81FD813B
:1029A2003196EC83FD83AE81BF811696E0E0F0E0C4
:1029B20060E070E00E9420280DC0AE81BF81ED91E1
:1029C200FD917696DF010E941B28AE81BF8116968B
:1029D2000E942028AC81BD81AC91BB27909780F4E6
:1029E200EE81FF81FA93EA93A0E0B0E0BDDB1E2FF7
:1029F200AE81BF815296E0E0F0E0ED93FC934BC0D4
:102A0200EE81FF81FA93EA93DE011696D3DE1E2F42
:102A1200103009F040C0AE81BF810CDE1E2FAE81A6
:102A2200BF8154960E941128E385E4700E2F103066
:102A320039F0143011F4003009F001C015E02BC058
:102A4200003049F5AE81BF8152962D913C91F9013A
:102A5200E385E07111F415E01EC0D9015496ED91A1
:102A6200FD91662777270E9493277F936F93FF93A9
:102A7200EF93D9015A96ED91FD91AF91BF918F914C
:102A82009F91662777270E943327AE81BF811696D2
:102A92000E942028B5CFE12F0E941527289608957D
:102AA2000E944628EC81FD81A181AA93ED81FE81DD
:102AB200F296FA93EA93EB81FC816D817E810E940A
:102AC2004128A1E00E943E08E03011F0E3E039C065
:102AD200EC81FD81F296E250FE4FDF01ED91FD9116
:102AE200E535AAEAFA0711F0E2E02BC0AC81BD811C
:102AF200A859BF4F0E941B28EF7FFF7F6F7F707026
:102B0200E634A1E4FA07A4E56A07A0E07A0711F423
:102B1200E0E017C0EC81FD81F296EE5AFF4FDF0133
:102B22000E941B28EF7FFF7F6F7F7070E634A1E465
:102B3200FA07A4E56A07A0E07A0711F4E0E001C011
:102B4200E1E026960895AA9364970E940C27AD8D22
:102B5200BE8DED91FD91E887F987A885B985EC9145
:102B6200E0530E2F0A3020F41196AC91AA3309F0EB
:102B72000AC0E885F9853296E887F987AD8DBE8D62
:102B8200ED93FC9302C00091962A013010F0EBE025
:102B920033C2E02FA2E9BAE2F0E0EE0FFF1FAE0F60
:102BA200BF1FED91FD91EE83FF83AB8DBC8DED9345
:102BB200FC93309711F4ECE01FC2AE81BF81EC911F
:102BC200E03089F0EE81FF81A1810E9434085E2FFE
:102BD20050FD09C0EA8DE03011F052FD01C002C083
:102BE200EAE00AC208C2AE81BF81E0E0EC93E02FC6
:102BF200AE81BF811196EC93EE81FF81A1810E948B
:102C02005E075E2F50FF02C0E3E0F6C1EA8DE030BE
:102C120011F052FD01C002C0EAE0EEC1EE81FF8177
:102C2200FA93EA93E0E0F0E060E070E0E88FF98F79
:102C32006A8F7B8FDF01CB0133DF1E2F1130D9F476
:102C4200EE81FF81F296E254FE4F9F01E481E03073
:102C520091F0D90118960E941B28EE8BFF8B688F8A
:102C6200798FEE81FF81FA93EA93A88DB98D8A8DCF
:102C72009B8D16DF1E2F133011F4E1E0BDC1103021
:102C820049F4AE81BF81DD96ED91FD91E030A2E085
:102C9200FA0711F0EDE0B0C1AE81BF81A85BBF4F72
:102CA2000E94112866277727EA8BFB8B6C8B7D8B22
:102CB2000E949F2851F4AE81BF81AA5ABF4F0E9441
:102CC2001B28EA8BFB8B6C8B7D8BEA89FB896C89D9
:102CD2007D89AE81BF815A960E942028EE81FF81B4
:102CE200EE5BFF4FE081AE81BF811396EC93EE81E4
:102CF200FF81E381F0E0AA89BB898C899D890E94CA
:102D020098270E94B427EA8BFB8B6C8B7D8BAE815C
:102D1200BF81A05CBF4FED91FD91AE89BF89888DC7
:102D2200998D662777270E941A27AE81BF819296D6
:102D32000E942028EE81FF81E7ADAE81BF8112960D
:102D4200EC93AE81BF81AD5BBF4FED91FD91AE8142
:102D5200BF811896ED93FC93AE81BF81AB5BBF4FF1
:102D62000E94112866277727EE87FF87688B798B69
:102D72000E949F2851F4AE81BF81AE5ABF4F0E947C
:102D82001B28EE87FF87688B798BAE81BF81A05CA1
:102D9200BF4FED91FD91AE85BF85888999896627E0
:102DA20077270E944B280E942427AA89BB898C89F5
:102DB2009D890E9424277F936F93FF93EF93EE8167
:102DC200FF81A085B185FD010E948027AF91BF914F
:102DD2008F919F91662777270E942927EE81FF8195
:102DE200E281F0E00E9498270E94ED27EE5FFF4FFC
:102DF2006F4F7F4FEA87FB876C877D87AE81BF81EC
:102E02005E960E94202811E0AA85BB858C859D854F
:102E1200A73FEFE0BE07E0E08E07E0E09E0708F084
:102E220012E0AA85BB858C859D85A73FEFEFBE0783
:102E3200E0E08E07E0E09E0708F013E0133039F47B
:102E4200AE81BF81A25ABF4F0E9415280CC0EE81ED
:102E5200FF81A2A1B3A184A195A1EA89FB896C8912
:102E62007D890E941A27AE81BF8196960E942028F2
:102E7200EE81FF81A2A1B3A184A195A1EA89FB8978
:102E82006C897D890E941A277F936F93FF93EF933A
:102E9200EE81FF81A085B185FD010E948027AF915F
:102EA200BF918F919F91662777270E941A27AE8143
:102EB200BF819A960E942028AE81BF811E96EFEFB5
:102EC200FFEF6FEF7FEF0E942028AE81BF81149643
:102ED200E0E0EC93133009F071C0AE81BF8115962A
:102EE200EC93AE81BF81AE59BF4FED91FD91AE899A
:102EF200BF89888D998D662777270E941A27AE8110
:102F0200BF8152960E942028EE81FF81A181AA935F
:102F1200EF81F885F296FA93EA93E985FA85A28918
:102F2200B389848995890E944628A1E00E943E08BF
:102F3200E03049F5EE81FF81F296E250FE4FDF016B
:102F4200ED91FD91E535AAEAFA07E9F4AE81BF8178
:102F5200D2960E941B28E235A2E5FA07A1E66A078B
:102F6200A1E47A0781F4EE81FF81F296EC51FE4FE3
:102F7200DF010E941B28E237A2E7FA07A1E46A07F1
:102F8200A1E67A0709F01AC0EE81FF81F296E451B8
:102F9200FE4FDF010E941B28AE81BF811A960E945C
:102FA2002028EE81FF81F296E851FE4FDF010E9458
:102FB2001B28AE81BF811E960E942028AE81BF8150
:102FC2001C939E96E0E0F0E060E070E00E94202812
:102FD200AE81BF8156960E942028E091942AF091FA
:102FE200952A3196E093942AF093952AAE81BF8177
:102FF2001696ED93FC93E0E00E9413276F960895D6
:10300200BA93AA93EA81FB81309771F0AA81BB81BE
:10301200EC91E03049F0EA81FB81A681B781E88139
:10302200F981EA17FB0711F0E9E00AC0EA81FB81A6
:10303200A1810E943408E17011F0E3E001C0E0E0F8
:1030420024960895BA93AA931A930A93AC81A13055
:1030520010F0EBE025C0EC81A2E9BAE2F0E0EE0F5D
:10306200FF1FAE0FBF1F0D911C91002E012A19F0F8
:10307200D801E0E0EC93EA81FB81309721F0AA814C
:10308200BB81E0E0EC93EC81A2E9BAE2F0E0EE0F62
:10309200FF1FEA0FFB1FAA81BB81A083B183E0E07F
:1030A2001981088125960895AA93A2970E940E2756
:1030B200A9A5BAA5E0E0F0E0ED93FC93EEA1EF71D3
:1030C200EEA3FE01B796FA93EA93FE017296FA9383
:1030D200EA93EAA5EE71AE2F36DD1E2F103009F00D
:1030E2003AC1FE013496ECA3FDA3FE017096FA9359
:1030F200EA93A9A5BAA535DC1E2FEEA1EC7109F45D
:10310200ADC02897103089F0143021F4DE015896B2
:10311200DEDA1E2F103019F0E12F28961CC1EEA521
:10312200E860EEA72AA53BA57EC0EEA5E47019F0E3
:10313200E8E0289610C12AA53BA5022E032A21F019
:10314200F901E385E17119F0E7E0289604C1EEA5E3
:10315200E87009F468C0D9015496ED91FD91662793
:1031620077270E9493277F936F93FF93EF93D90161
:103172005A96ED91FD91AF91BF918F919F916627E4
:1031820077270E9433270E943728F9017496A0E01E
:10319200B0E0A083B183F9017A96A083B183F901EB
:1031A2007C96A0E0B0E080E090E00E943C28A88DF0
:1031B200B98D1496E1E0EC93A88DB98D9E960E948C
:1031C2001528EC83FD836E837F830E942D280E9445
:1031D2009F28D1F0E88DF98DFA93EA93AA81BB81F9
:1031E2008C819D810E94B30E1E2F103011F0289603
:1031F200B2C00E942D28E150F04060407040A88D7E
:10320200B98D1A960E942028E88DF98DFA93EA93D7
:10321200AE81BF81888599850E948A0B1E2F10304E
:1032220011F0289698C0EEA5E870B1F0F9013B962E
:10323200A0E0A0830E94E90AEC83FD836E837F8372
:10324200D9011E960E942028A88DB98D1496E1E01E
:10325200EC93EEA5E062EEA7289619C0103011F0AB
:10326200E12F79C02AA13BA1022E032A21F0F90104
:10327200E385E07111F0E4E06EC0EEA1E27021F0AE
:10328200F901E385E17009F402C0E7E064C0A889AE
:10329200B9899E960E941B28A9A5BAA55A960E9492
:1032A2002028EAA1FBA1A9A5BAA55E96ED93FC93FD
:1032B200EEA1A9A5BAA51496EC93D9015496ED9165
:1032C200FD91662777270E9493277F936F93FF9341
:1032D200EF93D9015A96ED91FD91AF91BF918F91E4
:1032E2009F91662777270E943327A9A5BAA51E9624
:1032F2000E942028D9015C960E941B28A9A5BAA584
:103302001A960E942028A9A5BAA51696E0E0F0E038
:1033120060E070E00E942028A9A5BAA51596EFEFFB
:10332200EC93A9A5BAA55696E0E0F0E060E070E063
:103332000E942028E889F989A9A5BAA5ED93FC93F2
:10334200A889B9891696ED91FD91A9A5BAA51296FB
:10335200ED93FC93E0E00E941527AB960895BA9393
:10336200AA932E970E940C27E88DF98DEE83FF8396
:10337200AC89BD89E0E0F0E0ED93FC93AA8DBB8DB2
:10338200ED91FD91FA93EA93EC8DFD8DA281B381CB
:1033920037DE1E2F103009F011C2EA8DFB8DA48199
:1033A200A07811F0E2E00AC2EA8DFB8DA481A1703F
:1033B20011F4E7E003C2EA8DFB8DA285B385848513
:1033C20095859F938F93BF93AF93A681B781808595
:1033D2009185EF91FF916F917F910E942427E88759
:1033E200F9876A877B87AE89BF89882799270E94D8
:1033F200AD2820F4E885F985EE8BFF8BEE89FF89F5
:10340200309709F4DAC1EA8DFB8DA681B7818085F8
:103412009185FD01BC01F170309709F081C1EA8DFF
:10342200FB8D0580AA8DBB8D0E941128E2810E16AC
:1034320008F457C0EA8DFB8DA681B78180859185FE
:103442000E94A72831F4AA8DBB8D1E960E941528D2
:103452000EC0AA8DBB8DED91FD91FA93EA93EC8D8E
:10346200FD8DA289B389848995890E94B90CE88B64
:10347200F98B6A8B7B8BA889B9898A899B89A2304F
:10348200E0E0BE07E0E08E07E0E09E0740F4AA8D90
:10349200BB8D1496EC91E068EC93E2E08FC1A889B1
:1034A200B9898A899B89AF3FEFEFBE07EFEF8E079D
:1034B200EFEF9E0741F4AA8DBB8D1496EC91E06864
:1034C200EC93E1E07BC1E889F9896A897B89AA8D5D
:1034D200BB8D52960E942028AA8DBB8D1596E0E0E6
:1034E200EC93AA8DBB8DED91FD91FA93EA93EC8D4D
:1034F200FD8DA289B389848995890E947910EC8710
:10350200FD876E877F870E949F2841F4AA8DBB8D1D
:103512001496EC91E068EC93E2E050C1EA8DFB8DE9
:10352200E581F0E0AC85BD858E859F850E94982758
:103532000E941A27EC87FD876E877F87AE89BF8935
:10354200E0E0F2E00E94DA27AF01042E052A09F436
:1035520082C0EA8DFB8DE581F0E0E40FF51F0F01DB
:10356200AA8DBB8DED91FD91E281D001F0E0EA17C9
:10357200FB0770F4AA8DBB8DED91FD91E281F0E025
:10358200DF01EA8DFB8DE581F0E0AE1BBF0BAD01E3
:10359200AA8DBB8DED91FD91E181EA93EF81F885D2
:1035A200FA93EA93EF85F88969897A890E9441281A
:1035B200A42F0E943E08E03041F0AA8DBB8D1496E4
:1035C200EC91E068EC93E1E0F9C0EA8DFB8DA48117
:1035D200A07481F0A689B789808D918DEC85FD85D7
:1035E2006E857F850E942927FA01662777270E9428
:1035F200B22808F023C0EA8DFB8DA689B789808D99
:10360200918DEC85FD856E857F850E942927E0E0FE
:10361200F2E060E070E00E94B427AE81BF818827AB
:103622009927EA0FFB1FFA93EA93EC8DFD8DB09672
:10363200FA93EA93A0E0B2E00E94AC26AA8DBB8D79
:103642001596EC91E40FEC93FA01EE0FFF1FFE2F9B
:10365200E0E09F018BC0EA8DFB8DA481A07431F163
:10366200AA8DBB8DED91FD91E181EA93EB8DFC8DED
:10367200B096FA93EA93ED8DFE8DA689B789808D77
:10368200918D0E944628A1E00E94A208E03041F0FC
:10369200AA8DBB8D1496EC91E068EC93E1E08EC0AC
:1036A200AA8DBB8D1496EC91EF7BEC93EA8DFB8D8A
:1036B200A689B789808D918DEC85FD856E857F8584
:1036C2000E94AD28F1F0AA8DBB8DED91FD91E181B3
:1036D200EA93EB8DFC8DB096FA93EA93EF85F88925
:1036E20069897A890E944128A1E00E943E08E0305F
:1036F20041F0AA8DBB8D1496EC91E068EC93E1E069
:103702005DC0EC85FD856E857F85AA8DBB8D569645
:103712000E942028AA8DBB8D1596EC91EF5FEC9349
:10372200AA8DBB8D1696ED91FD91F170A0E0B2E0ED
:10373200AE1BBF0B9D01EE89FF89E217F30710F460
:103742002E893F89EE81FF81FA93EA93AC8DBD8D7C
:103752001696ED91FD91F170AC8DBD8D9096EA0FAC
:10376200FB1FFA93EA93D9010E94AC26F901AE81BC
:10377200BF81EA0FFB1FEE83FF83EA8DFB8D369636
:103782000F01DF010E941B28DF01CB01F90166272F
:1037920077270E941A27D0010E942028AC89BD8970
:1037A2000E941128E20FF31FED93FC93EE89FF892B
:1037B200E21BF30BEE8BFF8B21CEE0E00E9413277E
:1037C2006C960895BA93AA9324970E940E27A8850F
:1037D200B985ED91FD91FA93EA93EA85FB85A28181
:1037E200B3810EDC1E2F103009F084C0E885F98504
:1037F200A481A07209F47EC0A481A07401F1A885FD
:10380200B985ED91FD91E181EA93E985FA85B0965A
:10381200FA93EA93EB85FC85A689B789808D918D11
:103822000E944628A1E00E94A208E03011F0E1E0E7
:1038320062C0A885B9851496EC91EF7BEC93A885BC
:10384200B985ED91FD91FA93EA93EA85FB85A28D04
:10385200B38D848D958D0E948A0B1E2F103009F036
:1038620049C0A885B9855E962D913C91D9011B96D8
:10387200EC91E062EC93A885B9851A960E941B2808
:10388200D9015C960E942028A885B9851E96ED91E3
:10389200FD91D9015A96ED93FC93E885F985A685A9
:1038A200B78580899189FD01BC010E948E27D901CB
:1038B2005496ED93FC930E94E90AEC83FD836E8398
:1038C2007F83D90156960E942028A885B98514962F
:1038D200EC91EF7DEC93A885B985ED91FD9134963D
:1038E200A1E0A083A885B985ED91FD91DF010E9439
:1038F200290C1E2FE12F0E9415272A960895BA93AC
:10390200AA931A93A981BA815DDF1E2F103031F478
:10391200A981BA81E0E0F0E0ED93FC93E12F1881F8
:10392200239608950E94462860971A93AD89BE890E
:10393200ED91FD91FA93EA93EF89F88DA281B3811B
:103942005FDB1E2F103009F09AC2ED89FE89A48137
:10395200A07811F0E2E094C2AD89BE891A960E9465
:103962001B28A989BA898B899C890E94AD2828F4D1
:10397200ED89FE89A481A27009F009C0AD89BE89D2
:103982001A960E941B28E98BFA8B6B8B7C8BAD8974
:10399200BE8916960E941B28E983FA836B837C8377
:1039A200E0E0F0E060E070E0ED83FE836F83788713
:1039B200AD89BE8916960E942028AD89BE891596CA
:1039C200EFEFEC93A989BA898B899C890E94A72879
:1039D20008F0CBC1AD89BE89ED91FD91E281F0E0A5
:1039E2000E949827A0E0B2E080E090E00E94B42715
:1039F200E987FA876B877C87A981BA818B819C8151
:103A02000E94A72858F5E989FA896B897C89E150D7
:103A1200F04060407040DF01CB01E985FA856B859B
:103A22007C850E94ED277F936F93FF93EF93E9814B
:103A3200FA816B817C81E150F04060407040DF018F
:103A4200CB01E985FA856B857C850E94ED27AF91D4
:103A5200BF918F919F910E94B22808F434C0E981EE
:103A6200FA816B817C81E150F04060407040DF015F
:103A7200CB01E985FA856B857C85E150F040604099
:103A820070400E949D270E942E27AD89BE891696FE
:103A92000E942028AD89BE8916960E941B28A989FA
:103AA200BA898B899C890E942927A98BBA8B8B8B17
:103AB2009C8BAD89BE8952960E941528ED87FE87A0
:103AC2006F87788B57C0AD89BE891E960E941528D4
:103AD200ED87FE876F87788B0E949F2809F041C08F
:103AE200AD89BE89ED91FD91FA93EA93A0E0B0E031
:103AF20080E090E00E94480FED87FE876F87788B09
:103B0200AD85BE858F859889A130E0E0BE07E0E0F3
:103B12008E07E0E09E0741F4AD89BE891496EC91D0
:103B2200E068EC93E2E0ACC1AD85BE858F859889F3
:103B3200AF3FEFEFBE07EFEF8E07EFEF9E0741F4C7
:103B4200AD89BE891496EC91E068EC93E1E098C1EE
:103B5200ED85FE856F857889AD89BE891E960E94A6
:103B62002028ED85FE856F857889AD89BE895296BC
:103B72000E942028ED85FE856F8578890E949F2806
:103B820009F4F3C0E985FA856B857C85A989BA8930
:103B92008B899C890E94AD2808F091C0ED89FE892D
:103BA200A481A270E9F0AD89BE89ED91FD91FA93ED
:103BB200EA93AF85B88989899A890E94480FED876F
:103BC200FE876F87788B0E949F2849F4E985FA85E2
:103BD2006B857C85E98BFA8B6B8B7C8B70C010C0FC
:103BE200AD89BE89ED91FD91FA93EA93AF85B889CB
:103BF20089899A890E94B90CED87FE876F87788B35
:103C0200AD85BE858F859889AF3FEFEFBE07EFEF99
:103C12008E07EFEF9E0741F4AD89BE891496EC91B1
:103C2200E068EC93E1E02CC1AD85BE858F85988973
:103C3200A230E0E0BE07E0E08E07E0E09E0778F009
:103C4200AD89BE89ED91FD917E96DF010E941B2810
:103C5200AD85BE858F8598890E94B22840F0AD89D6
:103C6200BE891496EC91E068EC93E2E009C1ED851F
:103C7200FE856F857889AD89BE8952960E9420287B
:103C8200ED89FE8936960F01DF010E941B28A98566
:103C9200BA858B859C850E941A27D0010E94202814
:103CA200A985BA858B859C85E989FA896B897C8986
:103CB2000E942427E98BFA8B6B8B7C8B63CFED8977
:103CC200FE8936960F01DF010E941B28A989BA8955
:103CD2008B899C890E941A27D0010E942028A989D9
:103CE200BA898B899C89E0E0F2E060E070E00E9492
:103CF200ED27AD89BE891596EC93E989FA896B891E
:103D02007C89F170309789F1AD89BE89ED91FD9181
:103D1200FA93EA93AF85B88989899A890E947910C2
:103D2200ED83FE836F8378870E949F2841F4AD89DB
:103D3200BE891496EC91E068EC93E2E0A1C0ED89B3
:103D4200FE89E581F0E0AD81BE818F8198850E9478
:103D520098270E941A27ED83FE836F837887AD89A7
:103D6200BE891596EC91EF5FEC93ED89FE89A681F1
:103D7200B78180859185FD01BC01F170309761F0BA
:103D8200AD89BE8956960E941B28AD81BE818F8166
:103D920098850E94AD2809F452C0ED89FE89A4815C
:103DA200A07431F1AD89BE89ED91FD91E181EA9373
:103DB200EE89FF89B096FA93EA93E88DF98DA68988
:103DC200B789808D918D0E944628A1E00E94A208A9
:103DD200E03041F0AD89BE891496EC91E068EC9335
:103DE200E1E04EC0AD89BE891496EC91EF7BEC9375
:103DF200AD89BE89ED91FD91E181EA93EE89FF895A
:103E0200B096FA93EA93E885F9856A857B850E94E4
:103E12004128A1E00E943E08E03041F0AD89BE8910
:103E22001496EC91E068EC93E1E02AC0ED81FE810A
:103E32006F817885AD89BE8956960E942028ED89CA
:103E4200FE89A681B781808591850D01AD89BE89E4
:103E52001A960E941B28D0010E94AD2880F4AD89D9
:103E6200BE8916960E941B28AD89BE891A960E94A9
:103E72002028AD89BE891496EC91E062EC93E12F83
:103E8200188167960895FF92AA930E940C27EE81EB
:103E9200E03011F0E53069F4A985A33031F4A09146
:103EA2002724B0912824109709F002C00C945C21B9
:103EB2001DC0E13011F0E23009F402C0E33009F430
:103EC20002C0E43011F40C945C21E63079F4E98507
:103ED200E13011F40C945C21E33041F4E0912924A7
:103EE200F0912A24309711F40C945C21AF85A03F05
:103EF20068F4AD85BE85A034E1E0BE0738F4AC8538
:103F0200A03021F0AA85BB85109711F40C945C2196
:103F1200AF85BB27EC85F0E0AE0FBF1FA13FE0E00D
:103F2200BE0720F0AF85E0EFEA1BEC87EA85FB8550
:103F3200AD85BE85AE0FBF1FA134E1E0BE0740F0E4
:103F4200AD85BE85E0E4F1E0EA1BFB0BEA87FB8767
:103F5200EF85EA93EE85FF85FA93EA93EF85AA89C6
:103F6200AE0FA150AA93EE85FF85A989BA89AE0F3B
:103F7200BF1F11970E940422EF85EA93AE85BF8589
:103F82000E94F421E2E0E0936506AE81A63009F0DA
:103F920060C00E949D21E985E33071F5EA85FB85C9
:103FA2003197EA87FB87319631F13C85E32F315017
:103FB200E03001F10E9486218F01EF81F885319670
:103FC200EF83F8873197FA93EA93A02FE09129249F
:103FD200F0912A240995EF81F8853196EF83F887CD
:103FE2003197FA93EA93A12FE0912924F0912A24A0
:103FF2000995DCCFD3CF2BC0EA85FB853197EA87C1
:10400200FB87319621F13C85E32F3150E030F1F00E
:104012000E9486218F01E985EA93E885F985319628
:10402200E887F9873197FA93EA93A02F0E94ED2649
:10403200E985EA93E885F9853196E887F98731972A
:10404200FA93EA93A12F0E94ED26DECFD5CF0C94EE
:104052005121AE81A73041F400910424109105242E
:10406200E0911124E0FB09C0AE81A83009F054C0F0
:1040720000911D2410911E24E894F0F8EC85E69539
:10408200E695E6954E2FEC85E770EC87E03009F077
:104092004F5FEA85FB853197EA87FB873196D1F13D
:1040A20020E02417B0F5E985EA93E885F985319691
:1040B200E887F987319766277727DF01CB010E94CE
:1040C200CE263E2F58E02F5F421721F4EC85E030D8
:1040D20009F05C85F0FE0EC030FF06C00E9461212F
:1040E200D8010E946D2102C00E949D213695515037
:1040F20099F70EC030FF02C0F80104C0E091062417
:10410200F0910724DF010E946D213695515091F7FD
:10411200C8CFBFCF0C945121AC85BB2788279927E4
:10412200EA85FB85662777270E94B4279F01462FE1
:10413200EE81E03009F048C0A985A33001F5AF81D6
:10414200B8851196AF83B8871197E0912724F09133
:10415200282409950E2FAF81B8851196AF83B887B1
:104162001197E0912724F091282409951E2FD80158
:104172000E946D2121503040404009F724C0E9855A
:10418200EA93E885F9853196E887F98731976627BA
:104192007727DF01CB010E94CE260E2FE985EA9315
:1041A200E885F9853196E887F98731976627772779
:1041B200DF01CB010E94CE261E2FD8018DD02150C7
:1041C20030404040E1F66CC0E53009F05BC0A985A3
:1041D200A33049F5AF81B8851196AF83B88711979F
:1041E200E0912724F091282409950E2FAF81B885FC
:1041F2001196AF83B8871197E0912724F091282474
:1042020009951E2FE0910824F0910924E017F10787
:1042120021F056D0D80160D001C08ED0215030405C
:104222004040C1F62EC0E985EA93E885F9853196CA
:10423200E887F987319766277727DF01CB010E944C
:10424200CE260E2FE985EA93E885F9853196E8872F
:10425200F987319766277727DF01CB010E94CE26A7
:104262001E2FE0910824F0910924E017F10721F0B4
:1042720027D0D80131D001C05FD02150304040401A
:1042820091F60EC0E93029F4A0910624B0910724DA
:1042920006C0EA3029F4A0910424B091052484D008
:1042A200E0E0EA93E0E0F0E0FA93EA93EFEEEA93DB
:1042B200AFE3B1E0A8D00E9413276096FF90089563
:1042C200EFEFE093800603C0E0E0E0938006E09326
:1042D2004006089500000895BA93AA93E1E0E0939E
:1042E2006606E8E0E0936606E981E0934406E88129
:1042F200E0938406EFDFE8E0E0936506000000004B
:10430200E1E0E09365060C94A5241A930A93E1E098
:10431200E0936606E4E0E0936606DCDF109148066F
:1043220000918806E4E0E0936506E1E0E09365062B
:10433200F801099119910895C7DFE1E0E09366065B
:10434200E4E0E0936606C6DFE4E0E0936506E1E0C0
:10435200E09365060895AA93E2E0E0936606B0DF73
:10436200A881BB27B9DF1EC0BA93AA93E2E0E0930B
:104372006506A6DFA881B981AFDF0C94A524BA93A4
:10438200AA93AA81E8DFA881B981EEDF0C94EB261B
:10439200E2E0E093650698DFB8DF0895AA93A8816A
:1043A200DADFF6DF21960895BA93AA931A930A9355
:1043B2000A811B811093440600938406E1E0E09396
:1043C2006606E8E0E093660685DFE8E0E0936506CE
:1043D200215030404040A9F7E1E0E09365061981A1
:1043E20008810C940A27BA93AA93EEE4EA93AB816C
:1043F200BB27C5DFEFE4EA93A981BA81C0DFA2E25D
:10440200AADF0C94EB26BA93AA93E4E4EA93E0E0E1
:10441200FB81DF01EE81F0E0AE0FBF1FB0DFE5E40C
:10442200EA93AC81BD81ABDFE6E4EA93A981BA816C
:10443200A6DF0C94BC26E0E0EA93A0E0B0E0D3DF74
:10444200E2E0E09365062F933F934F9320E03CE236
:1044520041E0A0910624B0910724A6DF4F913F913D
:104462002F91E0E0EA93A0E0B0E0BDDFE0E0EA9364
:10447200A0E0B0E047D40895BA93AA9366971A933E
:104482000A93E1E0E0936106E0936506E4E0E093DD
:104492006106E0936506E8E0E0936106E093650655
:1044A200E2E0E0936106E0E1E0936106E0936606F4
:1044B200A5E0B0E00E94B728E0E1E0936506A4E140
:1044C200B0E00E94B728A0E069DFE938A9E8FA075E
:1044D20011F0E0E00CC2E88DF98D309731F0DE0189
:1044E200129686E10E948B2807C0EAEFF4E0DE0113
:1044F200129686E10E949528E0E0EA93A1E0B0E0FE
:104502003EDFAFE0B0E00E94B728E3E0EA93EA853D
:10451200EF70F070E295E07FFE2FE0E0DF01E985C9
:10452200E695E695E695E770F070EE0FFE2FE0E077
:10453200AE0FBF1FEA85EF70F070E295E07FAE0F1D
:10454200BF1FEA85E295E770F070EE0FAE0FBF1F56
:1045520016DFECE0EA93EB85E770F0E0DF010FDFB6
:10456200EDE0EA93EB85E695E695E695EF70F0E0EF
:10457200DF0105DFEEE0EA93EC85EF71F070FE2FCC
:10458200E0E0E050F04EDF010E94C021EEE1EA934C
:10459200ED85EF71F070E058FF4FDF010E94C021FE
:1045A200AFE0B0E00E94B728A1E00E94CF21E07006
:1045B200F0718F01E885E695E695E170F070EE0FF7
:1045C200EE0FEE0FFE2FE0E0BF01E885E1700E94E2
:1045D200A727F0E0DF01EEE00E943827DB01AE0FF3
:1045E200BF1FE885E695E1700E94A727F0E0EE0F75
:1045F200FF1FFE2FE0E0EA0FFB1FE15CFE4D0E2BDA
:104602001F2BE1E0EA93D8010E94C021E2E0EA9385
:10461200A0E0B0E10E94C021E0E1EA93A0E0B0E0B6
:104622000E94C021E1E1EA93A0E3B0E60E94C0212A
:10463200AEE1B0E00E94B728E5E0EA93A0E0B0E086
:104642000E94C021E6E0EA93A0E0B0E00E94C0210F
:10465200E7E0EA93A3E3B0E00E94C021EBE0EA9333
:10466200A8E0B3E50E94C021EFE0EA93A0E0B0E049
:104672000E94C021E5E2EA93EE85EF70F070E295C8
:10468200E07FFE2FE0E0DF010E94C021A4E1B0E064
:104692000E94B728E1E4EA93A0E0B0E00E94C021C2
:1046A200E2E4EA93A0E0B0E00E94C021E8E4EA93E9
:1046B200A0E0B0E00E94C021E9E4EA93AFE3B1E0F8
:1046C2000E94C021E0E0EA93E0E0F0E0FA93EA938E
:1046D200EFEEEA93AFE3B1E096DEE3E2EA93A0E025
:1046E200B0E00E94C021E4E2EA93A0E0B0E00E94C0
:1046F200C021A4E1B0E00E94B728E0E3EA93EF858D
:10470200E770F070FE2FE0E0DF01EE85E295E770E2
:10471200F070AE0FBF1F0E94C021E1E3EA93EF8564
:10472200E695E695E695E770F070DF01E889E770B7
:10473200F070FE2FE0E0AE0FBF1F0E94C021E2E347
:10474200EA93E889E695E695E695E770F070DF0171
:10475200E989E770F070FE2FE0E0AE0FBF1F0E9404
:10476200C021E3E3EA93E989E695E695E695E770E9
:10477200F070DF01EA89E770F070FE2FE0E0AE0F23
:10478200BF1F0E94C021EAE3EA93EA89E695E69513
:10479200E695EF70F070DF01EB89EF71F070FE2F9C
:1047A200E0E0AE0FBF1F0E94C021E4E3EA93EC8970
:1047B200E770F070FE2FE0E0DF01EB89E295EF7029
:1047C200E695E770F070AE0FBF1F0E94C021E5E3CF
:1047D200EA93EC89E695E695E695E770F070DF01DD
:1047E200ED89E770F070FE2FE0E0AE0FBF1F0E9470
:1047F200C021E6E3EA93ED89E695E695E695E77052
:10480200F070DF01EE89E770F070FE2FE0E0AE0F8E
:10481200BF1F0E94C021E7E3EA93EE89E695E69581
:10482200E695E770F070DF01EF89E770F070FE2F18
:10483200E0E0AE0FBF1F0E94C021EBE3EA93EF89D5
:10484200E695E695E695EF70F070DF01E88DEF7181
:10485200F070FE2FE0E0AE0FBF1F0E94C021EFEF0D
:10486200FFEFE0930424F0930524E0E0F0E0E0930E
:104872000624F0930724E0930824F0930924EA81A4
:10488200FB81E0930D24F0930E24EC81FD81E093F3
:104892002724F0932824EE81FF81E0932924F093CA
:1048A2002A24E1E0E0930F24E0931024E091112404
:1048B200EE7FE0931124E1E0E0931224EFEFE09326
:1048C2001324EFEFFFEFE0931D24F0931E24EFE19A
:1048D200F4E2FA93EA93EFEFEA93A8E0B0E00E94E1
:1048E200BE26A4E1B0E00E94B728A5DDE1E019816F
:1048F20008816A960895BA93AA93A881B9810E9401
:10490200A3281CF0E0E0F0E01FC0A881B981A03F1D
:10491200E0E0BE071CF0EFEEF0E016C013C0BA9361
:10492200AA93A881B9810E94A3281CF0E0E0F0E0DC
:104932000BC0A881B981A034E1E0BE071CF0EFE30F
:10494200F1E002C0E881F98122960895BA93AA9310
:10495200AA81A13F30F4A881B981A134E1E0BE0768
:1049620030F0E0E0F0E060E070E00C94EB26AA8129
:10497200BB2788279927E881F981662777270E9434
:10498200B427DF01CB01E5E00E9449270C94EB2616
:10499200BA93AA9323970E940C27E0910D24F091D9
:1049A2000E248F01002E012A19F4E0E0F0E06EC01F
:1049B200F8010F5F1F4F04900F82F8010F5F1F4F26
:1049C20004900E82F8010F5F1F4F04900886EB855A
:1049D200A885EA1718F4E0E0F0E058C0F8010F5F8C
:1049E2001F4F5491A885BB27EE27A50FBE1FEB854D
:1049F200F0E0EA17FB0718F0E0E0F0E047C0EF81D3
:104A0200E030E1F0A985BA85EC93E695E695E69566
:104A12004E2FEF81E77009F04F5FA885EB85EA1B07
:104A2200F0E0DF01EE81F0E00E94AC27DF01E42F2D
:104A3200F0E00E94AC27E00FF11F28C09801E52F9B
:104A4200F0E00E0F1F1FA885AF5FA887A150EB856E
:104A5200AE17B0F4F901E491E695E695E6954E2F8E
:104A6200F9012F5F3F4FE491E77009F04F5FAE818C
:104A7200BB27E42FF0E00E94AC270E0F1F1FE3CFED
:104A8200F901E491A985BA85EC93F8010E941327F4
:104A92002C960895E0910D24F0910E24309711F494
:104AA200E0E00895E0910D24F0910E243196A49156
:104AB200E0911024EA0F0895E0E0E0930A24A09127
:104AC2000B24B0910C24E0910D24F0910E24319628
:104AD200E491F0E0AE0FBF1FE0911024F0E0AE0FC2
:104AE200BF1F1DDFE0930B24F0930C240895AA93BB
:104AF20021970E940C27E0910D24F0910E2430970B
:104B020009F488C0AF81AA3009F482C0EF81EA9328
:104B1200DE0117963DDFAF01309709F47DC0E091C9
:104B22000F24AE81EA0F3E2FA0910A24BB27F0E0AA
:104B3200EA0FFB1F8F01013FE0E01E0718F0032F71
:104B42001127BADFE0910A24EA93E0910B24F09155
:104B52000C24FA93EA93E985EA93E0910D24F0910B
:104B62000E243196E491F0E0FA93EA93E1E0EA93BD
:104B72005A934A93A7E00E94441FE0911124E170E6
:104B820009F041C0E0910A24AE81EA0FEA93E09174
:104B92000B24F0910C24FA93EA93E0910F24EA9308
:104BA200E0910D24F0910E243196E491F0E0FA9315
:104BB200EA93E0E0EA93E0E0F0E0FA93EA93A9E016
:104BC2000E94441FE0910A24EA93A0910B24B09121
:104BD2000C24E0910D24F0910E243196E491F0E042
:104BE200EA0FFB1FFA93EA933A93E0911024F0E064
:104BF200FA93EA93E0E0EA93E0E0F0E0FA93EA93D2
:104C0200A9E00E94441FE0EFF0E0E017F10711F481
:104C120053DF02C000930A240E94132728960895A6
:104C2200BA93AA931A93E981FA813196E983FA83B6
:104C32003197E4911E2FE03019F0A12F58DFF3CF06
:104C420018810C94EB26AA932497AC81A03011F022
:104C5200A53031F4E0912724F0912824309709F40B
:104C62004BC0AD81BE811196AD83BE831197E09199
:104C72002724F09128240995EA83AD81BE811196FB
:104C8200AD83BE831197E0912724F09128240995E2
:104C9200EB83AD81BE811196AD83BE831197E09106
:104CA2002724F09128240995E883AD81BE811196CD
:104CB200AD83BE831197E0912724F09128240995B2
:104CC200E983E985EA93E885F985FA93EA93ED8128
:104CD200EA93EC81FD81FA93EA93E3E0EA93EC85AF
:104CE200FD85FA93EA93AD850E94441FEA81EA9317
:104CF200A981BA812BDE04C0E0E0F0E060E070E060
:104D02002A960895BA93AA93AA81BB27F4DDE09369
:104D12000A24A881B98103DEE0930B24F0930C24CA
:104D22000C94EB26BA93AA936627772789919991D7
:104D3200E991F991A991B991009629F001976D91A4
:104D420071916717C9F3671B10F4EFEF0895E0E064
:104D520009F0E3950895BA93AA9399818881009600
:104D620041F0BD81AC81FB81EA8161916D93019734
:104D7200E1F7FD81EC8126960895BA93AA93B98151
:104D8200A881109631F0FC81EB816A8161931197C1
:104D9200E9F7EB81FC8125960895BA93AA93EA81FB
:104DA200E13021F4E881F981E49114C0E23029F480
:104DB200A881B9810E9458280DC0E33041F4A8812E
:104DC200B981E0912724F0912824099503C0A88194
:104DD200B981EC9123960895AA93EB81E03029F4EE
:104DE200E881A981BA81EC9314C0E23031F4E88100
:104DF200A981BA810E9461280CC0E33051F4E98193
:104E0200FA81FA93EA93AA81E0912924F0912A2463
:104E12000995249608955A934A933A932A931A939A
:104E22000A9308955D814C813B812A811981088111
:104E32000895EA0FFB1F681F791F0895AE0FBF1F69
:104E4200861F971F0895EA1BFB0B680B790B0895C9
:104E5200AE1BBF0B860B970B0895EA23FB23682337
:104E620079230895EA2BFB2B682B792B0895EE23E7
:104E72000E2EE8E01E2EFD0151F0011420F0FE2F4F
:104E8200E0E0011821F0EE0FFF1F0A94E1F7089508
:104E9200EE230E2EE8E01E2EFD01BC0179F0011476
:104EA20038F0762F6F2FFE2FE0E00118C1F708953A
:104EB200EE0FFF1F661F771F0A94D1F70895EE23A6
:104EC2000E2EE8E01E2EFD01BC0179F0011438F02F
:104ED200EF2FF62F672F70E00118C1F7089576952E
:104EE2006795F795E7950A94D1F70895EE0FFF1F9E
:104EF200EE0FFF1FEE0FFF1FEE0FFF1F0895F69537
:104F0200E795F695E795F695E795F695E795089571
:104F1200EE0FFF1F661F771F0895E62FF72F60E041
:104F220070E008956E2F7F2FE0E0F0E008956F2F7C
:104F3200660F660B762F0895E095F0956095709553
:104F42000895EA17E1E009F4EE270895EE23E1E07F
:104F520009F0EE270895FA9FF02DEB9FF00DEA9FDE
:104F6200E02DF10D08957A9F702D6B9F700DF89FC3
:104F7200700DE99F700D6A9F602D710DFB9F600D92
:104F8200711DE89F600D711D8827FA9FF02D610D3C
:104F9200781FEB9FF00D611D781FEA9FE02DF10D48
:104FA200681F781F08956E2F6A9FF0016B9FF00DA6
:104FB20008950024112490E1AA0FBB1F001C111CAC
:104FC2000E1A1F0A18F40E0E1F1E01C0A1609A9538
:104FD20099F7FD01D00108953F934F935F93002409
:104FE2001124A00130E2AA0FBB1F881F991F001CC9
:104FF200111C441F551F0E1A1F0A460B570B28F48B
:105002000E0E1F1E461F571F01C0A1603A9559F789
:10501200FD01BC01D001CA015F914F913F910895FA
:10502200ED91FC9111970895ED91FD916D917C9117
:1050320013970895ED91FD916D917D910895ED93F2
:10504200FD936D937C9308957E936E93FE93EE93FE
:105052000895A591B4910895E881F9816A817B81CF
:105062000895A881B9818A819B810895E883F98393
:105072006A837B830895A083B18382839383089597
:105082007A936A93FA93EA9308959A938A93BA93D6
:10509200AA930895182E862F612D192E972F712D00
:1050A2001B2EBF2FF12D1A2EAE2FE12D0895A8959C
:1050B200E091CF01E7FDFBCFB05FEC91B0510895D5
:1050C20023D0B05F8C918E1711F4B05108959E2FAA
:1050D2001BD07F937FB7F8949C93B051A093C001EB
:1050E200B093C10180E08093C20185E38093CA013D
:1050F20088ED91E084BF9093CB0106D080E080934D
:10510200CA017FBF7F910895A8958091CF0187FD45
:10511200FBCF08959927EF93FF9361916D930197C8
:10512200E1F7FF91EF9108959927EF93FF9305908F
:105132000D920197E1F7FF91EF910895309760404A
:105142007040089500240A160B06089500240A16DA
:105152000B06080609060895EA17FB076807790790
:105162000895AE17BF07860797070895109639F07E
:10517200A89580E49FE10197F1F71197C9F7089587
:00000001FF
