:100000000C9458000C9400000C9400000C94000018
:100010000C9400000C941E010C9400000C94000041
:100020000C9400000C9400000C9400000C94000050
:100030000C9400000C9400000C9400000C94000040
:100040000C94FE000C9400000C9400000C94000032
:100050000C9400000C9400000C9400000C94000020
:100060000C9400000C9400000C9400000C94000010
:100070000C9400000C9400000C9400000C94000000
:100080000C9400000C9400000C9400003F065B4FA1
:10009000666D7D077F6F5406397971770638630086
:1000A00000000100000000000A0004009E000000A3
:1000B000F894EE27ECBBF1E0F5BFE5BFE0936C00F0
:1000C0008DE0A2E0BB27ED938A95E9F780E090E10F
:1000D000A0E0B1E0ED930197E9F7E8EAF0E085915F
:1000E0009591009761F0A591B59105901590BF018C
:1000F000F00105900D920197E1F7FB01F0CF8BBF66
:10010000EFEFEDBFE0E1EEBFC0E0D5E00C9488007A
:10011000EFEFE7BBE0EFE0936100EFEFE4BBE5BB9F
:10012000E0E1E9BFE2E0EABFE1E0E7BFE4E0E3BF2E
:10013000E6E0E2BFE0E8EFBF02D0FECFFFCFE0E7AE
:10014000E0936200F401B8D0E0EBE0936200F601C6
:10015000B3D0E0EEB8D0DFD0AFD0E0EDB4D0C8D0AF
:10016000ABD00895B6D00B3FE0E01E07DCF4E0E72B
:10017000E0936200E6E9F0E0B1D0E0EBE0936200EA
:10018000E7E9F0E0ABD0E0EDE0936200E8E9F0E011
:10019000A5D0E0EEE0936200E9E9F0E09FD00F5FC8
:1001A0001F4FE1CF20C095D00B3FE0E01E07DCF4ED
:1001B000E0E7E0936200EAE9F0E090D0E0EBE09362
:1001C0006200EBE9F0E08AD0E0EDE0936200ECE958
:1001D000F0E084D0E0EEE0936200EDE9F0E07ED064
:1001E0000F5F1F4FE1CFE3E6F0E02F01AA24BB240D
:1001F000EFEFEA25E5BB099119910895EA93FA9387
:10020000EFB7EA93E6E0E2BFF30131963F01E8EC95
:10021000F0E0E615F70569F466247724E9E0F0E0FC
:10022000E815F90519F4E1E0F0E002C0F4013196B7
:100230004F01E991EFBFF991E99118950A921A924D
:10024000FA926A937A938A939A93AA93BA93EA93C7
:10025000FA93EFB7EA9364018414950418F44818EC
:1002600059081CC08414950411F47CDF17C048148D
:100270005904A0F4F501309721F4E1E0F0E033D027
:100280000DC0E130A0E0FA0721F4E3E0F0E02BD06C
:1002900005C0E330A0E0FA0709F485DFE991EFBF7C
:1002A000F991E991B991A99199918991799169917E
:1002B000F990199009901895E457FF4F049008BAE7
:1002C000A5E0B0E02BC0E0936200D201EAE0F0E0EC
:1002D00008951A930A9301E010E00895049008BA73
:1002E000A5E0B0E01BC05F01EFEFEA25E5BB089594
:1002F0000024112490E1AA0FBB1F001C111C0E1A30
:100300001F0A18F40E0E1F1E01C0A1609A9599F7DE
:10031000FD01D0010895ECDFFD010895109639F03C
:10032000A89580EA9FE00197F1F71197C9F7089522
:00000001FF
