:020000000C945E
:10000200C7140C9400000C9400000C9400000C9493
:1000120000000C9400000C9400000C9400000C945E
:1000220000000C9400000C9400000C9400000C944E
:1000320000000C9400000C9400000C9400000C943E
:1000420000000C9400000C9400000C9400000C942E
:1000520000000C9400000C9400000C9400000C941E
:1000620000000C9400000C9400000C9400000C940E
:1000720000000C9400000C9400000C9400000C94FE
:1000820000000C9400000C9400000C9400000C94EE
:1000920000000C9400000C9400000C9400000C94DE
:1000A20000000C9400000C9400000C9400000C94CE
:1000B20000000C9400000C9400000C9400000C94BE
:1000C20000000C9400000C9400000C9400000C94AE
:1000D20000000C9400000C9400000C9400000C949E
:1000E20000000C9400000C9400000C9400000C948E
:1000F20000000C9400000C9400000C9400000C947E
:1001020000000C9400000C9400000C9400000C946D
:1001120000000C9400000C9400000C9400000C945D
:1001220000000C9400000C9400000C9400000C944D
:1001320000000C9400000C9400000C9400000C943D
:1001420000000C9400000C9400000C9400000C942D
:1001520000000C9400000C9400000C9400000C941D
:1001620000000C9400000C9400000C9400000C940D
:1001720000000C9400000C9400000C9400000C94FD
:1001820000000C9400000C9400000C9400000C94ED
:1001920000000C9400000C9400000C9400000C94DD
:1001A20000000C9400000C9400000C9400000C94CD
:1001B20000000C9400000C9400000C9400000C94BD
:1001C20000000C9400000C9400000C9400000C94AD
:1001D20000000C9400000C9400000C9400000C949D
:1001E20000000C9400000C9400000C9400000C948D
:1001F2000000050720600000000000000004040465
:10020200040400040A0A0A000000000A0A1F0A1F66
:100212000A0A041E050E140F040313080402191817
:10022200060905021509160604020000000008046A
:10023200020202040802040808080402000A041F59
:10024200040A000004041F04040000000000060465
:10025200020000001F00000000000000060600006F
:100262001008040201000E11191513110E040604E0
:100272000404040E0E11100804021F1F08040810C3
:10028200110E080C0A091F08081F010F1010110E89
:100292000C02010F11110E1F1008040202020E11AE
:1002A200110E11110E0E11111E1008060006060085
:1002B20006060000060600060402100804020408EE
:1002C2001000001F001F0000010204080402010EBA
:1002D2001110080400040E11101615150E0E11113E
:1002E200111F11110F11110F11110F0E1101010127
:1002F200110E070911111109071F01010F01011F39
:100302001F0101070101010E11010119110E111145
:10031200111F1111110E04040404040E1C08080814
:10032200080906110905030509110101010101016D
:100332001F111B1511111111111113151911110E84
:1003420011111111110E0F11110F0101010E1111D5
:10035200111509160F11110F0509111E01010E10B9
:10036200100F1F0404040404041111111111110EC1
:1003720011111111110A0411111115151B1111116D
:100382000A040A111111110A040404041F100804BA
:1003920002011F1C04040404041C000102040810CE
:1003A2000007040404040407040A1100000000000A
:1003B20000000000001F0204080000000000000E00
:1003C200101E111E01010D1311110F00000E01016B
:1003D200110E1010161911111E00000E111F010E20
:1003E2000C12020702020200001E111E100C010173
:1003F2000D131111110400060404040E08000C0868
:100402000809060202120A060A1206040404040477
:100412000E00000B1515111100000D131111110022
:10042200000E1111110E00000F110F010100001634
:10043200191E101000000D1301010100000E010E23
:10044200100F0202070202120C00001111111916FC
:1004520000001111110A040000111115150A000003
:10046200110A040A11000011111E100E00001F08CB
:1004720004021F080404020404080404040404041B
:100482000402040408040402021508000000001F0C
:1004920011111111111F000E206005020406060A37
:1004A20007020404040603040303060606060606FE
:1004B200060606060303060606060B0807070706D6
:1004C20006080702050706080708060807070607C1
:1004D200080B0708070303030506040606060606BB
:1004E20004060602020502080606060604060306BC
:1004F200060A0606060402040608000000000000C0
:1005020000000000000000000000000101010101E4
:1005120001000100000000000005050500000000C8
:100522000000000000000014141F0A0A1F05050045
:1005320000000000000E15050E1414150E04000034
:100542000000000000004600290029001600D0002B
:1005520028012801C4000000000000000000000C77
:1005620012120C0A31112E000000000000010101DC
:100572000000000000000000000000040201010170
:100582000101010204000000000102040404040449
:100592000402010000000002070205000000000042
:1005A2000000000000000004041F0404000000001A
:1005B2000000000000000000000002020200000033
:1005C2000000000000000700000000000000000022
:1005D200000000000000020000000000000404020D
:1005E20002020201010000000000000E11111111AF
:1005F20011110E00000000000004060504040404AA
:10060200040000000000000E1110100804021F0078
:1006120000000000000E11100C1010110E0000005E
:10062200000000080C0A0A091F0808000000000068
:10063200001E02010F1010110E0000000000000E3B
:1006420011010F1111110E0000000000001F080817
:1006520004040202020000000000000E11110E113B
:1006620011110E0000000000000E1111111E1011D8
:100672000E00000000000000000100000000010068
:100682000000000000000001000000000101010064
:100692000000000000100E010E100000000000001B
:1006A200000000001F001F0000000000000000000A
:1006B20000010E100E01000000000000000E1110DB
:1006C2000804040004000000000000000000F8001C
:1006D2000601B202C902450245026501D9000202C1
:1006E200FC01000000000008141414223E414100E5
:1006F20000000000001F21213F2121211F000000D6
:100702000000001C2201010101221C000000000067
:10071200000F1121212121110F0000000000001FF4
:1007220001011F0101011F0000000000001F010163
:100732000F010101010000000000001C22410171B3
:1007420041221C0000000000002121213F21212123
:10075200210000000000000101010101010101006E
:100762000000000000080808080809090600000047
:100772000000002111090D0B1111210000000000E1
:1007820000010101010101011F0000000000004100
:100792006363555555494900000000000021232597
:1007A20025292931210000000000001C224141417D
:1007B20041221C0000000000000F1111110F010165
:1007C200010000000000001C2241414159225C004E
:1007D20000000000001F21211F091111210000004B
:1007E2000000001E2101061820211E00000000004A
:1007F200001F04040404040404000000000000219B
:100802002121212121211E0000000000004141225E
:100812002214140808000000000000000000210457
:100822005104520252028A028A02040104010000A7
:10083200000000000000002112120C0C1212210014
:1008420000000000004122221408080808000000ED
:100852000000003E1008080404023F0000000000EF
:100862000003010101010101010103000000000177
:10087200010202020204040000000000000302025E
:100882000202020202020300000000040A0A11002E
:100892000000000000000000000000000000000056
:1008A20000003F0000000001020000000000000004
:1008B200000000000000000E111E111916000000B9
:1008C20000000001010D131111130D0000000000C2
:1008D2000000000E110101110E00000000000010C6
:1008E2001016191111191600000000000000000E68
:1008F200111F01110E000000000000040207020295
:100902000202020000000000000000161911111975
:1009120016100F0000000001010D1311111111003A
:1009220000000000000100010101010101000000BE
:1009320000000002000202020202020201000000A4
:10094200000101090503050509000000000000017E
:100952000101010101010100000000000000003D51
:100962004B4949494900000000000000000F1111E5
:1009720011111100000000000000000E11111111F0
:100982000E00000000000000000D131111130D01F4
:1009920001000000000000161911111916101000B4
:1009A2000000000000050301010101000000000039
:1009B2000000000E110608110E00000000000002E7
:1009C20002070202020206000000000000000011FD
:1009D2001111111916000000000000000011110A87
:1009E2000A040400000000000000000000000000F3
:1009F20011012901AA00AA004400440000000000DD
:100A020000000000000000110A04040A11000000A6
:100A1200000000000011110A0A0404040200000090
:100A22000000001F080404021F0000000000000470
:100A3200020202010202020204000000000101019E
:100A42000101010101010100000000020404040887
:100A5200040404040200000000000000170D00005E
:100A620000000000000000007E42424242427E003E
:100A72000000000E206005030506060908030404B1
:100A82000406030403030606060606060606060611
:100A92000303060606070B080708070606080703EE
:100AA2000607070A0708070807070707080B0808C9
:100AB20007040304060604060706070705070703DB
:100AC2000307030B0707070705070507070A0707B9
:100AD20006040304060800000000000000000000F5
:100AE20000000000000000030303030300030300EF
:100AF20000000000001B1B1B0000000000000000A3
:100B020000000024243F12123F09090000000000E7
:100B1200040E15050F1E14150E040000000000003F
:100B220000002700250015001700E800A800A40017
:100B3200E4000000000000000000001C36360C5EDD
:100B420073337E0000000000000303030000000076
:100B52000000000000000004060303030303020672
:100B6200040000000001020206060606020301005C
:100B72000000000207020500000000000000000063
:100B820000000004041F0404000000000000000034
:100B9200000000000003030201000000000000004A
:100BA200000007000000000000000000000000003C
:100BB200000303000000000000040402020202011C
:100BC200010000000000000E1B1B1B1B1B1B0E0064
:100BD20000000000000C0E0F0D0C0C0C0C000000AD
:100BE2000000000E1B18180C06031F000000000076
:100BF200000E1B180C18181B0E0000000000001835
:100C02001C1A1A193F18180000000000001E0603E3
:100C12000F19181B0E0000000000000E1B030F1B13
:100C22001B1B0E0000000000001F180C0C0606061D
:100C3200060000000000000E1B1B0E1B1B1B0E00FB
:100C420000000000000E1B1B1B1E181B0E000000E4
:100C52000000000000030300000303000000000086
:100C62000000000303000003030201000000000073
:100C7200100C03030C100000000000000000000034
:100C82001F001F00000000000000000001061818ED
:100C92000601000000000000001C3630180C000C99
:100CA2000C000000000000000000F8000601FA023B
:100CB200C902450245026501FA000603F800000078
:100CC20000000038386C6C6CFEC6C60000000000E4
:100CD200001F33331F3333331F0000000000003C7A
:100CE2006603030303663C0000000000001F333369
:100CF200333333331F0000000000001F03031F03C0
:100D020003031F0000000000001F03031F0303036F
:100D1200030000000000003C6603037363663C00AE
:100D220000000000003333333F333333330000001D
:100D32000000000303030303030303000000000099
:100D4200001818181818181B0E00000000000033B5
:100D52001B1B0F1F1B3333000000000000030303A3
:100D6200030303033F000000000000000000C7016E
:100D7200C701EF01EF01AB01BB01BB019301000011
:100D820000000000000000333337373B3B333300B1
:100D920000000000001C3663636363361C00000021
:100DA2000000001F3333331F030303000000000061
:100DB200001C366363636B363C4000000000001F7A
:100DC2003333331F1B33630000000000001E330364
:100DD2000F3C30331E0000000000003F0C0C0C0CD6
:100DE2000C0C0C0000000000003333333333333378
:100DF2001E0000000000006363363636361C1C00FD
:100E0200000000000000000023067306760356036C
:100E12005603DE038C018C0100000000000000007C
:100E22000066663C18183C6666000000000000661A
:100E320066243C181818180000000000003F301803
:100E42000C0C06033F00000000000007030303032D
:100E5200030303030700000000010102020202046F
:100E62000400000000000007060606060606060645
:100E72000700000000040E0A1B0000000000000032
:100E82000000000000000000000000003F00000021
:100E92000003060000000000000000000000000047
:100EA200000E191E1B1B1E00000000000003031F82
:100EB200333333331F00000000000000000E1B0319
:100EC200031B0E00000000000030303E333333338A
:100ED2003E00000000000000001E333F03331E00EE
:100EE20000000000001C060F0606060606000000B1
:100EF20000000000003E333333333E311E00000059
:100F02000003031F333333333300000000000003B8
:100F120000030303030303000000000000060006B1
:100F220006060606060603000000000303331B0F35
:100F32001F1B33000000000000030303030303032D
:100F42000300000000000000000000000000FF019C
:100F52003303330333033303330300000000000081
:100F620000000000001F3333333333000000000061
:100F72000000001E333333331E0000000000000067
:100F8200001F333333331F03030000000000003E11
:100F9200333333333E30300000000000000F0303D0
:100FA20003030300000000000000001E330F3C3367
:100FB2001E00000000000004060F060606060C00D4
:100FC2000000000000000033333333333E000000E2
:100FD2000000000000363636361C1C0000000000FF
:100FE20000000000000000009301BB01BB01EE0005
:100FF200EE00C60000000000000000000000003605
:10100200361C1C3636000000000000000063363635
:10101200361C1C0C070000000000001F180C060301
:101022001F0000000000000C060606060306060666
:101032000C0000000002020202020202020202008E
:1010420000000003060606060C0606060300000062
:101052000000000016090000000000000000007EF1
:101062004242424242427E000000070E20600000DF
:10107200000000000000000000000000000000006E
:101082000808080808000800000000000000141406
:1010920014000000000000000000000028143E14AC
:1010A200143E140A000000000000081C020C100E7E
:1010B2000404000000000000040A041E08140800D2
:1010C200000000000000001804041A123C00000096
:1010D20000000000080808000000000000000000F6
:1010E200000010100808080810100000000000009E
:1010F2000404080808080404000000000000083E78
:101102000814000000000000000000000808083E6B
:1011120008080800000000000000000000000000B5
:10112200180C0400000000000000003E0000000057
:101132000000000000000000000000000C000000A1
:101142000000000020101008080404020000000043
:1011520000001C22222222221C00000000000000AB
:101162000C08080808083E000000000000001C22CD
:10117200100804023E000000000000001C2220189B
:1011820020221C00000000000000101814123E1063
:1011920038000000000000003C04041C20221C0057
:1011A2000000000000003804021E22221C00000081
:1011B200000000003E22201010080800000000007D
:1011C20000001C22221C22221C0000000000000041
:1011D2001C22223C20100E00000000000000000033
:1011E2000C0000000C0000000000000000001800CD
:1011F20000180C040000000000000020180618204F
:10120200000000000000000000003E003E00000060
:1012120000000000000000020C300C020000000080
:10122200000000000C12100808000C000000000072
:1012320000001C22322A2A32023C00000000000078
:101242000C0814141C2277000000000000001F226A
:10125200221E22221F000000000000003C22020287
:1012620002221C000000000000000F1222222212A3
:101272000F000000000000003E24141C14243E0055
:101282000000000000003E24141C14040E000000A4
:10129200000000003C22020272221C00000000003A
:1012A20000007722223E2222770000000000000088
:1012B2003E08080808083E000000000000003C103C
:1012C200101012120C000000000000007722120E13
:1012D200122267000000000000000E04040424240F
:1012E2003E000000000000007736362A22227700F6
:1012F2000000000000007726262A2A32370000006C
:10130200000000001C22222222221C0000000000F9
:1013120000001E2424241C040E0000000000000013
:101322001C22222222221C380000000000001E245F
:1013320024241C244E000000000000002C32021C59
:1013420020221E000000000000003E2A08080808B3
:101352001C000000000000007722222222221C0032
:101362000000000000007722221214140C0000007A
:101372000000000077222A2A2A2A14000000000016
:101382000000632214081422630000000000000021
:101392007722140808081C000000000000003E220A
:1013A200100804223E00000000000000180808088F
:1013B20008080818000000000000020404080808D9
:1013C20010100000000000000C0808080808080CB3
:1013D20000000000000008142200000000000000CD
:1013E200000000000000000000000000007F00007C
:1013F20000000408000000000000000000000000DF
:1014020000001C223C227E000000000000000302BB
:101412001A2622221F0000000000000000003C22C9
:1014220002023C0000000000000030202C32222288
:101432007C0000000000000000001C223E023C0074
:1014420000000000000030083C0808083C000000D2
:101452000000000000006C3222223C201C00000030
:10146200000003021A26222277000000000000007A
:1014720008000E0808083E000000000000000800F6
:101482001E10101010100E000000000003023A128D
:101492000E123B000000000000000C0808080808BB
:1014A2003E000000000000000000172A2A2A7F00E8
:1014B20000000000000000001B262222770000002E
:1014C2000000000000001C2222221C00000000007C
:1014D200000000001B2622221E020700000000005E
:1014E20000006C3222223C2070000000000000004C
:1014F200360C04041E0000000000000000003C0244
:101502001C201E0000000000000000021F02022238
:101512001C000000000000000000332222326C0098
:101522000000000000000000772212140C000000EE
:1015320000000000000077222A2A140000000000A8
:1015420000000000361408143600000000000000FD
:1015520000007722141408080E00000000000000AA
:101562003E1208243E000000000000001008080897
:101572000C08080810000000000008080808080805
:1015820008080000000000000408080818080808FD
:101592000400000000000000002C1A0000000000FF
:1015A200000000003F21212121213F000000000E08
:1015B2002060070707070707070707070707070747
:1015C20007070707070707070707070707070707A9
:1015D2000707070707070707070707070707070799
:1015E2000707070707070707070907080707070786
:1015F2000708070707070707070707070707070976
:101602000707070707070707070907080707070765
:1016120007070000000000000000000000000000BA
:10162200000000000C0C0C0C0C000C000000000070
:101632000000141414000000000000000000003636
:1016420036367F367F3636360000000000083C26EC
:10165200061C30321E080800000000000609293E60
:101662004A4830000000000000001C0606371D1921
:101672003E00000000000000080808000000000012
:1016820000000000000010180C0C0C0C18100000D8
:1016920000000000040C181818180C0400000000C8
:1016A2000000187E18240000000000000000000066
:1016B2000008083E080800000000000000000000CA
:1016C2000000000008040400000000000000003ECA
:1016D2000000000000000000000000000000000008
:1016E2000C000000000000303018181C0C0C06061C
:1016F2000000000000001C36363636361C000000A2
:1017020000000000181E181818187E0000000000C3
:1017120000001C3630180C063E00000000000000DD
:101722001C32301C30321C00000000000000181C6B
:101732001A193F183C000000000000003E061E324D
:1017420030321C00000000000000380C061E363645
:101752001C000000000000003E3230301818180053
:101762000000000000001C36361C36361C0000004B
:10177200000000001C36363C30180E00000000004D
:10178200000000000C0000000C000000000000003F
:1017920000000C00000804040000000000002018F3
:1017A20004030418200000000000000000007F0075
:1017B2007F000000000000000000020C1060100C0E
:1017C20002000000000000001C36301C0C000C005F
:1017D2000000000000001E2139253901211E0000F1
:1017E200000000001F1C36363E3677000000000065
:1017F20000001F36361E36361F00000000000000B3
:101802003E23030303231E000000000000001F36D6
:10181200363636361F000000000000003F26161E36
:1018220016263F000000000000003F26161E160686
:101832001F000000000000003E2303037B333E0034
:101842000000000000007736363E36367700000092
:10185200000000003F0C0C0C0C0C3F0000000000CC
:1018620000007C30303033331F00000000000000E5
:101872007726160E1E366F000000000000000F06CD
:10188200060626263F0000000000000063363636BA
:101892002A2A770000000000000073262E2A3A321E
:1018A20027000000000000001E33333333331E00D4
:1018B2000000000000001F3636361E060F00000032
:1018C200000000001E33333333331E3C000000009F
:1018D20000001F36361E16366F00000000000000A2
:1018E2003C26061C30321E000000000000003F2D86
:1018F2002D0C0C0C1E00000000000000773636365E
:1019020036361C0000000000000077363636141C04
:101912001C0000000000000000000000EF01C600F3
:10192200D600D6005C006C006C00000000000000D5
:101932000000000077361C1C1C36770000000000F7
:101942000000F7663C1818183C0000000000000078
:101952003E321A182C263E000000000000003C0C0B
:101962000C0C0C0C0C3C00000000000307060E0CD3
:101972001C1838300000000000001E181818181833
:10198200181E0000000000000814220000000000E1
:10199200000000000000000000000000000000FF46
:1019A2000000000408000000000000000000000029
:1019B200000000001E303E337E00000000000000E8
:1019C20007063E6666663F00000000000000000059
:1019D2003E2303231E0000000000000038303E3387
:1019E20033337E0000000000000000001E333F037E
:1019F2003E00000000000000380C3E0C0C0C3E00C3
:101A020000000000000000007E3333333E301E0031
:101A12000000000007061E36363677000000000080
:101A220000000C000F0C0C0C3F0000000000000036
:101A32000C001F18181818180F00000000000706E5
:101A4200361E1E3667000000000000000F0C0C0C52
:101A52000C0C3F000000000000000000000000002D
:101A620000007F00D600D600D600D701000000009B
:101A720000000000000000001F363636770000002C
:101A82000000000000001E3333331E00000000007F
:101A9200000000003F6666663E061F000000000070
:101AA20000007E3333333E307C0000000000000033
:101AB200372E06061F0000000000000000003E2333
:101AC2001E311F0000000000000006061F06062649
:101AD2001C000000000000000000373636367C0093
:101AE20000000000000000007736141C1C000000FB
:101AF200000000000000000000000000EF01D6001E
:101B0200D6006C006C000000000000000000000025
:101B1200000077361C36770000000000000000004D
:101B2200EE6C2818180C1F000000000000003E1A7E
:101B32000C263E000000000000001C0C0C0C060CE1
:101B42000C1C0000000000000C0C0C0C0C0C0C0C0B
:101B52000000000000000E0C0C0C180C0C0E000013
:101B62000000000000000026190000000000000034
:101B720000003F21212121213F00000000132060AD
:101B82000607050C080A0C030908090D04060308D8
:101B92000807080707080908080705060D0D0D08BC
:101BA200100F0E0D0D0A0F0B100D0E100D0F0E0C57
:101BB2000D0D100E0E120E110E0E0C0B050B100851
:101BC200080A09080A080B0C0B080C0A070F0C0973
:101BD2000D0A0808070B090E080C0B0808080D0A65
:101BE20000000000000000000000000000000000F3
:101BF2000000000000000000004060201008000CFF
:101C02000C00000000000000000A0A0A0A0A000094
:101C1200000000000000000000000000000000C002
:101C22000440022002FC0F20011001FE078800C8B8
:101C32000048004400000000000000000000000016
:101C420000000000606038F4EC182F271E03030028
:101C52000000000000000000000000000000000082
:101C62009C005E007A00AE03D0024801C40100006D
:101C72000000000000000000000000000000000062
:101C820000000000700C580F4801A8045003F8002F
:101C920048003800000000000000000000000000C2
:101CA2000002020202020000000000000000000028
:101CB2000000000000000000000001800040002041
:101CC200001000180008000C0004000400020002CA
:101CD20000020002000000000000008080808040BE
:101CE20040602030100804020100000000000000E3
:101CF200000080006001C000B00020000000000071
:101D020000000000000000000000000000000000D1
:101D12000000000000000000000040004000400001
:101D22004000FC074000400040004000000000006E
:101D320000000000000000000000000000000000A1
:101D420000000C0C04030000000000000000000072
:101D5200000000003C000000000000000000000045
:101D62000000000000000000060600000000000065
:101D72000000008040202010080804020201000038
:101D8200000000000000000000E0988C4662320C67
:101D92000000000000000000000000004060383435
:101DA20012180C000000000000000000000000708B
:101DB200CCC4201C5C3A00000000000000000000BF
:101DC2000000784C503020331F000000000000005B
:101DD200000000000030184824123F0C0C000000E4
:101DE2000000000000000000E018083448603E00D7
:101DF20000000000000000000000000000000000E1
:101E02000000E001B8010C007E00460062001C00E8
:101E120000000000000000000000000000000000C0
:101E220000F04C203018080C0C00000000000000EC
:101E320000000000F088987866423C000000000034
:101E420000000000000000384C647C301B070000DA
:101E5200000000000000000000000000181800064A
:101E6200060000000000000000000000000000303A
:101E720030000C0C04030000000000000000000011
:101E82000000000004800360001C001C0060008051
:101E92000300040000000000000000000000000039
:101EA20000000000000000000000000000FC07002D
:101EB200000000FC0700000000000000000000001D
:101EC200000000000000000000000000000000040C
:101ED200003800C00000070007C0003800040000FE
:101EE20000000000000000000000000000000000F0
:101EF20000F088F82818000C0C0000000000000018
:101F020000000000C00F30180820844BC444424433
:101F12002244224622222233C41C0C101818E00745
:101F22000000000000000000000000000040003837
:101F3200002400127019900C506D271753178F0F41
:101F4200000000000000000000000000000000008F
:101F52000000800F701888248436440E38138011D4
:101F62008619C60B62073C0000000000000000005A
:101F72000000000000000000701C18138809C4084B
:101F82006406A401D80750041002E001000000001A
:101F92000000000000000000000000000000C0037C
:101FA200301C080C8C1684124413B81180095C048E
:101FB200FC03000000000000000000000000000020
:101FC20000000000C0016002A003A001E0001C00AC
:101FD200E6009600C6003C00000000000000000081
:101FE20000000000000000000000000FC078200583
:101FF2001005901BF0060007C0078C017C00000052
:1020020000000000000000000000000000000000CE
:102012000007F004C80464022401A402F8031801B2
:102022008801F00000000000000000000000000035
:1020320000000000000000E06092D849E82D801CFA
:10204200C002E333730931051E03000000000000E3
:10205200000000000000000000000000001E8005DB
:1020620040022003100590059603E60042003C0062
:10207200000000000000000000000000000000005E
:102082000000003C800BC004200210031001B001CC
:10209200C000F0036C026201B100190007000000E9
:1020A200000000000000000000C000246012380997
:1020B200E4078065C0244316630E1F06000000007B
:1020C2000000000000000000000000000000C01D31
:1020D2003012181388098805C803F00840062E013B
:1020E200DE00000000000000000000000000000010
:1020F20000000000001A80090009C00FA006A065B8
:102102009027CE12C90A4706000000000000000016
:102112000000000000000000000000060003802212
:102122008012400A400A2606230611060E0200000B
:10213200000000000000000000000000000000009D
:10214200000FC008200FB00458042C021C038C019D
:10215200C400380000000000000000000000000081
:10216200000000000000C007301888148412441BCD
:102172003C07E001C60062003C00000000000000D5
:10218200000000000000000000000000C003300654
:1021920098068806C403641BBC0980045E02EE0133
:1021A200000000000000000000000000000000002D
:1021B2000000800F7070884C8466C41F3C8F804D75
:1021C200CE6FE2163C0E000000000000000000008E
:1021D2000000000000000000803B60243026101345
:1021E200100BB007E001800066003E000000000016
:1021F2000000000000000000000000000000802736
:10220200601890048802C803C803F603C601E200FE
:102212007C00000000000000000000000000000040
:102222000000000000000000808301E0C401B0C48F
:1022320000906600C87300483303B8BB00C09D001D
:10224200406A00C019000000000000000000000009
:10225200000000000000000000000000000032301A
:1022620009EC09B404C004C0026001A0006000309F
:10227200000000000000000000000000000000005C
:1022820000000000000000C041003022005822007F
:10229200489A01645900242D009C1B00C014007050
:1022A2000C0010040000000000000000000000000C
:1022B200000000000000000000000000C0013032F9
:1022C200583E4806640324039C19C005EE049E028E
:1022D200800100000000000000000000000000007B
:1022E2000000E0201811AC09F40C7C066007E00342
:1022F2001C039C01780000000000000000000000A8
:1023020000000000000000007804C4030201020182
:1023120082008000F80CB8028001E0007C002300FB
:102322001900070000000000000000000000000784
:1023320000018000C0004000600020001000180072
:102342000800040004000200070000000000000072
:1023520010101010101010101010100000000000CB
:1023620000000000000000000700020001000180E0
:102372000080004000200020001000180008000427
:102382000007000000000000000000800140022061
:102392000418180000000000000000000000000007
:1023A200000000000000000000000000000000002B
:1023B200000000000000000000000000FF0000001C
:1023C20000000000202000000000000000000000CB
:1023D20000000000000000000000000000000000FB
:1023E2000000007C002603B3005900370000000003
:1023F20000000000000000000000000000000000DB
:102402000060003000100018002C00B601560022B7
:10241200001E00000000000000000000000000009C
:10242200000000000000383CC6320E000000000030
:102432000000000000000000000000030001800016
:10244200C0005C006603B3005900370000000000C2
:102452000000000000000000000000000000001C5E
:10246200D23F190F00000000000000000000000031
:1024720000000000068005C002E00130063001982D
:1024820000580038000C000400060002000300009F
:10249200000000000000000000000000000000003A
:1024A20000F001980C4C02E4017C0030001E00197F
:1024B20000090007000000000000000000000020EA
:1024C200003000180018006C0054066E01B600734C
:1024D20000000000000000000000000000000000FA
:1024E2000020200018CC2E120E0000000000000078
:1024F20000000000000000000000000200020000D6
:102502000001800CE002C001E000380034001B0032
:102512000900070000000000000000000000600049
:1025220030001000180068002E03B600520033007D
:102532000000000000000000000000000000006039
:102542003018186C26160A06000000000000000071
:102552000000000000000000000000000000006811
:1025620006DE67EC136E0D37070000000000000066
:102572000000000000000000000000000000000059
:102582000000000000C800EE0C7C02AC01670000F5
:102592000000000000000000000000000000000039
:1025A20000000000000000000000003800AC0156EE
:1025B200003A0006000000000000000000000000D9
:1025C2000000000000000000008000C00040006029
:1025D20000A001701998045802C8010C00040006FA
:1025E20000020003000000000000000000000000E4
:1025F200000000000000007C00360393005D003FF5
:10260200001C0014001E000A00060000000000006A
:10261200000000001CDA2C140C0000000000000076
:102622000000000000000008CE281D070000000086
:1026320000000000000060207018086E160A0600F4
:102642000000000000000000000000000000000088
:10265200000000000000EC00640636019A007600DB
:102662000000000000000000000000000000000068
:102672000000000000000000000000002801BE0071
:102682005C0022001E0000000000000000000000AC
:102692000000000000000000000000000000000038
:1026A2000000D807EE36761A2A0EE6010000000076
:1026B2000000000000000000000000000000002CEC
:1026C200DA282D1B000000000000000000000000BE
:1026D20000000000000000000000009801D40C7807
:1026E20002FC016C00380016001900090007000006
:1026F20000000000000000000000000000000000D8
:1027020000DC00780690015C0020003800360019D9
:10271200000D00070000006010101010100C1810BF
:1027220010101010600000000000101010101010A7
:1027320010101010101010101010000000060808E1
:1027420008080830180808080808060000000000F9
:1027520000000000000000000000000000003C0239
:10276200C2010000000000000000000000000000A4
:1027720000000000000000000000FE010201020152
:10278200020102010201020102010201020102012F
:1027920002010201FE0100000000010D1925313D78
:1027A2004955616D79859DA9B400AA55AA55AA55C6
:1027B200AA552800390A391E2828171E170A280088
:1027C2001027E80364000A00010000100001100055
:1027D2000100000103070F1F3F7FFF000000000000
:1027E200000091FFFF0080DF0F00000053534431CF
:1027F2003332322047726170686963732044656DB9
:102802006F0A466F6E742073616D706C65733A0067
:102812005374616E64617264203578370041726965
:10282200616C2031340A00417269616C20426F6C24
:102832006420313400436F757269657220377831D4
:10284200340A00436F757269657220426F6C6420AE
:1028520031340053637269707420313900566172E9
:102862002E20746578742073706163696E673A0A0A
:1028720000535344313332322044656D6F0A0053A2
:102882005344313332322044656D6F00536F6D65AE
:10289200206C696E65207374796C65733A004669C1
:1028A2006C6C00496D616765207761732073617696
:1028B200656420746F0A454550524F4D004369725A
:1028C200636C6573202620617263730052656374C2
:1028D200616E676C657320260A66696C6C6564209C
:1028E20062617200526F756E646564007265637432
:1028F200616E676C65005069650A736C6963653A5D
:10290200005075740A696D6167650A66726F6D0AB7
:10291200454550524F4D3A00446973706C617920BD
:10292200636F6E74726173740A636F6E74726F6C2C
:102932003A20256400456E746572696E6720706F77
:102942007765722D736176650A6D6F64652E2E2E22
:102952002020202020004578697420706F776572EE
:102962002D73617665206D6F64650A20202020201A
:10297200202020202020000001002D4E414E004941
:102982004E4600000100A4287A290000F894EE27A0
:10299200E8BFE9BFEABFF091CC01F860F093CC0147
:1029A200F8EDF4BFE093A200E0934004A091800010
:1029B200AD7FA160F4BFA093800080E090E2A0E030
:1029C200B0E2ED930197E9F7E6E8F9E28591959196
:1029D200009761F0A591B59105901590BF01F001A6
:1029E20005900D920197E1F7FB01F0CF8BBFE0E07C
:1029F200E0B9E1B9E2B9E3B9E4B9E5B9E6B9E7B9F1
:102A0200E8B9E9B9EAB9EBB9ECB9EDB9EEB9EFB9A0
:102A1200EFEFEDBFEFE3EEBFC0E0D8E20C9450154C
:102A22001A930A930FB7F894E0915000E460E09390
:102A32005000E0915100E470E1F3E0915000E26057
:102A4200E0935000E0914100E0781E2FE8EDE4BFF2
:102A520010934100E0915600EC7FE0935600E09124
:102A62006000E160E0936000E0915100E270E1F308
:102A7200E0914000E87FE1601E2FE8EDE4BF109393
:102A82004000E0915000E67EE0935000E091B400F7
:102A9200EC7FE093B4000FBF099119910895EF976D
:102AA2006097BEDFE4EFF1E0DE01A05CBF4FED9383
:102AB200FC93E0E0DE01AE5BBF4FED93EC93DE01F1
:102AC200AC5BBF4FED93EC930E94DC28E07FE160AA
:102AD200EC930E94DC28EF70E0690E94E328EF602B
:102AE2000E94E328E06F0E94EB28EF610E94EB282E
:102AF200E06EEC93E0E7DE01A75BBF4FEC930E9430
:102B0200F328E160EC930E94F328E260EC930E94C8
:102B1200F328EB7FEC930E94F328E860EC930E9489
:102B2200F328EF70E068EC93EFEDDE01A55BBF4F99
:102B3200EC930E94FA28EF60EC930E94FA28EF7C53
:102B4200EC930E94FA28EF73EC93ECE9F7E2DE01D2
:102B5200A35BBF4FED93FC93DE01A05CBF4FE6D3B6
:102B6200AEEEB7E20E942E20E0E0EA93E4E1EA93BF
:102B7200A2E1B8E20E942320E8E9F4E00E940129E0
:102B82000E940629AFE1B8E20E942320E4E7FAE0BE
:102B92000E940129A9E2B8E20E940B29ECE6F0E1C9
:102BA2000E940129A7E3B8E20E941329A5E4B8E232
:102BB2000E942E20EEE7FBE10E9401290E940629D5
:102BC200A5E5B8E20E942320A0EABFE00E941829EE
:102BD200E4EFF1E00E940129AFE5B8E20E94132977
:102BE200A3E7B8E20E942E20E2E00E941C29A3E79C
:102BF200B8E20E942E20E3E00E941C29A1E8B8E27C
:102C02000E940B29E1E00E941C29E4EFF1E00E94FE
:102C12000129AEE8B8E20E942E20E0E0EA93EAE061
:102C2200EA93EFE7EA93AAE00E94B420E1E00E946F
:102C32002029E0E0EA93EFE0EA93EFE7EA93AFE0DE
:102C42000E94B420E1E00E942629E4E1EA93EFE742
:102C5200EA93A4E10E94B420E2E00E942E29E9E175
:102C6200EA93EFE7EA93A9E10E94B420E2E00E942E
:102C720020290E940629EFE7EA93AEE10E94B420E0
:102C8200E2E00E942629E3E2EA93EFE7EA93A3E275
:102C92000E94B420E4E00E942E29E8E2EA93EFE7E2
:102CA200EA93A8E20E94B420E4E00E942029E0E036
:102CB200EA93EDE2EA93EFE7EA93ADE20E94B420F1
:102CC200E4E00E942629E2E3EA93EFE7EA93A2E333
:102CD2000E94B4200E9436290E943929E7E0EA9333
:102CE200A4EBB7E20E9469220E944029E0E3EA9342
:102CF200E8E1EA93A1E00E943C26E0E0E0930028AC
:102D0200EFE0E0930128EEE1EA93E1E1EA93A0EA41
:102D1200B8E20E942320E6E1EA93E0E0EA93E5E2EA
:102D2200EA93E9E2EA93A1E0B0E00E9467200E9400
:102D320044290E944B29A5EAB8E20E945029E5E104
:102D42000E945329E5E10E945929E8E7F0E0FA934D
:102D5200EA93AFE00E94F424E3E0E0930A28EFEF65
:102D6200E0930B28EFE30E945329EFE30E945929D5
:102D7200E2EDF0E0FA93EA93AFE00E94F4240E94BD
:102D82004B29AFEBB8E20E945029E1E00E942E29C4
:102D92000E946129E3E0E0930A28E3E3E0930B2831
:102DA200EAE2EA930E946129ECEAF7E2FA93EA93F3
:102DB200A4E00E94D925EEE0EA93EDE1EA93E6E48D
:102DC200EA93ACE20E942A260E944B29AEECB8E2BA
:102DD2000E945029E5E0EA93EA93EAE4EA93E6E204
:102DE200EA93A8E00E94FE21E0E1EA93EA93A6EECC
:102DF200B8E20E942320E0E1EA93E8E1EA93AEEE32
:102E0200B8E20E9450290E943929A8EFB8E20E9434
:102E12002E20ECE3EA93E7E1EA93EEE1F0E0FA93A5
:102E2200EA93ECE2F1E0FA93EA93A4E10E946E25C0
:102E32000E943629A3E0B9E20E942E20E8E3EA9339
:102E4200E0E0EA93E1E0F0E0FA93EA93A0E00E9486
:102E520039200E94402910E01038F0F4FE01FA9364
:102E6200EA93EAE1F9E2FA93EA93E12FFF27662770
:102E720077270E94E22D84E09ED128960E9468293D
:102E8200DE0112960E941520A12F48D2A2E3B0E0E3
:102E92000E94A42B1F5FE0CF0E9440290E94682954
:102EA200A7E3B9E20E9423200E944029A0E023D791
:102EB200A0EDB7E00E94A42BA1E01DD70E946829D3
:102EC200A8E5B9E20E942320EF966096FFCFBA935D
:102ED200AA931A930A93AA81BB8112960E94CB2DC0
:102EE200309759F1AA81BB8114960E94CB2D8F0194
:102EF200309761F00230E0E01E0798F0F801319758
:102F02008F01AA81BB811496ED93FC93AA81BB81A8
:102F120012960E94CB2D3196ED93FC933197AC81A2
:102F2200A083AA81BB810E94CB2DFF232AF00E949D
:102F3200CB2D3196ED93FC9306C0AA81BB81EFEFB6
:102F4200FFEFED93FC931981088125960895BA93BA
:102F5200AA9326970E945B2E10E0AC85BD85E0E027
:102F6200F0E0ED93FC93EA89FB893196EA8BFB8BC7
:102F72003197E4912E2FE03009F415C1E12FE030B2
:102F820039F4253211F411E002C00E946D290AC100
:102F9200E130A9F4253219F40E946D2902C112E030
:102FA20040E000E02D3211F401E0FCC02B3211F4BC
:102FB2004BE2F8C0203211F440E2F4C002C0E23029
:102FC20039F450E013E0203311F40068EBC003C081
:102FD200E33009F0E7C0203310F02A3308F007C0CD
:102FE200AAE05A9F502DE22FE0535E0FDBC0E22F82
:102FF200E33649F40E947429E889F989A481AA93E5
:103002000E947A29CEC0E33741F40E9474290E94BB
:1030120080290E94E4261E2F0AC0E03761F40E9434
:1030220074290E9480290E94F0261E2F08600260E7
:103032000F7730E034C0E43611F0E93611F4046061
:1030420002C0E53731F4E2ECF7E2EE83FF8315E0EC
:103052000CC0E83511F4086003C0E83709F0A1C0DC
:10306200ECECF7E2EE83FF8314E002FF14C00E944F
:1030720074290E948A29AB85AA233AF4EA85FB8542
:103082000E945B2DEA87FB874DE2403011F01F5F03
:1030920001C00B7F04C00E9474290E948A2900FD8E
:1030A20011C0151778F407FF08C002FF04C00B7F98
:1030B200242F115001C020E301C020E20E946D299B
:1030C2005150EFCF312F01FF17C03030A1F003FF75
:1030D20006C0EE81FF812591EE83FF8305C0AE819C
:1030E200BF812D91AE83BF830E946D29503009F0BC
:1030F20051503150EACF4BC020E3EE81FF810E9454
:10310200CF2DE887F987EE81FF813296EE83FF8328
:10311200E885F985AA85BB85AE17BF0750F02F5FFA
:10312200A885B985EA85FB85EA1BFB0BEA87FB8745
:10313200EFCF2A3328F003FF02C0295F01C0295DC7
:1031420004FD1AC0213320F4A885B985119709F42A
:1031520009C0531710F000FF01C013C020E207FF9F
:103162000BC020E3006102FF07C00B7F4A930E945D
:103172007A29503009F051500E946D29503009F0DF
:1031820051503150A885B985129708F0B5CF00FF8C
:1031920008C0503031F05150E0E2EA930E947A299F
:1031A200F8CF10E0E0CEAC85BD850E94CB2D0E9409
:1031B200622E64960895FF92F82E26970E945D2E45
:1031C2000E949229309719F4EFEFFFEF23C0DE013E
:1031D20016960E94572D8D010E949229EE83FF833D
:1031E200E0E0E887E987DE011A960E94572D0E94E7
:1031F200CB2DFA93EA931A930A93E8E6F7E1FA934E
:10320200EA93DE011A96A3DE9F01AE81BF81E0E060
:10321200EC93F9010E94642E2A96FF900895000013
:103222000895FDDFE09108060895AA93EFEFE09379
:103232000006E881E0930406E8E0E0936606E2E037
:10324200E0936606ECDFE2E0E0936506E8E0E093F7
:10325200650661C5AA93E4E0E0936606A881E5DF0E
:103262005AC5AA93E4E0E0936506A881DEDF53C560
:10327200AA93A5E1EFDFAB81F4DFA981D6DFA5E751
:10328200E9DFAA81EEDFA881D0DF74C1AA93E981C8
:103292000E949929EA93E981EA93E0911F28E15C6F
:1032A200EA93AFE3E5DF38C0AA93E881EA93E091BD
:1032B20021280E949E292FC5BA93AA93EB81EA93F3
:1032C200AB81E4DF0E94A629A881AFDF53C11A9324
:1032D200E8E0E0936606E1E0E0936606A2DF1E2FD7
:1032E200E1E0E0936506E8E0E0936506E12F1991DD
:1032F2000895E0E0E0930006E4E0E0936506E7DF8E
:103302000895ADE5A7DFF5DF0895AA93E981EA9371
:10331200A981BCDF0E94AC2922960895AA93A1EC50
:1033220099DFE881EF77AE2F9CDFF5C4BA93AA93B9
:103332002F971A93E1E0E0936106E2E0E0936106E1
:10334200E1E0E0936506E2E0E0936506E4E0E09305
:103352006106E0E2E0936106E0936606E0E1E09355
:103362006106E0936506E8E0E0936106E093650696
:10337200E0E1E0936606A4E1B0E00E94A42BE0E164
:10338200E0936506E889F989309731F0DE011196FC
:103392008FE00E94392E07C0EEEDF7E2DE011196B2
:1033A2008FE00E94432EEA85E695E695E0931F287A
:1033B200E981FA810E940129EB81FC81E0931B28BB
:1033C200F0931C28ED81FE81E0931D28F0931E28C6
:1033D200ADEF40DFA2E145DFAEEA3CDFA3EB3ADF2F
:1033E200EF81EF70AE2FEF810E94B029ABEA32DF9E
:1033F200A1E037DFAAEC2EDFAFE333DFA2EA2ADF58
:10340200A0E02FDFA1EA26DFA0E02BDFE0E0EA93D5
:10341200A0E03CDF10E0EB85E17009F012E0EB8503
:10342200E27009F01061EB85E47009F01062A0EA25
:103432000E94B729EB85E87011F0E1E101C0E1E0FB
:10344200AE2FF3DEA5EB06DFED85E295E370AE2F3E
:10345200ED85E295EF70E695E695E370EE0FEE0FDF
:10346200AE0FFFDEA4EBF6DEA2EAFBDEADEFDDDEA1
:10347200AC8554DFA7ECEEDEED85EF70AE2FF1DE0A
:10348200EE85FF85309779F0A8EBE4DE1FE0EE854C
:10349200FF853196EE87FF873197A491E2DE1150C6
:1034A200B1F7A0E001C0A9EBD5DEA1EBD3DEE88540
:1034B200EF70AE2FE8850E94B029A1EDCBDEA2E825
:1034C200D0DEA0E2B2DEABEBC5DEE985EF71AE2F56
:1034D200C8DEA6EBBFDEEB85E295EF70AE2FC1DE54
:1034E200AEEBB8DEE985E295EF70E695E770AE2FB8
:1034F200B8DEA6EAAFDEA9EAADDE20D00E94BC2982
:103502000E944429E1E0E0930728E09308280E9402
:103512003929EFE0E09312280E94C629EFEFEA93DF
:10352200A8E0B0E00E94D426E1E0188162960895F6
:10353200ACE590DEE4E0E093650608950E945D2E1E
:1035420000E010E2E09101283E2FE32FE295E07FB8
:103552003E2BE0E0EA93A0E099DEEADFA32F65DEEE
:10356200F80131978F01D1F7E0E0EA93A0E0EFD5BF
:103572000E94642E24960895AA931A930E94AC295D
:103582001E2FAA8191DEACE50E94B729A9810BC04A
:10359200AA931A930E94AC299ADE1E2FAA8184DE76
:1035A2000E94A629A12F41DE188123960895AA938D
:1035B200E0912228EA93A981DFDFA0912128E091FE
:1035C2002328AE1748F4E0912028EA93E0912128BD
:1035D200EF5F0E949E29ACDF9EC3AA930E945B2EDE
:1035E2002F81EE81E295E07FAE81EA2B5E2FA0DF94
:1035F200E985E17019F4E885E17009F010C0A88549
:10360200BB27E22FF0E00E948D2D8F01F8010150BF
:103612001040309719F0A52F08DEF8CF1DC0E22F19
:103622002150E030C9F03885E985E17031F0E09150
:103632002028EA93A52FACDF3150323030F0A52F8D
:10364200F4DDA52FF2DD3250F8CF303011F0A52F86
:10365200AEDF0E94CB29E3CFA1C3FF92AA932397A7
:103662000E945B2EE985E03011F0E53061F4AC8513
:10367200A33031F4A0911B28B0911C28109709F0B7
:1036820001C03DC21AC0E13011F0E23009F402C0BB
:10369200E33009F402C0E43009F431C2E63069F4DF
:1036A200EC85E13009F42BC2E33039F4E0911D28B6
:1036B200F0911E28309709F422C2A889A03848F454
:1036C200AF85A03430F4AE85A03019F0AD85A030BE
:1036D20009F415C20E94D129A138E0E0BE0720F00A
:1036E200A889E0E8EA1BEE87AF85BB27ED85F0E00D
:1036F200AE0FBF1FA134E0E0BE0720F0AF85E0E4CB
:10370200EA1BED87E8890E949929E09320280E940C
:10371200D1291197FD01F695E795A0911F28EA0F8F
:10372200E0932228EF85E0932128ED85AF85AE0F47
:10373200E1E00E94FA2DEA1B0E94D829E889E0FB09
:10374200F0F8A985A63009F063C0DBDD0E94DE290E
:1037520009F45DC00E850E94E329F0FE0BC00E94B1
:10376200E829FF93EF93B3DDEF70AF91BF91EC9334
:10377200AEDD0150023090F0AADDE295EF701E2F0F
:103782000E94E829FF93EF93A2DDEF70AF91BF9102
:10379200EC930E94E82910830250ECCF003031F004
:1037A20096DD95DDEF70AE81BF81EC930E94E32937
:1037B2000E850230C8F00E94EF29AE81BF81ED91E3
:1037C200AE83BF83E295E07F1E2BAC85A33019F454
:1037D2000E94F52902C00E94002AEA85FB853196E3
:1037E200EA87FB870250E5CF003081F0AE81BF81CE
:1037F2001C91AC85A33019F40E94F52902C00E94E5
:10380200002AEA85FB853196EA87FB879FCF77C13D
:10381200A985A73031F410910028E0910928E0FB36
:1038220007C0A985A83009F0BCC010911228E894FD
:10383200F1F8E12FE295E07F1E2BF1FC06C04091EA
:103842000128E42FE295E07F4E2BEE85E695E69582
:10385200E6955E2FEE85E770EE87E03009F05F5F58
:103862000E94DE2909F49CC030E0E0912028E8871C
:10387200E894F2F8351708F08BC0EC85EA93EB85F3
:10388200FC853196EB87FC87319766277727DF0126
:10389200CB010E94FD260E2F28E03F5F531721F433
:1038A200EE85E03009F02E85F1FE40C0F0FE0BC03F
:1038B20000FF06C0E0912028EA93A12F69DE01C033
:1038C20020DD06952150223048F1E02FE370E330ED
:1038D20031F4ACE50E94B729A12FA7DC18C000FF84
:1038E20005C0E885EA93A12F47DE06C001FF0EC09E
:1038F200E885EA93A12F4CDEE0912228A885AE1735
:1039020010F4AF5FD1DC6894F2F801C0FADC0695DE
:1039120006952250E885EF5FE887D5CF203029F061
:1039220000FF02C0A12F2EC030C031C0F0FE0DC07A
:10393200E0912028EA9300FF02C0E12F01C0E42FAA
:10394200AE2F26DE0695215001C0F2DD223090F026
:1039520001FF02C0E12F01C0E42FAE2F66DC00FFA1
:1039620002C0E12F01C0E42FAE2F5FDC0695069561
:103972002250ECCF203049F000FF02C0E12F01C0FD
:10398200E42FAE2F14DEE89401C06894F2F872CFEF
:103992000E94CB29F2FE03C0A091202885DC60CFD3
:1039A200AEC0E985E03069F5C3DD0E94DE2941F150
:1039B2000E94092AF0FE05C00E94EF290E94122AE5
:1039C2000150023090F0AE81BF813D91AE83BF8342
:1039D2000E94EF290E941C2A28DCE32FE295E07F57
:1039E200E32BAE2F22DC0250ECCF003031F0AE815F
:1039F200BF811C910E941C2ADADD0E94CB29D5CFFF
:103A02007EC0E53009F06AC0409102280E94DE299A
:103A120009F463C0E0912028E8870E94092AF0FE99
:103A220009C00E94EF29411719F00E94122A01C011
:103A320068DC01500230D8F1AE81BF813D91AE8386
:103A4200BF832D91AE83BF83E32FE295E07FE32B0B
:103A52001E2FE22FE295E07FE22B5E2F431711F03B
:103A6200421709F407C0ACE5F5DBA52FFADBA12F5D
:103A7200DCDB18C0431729F0E885EA93A12F7CDD2F
:103A820006C0421771F0E885EA93A52F81DDE09127
:103A92002228A885AE1710F4AF5F06DC6894F2F80E
:103AA20001C02FDC0250E885EF5FE887C3CF00300A
:103AB20061F0AE81BF811C91411729F00E941C2A3E
:103AC20076DDE89401C06894F2F80E94CB29F2FEF8
:103AD20003C0A0912028E8DB99CF11C0E93019F486
:103AE2001091012804C0EA3051F410910028E889AD
:103AF200EA93EF85EA93EF85EA93A12F6EDD0E94A8
:103B0200622E6196FF900895FF92AA9323970E94D6
:103B12005B2EFF24AB85BB2745D1EB87A985BB274D
:103B220041D1E987AA85BB274FD1EA87AA85BB275E
:103B3200E0910A28F0E0AE0FBF1F119745D1EF8345
:103B4200E985EA93AB8503D3E985AB85EA1728F4C7
:103B52006894F0F80B85EB870987EB850E94992919
:103B6200E0932028E9850E949929E0932228EA859A
:103B7200E0932128EF810E94D829AB85E985EA1BD1
:103B8200EF5FE887AA85EF81EA1BEF5FEF83A091E1
:103B92000B28AF3F41F4EB85EA930E94222AA091C1
:103BA20000281BDD5BC030910128E32FE295E07F06
:103BB2003E2B20910028E22FE295E07F2E2BE09110
:103BC2000B28EE83F0FE04C0AE810E943B27EE83F9
:103BD20048855E8100E0EB85E17071F0E09120287C
:103BE200EA9350FF02C0E22F01C0E32FAE2FD0DCD8
:103BF2000F5F5695415001C09BDC4230F8F050FFF8
:103C020002C0E22F01C0E32F1E2F0F5FE02FE770EB
:103C120011F45E8101C0569550FF02C0E22F01C02F
:103C2200E32FAE2F02DBA12F00DB0F5FE02FE77047
:103C320011F45E8101C056954250DFCF403039F019
:103C420050FF02C0E22F01C0E32FAE2FB0DC0E9472
:103C5200CB29EF81E150EF8309F0BACF0E94622EA7
:103C62002C96FF900895AA930E945D2EAE81A038F3
:103C720018F4AD81A03408F01DC0EE81EA93AE8144
:103C820066D2EC81E295E07FAC81EA2B3E2FEE8199
:103C9200EA93AE813ADB1E2F1ADB0E2FEE81E17022
:103CA20011F0132F01C0032FEE81EA93EE81EA9304
:103CB200D80102DB0E94642E27960895AA931A93D4
:103CC200AA81A03818F4A981A03418F0E0E0188184
:103CD2003CC2EA81EA93AA813AD2EA81EA93AA81B2
:103CE20014DB1E2FEA81E17011F4F1DA1E2F1F702E
:103CF200E12F18812AC2AA93E881E03019F00E94CC
:103D0200BC2905C0AEEAA6DAE0E2E0936606A4E6C4
:103D1200B0E00E94A42B21960895BA93AA930E9420
:103D22005B2E24E238E21985AE81BF814D915C9110
:103D3200123000F1A885A33019F40E94272A02C08C
:103D42000E942E2A0E2F3F932F932F5F3F4FE02F7B
:103D5200EF70AF91BF91EC933F932F932F5F3F4F43
:103D6200E02FE295EF70AF91BF91EC934F5F5F4F01
:103D72001250DECF103071F0A885A33019F40E94E2
:103D8200272A02C00E942E2A0E2FE02FD901EC937F
:103D92004F5F5F4FAE81BF814D935C930E94622E55
:103DA2002A9608950E94352A1CF0E0E0F0E0BAC29B
:103DB200A881B981A038E0E0BE071CF0EFE7F0E08F
:103DC200B1C2E881F981AEC20E94352A1CF0E0E05E
:103DD200F0E0A8C2A881B981A034E0E0BE071CF0DF
:103DE200EFE3F0E09FC2E881F9819CC2AA93E981E6
:103DF200EA93E981EA93A091002835DF93C2AA935E
:103E0200E981E0930728E881E09308288BC2AA930E
:103E1200A981A03818F4A881A03428F0E0E0F0E0ED
:103E220060E070E07FC2A981BB2788279927E881DB
:103E3200FF27662777270E94952D0E94712DEC5F40
:103E4200FF4F6F4F7F4F6EC2BA93AA9323970E9480
:103E52003C2A8F01002E012A19F4E0E0F0E068C04C
:103E62000E94432A0F820E94432A0E820E94432A02
:103E72000886EB85A885EA1718F4E0E0F0E058C060
:103E8200F8010F5F1F4F5491A885BB27EE27A50F9E
:103E9200BE1FEB85F0E0EA17FB0718F0E0E0F0E068
:103EA20047C0EF81E030E1F0A985BA85EC93E69551
:103EB200E695E6954E2FEF81E77009F04F5FA885F2
:103EC200EB85EA1BF0E0DF01EE81F0E00E948D2D30
:103ED200DF01E42FF0E00E948D2DE00FF11F28C0DA
:103EE2009801E52FF0E00E0F1F1FA885AF5FA8878E
:103EF200A150EB85AE17B0F4F901E491E695E69591
:103F0200E6954E2FF9012F5F3F4FE491E77009F0DC
:103F12004F5FAE81BB27E42FF0E00E948D2D0E0F84
:103F22001F1FE3CFF901E491A985BA85EC93F8014B
:103F32000E94622E2C960895E0E0E0930328A0915F
:103F42000428BB270E94482AF0E0AE0FBF1FE09171
:103F52000828F0E0AE0FBF1F37DFE0930428089572
:103F6200AA9321970E943C2A309709F458C0AF8146
:103F7200AA3009F450C0EF81EA93DE01179664DF9C
:103F8200AF01309719F40E94622E35C2E0910728E2
:103F9200AE81EA0F3E2FA0910328BB27E32F0E9498
:103FA2004F2A0138E0E01E0718F0032F1127C4DF63
:103FB2000E94542AE885EA930E94482AEA93E1E0A3
:103FC200EA935A934A93A7E048DBE0910928E1700B
:103FD200E9F4E0910328AE81EA0FEA93E091042824
:103FE200EA93E0910728EA930E94482A0E945B2AFA
:103FF200E0910328EA93A09104280E94482AEA0F3C
:10400200EA933A93E09108280E945B2AE0E8F0E004
:10401200E017F10721F490DF0E94622EECC10093B9
:1040220003280E94622EE7C10E94652AA981BA81F3
:10403200ED91A983BA831E2FE03019F0A12F90DFF2
:10404200F5CF08C00E94652A0E946D2A19F0A12F9F
:1040520087DFFACF188125960895BA93AA931A9307
:104062000E946D2A19F0A12F7BDFFACF18816DC053
:10407200AA932497AC81A03011F0A53009F50E94D3
:10408200772AEA830E94772AEB830E94772AE883C1
:104092000E94772AE983E885EA93E885EA93EC812E
:1040A200EA93EB81EA93E2E0EA93EA85FB85FA93ED
:1040B200EA93AB85D2DAEA81EA93A981A8DE04C049
:1040C200E0E0F0E060E070E029960895BA93AA93E8
:1040D200EB81A881B981F0E00E94072EA881B98105
:1040E2001296EA81F0E00E94072EED81EA93ED81BB
:1040F200EA93ED81EA93ED81EA93E2E0EA93ED81BE
:10410200FE813496FA93EA93A6E0A7DAEB81EA936A
:10411200AB817DDE26960895AA93EA81EA93EA812D
:10412200EA93E0910B28AA81EA2319F0E091002892
:1041320002C0E0910128AE2F96DDE881EE0FE88300
:10414200E03011F4E1E0E883E88123960895AA9330
:10415200A981BB2727DEE0930328A881BB2734DE91
:10416200E0930428DFC0AA932B970E945B2EAC89B0
:10417200BB2718DEEC8BAA89BB2714DEEA8BAB893E
:10418200BB2722DEEB8BA989BB271EDEE98BEA89DE
:10419200E0930328E989E0930428E1E0E887E989CC
:1041A200AB89EA1781F41C89AA891A1731F41A9388
:1041B200EC89EA93A1E0B0DFAAC01A93EC89EA93F2
:1041C200AC89A2DCA4C0EA89AC89EA1739F53B893B
:1041D200A9893A1730F4E989E31B2E2FE1E0F0E0D8
:1041E20006C0A989E32FEA1B2E2FEFEFFFEFED8721
:1041F200FE871C89E0E0EE830E94802A30F41A9345
:1042020013950E94882AEF83F7CFEF81E887ED8527
:104212003E0FE22F2150E03061F779C0E0E0EE83FB
:104222000E94802A08F073C01C893B89E1E02E2F8E
:104232000E2FAA89BB27EC89F0E0AE1BBF0BAD01A4
:1042420055232AF40FEFFA010E945B2DAF01FA0108
:10425200EE0FFF1FEF87F88BA989BB27EB89F0E0F0
:10426200AE1BBF0BAD87BE87AE85AA233AF42FEFF4
:10427200ED85FE850E945B2DED87FE87ED85FE852F
:10428200EE0FFF1FEB87FC871A933A93A1E044DFFE
:10429200E887E0E0E987EA87AD85BE854A175B07D4
:1042A200BCF0100FEB85FC850E948C2AA985BA858B
:1042B2004A175B072CF4320FAF85B8890E94932A04
:1042C2001A930E94882AE887EA89E11751F718C0F1
:1042D200320FEF85F8890E948C2AED85FE85A9852B
:1042E200BA85EA17FB072CF4100FAB85BC850E9438
:1042F200932A1A930E94882AE887E989E31741F7EB
:10430200EB89EF5FEB8BE989EF5FE98B89CF0E9445
:10431200622E65960895AA930E94542AEB81EA932D
:10432200AB8121DF22960895BA93AA930E945B2E55
:10433200EE81FF81138101813281AE81BF812C9197
:10434200011718F4502F012F152F231718F4522F8D
:10435200232F352FE12FAE81BF811396EC93E32FEC
:10436200AE81BF811296EC93E02FAE81BF81119690
:10437200EC93AE81BF812C930E94622E3CC0AA9323
:104382000E949A2AEB81AD81EA0FEA93EB81AD811B
:10439200AE0F02D024960895AA930E945D2EE0915A
:1043A2000A28E1503E2FDE011496BEDFED81E31BA9
:1043B2001E2FEC81E31B0E2FEF81EA93EF81EA932C
:1043C200A12FA2DB1A93EF81EA931A93A02FCBDEDF
:1043D200ED81EA930A93E32FA985AE0F95DBEF8176
:1043E200EA93ED81EA93E985EA93E32FA985AE0F7B
:1043F200BADE0E94642E28960895AA9322970E94FC
:104402005B2EEA85E03019F0E985E03009F45BC003
:10441200E885AC85EA0F1E2FE885AB85EA0F2E2FC3
:10442200E0910A28E150EF83EA85AC85AE0FA150F6
:104432003A2FA885E32FEA1B0E2FAF813A1BE9859D
:10444200AB85AE0FA1504A2FA885E42FEA1B5E2F41
:10445200AF814A1BE0910B28EE83EFEFE0930B282C
:104462001A93EC85EA93A02FA1504EDB0A932A936C
:10447200EA85EA93A1E82FD23A932A933A93A52F99
:10448200A15071DE0A935A93EA85EA93A8E823D2EF
:104492000A934A93A12F38DB1A935A93EA85EA9337
:1044A200A4E819D2EC85EA935A93EE85EA93A22FF7
:1044B2005ADE1A932A93EA85EA93A2E80CD2EE8195
:1044C200E0930B2804C0EC85EA93AC858FDC01C332
:1044D200BA93AA93EA81E03011F40C941A27E88186
:1044E200F981309711F40C941A270E949F2A319671
:1044F200A4912DDEEA81E150EA83EF5F51F00E9440
:104502009F2A3296E983FA8332973196A49103DF88
:10451200F1CF0C941A270E94E72D1A930A93AA81CD
:10452200BB818C819D810E947F270E94E32B8F019A
:10453200F801AA81BB818C819D810E947C2D0E9401
:104542001A2C0E94A62ADF01CB010E94AB2A10F08E
:104552000F5F1F4FF801198108810C94D226BA937C
:10456200AA932497E985FA85662777270E941A2C51
:10457200A5E3BAEF8EE89CE30E94B22AEC85F0E054
:10458200FF93EF930E94B72A0E9413280E94BA2A2F
:10459200AF91BF91AE0FBF1F05DCAE81BF81EC931F
:1045A200EB85F0E0FF93EF930E94B72A0E948F27DA
:1045B2000E94BA2AAF91BF91AE1BBF0B05DCAC8142
:1045C200BD81EC9388C2BA93AA9323970E945B2E73
:1045D200ED85E887E0910A28EF83E0910028EE83D9
:1045E200AA89BB27EF850E944F2AA989BB27E889A0
:1045F2000E94C62AE8890E94CD2A71F0E885E078F7
:10460200F1F4AD85BE85EAE5F0E00E94D52A1CF002
:104612000E94DE2A0CF413C0332312F00E94E32A14
:10462200AF81A23020F02230E0E03E070CF407C058
:104632000E94E72A21F40A93A22FA150D7DBE88532
:10464200E878E83891F0E885E078C9F4AD85BE8570
:10465200A25FBE4F0E94F02A3CF0AD85BE85A25FEC
:10466200BE4F0E94F52A0CF40AC00E94FA2A38F0C2
:104672000E94012B21F40A93A42FAF5FB7DBAA8912
:10468200BB27EF85F0E0AE1BBF0B8D0111230AF4AF
:1046920045C0E885E278E23891F0E885E07811F5E6
:1046A200AD85BE85A65ABF4F0E94F02A3CF0AD856B
:1046B200BE85A65ABF4F0E94F52A0CF413C03323BD
:1046C20012F00E94E32AAF81A23020F02230E0E013
:1046D2003E070CF407C00E94E72A21F40A93A22F96
:1046E200A15084DBE885E478E43871F0E885E0786D
:1046F200A9F4AD85BE85EEE0F1E00E94D52A1CF05A
:104702000E94DE2A0CF40AC00E94FA2A38F00E94A3
:10471200012B21F40A93A42FAF5F68DBAA89BB2780
:10472200E8890E944F2AA989BB27EF850E94C62AE1
:10473200EF850E94CD2A81F0E885E078F1F4EB85DF
:10474200FC85AD85BE85AE17BF072CF0E985FA85DD
:10475200EA17FB070CF411C033237AF00E94E32A14
:10476200AF81A23050F0E02FEE5F0E940A2B29F4B5
:10477200E02FEF5FEA93A22F39DBE885E878E8388B
:1047820071F0E885E078C1F4AD85BE85E8E6F1E038
:104792000E94D52A1CF00E94DE2A0CF40DC00E9451
:1047A200FA2A50F0E02FEE5F0E94122B29F4E02F3C
:1047B200EF5FEA93A42F1ADBAA89BB27E889F0E00E
:1047C200AE1BBF0B8D0111230AF450C0E885E278BD
:1047D200E23871F0E885E07809F5AD85BE85E4EB55
:1047E200F0E00E94D52A1CF00E94DE2A0CF416C0CA
:1047F2003323A2F00E94E32AAF81A23020F00230DC
:10480200E0E01E070CF40AC0E02FE2500E940A2BDF
:1048120029F4E02FE150EA93A22FE8DAE885E47860
:10482200E43891F0E885E07809F5AD85BE85AC54B1
:10483200BF4F0E94F02A3CF0AD85BE85AC54BF4FFD
:104842000E94F52A0CF412C00E94FA2A20F00230CB
:10485200E0E01E070CF40AC0E02FE2500E94122B87
:1048620029F4E02FE150EA93A42FC0DA0E94622ECD
:1048720063960895AA930E945D2EAF81BB27ED81B6
:10488200F0E0AE1BBF0B8EDA1E2FAF81BB27ED818E
:10489200F0E0AE0FBF1F86DA0E2FAE81BB27EC8190
:1048A200F0E0AE1BBF0B90DA3E2FAE81BB27EC814E
:1048B200F0E0AE0FBF1F88DA2E2F1A933A930A93B5
:1048C200A32F51DC1A932A930A93A22F4CDC0E9445
:1048D200642E0C944728AA930E945B2EA985A038C7
:1048E20018F4A885A03418F00E94622E7AC0509164
:1048F2000A28E52F5150E030C1F1EF81E03019F480
:104902000E94622E6EC0EF81E150EF830E941A2B4B
:10491200AE81A03459F40E94222A1A93A02FAADF52
:104922000E94222A0A93A12FA5DF0FC00E94222AE9
:104932001A930A93EA85F0E0FA93EA93E0E0F0E052
:10494200FA93EA93A0E0B0E03EDE1F5F33231AF44D
:10495200E12FF0E002C00E942A2BEE0FFF1F3196DA
:104962002E0F3F1F0117A0F6C4CF0E94622E39C03E
:10497200AA93EA81EA93EA81EA93EA81EA93AFE8A9
:10498200AADF0C941A27BA93AA930E945D2EA985D6
:10499200A03818F4A885A03410F0E0E020C0AE8161
:1049A200BF810D911C91AC81BD812D913C91D801AB
:1049B200E8E6F1E00E94C82D8F01D901E9E6F1E0B5
:1049C2000E94C82D9F01AE81BF810D931C93AC81C3
:1049D200BD812D933C93F901D8010E94872D0E943D
:1049E200642E2A960895AA930E945B2E0E94332B6E
:1049F200FE013B96FA93EA93DE011B96C4DFE03098
:104A020009F467C0EC85E0930C28EB85E0930D2850
:104A12000E94332BEB85FC85FA93EA93EA85EA93AD
:104A2200EEE0F8E2FA93EA93AFE0B8E298DD0E9492
:104A3200332B0E94382BEA85EA93E0E1F8E2FA93FD
:104A4200EA93A1E1B8E28BDD50910A28E52F51509B
:104A5200E03009F43EC0EE81E030D9F1E150EE835E
:104A62000E941A2B0E94332B1A930A93E02FFF27DE
:104A7200662777270E941A2C0E94E22DE12FFF273A
:104A8200662777270E941A2CDF01CB010E94862815
:104A9200A1EEBEE285E692E40E94A42C0E94E32BE2
:104AA200FA93EA93EF85F889FA93EA93AF85B88986
:104AB2008ADD1F5F33231AF4E12FF0E002C00E9467
:104AC2002A2BEE0FFF1F31962E0F3F1F011750F6B4
:104AD200BDCF0E94622E2D960895AA9322971A9313
:104AE2000A93E0910A28E1500E2F0E943D2BFE010D
:104AF2003996FA93EA93DE01199645DFE03009F41C
:104B020053C010910B28EFEFE0930B280E943D2B2E
:104B12000E94382B0E94382BAA8565DFE0E0EA83E9
:104B2200AF81B885A53BE0E0BE0708F00A830E948A
:104B32003D2BE0910E28EA93A0910F28ED81AE1B48
:104B420012DBE0E0EA83AD81BE81A53BE0E0BE0777
:104B520008F00A83E0911028EA93A0911128EB81D2
:104B6200AE1BAA93EC85EA93AC85FDDA0E943D2B3D
:104B7200EF81F885A985BA85AE0FBF1FFD01F695B5
:104B8200E795FA93EA93E885E695EA93FE0138966B
:104B9200FA93EA93DE011996E2DC0E949A2AA09126
:104BA200002869D010930B28198108812B9608954B
:104BB200AA930E94C629EB81FC81FA93EA93A8E0AA
:104BC200B0E00E94C226E881E09312280C941A27D2
:104BD200AA930E945D2EAF81A03818F4AE81A03452
:104BE20020F00E94642E0C944728ED81E03019F0E9
:104BF200EC81E03009F429C03E81E32FAC81EA0F59
:104C0200EC83EF81AD81EA0FED83EC813E17E8F48E
:104C1200E31B2E2F293008F028E01F81ED811E179B
:104C220090F4E11B0E2F093008F008E01A933A9332
:104C32000A932A93E0E0EA930E94C629A8E00E9420
:104C42002E1B100FEBCF320FE0CF0E94642E0C947C
:104C52004728AA93DE0168DB0E949A2AAD81EB8184
:104C6200EA1BEF5FEA93AD81EB81EA1BEF5FAE2FA8
:104C7200AFDF0C948428FF92AA93E0970E945B2EE8
:104C8200A8ADA03818F4AFA9A03408F075C04091BF
:104C92001228FE0136968F01E8AD0E94422BEFA941
:104CA2000E94422BFE013696E017F10708F064C01D
:104CB20001501040D801EC91EFAB01501040D801E7
:104CC200EC91E8AF38AD313040F00E94472B11F043
:104CD200451709F402C03150F6CFE894F0F8F1F824
:104CE2003F5F303808F047C00E94472B11F045174C
:104CF20009F441C03A93E8ADEA93A42F0E94341E0E
:104D0200AFA9A130D0F0EFA9E1500E944F2B11F0D2
:104D1200451709F410C0F0FC0DC0FE01F6960E17FF
:104D22001F0750F5E32F0E94422BE22F0E94422BD5
:104D32006894F0F802C0E894F0F8AFA9AF33D0F469
:104D4200EFA9EF5F0E944F2B11F0451709F410C035
:104D5200F1FC0DC0FE01F6960E171F0768F4E32F53
:104D62000E94422BE22F0E94422B6894F1F802C06B
:104D7200E894F1F8B5CF96CF0E94622EE996FF90A3
:104D82000895BA93AA9399818881009641F0BD81D2
:104D9200AC81FB81EA8105900D920197E1F7FD81DB
:104DA200EC8126960895BA93AA93B981A8811096A8
:104DB20031F0FC81EB816A8161931197E9F7EB8114
:104DC200FC8125960895BA93AA93A991B991EE27E9
:104DD200FF276D91662311F03196FBCF0895BA93A8
:104DE200AA93AA27BB27E991F9910590002011F017
:104DF2001196FBCFFD010895BA93AA93EA81E1309F
:104E020021F4E881F981E49114C0E23029F4A88107
:104E1200B9810E94FE2D0DC0E33041F4A881B98111
:104E2200E0911B28F0911C28099503C0A881B98143
:104E3200EC9123960895AA93EB81E03029F4E8815E
:104E4200A981BA81EC9314C0E23031F4E881A981DE
:104E5200BA810E940F2E0CC0E33051F4E981FA812D
:104E6200FA93EA93AA81E0911D28F0911E280995F0
:104E72000C948428AA93A991A0FBE7F9A1FBE6F977
:104E8200A2FBE5F9A3FBE4F9A4FBE3F9A5FBE2F934
:104E9200A6FBE1F9A7FBE0F908950E94E72D7B81CB
:104EA2006A81F981E88177FB770F67FD7160972F3F
:104EB2009E5781F078F0983190F4AA27BB27882773
:104EC20008948795B795A7959A95D1F7EA23FB237E
:104ED200682305C0E8947727EE27FF2766276F77B8
:104EE200769508F4606877F9A991B99189919991B9
:104EF200EA17FB076807790797FB08950E94582B6A
:104F02000E944E270E94DD2D19F40E945B2BFBC0EC
:104F1200E6F70E945E2B0E944D2CF5C00E94E72D01
:104F220024971A9310E00E94642BE3E8F9EF62E2FF
:104F32007EE30E94A42C0E94692BE0DF0E94642B76
:104F42000E94A62A0E94692B0E94AB2A09F008F44B
:104F520009C00E946E2BA0E0B0E080E09FE30E94B7
:104F6200732B11E00E94642BE0E0F0E060E87EE346
:104F72000E94372D09F008F408C00E94642BE0E07B
:104F8200F0E060E07FE30E94732B103041F00E945A
:104F92006E2B0E94AE2BED83FE836F8378870E9477
:104FA2006E2B0E94642B0E94A42CE983FA836B83EC
:104FB2007C83A1EBB4EC86E292E40E94A42CDF0194
:104FC200CB01EDE1F5EE6DE272E40E94A62A0E94A9
:104FD2007A2BACE4B3E584E091E40E94542C0E9465
:104FE200642B0E94A42C7F936F93FF93EF93E9812C
:104FF200FA816B817C81A1E1BDEE8EED9FE30E947F
:10500200542C0E947A2BAEE5BBE788EA9FE30E940C
:10501200542CAF91BF918F919F910E94F22C1881D5
:10502200299608950E94582BEBEDFFE069EC7FE38F
:105032000E944D2CDF01CB0171DF65C00E94812BE4
:105042000E94892B0E94B22A0E945B2BA5E6B0ED3A
:105052008BEC90E40E948E2B0E94892B0E94A42C40
:105062007F936F93FF93EF930E945B2BA0E0BDE6CB
:1050720089E291E40E94542C0E94B72A0E948E2B4E
:10508200AF91BF918F919F910E94F22C2896089523
:105092000E94582BEDECF3E164ED7EE30E94372D84
:1050A20020F40E94B72ACADF2EC00E94B72AEAE77C
:1050B200F2E86AE170E40E94372D09F008F40BC0AF
:1050C2000E945E2B0E94972BABEDBFE089EC9FE321
:1050D2000E94A62A18C00E945E2B0E944D2C7F932C
:1050E2006F93FF93EF930E945E2B0E94542CAF911B
:1050F200BF918F919F910E94972BABEDBFE089E406
:105102009FE30E94542C249608950E94812B0E94B2
:105112004D2EE9F4E885F9856A857B850E944D2E3E
:1051220029F4EFEFFFEF6FE77FE743C0A885B9856A
:105132008A859B850E94552E2CF4EBEDFFE069ECED
:105142007FE337C0EBEDFFE069EC7FEB32C0EC812F
:10515200FD816E817F81A885B9858A859B850E94A4
:10516200F22C0E94DD2D0E94892B0E94552E64F4A0
:10517200AB85AA2322F00E94B72A8ADF1AC00E94B6
:105182009D2B0E94AE2B15C0AB85AA234AF00E942C
:105192009D2BABEDBFE089E490E40E94A62A09C0F2
:1051A2000E94B72A75DFABEDBFE089E490EC0E9464
:1051B200542C2C960895FE01E05CFF4F3696DF01D9
:1051C200EC910895EC93FE01E05CFF4F3796DF010E
:1051D200EC910895EC93FE01E05CFF4F3896DF01FD
:1051E200EC910895FE01E05CFF4F3A96DF01EC91ED
:1051F2000895FE01E05CFF4F3C96DF01EC910895BB
:10520200E0930528F09306280895E0E0EA93EEE1A2
:10521200EA9308950E942E20A0EABFE00E94A42BE8
:105222000C949F1A0E942E20E0EBF5E1E9CF0E9438
:10523200A42B0C949F1AEA93A1E00C94001FE09314
:105242000A28E5E5E0930B280895E0930A28E3E3B2
:10525200E0930B28E0E0EA930895E0930A28EFEF49
:10526200E0930B28E0E0EA930895A8EBBBE0DFCFE0
:10527200E1E0E0930A28EFEFE0930B280895A8EE0F
:10528200B3E00C94A42BEFE0E0930028E0E0E0937D
:1052920001280895E0E0EA93EFE2EA9308950E947C
:1052A2002320E3CFEA93E7E1EA93A4E10C94B92443
:1052B200EA93E7E1EA93E0E0F0E0FA93EA930895F3
:1052C200E0E0EA93E8E2EA93A9E10C94C021E0E08D
:1052D200EA93EEE2EA9308952A93AD85BE85EF85BF
:1052E200F88909950895E889F9893497E88BF98B4B
:1052F2000895AD85BE85EF85F88909950895A88939
:10530200B98914960E94CB2DEE83FF83AE81BF81B3
:105312000895A889B98914960E94CB2DEA87FB8744
:105322000895DE011C960E94572D0E94CB2D0895F0
:10533200E695A0911F28EA0F0895EA93E0912228AA
:10534200EA93A09123280C943919ACE50E942B19F9
:10535200A9810C9432190E9482190C946819E29561
:10536200EF70E295E07FAE0F0C9432190E942B1978
:10537200A12F0C943219E0E2E0936506A8ECB0E0AC
:105382000E94A42BAFEA0C942B19E3E1F8E2FA9302
:10539200EA930895E0912128EF5FE0932128089590
:1053A200A889BB27EE85F0E0AE0FBF1F0895E093FA
:1053B2002328A09120280C945519ED85E150ED8702
:1053C200EF5F0895E4E2F8E2EE83FF830895EE8151
:1053D200FF813196EE83FF8331970895AE81BF81BD
:1053E2001D91AE83BF830895EA85FB85FA93EA9304
:1053F200A12FE0911D28F0911E2809950895EC85B2
:10540200EA93EB85FC85FA93EA93A12F0C941C276F
:105412000E850A93ED85EA93DE011C960E948E1E8C
:10542200D1CFE0912028EA93E12FE295E07FE12BB2
:10543200AE2F0C94C91AE12FE295E07FE12BAE2F3B
:105442000895E985EA93E985EA930895DA01E091FE
:105452001B28F0911C2809950895E885EA93DA0142
:10546200882799270C94FD26BA93AA93A881B9811B
:105472000E94512E08950E945B2EE0910528F09122
:1054820006280895F8010F5F1F4F04900895E091D8
:105492000528F09106283196E4910895F0E0EA0F8C
:1054A200FB1F8F010895E0910328EA93E0910428FD
:1054B200EA930895EA93E0E0EA93E0E0F0E0FA93F9
:1054C200EA93A9E00C942E1BBA93AA931A93EC8147
:1054D200EA93AC810C94A820E981FA813196E983A0
:1054E200FA833197E4911E2FE0300895AD81BE8199
:1054F2001196AD83BE8311970E94FE2D0895AE8151
:10550200AF5FAE83A150E0910A28AE1708953A9397
:10551200AA850C948D20A985BA85EA0FFB1FE9871D
:10552200FA870895E985FA85EA1BFB0BE987FA8772
:105532000895EB81EA93EB81EA930895E881F9817A
:10554200E491EA93E981FA8108950E94F12D0E9483
:105552004D2C0895E0E0F0E060E07FE30E94372DFB
:1055620008950E94A42C0E94DD2D08950E94D82D3A
:105572000895A885BB27882799270E94EE2D0E94AF
:10558200A42CDF01CB010C948C22F0E0AE1BBF0BEC
:105592009D01A989BB270895F0E0EA0FFB1FAF0127
:1055A200E885E178E1380895EA1BFB0B0F01DF0182
:1055B200EB85FC85AE17BF070895E985FA85E015EE
:1055C200F10508950A93A22F0C94F71E0A93A22FB5
:1055D200A2500E945F1EAE2FEE81EA170895EB855E
:1055E200FC85AE17BF070895E985FA85EA17FB0720
:1055F20008950A93A42F0E94F71EAF81A230089546
:105602000A93A42FAE5F0E945F1EAE2FEE81EA17AF
:105612000895EA93A22F0E945F1EAE2FEE81EA1731
:105622000895EA93A42F0E945F1EAE2FEE81EA171F
:105632000895EF5F0E2FE02FF0E0A5E0B0E0AE1B83
:10564200BF0BFD010E94672D0E946C2D9F0110E08F
:1056520008950150A12FBB27E02FF0E0AE1BBF0B36
:10566200FD010895EC85EA93EC85EA930895E985B6
:10567200FA85FA93EA930895EA85EA93EA85EA932A
:105682000895D801EC930F5F1F4F08953A93A8AD88
:105692000E945F1E5E2FEEA9E51708952E2F3A9302
:1056A200A22F0E945F1E5E2FEEA9E51708950E94A9
:1056B200E72D5CCF0E94D32D0895FCDFA0E0B0E07F
:1056C20080E89FE30895AD81BE818F81988508951A
:1056D200ED83FE836F837887F6CFED81FE816F8144
:1056E200788508950E944D2CED83FE836F83788721
:1056F2000895A981BA818B819C810E94A42C08956E
:105702000E94E72D2497EC81FD816E817F810895AF
:10571200AC81BD818E819F8108950E94A42CAEE44C
:10572200BFE88AE491E40E94542C08950E94F22C6E
:10573200DF01CB010C941F28BDDF0E94AE2BDF01DD
:10574200CB010C944928109639F080E49FE101972F
:10575200F1F7A8951197C9F7089530976040704006
:1057620009F070580895552342F4503811F4E0FFBF
:1057720004C03196691F791F6BF050E8572711F466
:105782005F93CFC05F3F31F0660F000C579567956E
:10579200752F08955F9300200AF0CFC0C8C050E86B
:1057A200192E1522880F991F9527550F879550E8B6
:1057B200072E0522660F771F7527550F67950895E7
:1057C200689401C0E8945F93F2DF703818F07F3F6D
:1057D20008F4A7C056E1571BAAF4519558300EF4AD
:1057E200593030F0EFEFFFEF6FEF7FE777F91AC034
:1057F20077275523B9F0EE0FFF1F661F771F5A95C3
:10580200D1F710C07727583028F0EF2FF62F672FE7
:105812005850F9CF552331F076956795F795E7956E
:105822005A95D1F700200AF449D15F9108956894FE
:1058320001C0E894309760407040B1F0002426F037
:10584200772312F400943AD1172E7EE1112032F020
:105852007A95EE0FFF1F661F111CF9CFEF2FF62F5F
:10586200612D5F938ADF5F9108954F93AF01FD0130
:10587200DA01AB01BC01CA01402D012C142E4F915B
:105882000895EA0FFB1F681F0895E095F095609553
:10589200EF5FFF4F6F4F08955F9381DF903871F193
:1058A20050E8152604C05F937ADF903839F17038DA
:1058B20021F1572F591B2BF112F4D7DFFACF5831B0
:1058C20018F0AA27BB278827583028F0AB2FB82F0B
:1058D20088275850F9CF552329F08695B795A79573
:1058E2005A95D9F7502D512572F0CBDF38F46795D0
:1058F200F795E795739513F420C0B7DF3EDF5F910C
:105902000895D8F7FBCFEA1BFB0B680B51F010F49C
:105912000094BBDF662392F3EE0FFF1F661F7A959A
:10592200CBF7EE27FF27662777275F910895EFEFE2
:10593200FFEF6FE77FEF5F910895EFEFFFEF6FE704
:105942007FE75F9108955F932ADF703851F39038B3
:1059520041F301240894791F23F41CF300203AF345
:10596200ECCF0F921F932F933F934F931127222730
:105972009927689FA0018F9F302D410D591F6B9F62
:10598200300D411D591F8E9F27D0BF9F25D06A9F82
:1059920023D0BE9F1DD0AF9F1BD0AE9F110D291FDC
:1059A200391F491F591FE32FF42F652F522F4F9193
:1059B2003F912F911F910F9066232AF0550FEE1FF2
:1059C200FF1F661F02C073954BF2CDDE5F910895F3
:1059D200100D211D391F02C0200D311D491F591FF5
:1059E20008955F93DCDE703821F411200AF49FCF12
:1059F200A4CF903809F495CF01240894970B1BF497
:105A0200D4F30020F3CF792F1F932F933F934F931B
:105A120011241127222733274427552790E2AE1756
:105A2200BF078607410730F0AE1BBF0B860B410B49
:105A3200089401C08894551F221F331F111CAA1FEE
:105A4200BB1F881F441F9A9551F7F901612D4F9191
:105A52003F912F911F91662332F0550FEE1FFF1FCA
:105A6200661F7A9543F27FDE5F91089599239AF03B
:105A7200772342F0971748F029F4AE17BF0786073D
:105A820020F031F098948894089598940894089599
:105A92001894889408957723C2F7971798F3A9F773
:105AA200EA17FB07680788F399F3ECCF0024AF0DE0
:105AB200B01D0895F195E195F0400895F095609537
:105AC2007095E195FF4F6F4F7F4F0895EE0FFF1FC7
:105AD200EE0FFF1F0895F595E795F595E795089563
