:060000000C948B030C942C
:1000060000000C9400000C9400000C9400000C946A
:1000160000000C9400000C9400000C9400000C945A
:1000260000000C9400000C9400000C9400000C944A
:1000360000000C94D8030C9400000C9400000C945F
:1000460000000C9400000C9400000C9400000C942A
:1000560000000C9400000C9400000C9400000C941A
:1000660000000C9400000C9400000C9400000C940A
:1000760000000C9400000C9400000C9400000C94FA
:1000860000000C9400000C9400000C9400000C94EA
:1000960000000C9400000C9400000C9400000C94DA
:1000A60000000C9400000C9400000C9400000C94CA
:1000B60000000C9400000C9400000C9400000C94BA
:1000C60000000C9400000C9400000C9400000C94AA
:1000D60000000C9400000C9400000C9400000C949A
:1000E60000000C9400000C9400000C9400000C948A
:1000F60000000C9400000C9400000C9400000C947A
:1001060000000C9400000C9400000C9400000C9469
:1001160000000C9400000C9400000C9400000C9459
:1001260000000C9400000C9400000C9400000C9449
:1001360000000C9400000C9400000C9400000C9439
:1001460000000C9400000C9400000C9400000C9429
:1001560000000C9400000C9400000C9400000C9419
:1001660000000C9400000C9400000C9400000C9409
:1001760000000C9400000C9400000C9400000C94F9
:1001860000000C9400000C9400000C9400000C94E9
:1001960000000C9400000C9400000C9400000C94D9
:1001A60000000C9400000C9400000C9400000C94C9
:1001B60000000C9400000C9400000C9400000C94B9
:1001C60000000C9400000C9400000C9400000C94A9
:1001D60000000C9400000C9400000C9400000C9499
:1001E60000000C9400000C9400000C94000005071D
:1001F6002060000000000000000404040404000461
:100206000A0A0A000000000A0A1F0A1F0A0A041E38
:10021600050E140F04031308040219180609050233
:100226001509160604020000000008040202020472
:100236000802040808080402000A041F040A000051
:1002460004041F040400000000000604020000006D
:100256001F0000000000000006060000100804024F
:1002660001000E11191513110E0406040404040EE0
:100276000E11100804021F1F08040810110E080CA6
:100286000A091F08081F010F1010110E0C02010F9A
:1002960011110E1F1008040202020E11110E111187
:1002A6000E0E11111E1008060006060006060000B6
:1002B6000606000604021008040204081000001FC7
:1002C600001F0000010204080402010E11100804B8
:1002D60000040E11101615150E0E1111111F111115
:1002E6000F11110F11110F0E11010101110E070946
:1002F60011111109071F01010F01011F1F0101073C
:100306000101010E11010119110E1111111F111117
:10031600110E04040404040E1C080808080906113A
:100326000905030509110101010101011F111B1531
:1003360011111111111113151911110E111111119C
:10034600110E0F11110F0101010E111111150916D0
:100356000F11110F0509111E01010E10100F1F04B8
:1003660004040404041111111111110E11111111BB
:10037600110A0411111115151B1111110A040A1184
:100386001111110A040404041F10080402011F1CA1
:1003960004040404041C00010204081000070404F9
:1003A60004040407040A1100000000000000000015
:1003B600001F0204080000000000000E101E111E9F
:1003C60001010D1311110F00000E0101110E101085
:1003D600161911111E00000E111F010E0C12020734
:1003E60002020200001E111E100C01010D13111154
:1003F600110400060404040E08000C08080906028D
:1004060002120A060A120604040404040E00000B73
:100416001515111100000D1311111100000E111107
:10042600110E00000F110F0101000016191E101009
:1004360000000D1301010100000E010E100F020253
:10044600070202120C0000111111191600001111F9
:10045600110A040000111115150A0000110A040AF8
:1004660011000011111E100E00001F0804021F08C3
:100476000404020404080404040404040402040436
:1004860008040402021508000000001F11111111D2
:10049600111F1C051D052905340541054C05570589
:1004A600670571057A058C059F05B005BF05D00562
:1004B600E00520222A2B2C5B3D5D7C7F000000049A
:1004C6000002000180004000200010000800040027
:1004D60002000000008000400020001000080040DC
:1004E60000200010000800040002000103070F1F8F
:1004F6003F7FFF00000000000000442A58041A7ED7
:1005060027221215E32522121503303A2F696D6151
:1005160067652E62696E0046525F4449534B5F45DC
:1005260052520046525F494E545F4552520046525F
:100536005F4E4F545F52454144590046525F4E4FFD
:100546005F46494C450046525F4E4F5F5041544806
:100556000046525F494E56414C49445F4E414D4517
:100566000046525F44454E4945440046525F455851
:100576004953540046525F494E56414C49445F4FD9
:10058600424A4543540046525F57524954455F50CC
:10059600524F5445435445440046525F494E5641D6
:1005A6004C49445F44524956450046525F4E4F54AB
:1005B6005F454E41424C45440046525F4E4F5F46B2
:1005C600494C4553595354454D0046525F4D4B4691
:1005D600535F41424F525445440046525F54494D81
:1005E600454F5554004552524F523A2000455252FB
:1005F6004F523A2042756666657220756E64657262
:10060600666C6F7700536F6C6F6D6F6E20537973E6
:10061600746563682053534432313139204772611F
:1006260070686963732044656D6F0A446973706C02
:10063600617920616E20696D6167652073746F72E0
:10064600656420696E20612062696E6172790A664E
:10065600696C65206F6E206120534420636172646B
:100666002E0A0A004C6F676963616C2064726976B2
:100676006520303A206D6F756E746564204F4B2E81
:100686000A00496D6167652066696C65206F706553
:100696006E6564204F4B2E0A00446973706C617955
:1006A600696E6720696D6167652066726F6D20539C
:1006B6004420636172643A0A00000100EBFE904D2B
:1006C60053444F53352E30004E4F204E414D45205A
:1006D6002020204641543332202020004E4F204E09
:1006E600414D452020202046415420202020200036
:1006F60001002D4E414E00494E4600000C007D285B
:10070600100501008E2AC0060100972AF606000091
:10071600F894EE27E8BFE9BFEABFF091CC01F86094
:10072600F093CC01F8EDF4BFE093A200E09340040F
:10073600A0918000AD7FA160F4BFA093800080E00F
:1007460090E2A0E0B0E2ED930197E9F7E2E0F7E08E
:1007560085919591009761F0A591B59105901590B9
:10076600BF01F00105900D920197E1F7FB01F0CF73
:100776008BBFE0E0E0B9E1B9E2B9E3B9E4B9E5B9C4
:10078600E6B9E7B9E8B9E9B9EAB9EBB9ECB9EDB94F
:10079600EEB9EFB93E2E4E2E5E2EEFEFEDBFEFE334
:1007A600EEBFC0E0D4E20C947A040A921A92FA924E
:1007B6006A937A938A939A93AA93BA93EA93FA934B
:1007C600EFB7EA93C9D6E991EFBFF991E991B991EB
:1007D600A9919991899179916991F99019900990C6
:1007E6001895AA93A881A13010F0A03108F010C086
:1007F600ABEEB5E00E94A526E881A8E9B4E0F0E0FA
:10080600EE0FFF1FEA0FFB1F0E9470280E94A5260D
:10081600FFCFBA93AA9324971A930A93EE81FF8186
:1008260066277727E070FE7FEA83FB836C837D83F0
:1008360000240414050499F0E0918A28F0918B288D
:1008460060918C2870918D28E070FE7FDF01CB01CE
:10085600EA81FB816C817D810E94F32899F1EDE5A7
:10086600F6E2FA93EA93AC81BD818E819F810E9464
:10087600081DEDE5F6E2FA93EA93EEE8F8E2FA935C
:10088600EA93E0E0F2E0FA93EA93ADB7BEB71197C8
:100896005F924F920E94241A4F905F90A0E00E94B0
:1008A600E7273E2EE03011F0A32D9BDFEA81FB8186
:1008B6006C817D81E0938A28F0938B2860938C2845
:1008C60070938D28EE81FF81F1708F010415150557
:1008D60028F0A3EFB5E00E94A526FFCFAEE8B8E268
:1008E600A00FB11FEC91198108812896089566978B
:1008F600C6D0D3D011D1E4EFF1E0E883F983ECE080
:10090600F4E0EA83FB83E0E0EC83ED83EE81EE7FA7
:10091600EE83ED7FEE83E460EE83E77FEE83EF7890
:10092600E064EE83EF81E07FEA60EF83EF78E062D8
:10093600EF83E885E87FE887E778E865E887E98573
:10094600E07EE460E987EA85E07EEA61EA87EB8596
:10095600E07FEE60EB87E067EB87EC85E760EC878E
:10096600E77CE062EC87ED85E87FE260ED87E77C77
:10097600E062ED87EE85E87FE260EE87E77CE06186
:10098600EE87EF85E87FE560EF87E778E061EF8740
:10099600E889E07EE360E88BE06EE88BE989E87F32
:1009A600E560E98BE77CE062E98BEA89E87FE26053
:1009B600EA8BE77CE062EA8BEB89E87FE260EB8B0F
:1009C600E77CE061EB8BEC89E87FE560EC8BE77810
:1009D600E061EC8BED89E07EE360ED8BDE010E9449
:1009E600F422ABE0B6E00E94A5267894CDD5E0309F
:1009F60011F4A3E0F6DEE0E0EA93ABE2B4E20E9493
:100A060094183E2EE03029F4AAE6B6E00E94A52608
:100A160002C0A32DE6DEEDE5F6E2FA93EA93EDE7F2
:100A2600F8E2FA93EA93A1E00E94C6183E2EE0305F
:100A360029F4A8E8B6E00E94A52602C0A32DD1DEBF
:100A4600AFE9B6E00E94A5260E94DA25EE0FA09136
:100A56000C24EA0F1E2F44245524EAE0F0E0FA9312
:100A6600EA931A93E0E0F0E0FA93EA93A0E00E949A
:100A7600B726ADE5B6E20E94F51CFFCFFFCF1A936D
:100A8600E091A200E873E1601E2FE8EDE4BF109349
:100A9600A200E0E0E093A100AAC01A930A930FB760
:100AA600F894E0915000E460E0935000E09151002A
:100AB600E470E1F3E0915000E260E0935000E091D1
:100AC6004100E0781E2FE8EDE4BF10934100E0916D
:100AD6005600EC7FE0935600E0916000E160E09301
:100AE6006000E0915100E270E1F3E0914000E87FA0
:100AF600E1601E2FE8EDE4BF10934000E091500046
:100B0600E67EE0935000E091B400EC7FE093B40001
:100B16000FBF099119910895E0910008E07FE26006
:100B2600E0930008E0910108E870E0930108E09185
:100B36000308E071E0930308E0910608E07FE160B6
:100B4600E0930608E0910708E070E0930708E0915B
:100B56009008EE7FE0939008E0910C08E0930C0873
:100B6600E0E0F0E0E0932008F0932108EFE3FCE9F1
:100B7600E0932608F09327080895AA930E94FF2879
:100B860020E00C81AD81BE813D91AD83BE8318E02E
:100B9600220FE22FE327E07811F0E9E02E27330F4A
:100BA6001150B1F7015071F7E22FEE0FE1600E948C
:100BB600062993C51A93E2E3E093902AEFEFE093B8
:100BC600C30BE091C20BE078E1F3EFEFE093C30BC8
:100BD600E091C20BE078E1F31091C30B1F3F21F0C7
:100BE600E091902AE03009F401C0EFCFE12F19918E
:100BF6000895E0E1E093A506EFEFE093C30BE091E3
:100C0600C20BE078E1F30895BA93AA930E94FF28F5
:100C1600EAE0E0938F2AEFEFE093C30BE091C20B7B
:100C2600E078E1F31091C30B1F3F21F4E0918F2A86
:100C3600E03009F401C0EFCF1E3F21F0E0E00E9452
:100C4600062983C52E813F81EFEFE093C30BE09128
:100C5600C20BE078E1F33F932F932F5F3F4FE09174
:100C6600C30BAF91BF91EC93EFEFE093C30BE09111
:100C7600C20BE078E1F33F932F932F5F3F4FE09154
:100C8600C30BAF91BF91EC93EFEFE093C30BE091F1
:100C9600C20BE078E1F33F932F932F5F3F4FE09134
:100CA600C30BAF91BF91EC93EFEFE093C30BE091D1
:100CB600C20BE078E1F33F932F932F5F3F4FE09114
:100CC600C30BAF91BF91EC93EC81FD813497EC831C
:100CD600FD8309F0B9CFEFEFE093C30BE091C20BB0
:100CE600E078E1F3EFEFE093C30BE091C20BE0781D
:100CF600E1F3E1E00E94062928C5AA930E94FF2895
:100D060059DFEF3F21F0E0E00E940629E6C4EC81BE
:100D1600E093C30BE091C20BE078E1F3AC81AD3F09
:100D2600C1F100E02D813E81D9012F5F3F4FEC914B
:100D3600E093C30BE091C20BE078E1F3D9012F5F9A
:100D46003F4FEC91E093C30BE091C20BE078E1F3E7
:100D5600015051F7EFEFE093C30BE091C20BE0783F
:100D6600E1F3EFEFE093C30BE091C20BE078E1F320
:100D7600EFEFE093C30BE091C20BE078E1F3109143
:100D8600C30BE12FEF71E53021F0E0E00E94062968
:100D9600A4C4E1E00E940629A0C40E948C281A93EC
:100DA6000A93EE81E07889F0EE81EF77EE83E7E74C
:100DB600EA93A0E0B0E080E090E0EFDF0E2F023093
:100DC60020F0E02F1981088188C4E0E1E093A506B0
:100DD600E093A606EFDEEF3F21F0EFEF19810881E1
:100DE6007CC4EE81E093C30BE091C20BE078E1F3A3
:100DF600ED81E093C30BE091C20BE078E1F3EC8167
:100E0600E093C30BE091C20BE078E1F3EB81E09352
:100E1600C30BE091C20BE078E1F3EA81E093C30BE8
:100E2600E091C20BE078E1F311E0AE81A03411F459
:100E360015E904C0AE81A83409F417E81093C30B72
:100E4600E091C20BE078E1F3AE81AC3439F4EFEF18
:100E5600E093C30BE091C20BE078E1F31FEFEFEFF5
:100E6600E093C30BE091C20BE078E1F30091C30B72
:100E760007FF02C0115009F401C0F1CFE02F19811C
:100E860008812BC4BA93AA931A9314E0EFEFE09368
:100E9600C30BE091C20BE078E1F3A981BA81119608
:100EA600A983BA831197E091C30BEC93115071F7A4
:100EB600C0C5AA9324970E94FF28E885E03011F068
:100EC600E1E0C9C0EAE0E0938F2AE0918F2AE030A2
:100ED600E1F7E0918E2AE27009F0BBC0E0E1E09311
:100EE600A106E093A506E0EAE093A606E0E4E09317
:100EF600A206E8E1E093B606E0EBE093A106E3E59F
:100F0600E093C00B3FEF1AE0EFEFE093C30BE091E5
:100F1600C20BE078E1F31150B9F7E0E4EA93A0E000
:100F2600B0E080E090E039DF0E2F3150013011F053
:100F3600303009F401C0E7CF30E0013009F068C075
:100F4600E4E6E0938F2AE8E4EA93AAEAB1E080E0D7
:100F560090E023DFE13091F5DE01149693DFAE8158
:100F6600A13019F4AF81AA3A09F027C0E0918F2A7F
:100F7600E03049F0E9EEEA93A0E0B0E080E090E4EA
:100F86000CDFE03009F401C0F1CFE0918F2AE030A8
:100F960049F0EAE7EA93A0E0B0E080E090E0FDDE09
:100FA600E03009F00AC0DE0114966CDFEC81E074D3
:100FB60011F0ECE001C0E4E03E2F2AC0E9EEEA932E
:100FC600A0E0B0E080E090E0E8DEE23018F432E045
:100FD60009EE02C031E001E4E0918F2AE03041F0F1
:100FE6000A93A0E0B0E080E090E0D7DEE03009F4BC
:100FF60001C0F2CFE0918F2AE03049F0E0E5EA93B4
:10100600A0E0B2E080E090E0C8DEE03009F030E039
:101016003093912AEEDD303049F0E0918E2AEE7F52
:10102600E0938E2AE0EDE093C00B13C0E0E1E0937D
:10103600A606C0DDDEDDE0E0E093C00BE0EFE09366
:10104600A206E0E1E093A206E0918E2AE160E09339
:101056008E2AE0918E2A0E94062929960895AA933F
:10106600E881E03011F0E1E002C0E0918E2A21969D
:101076000895AA93EF81E03019F4E881E03011F485
:10108600E4E063C3E0918E2AE17011F0E3E05DC312
:10109600E091912AE87071F4E981FA816B817C8193
:1010A600A0E0B2E080E090E00E94F927E983FA83AD
:1010B6006B837C83A881A130A9F4E1E5EA93AA8138
:1010C600BB818C819D8169DEE03059F4ED81FE8122
:1010D600FA93EA93A0E0B2E097DDE03011F0E0E0A9
:1010E600E88323C0E2E5EA93AA81BB818C819D81D6
:1010F60054DEE030D1F4ED81FE81FA93EA93A0E06C
:10110600B2E082DDE03051F0ED81FE81E050FE4F2D
:10111600ED83FE83E881E150E88369F7ECE4EA9326
:10112600A0E0B0E080E090E038DE63DDE881E0300A
:1011360011F0E1E001C0E0E008C3AA93EF81E030DE
:1011460019F4E881E03011F4E4E0FFC2E0918E2A60
:10115600E17011F0E3E0F9C2E0918E2AE47011F03B
:10116600E2E0F3C2E091912AE87071F4E981FA8134
:101176006B817C81A0E0B2E080E090E00E94F927DC
:10118600E983FA836B837C83A881A130A1F4E8E527
:10119600EA93AA81BB818C819D81FFDDE03051F409
:1011A600ED81FE81FA93EA93AEEFA7DDE03011F010
:1011B600E0E0E88330C0E091912AE67039F0E7ED8F
:1011C600EA93A981BB2788279927E7DDE9E5EA9312
:1011D600AA81BB818C819D81E0DDE030E1F4ED8167
:1011E600FE81FA93EA93ACEF88DDE03051F0ED81B1
:1011F600FE81E050FE4FED83FE83E881E150E883F7
:1012060071F7E0E0F0E0FA93EA93ADEF76DDE030D7
:1012160011F4E1E0E883EDDCE881E03011F0E1E093
:1012260001C0E0E092C2BA93AA9360970E94FF2899
:10123600EF89E03011F0E4E08BC1E0918E2AE17095
:1012460011F0E3E085C111E0EE89E03041F4E0E120
:10125600E093A606AFDCEF3F09F410E077C1E1307A
:1012660009F05BC0E9E4EA93A0E0B0E080E090E03A
:1012760094DDE03049F4FE013496FA93EA93A0E156
:10128600B0E0C2DCE03009F447C0EC81E295EF70D3
:10129600E695E695E13069F4E0E0FC85AD85B0E0E1
:1012A600EA0FFB1F31969F01D90188279927EAE0AB
:1012B6002CC0E985EF70AE2FEE85E078EE1FE0E0FA
:1012C600EE1FAE0FED85E370EE0FEA0FEE5F0E2F09
:1012D600EC85E295EF70E695E695AE2FEB85F0E0AE
:1012E6000E94C027B0E0AE0FBF1FEA85E370F0E0B2
:1012F6000E94C027FE2FE0E0EA0FFB1F31969F01F8
:10130600D90188279927E02FE9500E94A427AC89A4
:10131600BD890E94662810E019C1E23041F4AC890B
:10132600BD89E0E0F2E0ED93FC9310E00FC1E330FD
:1013360009F0AFC0E091912AE470A1F1EDECEA93D7
:10134600A0E0B0E080E090E028DDE03051F5EFEF7E
:10135600E093C30BE091C20BE078E1F3FE01349613
:10136600FA93EA93A0E1B0E04FDCE030D1F000E37D
:10137600003049F0EFEFE093C30BE091C20BE07849
:10138600E1F30150F5CFEE85E295EF70A0E1B0E014
:1013960080E090E00E94A427AC89BD890E9466285F
:1013A60010E076C0E9E4EA93A0E0B0E080E090E0E7
:1013B600F4DCE03009F06CC0FE013496FA93EA934F
:1013C600A0E1B0E021DCE03009F462C0E091912AAE
:1013D600E27051F1EE85EF73FF27662777270E94AB
:1013E600CE277F936F93FF93EF93EF85E078FF27E8
:1013F60066277727DF01CB01E7E00E94B027AF9190
:10140600BF918F919F910E947D27EF5FFF4F6F4F96
:101416007F4FDF01CB01E989E295EF70E695E6950E
:10142600E1500E94A4272FC0EE85EC77E695E6955D
:10143600FF2766277727EF5FFF4F6F4F7F4F7F931B
:101446006F93FF93EF93EF85E370FF276627772768
:10145600DF01CB01E3E00E94A427DF01CB01EF858A
:10146600E07EE295EF70E695FF27662777270E94D4
:101476007D27EF5FFF4F6F4F7F4FAF91BF918F91EA
:101486009F910E94F927AC89BD890E94662810E0C9
:101496005DC0EA3039F4E091912AAC89BD89EC93BC
:1014A60010E054C0EB3011F409E403C0EC3001F550
:1014B6000AE40A93A0E0B0E080E090E06EDCE03061
:1014C600B1F4EC89FD89FA93EA93A0E1B0E09CDBE4
:1014D600E03069F0EC89FD89FA93EA93AFE04DDBE1
:1014E600AE2FEC89FD89E785EA1709F410E02EC0D6
:1014F600ED3071F4EAE7EA93A0E0B0E080E090E036
:101506004CDCE03021F4AC89BD89BCDC10E01EC0A7
:10151600EE30D9F4EDECEA93A0E0B0E080E090E0A4
:101526003CDCE03089F4EFEFE093C30BE091C20BB3
:10153600E078E1F3EC89FD89FA93EA93A0E4B0E060
:1015460063DBE03009F010E001C014E052DBE12F6C
:101556000E94062968960895E0918F2AE03029F0C6
:10156600E0918F2AE150E0938F2AE091902AE030B3
:1015760029F0E091902AE150E093902AE0918E2A9A
:10158600EB7FE0938E2A08956097E0918E2AE170B2
:1015960021F0A0E08EDCE37081F4E0E0EA93ECE079
:1015A600EA93DE0112963FDEE03039F4E0918E2AAE
:1015B600EC7FE0938E2AE1E006C0E0918E2AE3609C
:1015C600E0938E2AE0E0609608952797A091002484
:1015D600B0910124109731F0A0910224B091032418
:1015E600109729F4E0E0F0E061E27AE376C0FE01CC
:1015F6003696FA93EA93FE013796FA93EA93DE015A
:101606001896E0910024F09101240995FE01339685
:10161600FA93EA93FE013496FA93EA93DE0114965E
:10162600E0910224F09103240995E881F981EC5BAD
:10163600F74066277727DF01CB01E9E10E94A4275F
:101646007F936F93FF93EF93EA81F0E00E94DD278B
:10165600DF01CB01E5E10E94A427AF91BF918F91F5
:101666009F910E949627DF01CB01EB81F0E00E945B
:10167600DD270E94D8270E9496277F936F93FF93BA
:10168600EF93EE81F0E00E94DD27DF01CB01EBE076
:101696000E94A427AF91BF918F919F910E94962798
:1016A6007F936F93FF93EF93ED81F0E00E94DD2728
:1016B600DF01CB01E5E00E94A427AF91BF918F9196
:1016C6009F910E949627DF01CB01EC81F0E0F59512
:1016D600E7950E94DD270E94962727960895BA93DC
:1016E600AA930E94FF28088519852E813F81EC81E7
:1016F600FD813197EC83FD83319661F01F930F9343
:101706000F5F1F4FD9012F5F3F4FEC91AF91BF91F4
:10171600EC93EDCF0E94062985C6BA93AA931A9335
:101726000A930E811F81EA81FB813197EA83FB834D
:10173600319649F01F930F930F5F1F4FEC81AF91C6
:10174600BF91EC93F0CF1981088128960895BA933A
:10175600AA930E94FD280A851B852885398540E0C5
:1017660050E0EE81FF813197EE83FF83319681F061
:10177600D8010F5F1F4F0C901124D9012F5F3F4FE7
:10178600AC91BB27F001EA1BFB0BAF01309709F0C8
:1017960001C0E7CFFA010E9404292C960895BA9356
:1017A600AA93EA81FB81E491E03049F0EA81FB816A
:1017B600A491E881F981B0E0EA17FB0709F406C0B5
:1017C600EA81FB813196EA83FB83EBCFEA81FB81D9
:1017D600E491F0E0249608950E948C2824971A93A9
:1017E600A985BA859E960E945B28E983FA836B8356
:1017F6007C83ED81FE816F817885A981BA818B8199
:101806009C810E94F32809F482C0E985FA85E48167
:10181600E03009F457C0E985FA85A181AA93EA85E3
:10182600FB85F296FA93EA93EC81FD816E817F81C6
:101836000E948728A1E081DCE03011F0E1E068C079
:10184600A985BA851496E0E0EC93E985FA85A2A10C
:10185600B3A184A195A10D01A985BA855A960E94C6
:101866005B28D0010E947D27A981BA818B819C814A
:101876000E94F82838F5E985FA851381123010F1AF
:10188600A985BA855A960E945B28A981BA818B815F
:101896009C810E947D27E983FA836B837C83E9859B
:1018A600FA85A181AA93EA85FB85F296FA93EA93D3
:1018B600EC81FD816E817F810E948728A1E03DDC5D
:1018C6001150DCCFED81FE816F8178850E94E5287D
:1018D600F1F0E985FA85A181AA93EA85FB85F2965E
:1018E600FA93EA93E885F9856A857B850E948728BD
:1018F600A1E0BFDBE03011F0E1E00AC0ED81FE813E
:101906006F817885A985BA859E960E946628E0E053
:1019160018812B960895BA93AA931A93E981FA81AE
:10192600FA93EA93A0E0B0E080E090E055DF1E2F46
:10193600103009F07DC0A981BA81AC91A33029F499
:10194600E981FA81E581E03009F466C0A981BA81AE
:101956009E96E0E0F0E060E070E00E946628E98193
:10196600FA81F296FA93EA93E0E0F0E0FA93EA93CA
:10197600A0E0B2E0D2DEE981FA81F296E250FE4FB3
:10198600A5E5BAEAA083B183E981FA81F296A2E5D8
:10199600B2E581E691E40E948228E981FA81F29615
:1019A600EC51FE4FA2E7B2E781E491E60E9482285D
:1019B600E981FA81F296E851FE4F0F01A981BA81B9
:1019C6001E960E945B28D0010E946628E981FA8152
:1019D600F296E451FE4F0F01A981BA811A960E9430
:1019E6005B28D0010E946628E981FA81A181AA9329
:1019F600EA81FB81F296FA93EA93EC81FD81A28952
:101A0600B389848995890E948C28A1E096DBA981F7
:101A1600BA811596E0E0EC93E981FA81A181AA9357
:101A2600E0E0EA93A0E0B0E0FEDBE03009F011E090
:101A3600E12F1881239608950E948C2824970E94EE
:101A4600FF28A885B9858A859B85A230E0E0BE0778
:101A5600E0E08E07E0E09E0760F0AC85BD855E960F
:101A66000E945B28A885B9858A859B850E94F828EF
:101A760028F0E1E0F0E060E070E0C2C0AC85BD8532
:101A860092960E945B28EC83FD836E837F83AC85F0
:101A9600BD85EC91F0E0E130A0E0FA0709F054C012
:101AA60028853985F901F695E7952E0F3F1FEC85B8
:101AB600FD85FA93EA93D901E0E0F2E00E941F283F
:101AC600AE81BF8188859985662777270E94822700
:101AD60083DEE03009F090C0AC85BD85D296F90171
:101AE600F170AE0FBF1F0C9111272F5F3F4FEC8592
:101AF600FD85FA93EA93D901E0E0F2E00E941F28FF
:101B0600AE81BF8188859985662777270E948227BF
:101B160063DEE03009F070C0AC85BD85D296F90170
:101B2600F170AE0FBF1FEC91FE2FE0E00E2B1F2BC6
:101B3600E885E17021F0F8010E94C52702C0F8018E
:101B4600FF70662777275CC0E230A0E0FA0739F518
:101B5600EC85FD85FA93EA93AA85BB858C859D85E0
:101B6600E0E0F1E060E070E00E943228AE81BF81E3
:101B7600888599850E9482272FDEE030E9F5A885C1
:101B8600B985E2E00E941928F170AC85BD85D29630
:101B9600AE0FBF1F0E9457286627772731C0E33054
:101BA600A0E0FA0749F5EC85FD85FA93EA93AA8544
:101BB600BB858C859D85E0E8F0E060E070E00E94E2
:101BC6003228AE81BF81888599850E94822704DEEE
:101BD600E03091F4A885B985E4E00E941928F170F7
:101BE600AC85BD85D296AE0FBF1F0E945B28EF7FE6
:101BF600FF7F6F7F7F7004C0EFEFFFEF6FEF7FEF28
:101C06000E9406292E9608950E948C2824970E94E9
:101C1600FD28AE85BF8588899989A230E0E0BE0798
:101C2600E0E08E07E0E09E0760F0AA89BB895E9639
:101C36000E945B28AE85BF85888999890E94F8280D
:101C460010F052E0EEC0AA89BB8992960E945B28EA
:101C5600EE83FF8368877987AA89BB89EC91F0E0D8
:101C6600E130A0E0FA0709F07BC00E851F85F80178
:101C7600F695E7950E0F1F1FEA89FB89FA93EA93FB
:101C8600D801E0E0F2E00E941F28A885B9858A8580
:101C96009B85662777270E9482279EDD5E2F503020
:101CA60009F0BAC0AA89BB89D296F801F170EA0F89
:101CB600FB1F9F01EE85E17051F0D901EC91EF70A9
:101CC600AE2FEA85F0E00E94BC27EA2B01C0EA8528
:101CD600D901EC930F5F1F4FAA89BB891496E1E0E7
:101CE600EC93EA89FB89FA93EA93D801E0E0F2E003
:101CF6000E941F28A885B9858A859B856627772730
:101D06000E94822769DD5E2F503009F085C0AA89BE
:101D1600BB89D296F801F170EA0FFB1F9F01EE8591
:101D2600E17059F0AA85BB858C859D85E4E00E940B
:101D3600B027FF276627772710C0D901EC91E07FEF
:101D46001E2EAA85BB858C859D85E8E00E94B0275E
:101D5600FF2766277727EF70E129D901EC935CC04E
:101D6600E230A0E0FA0749F5EA89FB89FA93EA939B
:101D7600A889B9898A899B89E0E0F1E060E070E092
:101D86000E943228A885B9858A859B850E9482276C
:101D960023DD5E2F503009F03FC0AE85BF85E2E0FF
:101DA6000E941928F170AA89BB89D296EA0FFB1FF7
:101DB600AA85BB85A083B1832FC0E330A0E0FA07D4
:101DC60051F5EA89FB89FA93EA93A889B9898A8940
:101DD6009B89E0E8F0E060E070E00E943228A88588
:101DE600B9858A859B850E948227F6DC5E2F503056
:101DF60099F4AE85BF85E4E00E941928F170AA899E
:101E0600BB89D296EA0FFB1FAA85BB858C859D856B
:101E16000E94822801C052E0AA89BB891496E1E09B
:101E2600EC93E52F0E940429649608950E948C285D
:101E360024971A93AD81BE818F819885A230E0E008
:101E4600BE07E0E08E07E0E09E0760F0A985BA8550
:101E56005E960E945B28AD81BE818F8198850E9427
:101E6600F82810F012E074C010E0A985BA855E96D5
:101E76000E945B28AD81BE818F8198850E94F828DB
:101E860008F066C0E985FA85FA93EA93AF81B885CA
:101E960089859A85D1DDE983FA836B837C830E94E9
:101EA600E52809F455C0A981BA818B819C81A130AE
:101EB600E0E0BE07E0E08E07E0E09E0711F412E0E6
:101EC60047C0A981BA818B819C81AF3FEFEFBE07E6
:101ED600EFEF8E07EFEF9E0711F411E039C0E985A9
:101EE600FA85FA93EA93EF81F88569857A850E94E7
:101EF6008728A0E0B0E080E090E086DE1E2F10305C
:101F060039F5E985FA85A685B78580899189AF3F38
:101F1600EFEFBE07EFEF8E07EFEF9E0781F0A98583
:101F2600BA851E960E946128EF5FFF4F6F4F7F4F65
:101F36000E946B28A985BA851596E1E0EC93E981A4
:101F4600FA816B817C81ED83FE836F8378878DCFE9
:101F5600E12F1881D5C30E948C286097AC89BD8972
:101F66005E960E945B280E947D28E889F9896A8925
:101F76007B890E94E528F1F4AC89BD891A960E94F6
:101F86005B28EC83FD836E837F83AC81BD818E816C
:101F96009F810E94ED2829F00E9473280E94F8284C
:101FA60040F0E1E0F0E060E070E0EC83FD836E83FA
:101FB6007F8334C0EC89FD89FA93EA93AA89BB89A9
:101FC6008C899D8939DDEC87FD876E877F87AC8597
:101FD600BD858E859F85A230E0E0BE07E0E08E07D6
:101FE600E0E09E0728F4E1E0F0E060E070E0E2C0A7
:101FF6000E947328AC85BD858E859F850E94F82832
:1020060028F4EC85FD856E857F85D4C0E889F9893D
:102016006A897B89EC83FD836E837F83EC81FD81F6
:102026006E817F81E887F9876A877B87E885F985EE
:102036006A857B85EF5FFF4F6F4F7F4FE887F98794
:102046006A877B870E947328A885B9858A859B85C0
:102056000E94F828C0F0E2E0F0E060E070E0E88777
:10206600F9876A877B87EC81FD816E817F81A885F0
:10207600B9858A859B850E94F32828F4E0E0F0E084
:1020860060E070E097C0EC89FD89FA93EA93AA852F
:10209600BB858C859D85D0DCEC87FD876E877F8729
:1020A6000E94E52851F1AC85BD858E859F85AF3FA1
:1020B600EFEFBE07EFEF8E07EFEF9E0741F0A1307F
:1020C600E0E0BE07E0E08E07E0E09E0729F4EC853D
:1020D600FD856E857F856EC0EC81FD816E817F8179
:1020E600A885B9858A859B850E94F32829F4E0E0B6
:1020F600F0E060E070E05EC099CFEC89FD89FA936C
:10210600EA93EA85FB856C857D850E948728AFEF7B
:10211600BFEF8FEF9FE078DDE03029F0EFEFFFEFC4
:102126006FEF7FEF47C0E889F9896A897B890E944A
:10213600E528B1F0EC89FD89FA93EA93EA89FB89EF
:102146006C897D890E948728AE85BF858889998993
:102156005BDDE03029F0EFEFFFEF6FEF7FEF2AC096
:10216600E885F9856A857B85AC89BD891A960E94C2
:102176006628EC89FD89A685B78580899189AF3F58
:10218600EFEFBE07EFEF8E07EFEF9E0779F0AC8912
:10219600BD891E960E9461283197604070400E945A
:1021A6006B28AC89BD891596E1E0EC93E885F98545
:1021B6006A857B85669608950E948C280E947328FE
:1021C600E250F040604070400E947D28EC81FD8125
:1021D600A68DB78D80A191A1E2E0F0E060E070E00D
:1021E6000E9491280E9487270E9478280E94F8283A
:1021F60028F0E0E0F0E060E070E011C5EC81FD81E0
:10220600E281F0E00E9478280E94DD270E94F927EB
:102216007F936F93FF93EF93AC81BD819A960E9453
:102226005B28AF91BF918F919F910E947D27F7C444
:10223600BA93AA9324971A930A93EE81FF81A885ED
:10224600B9851496ED93FC93A885B98516960E94D8
:102256005B28EA83FB836C837D83AA81BB818C81A7
:102266009D81A130E0E0BE07E0E08E07E0E09E073A
:1022760079F0A885B9850E9457287E96DF010E94CD
:102286005B28AA81BB818C819D810E94F82810F071
:10229600E2E0C6C0EA81FB816C817D810E94E5286F
:1022A60039F4A885B9850E945728A081A33009F082
:1022B6000CC0A885B9850E945728B696DF010E94F2
:1022C6005B28EA83FB836C837D83EA81FB816C81D7
:1022D6007D810E94E528E9F4A885B9851A960E94B1
:1022E6006628A885B9850E9457283896DF010E947E
:1022F6005728AE81BF81AE17BF0710F0E2E090C04D
:10230600A885B9850E945728B696DF010E945B28EA
:1023160063C0A885B9850E945728E281A0E1EA9F9B
:102326008001AE81BF81A017B10708F441C0A8851E
:10233600B9850E945728FA93EA93AC81BD818E81B4
:102346009F817ADBEA83FB836C837D83AA81BB81D1
:102356008C819D81AF3FEFEFBE07EFEF8E07EFEF6A
:102366009E0711F4E1E05CC0AA81BB818C819D814E
:10237600A230E0E0BE07E0E08E07E0E09E0778F0DE
:10238600A885B9850E9457287E96DF010E945B28A2
:10239600AA81BB818C819D810E94F82810F0E2E021
:1023A6003FC0EE81FF81E01BF10BEE83FF83B9CFC7
:1023B600EA81FB816C817D81A885B9851A960E9488
:1023C6006628A885B9850E945728FA93EA93AC81B6
:1023D600BD818E819F81F0DEDF01CB01EE81FF8121
:1023E6000E94C527662777270E947D27A885B9857D
:1023F6001E960E946628A885B9850E945728F296DF
:10240600DF01EE81FF81EF70F070EE0F0E94BC27B6
:10241600EA0FFB1FA885B9855296ED93FC93E0E081
:10242600198108812A960895AA9324970E94FF2865
:10243600A985BA8514960E94572831968F01002ED9
:10244600012A41F0A985BA851E960E945B280E9442
:10245600E52811F4E4E052C1F801EF7009F034C147
:10246600A985BA851E960E946128EF5FFF4F6F4FC0
:102476007F4F0E946B28A985BA851A960E945B2811
:102486000E94E52871F4A985BA850E9457283896D6
:10249600DF010E9457280E171F0710F0E4E02EC137
:1024A60013C1F8010E94C5270F01A985BA850E94AC
:1024B6005728E281F0E03197E021F121309709F0C9
:1024C60003C10E945728FA93EA93EB85FC85A285FF
:1024D600B38584859585B0DAEC83FD836E837F832F
:1024E600AC81BD818E819F81A230E0E0BE07E0E035
:1024F6008E07E0E09E0710F4E2E000C1AC81BD81EA
:102506008E819F81AF3FEFEFBE07EFEF8E07EFEFB4
:102516009E0711F4E1E0F2C0A985BA850E9457280A
:102526007E96DF010E945B28AC81BD818E819F81F2
:102536000E94F82808F4AFC0E885E03011F4E4E022
:10254600DDC0A985BA850E945728FA93EA93EB85E0
:10255600FC85A285B38584859585FDDCEC83FD83AA
:102566006E837F830E94E52811F4E7E0C7C0AC8143
:10257600BD818E819F81A130E0E0BE07E0E08E073D
:10258600E0E09E0711F4E2E0B9C0AC81BD818E8126
:102596009F81AF3FEFEFBE07EFEF8E07EFEF9E078E
:1025A60011F4E1E0ABC0A985BA850E945728FA93D9
:1025B600EA93A0E0B0E080E090E00ED9E03011F0C0
:1025C600E1E09CC0A985BA850E945728F296FA9345
:1025D600EA93E0E0F0E0FA93EA93A0E0B2E09DD857
:1025E600A985BA850E945728DF01BE96FF93EF930F
:1025F600FD01FA93EA93AE81BF8188859985DCDD7A
:10260600AF91BF910E94662830E0A985BA850E94E5
:102616005728E2813E1738F50E9457283496A1E0E4
:10262600A083A985BA850E945728FA93EA93A0E069
:10263600B0E080E090E0D0D8E03011F0E1E05EC09C
:10264600A985BA850E945728BE96DF010E94612897
:10265600EF5FFF4F6F4F7F4F0E946B2831976040AF
:1026660070403F5FD2CFA985BA850E945728BE9693
:10267600FF93EF93DF010E945B28DF01CB01E32F7D
:10268600F0E00E94DD270E9491280E948727AF91E3
:10269600BF910E946628EC81FD816E817F81A985AC
:1026A600BA851A960E946628A985BA850E94572877
:1026B600FA93EA93AE81BF81888599857DDDA985E8
:1026C600BA851E960E946628F801A985BA851496D1
:1026D600ED93FC93A985BA850E945728F296DF01EF
:1026E600F801EF70F070EE0F0E94BC27EA0FFB1F97
:1026F600A985BA855296ED93FC93E0E00E940629DF
:102706002B960895BA93AA930E94FF28EC81FD8127
:10271600FA93EA93A0E0B0E08BDD1E2F103021F093
:10272600E12F0E9406297BC2AC81BD810E945728F9
:10273600FA93EA93EE81FF81A685B7858089918910
:102746004BD81E2F103041F5AC81BD8152962D918C
:102756003C91D9010C91003011F414E01DC0F9012F
:10276600E385E87071F43A932A93EE81FF81A48998
:10277600B589BA93AA93ABE0B0E00E94AA0B309752
:1027860009F001C009C0EC81FD81FA93EA93A0E04B
:102796004BDE1E2F103041F2E12F0E9406293FC268
:1027A600BA93AA930E94FF28EC81FD81FA93EA93DB
:1027B600A0E0B0E03DDD1E2F103021F5AC81BD81DB
:1027C6000E945728FA93EA93EE81FF81A685B78582
:1027D600808991890E94EF0B1E2F103099F4EC81AD
:1027E600FD81A289B3890C91053E11F0003009F4F0
:1027F60009C0EC81FD81FA93EA93A1E015DE1E2F54
:102806001030E1F21030E9F5AC81BD810E94572805
:10281600FA93EA93EE81FF81A685B785808991892F
:102826000E94EF0B1E2F103061F5AC81BD815296D0
:102836002D913C913A932A93E0E0F0E0FA93EA93E3
:10284600A0E2B0E00E94900B3A932A93EE81FF81BA
:10285600A489B589BA93AA93ABE0B0E00E94720B43
:10286600AC81BD8154960E945728E385E871D90151
:102876001C96EC93AC81BD810E9457283496A1E04A
:10288600A083E12F0E940629CAC1BA93AA9325976D
:102896000E94FD28AD85BE8554964D915C915A9354
:1028A6004A93E0E2F0E0FA93EA93ABE0B0E00E94EC
:1028B600900BE0E0E887E9871E2F2E2FE8E0EA87F5
:1028C600AB85BC850E945728EE83FF83E885F98592
:1028D600AE81BF81AE0FBF1FAC91AE32A9F5E885C0
:1028E600F9853196E887F9873197AE81BF81AE0FBA
:1028F600BF1F0C910E3221F4A885B98513970CF0F1
:1029060007C0E22F2F5FF0E0E40FF51F0083E7CF4B
:102916000F3221F00C3511F0013208F402C0E6E066
:102926008AC0E885F985AE81BF81EA0FFB1FAB85BA
:10293600BC85ED93FC93013210F4E4E201C0E0E2C1
:10294600DA011B96EC9376C0E885F9853196E8871F
:10295600F9873197AE81BF81AE0FBF1F0C9101324F
:1029660020F00F3211F00C3509F438C00E3219F090
:10297600EA852E1768F0AA85A83011F40E3211F0F8
:10298600E6E059C028E0EBE0EA87110F110F25C0F9
:10299600003818F01360E6E04EC0E8EBF4E0FA9376
:1029A600EA93A02FBB270E94D20B309711F0E6E0E6
:1029B60042C0013410F00B3508F002C0126007C0A7
:1029C600013610F00B3708F002C011600052E22FFA
:1029D6002F5FF0E0E40FF51F0083B6CFE885F98599
:1029E600AE81BF81EA0FFB1FAB85BC85ED93FC93DF
:1029F600013210F4E4E001C0E0E00E2F203011F4C3
:102A0600E6E019C0DA01AC91A53E19F4DA01E5E079
:102A1600EC93AA85A83011F4110F110FE12FE37082
:102A2600E13009F40061E12FEC70E43009F408604C
:102A3600FA010387E0E00E9404292F960895BA93CD
:102A4600AA930E94FF28E1E0E03029F0AC81BD8125
:102A5600AC91A03209F006C0EC81FD813196EC8381
:102A6600FD83F1CFAC81BD81AC91AF3229F0AC8151
:102A7600BD81AC91AC3579F4EC81FD813196EC8366
:102A8600FD83AE81BF811696E0E0F0E060E070E085
:102A96000E9466280DC0AE81BF810E945728769697
:102AA600DF010E945B28AE81BF8116960E946628D0
:102AB600AC81BD81AC91BB27909780F4EE81FF81FC
:102AC600FA93EA93A0E0B0E0B3DB1E2FAE81BF819C
:102AD6005296E0E0F0E0ED93FC934BC0EE81FF816F
:102AE600FA93EA93DE011696D0DE1E2F103009F017
:102AF60040C0AE81BF8106DE1E2FAE81BF815496D7
:102B06000E945728E385E4700E2F103039F01430F8
:102B160011F4003009F001C015E02BC0003049F572
:102B2600AE81BF8152962D913C91F901E385E0710A
:102B360011F415E01EC0D90154960E945728662745
:102B460077270E94D8277F936F93FF93EF93D9013E
:102B56005A960E945728AF91BF918F919F916627F1
:102B660077270E949627AE81BF8116960E94662817
:102B7600B5CFE12F0E940629289608950E948C2839
:102B8600EC81FD81A181AA93ED81FE81F296FA93F3
:102B9600EA93EB81FC816D817E810E948728A1E00A
:102BA6000E943C08E03011F0E3E039C0EC81FD8181
:102BB600F296E250FE4FDF010E945728E535AAEA59
:102BC600FA0711F0E2E02BC0AC81BD81A859BF4FD6
:102BD6000E945B28EF7FFF7F6F7F7070E634A1E471
:102BE600FA07A4E56A07A0E07A0711F4E0E017C047
:102BF600EC81FD81F296EE5AFF4FDF010E945B28C1
:102C0600EF7FFF7F6F7F7070E634A1E4FA07A4E5DB
:102C16006A07A0E07A0711F4E0E001C0E1E0269639
:102C26000895AA9364970E94FD28AD8DBE8D0E94DB
:102C36005728E887F987A885B985EC91E0530E2FC8
:102C46000A3020F41196AC91AA3309F00AC0E8853F
:102C5600F9853296E887F987AD8DBE8DED93FC93A5
:102C660002C00091962A013010F0EBE034C2E02F4A
:102C7600A2E9BAE2F0E0EE0FFF1FAE0FBF1F0E94FF
:102C86005728EE83FF83AB8DBC8DED93FC93309775
:102C960011F4ECE020C2AE81BF81EC91E03089F006
:102CA600EE81FF81A1810E9432085E2F50FD09C08E
:102CB600EA8DE03011F052FD01C002C0EAE00BC21D
:102CC60009C2AE81BF81E0E0EC93E02FAE81BF8107
:102CD6001196EC93EE81FF81A1810E945C075E2F25
:102CE60050FF02C0E3E0F7C1EA8DE03011F052FD7B
:102CF60001C002C0EAE0EFC1EE81FF81FA93EA93D8
:102D0600E0E0F0E060E070E0E88FF98F6A8F7B8F9B
:102D1600DF01CB0133DF1E2F1130E1F4EE81FF819D
:102D2600F296E254FE4F9F01F901E481E03091F002
:102D3600D90118960E945B28EE8BFF8B688F798FDE
:102D4600EE81FF81FA93EA93A88DB98D8A8D9B8DCA
:102D560015DF1E2F133011F4E1E0BDC1103049F428
:102D6600AE81BF81DD960E945728E030A2E0FA07C7
:102D760011F0EDE0B0C1AE81BF81A85BBF4F0E94EC
:102D8600572866277727EA8BFB8B6C8B7D8B0E94F7
:102D9600E52851F4AE81BF81AA5ABF4F0E945B2835
:102DA600EA8BFB8B6C8B7D8BEA89FB896C897D8931
:102DB600AE81BF815A960E946628EE81FF81EE5B46
:102DC600FF4FE081AE81BF811396EC93EE81FF81C8
:102DD600E381F0E0AA89BB898C899D890E94DD2761
:102DE6000E94F927EA8BFB8B6C8B7D8BAE81BF81B2
:102DF600A05CBF4F0E945728AE89BF89888D998DE8
:102E0600662777270E947D27AE81BF8192960E9412
:102E16006628EE81FF81E7ADAE81BF811296EC9305
:102E2600AE81BF81AD5BBF4F0E945728AE81BF8187
:102E36001896ED93FC93AE81BF81AB5BBF4F0E94AA
:102E4600572866277727EE87FF87688B798B0E943E
:102E5600E52851F4AE81BF81AE5ABF4F0E945B2870
:102E6600EE87FF87688B798BAE81BF81A05CBF4FF1
:102E76000E945728AE85BF85888999896627772756
:102E86000E9491280E948727AA89BB898C899D89DF
:102E96000E9487277F936F93FF93EF93EE81FF81C5
:102EA600A085B185FD010E94C527AF91BF918F9185
:102EB6009F91662777270E948C27EE81FF81E2810A
:102EC600F0E00E94DD270E943228EE5FFF4F6F4F31
:102ED6007F4FEA87FB876C877D87AE81BF815E96D1
:102EE6000E94662811E0AA85BB858C859D85A73F33
:102EF600EFE0BE07E0E08E07E0E09E0708F012E094
:102F0600AA85BB858C859D85A73FEFEFBE07E0E0D0
:102F16008E07E0E09E0708F013E0133039F4AE8127
:102F2600BF81A25ABF4F0E945B280CC0EE81FF8171
:102F3600A2A1B3A184A195A1EA89FB896C897D89A7
:102F46000E947D27AE81BF8196960E946628EE81FB
:102F5600FF81A2A1B3A184A195A1EA89FB896C890D
:102F66007D890E947D277F936F93FF93EF93EE8178
:102F7600FF81A085B185FD010E94C527AF91BF9154
:102F86008F919F91662777270E947D27AE81BF810B
:102F96009A960E946628AE81BF811E96EFEFFFEFDC
:102FA6006FEF7FEF0E946628AE81BF811496E0E046
:102FB600EC93133009F071C0AE81BF811596EC9386
:102FC600AE81BF81AE59BF4F0E945728AE89BF89D7
:102FD600888D998D662777270E947D27AE81BF81D0
:102FE60052960E946628EE81FF81A181AA93EF8105
:102FF600F885F296FA93EA93E985FA85A289B38968
:10300600848995890E948C28A1E00E943C08E030C2
:1030160049F5EE81FF81F296E250FE4FDF010E94F4
:103026005728E535AAEAFA07E9F4AE81BF81D296B8
:103036000E945B28E235A2E5FA07A1E66A07A1E449
:103046007A0781F4EE81FF81F296EC51FE4FDF01A3
:103056000E945B28E237A2E7FA07A1E46A07A1E625
:103066007A0709F01AC0EE81FF81F296E451FE4F0D
:10307600DF010E945B28AE81BF811A960E946628F6
:10308600EE81FF81F296E851FE4FDF010E945B2838
:10309600AE81BF811E960E946628AE81BF811C93B9
:1030A6009E96E0E0F0E060E070E00E946628AE8167
:1030B600BF8156960E946628E091942AF091952A3F
:1030C6003196E093942AF093952AAE81BF811696A5
:1030D600ED93FC93E0E00E9404296F960895BA935D
:1030E600AA93EA81FB81309771F0AA81BB81EC91AA
:1030F600E03049F0EA81FB81A681B781E881F98158
:10310600EA17FB0711F0E9E00AC0EA81FB81A18119
:103116000E943208E17011F0E3E001C0E0E024967D
:103126000895BA93AA931A930A93AC81A13010F02A
:10313600EBE025C0EC81A2E9BAE2F0E0EE0FFF1F5A
:10314600AE0FBF1F0D911C91002E012A19F0D80158
:10315600E0E0EC93EA81FB81309721F0AA81BB8104
:10316600E0E0EC93EC81A2E9BAE2F0E0EE0FFF1F9B
:10317600EA0FFB1FAA81BB81A083B183E0E019811E
:10318600088125960895AA93A2970E94FF28A9A5CB
:10319600BAA5E0E0F0E0ED93FC93EEA1EF71EEA3AB
:1031A600FE01B796FA93EA93FE017296FA93EA93B2
:1031B600EAA5EE71AE2F35DD1E2F103011F0E12F8E
:1031C6003CC1FE013496ECA3FDA3FE017096FA9372
:1031D600EA93A9A5BAA533DC1E2FEEA1EC7109F47A
:1031E600AFC02897103089F0143021F4DE015896CC
:1031F600D7DA1E2F103019F0E12F28961EC1EEA542
:10320600E860EEA72AA53BA580C0EEA5E47019F0FC
:10321600E8E0289612C12AA53BA5022E032A21F032
:10322600F901E385E17119F0E7E0289606C1EEA5FC
:10323600E87009F46AC0D90154960E945728662797
:1032460077270E94D8277F936F93FF93EF93D90137
:103256005A960E945728AF91BF918F919F916627EA
:1032660077270E9496270E947D28F9017496A0E090
:10327600B0E0A083B183F9017A96A083B183F90106
:103286007C96A0E0B0E080E090E00E948228A88DC5
:10329600B98D1496E1E0EC93A88DB98D9E960E94A7
:1032A6005B28EC83FD836E837F830E9473280E94D4
:1032B600E528D9F0E88DF98DFA93EA93AA81BB81C6
:1032C6008C819D810E94190F1E2F103019F0E12F5D
:1032D6002896B3C00E947328E150F04060407040C9
:1032E600A88DB98D1A960E946628E88DF98DFA93F5
:1032F600EA93AE81BF81888599850E94EF0B1E2FC8
:10330600103019F0E12F289698C0EEA5E870B1F0BC
:10331600F9013B96A0E0A0830E94E80AEC83FD83B6
:103326006E837F83D9011E960E946628A88DB98D6B
:103336001496E1E0EC93EEA5E062EEA7289619C09C
:10334600103011F0E12F79C02AA13BA1022E032AE9
:1033560021F0F901E385E07111F0E4E06EC0EEA121
:10336600E27021F0F901E385E17009F402C0E7E0BB
:1033760064C0A889B9899E960E945B28A9A5BAA5AA
:103386005A960E946628EAA1FBA1A9A5BAA55E964F
:10339600ED93FC93EEA1A9A5BAA51496EC93D901D9
:1033A60054960E945728662777270E94D8277F932E
:1033B6006F93FF93EF93D9015A960E945728AF91C6
:1033C600BF918F919F91662777270E949627A9A57F
:1033D600BAA51E960E946628D9015C960E945B28B3
:1033E600A9A5BAA51A960E946628A9A5BAA51696F1
:1033F600E0E0F0E060E070E00E946628A9A5BAA5CA
:103406001596EFEFEC93A9A5BAA55696E0E0F0E085
:1034160060E070E00E946628E889F989A9A5BAA546
:10342600ED93FC93A889B98916960E945728A9A5F9
:10343600BAA51296ED93FC93E0E00E940629AB969E
:103446000895BA93AA932E970E94FD28E88DF98DC8
:10345600EE83FF83AC89BD89E0E0F0E0ED93FC9359
:10346600AA8DBB8D0E945728FA93EA93EC8DFD8DA9
:10347600A281B38134DE1E2F103011F0E12F11C26C
:10348600EA8DFB8DA481A07811F0E2E00AC2EA8DF4
:10349600FB8DA481A17011F4E7E003C2EA8DFB8DD8
:1034A600A285B385848595859F938F93BF93AF93AC
:1034B600A681B78180859185EF91FF916F917F916C
:1034C6000E948727E887F9876A877B87AE89BF8945
:1034D600882799270E94F32820F4E885F985EE8B42
:1034E600FF8BEE89FF89309709F4DAC1EA8DFB8DEF
:1034F600A681B78180859185FD01BC01F170309769
:1035060009F081C1EA8DFB8D0580AA8DBB8D0E94D5
:103516005728E2810E1608F457C0EA8DFB8DA68166
:10352600B781808591850E94ED2831F4AA8DBB8DE7
:103536001E960E945B280EC0AA8DBB8D0E9457283E
:10354600FA93EA93EC8DFD8DA289B38984899589D6
:103556000E941F0DE88BF98B6A8B7B8BA889B98932
:103566008A899B89A230E0E0BE07E0E08E07E0E0B2
:103576009E0740F4AA8DBB8D1496EC91E068EC93FF
:10358600E2E08FC1A889B9898A899B89AF3FEFEFAD
:10359600BE07EFEF8E07EFEF9E0741F4AA8DBB8DB6
:1035A6001496EC91E068EC93E1E07BC1E889F98937
:1035B6006A897B89AA8DBB8D52960E946628AA8D40
:1035C600BB8D1596E0E0EC93AA8DBB8D0E94572823
:1035D600FA93EA93EC8DFD8DA289B3898489958946
:1035E6000E94DF10EC87FD876E877F870E94E528A3
:1035F60041F4AA8DBB8D1496EC91E068EC93E2E061
:1036060050C1EA8DFB8DE581F0E0AC85BD858E85E8
:103616009F850E94DD270E947D27EC87FD876E87A8
:103626007F87AE89BF89E0E0F2E00E941F28AF01E4
:10363600042E052A09F482C0EA8DFB8DE581F0E0AF
:10364600E40FF51F0F01AA8DBB8D0E945728E2815A
:10365600D001F0E0EA17FB0770F4AA8DBB8D0E943B
:103666005728E281F0E0DF01EA8DFB8DE581F0E08D
:10367600AE1BBF0BAD01AA8DBB8D0E945728E18101
:10368600EA93EF81F885FA93EA93EF85F8896989D9
:103696007A890E948728A42F0E943C08E03041F0D6
:1036A600AA8DBB8D1496EC91E068EC93E1E0F9C02D
:1036B600EA8DFB8DA481A07481F0A689B789808DDF
:1036C600918DEC85FD856E857F850E948C27FA019C
:1036D600662777270E94F82808F023C0EA8DFB8D1D
:1036E600A689B789808D918DEC85FD856E857F8550
:1036F6000E948C27E0E0F2E060E070E00E94F9278B
:10370600AE81BF8188279927EA0FFB1FFA93EA93B8
:10371600EC8DFD8DB096FA93EA93A0E0B2E00E949C
:10372600720BAA8DBB8D1596EC91E40FEC93FA0102
:10373600EE0FFF1FFE2FE0E09F018BC0EA8DFB8D91
:10374600A481A07431F1AA8DBB8D0E945728E18116
:10375600EA93EB8DFC8DB096FA93EA93ED8DFE8D90
:10376600A689B789808D918D0E948C28A1E00E9440
:10377600A008E03041F0AA8DBB8D1496EC91E0686C
:10378600EC93E1E08EC0AA8DBB8D1496EC91EF7B95
:10379600EC93EA8DFB8DA689B789808D918DEC859A
:1037A600FD856E857F850E94F328F1F0AA8DBB8D7D
:1037B6000E945728E181EA93EB8DFC8DB096FA932F
:1037C600EA93EF85F88969897A890E948728A1E0BA
:1037D6000E943C08E03041F0AA8DBB8D1496EC9116
:1037E600E068EC93E1E05DC0EC85FD856E857F8544
:1037F600AA8DBB8D56960E946628AA8DBB8D1596FE
:10380600EC91EF5FEC93AA8DBB8D16960E9457281C
:10381600F170A0E0B2E0AE1BBF0B9D01EE89FF89FF
:10382600E217F30710F42E893F89EE81FF81FA93A0
:10383600EA93AC8DBD8D16960E945728F170AC8D1B
:10384600BD8D9096EA0FFB1FFA93EA93D9010E9469
:10385600720BF901AE81BF81EA0FFB1FEE83FF8376
:10386600EA8DFB8D36960F01DF010E945B28DF0192
:10387600CB01F901662777270E947D27D0010E9498
:103886006628AC89BD890E945728E20FF31FED9385
:10389600FC93EE89FF89E21BF30BEE8BFF8B21CEA7
:1038A600E0E00E9404296C960895BA93AA9324979F
:1038B6000E94FF28A885B9850E945728FA93EA93A3
:1038C600EA85FB85A281B3810ADC1E2F103009F040
:1038D60084C0E885F985A481A07209F47EC0A4811C
:1038E600A07401F1A885B9850E945728E181EA9361
:1038F600E985FA85B096FA93EA93EB85FC85A68965
:10390600B789808D918D0E948C28A1E00E94A00825
:10391600E03011F0E1E062C0A885B9851496EC911B
:10392600EF7BEC93A885B9850E945728FA93EA9312
:10393600EA85FB85A28DB38D848D958D0E94EF0B54
:103946001E2F103009F049C0A885B9855E962D91C5
:103956003C91D9011B96EC91E062EC93A885B98560
:103966001A960E945B28D9015C960E946628A88553
:10397600B9851E960E945728D9015A96ED93FC9355
:10398600E885F985A685B78580899189FD01BC0101
:103996000E94D327D9015496ED93FC930E94E80A1E
:1039A600EC83FD836E837F83D90156960E94662839
:1039B600A885B9851496EC91EF7DEC93A885B98519
:1039C6000E9457283496A1E0A083A885B9850E9455
:1039D6005728DF010E948E0C1E2FE12F0E94062918
:1039E6002A960895BA93AA931A93A981BA815DDF9C
:1039F6001E2F103031F4A981BA81E0E0F0E0ED939A
:103A0600FC93E12F1881239608950E948C286097D5
:103A16001A93AD89BE890E945728FA93EA93EF89D3
:103A2600F88DA281B3815BDB1E2F103009F09AC29C
:103A3600ED89FE89A481A07811F0E2E094C2AD89F7
:103A4600BE891A960E945B28A989BA898B899C89A6
:103A56000E94F32828F4ED89FE89A481A27009F05A
:103A660009C0AD89BE891A960E945B28E98BFA8B3C
:103A76006B8B7C8BAD89BE8916960E945B28E98389
:103A8600FA836B837C83E0E0F0E060E070E0ED8336
:103A9600FE836F837887AD89BE8916960E94662855
:103AA600AD89BE891596EFEFEC93A989BA898B8902
:103AB6009C890E94ED2808F0CBC1AD89BE890E9481
:103AC6005728E281F0E00E94DD27A0E0B2E080E026
:103AD60090E00E94F927E987FA876B877C87A9819E
:103AE600BA818B819C810E94ED2858F5E989FA8973
:103AF6006B897C89E150F04060407040DF01CB016A
:103B0600E985FA856B857C850E9432287F936F93C1
:103B1600FF93EF93E981FA816B817C81E150F0405C
:103B260060407040DF01CB01E985FA856B857C85B5
:103B36000E943228AF91BF918F919F910E94F828E1
:103B460008F434C0E981FA816B817C81E150F04050
:103B560060407040DF01CB01E985FA856B857C8585
:103B6600E150F040604070400E94E2270E94912799
:103B7600AD89BE8916960E946628AD89BE891696BD
:103B86000E945B28A989BA898B899C890E948C2707
:103B9600A98BBA8B8B8B9C8BAD89BE8952960E9462
:103BA6005B28ED87FE876F87788B57C0AD89BE8906
:103BB6001E960E945B28ED87FE876F87788B0E9492
:103BC600E52809F041C0AD89BE890E945728FA93BD
:103BD600EA93A0E0B0E080E090E00E94AE0FED87AF
:103BE600FE876F87788BAD85BE858F859889A130D6
:103BF600E0E0BE07E0E08E07E0E09E0741F4AD8915
:103C0600BE891496EC91E068EC93E2E0ACC1AD8518
:103C1600BE858F859889AF3FEFEFBE07EFEF8E0722
:103C2600EFEF9E0741F4AD89BE891496EC91E068EA
:103C3600EC93E1E098C1ED85FE856F857889AD89C5
:103C4600BE891E960E946628ED85FE856F85788959
:103C5600AD89BE8952960E946628ED85FE856F85E0
:103C660078890E94E52809F4F3C0E985FA856B8511
:103C76007C85A989BA898B899C890E94F32808F0DA
:103C860091C0ED89FE89A481A270E9F0AD89BE8953
:103C96000E945728FA93EA93AF85B88989899A8949
:103CA6000E94AE0FED87FE876F87788B0E94E5280E
:103CB60049F4E985FA856B857C85E98BFA8B6B8BF4
:103CC6007C8B70C010C0AD89BE890E945728FA93BC
:103CD600EA93AF85B88989899A890E941F0DED8775
:103CE600FE876F87788BAD85BE858F859889AF3FB8
:103CF600EFEFBE07EFEF8E07EFEF9E0741F4AD89BA
:103D0600BE891496EC91E068EC93E1E02CC1AD8598
:103D1600BE858F859889A230E0E0BE07E0E08E0779
:103D2600E0E09E0778F0AD89BE890E9457287E960E
:103D3600DF010E945B28AD85BE858F8598890E942C
:103D4600F82840F0AD89BE891496EC91E068EC93B2
:103D5600E2E009C1ED85FE856F857889AD89BE896A
:103D660052960E946628ED89FE8936960F01DF017C
:103D76000E945B28A985BA858B859C850E947D2734
:103D8600D0010E946628A985BA858B859C85E9891C
:103D9600FA896B897C890E948727E98BFA8B6B8B62
:103DA6007C8B63CFED89FE8936960F01DF010E9479
:103DB6005B28A989BA898B899C890E947D27D001B5
:103DC6000E946628A989BA898B899C89E0E0F2E07D
:103DD60060E070E00E943228AD89BE891596EC93AA
:103DE600E989FA896B897C89F170309789F1AD8907
:103DF600BE890E945728FA93EA93AF85B8898989C4
:103E06009A890E94DF10ED83FE836F8378870E9474
:103E1600E52841F4AD89BE891496EC91E068EC93EF
:103E2600E2E0A1C0ED89FE89E581F0E0AD81BE81C9
:103E36008F8198850E94DD270E947D27ED83FE8372
:103E46006F837887AD89BE891596EC91EF5FEC9309
:103E5600ED89FE89A681B78180859185FD01BC012A
:103E6600F170309761F0AD89BE8956960E945B2845
:103E7600AD81BE818F8198850E94F32809F452C0D6
:103E8600ED89FE89A481A07431F1AD89BE890E94B5
:103E96005728E181EA93EE89FF89B096FA93EA936F
:103EA600E88DF98DA689B789808D918D0E948C2821
:103EB600A1E00E94A008E03041F0AD89BE891496C9
:103EC600EC91E068EC93E1E04EC0AD89BE891496B2
:103ED600EC91EF7BEC93AD89BE890E945728E18176
:103EE600EA93EE89FF89B096FA93EA93E885F98515
:103EF6006A857B850E948728A1E00E943C08E03005
:103F060041F0AD89BE891496EC91E068EC93E1E04E
:103F16002AC0ED81FE816F817885AD89BE8956966E
:103F26000E946628ED89FE89A681B78180859185E4
:103F36000D01AD89BE891A960E945B28D0010E94A8
:103F4600F32880F4AD89BE8916960E945B28AD8958
:103F5600BE891A960E946628AD89BE891496EC9190
:103F6600E062EC93E12F188167960895FF92AA9379
:103F760021970E94FD28EF81E03011F0E53069F4C9
:103F8600AA85A33031F4A0912724B0912824109754
:103F960009F002C00C94DE211DC0E13011F0E230C0
:103FA60009F402C0E33009F402C0E43011F40C94C1
:103FB600DE21E63079F4EA85E13011F40C94DE2155
:103FC600E33041F4E0912924F0912A24309711F44A
:103FD6000C94DE21AF85B889A034E1E0BE0750F429
:103FE600AE85A03F38F4AC85BD85109719F0AB853A
:103FF600A03011F40C94DE21EC85FD85AF85B889DF
:10400600AE0FBF1FA134E1E0BE0740F0AF85B8890F
:10401600E0E4F1E0EA1BFB0BEC87FD87AE85BB27EE
:10402600EB85F0E0AE0FBF1FA13FE0E0BE0720F03A
:10403600AE85E0EFEA1BEB87EF85F889FA93EA9302
:10404600E889EA93EF85F889AA89BB89AE0FBF1F75
:104056001197BA93AA93E889AB89AE0FA1500E9433
:10406600B922EF85F889FA93EA93A8890E94AA22D1
:10407600AF81A63009F060C00E944922EA85E3308C
:1040860071F5EB85E150EB87EF5F41F12C853D85BE
:10409600F90121503040309701F10E9429228F0109
:1040A600E885F9853196E887F9873197FA93EA9397
:1040B600A02FE0912924F0912A240995E885F98515
:1040C6003196E887F9873197FA93EA93A12FE09121
:1040D6002924F0912A240995DBCFD3CF2BC0EB8579
:1040E600E150EB87EF5F31F12C853D85F9012150D9
:1040F60030403097F1F00E9429228F01EA85EA9339
:10410600E985FA853196E987FA873197FA93EA9332
:10411600A02F0E945427EA85EA93E985FA8531960D
:10412600E987FA873197FA93EA93A12F0E945427D9
:10413600DDCFD5CF0C94D321AF81A73041F40091C8
:10414600042410910524E0911124E0FB09C0AF81FD
:10415600A83009F05AC000911D2410911E24E8943D
:10416600F0F8EC85FD850E94C727EE83EC85E770A5
:10417600EC87E03019F0EE81EF5FEE83E2E0E0934A
:104186006506EB85E150EB87EF5FE9F150E0EE81E4
:104196005E17C0F5EA85EA93E985FA853196E987DF
:1041A600FA87319766277727DF01CB010E943527EB
:1041B6002E2F48E05F5FEE81E51721F4EC85E030B5
:1041C60009F04C85F0FE0FC020FF07C0EFEFE0932B
:1041D6000006D8010E94E32102C00E9453222695C0
:1041E600415091F70EC020FF02C0F80104C0E091D3
:1041F6000624F0910724DF010E94E3212695415011
:1042060091F7C5CFBECF0C94D321AC85BD85882749
:104216009927EB85FF27662777270E94F9279F01B5
:10422600462FE2E0E0936506EF81E03009F048C0F2
:10423600AA85A33001F5A885B9851196A887B987FF
:104246001197E0912724F091282409950E2FA8852F
:10425600B9851196A887B9871197E0912724F0911F
:10426600282409951E2FD8010E94E32121503040B1
:10427600404009F724C0EA85EA93E985FA85319634
:10428600E987FA87319766277727DF01CB010E94F6
:1042960035270E2FEA85EA93E985FA853196E9876F
:1042A600FA87319766277727DF01CB010E943527EA
:1042B6001E2FD80185D0215030404040E1F670C015
:1042C600E53009F05FC0AA85A33059F5A885B98500
:1042D6001196A887B9871197E0912724F091282491
:1042E60009950E2FA885B9851196A887B9871197C4
:1042F600E0912724F091282409951E2FE0910824A7
:10430600F0910924E017F10731F0EFEFE093000692
:10431600D80156D001C0C4D0215030404040B1F63B
:1043260030C0EA85EA93E985FA853196E987FA8706
:10433600319766277727DF01CB010E9435270E2F9D
:10434600EA85EA93E985FA853196E987FA8731970E
:1043560066277727DF01CB010E9435271E2FE091C4
:104366000824F0910924E017F10731F0EFEFE0930C
:104376000006D80125D001C093D0215030404040DE
:1043860081F60EC0E93029F4A0910624B0910724E5
:1043960006C0EA3029F4A0910424B0910524CDD0BA
:1043A600E0E0F0E0FA93EA93EA93EFE3F1E0FA93C0
:1043B600EA93AFEEDBD00E9404296196FF90089540
:1043C600BA93AA93E2E0E0936606E1E0E09366061C
:1043D600E4E0E0936606E0E0E09304067BD0E4E0E8
:1043E600E093650677D0E4E0E0936606E2E2E093C8
:1043F600040670D0E4E0E0936506E2E0E09365062B
:10440600A881B98102D00C943B25BA93AA93E1E026
:10441600E0936606E4E0E0936606E981E09304062D
:1044260059D0E4E0E093650655D0E4E0E0936606F3
:10443600E881E09304064ED0E4E0E09365060000D0
:104446000000E1E0E09365060C943B251A930A937D
:10445600E1E0E0936606E8E0E09366063BD0109163
:104466000806E8E0E093650635D034D0E8E0E0934E
:10447600660630D000910806E8E0E0936506E1E0C4
:10448600E0936506F801099119910895E2E0E09339
:104496006506E0E0E0930006E1E0E09366060FC003
:1044A600E0E0E0930006E1E0E0936606E8E0E093F2
:1044B600660610D0E8E0E09365060CD00BD0E8E085
:1044C600E093660607D0E8E0E0936506E1E0E09356
:1044D600650608950000000000000895AA93E2E032
:1044E600E0936606EFEFE0930006A881BB278DDF19
:1044F60022C0BA93AA93E2E0E0936506EFEFE09359
:104506000006A881B98181DF0C943B25BA93AA9352
:10451600AA81E4DFA881B981ECDF0C945227E2E09E
:10452600E0936506E0E0E093000690DF0895AA9325
:10453600A881D4DFF4DF21960895BA93AA93A881BF
:10454600B98163DF215030404040C9F791C2AA9338
:10455600EEE4EA93AA81BB81D9DFEFE4EA93A9816D
:10456600BB27D4DFA2E2BADF0C945227AA93E5E474
:10457600EA93AD81BE81CADFE6E4EA93AA81BB81F4
:10458600C5DFE4E4EA93E0E0F981DF01EC81F0E0E5
:10459600AE0FBF1FBBDF26960895E0E0F0E0FA936A
:1045A600EA93A0E0D4DFE2E0E09365062F933F9321
:1045B6004F9320E03CE241E0A0910624B09107240D
:1045C600BCDF4F913F912F91E0E0F0E0FA93EA9340
:1045D600A0E0BDDFE0E0F0E0FA93EA93A0E024D4A7
:1045E6000895BA93AA936697E1E0E0936106E09393
:1045F6006506E8E0E0936106E0936506E4E0E09393
:104606006106E0936506E2E0E0936106E0E1E0938F
:104616006106E0936606A5E0B0E00E947327E0E13C
:10462600E0936506A0E083DFE939A9E9FA0711F00E
:10463600E0E0F3C1EE89FF89309729F0DE0186E1DB
:104646000E94D12806C0EAEFF4E0DE0186E10E946E
:10465600DB28E0E0EA93A1E0B0E058DFAFE0B0E0AD
:104666000E947327E3E0EA93E885EF70F070E29525
:10467600E07FFE2FE0E0DF01EF81E295E770F0706A
:10468600EE0FFE2FE0E0AE0FBF1FE885EF70F07073
:10469600E295E07FAE0FBF1FE885E295E770F07008
:1046A600EE0FAE0FBF1F32DFECE0EA93E985E7704D
:1046B600F0E0DF012BDFEDE0EA93E985E695E6958C
:1046C600E695EF70F0E0DF0121DFEEE0EA93EA85A0
:1046D600EF71F070FE2FE0E0E050F04EDF0116DFE4
:1046E600EEE1EA93EB85EF71F070A0E8B0E0AE0F73
:1046F600BF1F0CDFAFE0B0E00E947327E1E0EA9352
:10470600EF81E695E695E170F070E295E07FFE2F89
:10471600E0E0DF01EF81E695E695E695E170F07061
:10472600EE0FEE0FEE0FFE2FE0E0EA0FFB1FBF01CC
:10473600EF81E1700E94EC27F0E0DF01EEE00E94DD
:104746009B27DB01AE0FBF1FEF81E695E1700E944C
:10475600EC27F0E0EE0FFF1FFE2FE0E0AE0FBF1FCD
:10476600A151BF4D0E948922E2E0EA93A0E0B0E1A8
:104776000E948922E0E1EA93A0E0B0E00E9489224B
:10478600E1E1EA93A0E3B2E60E948922AEE1B0E05D
:104796000E947327E7E0EA93A3E3B0E00E94892230
:1047A600EBE0EA93A8E0B3E50E948922EFE0EA9302
:1047B600A0E0B0E00E948922E5E2EA93EC85EF7082
:1047C600F070E295E07FFE2FE0E0DF010E94892293
:1047D600A4E1B0E00E947327E1E4EA93A0E0B0E030
:1047E6000E948922E2E4EA93A0E0B0E00E948922D6
:1047F600E8E4EA93A0E0B0E00E948922E9E4EA93C3
:10480600AFEEB0E00E948922E0E0F0E0FA93EA938E
:10481600EA93EFE3F1E0FA93EA93AFEEA7DEA4E1C1
:10482600B0E00E947327E0E3EA93ED85E770F0704D
:10483600FE2FE0E0DF01EC85E295E770F070AE0F49
:10484600BF1F0E948922E1E3EA93ED85E695E6958E
:10485600E695E770F070DF01EE85E770F070FE2FE9
:10486600E0E0AE0FBF1F0E948922E2E3EA93EE85E5
:10487600E695E695E695E770F070DF01EF85E7705F
:10488600F070FE2FE0E0AE0FBF1F0E948922E3E327
:10489600EA93EF85E695E695E695E770F070DF0119
:1048A600E889E770F070FE2FE0E0AE0FBF1F0E94B0
:1048B6008922EAE3EA93E889E695E695E695EF70BC
:1048C600F070DF01E989EF71F070FE2FE0E0AE0FC6
:1048D600BF1F0E948922E4E3EA93EA89E770F07039
:1048E600FE2FE0E0DF01E989E295EF70E695E770DB
:1048F600F070AE0FBF1F0E948922E5E3EA93EA89B2
:10490600E695E695E695E770F070DF01EB89E770CE
:10491600F070FE2FE0E0AE0FBF1F0E948922E6E393
:10492600EA93EB89E695E695E695E770F070DF0188
:10493600EC89E770F070FE2FE0E0AE0FBF1F0E941B
:104946008922E7E3EA93EC89E695E695E695E77032
:10495600F070DF01ED89E770F070FE2FE0E0AE0F3A
:10496600BF1F0E948922EBE3EA93ED89E695E6955F
:10497600E695EF70F070DF01EE89EF71F070FE2FB3
:10498600E0E0AE0FBF1F0E948922EFEFFFEFE0933A
:104996000424F0930524E0E0F0E0E0930624F0938D
:1049A6000724E0930824F0930924E881F981E09331
:1049B6000D24F0930E24EA81FB81E0932724F093E3
:1049C6002824EC81FD81E0932924F0932A24E1E058
:1049D600E0930F24E0931024E0911124EE7FE093FE
:1049E6001124E1E0E0931224EFEFE0931324EFEFBC
:1049F600FFEFE0931D24F0931E24EFE1F4E2FA9317
:104A0600EA93EFEFEA93A8E0B0E00E942527A4E13D
:104A1600B0E00E947327C1DDE1E068960895BA937D
:104A2600AA93A881B9810E94E9281CF0E0E0F0E091
:104A36001FC0A881B981A034E1E0BE071CF0EFE3F6
:104A4600F1E016C013C0BA93AA93A881B9810E9457
:104A5600E9281CF0E0E0F0E00BC0A881B981A03F96
:104A6600E0E0BE071CF0EFEEF0E002C0E881F9815D
:104A760022960895AA93A981BA81A034E1E0BE07DF
:104A860018F4A881A03F28F0E0E0F0E060E070E0D4
:104A960006C2A981BA8188279927E881FF27662758
:104AA60077270E94F927DF01CB01E5E00E94A427C2
:104AB600F6C1BA93AA9323970E94FD28E0910D248C
:104AC600F0910E248F01002E012A19F4E0E0F0E0A7
:104AD6006AC0F8010F5F1F4F04900F82F8010F5F45
:104AE6001F4F04900E82F8010F5F1F4F0490088637
:104AF600EB85A885EA1718F4E0E0F0E054C0F80169
:104B06000F5F1F4F5491E52FA885AE0FEB85EA176F
:104B160018F0E0E0F0E047C0EF81E030E1F0A98571
:104B2600BA85EC93E695E695E6954E2FEF81E7700C
:104B360009F04F5FA885EB85EA1BF0E0DF01EE8107
:104B4600F0E00E94F127DF01E42FF0E00E94F12758
:104B5600E00FF11F28C09801E52FF0E00E0F1F1F90
:104B6600A885AF5FA887A150EB85AE17B0F4F90111
:104B7600E491E695E695E6954E2FF9012F5F3F4FB6
:104B8600E491E77009F04F5FAE81BB27E42FF0E0B8
:104B96000E94F1270E0F1F1FE3CFF901E491A985AB
:104BA600BA85EC93F8010E9404292C960895E091A9
:104BB6000D24F0910E24309711F4E0E00895E09171
:104BC6000D24F0910E243196A491E0911024EA0F61
:104BD6000895E0E0F0E0E0930A24F0930B24A0911E
:104BE6000C24BB27E0910D24F0910E243196E4911C
:104BF600F0E0AE0FBF1FE0911024F0E0AE0FBF1F34
:104C060022DFE0930C240895AA9321970E94FD28A1
:104C1600E0910D24F0910E24309709F48BC0AF81FA
:104C2600AA3009F485C0EF81EA93DE01179641DFC9
:104C3600AF01309709F482C0E0910F24AE81EA0FEC
:104C46003E2FA0910A24B0910B24E32FF0E0EA0F47
:104C5600FB1F8F010134E1E01E0718F0032F112717
:104C6600B8DFE0910A24F0910B24FA93EA93E091DD
:104C76000C24EA93E985F0E0FA93EA93E0910D2497
:104C8600F0910E243196E491EA93E1E0EA935A9387
:104C96004A93A7E00E94B91FE0911124E17009F040
:104CA60042C0A0910A24B0910B24EE81F0E0EA0FF5
:104CB600FB1FFA93EA93E0910C24EA93E0910F2408
:104CC600F0E0FA93EA93E0910D24F0910E243196E8
:104CD600E491EA93E0E0EA93E0E0F0E0FA93EA9305
:104CE600A9E00E94B91FE0910A24F0910B24FA93DF
:104CF600EA93A0910C24E0910D24F0910E243196B4
:104D0600E491EA0FEA93E32FF0E0FA93EA93E09155
:104D16001024EA93E0E0EA93E0E0F0E0FA93EA9305
:104D2600A9E00E94B91FE0E4F1E0E017F10711F4F1
:104D360050DF04C000930A2410930B240E94042918
:104D460028960895BA93AA931A93E981FA8131961F
:104D5600E983FA833197E4911E2FE03019F0A12FF1
:104D660053DFF3CF18819BC0AA932497AC81A03060
:104D760011F0A53031F4E0912724F09128243097E2
:104D860009F44CC0AD81BE811196AD83BE831197E7
:104D9600E0912724F09128240995EA83AD81BE810C
:104DA6001196AD83BE831197E0912724F0912824B4
:104DB6000995EB83AD81BE811196AD83BE831197B4
:104DC600E0912724F09128240995E883AD81BE81DE
:104DD6001196AD83BE831197E0912724F091282484
:104DE6000995E983E885F985FA93EA93E985EA93D3
:104DF600ED81FE81FA93EA93ED81EA93E3E0EA938B
:104E0600EC85FD85FA93EA93AD850E94B91FEA8188
:104E1600FB81FA93EA93AA812DDE04C0E0E0F0E07C
:104E260060E070E02A960895AA93A981BA81F7DD19
:104E3600E0930A24F0930B24A881BB2704DEE093B9
:104E46000C242DC0BA93AA93B981A881109631F08B
:104E5600FC81EB816A8161931197E9F7EB81FC8113
:104E660025960895BA93AA93EA81E13021F4E88160
:104E7600F981E49114C0E23029F4A881B9810E9435
:104E86009E280DC0E33041F4A881B981E091272422
:104E9600F0912824099503C0A881B981EC91239645
:104EA6000895AA93EB81E03029F4E881A981BA81BB
:104EB600EC9314C0E23031F4E881A981BA810E94F2
:104EC600A7280CC0E33051F4E981FA81FA93EA93FA
:104ED600AA81E0912924F0912A240995249608951F
:104EE600109639F080E49FE10197F1F7A8951197A4
:104EF600C9F70895EA0FFB1F681F791F0895AE0FC3
:104F0600BF1F861F971F0895EA1BFB0B680B790BC3
:104F16000895AE1BBF0B860B970B0895EA23FB2360
:104F2600682379230895EA2BFB2B682B792B0895A8
:104F3600EE230E2EFD0121F0EE0FFF1F0A94E1F77E
:104F46000895EE230E2EFD01BC0131F0EE0FFF1F7A
:104F5600661F771F0A94D1F70895EE230E2EFD01E2
:104F6600BC0131F076956795F795E7950A94D1F7E8
:104F76000895EE0FFF1FEE0FFF1FEE0FFF1FEE0F40
:104F8600FF1F0895F695E795F695E795F695E7954B
:104F9600F695E7950895EE0FFF1F661F771F089594
:104FA600E62FF72F60E070E008956E2F7F2FE0E088
:104FB600F0E008956F2F660F660B762F0895E09543
:104FC600F095609570950895EA17E1E009F4EE27EB
:104FD6000895EE23E1E009F0EE270895FA9FF02DFB
:104FE600EB9FF00DEA9FE02DF10D08957A9F702D4D
:104FF6006B9F700DF89F700DE99F700D6A9F602D75
:10500600710DFB9F600D711DE89F600D711D882756
:10501600FA9FF02D610D781FEB9FF00D611D781F33
:10502600EA9FE02DF10D681F781F08956E2F6A9F85
:10503600F0016B9FF00D08950024112490E1AA0F52
:10504600BB1F001C111C0E1A1F0A18F40E0E1F1E81
:1050560001C0A1609A9599F7FD01D00108953F938B
:105066004F935F93002411244427552730E2AA0F5B
:10507600BB1F881F991F001C111C441F551F0E1AA9
:105086001F0A460B570B28F40E0E1F1E461F571FEE
:1050960001C0A1603A9559F7FD01BC01D001CA01D2
:1050A6005F914F913F910895ED91FC91119708956D
:1050B600ED91FD916D917C9113970895ED91FD9180
:1050C6006D917D910895ED93FD936D937C93089575
:1050D6007E936E93FE93EE930895A591B4910895F1
:1050E600E881F9816A817B810895A881B9818A81E5
:1050F6009B810895E883F9836A837B830895A0835F
:10510600B1838283938308957A936A93FA93EA9399
:1051160008959A938A93BA93AA930895182E862F80
:10512600612D192E972F712D1B2EBF2FF12D1A2EA3
:10513600AE2FE12D0895A895E091CF01E7FDFBCFB5
:10514600B05FEC91B051089523D0B05F8C918E176B
:1051560011F4B05108959E2F1BD07F937FB7F8941A
:105166009C93B051A093C001B093C10180E080939D
:10517600C20185E38093CA0188ED91E084BF9093D4
:10518600CB0106D080E08093CA017FBF7F9108954E
:10519600A8958091CF0187FDFBCF08959927EF93BE
:1051A600FF9361916D930197E1F7FF91EF91089558
:1051B6009927EF93FF9305900D920197E1F7FF91E1
:1051C600EF910895309760407040089500240A16C4
:1051D6000B06089500240A160B060806090608950C
:1051E600EA17FB07680779070895AE17BF07860712
:1051F600970708955A934A933A932A931A930A93D0
:1052060008955D814C813B812A8119810881089529
:00000001FF
