:0E0000000C948D020C9400000C9400000C94E3
:10000E0000000C9400000C9400000C9400000C9462
:10001E0000000C9400000C9400000C9400000C9452
:10002E0000000C9400000C9400000C9495030C94AA
:10003E0000000C9400000C9400000C9400000C9432
:10004E0000000C9400000C9400000C9400000C9422
:10005E0000000C9400000C9400000C9400000C9412
:10006E0000000C9400000C9400000C9400000C9402
:10007E0000000C9400000C9400000C9400000C94F2
:10008E0000000C9400000C9400000C9400000C94E2
:10009E0000000C9400000C9400000C9400000C94D2
:1000AE0000000C9400000C9400000C9400000C94C2
:1000BE0000000C9400000C9400000C9400000C94B2
:1000CE0000000C9400000C9400000C9400000C94A2
:1000DE0000000C9400000C9400000C9400000C9492
:1000EE0000000C9400000C9400000C9400000C9482
:1000FE0000000C9400000C9400000C9400000C9472
:10010E0000000C9400000C9400000C9400000C9461
:10011E0000000C9400000C9400000C9400000C9451
:10012E0000000C9400000C9400000C9400000C9441
:10013E0000000C9400000C9400000C9400000C9431
:10014E0000000C9400000C9400000C9400000C9421
:10015E0000000C9400000C9400000C9400000C9411
:10016E0000000C9400000C9400000C9400000C9401
:10017E0000000C9400000C9400000C9400000C94F1
:10018E0000000C9400000C9400000C9400000C94E1
:10019E0000000C9400000C9400000C9400000C94D1
:1001AE0000000C9400000C9400000C9400000C94C1
:1001BE0000000C9400000C9400000C9400000C94B1
:1001CE0000000C9400000C9400000C9400000C94A1
:1001DE0000000C9400000C9400000C9400000C9491
:1001EE0000000C9400000C94FA070C94770802019E
:1001FE000C2407311000000A0000000022402240AB
:10020E000302042404330800000300082404340805
:10021E000000C0030A64FA000300000000001E0084
:10022E001E001E001E001E001E001E001E001E00D0
:10023E001E00E2E2E2E2E2E2E2E2E2E2E21EE21EBE
:10024E00E21EE21EE21E12010002EF020120EB038B
:10025E00203111030102030105010902A101050963
:10026E0019012903150025019503750181029501D8
:10027E00750581030501093009311581257F750842
:10028E0095028106093895018106C0000501090411
:10029E00A1010901A100093009310932169CFF267E
:1002AE00640036FFFF460100950375088102C00504
:1002BE0009190129021500250175019502810275A2
:1002CE000695018101C0040309042603480050006D
:1002DE00200049006E0066006F0054006500630048
:1002EE006800200053002E0052002E004C002E00FD
:1002FE003E0343006F006400650056006900730002
:10030E0069006F006E00410056005200200043004D
:10031E006F006D0070006F0073006900740065005F
:10032E0020004400650076006900630065000C0340
:10033E003000300030003000310009027800040136
:10034E0000C032080B000202020100090400000185
:10035E0002020100052400100104240206052406F1
:10036E000001070581031000FF09040100020A00C5
:10037E00000007050202400000070582024000004F
:10038E0009040200010301020009211101000122EA
:10039E003300070583030800050904030001030069
:1003AE000000092111010001223A0007058403080B
:1003BE0000050001000054021200020000480378FC
:1003CE000021020097030900220200660233002179
:1003DE000300B00309002203009A023A0003000052
:1003EE00D4020401030904D8022602030904FE0202
:1003FE003E030309043C030C40C080800301090046
:10040E0080250000000008001027E80364000A00A1
:10041E00010000100001100001004A6F7973746929
:10042E00636B206D6F7665642072696768740D0A60
:10043E00004A6F79737469636B206D6F7665642003
:10044E006C6566740D0A004A6F79737469636B206C
:10045E006D6F7665642075700D0A004A6F7973743E
:10046E0069636B206D6F76656420646F776E0D0A1D
:10047E00004A6F79737469636B206D6F76656420C3
:10048E007570206F6E205A20617869730D0A004ACC
:10049E006F79737469636B206D6F76656420646F1A
:1004AE00776E206F6E205A20617879730D0A004A9C
:1004BE006F79737469636B20627574746F6E20311B
:1004CE0020707265737365640D0A004A6F797374D8
:1004DE0069636B20627574746F6E20322070726562
:1004EE00737365640D0A004D6F76696E67206D6FCC
:1004FE007573652C20636F756E743A2025750D0A21
:10050E000000A1200000000001000000F894EE277A
:10051E00F091CC01F860F093CC01F8EDF4BFE093CC
:10052E00A20080E090E2A0E0B0E2ED930197E9F73F
:10053E008BBFE0E0E0B9E1B9E2B9E3B9E4B9E5B9FE
:10054E00E6B9E7B9E8B9E9B9EAB9EBB9ECB9EDB989
:10055E00EEB9EFB92E2E3E2EEFEFEDBFEFE3EEBF6D
:10056E00C0E0D4E20C94C102AA93A8810E94E00AD2
:10057E002196089524971AD125D1E0E2E093B20096
:10058E00E0E4E0931006E0931106E0931206E09388
:10059E001306E0931406E0931506E0931606E09317
:1005AE001706EFEFE0BBE0E0E1BBE8E1E0935006B9
:1005BE00E0935106E0935206E0935306E0935406FF
:1005CE00E0935506E0935606E0935706E0E0E4BB51
:1005DE00E3E0E0934400ACEFB1E00E941E064AD186
:1005EE007894E0910224E030E1F3ACEDB5E00E94A6
:1005FE00FF0C889AE0911324E170E1F3899AE0E010
:10060E00E0930824E0930924E0930A24E0930B245A
:10061E00E6B3E0951E2FE0E0EB8310FF0AC0A88141
:10062E00A4361CF4E881EF5FE8838B9AE8E2F4E0ED
:10063E000CC011FF0EC0A881ECE9EA171CF4E8818A
:10064E00E150E8838B9AEFE3F4E0FA93EA930E9489
:10065E00550C12FF0AC0A981A4361CF4E981EF5F84
:10066E00E9838C9AE5E5F4E00CC013FF0EC0A98176
:10067E00ECE9EA171CF4E981E150E9838C9AE9E68A
:10068E00F4E0FA93EA930E94550C14FF0BC0AA8172
:10069E00A4361CF4EA81EF5FEA838D9AEFE7F4E06B
:1006AE000E945A0C15FF0CC0AA81ECE9EA171CF443
:1006BE00EA81E150EA838D9AEDE9F4E00E945A0C4A
:1006CE0016FF07C0E1E0EB838E9AEDEBF4E00E949B
:1006DE005A0C17FF08C0EB81E260EB838F9AE9EDAD
:1006EE00F4E00E945A0CE8E0F4E2FA93EA93FE0179
:1006FE0032960E945D0C0E94A004E03019F0DE01DB
:10070E000E94BA0A103021F4E1B3E770E1BB04C0D5
:10071E00A4E6B0E00E94FF0C7BCFFFCF0E94620CDC
:10072E00E0910224E03089F18A9A899B15C0E5EFA9
:10073E00F4E0FA93EA93E0911C24F0911D24319693
:10074E00E0931C24F0931D24662777270E942B0D1F
:10075E0084E00E94300C2696ECE2F2E08F0131E04C
:10076E00353190F4F801E491EA93F8013196E49171
:10077E00EA93A0E00E94930A0E5F1F4FAEE1B0E035
:10078E000E94FF0C3F5FECCF8A980E94520D249678
:10079E00E991EFBFF991E991B991A9919991899157
:1007AE0079916991F9901990099018951A93F89486
:1007BE0015E0E8EDE4BF1093A200E0E0E093A100A5
:1007CE000C945E051A930A930FB7F894E0E0E09349
:1007DE006000E2E0E093CA01EDE1F0E0E491E09325
:1007EE006200ECE1F0E0E491E0936300E0E0E0937E
:1007FE00CA01E0915000E260E0935000E091510098
:10080E00E270E1F3EBE1E0936500E7EBE093660065
:10081E00E0915600E97FE460E0935600E1E0E0935A
:10082E006000E0914100E078E2601E2FE8EDE4BF49
:10083E0010934100E0914000E87FE1601E2FE8ED4B
:10084E00E4BF10934000E0915000E27EE093500030
:10085E00E091B400E07FE093B4000FBF67C0BA939D
:10086E00AA93A881B981E0E0EC931996ECE0EC93A1
:10087E00229608951A930A931FB7F894A0E0B8E051
:10088E00EEDFE7E0E0930008E0E0E0930108E0939C
:10089E000308E0930408E1E0E0930608E0E0E0934B
:1008AE000708E0919008EE7FE0939008E0919900A0
:1008BE00EE7F0E2FE8EDE4BF00939900E0E0E093A9
:1008CE008008E0918308E87EE0938308E0E0E093FF
:1008DE008208A4E8B8E00A2EAC91E0918408E47096
:1008EE00EA2BA02DEC93E0910C08E0930C08E0E0CD
:1008FE00F0E0E0932008F0932108E1EEF4EEE093AF
:10090E002608F0932708E0E0F0E0E0932808F09343
:10091E002908E0932A08F0932B08E0932C08F09313
:10092E002D08E0932E08F0932F081FBF09911991FF
:10093E000895BA93AA936627772789919991E99199
:10094E00F991A991B991009629F001976D91719144
:10095E006717C9F3671B10F4EFEF0895E0E009F095
:10096E00E3950895BA93AA9399818881009641F0F0
:10097E00BD81AC81FB81EA8161916D930197E1F7B5
:10098E00FD81EC8110C0BA93AA939981888100965B
:10099E0041F0BD81AC81FB81EA8105900D920197FA
:1009AE00E1F7FD81EC8126960895BA93AA93B98159
:1009BE00A881109631F0FC81EB816A8161931197C9
:1009CE00E9F7EB81FC8125960895BA93AA93A99134
:1009DE00B991EE27FF276D91662311F03196FBCF6B
:1009EE000895BA93AA93AA27BB27E991F991059086
:1009FE00002011F01196FBCFFD010895AA931A93D2
:100A0E00E981E7701E2F0E94720CE0931E24F09372
:100A1E001F24E12FE150A4E8EA9FF001E458FA4DBB
:100A2E000E94790CE981E07879F0E0911E24F09132
:100A3E001F243896E0931E24F0931F240E947E0CF0
:100A4E00EE5BFF4F0E94790C1881A8C51A93CDD189
:100A5E001E2FE03009F02BC0E0910324A9E0EA9F9D
:100A6E00F001E20DF31D3596E491EF701E2FE0308C
:100A7E0011F4E0E81CC0F894E12FE068AE2FBEDF61
:100A8E000E94830CE081E27089F00E94890CA05CC8
:100A9E00BF4F0C900E948E0CEC910E1628F40E9403
:100AAE00830CA0E0A08302C0E3E801C0E0E019914E
:100ABE000895AA930E944B0DED81FE81E491EF7093
:100ACE001E2F103011F0153008F053C0ED81FE814D
:100ADE003196049128E0013210F02BE007C001316D
:100AEE0010F02AE003C0093008F029E0ED81FE8104
:100AFE00E491E295E3703E2FE430D8F5F0E0EA5F42
:100B0E00FB4FE4912E2BAC81A12B0E94920C1196DF
:100B1E00E0E0EC93EC81E07811F0E2E001C0E0E07F
:100B2E000E94990CEC93E22FA0911E24B0911F24E9
:100B3E001196EC930E94990C1296E0E0F0E0ED9382
:100B4E00FC930E947E0CA0911E24B0911F2414963B
:100B5E00ED93FC93EC81E07811F0E02F01C0E0E022
:100B6E00A0912024B0912124AF5BBF4FEC930E9443
:100B7E009E0C0E94520D27960895BA93AA931A932B
:100B8E00E981FA81E491EF701E2FE03019F4E1E073
:100B9E00188124C5153078F4E981FA81E491E07367
:100BAE00E03448F4E981FA813196A491A13418F425
:100BBE00E1E0188113C5E0E0188110C50E944B0DCD
:100BCE00E0E0E0933324E2E0E0933224E2E4E093C9
:100BDE003324E0E0F0E0E0933424F0933524ECE5A8
:100BEE00F5E2E0933624F0933724E0E0E0932B24F3
:100BFE00E0932A24E2E4E0932B24E0E0F0E0E0939B
:100C0E002C24F0932D24ECE3F5E2E0932E24F093C4
:100C1E002F242BE334E218E0D901E0E0EC93285FB7
:100C2E003F4F1150C9F70E94520D24960895BA9362
:100C3E00AA9322970E94490DE885F985309711F401
:100C4E00E0E0CDC1E885F985B4960E94220D30977B
:100C5E0011F4E0E0C4C1E885F985B696E491E03080
:100C6E0011F4E0E0BCC1E885F985B996E4910E2F48
:100C7E00E33010F0E0E0B3C1E02FF0E0E65FFB4FB1
:100C8E00E491E09344001FB7F894E2E0E093CA01C8
:100C9E00EAE1F0E00491EBE1F0E03491E0E0E09382
:100CAE00CA010F3F09F40FE10093FA043F3F09F424
:100CBE003FE13093FB04EAE2F4E2E093C604F093E2
:100CCE00C704E4E5E093C004E0E0E093C804E093D9
:100CDE00C904EFEFE093CA04E093CC04E091C004A2
:100CEE00E068E093C004E885F985EE83FF8300E0B9
:100CFE00043008F03FC0EE81FF813491303099F11D
:100D0E00AE81BF81159639DFE03031F0AE81BF8103
:100D1E00179633DFE03011F4E0E061C1EE81FF8120
:100D2E0032960E94220DAF01042E052A59F05A93D5
:100D3E004A93E0E0EA93E985FA853496A491B0E00F
:100D4E000E94DC04333079F4EE81FF813196E49118
:100D5E00E23011F400938C27E8E0F4E2E417F50793
:100D6E0011F400938D27EE81FF813996EE83FF8378
:100D7E000F5FBECF23DF0E94A40CE09303240098E4
:100D8E00E0E0E09302240198EEE0F4E0ACE0B4E29F
:100D9E0088E00E943A0DA4E1B4E2EEE0F4E088E0CF
:100DAE000E943A0DA0E0FCD3E885F985B796A0E045
:100DBE00B4E282E00E943A0D28843984009AE885D4
:100DCE00F985BA96E491E3700E2F003019F41FBF27
:100DDE00E0E005C1E02FE06CE093C804E1E0E093B1
:100DEE00C904E093C1041FBFFAC000240214030417
:100DFE0011F0009902C0E0E80895E0910224E0307D
:100E0E0011F4E1E80895E0E008950E94990CEC9148
:100E1E00ED79EC930E949E0C0895AA9322970E945E
:100E2E00490DE0913A25F0913B259F0140911E24FA
:100E3E0050911F240E947E0CEE83FF83DA01EC9109
:100E4E00A985EA23A9F5E0910224E03011F4E1E846
:100E5E00C6C0019904C0E091CA04E07411F0E4E840
:100E6E00BEC0FA01A181A47011F0E2E8B8C0789476
:100E7E000000F89440931E2450931F24EE81FF81AE
:100E8E000E94790C00913A2510913B250217130709
:100E9E0071F09801E885E150E88749F4A985A23000
:100EAE0021F40E94830CA2E0A083E3E898C0C6CF91
:100EBE00E0E095C0E0911E24F0911F2432960F01C0
:100ECE000E94B00CD001F0E0ED93FC939EDF0895EC
:100EDE00AA931A930A931FB7B9DD0E2FE030D9F4F7
:100EEE000E94B50CC1F40E948E0C0C900E94B00CA6
:100EFE00E01509F4DFDF0E94B00CEF5FEC93E150D8
:100F0E000E94890CF0E0EA0FFB1FAA81A0830E94C9
:100F1E00830CA1E0A0831FBFE02F198108815EC35F
:100F2E00BA93AA930E94490D3FB790DD0E2FE03081
:100F3E0009F053C020E00E948E0C5C91EE81FF817F
:100F4E00309709F444C00E94B50C09F046C00E94C7
:100F5E00890CA05CBF4F1C91E52FE11B2E2F20307A
:100F6E00A1F1EE81FF81A22FB0E0EA17FB0708F492
:100F7E002E81E22FAE81BF81F0E0AE1BBF0BAE83A0
:100F8E00BF83E12F0E94890CF0E0EA0FFB1FFA935A
:100F9E00EA93EA85FB850E94BE0C0E94B904E22FFB
:100FAE00A885B985F0E0EA0FFB1FE887F987120FD5
:100FBE00E12FA0912024B0912124A05CBF4FEC938F
:100FCE00511711F420E001C001C074DFB7CF2030FB
:100FDE0021F00E94830CA1E0A0833FBFE02F0E946E
:100FEE00500D2A9608950E94620C1091CA04E0EFEB
:100FFE00E093CA0417FF27C0E0910224E03019F1F4
:10100E0000E0043000F5E02FF0E0EE5DFB4DE081F6
:10101E00E170B9F0A9E00A9FF001E20DF31D3596DB
:10102E00E491EF70E068AE2F0E94920CEC91E270AA
:10103E0041F0E02FF0E0EE5DFB4DA0E0A0833ADF43
:10104E0002C00F5FDECF14FF0CC0E0E0E09302247D
:10105E000198E093C304B2DDE0E0E0931324E09343
:10106E001B2416FF0DC0019AF101BB960E94220DA2
:10107E009F01309709F009950E94520D24963EC2A9
:10108E0015FF09C00198F101BD960E94220D9F0126
:10109E00309709F009950E94520D24962FC2E091C7
:1010AE003224E160E0933224E0912A24ED78E0933B
:1010BE002A24E160E0932A240895AA93E091322431
:1010CE00E27039F4E091CA04E07411F0E0E078C205
:1010DE00F5CFA4E3B4E2E8810E94C30CE1E070C254
:1010EE000A921A92FA926A937A938A939A93AA938D
:1010FE00BA93EA93FA93EFB7EA932C970E94490DAD
:10110E00E0912A24E07109F4F6C1E1E0E093CC0409
:10111E00A0912C24B0912D24189709F0E1C1FE0165
:10112E003696FA93EA93ECE3F5E2FA93EA93A8E0A3
:10113E00B0E00E94B904AF81A63009F085C0F1017C
:10114E00B4960E94220DE88BF98BF101B69624918C
:10115E0030E03F933F5FE22FAF91AE1708F0C0C172
:10116E00E889F9890E94260DE885F9856A857B85CF
:10117E000E94440D61F4E889F98934960E94220D8B
:10118E00EE87FF87E889F9893696549106C0E8897B
:10119E00F9893796E88BF98BDCCF4C85E52FAC853A
:1011AE00BD85F0E0EA17FB0708F4452F00E010E0DC
:1011BE0076DF20E0403079F1403011F42032B1F585
:1011CE00E0913224E27069F120E2421708F4242FF4
:1011DE00203009F1EE85FF85309789F00E94CC0C06
:1011EE00E889F9890E94BE0C0E94CA04E22FAE85DE
:1011FE00BF85F0E0EA0FFB1FEE87FF870BC0002EC6
:10120E00012A41F00E94CC0C1A930A93A22FBB27FD
:10121E000E94D10C421BA4E3B4E2E22F0E94C30C45
:10122E0004C0E091CA04E07409F4C6CFE0912A2408
:10123E00E07221F4E091CA04E074C1F3E0912A2433
:10124E00ED79E0932A2457C1AF81A53071F427DFE1
:10125E00A0E033DFE03041F0E0913224E270E1F3C0
:10126E00E885EF77E093C30446C1AF81A13011F05A
:10127E00A330A9F5AE81A23091F5E885F9853097B6
:10128E0071F5EA85E7702E2F213010F0253008F029
:10129E0026C0E22F0E94720CE88BF98BAF81A3302F
:1012AE0031F4A889B9891196EC91E06813C0A88928
:1012BE00B9891196EC91EF77EC93E22FE150A4E807
:1012CE00EA9FF001E454FA4DA0E0A083A889B98901
:1012DE00EC91EE7FEC93E3DEA0E0EFDE0CC1AF818C
:1012EE00A93019F4AE81A03009F02DC0E885E09345
:1012FE0002240E94A40CE0931324E0E0E0931B244C
:10130E00CEDEA0E0DADE288A398A30E03430D0F43E
:10131E00E889F989E491E03071F0E889F989359628
:10132E00FA93EA93A0E8C5DBE889F9893796FA9330
:10133E00EA93A0E0BEDBE889F9893996E88BF98B50
:10134E003F5FE4CFD8C0E0E0EE87EF87AF81A830F3
:10135E0019F4AE81A03809F004C002E014E241E0B5
:10136E0027CFEF81E030B1F4E0E0E887E987AE8186
:10137E00A23859F4EA85E7700E94720C0E94D80CCC
:10138E00EC91E07811F0E1E0E887FE0138968F01EC
:10139E0042E00ECFAA85BB85149708F0A1C0AA859E
:1013AE00BB85E9E00E94180DE20DF31DE88BF98B69
:1013BE005491EA85E6953E2FAE81A13A99F55230C9
:1013CE0019F4AF81A13209F003C00E94DD0CF0CEFA
:1013DE00533041F5AF81A130E1F4E889F9893296B5
:1013EE000E94220D8F01002E012A29F0E889F98929
:1013FE0034964491DDCE0E94CC0CE0E0EA93A0E25C
:10140E00B0E00E94DC044C85ED85E03009F04FEF32
:10141E00CDCEAF81A33031F4EA85FB85EA5DFB4D7D
:10142E008F019DCFAE81A13209F05AC05330E1F445
:10143E00AF81AB3039F4EA85FB85EA5DFB4DA885BB
:10144E00A08349CFAF81A93079F400E010E0E8899C
:10145E00F98938964491EC85FD85A42FB0E0EA1702
:10146E00FB0708F44C8507C05230D1F5AF81A0328E
:10147E0039F50E94DD0C13DE4030D9F04030F9F022
:10148E00E0912A24E07221F4E091CA04E074C1F3E1
:10149E0020912C24421708F4242F421B002E012ADF
:1014AE0041F01A930A93ECE3F5E20E94BE0C0E94FF
:1014BE00D10CE0912A24ED79E0932A24DFCF0CCFD2
:1014CE00AF81A33209F407CFAF81A23249F4E32FE3
:1014DE00F0E00E94110DED5EFB4DA885A083FBCEC2
:1014EE00DEDDE0912A24E068E0932A24E0913224A4
:1014FE00E068E09332240E94500D6296E991EFBFAE
:10150E00F991E991B991A9919991899179916991FD
:10151E00F990199009901895AA93EA81E093052401
:10152E00E981E0930624E881E0930724E0918C277B
:10153E00E0930324E4E0F4E20E945D0CF1DC4EC083
:10154E00BA93AA931A93A981BA81EC911E2F1536DC
:10155E0014F014E603C01C390CF41CE9A981BA81FD
:10156E001C9318813BC0BA93AA93E881F981A8E035
:10157E00B4E284E00E94300DA8E0B4E2E1DFA9E01D
:10158E00B4E2DEDFAAE0B4E2DBDFE0918D27E09388
:10159E000324E8E0F4E20E945D0CC2DC229608957A
:1015AE00AA93E881EE0FE0938E27EF5FE0938F27EB
:1015BE0007C0AA93E0918F27E0930324A88188DCCB
:1015CE0021960895BA93AA93AA810E94BB02A8817C
:1015DE00B9810E941E0D3196ED93FC9323960895CA
:1015EE00BA93AA9326970E94490D10E0AC85BD854B
:1015FE00E0E0F0E0ED93FC93EA89FB893196EA8B0B
:10160E00FB8B3197E4912E2FE03009F41AC1E12FB4
:10161E00E03039F4253211F411E002C00E94E60CDC
:10162E000FC1E130A9F4253219F40E94E60C07C16E
:10163E0012E040E000E02D3211F401E001C12B3246
:10164E0011F44BE2FDC0203211F440E2F9C002C0A9
:10165E00E23039F450E013E0203311F40068F0C0AA
:10166E0003C0E33009F0ECC0203310F02A3308F049
:10167E0007C0AAE05A9F502DE22FE0535E0FE0C044
:10168E00E22FE33651F4E889F9893497E88BF98B28
:10169E00A481AA930E94ED0CD2C0E33741F40E94BC
:1016AE00F30C0E94F70C0E94EC041E2F0AC0E037C8
:1016BE0061F40E94F30C0E94F70C0E94F8041E2F96
:1016CE00086002600F7730E038C0E43611F0E9367A
:1016DE0011F4046002C0E53731F4E6E1F4E0EE8384
:1016EE00FF8315E00CC0E83511F4086003C0E8373D
:1016FE0009F0A5C0E0E2F4E0EE83FF8314E002FF00
:10170E0015C00E94F30C14960E941E0DEA87FB87EB
:10171E00AB85AA232AF40E940D0DEA87FB874DE2C2
:10172E00403011F01F5F01C00B7F07C00E94F30C09
:10173E0014960E941E0DEA87FB8700FD11C0151737
:10174E0078F407FF08C002FF04C00B7F242F11504E
:10175E0001C020E301C020E20E94E60C5150EFCF01
:10176E00312F01FF17C03030A1F003FF06C0EE810C
:10177E00FF812591EE83FF8305C0AE81BF812D9140
:10178E00AE83BF830E94E60C503009F051503150A9
:10179E00EACF4BC020E3EE81FF810E94220DE88745
:1017AE00F987EE81FF813296EE83FF83E885F98516
:1017BE00AA85BB85AE17BF0750F02F5FA885B985E8
:1017CE00EA85FB85EA1BFB0BEA87FB87EFCF2A3303
:1017DE0028F003FF02C0295F01C0295D04FD1AC075
:1017EE00213320F4A885B985119709F409C0531740
:1017FE0010F000FF01C013C020E207FF0BC020E372
:10180E00006102FF07C00B7F4A930E94ED0C50301F
:10181E0009F051500E94E60C503009F051503150F1
:10182E00A885B985129708F0B5CF00FF08C05030D3
:10183E0031F05150E0E2EA930E94ED0CF8CF10E047
:10184E00DBCEAC85BD850E941E0D0E94500D6496A8
:10185E000895FF92F82E26971A930A93DE01149696
:10186E000E94090D8D01E0E0EC83ED83EE83EF83A2
:10187E00DE0118960E94090D0E941E0DFA93EA933E
:10188E001A930A93E9EEFAE0FA93EA93DE011896B8
:10189E00A7DE198108812896FF90089580E00E94A6
:1018AE00300C22960895FA93EA93F8CFFA93EA93BE
:1018BE00A4E0B0E008950A921A92FA926A937A938B
:1018CE008A939A93AA93BA93EA93FA93EFB7EA9309
:1018DE000E944B0D0895EE0FF0E00E94110DE65D93
:1018EE00FB4D0895E0932024F09321240895E09178
:1018FE002024F09121240895E0910324F0E0EE5D80
:10190E00FB4D0895A0912024B09121240895FADF73
:10191E00AF5BBF4F08950E940505A0911E24B091A4
:10192E001F240895A0911E24B0911F240895EADF6C
:10193E00A05CBF4FE0E0EC930895E2E2F4E2FA938C
:10194E00EA93E0E0EA93A4E0B0E00E94DC04E0E079
:10195E000895D8DFA05CBF4FEC910895E2E0EA93C2
:10196E00A09100240E9414070E2FE0300895FA93E0
:10197E00EA93A22FBB270895F0E0ED93FC93E0913C
:10198E003224ED79E09332240895ECE5F5E2FA93F2
:10199E00EA9308950E94B904E22FF0E00E0F1F1F84
:1019AE000895E88BF98BA889B9890895E32FF0E0A3
:1019BE000E94110DE45FFB4D8F0147E008952A93BD
:1019CE00AD85BE85EF85F88909950895AD85BE85EF
:1019DE00EF85F88909950895E889F9893497E1CF5B
:1019EE0014960E941E0DEE83FF83AE81BF81089573
:1019FE00109639F0A89588EB9BE00197F1F71197B7
:101A0E00C9F708950024AF0DB01D0895F195E19525
:101A1E00F0400895EE0FFF1FEE0FFF1FEE0FFF1F9A
:101A2E0008956E2F6A9FF0016B9FF00D0895ED9152
:101A3E00FC91119708950590F491E02D0895A591CC
:101A4E00B5918591949108957A936A93FA93EA9356
:101A5E0008959927EF93FF9361916D930197E1F7A5
:101A6E00FF91EF9108959927EF93FF9305900D92B3
:101A7E000197E1F7FF91EF910895EA17FB076807C9
:101A8E00790708955A934A933A932A931A930A938D
:101A9E0008955D814C813B812A81198108810895C9
:00000001FF
