:0E0000000C9408140C9400000C9400000C9456
:10000E0000000C9400000C9400000C9400000C9462
:10001E0000000C9400000C9400000C9400000C9452
:10002E0000000C9400000C9400000C9400000C9442
:10003E0000000C9400000C9400000C9400000C9432
:10004E0000000C9400000C9400000C9400000C9422
:10005E0000000C9400000C9400000C9400000C9412
:10006E0000000C9400000C9400000C9400000C9402
:10007E0000000C9400000C9400000C940000050786
:10008E0020600000000000000004040404040004CA
:10009E000A0A0A000000000A0A1F0A1F0A0A041EA2
:1000AE00050E140F0403130804021918060905029D
:1000BE0015091606040200000000080402020204DC
:1000CE000802040808080402000A041F040A0000BB
:1000DE0004041F04040000000000060402000000D7
:1000EE001F000000000000000606000010080402B9
:1000FE0001000E11191513110E0406040404040E4A
:10010E000E11100804021F1F08040810110E080C0F
:10011E000A091F08081F010F1010110E0C02010F03
:10012E0011110E1F1008040202020E11110E1111F0
:10013E000E0E11111E10080600060600060600001F
:10014E000606000604021008040204081000001F30
:10015E00001F0000010204080402010E1110080421
:10016E0000040E11101615150E0E1111111F11117E
:10017E000F11110F11110F0E11010101110E0709AF
:10018E0011111109071F01010F01011F1F010107A5
:10019E000101010E11010119110E1111111F111181
:1001AE00110E04040404040E1C08080808090611A4
:1001BE000905030509110101010101011F111B159B
:1001CE0011111111111113151911110E1111111106
:1001DE00110E0F11110F0101010E1111111509163A
:1001EE000F11110F0509111E01010E10100F1F0422
:1001FE0004040404041111111111110E1111111125
:10020E00110A0411111115151B1111110A040A11ED
:10021E001111110A040404041F10080402011F1C0A
:10022E0004040404041C0001020408100007040462
:10023E0004040407040A110000000000000000007E
:10024E00001F0204080000000000000E101E111E08
:10025E0001010D1311110F00000E0101110E1010EE
:10026E00161911111E00000E111F010E0C1202079D
:10027E0002020200001E111E100C01010D131111BD
:10028E00110400060404040E08000C0808090602F6
:10029E0002120A060A120604040404040E00000BDD
:1002AE001515111100000D1311111100000E111171
:1002BE00110E00000F110F0101000016191E101073
:1002CE0000000D1301010100000E010E100F0202BD
:1002DE00070202120C000011111119160000111163
:1002EE00110A040000111115150A0000110A040A62
:1002FE0011000011111E100E00001F0804021F082D
:10030E00040402040408040404040404040204049F
:10031E0008040402021508000000001F111111113B
:10032E00111F000E206005020406060A07020404CF
:10033E00040603040303060606060606060606065C
:10034E000303060606060B0807070706060807023C
:10035E00050706080708060807070607080B07081B
:10036E000703030305060406060606060406060230
:10037E00020502080606060604060306060A060617
:10038E000604020406080000000000000000000041
:10039E000000000000000001010101010100010048
:1003AE000000000000050505000000000000000030
:1003BE0000000014141F0A0A1F05050000000000AB
:1003CE00000E15050E1414150E040000000000009A
:1003DE0000004600290029001600D000280128013F
:1003EE00C4000000000000000000000C12120C0AF5
:1003FE0031112E000000000000010101000000007C
:10040E0000000000000000040201010101010102D0
:10041E0004000000000102040404040404020100AC
:10042E0000000002070205000000000000000000AE
:10043E0000000004041F040400000000000000007F
:10044E000000000000000202020000000000000098
:10045E000000070000000000000000000000000087
:10046E00000002000000000000040402020202016B
:10047E00010000000000000E1111111111110E00EB
:10048E00000000000004060504040404040000003B
:10049E000000000E1110100804021F0000000000E2
:1004AE00000E11100C1010110E00000000000008BC
:1004BE000C0A0A091F08080000000000001E0201B5
:1004CE000F1010110E0000000000000E11010F1190
:1004DE0011110E0000000000001F080804040202A3
:1004EE00020000000000000E11110E1111110E007D
:1004FE0000000000000E1111111E10110E00000060
:10050E0000000000000100000000010000000000DB
:10051E0000000001000000000101010000000000C9
:10052E0000100E010E100000000000000000000080
:10053E001F001F00000000000000000000010E1050
:10054E000E01000000000000000E1110080404004F
:10055E0004000000000000000000F8000601B202D6
:10056E00C902450245026501D9000202FC010000E4
:10057E0000000008141414223E4141000000000047
:10058E00001F21213F2121211F0000000000001C1F
:10059E002201010101221C0000000000000F1121A8
:1005AE00212121110F0000000000001F01011F0179
:1005BE0001011F0000000000001F01010F010101D9
:1005CE00010000000000001C2241017141221C00AC
:1005DE0000000000002121213F21212121000000E7
:1005EE0000000001010101010101010000000000F5
:1005FE00000808080808090906000000000000218C
:10060E0011090D0B11112100000000000001010164
:10061E00010101011F0000000000004163635555F8
:10062E0055494900000000000021232525292931C4
:10063E00210000000000001C2241414141221C000B
:10064E0000000000000F1111110F01010100000048
:10065E000000001C2241414159225C0000000000B4
:10066E00001F21211F091111210000000000001E92
:10067E002101061820211E0000000000001F0404A6
:10068E0004040404040000000000002121212121A3
:10069E0021211E00000000000041412222141408F6
:1006AE000800000000000000000021045104520266
:1006BE0052028A028A0204010401000000000000B6
:1006CE000000002112120C0C12122100000000007A
:1006DE000041222214080808080000000000003E15
:1006EE001008080404023F0000000000000301018E
:1006FE0001010101010103000000000101020202DB
:10070E0002040400000000000003020202020202C2
:10071E0002020300000000040A0A1100000000009B
:10072E0000000000000000000000000000003F007C
:10073E0000000001020000000000000000000000A8
:10074E000000000E111E111916000000000000011D
:10075E00010D131111130D00000000000000000E1A
:10076E00110101110E0000000000001010161911E9
:10077E0011191600000000000000000E111F0111DB
:10078E000E00000000000004020702020202020036
:10079E0000000000000000161911111916100F00AC
:1007AE0000000001010D13111111110000000000D5
:1007BE000001000101010101010000000000000222
:1007CE000002020202020202010000000001010901
:1007DE0005030505090000000000000101010101EB
:1007EE0001010100000000000000003D4B49494995
:1007FE004900000000000000000F1111111111003E
:10080E00000000000000000E111111110E0000007A
:10081E0000000000000D131111130D010100000066
:10082E00000000161911111916101000000000001A
:10083E000005030101010100000000000000000E90
:10084E00110608110E00000000000002020702024D
:10085E000202060000000000000000111111111923
:10086E0016000000000000000011110A0A04040026
:10087E00000000000000000000000000110129012E
:10088E00AA00AA004400440000000000000000007E
:10089E00000000110A04040A11000000000000000C
:1008AE000011110A0A040404020000000000001FD7
:1008BE00080404021F0000000000000402020201EE
:1008CE000202020204000000000101010101010107
:1008DE0001010100000000020404040804040404E1
:1008EE000200000000000000170D000000000000D4
:1008FE00000000007E42424242427E000000000E96
:10090E002060050305060609080304040406030413
:10091E000303060606060606060606060303060675
:10092E0006070B0807080706060807030607070A47
:10093E000708070807070707080B0808070403043A
:10094E000606040607060707050707030307030B3A
:10095E000707070705070507070A07070604030425
:10096E00060800000000000000000000000000006B
:10097E000000000303030303000303000000000054
:10098E00001B1B1B000000000000000000000024E4
:10099E00243F12123F09090000000000040E150545
:1009AE000F1E14150E0400000000000000002700AA
:1009BE00250015001700E800A800A400E4000000C0
:1009CE00000000000000001C36360C5E73337E0003
:1009DE000000000000030303000000000000000000
:1009EE0000000004060303030303020604000000D4
:1009FE0000010202060606060203010000000002C4
:100A0E0007020500000000000000000000000004C6
:100A1E00041F04040000000000000000000000009D
:100A2E0000030302010000000000000000000700A8
:100A3E0000000000000000000000000000030300A2
:100A4E000000000000040402020202010100000086
:100A5E000000000E1B1B1B1B1B1B0E0000000000CA
:100A6E00000C0E0F0D0C0C0C0C0000000000000E04
:100A7E001B18180C06031F0000000000000E1B18A8
:100A8E000C18181B0E000000000000181C1A1A1972
:100A9E003F18180000000000001E06030F19181B57
:100AAE000E0000000000000E1B030F1B1B1B0E0090
:100ABE0000000000001F180C0C06060606000000C1
:100ACE000000000E1B1B0E1B1B1B0E000000000067
:100ADE00000E1B1B1B1E181B0E000000000000004A
:100AEE0000030300000303000000000000000003E9
:100AFE00030000030302010000000000100C0303BA
:100B0E000C10000000000000000000001F001F007D
:100B1E000000000000000000010618180601000089
:100B2E0000000000001C3630180C000C0C000000F9
:100B3E00000000000000F8000601FA02C90245029A
:100B4E0045026501FA000603F800000000000038B7
:100B5E00386C6C6CFEC6C60000000000001F3333FC
:100B6E001F3333331F0000000000003C66030303F5
:100B7E0003663C0000000000001F33333333333371
:100B8E001F0000000000001F03031F0303031F00CC
:100B9E0000000000001F03031F03030303000000F7
:100BAE000000003C6603037363663C000000000017
:100BBE00003333333F333333330000000000000380
:100BCE0003030303030303000000000000181818BA
:100BDE001818181B0E000000000000331B1B0F1FFF
:100BEE001B33330000000000000303030303030361
:100BFE003F000000000000000000C701C701EF0128
:100C0E00EF01AB01BB01BB0193010000000000002E
:100C1E00000000333337373B3B3333000000000016
:100C2E00001C3663636363361C0000000000001F67
:100C3E003333331F0303030000000000001C366330
:100C4E0063636B363C4000000000001F3333331FDC
:100C5E001B33630000000000001E33030F3C3033D3
:100C6E001E0000000000003F0C0C0C0C0C0C0C00C5
:100C7E000000000000333333333333331E000000E3
:100C8E000000006363363636361C1C000000000080
:100C9E000000000023067306760356035603DE0398
:100CAE008C018C0100000000000000000066663C14
:100CBE0018183C66660000000000006666243C18AA
:100CCE001818180000000000003F30180C0C060326
:100CDE003F000000000000070303030303030303A8
:100CEE0007000000000101020202020404000000DD
:100CFE0000000007060606060606060607000000A8
:100D0E0000040E0A1B00000000000000000000009E
:100D1E0000000000000000003F000000000306007D
:100D2E00000000000000000000000000000E191E70
:100D3E001B1B1E00000000000003031F3333333360
:100D4E001F00000000000000000E1B03031B0E001E
:100D5E00000000000030303E333333333E000000DD
:100D6E0000000000001E333F03331E000000000091
:100D7E00001C060F06060606060000000000000016
:100D8E00003E333333333E311E0000000003031F99
:100D9E00333333333300000000000003000303033A
:100DAE000303030000000000000600060606060608
:100DBE00060603000000000303331B0F1F1B330046
:100DCE0000000000000303030303030303000000FD
:100DDE0000000000000000000000FF013303330399
:100DEE003303330333030000000000000000000053
:100DFE00001F333333333300000000000000001EA9
:100E0E00333333331E00000000000000001F333365
:100E1E0033331F03030000000000003E333333332F
:100E2E003E30300000000000000F030303030300F8
:100E3E00000000000000001E330F3C331E000000B7
:100E4E0000000004060F060606060C000000000057
:100E5E0000000033333333333E0000000000000047
:100E6E0000363636361C1C00000000000000000064
:100E7E00000000009301BB01BB01EE00EE00C600B6
:100E8E00000000000000000000000036361C1C367A
:100E9E00360000000000000000633636361C1C0CC5
:100EAE00070000000000001F180C06031F000000C2
:100EBE000000000C06060606030606060C000000DF
:100ECE0000020202020202020202020000000003FD
:100EDE00060606060C0606060300000000000000CB
:100EEE0016090000000000000000007E424242424F
:100EFE0042427E000000070E20600000000000004D
:100F0E0000000000000000000000000008080808B3
:100F1E000800080000000000000014141400000077
:100F2E00000000000000000028143E14143E140AB5
:100F3E00000000000000081C020C100E040400004B
:100F4E0000000000040A041E08140800000000003F
:100F5E000000001804041A123C00000000000000FB
:100F6E00080808000000000000000000000010103B
:100F7E00080808081010000000000000040408080B
:100F8E0008080404000000000000083E08140000D9
:100F9E0000000000000000000808083E08080800D5
:100FAE00000000000000000000000000180C04000B
:100FBE00000000000000003E0000000000000000E5
:100FCE0000000000000000000C0000000000000007
:100FDE0020101008080404020000000000001C226B
:100FEE00222222221C000000000000000C0808082B
:100FFE0008083E000000000000001C221008040239
:10100E003E000000000000001C22201820221C00C0
:10101E00000000000000101814123E1038000000EE
:10102E00000000003C04041C20221C0000000000F4
:10103E0000003804021E22221C00000000000000E6
:10104E003E222010100808000000000000001C22A4
:10105E00221C22221C000000000000001C22223C48
:10106E0020100E0000000000000000000C00000028
:10107E000C000000000000000000180000180C0416
:10108E0000000000000000201806182000000000DC
:10109E000000000000003E003E00000000000000C6
:1010AE00000000020C300C020000000000000000E6
:1010BE000C12100808000C000000000000001C229A
:1010CE00322A2A32023C0000000000000C081414E0
:1010DE001C2277000000000000001F22221E222288
:1010EE001F000000000000003C22020202221C0031
:1010FE000000000000000F12222222120F0000003A
:10110E00000000003E24141C14243E0000000000C9
:10111E0000003E24141C14040E0000000000000009
:10112E003C22020272221C00000000000000772206
:10113E00223E222277000000000000003E08080830
:10114E0008083E000000000000003C1010101212B3
:10115E000C000000000000007722120E1222670021
:10116E000000000000000E04040424243E000000D1
:10117E00000000007736362A222277000000000099
:10118E0000007726262A2A323700000000000000D1
:10119E001C22222222221C000000000000001E241D
:1011AE0024241C040E000000000000001C22222239
:1011BE0022221C380000000000001E2424241C24BF
:1011CE004E000000000000002C32021C20221E00E7
:1011DE000000000000003E2A080808081C0000005D
:1011EE00000000007722222222221C0000000000B4
:1011FE0000007722221214140C00000000000000E0
:10120E0077222A2A2A2A14000000000000006322F6
:10121E001408142263000000000000007722140856
:10122E0008081C000000000000003E2210080422E6
:10123E003E00000000000000180808080808081802
:10124E00000000000000020404080808101000004E
:10125E00000000000C0808080808080C0000000038
:10126E000000081422000000000000000000000032
:10127E000000000000000000007F000000000408D5
:10128E0000000000000000000000000000001C2212
:10129E003C227E0000000000000003021A262222DB
:1012AE001F0000000000000000003C2202023C0073
:1012BE0000000000000030202C3222227C000000B2
:1012CE000000000000001C223E023C000000000056
:1012DE00000030083C0808083C0000000000000038
:1012EE0000006C3222223C201C0000000000030291
:1012FE001A262222770000000000000008000E08C7
:10130E0008083E0000000000000008001E1010102B
:10131E0010100E000000000003023A120E123B00E5
:10132E000000000000000C08080808083E0000003D
:10133E00000000000000172A2A2A7F00000000008B
:10134E00000000001B262222770000000000000093
:10135E0000001C2222221C000000000000000000E1
:10136E001B2622221E0207000000000000006C3225
:10137E0022223C207000000000000000360C040405
:10138E001E0000000000000000003C021C201E0099
:10139E0000000000000000021F0202221C000000DC
:1013AE00000000000000332222326C00000000001A
:1013BE0000000000772212140C0000000000000054
:1013CE00000077222A2A140000000000000000000E
:1013DE0036140814360000000000000000007722CA
:1013EE00141408080E000000000000003E1208242D
:1013FE003E00000000000000100808080C08080855
:10140E00100000000000080808080808080800007E
:10141E00000000000408080818080808040000006E
:10142E0000000000002C1A00000000000000000068
:10143E003F21212121213F000000000E20600707DF
:10144E00070707070707070707070707070707071E
:10145E00070707070707070707070707070707070E
:10146E0007070707070707070707070707070707FE
:10147E0007070707070907080707070707080707EA
:10148E0007070707070707070707070907070707DC
:10149E0007070707070907080707070707070000D9
:1014AE00000000000000000000000000000000002E
:1014BE000C0C0C0C0C000C000000000000001414AE
:1014CE0014000000000000000000003636367F36A3
:1014DE007F3636360000000000083C26061C3032EF
:1014EE001E080800000000000609293E4A48300088
:1014FE000000000000001C0606371D193E0000000B
:10150E0000000000080808000000000000000000B5
:10151E00000010180C0C0C0C18100000000000003D
:10152E00040C181818180C04000000000000187E97
:10153E001824000000000000000000000008083E13
:10154E00080800000000000000000000000000007D
:10155E0008040400000000000000003E000000002F
:10156E000000000000000000000000000C00000061
:10157E00000000303018181C0C0C0606000000008D
:10158E0000001C36363636361C0000000000000007
:10159E00181E181818187E000000000000001C36D7
:1015AE0030180C063E000000000000001C32301CFB
:1015BE0030321C00000000000000181C1A193F18E1
:1015CE003C000000000000003E061E3230321C00BF
:1015DE00000000000000380C061E36361C0000000D
:1015EE00000000003E3230301818180000000000D5
:1015FE0000001C36361C36361C00000000000000B1
:10160E001C36363C30180E000000000000000000B2
:10161E000C0000000C0000000000000000000C0098
:10162E000008040400000000000020180403041841
:10163E00200000000000000000007F007F0000007E
:10164E00000000000000020C1060100C02000000F0
:10165E00000000001C36301C0C000C0000000000C6
:10166E0000001E2139253901211E00000000000056
:10167E001F1C36363E3677000000000000001F3675
:10168E00361E36361F000000000000003E23030306
:10169E0003231E000000000000001F3636363636CB
:1016AE001F000000000000003F26161E16263F00F9
:1016BE000000000000003F26161E16061F00000048
:1016CE00000000003E2303037B333E0000000000B9
:1016DE0000007736363E36367700000000000000F8
:1016EE003F0C0C0C0C0C3F000000000000007C3086
:1016FE00303033331F000000000000007726160E36
:10170E001E366F000000000000000F06060626269B
:10171E003F00000000000000633636362A2A7700AC
:10172E0000000000000073262E2A3A322700000027
:10173E00000000001E33333333331E000000000060
:10174E0000001F3636361E060F0000000000000097
:10175E001E33333333331E3C0000000000001F36AF
:10176E00361E16366F000000000000003C26061CD8
:10177E0030321E000000000000003F2D2D0C0C0C1E
:10178E001E000000000000007736363636361C008C
:10179E0000000000000077363636141C1C000000D6
:1017AE000000000000000000EF01C600D600D600C9
:1017BE005C006C006C0000000000000000000000E7
:1017CE0077361C1C1C367700000000000000F76600
:1017DE003C1818183C000000000000003E321A1899
:1017EE002C263E000000000000003C0C0C0C0C0CE3
:1017FE000C3C00000000000307060E0C1C183830CD
:10180E000000000000001E1818181818181E0000FE
:10181E00000000000814220000000000000000007C
:10182E000000000000000000000000FF00000004A7
:10183E000800000000000000000000000000000092
:10184E001E303E337E0000000000000007063E669C
:10185E0066663F0000000000000000003E230323E8
:10186E001E0000000000000038303E3333337E008F
:10187E0000000000000000001E333F033E00000089
:10188E0000000000380C3E0C0C0C3E000000000066
:10189E00000000007E3333333E301E000000000097
:1018AE0007061E36363677000000000000000C00DA
:1018BE000F0C0C0C3F000000000000000C001F1865
:1018CE00181818180F00000000000706361E1E36E6
:1018DE0067000000000000000F0C0C0C0C0C3F0009
:1018EE0000000000000000000000000000007F006B
:1018FE00D600D600D600D701000000000000000080
:10190E00000000001F363636770000000000000091
:10191E0000001E3333331E000000000000000000E4
:10192E003F6666663E061F000000000000007E3324
:10193E0033333E307C00000000000000372E0606D8
:10194E001F0000000000000000003E231E311F009B
:10195E0000000000000006061F0606261C00000000
:10196E00000000000000373636367C000000000014
:10197E00000000007736141C1C0000000000000060
:10198E000000000000000000EF01D600D6006C0041
:10199E006C00000000000000000000000000773620
:1019AE001C3677000000000000000000EE6C2818C6
:1019BE00180C1F000000000000003E1A0C263E000E
:1019CE000000000000001C0C0C0C060C0C1C00008F
:1019DE00000000000C0C0C0C0C0C0C0C0000000099
:1019EE0000000E0C0C0C180C0C0E00000000000079
:1019FE0000000026190000000000000000003F213A
:101A0E00212121213F000000001320600607050C54
:101A1E00080A0C030908090D04060308080708073D
:101A2E0007080908080705060D0D0D08100F0E0D05
:101A3E000D0A0F0B100D0E100D0F0E0C0D0D100EBE
:101A4E000E120E110E0E0C0B050B1008080A0908CB
:101A5E000A080B0C0B080C0A070F0C090D0A0808D4
:101A6E00070B090E080C0B0808080D0A00000000F1
:101A7E000000000000000000000000000000000058
:101A8E0000000000004060201008000C0C00000058
:101A9E0000000000000A0A0A0A0A00000000000006
:101AAE000000000000000000000000C00440022002
:101ABE0002FC0F20011001FE078800C800480044F8
:101ACE000000000000000000000000000000000008
:101ADE00606038F4EC182F271E030300000000008E
:101AEE000000000000000000000000009C005E00EE
:101AFE007A00AE03D0024801C401000000000000CD
:101B0E0000000000000000000000000000000000C7
:101B1E00700C580F4801A8045003F8004800380014
:101B2E0000000000000000000000000000020202A1
:101B3E000202000000000000000000000000000093
:101B4E00000000000000018000400020001000187E
:101B5E000008000C00040004000200020002000253
:101B6E000000000000000080808080404060203037
:101B7E0010080402010000000000000000008000B8
:101B8E006001C000B0002000000000000000000056
:101B9E000000000000000000000000000000000037
:101BAE000000000000004000400040004000FC0724
:101BBE004000400040004000000000000000000017
:101BCE0000000000000000000000000000000C0CEF
:101BDE0004030000000000000000000000000000F0
:101BEE003C000000000000000000000000000000AB
:101BFE00000000000606000000000000000000804B
:101C0E00402020100808040202010000000000001D
:101C1E000000000000E0988C4662320C00000000CC
:101C2E0000000000000000004060383412180C0064
:101C3E00000000000000000000000070CCC4201C5A
:101C4E005C3A000000000000000000000000784C2C
:101C5E00503020331F000000000000000000000084
:101C6E000030184824123F0C0C0000000000000049
:101C7E0000000000E018083448603E00000000003C
:101C8E000000000000000000000000000000E00165
:101C9E00B8010C007E00460062001C00000000002F
:101CAE0000000000000000000000000000F04C20CA
:101CBE003018080C0C0000000000000000000000AE
:101CCE00F088987866423C0000000000000000009A
:101CDE00000000384C647C301B0700000000000040
:101CEE0000000000000000001818000606000000AA
:101CFE0000000000000000000000003030000C0C5E
:101D0E0004030000000000000000000000000000BE
:101D1E0004800360001C001C0060008003000400AF
:101D2E0000000000000000000000000000000000A5
:101D3E00000000000000000000FC0700000000FC96
:101D4E00070000000000000000000000000000007E
:101D5E00000000000000000000000004003800C079
:101D6E000000070007C0003800040000000000005B
:101D7E0000000000000000000000000000F088F8E5
:101D8E002818000C0C0000000000000000000000ED
:101D9E00C00F30180820844BC444424422442246CB
:101DAE0022222233C41C0C101818E0070000000079
:101DBE000000000000000000004000380024001267
:101DCE007019900C506D271753178F0F00000000DD
:101DDE000000000000000000000000000000800F66
:101DEE00701888248436440E381380118619C60B59
:101DFE0062073C0000000000000000000000000030
:101E0E0000000000701C18138809C4086406A401A1
:101E1E00D80750041002E00100000000000000008E
:101E2E0000000000000000000000C003301C080C81
:101E3E008C1684124413B81180095C04FC03000054
:101E4E000000000000000000000000000000000084
:101E5E00C0016002A003A001E0001C00E600960095
:101E6E00C6003C0000000000000000000000000062
:101E7E00000000000000000FC07820051005901B28
:101E8E00F0060007C0078C017C0000000000000077
:101E9E000000000000000000000000000007F00439
:101EAE00C80464022401A402F80318018801F0009A
:101EBE000000000000000000000000000000000014
:101ECE00000000E06092D849E82D801CC002E33388
:101EDE00730931051E030000000000000000000021
:101EEE000000000000000000001E800540022003DC
:101EFE00100590059603E60042003C00000000002D
:101F0E000000000000000000000000000000003C87
:101F1E00800BC004200210031001B001C000F003BA
:101F2E006C026201B1001900070000000000000001
:101F3E000000000000C0002460123809E40780652C
:101F4E00C0244316630E1F060000000000000000B0
:101F5E0000000000000000000000C01D3012181329
:101F6E0088098805C803F00840062E01DE0000002F
:101F7E000000000000000000000000000000000053
:101F8E00001A80090009C00FA006A0659027CE1286
:101F9E00C90A470600000000000000000000000013
:101FAE000000000000000006000380228012400A9C
:101FBE00400A2606230611060E020000000000004D
:101FCE00000000000000000000000000000FC0082C
:101FDE00200FB00458042C021C038C01C4003800DE
:101FEE0000000000000000000000000000000000E3
:101FFE000000C007301888148412441B3C07E0010F
:10200E00C60062003C00000000000000000000005E
:10201E000000000000000000C0033006980688068D
:10202E00C403641BBC0980045E02EE0100000000C4
:10203E000000000000000000000000000000800F03
:10204E007070884C8466C41F3C8F804DCE6FE21634
:10205E003C0E000000000000000000000000000028
:10206E0000000000803B602430261013100BB007D8
:10207E00E001800066003E0000000000000000004D
:10208E00000000000000000000008027601890048F
:10209E008802C803C803F603C601E2007C000000F4
:1020AE000000000000000000000000000000000022
:1020BE0000000000808301E0C401B0C400906600FF
:1020CE00C87300483303B8BB00C09D00406A00C00F
:1020DE0019000000000000000000000000000000D9
:1020EE0000000000000000000000323009EC09B4CE
:1020FE0004C004C0026001A00060003000000000B7
:10210E0000000000000000000000000000000000C1
:10211E00000000C04100302200582200489A01649D
:10212E005900242D009C1B00C01400700C001004DC
:10213E000000000000000000000000000000000091
:10214E000000000000000000C0013032583E48067A
:10215E00640324039C19C005EE049E028001000056
:10216E000000000000000000000000000000E02061
:10217E001811AC09F40C7C066007E0031C039C01EB
:10218E0078000000000000000000000000000000C9
:10219E00000000007804C4030201020182008000E6
:1021AE00F80CB8028001E0007C0023001900070043
:1021BE000000000000000000000000070001800089
:1021CE00C00040006000200010001800080004004D
:1021DE0004000200070000000000000010101010A4
:1021EE001010101010101000000000000000000071
:1021FE000000000007000200010001800080004086
:10220E000020002000100018000800040007000045
:10221E000000000000000080014002200418180099
:10222E0000000000000000000000000000000000A0
:10223E000000000000000000000000000000000090
:10224E000000000000000000FF0000000000000081
:10225E002020000000000000000000000000000030
:10226E000000000000000000000000000000007CE4
:10227E00002603B3005900370000000000000000E4
:10228E0000000000000000000000000000600030B0
:10229E0000100018002C00B601560022001E00008F
:1022AE000000000000000000000000000000000020
:1022BE000000383CC6320E00000000000000000096
:1022CE00000000000000000300018000C0005C0060
:1022DE006603B30059003700000000000000000044
:1022EE0000000000000000000000001CD23F190F8B
:1022FE0000000000000000000000000000000000D0
:10230E00068005C002E00130063001980058003802
:10231E00000C000400060002000300000000000094
:10232E0000000000000000000000000000F0019816
:10233E000C4C02E4017C0030001E0019000900075D
:10234E000000000000000000000000200030001817
:10235E000018006C0054066E01B6007300000000F9
:10236E00000000000000000000000000002020001F
:10237E0018CC2E120E00000000000000000000001D
:10238E000000000000000002000200000001800CAE
:10239E00E002C001E000380034001B000900070015
:1023AE00000000000000000000006000300010007F
:1023BE00180068002E03B600520033000000000023
:1023CE000000000000000000000000603018186CD3
:1023DE0026160A06000000000000000000000000A3
:1023EE0000000000000000000000006806DE67EC40
:1023FE00136E0D3707000000000000000000000003
:10240E0000000000000000000000000000000000BE
:10241E0000C800EE0C7C02AC01670000000000005A
:10242E00000000000000000000000000000000009E
:10243E00000000000000003800AC0156003A000613
:10244E00000000000000000000000000000000007E
:10245E0000000000008000C00040006000A001707D
:10246E001998045802C8010C00040006000200036B
:10247E00000000000000000000000000000000004E
:10248E000000007C00360393005D003F001C00142A
:10249E00001E000A00060000000000000000000000
:1024AE001CDA2C140C0000000000000000000000DC
:1024BE0000000008CE281D070000000000000000EC
:1024CE00000060207018086E160A0600000000005A
:1024DE0000000000000000000000000000000000EE
:1024EE000000EC00640636019A0076000000000041
:1024FE0000000000000000000000000000000000CE
:10250E0000000000000000002801BE005C00220058
:10251E001E0000000000000000000000000000008F
:10252E000000000000000000000000000000D807BE
:10253E00EE36761A2A0EE6010000000000000000BA
:10254E0000000000000000000000002CDA282D1B07
:10255E00000000000000000000000000000000006D
:10256E00000000000000009801D40C7802FC016C01
:10257E0000380016001900090007000000000000D6
:10258E0000000000000000000000000000DC0078E9
:10259E000690015C0020003800360019000D00077F
:1025AE000000006010101010100C181010101010F9
:1025BE00600000000000101010101010101010100D
:1025CE00101010101010000000060808080808303F
:1025DE0018080808080806000000000000000000A7
:1025EE00000000000000000000003C02C2010000DC
:1025FE0000000000000000000000000000000000CD
:10260E00000000000000FE010201020102010201B1
:10261E000201020102010201020102010201020194
:10262E00FE0100000000AA55AA55AA55AA55280079
:10263E00390A391E2828171E170A28000001030719
:10264E000F1F3F7FFF00546F73686962612054361D
:10265E00393633432047726170686963732044656D
:10266E006D6F0A486572652061726520736F6D65C6
:10267E0020666F6E742073616D706C65733A0053D3
:10268E0074616E646172642C2035783720706978BD
:10269E00656C7300417269616C2C20313420706955
:1026AE0078656C73206865696768740A00417269A1
:1026BE00616C20426F6C642C203134207069786517
:1026CE006C732068656967687400436F757269651D
:1026DE00722C203778313420706978656C730A005B
:1026EE00436F757269657220426F6C642C203134B1
:1026FE0020706978656C732068656967687400532B
:10270E0063726970742C20313920706978656C732E
:10271E0020686569676874005661726961626C65EC
:10272E0020746578742073706163696E673A0A006D
:10273E00546F7368696261205436393633430A0028
:10274E00546F736869626120543639363343004CD6
:10275E00696E65207374796C65733A0046696C6CAA
:10276E0000496D61676520776173207361766564DA
:10277E0020746F20454550524F4D00436972636C73
:10278E006573202620617263730052656374616EF7
:10279E00676C657320262066696C6C6564206261C7
:1027AE007200526F756E6465640072656374616E5B
:1027BE00676C650050696500736C6963653A00501B
:1027CE0075740A696D6167650A66726F6D0A4545B3
:1027DE0050524F4D3A0050757400696E76657274A2
:1027EE00656400696D6167650066726F6D0001005A
:1027FE002D4E414E00494E46000001001D05FC279E
:10280E000000F894EE27ECBBF1E0F5BFE5BFE093D6
:10281E006C00F8E1F1BDE1BD8DE0A2E0BB27ED93C8
:10282E008A95E9F780E090E1A0E0B1E0ED930197A1
:10283E00E9F7E8E0F8E285919591009761F0A591AE
:10284E00B59105901590BF01F00105900D9201977D
:10285E00E1F7FB01F0CF8BBFEFEFEDBFE0E1EEBF95
:10286E00C0E0D5E00C943B142697ECE8F0E0E8834A
:10287E00F983E0E0EA83EB83EC83ED83DE010E94D3
:10288E000117A4E5B6E20E94ED1BE0E0EA93E4E155
:10289E00EA93ADE8B6E20E94D61BE0E3F3E0E093E4
:1028AE000405F0930505E0E0EA93EEE1EA93A2EA6F
:1028BE00B6E20E94D61BECE0F9E0E0930405F0933B
:1028CE000505ABEBB6E20E94ED1BA0EABFE00E944D
:1028DE00A0260E94C417E4E0FFE0E0930405F09305
:1028EE000505A8EDB6E20E94ED1BE8E4F4E1E093E5
:1028FE000405F0930505AEEEB6E20E94ED1BE6E18F
:10290E00FAE1E0930405F0930505E0E0EA93EEE1C9
:10291E00EA93ADE0B7E20E94D61BA0EABFE00E94A8
:10292E00A0260E94C417ECE8F0E0E0930405F093B3
:10293E000505A6E2B7E20E94ED1BE8E4F4E1E093A0
:10294E000405F0930505AEE3B7E20E94ED1BE2E04D
:10295E00EA93A1E00E94451AAEE3B7E20E94ED1B96
:10296E00E3E0EA93A1E00E94451AAEE4B7E20E94CA
:10297E00ED1BA0EABFE00E94A0260E94C417E1E072
:10298E00EA93A1E00E94451AECE8F0E0E09304051A
:10299E00F0930505ADE5B7E20E94ED1BE0E0EA938A
:1029AE00EAE0EA93EFEEEA93AAE00E94901CE1E0DF
:1029BE00E0930805E5E5E0930905E0E0EA93EFE032
:1029CE00EA93EFEEEA93AFE00E94901CE1E0E09311
:1029DE000805E3E3E0930905E0E0EA93E4E1EA9316
:1029EE00EFEEEA93A4E10E94901CE2E0E09308056A
:1029FE00EFEFE0930905E0E0EA93E9E1EA93EFEE09
:102A0E00EA93A9E10E94901CE2E0E0930805E5E557
:102A1E00E0930905E0E0EA93EEE1EA93EFEEEA9344
:102A2E00AEE10E94901CE2E0E0930805E3E3E09340
:102A3E000905E0E0EA93E3E2EA93EFEEEA93A3E21C
:102A4E000E94901CE4E0E0930805EFEFE093090587
:102A5E00E0E0EA93E8E2EA93EFEEEA93A8E20E945E
:102A6E00901CE4E0E0930805E5E5E0930905E0E05D
:102A7E00EA93EDE2EA93EFEEEA93ADE20E94901C48
:102A8E00E4E0E0930805E3E3E0930905E0E0EA9370
:102A9E00E2E3EA93EFEEEA93A2E30E94901CA8EB26
:102AAE00BBE00E94A0260E94C417E1E0E093080557
:102ABE00EFEFE0930905E7E0EA93ACE3B6E20E949C
:102ACE00901EA8EEB3E00E94A026E0E3EA93E8E1B0
:102ADE00EA93A1E00E945023E0E0E0930005E1E0DC
:102AEE00E0930105EEE1EA93E1E1EA93AAE6B7E2AB
:102AFE000E94D61BE6E1EA93E0E0EA93E5E2EA9370
:102B0E00E9E2EA93A0E0B0E00E94431CE1E0E0932A
:102B1E000005E0E0E0930105EA93EFE2EA93AFE609
:102B2E00B7E20E94D61BA8EBBBE00E94A0260E9433
:102B3E00C417E5E1EA93E7E1EA93A4E10E94972145
:102B4E00E5E1EA93E7E1EA93E0E0F0E0FA93EA9355
:102B5E00E8E7F0E0FA93EA93AFE00E94D221E3E0D7
:102B6E00E0930805EFEFE0930905EFE3EA93E7E161
:102B7E00EA93A4E10E949721EFE3EA93E7E1EA9357
:102B8E00E0E0F0E0FA93EA93E2EDF0E0FA93EA93F4
:102B9E00AFE00E94D221E0E0EA93EFE2EA93A9E8E7
:102BAE00B7E20E94D61BE1E0E0930805EFEFE09359
:102BBE000905E4E6EA93E0E0EA93E8E2EA93A9E1A4
:102BCE000E94DF1DE3E0E0930805E3E3E0930905CF
:102BDE00EEE8EA93E0E0EA93E8E2EA93A9E10E94E4
:102BEE00DF1DE4E3F6E2FA93EA93A1E00E94E72206
:102BFE00E2E7EA93EDE1EA93EAEAEA93ACE20E94B5
:102C0E003C23E4E6EA93EFE2EA93A8E9B7E20E94F6
:102C1E00D61BA8EBBBE00E94A0260E94C417E5E0DD
:102C2E00EA93EA93EAE4EA93E6E2EA93A8E00E94E2
:102C3E00221EE0E1EA93EA93A0EBB7E20E94D61BD4
:102C4E00E0E1EA93E8E1EA93A8EBB7E20E94D61B33
:102C5E00E1E0E0930805EFEFE0930905E4E6EA937F
:102C6E00E0E0EA93A2ECB7E20E94D61BE4E6EA9318
:102C7E00E7E0EA93A6ECB7E20E94D61BE0EAEA93FD
:102C8E00E7E1EA93EEE1F0E0FA93EA93ECE2F1E0A9
:102C9E00FA93EA93A4E10E946D22A8EBBBE00E9496
:102CAE00A0260E94C417ADECB7E20E94ED1BEEE227
:102CBE00EA93E0E0EA93E0E0F0E0FA93EA93A0E032
:102CCE000E94FF1BE4E6EA93E0E0EA93A4EEB7E28B
:102CDE000E94D61BE4E6EA93E7E0EA93A8EEB7E299
:102CEE000E94D61BE4E6EA93EFE0EA93A1EFB7E287
:102CFE000E94D61BE4E6EA93E7E1EA93A7EFB7E278
:102D0E000E94D61BE4E6EA93EFE1EA93ACEDB7E25C
:102D1E000E94D61BECE9EA93E0E0EA93E0E0F0E0F3
:102D2E00FA93EA93A3E00E94FF1B2696FFCFAA9385
:102D3E00AA98A898EFEFEABBE881EBBB0000000071
:102D4E00000000000000000000000000A89A000033
:102D5E000000AA9AD7C01A93AA98A998E0E0EABBF5
:102D6E000000000000000000000000000000000055
:102D7E0019B3A99AAA9AE12F19910895AB9AEBDF8C
:102D8E00E370E330E1F70895AA93F8DFAB98A881DA
:102D9E000E949E16B7C0F2DFAB98DDDF0895AA93AE
:102DAE00EDDFA8810E949E16ADC0BA93AA93A881AA
:102DBE00EBDFA981E9DFA4E2F2DF0C94B21DAA9346
:102DCE00A881E8E2EA9FF001E05CFE4FBF01A98115
:102DDE00E6E00E94B828DB01F0E0AE0FBF1FE5DF92
:102DEE00A5ECDDDFD8DF0C94B21DAA93A881CCDF51
:102DFE00A4EC87C0BA93AA93A29AAA9AA19AA99A66
:102E0E00A09AA89AA39AA49AAC98AAE0B0E00E94BD
:102E1E00A026AC9AAAE0B0E00E94A026A0E0B4DF03
:102E2E00A0E0B2DFA0E4BBDFA8E2AEDFA0E0ACDF43
:102E3E00A1E4B5DFA0E4A8DFA1E0A6DFA2E4AFDF46
:102E4E00A8E2A2DFA0E0A0DFA3E4A9DFA2E09CDF5E
:102E5E00A0E09ADFA2E2A3DFA0E8A1DFA1E049D0C3
:102E6E00E1E0E0930005E0E0E0930105E1E0E093AE
:102E7E000605E0930705E881F9813097A9F0A8814E
:102E8E00B9810E94DF28E0930405F09305051296A0
:102E9E000E94DF28E0931905F0931A05A881B981E5
:102EAE0014960E94DF280AC0E0E0F0E0E0930405EB
:102EBE00F0930505E0931905F0931A05E0931B05B1
:102ECE00F0931C05E1E0E0930805EFEFE0930905B0
:102EDE00E1E0E0931005E1E1F5E0FA93EA93EFEF1C
:102EEE00EA93A8E0B0E00E94122447D0E1E00C94EF
:102EFE00B21DAA93E881E03011F0ECE901C0E0E9DF
:102F0E00AE2F4DDF219608951A930A93A0E0B0E0FC
:102F1E004CDF00E411E0F80101501040309729F029
:102F2E00A0E032DFA0EC3BDFF6CFE0E0EA93A0E0DA
:102F3E000E94841C0991199108950E94432930E042
:102F4E00E0910105E03009F03FEFA0E4B1E02DDFA4
:102F5E0000E01AE0F80101501040309729F0A32F3D
:102F6E0013DFA0EC1CDFF6CFE0E0EA93A0E00E94B6
:102F7E00841C0E944A290C94EC1DC6DFDEDF0895E6
:102F8E00AA931A930A93AC81A03F18F4AB81A03494
:102F9E0020F0198108810C94EB1BEC81EA93AC8133
:102FAE000EDF1E2FAC81E6E00E94D928A5E00E941C
:102FBE000A29EA1BA1E00E945F280E2FEA81E03069
:102FCE0011F0102B03C0E02FE0951E23A12F0DDF73
:102FDE00198108810C94EB1BAA93A981A03F18F4C8
:102FEE00A881A03418F0E0E00C94B21DE981EA93B8
:102FFE00A981E5DE6E2FA981E6E00E94D928A5E021
:10300E000E940A29EA1BA1E00E945F28E62311F024
:10301E00E1E001C0E0E00C94B21DAA93A991A0FBDF
:10302E00E5F9A1FBE4F9A2FBE3F9A3FBE2F9A4FBAA
:10303E00E1F9A5FBE0F90895AA931A93ED81EA93BD
:10304E00AD810E94E616AE2F0E9414181E2FE98144
:10305E00E63011F0E73039F4EB81EA93AA810E9451
:10306E003A26EB830EC0E33021F4EB81E095EB833F
:10307E0002C0E03009F402C0E83009F402C0E930C1
:10308E0021F4EA81E0951E2302C0E23029F4EA81A0
:10309E00AB81EA231E2B0EC0E13029F4EA81AB810D
:1030AE00EA231E2707C0E43029F4EA81E095AB81BC
:1030BE00EA2B1E23A12F0E941418AE2F0E94FC167D
:1030CE001881FEC3AA9325970E944129AA89A03F81
:1030DE0048F4A989A03430F4A889A03019F0AF853E
:1030EE00A03009F478C1E889E695E695E6952E2F8D
:1030FE002887E889E7704E2F403019F0E885EF5F9A
:10310E00E8870889AA89BB27E889F0E0AE0FBF1FC0
:10311E00A13FE0E0BE0720F0AA89E0EFEA1BE88BB2
:10312E00EF85E987A989BB27EF85F0E0AE0FBF1FBA
:10313E00A134E0E0BE0720F0A989E0E4EA1BEF87A6
:10314E00EB85E53011F00C941519EE85E13009F49C
:10315E0042C1E33039F4E0911B05F0911C05309724
:10316E0009F439C1403019F4A8890A1751F1E22F38
:10317E00AC85BD85F0E0EA0FFB1FEE83FF831F8554
:10318E001030F9F0322F3F933F5FE885AF91AE17C5
:10319E0070F4EE85EA93EF81F8853196EF83F88728
:1031AE003197FA93EA93A0E00E948126ECCFE22FAA
:1031BE00AE81BF81F0E0EA0FFB1FEE83FF8311505B
:1031CE00DFCF2F85E985E21741F1A22FBB27E885D6
:1031DE00F0E00E949028AC85BD85EA0FFB1FEE83C0
:1031EE00FF832F932F5FE985AF91AE17B0F430E0D8
:1031FE003F933F5FE885AF91AE1770F4EE85EA938B
:10320E00EF81F8853196EF83F8873197FA93EA9339
:10321E00A0E00E948126ECCFE4CF0DC0E83011F47F
:10322E00E0E003C0E93039F4EFEFE987EA93AC85CB
:10323E000E943A26E987EF85E150EF87EF5F11F4A0
:10324E000C94F21910E00A89EC85FD85EE83FF835C
:10325E00AB85A53011F00C949019E0E0EA87E98770
:10326E00E8891E1710F00C948F19A02FE6E00E942B
:10327E00D9283E2FE6E0E31B4E2F0A93AA890E941F
:10328E00E616AE2F0E9414185E2FE12FE77051F450
:10329E003A93A42F0E942F265E23E32FA52F0E9480
:1032AE0067280BC0E8E0E21BF0E0E65BF94DE49125
:1032BE005E23E22FA52F0E945F285E2FE52FA985A2
:1032CE00EA2BE987242FE22FAA85EA0FEA87AA853F
:1032DE00A93018F0A8502A1B08C0AA85A83029F0DA
:1032EE00A22FA10FE889AE1780F0EE85EA93EF8149
:1032FE00F8853196EF83F8873197FA93EA93AC8588
:10330E000E948126E0E0EA87E987020F120FA8CF1C
:10331E0056C0E8891E1710F00C94E619A02FE6E0AF
:10332E000E94D9283E2FE6E0E31B2E2FE12FE770F7
:10333E0009F5EB85E83011F0E93009F40FC0EE85A0
:10334E00EA93EF81F8853196EF83F88731976627F8
:10335E007727DF01CB010E946226E987E32FA9853B
:10336E000E945F285E2F3A93A22F0E942F264E2F87
:10337E00E8E019C0AA85E8E0EA1BA9850E94672843
:10338E005E2FE889E11BEA93EB85EA93A6E00E94A3
:10339E002224AE2F0E9422242E2FE22FF0E0E65B95
:1033AE00F94D4491EA85E21BEA870A93EA89EA938A
:1033BE005A934A93AF8540DE020F120FAACFE989C6
:1033CE00EF5FE98BE885AC85BD85F0E0EA0FFB1F6A
:1033DE00EC87FD8730CF0E94482963960895AA9303
:1033EE00A981E8E2EA9FF001DF01EA81F0E0AE0F89
:1033FE00BF1F0E94DC16A881A03818F4E881E052A5
:10340E00E883A8810E94CB16A4EC0E94D616A4C411
:10341E00BA93AA93A881B9810E9437291CF0E0E0E3
:10342E00F0E099C3A881B981A03FE0E0BE071CF08F
:10343E00EFEEF0E090C3E881F9818DC3BA93AA93C1
:10344E00A881B9810E9437291CF0E0E0F0E083C327
:10345E00A881B981A034E0E0BE071CF0EFE3F0E0F4
:10346E007AC3E881F98177C3AA93E981EA93E98166
:10347E00EA93A09100050E94C7176DC3AA93E98134
:10348E00E0930605E881E093070565C3AA931A93B6
:10349E00AA81A03F18F4A981A03430F0E0E0F0E05A
:1034AE0060E070E0188158C4EA81E7701E2FEA814F
:1034BE00E695E695E695EA83103011F0EF5FEA8324
:1034CE00AA81BB2788279927E981FF2766277727B7
:1034DE000E949828EC5FFF4F6F4F7F4F18813CC4BE
:1034EE00BA93AA9323970E944129E0910405F09183
:1034FE0005058F01002E012A19F4E0E0F0E06AC004
:10350E00F8010F5F1F4F04900F82F8010F5F1F4FDE
:10351E0004900E82F8010F5F1F4F04900886EB8512
:10352E00A885EA1718F4E0E0F0E054C0F8010F5F48
:10353E001F4F5491E52FA885AE0FEB85EA1718F0B3
:10354E00E0E0F0E047C0EF81E030E1F0A985BA8518
:10355E00EC93E695E695E6954E2FEF81E77009F030
:10356E004F5FA885EB85EA1BF0E0DF01EE81F0E00E
:10357E000E949028DF01E42FF0E00E949028E00FD7
:10358E00F11F28C09801E52FF0E00E0F1F1FA88530
:10359E00AF5FA887A150EB85AE17B0F4F901E491A7
:1035AE00E695E695E6954E2FF9012F5F3F4FE49194
:1035BE00E77009F04F5FAE81BB27E42FF0E00E9469
:1035CE0090280E0F1F1FE3CFF901E491A985BA854C
:1035DE00EC93F8010E9448292C960895E0E0E093C0
:1035EE000205A0910305BB27E0910405F0910505A6
:1035FE003196E491F0E0AE0FBF1FE0910705F0E0C9
:10360E00AE0FBF1F1BDFE09303050895AA9321970A
:10361E000E944129E0910405F0910505309711F4BF
:10362E000C948E1BAF81AA3009F46CC0EF81EA9323
:10363E00DE01179655DFAF01309719F40E94482925
:10364E00F8C2E0910605AE81EA0F3E2FA091020569
:10365E00BB27E32FF0E0EA0FFB1F8F01013FE0E0F5
:10366E001E0718F0032F1127B9DFE0910205EA9328
:10367E00E0910305EA93E885EA93E0910405F09161
:10368E0005053196E491EA93E1E0EA935A934A9361
:10369E00A6E018DDE0910205AE81EA0FEA93E09113
:1036AE000305EA93E0910605EA93E0910405F09193
:1036BE0005053196E491EA93E0E0EA93E0E0F0E06C
:1036CE00FA93EA93A8E0FEDCE0910205EA93A0915A
:1036DE000305E0910405F09105053196E491EA0F9A
:1036EE00EA933A93E0910705EA93E0E0EA93E0E08B
:1036FE00F0E0FA93EA93A8E0E5DCE0EFF0E0E01703
:10370E00F10721F46BDF0E94482993C243C0AF81B9
:10371E00AA30B1F1A0910205E6E00E94B8283E2F32
:10372E00E0910305E695E695E6952E2F3A932A93BA
:10373E00A98555DEA6E03A9FF001E0930205E22F3F
:10374E00EE0FEE0FEE0FE0930305E0910205EA9304
:10375E00E0910305EA93E6E0EA93E8E0EA93E0E01D
:10376E00EA93E0E0F0E0FA93EA93A8E0ABDCE091B4
:10377E000205F0E036968F01003FE0E01E0750F0A4
:10378E0000E010E0E0910305F0E03896DF0156DE30
:10379E00E0930305009302050E9448294AC2BA939A
:1037AE00AA931A93EC81EA93AC81A7D0E981FA81AE
:1037BE003196E983FA833197E4911E2FE03019F0A8
:1037CE00A12F24DFF3CF188125960895BA93AA93DB
:1037DE001A93E981FA813196E983FA833197E4915C
:1037EE001E2FE03019F0A12F11DFF3CF1881B4C2D4
:1037FE00AA930E944329AC81A530B0F5AD81BE815C
:10380E001196AD83BE8311970E940E290E2FAD81A6
:10381E00BE811196AD83BE8311970E940E291E2F75
:10382E00AD81BE811196AD83BE8311970E940E2984
:10383E002E2FAD81BE811196AD83BE8311970E944E
:10384E000E293E2FE885EA93E885EA930A932A9398
:10385E00E2E0EA93EA85FB85FA93EA93AB8532DCE4
:10386E000A93A22F13DE04C0E0E0F0E060E070E007
:10387E000E944A2929960895BA93AA93EB81A881AA
:10388E00B981F0E00E941A29A881B9811296EA81C5
:10389E00F0E00E941A29ED81EA93ED81EA93ED8121
:1038AE00EA93ED81EA93E2E0EA93ED81FE813496AC
:1038BE00FA93EA93A5E006DCEB81EA93AB81E6DDB1
:1038CE0026960895AA93EA81EA93EA81EA93E09113
:1038DE000905AA81EA2319F0E091000502C0E091E2
:1038EE000105AE2F0E94C717E881EE0FE883E03086
:1038FE0011F4E1E0E883E8812FC2AA93A981BB27E6
:10390E0087DDE0930205A881BB2798DDE0930305D0
:10391E0022C1AA932B970E944129AC89BB2778DD3F
:10392E00EC8BAA89BB2774DDEA8BAB89BB2786DDBE
:10393E00EB8BA989BB2782DDE98BEA89E09302052F
:10394E00E989E0930305E1E0E887E989AB89EA17A5
:10395E0099F51C89AA891A1731F41A93EC89EA93FE
:10396E00A1E0B0DFE9C0AA891A1730F4EA89E11B99
:10397E000E2F41E050E006C0AA89E12FEA1B0E2F60
:10398E004FEF5FEF3B89E0E0EE83AE81AF5FAE833A
:10399E00A150E0910805AE1738F41A933A93339577
:1039AE00AA8590DFEF83F1CFEF81E887140FE02F28
:1039BE000150E03039F7C0C0EA89AC89EA1769F5E1
:1039CE003B89A9893A1730F4E989E31B2E2FE1E0F0
:1039DE00F0E006C0A989E32FEA1B2E2FEFEFFFEFD1
:1039EE00ED87FE871C89E0E0EE83AE81AF5FAE838C
:1039FE00A150E0910805AE1738F41A9313953A9337
:103A0E00AA8560DFEF83F1CFEF81E887ED853E0F6A
:103A1E00E22F2150E03031F78FC0E0E0EE83AE812F
:103A2E00AF5FAE83A150E0910805AE1710F00C9475
:103A3E00A31D1C893B89E1E02E2F0E2FAA89BB27DF
:103A4E00EC89F0E0AE1BBF0BAD0155232AF40FEF4E
:103A5E00FA010E945328AF01FA01EE0FFF1FEF8704
:103A6E00F88BA989BB27EB89F0E0AE1BBF0BAD87A6
:103A7E00BE87AE85AA233AF42FEFED85FE850E9410
:103A8E005328ED87FE87ED85FE85EE0FFF1FEB8732
:103A9E00FC871A933A93A1E015DFE887E0E0E98707
:103AAE00EA87AD85BE854A175B07F4F0100FEB85EC
:103ABE00FC85A985BA85EA0FFB1FE987FA87A985D8
:103ACE00BA854A175B073CF4320FAF85B889EA1BFB
:103ADE00FB0BE987FA871A933A93AA85F3DEE887F8
:103AEE00EA89E11719F721C0320FEF85F889A98508
:103AFE00BA85EA0FFB1FE987FA87ED85FE85A98552
:103B0E00BA85EA17FB074CF4100FAB85BC85E98527
:103B1E00FA85EA1BFB0BE987FA871A933A93AA8573
:103B2E00D1DEE887E989E317F9F6EB89EF5FEB8BD6
:103B3E00E989EF5FE98B73CF0E9448296596089556
:103B4E00AA93E0910205EA93E0910305EA93EB81D3
:103B5E00EA93AB81DEDE22960895BA93AA930E9471
:103B6E004129EE81FF81138101813281AE81BF81B6
:103B7E002C91011718F4502F012F152F231718F41D
:103B8E00522F232F352FE12FAE81BF811396EC9349
:103B9E00E32FAE81BF811296EC93E02FAE81BF81F1
:103BAE001196EC93AE81BF812C930E94482941C09F
:103BBE00AA93EB81EA93EB81EA93EB81AD81EA0F55
:103BCE00EA93EB81AD81AE0F02D024960895AA93AD
:103BDE000E944329E0910805E1503E2FDE01149624
:103BEE00BCDFED81E31B1E2FEC81E31B0E2FEF815B
:103BFE00EA93EF81EA931A93A9858BDE1A93EF81EC
:103C0E00EA931A93A02F85DEED81EA930A93E32FB0
:103C1E00A985EA0FEA93A02F7CDEEF81EA93ED816E
:103C2E00EA93E985EA93E32FA985AE0F72DE0E942F
:103C3E004A2928960895AA9322970E944129EA8537
:103C4E00E03019F0E985E03009F45EC0E091090535
:103C5E00EE83EFEFE0930905E885AC85EA0F1E2FA2
:103C6E00E885AB85EA0F2E2FE0910805E150EF8332
:103C7E00EA85AC85AE0FA1503A2FA885E32FEA1B3B
:103C8E000E2FAF813A1BE985AB85AE0FA1504A2F9F
:103C9E00A885E42FEA1B5E2FAF814A1B1A93EC8591
:103CAE00EA93E02FE150EA93AE8533DE0A932A932E
:103CBE00EA85EA93A1E8CCD23A932A933A93A52FB8
:103CCE00A15027DE0A935A93EA85EA93A8E8C0D258
:103CDE000A934A931A93A42F1CDE1A935A93EA85D9
:103CEE00EA93A4E8B5D2EC85EA935A93EE85EA936B
:103CFE00A22F0FDE1A932A93EA85EA93A2E8A8D29E
:103D0E00EE81E093090504C0EC85EA93AC85ACDB4B
:103D1E00D9C3BA93AA93EA81E030F1F0E881F98130
:103D2E003097D1F0E491EA93E981FA813196A4912A
:103D3E00E4DDEA81E150EA83EF5F71F0E881F98119
:103D4E00E491EA93E981FA813296E983FA83329714
:103D5E003196A491F5DEEDCF239608950E94F728B3
:103D6E001A930A93AA81BB818C819D810E945A2449
:103D7E000E94DF268F01F801AA81BB818C819D8173
:103D8E000E947F280E9416270E9401290E9449271F
:103D9E00DF01CB01E0E0F0E060E07FE30E9433283A
:103DAE0010F00F5F1F4FF801198108810C94102439
:103DBE00BA93AA932497E985FA85662777270E94F6
:103DCE001627A5E3BAEF8EE89CE30E94A0270E9477
:103DDE00ED28EC85F0E0FF93EF930E94E8280E9417
:103DEE002825A885BB27882799270E94FE280E9490
:103DFE00A027DF01CB01B2DFAF91BF91AE0FBF1F86
:103E0E0007DBAE81BF81EC93EB85F0E0FF93EF9380
:103E1E000E94E8280E947024A885BB27882799272E
:103E2E000E94FE280E94A027DF01CB0197DFAF91F1
:103E3E00BF91AE1BBF0B02DBAC81BD81EC9344C3C3
:103E4E00BA93AA9323970E944129ED85E887E091C2
:103E5E000805EF83E0910005EE83AA89BB27EF8565
:103E6E00F0E0EA0FFB1F8F01A989BB27E889F0E07C
:103E7E00AE1BBF0B9D01A989BB27E889F0E0EA0FB5
:103E8E00FB1FAF01E885E178E138B1F0E885E07815
:103E9E0069F5AD85BE85EAE5F0E0EA1BFB0B0F0187
:103EAE00DF01EB85FC85AE17BF072CF0E985FA859F
:103EBE00E015F1050CF41AC033231AF00A93A22F61
:103ECE00D3DAAF81A23020F02230E0E03E070CF4CE
:103EDE000DC00A93A22FA2500E94F317AE2FEE81AF
:103EEE00EA1721F40A93A22FA150BEDAE885E878EA
:103EFE00E838B1F0E885E07831F5AD85BE85A25F92
:103F0E00BE4FEB85FC85AE17BF074CF0AD85BE8569
:103F1E00A25FBE4FE985FA85EA17FB070CF413C0C2
:103F2E000A93A42FA1DAAF81A23068F00A93A42FCE
:103F3E00AE5F0E94F317AE2FEE81EA1721F40A93BB
:103F4E00A42FAF5F91DAAA89BB27EF85F0E0AE1BF5
:103F5E00BF0B8D01112312F40C941620E885E27824
:103F6E00E238B1F0E885E07869F5AD85BE85A65AF0
:103F7E00BF4FEB85FC85AE17BF074CF0AD85BE85F8
:103F8E00A65ABF4FE985FA85EA17FB070CF41AC04B
:103F9E0033231AF00A93A22F67DAAF81A23020F0F2
:103FAE002230E0E03E070CF40DC00A93A22FA2507F
:103FBE000E94F317AE2FEE81EA1721F40A93A22F77
:103FCE00A15052DAE885E478E438B1F0E885E0787B
:103FDE0031F5AD85BE85EEE0F1E0EA1BFB0B0F017E
:103FEE00DF01EB85FC85AE17BF072CF0E985FA855E
:103FFE00E015F1050CF413C00A93A42F35DAAF8146
:10400E00A23068F00A93A42FAE5F0E94F317AE2F72
:10401E00EE81EA1721F40A93A42FAF5F25DAAA895D
:10402E00BB27E889F0E0EA0FFB1F8F01A989BB27A8
:10403E00EF85F0E0AE1BBF0B9D01A989BB27EF8575
:10404E00F0E0EA0FFB1FAF01E885E178E13881F07F
:10405E00E885E07821F5EB85FC85AD85BE85AE174C
:10406E00BF072CF0E985FA85EA17FB070CF417C099
:10407E003323AAF00A93A22FF7D9AF81A23078F09A
:10408E00E02FEE5FEA93A22F0E94F317AE2FEE8180
:10409E00EA1729F4E02FEF5FEA93A22FE5D9E8851E
:1040AE00E878E838B1F0E885E07841F5AD85BE8571
:1040BE00E8E6F1E0EA1BFB0B0F01DF01EB85FC8567
:1040CE00AE17BF072CF0E985FA85E015F1050CF463
:1040DE0015C00A93A42FC8D9AF81A23078F0E02F73
:1040EE00EE5FEA93A42F0E94F317AE2FEE81EA172C
:1040FE0029F4E02FEF5FEA93A42FB6D9AA89BB2744
:10410E00E889F0E0AE1BBF0B8D01112312F40C9465
:10411E00FA20E885E278E238B1F0E885E07879F5C2
:10412E00AD85BE85E4EBF0E0EA1BFB0B0F01DF0172
:10413E00EB85FC85AE17BF072CF0E985FA85E015F7
:10414E00F1050CF41CC03323D2F00A93A22F8CD9A4
:10415E00AF81A23020F00230E0E01E070CF40FC059
:10416E00E02FE250EA93A22F0E94F317AE2FEE81BA
:10417E00EA1729F4E02FE150EA93A22F75D9E885CA
:10418E00E478E438B1F0E885E07869F5AD85BE8570
:10419E00AC54BF4FEB85FC85AE17BF074CF0AD8519
:1041AE00BE85AC54BF4FE985FA85EA17FB070CF4C0
:1041BE001AC00A93A42F58D9AF81A23020F0023032
:1041CE00E0E01E070CF40FC0E02FE250EA93A42F9C
:1041DE000E94F317AE2FEE81EA1729F4E02FE1507B
:1041EE00EA93A42F41D90E94482963960895AA9371
:1041FE000E944329AF81BB27ED81F0E0AE1BBF0BC0
:10420E0007D91E2FAF81BB27ED81F0E0AE0FBF1F88
:10421E00FFD80E2FAE81BB27EC81F0E0AE1BBF0B9B
:10422E000DD93E2FAE81BB27EC81F0E0AE0FBF1F44
:10423E0005D92E2F1A933A930A93A32F6ADB1A935A
:10424E002A930A93A22F65DB0E944A290C947325A8
:10425E00AA930E944129A985A03F18F4A885A034ED
:10426E0018F00E94482995C050910805E52F51502D
:10427E00E03011F40C949421EF81E03019F40E9497
:10428E00482987C0EF81E150EF83EF5F0E2FE02FBB
:10429E00F0E0A5E0B0E0AE1BBF0BFD010E946F2861
:1042AE000E9474289F0110E0AE81A03479F4E98554
:1042BE00EA93E985EA931A93A02F99DFE985EA93A9
:1042CE00E985EA930A93A12F92DF11C0E985EA935B
:1042DE00E985EA931A930A93EA85F0E0FA93EA9352
:1042EE00E0E0F0E0FA93EA93A0E0B0E0A9DD1F5F12
:1042FE0033231AF4E12FF0E008C00150A12FBB27A1
:10430E00E02FF0E0AE1BBF0BFD01EE0FFF1F31964D
:10431E002E0F3F1F011740F6A9CF0E94482939C022
:10432E00AA93EA81EA93EA81EA93EA81EA93AFE8F3
:10433E008FDF0C947F26BA93AA930E944329A985F6
:10434E00A03F18F4A885A03410F0E0E020C0AE81A4
:10435E00BF810D911C91AC81BD812D913C91D801F5
:10436E00E8E6F1E00E94DC288F01D901E9E6F1E0F0
:10437E000E94DC289F01AE81BF810D931C93AC81FE
:10438E00BD812D933C93F901D8010E948A280E9489
:10439E004A292A960895AA930E944129EC85EA9308
:1043AE00EC85EA93FE013B96FA93EA93DE011B96A7
:1043BE00C2DFE03011F40C946922EC85E0930A051B
:1043CE00EB85E0930B05EC85EA93EC85EA93EB85A0
:1043DE00FC85FA93EA93EA85EA93ECE0F5E0FA932A
:1043EE00EA93ADE0B5E0E4DCEC85EA93EC85EA9384
:1043FE00E985FA85FA93EA93EA85EA93EEE0F5E029
:10440E00FA93EA93AFE0B5E0D3DC50910805E52FBF
:10441E005150E03011F40C946922EE81E03009F431
:10442E0051C0EE81E150EE83EF5F0E2FE02FF0E0F2
:10443E00A5E0B0E0AE1BBF0BFD010E946F280E94ED
:10444E0074289F0110E0EC85EA93EC85EA931A93A9
:10445E000A93E02FFF27662777270E9416270E94D0
:10446E00F228E12FFF27662777270E941627DF0104
:10447E00CB010E94C625A1EEBEE285E692E40E9423
:10448E00A0270E94DF26FA93EA93EF85F889FA9324
:10449E00EA93AF85B889D4DC1F5F33231AF4E12F7A
:1044AE00F0E008C00150A12FBB27E02FF0E0AE1BBB
:1044BE00BF0BFD01EE0FFF1F31962E0F3F1F011791
:1044CE0010F6A5CF0E9448292D960895AA932297FB
:1044DE001A930A93E0910805E1500E2FEA85EA93AC
:1044EE00EA85EA93FE013996FA93EA93DE0119966C
:1044FE0022DFE03011F40C94E32210910905EFEF66
:10450E00E0930905EA85EA93EA85EA93E985FA8557
:10451E00FA93EA93E985FA85FA93EA93AA853BDF43
:10452E00E0E0EA83AF81B885A53BE0E0BE0708F086
:10453E000A83EA85EA93EA85EA93E0910C05EA9309
:10454E00A0910D05ED81AE1BE4D9E0E0EA83AD81CB
:10455E00BE81A53BE0E0BE0708F00A83E0910E05A0
:10456E00EA93A0910F05EB81AE1BAA93EC85EA931B
:10457E00AC85CFD9EA85EA93EA85EA93EF81F8858F
:10458E00A985BA85AE0FBF1FFD01F695E795FA9383
:10459E00EA93E885E695EA93FE013896FA93EA9354
:1045AE00DE01199605DCEB81EA93EB81EA93A0918B
:1045BE0000056FD010930905198108812B96089577
:1045CE00AA93E1E1F5E0FA93EA93EB81FC81FA9389
:1045DE00EA93A8E0B0E00E940024E881E093100581
:1045EE000C947F26AA930E944329AF81A03F18F412
:1045FE00AE81A03420F00E944A290C947325ED81DF
:10460E00E03019F0EC81E03009F42BC03E81E32F4D
:10461E00AC81EA0FEC83EF81AD81EA0FED83EC8183
:10462E003E17F8F4E31B2E2F293008F028E01F81E7
:10463E00ED811E17A0F4E11B0E2F093008F008E0E3
:10464E001A933A930A932A93E0E0EA93E1E1F5E0B4
:10465E00FA93EA93A7E00E946918100FE9CF320F80
:10466E00DECF0E944A290C947325AA93DE0175DAD7
:10467E00EB81EA93EB81EA93AD81EB81EA1BEF5F6D
:10468E00EA93AD81EB81EA1BEF5FAE2FABDF0C94AB
:10469E009E26FF92AA93E0970E944129A8ADA03FC3
:1046AE0018F4AFA9A03408F09FC0E09110054E2F6A
:1046BE00AE2FEEA9EA1709F097C0FE0136968F01CC
:1046CE00E8ADD801EC930F5F1F4FEFA9D801EC9323
:1046DE000F5F1F4FFE013696E017F10710F00C9496
:1046EE00FB2301501040D801EC91EFAB015010406C
:1046FE00D801EC91E8AF38AD313068F03A93A8ADFF
:10470E000E94F3175E2FEEA9E51711F0451709F475
:10471E0002C03150F1CFE894F0F8F1F83F5F303F2E
:10472E0010F00C94FA233A93A8AD0E94F3175E2F63
:10473E00EEA9E51711F0451709F455C03A93E8AD07
:10474E00EA93A42F0E94C717AFA9A13020F1EFA9B9
:10475E00E1502E2F3A93A22F0E94F3175E2FEEA94F
:10476E00E51711F0451709F414C0F0FC11C0FE0155
:10477E00F6960E171F07C0F5E32FD801EC930F5FC7
:10478E001F4FE22FD801EC930F5F1F4F6894F0F884
:10479E0002C0E894F0F8AFA9AF3320F5EFA9EF5FB0
:1047AE002E2F3A93A22F0E94F3175E2FEEA9E51734
:1047BE0011F0451709F414C0F1FC11C0FE01F69674
:1047CE000E171F0788F4E32FD801EC930F5F1F4FCE
:1047DE00E22FD801EC930F5F1F4F6894F1F802C0DF
:1047EE00E894F1F89BCF76CF0E944829E996FF9086
:1047FE000895BA93AA9399818881009641F0BD815C
:10480E00AC81FB81EA8105900D920197E1F7FD8164
:10481E00EC8126960895BA93AA93B981A881109631
:10482E0031F0FC81EB816A8161931197E9F7EB819D
:10483E00FC8125960895AA93A991E991EA170CF0A7
:10484E00EA2F08950E94F7287B816A81F981E88119
:10485E0077FB770F67FD7160972F9E5781F078F089
:10486E00983190F4AA27BB27882708948795B79587
:10487E00A7959A95D1F7EA23FB23682305C0E89400
:10488E007727EE27FF2766276F77769508F46068FF
:10489E0077F9A991B99189919991EA17FB07680760
:1048AE00790797FB08950E94F7280E94E8280E9436
:1048BE0029240E94ED2819F40E94E32838C2E6F755
:1048CE000E94E328A0E0B0E080E89FE30E94492721
:1048DE002EC20E94F72824971A9310E0AD81BE8154
:1048EE008F819885E3E8F9EF62E27EE30E94A027CC
:1048FE00ED83FE836F837887AD81BE818F8198852E
:10490E00D2DFAD81BE818F8198850E9401290E94E0
:10491E004927ED83FE836F837887AD81BE818F81BA
:10492E009885E0E0F0E060E07FE30E94332809F034
:10493E0010F40C94B124ED81FE816F817885A0E096
:10494E00B0E080E09FE30E944927ED83FE836F83F2
:10495E00788711E0AD81BE818F819885E0E0F0E02F
:10496E0060E87EE30E94332809F010F40C94C92409
:10497E00E0E0F0E060E07FE30E944927ED83FE83F4
:10498E006F837887103051F0ED81FE816F817885CD
:10499E000E94AA26ED83FE836F837887ED81FE81C8
:1049AE006F817885AD81BE818F8198850E94A02709
:1049BE00E983FA836B837C83A1EBB4EC86E292E409
:1049CE000E94A027DF01CB01EDE1F5EE6DE272E46E
:1049DE000E9401290E944927A981BA818B819C815D
:1049EE000E94A027ACE4B3E584E091E40E94502736
:1049FE00AD81BE818F8198850E94A0277F936F9392
:104A0E00FF93EF93E981FA816B817C81A1E1BDEE89
:104A1E008EED9FE30E945027A981BA818B819C81E4
:104A2E000E94A027AEE5BBE788EA9FE30E945027CD
:104A3E00AF91BF918F919F910E94EE271881299679
:104A4E0008950E94F7280E94E828EBEDFFE069EC3C
:104A5E007FE30E944927DF01CB013BDF68C10E9443
:104A6E00F7282497EC81FD816E817F81AC81BD8119
:104A7E008E819F810E94A0270E94ED28A5E6B0EDB1
:104A8E008BEC90E40E94A027AEE4BFE88AE491E4A8
:104A9E000E945027AC81BD818E819F810E94A027EC
:104AAE007F936F93FF93EF930E94E328A0E0BDE600
:104ABE0089E291E40E9450270E94E8280E94A027D4
:104ACE00AEE4BFE88AE491E40E945027AF91BF9113
:104ADE008F919F910E94EE27289608950E94F728A5
:104AEE000E94E828EDECF3E164ED7EE30E943328AA
:104AFE0010F4B5DF1CC10E94E828EAE7F2E86AE18B
:104B0E0070E40E94332809F010F40C94A2250E9440
:104B1E00E328A0E0B0E080E89FE30E94EE27DF01EB
:104B2E00CB019DDFABEDBFE089EC9FE30E94012935
:104B3E000E944927FCC00E94E328A0E0B0E080E874
:104B4E009FE30E9449277F936F93FF93EF930E94F9
:104B5E00E328A0E0B0E080E89FE30E945027AF91E9
:104B6E00BF918F919F910E94EE27DF01CB0177DFDE
:104B7E00ABEDBFE089E49FE30E945027D8C00E94AE
:104B8E00F7282497EC81FD816E817F810E94332965
:104B9E00E9F4E885F9856A857B850E94332929F435
:104BAE00EFEFFFEF6FE77FE751C0A885B9858A85E4
:104BBE009B850E943B292CF4EBEDFFE069EC7FE333
:104BCE0045C0EBEDFFE069EC7FEB40C0EC81FD8171
:104BDE006E817F81A885B9858A859B850E94EE2787
:104BEE000E94ED28AC81BD818E819F810E943B2960
:104BFE008CF4AB85AA2322F00E94E8286FDF26C032
:104C0E000E94E3280E94AA26DF01CB0167DF0E94E3
:104C1E00AA261CC0AB85AA2382F00E94E3280E941C
:104C2E00AA26DF01CB015ADFABEDBFE089E490E4A9
:104C3E000E9401290E94492709C00E94E8284EDFE0
:104C4E00ABEDBFE089E490EC0E9450272C960895BE
:104C5E00AA93E881F0E0E65BF94DA491E9810E9408
:104C6E005F2822960895AA931A93E981E63011F0EF
:104C7E00E93019F41091000509C0E83019F41091CB
:104C8E00010504C0E730A1F410911005E091010573
:104C9E00E03049F0103019F0EFEF188129C0EA81A9
:104CAE00E095188125C0103019F4E0E0188120C07D
:104CBE00EA8118811DC0BA93AA93EA81E13021F4EA
:104CCE00E881F981E49114C0E23029F4A881B98118
:104CDE000E940E290DC0E33041F4A881B981E09104
:104CEE001905F0911A05099503C0A881B981EC91B7
:104CFE0023960895AA93EB81E03029F4E881A981E7
:104D0E00BA81EC9314C0E23031F4E881A981BA8102
:104D1E000E9422290CC0E33051F4E981FA81FA9302
:104D2E00EA93AA81E0911B05F0911C050995249642
:104D3E000895109639F080EA9FE00197F1F7A89553
:104D4E001197C9F7089530976040704009F0705878
:104D5E000895552342F4503811F4E0FF04C0319603
:104D6E00691F791F6BF050E8572711F45F93CFC07E
:104D7E005F3F31F0660F000C57956795752F0895BC
:104D8E005F9300200AF0CFC0C8C050E8192E15223C
:104D9E00880F991F9527550F879550E8072E0522E6
:104DAE00660F771F7527550F67950895689401C094
:104DBE00E8945F93F2DF703818F07F3F08F4A7C0D5
:104DCE0056E1571BAAF4519558300EF4593030F075
:104DDE00EFEFFFEF6FEF7FE777F91AC077275523D5
:104DEE00B9F0EE0FFF1F661F771F5A95D1F710C04F
:104DFE007727583028F0EF2FF62F672F5850F9CF1E
:104E0E00552331F076956795F795E7955A95D1F735
:104E1E0000200AF445D15F910895689401C0E8948A
:104E2E00309760407040B1F0002426F0772312F4E2
:104E3E00009436D1172E7EE1112032F07A95EE0FC6
:104E4E00FF1F661F111CF9CFEF2FF62F612D5F93F9
:104E5E008ADF5F9108954F93AF01FD01DA01AB0137
:104E6E00BC01CA01402D012C142E4F910895EA0F5A
:104E7E00FB1F681F0895E095F0956095EF5FFF4F5B
:104E8E006F4F08955F9381DF903871F150E81526CA
:104E9E0004C05F937ADF903839F1703821F1572FC3
:104EAE00591B2BF112F4D7DFFACF583118F0AA277D
:104EBE00BB278827583028F0AB2FB82F882758509B
:104ECE00F9CF552329F08695B795A7955A95D9F719
:104EDE00502D512572F0CBDF38F46795F795E79595
:104EEE00739513F420C0B7DF3EDF5F910895D8F7B6
:104EFE00FBCFEA1BFB0B680B51F010F40094BBDFE9
:104F0E00662392F3EE0FFF1F661F7A95CBF7EE27FF
:104F1E00FF27662777275F910895EFEFFFEF6FE783
:104F2E007FEF5F910895EFEFFFEF6FE77FE75F9100
:104F3E0008955F932ADF703851F3903841F30124BE
:104F4E000894791F23F41CF300203AF3ECCF0F9250
:104F5E001F932F933F934F93112722279927689FD3
:104F6E00A0018F9F302D410D591F6B9F300D411D9C
:104F7E00591F8E9F27D0BF9F25D06A9F23D0BE9FDB
:104F8E001DD0AF9F1BD0AE9F110D291F391F491F7A
:104F9E00591FE32FF42F652F522F4F913F912F91D1
:104FAE001F910F9066232AF0550FEE1FFF1F661FED
:104FBE0002C073954BF2CDDE5F910895100D211D49
:104FCE00391F02C0200D311D491F591F08955F93CF
:104FDE00DCDE703821F411200AF49FCFA4CF903874
:104FEE0009F495CF01240894970B1BF4D4F30020F9
:104FFE00F3CF792F1F932F933F934F9311241127A4
:10500E00222733274427552790E2AE17BF0786077E
:10501E00410730F0AE1BBF0B860B410B089401C04D
:10502E008894551F221F331F111CAA1FBB1F881FD8
:10503E00441F9A9551F7F901612D4F913F912F9190
:10504E001F91662332F0550FEE1FFF1F661F7A95D4
:10505E0043F27FDE5F91089599239AF0772342F011
:10506E00971748F029F4AE17BF07860720F031F0E6
:10507E009894889408959894089408951894889410
:10508E0008957723C2F7971798F3A9F7EA17FB0746
:10509E00680788F399F3ECCFF195E195F040089508
:1050AE00F09560957095E195FF4F6F4F7F4F089586
:1050BE00EE230E2EEA2F19F0EE0F0A94E9F708955B
:1050CE00EE230E2EEA2F19F0E6950A94E9F70895CD
:1050DE00EE0FFF1FEE0FFF1F0895F595E795F5955F
:1050EE00E7950895FE2FFF0FFF0B6F2F7F2F08956B
:1050FE006F2F660F660B762F0895BA2FBB0FBB0B63
:10510E008B2F9B2F0895EA17FB07E1E008F4EE279B
:10511E000895FA9FF02DEB9FF00DEA9FE02DF10D13
:10512E0008957A9F702D6B9F700DF89F700DE99FFB
:10513E00700D6A9F602D710DFB9F600D711DE89FB4
:10514E00600D711D8827FA9FF02D610D781FEB9F62
:10515E00F00D611D781FEA9FE02DF10D681F781F7D
:10516E000895002498E0AA0F001C0E1A10F40E0EDB
:10517E0001C0A1609A95B9F7EA2FA02D08950024D9
:10518E00112490E1AA0FBB1F001C111C0E1A1F0A3E
:10519E0018F40E0E1F1E01C0A1609A9599F7FD011D
:1051AE00D0010895DEDFEA2F0895E9DFFD010895AD
:1051BE00ED91FC9111970895E881F9816A817B81C7
:1051CE000895A881B9818A819B810895E883F98326
:1051DE006A837B8308957A936A93FA93EA93089588
:1051EE009A938A93BA93AA930895689401C0E89407
:1051FE0001D016DE182E862F612D192E972F712DA8
:10520E001B2EBF2FF12D1A2EAE2FE12D0895E199F1
:10521E00FECFFF93FFB7F894AEBBBFBBE09AEDB3E2
:10522E00FFBFFF91089507D01196EF93EF2F03D094
:10523E00EF9111970895E19B02C0A895FCCF9FB7FF
:10524E00F894AEBBBFBBE09A8DB3E81719F0EDBB77
:10525E00E29AE19A9FBF089530976040704008959A
:10526E0000240A160B06089500240A160B060806DB
:10527E00090608955A934A933A932A931A930A93D6
:10528E0008955D814C813B812A81198108810895A1
:00000001FF
