:040000000C94171332
:100004000C9400000C9400000C9400000C9400006C
:100014000C9400000C9400000C9400000C9400005C
:100024000C9400000C9400000C9400000C9400004C
:100034000C9400000C9400000C9400000C9400003C
:100044000C9400000C9400000C9400000C9400002C
:100054000C9400000C9400000C9400000C9400001C
:100064000C9400000C9400000C9400000C9400000C
:100074000C9400000C9400000C9400000C940000FC
:100084000C9400000C9400000C9400000C940000EC
:100094000C9400000C9400000C9400000C940000DC
:1000A4000C9400000C9400000C9400000C940000CC
:1000B4000C9400000C9400000C9400000C940000BC
:1000C4000C9400000C9400000C9400000C940000AC
:1000D4000C9400000C9400000C9400000C9400009C
:1000E4000C9400000C9400000C9400000C9400008C
:1000F4000C9400000C9400000C9400000C9400007C
:100104000C9400000C9400000C9400000C9400006B
:100114000C9400000C9400000C9400000C9400005B
:100124000C9400000C9400000C9400000C9400004B
:100134000C9400000C9400000C9400000C9400003B
:100144000C9400000C9400000C9400000C9400002B
:100154000C9400000C9400000C9400000C9400001B
:100164000C9400000C9400000C9400000C9400000B
:100174000C9400000C9400000C9400000C940000FB
:100184000C9400000C9400000C9400000C940000EB
:100194000C9400000C9400000C9400000C940000DB
:1001A4000C9400000C9400000C9400000C940000CB
:1001B4000C9400000C9400000C9400000C940000BB
:1001C4000C9400000C9400000C9400000C940000AB
:1001D4000C9400000C9400000C9400000C9400009B
:1001E4000C9400000C9400000C9400000C9400008B
:1001F40005072060000000000000005F0000000709
:10020400000700147F147F14242A7F2A1223130862
:10021400646236495522500005030000001C224147
:10022400000041221C00082A1C2A0808083E08086D
:100234000050300000080808080800303000002092
:10024400100804023E5149453E00427F400042618D
:100254005149462141454B311814127F1027454519
:1002640045393C4A49493001710905033649494930
:1002740036064949291E003636000000563600006D
:100284000008142241141414141441221408000206
:1002940001510906324979413E7E1111117E7F498F
:1002A4004949363E414141227F4141221C7F49490F
:1002B40049417F090901013E414151327F08080843
:1002C4007F00417F41002040413F017F08142241CB
:1002D4007F404040407F0204027F7F0408107F3E3D
:1002E4004141413E7F090909063E4151215E7F0992
:1002F400192946464949493101017F01013F4040DE
:10030400403F1F2040201F7F2018207F63140814C3
:10031400630304780403615149454300007F41416C
:10032400020408102041417F00000402010204403D
:1003340040404040000102040020545454787F4857
:100344004444383844444420384444487F3854545E
:100354005418087E090102081454543C7F0804040C
:100364007800447D40002040443D00007F10284434
:1003740000417F40007C041804787C080404783829
:10038400444444387C14141408081414187C7C085D
:100394000404084854545420043F4440203C404042
:1003A400207C1C2040201C3C4030403C4428102829
:1003B400440C5050503C4464544C440008364100B2
:1003C40000007F0000004136080002010204027FA1
:1003D4004141417F000E206005020406060A07021F
:1003E40004040406030403030606060606060606BA
:1003F40006060303060606060B0807070706060893
:100404000702050706080708060807070607080B7A
:100414000708070303030506040606060606040682
:100424000602020502080606060604060306060A74
:10043400060606040204060800000000000000008E
:100444000000F8000500380038000000000020E03B
:1004540038E038000701070101003048F8489000EF
:1004640002040F04030030484830C0308880000084
:100474000000040300030404030000B048C8300073
:10048400000304040403050038000000E010080021
:10049400070810000810E00010080700503850004A
:1004A400000000008080E080800000000300000065
:1004B400000000001C000000000001010100000019
:1004C4000000040000E018060100F0080808F0002D
:1004D4000304040403002010F800000000000700D7
:1004E40000001008088870000406050404001008C1
:1004F4004848B000020404040300806010F80000BF
:1005040001010107010060584848880002040404FE
:100514000300F0484848900003040404030008085A
:10052400C8380800000700000000B0484848B00080
:1005340003040404030070888888F000020404049F
:1005440003002000000400002000001C0000804084
:1005540040402000000101010200404040404000B2
:10056400010101010100204040408000020101011D
:100574000000100888483000000005000000C0306A
:1005840090482828C86810E00007081314141217AC
:100594001412090000807008708000000601010137
:1005A40001010600F848484848F000070404040420
:1005B4000300E0100808081000010204040402000B
:1005C400F808080810E00007040404020100F848D1
:1005D40048484800070404040400F8484848080050
:1005E400070000000000E01008088890A000010245
:1005F400040404020100F840404040F800070000F1
:1006040000000700F8000700000000F800030404DD
:100614000300F88040E01008000700000003040015
:10062400F80000000000070404040400F830C000CF
:10063400C030F8000700010601000700F8106080D0
:1006440000F80007000001020700E0100808081085
:10065400E0000102040404020100F88888887000A4
:10066400070000000000E01008080810E000010284
:10067400040505020500F84848C848300007000092
:10068400000304003048488888100002040404046D
:1006940003000808F8080800000007000000F8003C
:1006A400000000F800030404040403001860800040
:1006B40080601800000001060100000018E00080BE
:1006C4007008708000E018000106010000000106B7
:1006D40001000830C0C03008000403000003040017
:1006E400083040804030080000000007000000008F
:1006F4000008886818080004060504040400F808C3
:10070400001F100018E00000010608F800101F0088
:1007140040300830400000000000000000000000ED
:10072400101010101010081000000000000040A06D
:10073400A0A0C000030404020700F8402020C00069
:10074400070204040300C020202040000304040422
:100754000200C0202040F800030404020700C0A0E7
:10076400A0A0C00003040404020020F02800000735
:100774000000C0202040E000131414120F00F840C1
:100784002020C000070000000700E800070000E880
:10079400100FF8804020000700030400F800070051
:1007A400E04020E02020C000070000070000070010
:1007B400E0202020C000070000000700C020202007
:1007C400C000030404040300E0402020C0001F0212
:1007D40004040300C0202040E000030404021F00BE
:1007E400E04020000700000040A0A02040000204D8
:1007F4000405020020F820000704E0000000E000E7
:100804000304040207006080008060000001060108
:100814000000608000C020C000806000000106016C
:100824000001060100002040804020000402010273
:10083400040060800080600000110E010000202090
:10084400A060200004060504040080700800000F66
:100854001000F8001F000008708000100F00C04056
:10086400C080400000000000000000F010101010D4
:10087400F0000007040404040700000E20600503D0
:100884000506060908030404040603040303060614
:1008940006060606060606060303060606070B08F2
:1008A40007080706060807030607070A07080708D4
:1008B40007070707080B08080704030406060406CD
:1008C40007060707050707030307030B07070707BF
:1008D40005070507070A07070604030406080000BE
:1008E4000000000000000000F8F800060600383898
:1008F400003838000000000020E03820E03807010C
:100904000107010170C8FCC8900002040F04030031
:100914007848788060988080000000060100070411
:10092400070000B0F8C8B8308000030704040707C4
:100934000500383800000000E0F01800030F18002C
:1009440008F0C000180F03005038500000000000E9
:100954008080E0808000000003000000000000169A
:100964000E00000000000101010000000006060066
:1009740000E018060100F0F808F8F0000307040787
:1009840003006030F8F800000000070700001018AA
:1009940088F87000060705040400101848F8B00031
:1009A400020604070300806010F8F8000101010743
:1009B4000701E07858C88800020604070300F0F82D
:1009C40048D890000307040703000888E878180053
:1009D400000707000000B0F848F8B0000307040758
:1009E400030070F888F8F000020604070300606052
:1009F40000060600606000160E00C0C02020100033
:100A0400000001010200404040404000010101019A
:100A14000100102020C0C0000201010000000010ED
:100A240098C878300000000606000000C0309068C6
:100A34002828E86810E000030C0B14141617140A95
:100A440009000000E0F818F8E000000707010101C0
:100A54000707F8F84848F8B000070704040703003C
:100A6400E0F0180808181000010306040406020048
:100A7400F8F80808F8F00007070404070300F8F87A
:100A840048484800070704040400F8F848484800A8
:100A9400070700000000E0F01808889890000103A0
:100AA400060404070300F8F84040F8F800070700BC
:100AB40000070700F8F800070700000000F8F80036
:100AC400020604070300F8F8C0F0B808000707009E
:100AD40001070600F8F800000000000707040404FA
:100AE4000400F8F878E000E078F8F800070700035D
:100AF400070300070700F8F86080F8F8000707000C
:100B040001070700E0F0180818F0E00001030604EC
:100B140006030100F8F88888F87000070700000051
:100B24000000E0F0180818F0E000010306050607CD
:100B34000900F8F88888F870000707000103060424
:100B44007078C8C8989000020604040703000808D7
:100B5400F8F808080000000707000000F8F8000093
:100B6400F8F8000307040407030018F8E000E0F8AD
:100B74001800000107060701000018F8E000F0382B
:100B8400F000E0F818000107070100010707010061
:100B9400001838E0E03818000006070101070600D5
:100BA400001878C0C0781800000000070700000093
:100BB4000808C8E838180006070504040400F8F813
:100BC40008001F1F100018E00000010608F8F800D4
:100BD400101F1F004070187040000000000000004B
:100BE4000000000000001010101010100818100071
:100BF4000000000040A0A0E0C000030704070700B5
:100C0400F8F82020E0C00007070404070300C0E050
:100C140020604000030704060200C0E02020F8F82A
:100C24000003070404070700C0E0A0A0E0C000031D
:100C340007040406020020F0F82808000707000053
:100C4400C0E02020E0E0000B1714141F0F00F8F898
:100C54002020E0C00007070000070700E8E80007BD
:100C6400070000E8E8101F0FF8F880C060200007B4
:100C7400070103070400F8F800070700E0E020205C
:100C8400E0E02020E0C0000707000007070000079D
:100C94000700E0E02020E0C000070700000707008D
:100CA400C0E02020E0C00003070404070300E0E0E4
:100CB4002020E0C0001F1F0404070300C0E0202020
:100CC400E0E000030704041F1F00E0E02020000709
:100CD40007000000C0E0A0A0604000020605050770
:100CE400030020F0F820000003070400E0E0000007
:100CF400E0E0000307040407070000E0E000E0E090
:100D04000000010706070100E0E000C0E0C000E0C9
:100D1400E000000707030003070700000060E0800D
:100D2400E060000006070107060020E0C000C0E004
:100D34002010111F0E0701002020A0E0600006070C
:100D44000504040000F0F808010F1E1000F800006C
:100D54001F0008F8F000101E0F0180404080400082
:100D640000000000000000F808080808F800000768
:100D7400040404040700070E2060000000000000C3
:100D84000000000000000000000000F0000000006F
:100D9400000005000000000070007000000000006A
:100DA400000000000040E050E05000000A070A077D
:100DB40002000040A0B020000000020E020100006A
:100DC40000A0D0A080000000000205020000000086
:100DD400C020200000000304050704000000007088
:100DE40000000000000000000000000000C030000F
:100DF40000000000030C0000000030C000000000F0
:100E0400000C030000000020A070A02000000000DF
:100E140000000000008080F08080000000000700D7
:100E24000000000000000000000000180C04000096
:100E3400008080808080000000000000000000002E
:100E44000000000000000004040000000000008016
:100E54006010000008060100000000E0101010E01F
:100E64000000030404040300000010F0000000006C
:100E7400040407040400002010905020000006051C
:100E84000404040000201090906000000204040494
:100E9400030000804020F000000001010507050068
:100EA4000000F0909010000002040404030000C04D
:100EB400A0909010000003040404030000301010FC
:100EC40090700000000006010000006090909060A7
:100ED40000000304040403000060909090E000000C
:100EE400040404020100000040400000000000046B
:100EF400040000000000004040000000000C060256
:100F04000000008080404020000000000101020039
:100F14000040404040400000010101010100002068
:100F24004040808000000201010000000020109079
:100F34006000000000040500000000E0109050E094
:100F440000000708090A0B000000D030C0000004AC
:100F540006050105060410F0909090600004070453
:100F64000404030000E01010103000000304040423
:100F7400020010F0101020C0000407040402010055
:100F84000010F090D03000000407040506000010A3
:100F9400F090D030000004070401000000E01010BD
:100FA4001030000003040405030110F0908090F059
:100FB4001004070400040704001010F010100000CF
:100FC40004040704040000001010F01000000304DF
:100FD4000403000010F09080503010040704000156
:100FE40006040010F01000000000040704040700C9
:100FF40010F0708070F0100407040004070410F06F
:10100400708010F0100407040106070000E01010BF
:1010140010E000000304040403000010F01010E0CA
:10102400000004070501000000E0101010E00000BB
:1010340003040C0C0B000010F01010E00000040777
:101044000501020400609090A0300000060404042E
:101054000300003010F0103000000004070400000A
:1010640010F0100010F0100003040404030010F04A
:1010740010009070100000070403000010F010C06E
:1010840010F01000030403040300103040804030CB
:101094001004060100010604103050805030100086
:1010A40000040704000000301090503000000605D2
:1010B40004040600000000F01000000000000F0807
:1010C400000000106080000000000000030C00001D
:1010D400000010F00000000000080F0000000040B5
:1010E400201020400000000000000000000000006C
:1010F40000000020202020202020000010200000DC
:10110400000000000000000000804040408000001B
:1011140006050505070410F080404080000407041C
:10112400040403000080404040C0000003040404A1
:1011340004000080404090F000000304040407040D
:1011440000804040408000000305050505000000C4
:1011540040E05050000000040704040000804040B8
:1011640080C04000031414140F0010F0804040802D
:101174000004070400040704004040D000000000FD
:1011840004040704040000404050C0000000101094
:10119400100F000010F00040C040000407010506D5
:1011A4000400000010F00000000004040704040020
:1011B40040C040804080000407040704070440C086
:1011C400804040800004070400040704008040407D
:1011D4004080000003040404030040C080404080B9
:1011E40000101F14040403000080404080C040002D
:1011F400030404141F100040C08040400000040792
:10120400040400000080404040400000040505053F
:10121400020040E0404040000000030404040200D7
:1012240040C0000040C0000003040402070440C0A2
:10123400400040C0400001060403000040C04000DC
:1012440040C040000304030403000040C000C04049
:10125400000004060106040040C0400040C04000F5
:1012640010131C03000000C04040C04000000406EE
:1012740005040600000000E01000000000010F104B
:101284000000000000F00000000000000F0000005B
:10129400000010E00000000000100F01000000003A
:1012A400808000800000010001010000F010101097
:1012B40010F00007040404040700000E2060070770
:1012C40007070707070707070707070707070707AA
:1012D400070707070707070707070707070707079A
:1012E400070707070707070707070707070707078A
:1012F4000707070707090708070707070708070776
:101304000707070707070707070707090707070767
:101314000707070707090708070707070707000064
:101324000000000000000000000000000000F0F0D9
:1013340000000000000505000000000070007000BF
:10134400000000000000000040F8F840F8F84001F8
:101354000F0F010F0F010060F09890300000060499
:101364001C070300609090E080C0000001000304AB
:10137400040380E0F01090800003040507070400D4
:1013840000000070000000000000000000000000E9
:10139400C0E0300000000003070C0000000030E053
:1013A400C0000000000C070300000020A07070A023
:1013B4002000000000000000008080E08080000029
:1013C40000000300000000000000000000000018FE
:1013D4000400000000808080808000000000000085
:1013E40000000000000000000000000404000000F1
:1013F400000080E0F81800000C0F0300000000E07B
:10140400F010F0E00000030704070300002020F0C0
:10141400F000000004040707040400203090F0608A
:10142400000006070504040000209090F06000000E
:10143400020404070300804020F0F00000010105CD
:101444000707050000F07050D09000000204040764
:10145400030000C0E0B0901000000307040703007D
:1014640000301010F0F000000000070700000060DA
:10147400F090F06000000307040703000060F090A0
:10148400F0E00000040406030100000040400000F6
:1014940000000004040000000000404000000000C0
:1014A400000C020000008080402020100000000199
:1014B400020204004040404040404001010101015B
:1014C400010100102020408080000402020100007D
:1014D4000020B090F0600000000505000000E0105E
:1014E400905050E0000708080909050010D0F030BA
:1014F400F0C0000407070107070410F0F090F06043
:101504000004070704070300E0F010101030000384
:1015140007040404020010F0F010F0E000040707D0
:101524000407030010F0F090D0300004070704050E
:10153400060010F0F090D030000407070405000006
:10154400E0F010101030000307040507070110F045
:10155400F080F0F010040707000707041010F0F003
:101564001010000404070704040000001010F0F039
:10157400100707040407030010F0F0805030100433
:1015840007070503060410F0F01000000004070725
:101594000404070010F0E000E0F010040704030462
:1015A400070410F060C010F01004070401030700E2
:1015B400E0F01010F0E0000307040407030010F04B
:1015C400F010F0E00004070705010000E0F010103F
:1015D400F0E00003070C0C0F0B0010F0F090F0602B
:1015E40000040707040306040060F0909030000034
:1015F4000604040703007010F0F0107000000407E4
:101604000704000010F0F000F0F0100003070407D6
:10161400030010F0F000F0F01000000706070000CF
:1016240010F0F010C010F0F01000000707010607DA
:1016340000001030F0C0F030100406070107060463
:10164400103070C0D0703010000004070704000090
:10165400007010D0F03000000607050407000000F9
:10166400F0F010100000000F0F0808001878F0C008
:10167400000000000001070F0C00001010F0F00043
:10168400000008080F0F0000004020102040000058
:101694000000000000000000000000000000202006
:1016A400202020202020000008100000000000005E
:1016B4000000000000404040C0800002070505070C
:1016C400070410F0F04040C0800407070404070337
:1016D40080C0404040C0000307040404020080C0EE
:1016E4004050F0F0000307040407070480C04040A2
:1016F400C08000030705050505000040E0F05050D8
:10170400000004070704040080C04040C0C0400338
:101714001714141F0F0010F0F040C08000040707D6
:10172400000707044040D0D0000000040407070469
:101734000400404050D0C000001010101F0F0000E3
:1017440010F0F080C04000040707010306041010E5
:10175400F0F00000000404070704040040C0C04087
:10176400C040C0800004070700070007070440C00A
:10177400C040C080000407070007070480C0404041
:10178400C080000307040407030040C0C04040C0F9
:1017940080101F1F1414070380C04040C0C04003C2
:1017A4000714141F1F1040C0C08040C00004070766
:1017B4000404000080C0404040C000060505050741
:1017C400020040F0F040400000000307040402005F
:1017D40040C0C000C0C0000003070407070440C0A5
:1017E400C000C0C0400000070607000040C0C04061
:1017F4008040C0C04000010706010607010040C048
:10180400C000C0C040040607010706040040C0C071
:1018140000C0C0401010181F1601000000C040C0D6
:10182400C04000000607050406000000F0F01000A8
:101834000000010F0E0800000000F0F0000000009E
:10184400000F0F0000000010F0F000000000080E70
:101854000F010000008080000080000100000101F1
:101864000000F010101010F0000704040404070036
:10187400001320600607050C080A0C030908090D6B
:1018840004060308080708070708090808070506E7
:101894000D0D0D08100F0E0D0D0A0F0B100D0E106F
:1018A4000D0F0E0C0D0D100E0E120E110E0E0C0B54
:1018B400050B1008080A09080A080B0C0B080C0A87
:1018C400070F0C090D0A0808070B090E080C0B0872
:1018D40008080D0A000000000000000000000000DD
:1018E400000000000000000000000080C000003084
:1018F400340201000000000000000000F800F800BD
:10190400000000000000000000000000404040E033
:101914005848C07048400002221E03023A0E0302D7
:1019240002000000000000000000000000000000B1
:10193400008080E06000D8F83B2E251B03030000E4
:101944000000000000000000808080000080000093
:10195400000725170B063B2C340C00000000000088
:101964000000000000000080C040C0008080C0C0B3
:101974000000003B2C2A1D0A0504020000000000A0
:10198400000000000000000000F80000000000005B
:101994000000000000008040201000C0380E03004A
:1019A4000000000003000000000000000000000030
:1019B400000000F000008040301C0700020100001D
:1019C400000000000000000080A060D020000000A3
:1019D4000000010000000000000000000000000002
:1019E4000000000000E0000000000000000002020F
:1019F40002023F0202020200000000000000000098
:101A04000000000000000000000080807030000032
:101A140000000000000000000000080808080000A2
:101A24000000000000000000303000000000000052
:101A34000000C02010403008060100000000000033
:101A440000000000000000000000808080001C26D0
:101A54002311180C03000000000000000000000027
:101A640000000080000824321E070100000000006E
:101A74000000000000008080800000201B39382412
:101A840013030000000000000000000000808080BC
:101A94008030302121361C030000000000000000CB
:101AA40000000080800010187473191402000000F4
:101AB4000000000000000000008080800020242B33
:101AC40025341800000000000000000000000000A1
:101AD4000080808080001C2E2725151C0101000039
:101AE40000000000000000000000008080808000F2
:101AF4000061790C060100000000000000000000F5
:101B04000000008080808000182827262C1C0300F9
:101B140000000000000000000000808080003030E1
:101B240027151C0E07000000000000000000000044
:101B34000000303006060000000000000000000035
:101B440000808070300606000000000000000000E5
:101B54000000808040404020000000000303030494
:101B64000408080810000000000000000000000045
:101B740000000000000080808080808080808000E1
:101B8400000000040404040404040404000000002D
:101B940000000000000000000000000000204040A1
:101BA40040808000000000000000100808080404C1
:101BB4000303030000000000000000000000000018
:101BC400000000000080404040C0000030370503A2
:101BD400010100000000000000000000C0201010FF
:101BE40088C8484888581020C000001F60C0801E64
:101BF4002120101C27A0F01807000000000000019D
:101C040001010101010000000000000000000000CB
:101C1400000000804020A0601038382820170915E3
:101C2400223D383E27190404000000000000000093
:101C34000000000000000000008040202020D010A0
:101C440090D030A0C0003859424262311C3E33214A
:101C5400190E000000000000000000000000000059
:101C64000000008060301090C0602010D030000070
:101C740003041C232D2626150D000000000000007F
:101C84000000000000000000000080C02020109030
:101C94001090E060A0000033343424322D2E231041
:101CA4000807000000000000000000000000000021
:101CB40000000000E030D0D060001C3E222A251530
:101CC4001D000000000000000000000000000000F3
:101CD4000080402020D010D0302020200000303060
:101CE40023222A1B1D0F0E0101000000000000002A
:101CF400000000000000000000000000804020A060
:101D0400E0601090700000031C2C2724361D060090
:101D14000000000000000000000000000000C040BF
:101D2400A0E0C0C02080C0209050301C2C2020385F
:101D34001C0E073C261109050400000000000000E9
:101D4400000000000000000000000000000000008F
:101D5400804020A0D0301010001C2C202728180E02
:101D64000704030000000000000000000000000061
:101D74000000000000000080406020A050301010DF
:101D84008040202097F4789C573100000000030223
:101D940002010100000000000000000000000080BB
:101DA40080C040008040208040201010383821201E
:101DB40020111D0703393F1008060200000000002F
:101DC400000000000000000000000000000000C04F
:101DD40060201090D0601090700030303324142EA6
:101DE40027130A090400000000000000000000009E
:101DF40000000000000000000080A0E09080F010CF
:101E04000000302828180403381F063D2710080650
:101E140002000000000000000000000000000000BC
:101E240000000000000000C020F010008040182CCA
:101E34002420100C0300003F1C03000000000000DD
:101E4400000000000000000000000000000080C04E
:101E540020A05050D07000001E2F252211180C060F
:101E6400010000000000000000000000000000006D
:101E74008040202010D010905020E000182B222207
:101E8400361D0C07030201010000000000000000E1
:101E94000000000000000000C0602010D010F0E03E
:101EA4000000003037341426332D271308060200AF
:101EB400000000000000000000000000000080405E
:101EC400202020D01090D05020A0E00000182B2A11
:101ED4002232191D0F3B3F2F11080C020000000095
:101EE40000000000000000000000000000000000EE
:101EF400C060201090D060109070003030202336E5
:101F0400140E07030201000000000000000000009E
:101F140000000000000000000080402020D010904D
:101F240050202010001C2C2324343F1F0F070000D6
:101F3400000000000000000000000000000000009D
:101F440000000000C06020F01090E0000080E0700D
:101F540030000000000704043B2D2F17083C2F1706
:101F6400110C02020000000000000000000000004C
:101F74000000000000000000C040A0E040C060106D
:101F84008060101000000000203C170B04020100C8
:101F9400000000000000000000000000000000003D
:101FA400000000C06020D01010E00080806010802D
:101FB40080000007043413190C07043A170D0201BA
:101FC400000000000000000000000000000000000D
:101FD400000000000000C06020D01010E0C040608D
:101FE40060003037342413197C4F23180404000094
:101FF400000000000000000000000000000000C01D
:1020040060A0D090D0600080C02010000019393941
:102014002727141E0F03000000000000000000002A
:102024000000000000000000C0201010103020E06C
:102034002010008081404C4CEC643F1008040403E1
:102044000202010100000000000000000000000086
:102054000080C03010100000C030180603000000DB
:102064000002030200000000000000000000000065
:10207400F0000000007F00000000000000000000ED
:10208400000000D03010000000C0601804030000FD
:1020940000020203000000000000000000000040F5
:1020A40040201008081020404000000000000000FC
:1020B400000000000000000000000000000000001C
:1020C400000000000000000000000000000000000C
:1020D40000000000000000000000000002020202F4
:1020E400020202020000000000C000000000000024
:1020F40000000000000000000000000000000000DC
:10210400000000000000382C26123A2E12080404A5
:102114000000000000000000000000000000C0609B
:10212400200000003C2E232D1608040400000000AB
:102134000000000000000000000000000000382C37
:102144002616160808000000000000000000000029
:1021540000000000806020382C26123A2C17090455
:102164000400000000000000000000000000000067
:10217400000000382C2A3A1E080404000000000065
:1021840000000000000000000080C040A0600000CB
:10219400C0783E271109050202040701000000006F
:1021A400000000000000000000000000000000002B
:1021B4000080B8ACE6723A1612080404070404035B
:1021C400010000000000000000000080C06000006A
:1021D40000000020381E0B353A2E100804040000BD
:1021E4000000000000000000000000000000C0002B
:1021F4000000382C2E120804040000000000000027
:1022040000000000000000000000C000000000808A
:1022140040C0E8383C120804040705040301000028
:10222400000000000000000000C06020000000204A
:102234003C0C07392E1208040400000000000000C2
:1022440000000000000080C06020003C2E1309063E
:102254000200000000000000000000000000000078
:102264000000000000000020343C1E243A1E0C3CF8
:102274002E361008040400000000000000000000D6
:10228400000000000000000000000000000000004A
:102294000020243C1E083C2E1610080404000000F4
:1022A400000000000000000000000000000000002A
:1022B400000000382C161A16080404000000000060
:1022C40000000000000000000000C06000000000EA
:1022D400000000C0781C07352A26100804040407EF
:1022E40001000000000000000000000000000000E9
:1022F4000000000000382CF672FE261208040400C8
:1023040007050301000000000000000000000000B9
:102314000000043A2E160804040000000000000027
:102324000000000000000000003024341E100804E7
:102334000400000000000000000000000080E0A095
:10234400003C2C17090404000000000000000000F9
:1023540000000000000000000000382E12382E2675
:102364001208040400000000000000000000000047
:10237400000000000000000000342C2E2C1608047D
:102384000200000000000000000000000000000047
:102394000000000000000000003C2C160A3C2E2621
:1023A400221E16180C0400000000000000000000AB
:1023B4000000000000000000000000003024123E75
:1023C400241A0404000000000000000000000000C3
:1023D40000000000000000000080B47ADE783C16A3
:1023E40012080404070404030100000000000000B4
:1023F400000000000000000000000000809256DE93
:10240400E4160A080404070406030100000000009F
:102414000000000000F8040400000001037E808036
:1024240000000000000000000000000000FC0000AC
:102434000000000000FF0000000000000003000096
:1024440000000404F8000000000080807E03010006
:102454000000000000000000000000000000000078
:10246400000000000000000201010101020202015B
:102474000000000000000000000000000000000058
:1024840000F8080808080808F80000FF0000000029
:102494000000FF0000010101010101010100AA5532
:1024A400AA55AA55AA552800390A391E2828171EE4
:1024B400170A2800000103070F1F3F7FFF000000D9
:1024C40000000000F05F554331363130204772611F
:1024D40070686963732044656D6F0A466F6E74207B
:1024E40073616D706C65733A005374616E646172EC
:1024F400642035783700417269616C2031340041C1
:102504007269616C20426F6C6420313400436F75D2
:1025140072696572203778313400436F757269656A
:102524007220426F6C64203134005363726970749A
:10253400203139005661726961626C652074657876
:10254400742073706163696E673A0A0A00436F64AA
:1025540065566973696F6E4156520A00436F64652C
:10256400566973696F6E41565200536F6D65206CE6
:10257400696E65207374796C65733A0046696C6C96
:1025840000496D61676520776173207361766564C6
:1025940020746F20454550524F4D00436972636C5F
:1025A4006573202620617263730052656374616EE3
:1025B400676C657320262066696C6C6564206261B3
:1025C4007200526F756E6465642072656374616E27
:1025D400676C650050696520736C696365730050AE
:1025E40075740A696D6167650A66726F6D0A45459F
:1025F40050524F4D3A005075740A696E7665727484
:1026040065640A696D6167650A66726F6D0A45459E
:1026140050524F4D3A0001002D4E414E00494E4656
:102624000000010012301A260000F894EE27E8BFDB
:10263400E9BFEABFF091CC01F860F093CC01F8ED6A
:10264400F4BFE093A200E0934004A0918000AD7F2A
:10265400A160F4BFA093800080E090E2A0E0B0E22B
:10266400ED930197E9F7E6E2F6E2859195910097FB
:1026740061F0A591B59105901590BF01F001059009
:102684000D920197E1F7FB01F0CF8BBFE0E0E0B9D9
:10269400E1B9E2B9E3B9E4B9E5B9E6B9E7B9E8B94A
:1026A400E9B9EAB9EBB9ECB9EDB9EEB9EFB9EFEFC5
:1026B400EDBFEFE3EEBFC0EDD7E20C94A0131A9385
:1026C4000A930FB7F894E0915000E460E09350004F
:1026D400E0915100E470E1F3E0915000E260E09396
:1026E4005000E0914100E0781E2FE8EDE4BF109324
:1026F4004100E0915600EC7FE0935600E0916000C9
:10270400E160E0936000E0915100E270E1F3E09158
:102714004000E87FE1601E2FE8EDE4BF1093400025
:10272400E0915000E67EE0935000E091B400EC7F2D
:10273400E093B4000FBF0991199108952897BFDF62
:10274400E4EFF1E0E883F983E0E0EA83EB83EC83F0
:10275400ED83EE81EE7FEE83ED7FEE83E37FEE8308
:10276400E063EE83E06CEE83EFE5EF83DE010E942D
:10277400D216AAECB4E20E94611CE0E0EA93E4E120
:10278400EA93ADEEB4E20E944C1CE8EDF3E0E09372
:10279400D427F093D527E0E0EA93ECE1EA93AAEF9B
:1027A400B4E20E944C1CEEE7F8E0E093D427F093E7
:1027B400D527E0E0EA93E8E2EA93A3E0B5E20E94D9
:1027C4004C1CEAE7FDE0E093D427F093D527E0E042
:1027D400EA93E4E3EA93A1E1B5E20E944C1CEEEB38
:1027E400F2E1E093D427F093D527E0E0EA93E0E424
:1027F400EA93AEE1B5E20E944C1CE4E7F8E1E09311
:10280400D427F093D527E0E0EA93ECE4EA93AEE230
:10281400B5E20E944C1CA0EABFE00E94B8290E94C5
:102824007C17E4EFF1E0E093D427F093D527A8E3F5
:10283400B5E20E94611CEEEBF2E1E093D427F09341
:10284400D527A1E5B5E20E94611CE2E0EA93A1E08C
:102854000E94091BA1E5B5E20E94611CE3E0EA9332
:10286400A1E00E94091BA1E5B5E20E94611CE4E01D
:10287400EA93A1E00E94091BA1E5B5E20E94611C54
:10288400E5E0EA93A1E00E94091BA0E6B5E20E94FC
:10289400611CA0EABFE00E94B8290E947C17E1E015
:1028A400EA93A1E00E94091BE4EFF1E0E093D4274E
:1028B400F093D527AEE6B5E20E94611CE0E0EA930E
:1028C400EEE0EA93EFE9EA93AEE00E94F81CE1E05F
:1028D400E093D827E5E5E093D927E0E0EA93E3E144
:1028E400EA93EFE9EA93A3E10E94F81CE1E0E093A4
:1028F400D827E3E3E093D927E0E0EA93E8E1EA9319
:10290400EFE9EA93A8E10E94F81CE2E0E093D827FB
:10291400EFEFE093D927E0E0EA93EDE1EA93EFE902
:10292400EA93ADE10E94F81CE2E0E093D827E5E5E4
:10293400E093D927E0E0EA93E2E2EA93EFE9EA934D
:10294400A2E20E94F81CE2E0E093D827E3E3E093DC
:10295400D927E0E0EA93E7E2EA93EFE9EA93A7E212
:102964000E94F81CE4E0E093D827EFEFE093D92726
:10297400E0E0EA93ECE2EA93EFE9EA93ACE20E9446
:10298400F81CE4E0E093D827E5E5E093D927E0E0FC
:10299400EA93E1E3EA93EFE9EA93A1E30E94F81CE6
:1029A400E4E0E093D827E3E3E093D927E0E0EA9377
:1029B400E6E3EA93EFE9EA93A6E30E94F81CA0EAAF
:1029C400BFE00E94B8290E947C17E1E0E093D82779
:1029D400EFEFE093D927E7E0EA93AAEAB4E20E9492
:1029E400FE1EA8EEB3E00E94B829E0E3EA93E8E112
:1029F400EA93A1E00E94BA23E0E0E093D027E1E06B
:102A0400E093D127EEE1EA93E1E1EA93A0E8B5E2AD
:102A14000E944C1CE6E1EA93E0E0EA93E5E2EA93E3
:102A2400E9E2EA93A1E0B0E00E94AA1CE1E0E093AD
:102A3400D027E0E0E093D127EA93EFE2EA93A5E818
:102A4400B5E20E944C1CA0EABFE00E94B82952D211
:102A5400E5E1EA93E7E1EA93A4E10E940C22E5E1CF
:102A6400EA93E7E1EA93E0E0F0E0FA93EA93E8E737
:102A7400F0E0FA93EA93AFE00E944622E3E0E093A9
:102A8400D827EFEFE093D927EFE3EA93E7E1EA935E
:102A9400A4E10E940C22EFE3EA93E7E1EA93E0E089
:102AA400F0E0FA93EA93E2EDF0E0FA93EA93AFE010
:102AB4000E944622E0E0EA93EFE2EA93AFE9B5E24E
:102AC4000E944C1CA0EABFE00E94B82913D2E1E0A6
:102AD400E093D827EFEFE093D927E0E0EA93EA9375
:102AE400E8E2EA93A9E10E94411EE3E0E093D827DB
:102AF400E3E3E093D927EAE2EA93E0E0EA93E8E249
:102B0400EA93A9E10E94411EE2EAF4E2FA93EA930D
:102B1400A1E00E945423EEE0EA93EDE1EA93E6E4B7
:102B2400EA93ACE20E94A623E0E0EA93EFE2EA93A0
:102B3400AEEAB5E20E944C1CA0EABFE00E94B829AC
:102B4400D9D1E5E0EA93E0E0EA93EAE4EA93E6E245
:102B5400EA93A8E00E94861EE0E0EA93E9E2EA93A1
:102B6400A6ECB5E20E944C1CA0EABFE00E94B82982
:102B7400C1D1E1E0E093D827EFEFE093D927E7E272
:102B8400EA93EA93EEE1F0E0FA93EA93ECE2F1E0FF
:102B9400FA93EA93AEE10E94DC22E091D127E0931C
:102BA400E027E8E6EA93E7E2EA93EEE1F0E0FA935D
:102BB400EA93ECE2F1E0FA93EA93AEE10E94DC22BC
:102BC400EFE0EA93EAE4EA93A8EDB5E20E944C1C34
:102BD400A0EABFE00E94B8298DD1A3EEB5E20E941D
:102BE400611CE8E3EA93E0E0EA93E1E0F0E0FA93C1
:102BF400EA93A0E00E94721CE0E0EA93E0E3EA9327
:102C0400AAEFB5E20E944C1CE8E3EA93E0E3EA93FE
:102C1400E1E0F0E0FA93EA93A3E00E94721C2896A4
:102C2400FFCFAA93A881A0FBE0F9E1F9A1FBE2F9A7
:102C3400E3F9A2FBE4F9E5F9A3FBE6F9E7F9219648
:102C440008951A930A930A2F18E0E2E0E0936506C8
:102C5400E8E0E093660607FF04C0E1E0E093650660
:102C640003C0E1E0E0936606E2E0E0936606E093E9
:102C74006506000F115079F7E8E0E0936506BAC4E1
:102C84001A931A2FE4E0E0936606DBDF87C0E09135
:102C9400ED27E295EF70E061AE2FF2DFE091ED27D2
:102CA400EF70AE2FEDDFE091EE27EE0FE066E093DC
:102CB400EF27A091EF27E4DFA091EE27E0EAEA9F57
:102CC400F001DF01E091ED27F0E0EA0FFB1FE09354
:102CD400F027F093F12708951A930A931A2F0A8183
:102CE4000093ED271093EE27D2DF7CC61A931A2F98
:102CF400E091F027F091F127EE50F84D1083E4E0D5
:102D0400E0936506E12FEF70AE2F8BDFAE2F99DFD6
:102D1400E091ED27E295EF70E061AE2FB1DFE09135
:102D2400ED27EF70AE2FACDFE091EF27E160AE2F1F
:102D3400A7DFE4E0E0936506E12FE295EF70AE2FA4
:102D440070DFAE2F7EDF2AC01A930A931A2F0A81EE
:102D54000093ED27E12FE695E695E695E093EE27BF
:102D6400E091EE27EE0FE066E093EF27A091EE27C7
:102D7400E0EAEA9FF001DF01E02FF0E0EA0FFB1F39
:102D8400E093F027F093F127EE50F84DE0812AC646
:102D94001A931A2FA1E874DFA12F72DF19910895F5
:102DA40028971A930A938D01E2E0E0936106E1E02B
:102DB400E0936106E2E0E0936506E4E0E0936106F7
:102DC400E0E1E0936106E0936506E8E0E0936106E4
:102DD400E0936506E0E1E0936606A2E0B0E00E94BD
:102DE400B829E0E1E0936506AEE1B0E00E94B829BD
:102DF400A2EE46DFAEE1B0E00E94B829002E012A1F
:102E040039F0F801DE01129688E00E94F32707C02A
:102E1400E2ECF4E2DE01129688E00E94FD27E885E8
:102E2400E695E695E370E462AE2F2ADFAFE228DF91
:102E3400E885E295E370E862AE2F22DFE885E2954B
:102E4400EF70E695E695E370E86EAE2F19DFA9857D
:102E54009FDFA1EF15DFA7E613DFE885E170EE0F32
:102E6400EE0FE06CAE2FE885E695E170EE0FEE0F05
:102E7400EE0FEA2BAE2F04DFA9E802DFA0E400DFA7
:102E8400A0E5FEDEA0E9FCDEAFEAFADEEA81FB8122
:102E9400E093D427F093D527EC81FD81E093E927D3
:102EA400F093EA27EE81FF81E093EB27F093EC2780
:102EB400E1E0E093D027E0E0E093D127E1E0E09384
:102EC400D627E093D727E093D827EFEFE093D927CD
:102ED400E1E0E093E027E1EEF7E2FA93EA93EFEF23
:102EE400EA93A8E0B0E00E947A2404D0E1E01981DA
:102EF4000881E0C00E94042702EF17E220E430E1D9
:102F040050E0E091D127E03009F05FEFE0E0EA9390
:102F1400A0E0E2DEE4E0E0936506A52F92DE1F93D5
:102F24000F930F5F1F4FE52FAF91BF91EC93F90102
:102F340021503040309789F7E0E0EA93A0E0CCDEFE
:102F4400E0E0EA93A0E040D50E940B273BC50E9435
:102F540004273A2F2E815F81503A10F4283620F04E
:102F64000E940B27289608955A93A22FEDDE1E2F58
:102F7400E22FE770A1E00E941E270E2F303011F0DF
:102F8400102B03C0E02FE0951E23A091EE27E0EA6A
:102F9400EA9FF001DF01E091ED27F0E0EA0FFB1F6B
:102FA400E093F027F093F127EE50F84D1083E09171
:102FB400ED27E295EF70E061AE2F62DEE091ED2740
:102FC400EF70AE2F5DDEE091EE27EE0FE0660E2F80
:102FD40022FF03C0016012951F70A02F51DEE4E0B0
:102FE400E0936506A12F1DDEAE2F2BDE0E940B277A
:102FF40089C61A930A931A2F0A81003A10F41836D4
:1030040010F0E0E0EFC40A93A12F9EDE1E2EE12F04
:10301400E770A1E00E941E27E12111F0E1E001C068
:10302400E0E0E0C40E9404270A2F3E812F815885E6
:1030340049854A93A52F88DE1E2F29DEE02FE7302D
:1030440011F0E83031F42A93A02F0E9499242E2FF6
:1030540006C0E33011F4209502C0E03021F4E32FE0
:10306400E0951E2302C0E23021F4E32FE2231E2B5D
:103074000CC0E13021F4E32FE2231E2706C0E43024
:1030840021F4E32FE095E22B1E23A12F2FDEE09104
:10309400ED27EF5FE093ED27E091F027F091F12722
:1030A4003196E093F027F093F127A091EF27E8DD24
:1030B4000E940B272A960895AA9323970E94042717
:1030C400A889A03A48F4AF85A83630F4AE85A0307C
:1030D40019F0AD85A03009F465C2EE85E887A889AA
:1030E400BB27EE85F0E0AE0FBF1FA13AE0E0BE07BC
:1030F40020F0A889E0EAEA1BEE872D85AF85BB277F
:10310400ED85F0E0AE0FBF1FA936E0E0BE0720F06A
:10311400AF85E8E6EA1BED87A985A63009F077C0FC
:10312400EC85E13009F43EC2E33039F4E091EB2759
:10313400F091EC27309709F435C20885ED85E695C2
:10314400E695E6953E2FE22FE77019F4AD852A1730
:1031540051F1A02FBB27E32FF0E00E944F27AA854F
:10316400BB85EA0FFB1FEE83FF83269526952695E4
:10317400532F5F935F5FE22FAF91EA17A0F0102FF8
:10318400E12F1150E03071F0EC85EA93EF81F8857E
:103194003196EF83F8873197FA93EA93A0E00E947F
:1031A400DE24EECFE6CFAE850A1789F1EE85AA8537
:1031B400BB85F0E0EA0FFB1FEE83FF83ED85E7702C
:1031C40009F03F5F20E02F932F5FE32FAF91AE17FD
:1031D400F0F41E851F931F5FE02FAF91AE1770F4BC
:1031E400EC85EA93EF81F8853196EF83F887319780
:1031F400FA93EA93A0E00E94DE24ECCFEE85AE8140
:10320400BF81F0E0EA0FFB1FEE83FF83DCCFEF8585
:10321400E7703E2FED85E03009F4C4C1EA85FB85F3
:10322400EE83FF8310E00889303009F09AC0AD8541
:10323400A83008F491C0E985E03011F0E33009F4D6
:1032440002C0E73009F402C0E83009F402C0E930F2
:1032540009F402C0EA3041F4E889EA93E889E69582
:10326400E695E695AE2F38DD1F931F5FEE85AF918F
:10327400AE1708F06AC0A985A63001F5EC85EA937B
:10328400EF81F8853196EF83F8873197FA93EA93C3
:103294000A930395AB8958DDAE2F0E94DE24E0919A
:1032A400ED27EF5FE093ED27E091F027F091F12710
:1032B4003196E093F027F093F12746C0E985E93091
:1032C40011F450E018C0EA3011F45FEF14C0EC853B
:1032D400EA93EF81F8853196EF83F8873197662773
:1032E4007727DF01CB010E94BF245E2FE985E730F9
:1032F40011F0E83031F45A93AA850E9499245E2F84
:1033040006C0E33011F4509502C0E030A1F4A52FBB
:10331400EDDCE091ED27EF5FE093ED27E091F027FE
:10332400F091F1273196E093F027F093F127A091E3
:10333400EF27A6DC09C00A930395E889EA935A9318
:10334400EFEFEA93AD856EDE8FCFEF85E85FEF8711
:10335400ED85E850ED871DC15D8520E0E0E0ED8757
:10336400A0C0E32FAD85AE0FA93020F42D85E0E099
:10337400ED8703C0E8E0E31B2E2F3A93A22F0E94AF
:1033840089244E2FE985E63079F51F931F5FEE857A
:10339400AF91AE1740F50A930395A889D5DCE423D1
:1033A400AE2FE32F0E9426275E2FEC85EA93AF8190
:1033B400B885882799270E94BF241E2EE32FA42FA7
:1033C4000E942627E095E1215E2BEC85EA93EF81AC
:1033D400F8853196EF83F8873197FA93EA93A52F0E
:1033E4000E94DE24D2CF41C0E93011F450E003C082
:1033F400EA30D1F45FEF5A93AA850E949924AE2F44
:10340400E32F0E941E275E2F1F931F5FEE85AF914F
:10341400AE1748F40A930395E889EA935A934A93BA
:10342400A0E000DEF1CF21C01F931F5FEE85AF91B6
:10343400AE17D8F40A930395E889EA93EE85EA93E4
:10344400E985FA853196E987FA87319766277727E0
:10345400DF01CB010E94BF24AE2FE32F0E941E2761
:10346400EA934A93AD85DEDDDFCFED85E03009F4E4
:1034740099C0AD85A83028F4ED85E21B5E2FE0E00D
:1034840003C0532FED85E850ED8710E0EF85E85F2A
:10349400EF87E8E0E31B2E2F0889EA85FB85EE839E
:1034A400FF83E52FF0E0E854FB4D4491E985E630D5
:1034B40079F51F931F5FEE85AF91AE1740F50A9320
:1034C4000395A88941DCE423AE2FE22F0E941E2736
:1034D4005E2FEC85EA93AF81B885882799270E94EF
:1034E400BF241E2EE22FA42F0E941E27E095E12167
:1034F4005E2BEC85EA93EF81F8853196EF83F887AC
:103504003197FA93EA93A52F0E94DE24D2CF41C0CB
:10351400E93011F450E003C0EA30D1F45FEF5A937C
:10352400AA850E949924AE2FE22F0E9426275E2F9F
:103534001F931F5FEE85AF91AE1748F40A9303956E
:10354400E889EA935A934A93A0E06CDDF1CF21C055
:103554001F931F5FEE85AF91AE17D8F40A930395BE
:10356400E889EA93EE85EA93E985FA853196E98755
:10357400FA87319766277727DF01CB010E94BF24A2
:10358400AE2FE22F0E942627EA934A93AD854ADDA7
:10359400DFCFE885AA85BB85F0E0EA0FFB1FEA8749
:1035A400FB8738CE0E940B27619608951A930A93DD
:1035B4008D010024001601061CF0E0E0F0E01AC0C2
:1035C400003AE0E01E071CF0EFE9F0E013C011C080
:1035D4001A930A938D010024001601061CF0E0E002
:1035E400F0E008C00836E0E01E071CF0E7E6F0E073
:1035F40001C0F8010991199108951A930A931A2F99
:103604000A810A931A93A091D027A1DCEBC11A93E3
:103614000A931A2F0A810093D6271093D727E2C161
:103624000E9406270A2F3C81303A10F4083628F00D
:10363400E0E0F0E060E070E017C0E02FE7701E2FDC
:10364400069506950695103009F00F5FA32FBB274A
:1036540088279927E02FFF27662777270E94572777
:10366400EC5FFF4F6F4F7F4F0E940D272596089503
:10367400BA93AA9323970E940427E091D427F09148
:10368400D5278F01002E012A19F4E0E0F0E065C08F
:10369400F8010F5F1F4F04900F82F8010F5F1F4F57
:1036A40004900E82F8010F5F1F4F04900886EB858B
:1036B400A885EA1718F4E0E0F0E04FC0F8010F5FC6
:1036C4001F4F5491A885BB27EE27A50FBE1FEB857E
:1036D400F0E0EA17FB0718F0E0E0F0E03EC0EE810E
:1036E400E695E695E6954E2FEE81E77009F04F5F7B
:1036F400EF81E030A1F0A985BA85EC93A885EB852C
:10370400EA1BF0E0DF01EF81F0E00E944F27DF01C8
:10371400E42FF0E00E944F27E00FF11F1EC0980134
:10372400E52FF0E00E0F1F1FA885AF5FA887A150FB
:10373400EB85AE1760F4F9012F5F3F4FA491B0E021
:10374400E42FF0E00E944F270E0F1F1FEDCFF90169
:10375400E491A985BA85EC93F8010E940B272C9675
:103764000895E0E0E093D227A091D327BB27E0910E
:10377400D427F091D5273196E491F0E0AE0FBF1F26
:10378400E091D727F0E0AE0FBF1F22DFE093D327ED
:10379400089521970E9404272A2FE091D427F091BD
:1037A400D527309709F471C02A3009F46AC02A93E6
:1037B400DE0117965DDFAF01309719F40E940B27E5
:1037C4006DC2E091D627AE81EA0F3E2FA091D22799
:1037D400BB27F0E0EA0FFB1F8F01013AE0E01E0770
:1037E40018F0032F1127BDDFE091D227EA93E0916F
:1037F400D327EA93E885EA93E091D427F091D5277B
:103804003196E491EA93E1E0EA935A934A93A7E06C
:1038140053DCE091D227AE81EA0FEA93E091D327FB
:10382400EA93E091D627EA93E091D427F091D52743
:103834003196E491EA93E0E0EA93E0E0F0E0FA9371
:10384400EA93A9E039DCE091D227EA93A091D32747
:10385400E091D427F091D5273196E491EA0FEA93C9
:103864003A93E091D727EA93E0E0EA93E0E0F0E0CE
:10387400FA93EA93A9E020DCE0EAF0E0E017F1072C
:1038840021F46FDF0E940B2709C20093D2270E9404
:103894000B2704C20E9404279D010E815F815A9365
:1038A400A02F92D0F9012F5F3F4FE4911E2FE030FB
:1038B40019F0A12F6EDFF6CF0E940B2723C20E94BE
:1038C40006279D01F9012F5F3F4FE4911E2FE03041
:1038D40019F0A12F5EDFF6CF0E940D2724960895DC
:1038E40024970E9404271A2F2A853B850C855D8521
:1038F400153048F5D9012F5F3F4F0E94B827E8875C
:10390400D9012F5F3F4F0E94B827E987D9012F5F64
:103914003F4F0E94B827EE83D9012F5F3F4F0E948B
:10392400B827EF835A930A93EA85EA93E985EA93E1
:10393400E2E0EA933A932A93A12FBEDBE885EA9367
:10394400AF816EDEABC6E0E0F0E060E070E0A6C6FA
:103954000E9404278D013E812F8158854985E22FDD
:10396400F0E00E94C127D8011296E32FF0E00E94F4
:10397400C1274A935A932A933A93E2E0EA93F801CF
:103984003496FA93EA93A6E097DB2A93A32F48DEB2
:1039940077C50E9406271A2F0C813D813A930A931A
:1039A400E091D927E12319F0E091D02702C0E091FA
:1039B400D127AE2FCCDA110F103009F411E0E12F2A
:1039C4000E940D27269608951A930A931A2F0A81A6
:1039D400A02FBB27EBDDE093D227A12FBB27F8DD77
:1039E400E093D3271981088123960895AA932B97EE
:1039F4000E940427AC89BB27D9DDEC8BAA89BB279D
:103A0400D5DDEA8BAB89BB27E3DDEB8BA989BB272B
:103A1400DFDDE98BEA89E093D227E989E093D327B4
:103A2400E1E0E887E989AB89EA1789F51C89AA8965
:103A34001A1731F41A93EC89EA93A1E0AADFE2C0E1
:103A4400AA891A1730F4EA89E11B0E2F41E050E0ED
:103A540006C0AA89E12FEA1B0E2F4FEF5FEF3B89C7
:103A6400E091D827EE83EE81E150EE83EF5F39F0E9
:103A74001A933A933395AA858CDFEF83F4CFEF81C1
:103A8400E887140FE02F0150E03049F7BBC0EA8902
:103A9400AC89EA1759F53B89A9893A1730F4E989C1
:103AA400E31B2E2FE1E0F0E006C0A989E32FEA1B17
:103AB4002E2FEFEFFFEFED87FE871C89E091D827CB
:103AC400EE83EE81E150EE83EF5F39F01A931395A4
:103AD4003A93AA855EDFEF83F4CFEF81E887ED8523
:103AE4003E0FE22F2150E03041F78CC0E091D827FF
:103AF400EE83EE81E150EE83EF5F09F483C01C890D
:103B04003B89E1E02E2F0E2FAA89BB27EC89F0E038
:103B1400AE1BBF0BAD0155232AF40FEFFA010E942F
:103B24001227AF01FA01EE0FFF1FEF87F88BA98967
:103B3400BB27EB89F0E0AE1BBF0BAD87BE87AE851C
:103B4400AA233AF42FEFED85FE850E941227ED8714
:103B5400FE87ED85FE85EE0FFF1FEB87FC871A932A
:103B64003A93A1E016DFE887E0E0E987EA87AD85CC
:103B7400BE854A175B07F4F0100FEB85FC85A98519
:103B8400BA85EA0FFB1FE987FA87A985BA854A1720
:103B94005B073CF4320FAF85B889EA1BFB0BE9875E
:103BA400FA871A933A93AA85F4DEE887EA89E1173B
:103BB40019F721C0320FEF85F889A985BA85EA0F74
:103BC400FB1FE987FA87ED85FE85A985BA85EA1783
:103BD400FB074CF4100FAB85BC85E985FA85EA1B1D
:103BE400FB0BE987FA871A933A93AA85D2DEE88712
:103BF400E989E317F9F6EB89EF5FEB8BE989EF5F6E
:103C0400E98B77CF0E940B27659608951A930A9340
:103C14001A2F0A81E091D227EA93E091D327EA93FD
:103C24000A93E4DE0C949524BA93AA930E94042781
:103C3400EE81FF81138101813281AE81BF812C919C
:103C4400011718F4502F012F152F231718F4522F92
:103C5400232F352FE12FAE81BF811396EC93E32FF1
:103C6400AE81BF811296EC93E02FAE81BF81119695
:103C7400EC93AE81BF812C930E940B2743C00E941A
:103C840006271A2F0C813D812E812A933A93E02F27
:103C9400E20FEA93A30F04D00E940D2727960895FC
:103CA400AA930E940627E091D827E1503E2FDE0117
:103CB4001496BADFED81E31B1E2FEC81E31B0E2F5C
:103CC400EF81EA93EF81EA931A93A9858FDE1A9321
:103CD400EF81EA931A93A02F89DEED81EA930A9388
:103CE400E32FA985EA0FEA93A02F80DEEF81EA9300
:103CF400ED81EA93E985EA93E32FA985AE0F76DE99
:103D04000E940D2728960895AA9322970E940427BB
:103D1400AA85A13019F4A985A13009F005C0EC8564
:103D2400EA93AC856ADC64C0EA85E03019F0E98581
:103D3400E03009F45DC0E885AC85EA0F1E2FE88504
:103D4400AB85EA0F2E2FE091D827E150EF83EA8567
:103D5400AC85AE0FA1503A2FA885E32FEA1B0E2F96
:103D6400AF813A1BE985AB85AE0FA1504A2FA885D8
:103D7400E42FEA1B5E2FAF814A1BE091D927EE8323
:103D8400EFEFE093D9271A93EC85EA93E02FE15003
:103D9400EA93AE852BDE0A932A93EA85EA93A1E897
:103DA400D1D23A932A933A93A52FA1501FDE0A93B6
:103DB4005A93EA85EA93A8E8C5D20A934A931A93D8
:103DC400A42F14DE1A935A93EA85EA93A4E8BAD28C
:103DD400EC85EA935A93EE85EA93A22F07DE1A93B1
:103DE4002A93EA85EA93A2E8ADD2EE81E093D9273B
:103DF4000E940B272D9608950E9406278D013C8171
:103E0400303011F40C94DA24002E012A11F40C94AD
:103E1400DA24F801E491EA93F8013196A491D4DD0F
:103E2400E32F3150E03051F0F801E491EA93F801C6
:103E34000E5F1F4F3196A491E9DEF2CF0C94DA2481
:103E44000E94A1271A930A93AA81BB818C819D8128
:103E54000E9431250E9446288F01AA81BB818C8152
:103E64009D810E943E270E947D280E94AB270E94CC
:103E7400B028DF01CB01E0E0F0E060E07FE30E94E6
:103E8400982910F00F5F1F4FF801198108810C94D5
:103E94007824BA93AA9324970E9404270C851D853D
:103EA4003E854F8558892989EF85F88966277727C4
:103EB4000E947D28A5E3BAEF8EE89CE30E940629C0
:103EC400EE83FF8368877987EA89F0E0FF93EF93B5
:103ED400AE81BF81888599850E94FD25A32FBB27CC
:103EE400882799270E94A8270E940629DF01CB0171
:103EF400A7DFAF91BF91AE0FBF1F58DBD801EC9382
:103F0400E22FF0E0FF93EF93AE81BF81888599851E
:103F14000E944725A32FBB27882799270E94A827FB
:103F24000E940629DF01CB018BDFAF91BF91AE1B4D
:103F3400BF0B4EDBAA85BB85EC93D0C1BA93AA9381
:103F440023970E940427ED85E887E091D827EF8323
:103F5400E091D027EE83AA89BB27EF85F0E0EA0F32
:103F6400FB1F8F01A989BB27E889F0E0AE1BBF0BBB
:103F74009D01A989BB27E889F0E0EA0FFB1FAF0187
:103F8400E885E178E138B1F0E885E07861F5AD8560
:103F9400BE85EAE5F0E0EA1BFB0B0F01DF01EB85D0
:103FA400FC85AE17BF072CF0E985FA85E015F1050D
:103FB4000CF419C033231AF00A93A22F1EDBAF812D
:103FC400A23020F02230E0E03E070CF40CC00A934B
:103FD400A22FA2500ED8AE2FEE81EA1721F40A9335
:103FE400A22FA1500ADBE885E878E838B1F0E8852B
:103FF400E07831F5AD85BE85A25FBE4FEB85FC85CB
:10400400AE17BF074CF0AD85BE85A25FBE4FE985F4
:10401400FA85EA17FB070CF413C00A93A42FEDDA10
:10402400AF81A23068F00A93A42FAE5F0E94FB1701
:10403400AE2FEE81EA1721F40A93A42FAF5FDDDAE5
:10404400AA89BB27EF85F0E0AE1BBF0B8D011123BE
:104054000AF461C0E885E278E238B1F0E885E078F6
:1040640069F5AD85BE85A65ABF4FEB85FC85AE17B5
:10407400BF074CF0AD85BE85A65ABF4FE985FA85CA
:10408400EA17FB070CF41AC033231AF00A93A22F81
:10409400B4DAAF81A23020F02230E0E03E070CF425
:1040A4000DC00A93A22FA2500E94FB17AE2FEE81DF
:1040B400EA1721F40A93A22FA1509FDAE885E47845
:1040C400E438B1F0E885E07831F5AD85BE85EEE001
:1040D400F1E0EA1BFB0B0F01DF01EB85FC85AE175A
:1040E400BF072CF0E985FA85E015F1050CF413C03F
:1040F4000A93A42F82DAAF81A23068F00A93A42F26
:10410400AE5F0E94FB17AE2FEE81EA1721F40A93EB
:10411400A42FAF5F72DAAA89BB27E889F0E0EA0F1F
:10412400FB1F8F01A989BB27EF85F0E0AE1BBF0BF6
:104134009D01A989BB27EF85F0E0EA0FFB1FAF01C2
:10414400E885E178E13881F0E885E07821F5EB85D0
:10415400FC85AD85BE85AE17BF072CF0E985FA85D1
:10416400EA17FB070CF417C03323AAF00A93A22F13
:1041740044DAAF81A23078F0E02FEE5FEA93A22F09
:104184000E94FB17AE2FEE81EA1729F4E02FEF5FB0
:10419400EA93A22F32DAE885E878E838B1F0E885C6
:1041A400E07841F5AD85BE85E8E6F1E0EA1BFB0B5E
:1041B4000F01DF01EB85FC85AE17BF072CF0E98505
:1041C400FA85E015F1050CF415C00A93A42F15DA4D
:1041D400AF81A23078F0E02FEE5FEA93A42F0E9423
:1041E400FB17AE2FEE81EA1729F4E02FEF5FEA9375
:1041F400A42F03DAAA89BB27E889F0E0AE1BBF0B22
:104204008D0111230AF46AC0E885E278E238B1F03E
:10421400E885E07879F5AD85BE85E4EBF0E0EA1B4E
:10422400FB0B0F01DF01EB85FC85AE17BF072CF0FC
:10423400E985FA85E015F1050CF41CC03323D2F0AE
:104244000A93A22FDAD9AF81A23020F00230E0E045
:104254001E070CF40FC0E02FE250EA93A22F0E9435
:10426400FB17AE2FEE81EA1729F4E02FE150EA9311
:10427400A22FC3D9E885E478E438B1F0E885E07882
:1042840069F5AD85BE85AC54BF4FEB85FC85AE1793
:10429400BF074CF0AD85BE85AC54BF4FE985FA85A8
:1042A400EA17FB070CF41AC00A93A42FA6D9AF810E
:1042B400A23020F00230E0E01E070CF40FC0E02F23
:1042C400E250EA93A42F0E94FB17AE2FEE81EA1767
:1042D40029F4E02FE150EA93A42F8FD90E940B27F1
:1042E400639608950E9404275A2F4E81A885BB2700
:1042F400E42FF0E0AE1BBF0B59D91E2FA885BB27B6
:10430400EE27A40FBE1F52D90E2FAF81BB27E52F76
:10431400F0E0AE1BBF0B5CD93E2FAF81BB27EE276D
:10432400A50FBE1F55D92E2F1A933A930A93A32F84
:104334005DDB1A932A930A93A22F58DB0E940B2762
:104344000C94FB250E9404274A2FA885A03A18F450
:10435400AF81A83620F00E940B270C94FB255091C6
:10436400D827E52F5150E03009F450C0EE81E030F9
:1043740021F40E940B270C94FB25EE81E150EE837F
:10438400EF5F0E2FF0E0A5E0B0E0AE1BBF0BFD0128
:104394000E942E270E9433279F0110E0403479F4B5
:1043A400E885EA93E885EA931A93A02F9BDFE885D2
:1043B400EA93E885EA930A93A12F94DF11C0E88574
:1043C400EA93E885EA931A930A93E42FF0E0FA93C8
:1043D400EA93E0E0F0E0FA93EA93A0E0B0E0AEDD27
:1043E4001F5F33231AF4E12FF0E008C00150A12F1E
:1043F400BB27E02FF0E0AE1BBF0BFD01EE0FFF1F4C
:1044040031962E0F3F1F011748F6ABCF0E940B27A2
:104414000C94FB250E9406271A2F0C813D813A93A8
:104424000A931A93AFE88EDF0E940D270C94782428
:104434000E940427AD01A985A03A18F4A885A836DE
:1044440010F0E0E01DC0AE81BF810D911C91DA0136
:104454002D913C91D801E8E6F1E00E948A278F0172
:10446400D901E9E6F1E00E948A279F01AE81BF816C
:104474000D931C93DA01ED93FC93D8010E94492714
:104484000E940B272A9608950E9404274A2FEB8541
:10449400EA93EB85EA93FE013A96FA93EA93DE01F6
:1044A4001A96C6DFE03009F481C0EB85E093DA2781
:1044B400EA85E093DB27EB85EA93EB85EA93EA85CB
:1044C400FB85FA93EA934A93ECEDF7E2FA93EA93C5
:1044D400ADEDB7E2DEDCEB85EA93EB85EA93E885A4
:1044E400F985FA93EA934A93EEEDF7E2FA93EA93A5
:1044F400AFEDB7E2CEDC5091D827E52F5150E03034
:1045040009F454C0403021F40E940B270C94022774
:10451400042F4A95E02FF0E0A5E0B0E0AE1BBF0BFE
:10452400FD010E942E270E9433279F0110E0EB8596
:10453400EA93EB85EA931A930A93E02FFF27662701
:1045440077270E947D280E949C27E12FFF2766275A
:1045540077270E947D28DF01CB010E949B26A1EED4
:10456400BEE285E692E40E9406290E944628FA9358
:10457400EA93EE85FF85FA93EA93AE85BF85DEDC88
:104584001F5F33231AF4E12FF0E008C00150A12F7C
:10459400BB27E02FF0E0AE1BBF0BFD01EE0FFF1FAA
:1045A40031962E0F3F1F011710F6A7CF0E940B273D
:1045B4000C94022722970E9404273A2F4885598594
:1045C4002C85E091D827E1500E2FED85EA932A93AC
:1045D400FE013C96FA93EA93ADB7BEB711975F9389
:1045E4004F9326DF4F915F91E03009F457C010914B
:1045F400D927EFEFE093D927ED85EA932A93EC8549
:10460400FD85FA93EA935A934A93A32F3DDFE0E0A2
:10461400EE83AA85BB85A53BE0E0BE0708F00E83C8
:10462400ED85EA932A93E091DC27EA93A091DD27B4
:10463400E985AE1BDBD9E0E0EE83453BE0E05E07B5
:1046440008F00E83E091DE27EA93A091DF27EF8143
:10465400AE1BAA93EF85EA93A22FC8D9ED85EA93FE
:104664002A93FA01AC85BD85AE0FBF1FFD01F695F7
:10467400E795FA93EA93E32FE695EA93FE013C96D5
:10468400FA93EA93DE011D9604DCEF81EA93EF814D
:10469400EA93A091D0276CD01093D9270E940B27BE
:1046A4002E9608950E9406271A2F2C813D81E1EE53
:1046B400F7E2FA93EA933A932A93A8E0B0E00E94CF
:1046C40068241093E0270E940D270C9478240E94FC
:1046D40004275A2F4E81A885A03A18F4AF81A83632
:1046E40020F00E940B270C94FB25403011F0503031
:1046F40009F426C03F81530FE8854E0F351700F5A6
:10470400E52FE31B2E2F293008F028E01885141715
:10471400A8F4E42FE11B0E2F093008F008E01A93E7
:104724003A930A932A93E0E0EA93E1EEF7E2FA93EC
:10473400EA93A8E00E945E18100FE9CF320FDECF93
:104744000E940B270C94FB25AA93DE016DDAEB8102
:10475400EA93EB81EA93AD81EB81EA1BEF5FEA9385
:10476400AD81EB81EA1BEF5FAE2FB1DF0C9499268C
:10477400FF92AA93E0970E940427A8ADA03A18F4E8
:10478400AFA9A83608F09DC0E091E0274E2FAE2FC8
:10479400EEA9EA1709F095C0FE0136968F01E8AD3F
:1047A400D801EC930F5F1F4FEFA9D801EC930F5F73
:1047B4001F4FFE013696E017F10708F082C0015042
:1047C4001040D801EC91EFAB01501040D801EC91AE
:1047D400E8AF38AD313068F03A93A8AD0E94FB17CA
:1047E4005E2FEEA9E51711F0451709F402C0315008
:1047F400F1CFE894F0F8F1F83F5F303A08F060C088
:104804003A93A8AD0E94FB175E2FEEA9E51711F0AD
:10481400451709F455C03A93E8ADEA93A42F0E94D2
:10482400A917AFA9A13020F1EFA9E1502E2F3A9397
:10483400A22F0E94FB175E2FEEA9E51711F0451772
:1048440009F414C0F0FC11C0FE01F6960E171F0700
:10485400C0F5E32FD801EC930F5F1F4FE22FD8016F
:10486400EC930F5F1F4F6894F0F802C0E894F0F8DF
:10487400AFA9A73620F5EFA9EF5F2E2F3A93A22F09
:104884000E94FB175E2FEEA9E51711F0451709F4F6
:1048940014C0F1FC11C0FE01F6960E171F0788F430
:1048A400E32FD801EC930F5F1F4FE22FD801EC9355
:1048B4000F5F1F4F6894F1F802C0E894F1F89CCFA1
:1048C40078CF0E940B27E996FF900895BA93AA9394
:1048D40099818881009641F0BD81AC81FB81EA8198
:1048E40005900D920197E1F7FD81EC8126960895DC
:1048F400BA93AA93B981A881109631F0FC81EB8117
:104904006A8161931197E9F7EB81FC8153C01A9393
:104914000A931A2F0A81E12FF0E0E854FB4DA49189
:10492400E02F0E941E2719810881239608950E9472
:1049340006270A2F3C81E02FE73011F0EA3019F402
:104944001091D02709C0E93019F41091D12704C07F
:10495400E83089F41091E027E091D127E03039F074
:10496400103011F0EFEF24C0E32FE09521C0103098
:1049740011F4E0E01DC0E32F1BC00E9406278D0147
:104984003C81E32FE13019F4F801E49111C0E230E5
:1049940021F4D8010E94B8270BC0E33039F4D801C0
:1049A400E091E927F091EA27099502C0D801EC913A
:1049B4000E940D27259608950E9406271A2F2C8100
:1049C4003D810E81E02FE03021F4E12FD901EC93F9
:1049D40011C0E23029F4E12FD9010E94C9270AC08D
:1049E400E33041F43A932A93A12FE091EB27F0911D
:1049F400EC2709950E940D27279608950E94A12768
:104A04007B816A81F981E88177FB770F67FD7160AB
:104A1400972F9E5781F078F0983190F4AA27BB27FE
:104A2400882708948795B795A7959A95D1F7EA238F
:104A3400FB23682305C0E8947727EE27FF27662722
:104A44006F77769508F4606877F9A991B99189919F
:104A54009991EA17FB076807790797FB08950E9465
:104A6400A1270E9492270E9400250E94972719F4EB
:104A74000E948D275CC1E6F70E948D27A0E0B0E07C
:104A840080E89FE30E94B02852C10E94A127249786
:104A94001A9310E0AD81BE818F819885E3E8F9EF28
:104AA40062E27EE30E940629ED83FE836F837887AA
:104AB400AD81BE818F819885D2DFAD81BE818F812A
:104AC40098850E94AB270E94B028ED83FE836F83F4
:104AD4007887AD81BE818F819885E0E0F0E060E069
:104AE4007FE30E94982909F008F40FC0ED81FE814C
:104AF4006F817885A0E0B0E080E09FE30E94B02859
:104B0400ED83FE836F83788711E0AD81BE818F8151
:104B14009885E0E0F0E060E87EE30E94982909F0DF
:104B240008F40AC0E0E0F0E060E07FE30E94B0280F
:104B3400ED83FE836F837887103051F0ED81FE8121
:104B44006F8178850E941128ED83FE836F837887B7
:104B5400ED81FE816F817885AD81BE818F819885DD
:104B64000E940629E983FA836B837C83A1EBB4EC6E
:104B740086E292E40E940629DF01CB01EDE1F5EE25
:104B84006DE272E40E94AB270E94B028A981BA8129
:104B94008B819C810E940629ACE4B3E584E091E416
:104BA4000E94B728AD81BE818F8198850E94062915
:104BB4007F936F93FF93EF93E981FA816B817C81FB
:104BC400A1E1BDEE8EED9FE30E94B728A981BA81D1
:104BD4008B819C810E940629AEE5BBE788EA9FE3AE
:104BE4000E94B728AF91BF918F919F910E94542941
:104BF4001881299608950E94A1270E949227EBED1F
:104C0400FFE069EC7FE30E94B028DF01CB013DDFC8
:104C14008EC00E94A1272497EC81FD816E817F8143
:104C2400AC81BD818E819F810E9406290E949727B5
:104C3400A5E6B0ED8BEC90E40E940629AEE4BFE853
:104C44008AE491E40E94B728AC81BD818E819F8162
:104C54000E9406297F936F93FF93EF930E948D2701
:104C6400A0E0BDE689E291E40E94B7280E94922761
:104C74000E940629AEE4BFE88AE491E40E94B728C2
:104C8400AF91BF918F919F910E94542928960895C6
:104C94000E94A1270E949227EDECF3E164ED7EE3EC
:104CA4000E94982910F4B5DF42C00E949227EAE7D7
:104CB400F2E86AE170E40E94982909F008F414C04B
:104CC4000E948D27A0E0B0E080E89FE30E94542971
:104CD400DF01CB019EDFABEDBFE089EC9FE30E94D7
:104CE400AB270E94B02823C00E948D27A0E0B0E02B
:104CF40080E89FE30E94B0287F936F93FF93EF9324
:104D04000E948D27A0E0B0E080E89FE30E94B728CE
:104D1400AF91BF918F919F910E945429DF01CB01E4
:104D240078DFABEDBFE089E49FE30E94B7282496C7
:104D340008950E94A1272497EC81FD816E817F81D3
:104D44000E940728E9F4E885F9856A857B850E9435
:104D5400072829F4EFEFFFEF6FE77FE751C0A8853D
:104D6400B9858A859B850E940B282CF4EBEDFFE026
:104D740069EC7FE345C0EBEDFFE069EC7FEB40C0FD
:104D8400EC81FD816E817F81A885B9858A859B85AB
:104D94000E9454290E949727AC81BD818E819F81F6
:104DA4000E940B288CF4AB85AA2322F00E94922740
:104DB4006FDF26C00E948D270E941128DF01CB01DE
:104DC40067DF0E9411281CC0AB85AA2382F00E94D1
:104DD4008D270E941128DF01CB015ADFABEDBFE024
:104DE40089E490E40E94AB270E94B02809C00E9485
:104DF40092274EDFABEDBFE089E490EC0E94B72828
:104E04002C9608955A934A933A932A931A930A93A1
:104E140008955D814C813B812A811981088108951F
:104E2400F195E195F0400895F09560957095E195C0
:104E3400FF4F6F4F7F4F0895EE230E2EEA2F19F088
:104E4400EE0F0A94E9F70895EE230E2EEA2F19F0D7
:104E5400E6950A94E9F70895EE0FFF1FEE0FFF1F82
:104E64000895F595E795F595E7950895FE2FFF0FBD
:104E7400FF0B6F2F7F2F08956F2F660F660B762F12
:104E84000895BA2FBB0FBB0B8B2F9B2F0895EA17E6
:104E9400FB07E1E008F4EE270895FA9FF02DEB9F5D
:104EA400F00DEA9FE02DF10D08957A9F702D6B9F10
:104EB400700DF89F700DE99F700D6A9F602D710D44
:104EC400FB9F600D711DE89F600D711D8827FA9F7F
:104ED400F02D610D781FEB9FF00D611D781FEA9F87
:104EE400E02DF10D681F781F08950024112490E12E
:104EF400AA0FBB1F001C111C0E1A1F0A18F40E0E59
:104F04001F1E01C0A1609A9599F7FD01D001089573
:104F1400ECDFFD010895E881F9816A817B810895C0
:104F2400A881B9818A819B810895E883F9836A8382
:104F34007B8308957A936A93FA93EA9308959A93F4
:104F44008A93BA93AA930895689401C0E89401D00F
:104F5400D3D0182E862F612D192E972F712D1B2E2D
:104F6400BF2FF12D1A2EAE2FE12D0895A895E091B3
:104F7400CF01E7FDFBCFB05FEC91B051089507D0AE
:104F84001196EF93EF2F03D0EF911197089523D04B
:104F9400B05F8C918E1711F4B05108959E2F1BD0E1
:104FA4007F937FB7F8949C93B051A093C001B093C2
:104FB400C10180E08093C20185E38093CA0188ED3A
:104FC40091E084BF9093CB0106D080E08093CA0126
:104FD4007FBF7F910895A8958091CF0187FDFBCF76
:104FE40008959927EF93FF9361916D930197E1F7EA
:104FF400FF91EF9108959927EF93FF9305900D92F8
:105004000197E1F7FF91EF91089530976040704068
:10501400089500240A160B06080609060895309719
:105024006040704009F070580895552342F4503898
:1050340011F4E0FF04C03196691F791F6BF050E84A
:10504400572711F45F93CFC05F3F31F0660F000C18
:1050540057956795752F08955F9300200AF0CEC089
:10506400C7C050E8192E1522880F991F9527550F90
:10507400879550E8072E0522660F771F7527550F71
:1050840067950895689401C0E8945F93F2DF7038DF
:1050940018F07F3F08F4A7C056E1571BAAF45195B6
:1050A40058300EF4593030F0EFEFFFEF6FEF7FE739
:1050B40077F91AC077275523B9F0EE0FFF1F661F43
:1050C400771F5A95D1F710C07727583028F0EF2F63
:1050D400F62F672F5850F9CF552331F07695679501
:1050E400F795E7955A95D1F700200AF49DDE5F9174
:1050F4000895689401C0E894309760407040B1F01E
:10510400002426F0772312F400948EDE172E7EE11D
:10511400112032F07A95EE0FFF1F661F111CF9CF94
:10512400EF2FF62F612D5F938ADF5F9108954F93E0
:10513400AF01FD01DA01AB01BC01CA01402D012C14
:10514400142E4F910895EA0FFB1F681F0895E095F0
:10515400F0956095EF5FFF4F6F4F08955F9381DF88
:10516400903871F150E8152604C05F937ADF9038C7
:1051740039F1703821F1572F591B2BF112F4D7DF75
:10518400FACF583118F0AA27BB278827583028F0BF
:10519400AB2FB82F88275850F9CF552329F086957F
:1051A400B795A7955A95D9F7502D512572F0CBDFB5
:1051B40038F46795F795E795739513F41FC0B7DF37
:1051C4003EDF5F910895D8F7FBCFEA1BFB0B680B1A
:1051D40051F010F40094BBDF662392F3EE0FFF1F2F
:1051E400661F7A95CBF7EE27FF27BF015F910895DD
:1051F400EFEFFFEF6FE77FEF5F910895EFEFFFEFC2
:105204006FE77FE75F9108955F932BDF703859F361
:10521400903849F301240894791F23F424F30020DF
:105224003AF3ECCF0F921F932F933F934F93112791
:1052340022279927689FA0018F9F302D410D591F68
:105244006B9F300D411D591F8E9F27D0BF9F25D0C6
:105254006A9F23D0BE9F1DD0AF9F1BD0AE9F110D60
:10526400291F391F491F591FE32FF42F652F522F70
:105274004F913F912F911F910F9066232AF0550F64
:10528400EE1FFF1F661F02C073954BF2CEDE5F91C7
:105294000895100D211D391F02C0200D311D491F15
:1052A400591F08955F93DDDE703821F411200AF44C
:1052B4009FCFA4CF903809F496CF01240894970B7C
:1052C4001BF4D4F30020F3CF792F1F932F933F9334
:1052D4004F931124112722273327A90190E2AE17F7
:1052E400BF078607410730F0AE1BBF0B860B410B8F
:1052F400089401C08894551F221F331F111CAA1F34
:10530400BB1F881F441F9A9551F7F901612D4F91D6
:105314003F912F911F91662332F0550FEE1FFF1F0F
:10532400661F7A954BF281DE5F91089599239AF076
:10533400772342F0971748F029F4AE17BF07860782
:1053440020F031F0989488940895989408940895DE
:105354001894889408957723C2F7971798F3A9F7B8
:10536400EA17FB07680788F399F3ECCF109639F036
:10537400A89580E49FE10197F1F71197C9F7089583
:00000001FF
